:100000000C94A7010C94CF010C94CF010C94CF0158
:100010000C94CA130C94CF010C94CF010C94CF0113
:100020000C94CF010C94D7110C94BF130C94AF1304
:100030000C94CF010C94A2110C946D110C94CF016F
:100040000C94A9140C94CF010C94CF010C94CF0103
:100050000C94CF01C303C903CF03E203E203D80327
:10006000EE03E50355006D00432F6D00002500F4FD
:10007000004168004300576800570056004100796E
:10008000657300206E6F00E803017D00E803007BCC
:1000900000640000790064000076006400007400D1
:1000A000E803017100E803016F000100006D00E842
:1000B00003017B000100006C006400006800010087
:1000C0000066000100006600010000000001000061
:1000D00064006E6F6C696D697400141719181A0743
:1000E00005061F202122232465646974206261743F
:1000F0007465727900636170616369747920636803
:1001000065636B00443E4320666F726D61740073DB
:10011000746F726167652B62616C616E63007374EA
:100120006F726167650066617374206368617267EE
:1001300065006469736368617267650062616C6120
:100140006E6365006368617267652B62616C616EE6
:1001500063650063686172676500530144013C0197
:10016000320126011E010F010401F500E800636859
:1001700065616C692D636861726765720A76322EFB
:1001800030305F3230313830353230008025000079
:10019000004B00000096000000E1000000C20100DA
:1001A0004C454400556E6B6E004E695A6E004C34DF
:1001B0003335004C343330004C69706F004C696C3F
:1001C0006F004C6966650050622020004E694D4802
:1001D000004E694364004E6F6E650001000100012E
:1001E0000001000100B0040807520300005203B0F0
:1001F000040807E8030000E803D0079209D60600C8
:10020000006C07E40C100ED007E40CB80B100E04C1
:1002100010C409A60EAC0D740E6810B80B0A0F8935
:100220000C740ECC10B80B0A0F890C740EFE10B8AB
:100230000B0A0F890C40066C07140540067805016F
:1002400000A00FD007010001000100A00F01000174
:10025000000100D601D101CC01C701C201BD01B826
:1002600001B301AE01A901A401A001FF000000003B
:1002700000050400000405090000FF010100000161
:100280000505000005050A0000FF02020000020546
:1002900006000006050B0000FF030300000305072E
:1002A000000007050C0000FF00000000040511021B
:1002B0000004040D0000FF01010000050511040009
:1002C00005040E00000605110100FF0202000007F0
:1002D0000511080056643A0056633A006164617083
:1002E00074206469733A006F7074696F6E7300DC18
:1002F000020F004D00BB02010000000100D8020EF9
:10030000004100AD020A0000008813D4020F004132
:1003100000AF020A00000088130000000000000087
:1003200000000000000000000900030407080900A5
:10033000010203040708090003070809000102037A
:1003400004050607080909E7020000003116112418
:100350001FBECFE5D8E0DEBFCDBF10E0A0E6B0E025
:10036000EEE2FFE202C005900D92A638B107D9F780
:1003700014E0A6E8B0E001C01D92A134B107E1F796
:1003800013E0CEE4D3E004C02297FE010E946F1771
:10039000CC34D107C9F70E94610F0C9495170C94C7
:1003A00000002F923F924F925F926F927F928F92B6
:1003B0009F92AF92BF92CF92DF92EF92FF920F93F4
:1003C0001F93CF93DF93CDB7DEB763970FB6F89443
:1003D000DEBF0FBECDBF9F878E870E94F50879874D
:1003E000688764E6262E312C8E010D5F1F4F1D831A
:1003F0000C838E010F5F1F4F1F830E83809144017A
:100400009091450181309105C9F09C012D7F232BEE
:10041000B9F084309105A1F0039791F420916E0119
:1004200030916F018091460190914701AC0152508B
:100430002417350728F08217930718F4909A01C003
:10044000909880916301811105C010920B01109268
:100450000A0182C18091F8019091F90120910A016D
:1004600030910B012817390709F476C190930B01DD
:1004700080930A0180916600813009F46DC10E9469
:10048000F50820916600223051F4609302017093C8
:10049000030180930401909305011092660000917E
:1004A0000201109103012091040130910501DC014A
:1004B000CB01801B910BA20BB30B80930601909391
:1004C0000701A0930801B0930901E0905801F09052
:1004D000590181E090E00E94CC0B0AED10E0F80198
:1004E0008491E82FF0E0EE0FFF1FEC59FE4F608182
:1004F000718180E090E00E94980B0E94BC0A0F5F1F
:100500001F4FF0E0083E1F0751F707E810E0F80121
:10051000428553854115510589F0A085B185B7FF06
:1005200003C0B195A195B10928EE33E00E94F616FB
:100530009A0140E050E00E942C1702C020E030E019
:10054000B90180E090E00E94980B0E94BC0A045F11
:100550001F4FF0E00F3C1F07D1F64091D90050919A
:10056000DA004115510599F0A091D700B091D8005B
:10057000B7FF03C0B195A195B10928EE33E00E9401
:10058000F6169A0140E050E00E942C1702C020E0CD
:1005900030E0B90180E090E00E94980B0E94BC0A14
:1005A000A0918801B091890180918C0190918D0179
:1005B00040919201509193014115510589F0A81B7A
:1005C000B90BB7FF03C0B195A195B10928EE33E08F
:1005D0000E94F6169A0140E050E00E942C17A901F3
:1005E000BA0180E090E00E94980B0E94BC0A0E9431
:1005F0003E0A682F70E080E090E00E94980B0E9415
:10060000BC0A0E943E0A9091DD009817E0F48093A6
:10061000DD000E9405092091DB003091DC008C0197
:10062000021B130B0E9405099093DC008093DB00F2
:100630008091DE009091DF008017910720F41093E5
:10064000DF000093DE008091DD009101281B31095D
:100650008091DE009091DF00289FB001299F700DEE
:10066000389F700D112480E090E00E94980B0E944A
:10067000BC0A0E94BF0B02E0E016F1040CF46CC04F
:1006800082E090E00E94CC0B00EE10E044E6C42E25
:1006900041E0D42E24E0E216F10414F0F80101C088
:1006A000F6016081718180E090E00E94980B0E94C9
:1006B000BC0A0E5F1F4FF2E0CF0ED11C21E00A32C0
:1006C000120741F76091FE017091FF0180E090E018
:1006D0000E94980B0E94BC0A60E070E0CB010E946F
:1006E000980B0E94BC0A0E94BF0B32E0E316F10493
:1006F00099F183E090E00E94CC0B80913D049091B1
:100700003E04009711F481E494E0FC01BF01681BF2
:10071000790B0C811D810E171F0720F020812E3BC5
:1007200009F4D6C280E090E00E94980B0E94BC0AB7
:1007300080913D0490913E04009711F481E494E08F
:100740006E817F81681B790B80E090E00E94980B9E
:100750000E94BC0A0E94BF0B2FB7F89480918E02B2
:1007600090918F02A0919002B09191022FBF409181
:100770000C0150E04830510508F045C0FA01E65D33
:10078000FF4F0C946D17969587958531910528F04C
:100790002EC060ED77E00E9418176AE031C06AE071
:1007A00070E00E941817CB016D38710540F11FC031
:1007B0006AE070E00E941817CB01683B11E07107F6
:1007C000D0F015C00E94D50A1FC06AE070E00E94F8
:1007D0001817CB016135710570F009C06AE070E04F
:1007E0000E941817CB01683B21E0720720F088E0D7
:1007F00080930C0108C068E270E00E94181764E161
:100800000E94BF0A01C080E0282F30E040910D0116
:1008100050910E0124173507C1F030930E0120933B
:100820000D01811104C013BE12BE97980EC0C901FC
:100830009595879528E7280F2093370188589E4F74
:10084000959587958CBF8CE483BF2FB7F8948091E2
:100850008002909181022FBF892B09F014C28091F0
:1008600025018111F6C180916301882309F4EAC151
:100870008091F8019091F90101969093F90180938C
:10088000F80140913B0250913C0260913D02709111
:100890003E027695679557954795809121019091F5
:1008A0002201A0912301B0912401840F951FA61F5E
:1008B000B71F8093210190932201A0932301B0934D
:1008C000240140913F025091400260914102709199
:1008D0004202769567955795479580911D019091B5
:1008E0001E01A0911F01B0912001840F951FA61F2A
:1008F000B71F80931D0190931E01A0931F01B09319
:100900002001409157025091580260915902709114
:100910005A02769567955795479580911901909160
:100920001A01A0911B01B0911C01840F951FA61FF5
:10093000B71F8093190190931A01A0931B01B093E4
:100940001C01809117019091180101969093180154
:10095000809317010E94F50820911501309116012E
:10096000621B730B6133754708F49EC04FB7F89450
:100970002091170130911801A8EEB3E00E94E7160C
:100980006B017C01F694E794D794C79440902101C1
:1009900050902201609023017090240160911D010C
:1009A00070911E0180911F01909120010091190109
:1009B00010911A0120911B0130911C010A871B879D
:1009C0002C873D874FBF688B798B8A8B9B8B0E94CE
:1009D000160920911301309114012F5F3F4F30937E
:1009E000140120931301688979898A899B89A70159
:1009F00096010E942C1749015A01C301B201A701B7
:100A000096010E942C172115310531F0B90180E0C3
:100A10000E943E098C0102C000E010E081149104A4
:100A200029F0B40181E00E943E0902C080E090E01C
:100A30008017910718F4081B190B02C000E010E0A2
:100A4000A0909C01B0909D01B8018CE10E94120D14
:100A5000B8016A197B098BE10E94120D6A857B85BA
:100A60008C859D85A70196010E942C1721153105C3
:100A700029F0B90187E00E943E0902C080E090E0C1
:100A80002091110130911201909312018093110174
:100A9000BC01621B730B660F771F8DE10E94120D64
:100AA000B6018EE10E94120D10E0812F0E94390DD7
:100AB0001F5F1131D1F7E0906401F09065018091E2
:100AC0006601909167018E159F0518F4E81AF90ADE
:100AD00002C0E12CF12CB70182E10E94120D06E761
:100AE00011E09FE1F801619171918F01892F9B8B3A
:100AF0000E94120D9B899F5F9532A1F78091620140
:100B0000811117C0E2EAF1E021E030E080E090E0FE
:100B1000419151914139514010F0822B932B220F7A
:100B2000331F11E0EE3AF10799F79093100180938B
:100B30000F0100910F0110911001E2EAF1E080E055
:100B400090E0C12CD12C41E050E09A01082E02C067
:100B5000220F331F0A94E2F720233123232B21F0A5
:100B600020813181C20ED31E0196329686309105C6
:100B700061F7B60183E10E94120DC114D10481F026
:100B8000CE14DF0420F4C7018C199D0903C0C601EF
:100B90008E199F09893B9B4018F4760193E103C0AD
:100BA00092E100E010E0B70184E19B8B0E94120DFE
:100BB000B80186E10E94120D9B89692F70E085E1E2
:100BC0000E94120D2FB7F89460919F027091A002BD
:100BD0008091A1029091A2022FBF2DE730E040E06A
:100BE00050E00E942C17832E942EA52EBB248091BA
:100BF0004101882329F000916A0110916B010BC01B
:100C000080913801882329F00091680110916901D1
:100C100002C000E010E0B80187E10E94120DB401AB
:100C200089E10E94120D9801D7010E94E71620E188
:100C300037E240E050E00E942C17B90188E10E94A1
:100C4000120D07C080916700882319F085E00E948B
:100C5000390D2FB7F89480E090E0FC01EE0FFF1FF4
:100C6000EE0FFF1FE55CFD4F10821182128213828E
:100C700001968131910589F730928102209280029C
:100C8000109225012FBF0E94F50808851985601B69
:100C9000710B0E851F856017710708F4AFCB639643
:100CA0000FB6F894DEBF0FBECDBFDF91CF911F917D
:100CB0000F91FF90EF90DF90CF90BF90AF909F90FB
:100CC0008F907F906F905F904F903F902F900895FE
:100CD00031961CCD2FB7F89481E090E0909381027B
:100CE0008093800281E080932501EEEAF1E0119289
:100CF000119281E0E83FF807D1F72FBF08958FB731
:100D0000F89410929F021092A0021092A1021092E9
:100D1000A20210929A0210929B0210929C021092D0
:100D20009D028FBF0E946A060E941609109214014C
:100D300010921301109212011092110160E070E004
:100D400089E10E94120D60E070E08BE10E94120DBB
:100D500060E070E08CE10E94120D60E070E08DE1D7
:100D60000C94120D2F923F924F925F927F928F922E
:100D70009F92AF92BF92CF92DF92EF92FF920F932A
:100D80001F93CF93DF93CDB7DEB72E970FB6F894AE
:100D9000DEBF0FBECDBF8C014D3061F48DEF860FED
:100DA0000E947A0E011103C083E890E0D4C08FE75F
:100DB00090E0D1C04C3029F4883E23E0920770F0D7
:100DC00006C0453059F4883E3DEF930738F089EF6F
:100DD000860F0E947A0E82ED90E0BDC0E42EF12CC9
:100DE00085E0489FF0011124E657FF4F85909490CD
:100DF000C4014E876D870E947C176D85762E781A08
:100E00004E8517140CF0A9C0483041F417FF06C0F6
:100E10001195019511095524539401C0512C85E079
:100E20008E9DF0018F9DF00D1124E757FF4F8491A7
:100E300095E09E9DF0019F9DF00D1124E957FF4F15
:100E4000A590B490882379F19801A8EEB3E00E94B0
:100E5000E7166501E12CF12CA70196010E944E17BF
:100E600069017A01552041F0F094E094D094C09447
:100E7000C11CD11CE11CF11CC701B6010E94200B52
:100E80008F5F90E0272D332727FD309528173907EE
:100E900054F04FEF470DC701B6010E94DD0E8DE6FD
:100EA0000E946F0E57C0C801B5010E94181780E05C
:100EB00090E0FE0131967F01552031F02DE229832B
:100EC000AE014E5F5F4F01C0AF010E94500B6C013D
:100ED000F2E0AF16B10478F1872D992787FD909540
:100EE000019796012E193F092817390724F5C801E3
:100EF000B5010E9418171501412C512CA201910136
:100F0000280F391F411D511D85E6A816B10418F49C
:100F1000A4E6B0E002C0A8EEB3E00E94FD16A20174
:100F200091010E944E17CA01B901A6010E94500BFF
:100F30008EE2F6018083F70101900020E9F73197F6
:100F4000EE19FF09872D8E1B0E947A0E672DC701AF
:100F50000E94BD0EC4010E948B0E2E960FB6F8940F
:100F6000DEBF0FBECDBFDF91CF911F910F91FF90DC
:100F7000EF90DF90CF90BF90AF909F908F907F9039
:100F80005F904F903F902F900895CF92DF92EF9215
:100F9000FF921F93CF93DF93EC01162F0E94F40A68
:100FA0009EE0899F70011124EB85FC85EE0DFF1DED
:100FB000859194910E948B0E298527FF02C02FEF07
:100FC00005C09A8596959F5F90FFF9CF332727FD3F
:100FD0003095612F70E02617370709F483C01FE0B2
:100FE000181BEB85FC85EE0DFF1D3596D490DD209A
:100FF00029F0812F8D190E947A0E1D2DEB85FC851D
:10100000EE0DFF1D34964591559165917491FB014C
:10101000433049F4812FDF91CF911F91FF90EF90E2
:10102000DF90CF90099446FF0DC04F73612F8081F0
:101030009181DF91CF911F91FF90EF90DF90CF9042
:101040000C94B206413009F1423009F04BC0C59012
:10105000D590E590F490E701E881F981EE0FFF1F4C
:10106000EC0DFD1D859194910E947C17181B812F1A
:101070000E947A0E6881C601DF91CF911F91FF9087
:10108000EF90DF90CF900C94A30EC590D590E59093
:10109000F490F7010190F081E02DEE0FFF1FEE0FAD
:1010A000FF1FEC0DFD1D6591759185919491125076
:1010B00024E630E040E050E00E942C17CA01B9015C
:1010C00088279927412F0E94DD0E80E30E946F0E32
:1010D00080E3DF91CF911F91FF90EF90DF90CF9051
:1010E0000C946F0EDF91CF911F91FF90EF90DF90E6
:1010F000CF900895FF920F931F93CF93DF93F82E15
:1011000080E00E946C0A8C012091A3023091A4021D
:101110002A5031092230310560F481E00E94C10972
:1011200041E06F2DDF91CF911F910F91FF900C94B3
:10113000B206C091A702D091A802CA3010F488E08C
:1011400001C089E0F81A8F2D0E947A0E41E065E017
:10115000C8010E94B2068FE20E946F0ECE0199274D
:101160000E940C0F83E4DF91CF911F910F91FF90AC
:101170000C946F0E4091230450912404FA01F395CE
:10118000208131812F5F3F4F3327DA01AE5FBE4FA1
:101190006D917C91119726173707D1F3A081B1810A
:1011A000A40FB51F8C9331832083E0912B04F09121
:1011B0002C04908121E030E00090340402C0220F22
:1011C000331F0A94E2F7922B908391E090933604B8
:1011D000E0912904F0912A04908190649083909189
:1011E000260198279093260108952FB7F8946091CF
:1011F0008E0270918F0280919002909191022FBF88
:1012000096958795779567950895809186008823B0
:1012100051F00E94F50828EE33E040E050E00E94D3
:101220002C17C901089580E090E00895CF93CFB7BF
:10123000F894109218011092170110922101109247
:101240002201109223011092240110921D0110928C
:101250001E0110921F01109220011092190110928C
:101260001A0110921B0110921C010E94F508709344
:10127000160160931501CFBFCF9108958F929F9271
:10128000AF92BF92CF92DF92EF92FF920F931F9394
:10129000CF93DF93CDB7DEB728970FB6F894DEBFB4
:1012A0000FBECDBF5B01813158F081E090E09C839F
:1012B0008B839A83898398878F839E838D8316C0BF
:1012C00098E0899F80011124B801625F7F4F44E05C
:1012D00050E0CE0101960E948517B8016E5E7F4FE7
:1012E00044E050E0CE0105960E9485172F81388595
:1012F00040E050E0CB80DC80E12CF12C2C193D0942
:101300004E095F09B50180E090E089809A80A12CA8
:10131000B12C681979098A099B090E9408172D8147
:101320003E8140E050E0281939094A095B090E94D2
:101330004E172C0D3D1D4E1D5F1D57FD0BC0211579
:10134000310581E04807510544F02FEF3FEF40E0C1
:1013500050E003C020E030E0A901C90128960FB693
:10136000F894DEBF0FBECDBFDF91CF911F910F91DB
:10137000FF90EF90DF90CF90BF90AF909F908F90B5
:1013800008954091A7025091A8022091A3023091A4
:10139000A40295E0929FF001939FF00D1124E80FB5
:1013A000F11DEE0FFF1FE552FE4F2591349193E0A2
:1013B00090932701813029F42091AD023091AE0243
:1013C00006C0823039F42091AF023091B002809390
:1013D000270106C0833021F42091C1023091C2025E
:1013E000249FC001259F900D349F900D11240895D6
:1013F00082E06B3B780759F421E08091BB02909129
:10140000BC02892B09F420E020932E01089582E08C
:101410006D3A7807B1F4869930C081E00E94C10925
:1014200090932D0180932C018091A9029091AA02A2
:1014300090932B0180932A018091B1029091B20286
:1014400018C06F5A7240C9F4829917C082E00E9496
:10145000C10990932D0180932C018091AB02909152
:10146000AC0290932B0180932A018091B30290915A
:10147000B40290932901809328010895CF93DF93BC
:1014800081E00E94C109EC0184E00E94C109409101
:101490008C0150918D014C175D07C0F4841795079E
:1014A000B8F4FA01E81BF90B9E01281B390BC9019E
:1014B00064E670E00E941817CF010E941817643686
:1014C000710510F063E670E0862F03C083E601C06B
:1014D00080E0DF91CF9108952091A7023091A8027A
:1014E0006091A3027091A40295E0969FF001979FEE
:1014F000F00D1124E80FF11DEE0FFF1FE552FE4F16
:1015000045915491823051F46230710539F427309D
:10151000310520F02150310940EB54E0429FC001D9
:10152000439F900D529F900D11240895DC0180E09F
:1015300091E0980FFB01E80FF11DE491E93011F003
:10154000892FF6CF12961C92129713961C9213971E
:1015500014969C93149781E015968C931597169684
:101560008C93169785E790E011969C938E9318962E
:101570007C936E93179708958BE30C94BA089C01A3
:10158000462F50E0FA01EE0FFF1FE817F9075CF055
:101590004817590724F4862F880F821B08951816C0
:1015A00019060CF4089580E008951F93CF93DF93FC
:1015B000EC01D695C795D695C795C93CD1052CF0B9
:1015C00088E080930C0180E00BC06AE0CE010E94AD
:1015D000BF0A182F6AE0CE0188970E94BF0A810FC8
:1015E000DF91CF911F910895CF93DF93DC011B967C
:1015F000CD91DC911C9790E080E0FE012EE0829F6F
:10160000E00DF11D112432962591349121153105FB
:1016100099F01D964D915C911E9737FF03C057FFBF
:1016200009C0305824233523232B21F0662329F0C9
:1016300061509F5F8F5FE1CF892FDF91CF91089538
:10164000CF92DF92EF92FF92CF9397FF08C09095D1
:101650008095709561957F4F8F4F9F4F07C06115A3
:1016600071058105910511F0C0E001C0C1E0FAE00B
:10167000CF2ED12CE12CF12C61157105810591053E
:1016800041F0CF5FA70196010E944E17CA01B90130
:10169000F3CF8C2FCF91FF90EF90DF90CF900895F4
:1016A0008F929F92AF92BF92CF92DF92EF92FF9272
:1016B0000F931F93CF93DF936B017C01EA0197FF98
:1016C0000BC08DE28883F094E094D094C094C11C48
:1016D000D11CE11CF11C2196C701B6010E94200B10
:1016E000C80FD11D18828E01AAE08A2E912CA12C40
:1016F000B12CC701B601A50194010E944E17605D8F
:10170000F80162938F0169017A01C114D104E104E7
:10171000F10479F7CE01DF91CF911F910F91FF90E6
:10172000EF90DF90CF90BF90AF909F908F900895F3
:101730000F931F93CF93DF93CDB7DEB72F970FB6DD
:10174000F894DEBF0FBECDBFAE014F5F5F4F0E946A
:10175000500B8E010F5F1F4FF80181918F0188237D
:1017600019F00E94BA08F8CF2F960FB6F894DEBF92
:101770000FBECDBFDF91CF911F910F910895609162
:10178000260170E080E090E00E94980B8DE00E94BE
:10179000BA088AE00C94BA08CF93DF93EC01109258
:1017A000260184E20E94BA08BE0180E090E00E9417
:1017B000980B0E94BC0A61E070E080E090E00E941B
:1017C000980B0E94BC0A60910601709107018091FC
:1017D00008019091090128EE33E040E050E00E94BA
:1017E0002C1744275527CA01B9010E94980B8EE295
:1017F0000E94BA086091060170910701809108016A
:101800009091090124E630E040E050E00E942C175E
:10181000CA01B9012AE030E040E050E00E942C17F4
:101820000E94980BDF91CF910C94BC0A8F929F92EB
:10183000AF92BF92CF92DF92EF92FF920F931F93DE
:10184000CF93DF93CDB7DEB72C970FB6F894DEBFFA
:101850000FBECDBF7C01D62E942E0E94F40AD70174
:101860001B962D913C911C97BEE08B9F200D311D46
:101870001124F9013696859194918C01F9013496E1
:1018800024912150223030F4FC0185919591A5914D
:10189000B4918D016D2DC7010E94F40AF701638593
:1018A0007485FEE08F9F600D711D1124685F7F4F6E
:1018B00046E050E0CE0107960E94731786E0FE01D5
:1018C0003796DE01119601900D928A95E1F72981F4
:1018D0003A81CB80DC80AD80BE8042E094120EC0A5
:1018E0002F3FBFE73B0709F07AC0D8016D917C918B
:1018F0006150710988248A94982C0BC02F3FEFE720
:101900003E0709F079C0F8016081718188248394D1
:10191000912C80E090E00E94200B823068F0825091
:1019200021E030E09AE0815048F0A901949F9001B5
:10193000959F300D1124F7CF21E030E0D801ED91D3
:10194000FC91CF01B9010E941817009731F08A94D9
:10195000892889F4281B390B03C08A94892861F4EB
:10196000C501821B930BE817F90718F45901AE0E55
:10197000BF1ED80127C09C01C9018C0D9D1D8E176B
:101980009F0718F46F01C21AD30AF801D182C082EE
:101990001BC0829FA001839F500D929F500D112468
:1019A000D8018D919C911197480F591F4C155D05D9
:1019B000FCF04D935C93D8018D919C911197A816E2
:1019C000B90614F4AD92BC92D7011F96ED91FC912B
:1019D00050973097A1F0B801C701099510C08FEF5B
:1019E0009FEF2E3FFFE73F07A1F6F6010995ECCFE9
:1019F000F801D182C082DFCF81E090E0F2CF2C9657
:101A00000FB6F894DEBF0FBECDBFDF91CF911F910F
:101A10000F91FF90EF90DF90CF90BF90AF909F908D
:101A20008F90089590E0880F991FFC01EC59FE4FAC
:101A3000208131816217730718F4261B370B04C00D
:101A4000AB01421B530B9A01FC01E255FE4F2730BC
:101A5000310518F01182108206C0208131812F5F7C
:101A60003F4F31832083FC01EC59FE4F718360832B
:101A700008951F93CF93DF93182FC82FD0E0FE0156
:101A8000EE0FFF1FEE0FFF1FE55CFD4F60817181C0
:101A90008281938128EE33E040E050E00E942C17D1
:101AA000FE01EE0FFF1FE052FF4F3183208321150F
:101AB000310531F0B901812F0E943E09BC0102C0FD
:101AC00060E070E0812FDF91CF911F910C94120D97
:101AD0008436910580F064E670E00E9418178FE963
:101AE0009FE00197F1F700C0000061507109611596
:101AF0007105A9F70895019728F025E32A95F1F7D4
:101B00000000F9CF089560FF02C0A89A01C0A8980C
:101B100061FF02C0A99A01C0A99862FF02C0AA9AF7
:101B200001C0AA9863FF02C0AB9A01C0AB98AC9801
:101B300080E090E00E94680DAC9A80E090E00E9406
:101B4000680DAC988AE090E00C94680D1F93CF93D9
:101B5000DF93EC01162F442311F0AD9A01C0AD982C
:101B6000612F70E054E0759567955A95E1F7CE01C5
:101B70000E94830D612FCE01DF91CF911F910C94B4
:101B8000830DCF93DF93EC01623018F08881886079
:101B900088836C831D82A09AA19AA29AA39A88E84E
:101BA00093E10E94680DAD98AC9863E0CE010E946D
:101BB000830D82EC91E00E94680D63E0CE010E94EB
:101BC000830D82EC91E00E94680D63E0CE010E94DB
:101BD000830D8FE090E00E94680D62E0CE010E94CC
:101BE000830D6881606240E0CE010E94A60D84E012
:101BF000898340E06CE0CE010E94A60D40E061E0E8
:101C0000CE010E94A60D88EC90E00E94680D82E053
:101C10008A8340E066E0CE01DF91CF910C94A60D5F
:101C2000EF92FF920F931F93CF93DF931F92CDB745
:101C3000DEB7162F877028E0829FC0011124682F1D
:101C4000606440E087E394E079830E94A60DE12E72
:101C50007981F72E00E010E0F70161917F0141E00A
:101C600087E394E00E94A60D0F5F1F4F0830110517
:101C700099F70F90DF91CF911F910F91FF90EF9007
:101C80000895CF93DF93CDB7DEB728970FB6F894BA
:101C9000DEBF0FBECDBF98E0E9E6F0E0DE011196B1
:101CA00001900D929A95E1F790913B04891710F0FD
:101CB0008FEF890FFE013196E80FF11DE80FF11D3E
:101CC0006081606840E087E394E028960FB6F8945E
:101CD000DEBF0FBECDBFDF91CF910C94A60D8A3031
:101CE00019F481E00C94410E41E0682F87E394E001
:101CF0000C94A60DCF93DF93D82FC0E0CD172CF412
:101D000080E20E946F0ECF5FF9CF8D2FD7FD80E06C
:101D1000DF91CF9108951F93CF93DF93009771F0D8
:101D2000182FFC018E2F811B9491EF01219699238E
:101D300031F0892F0E946F0EFE01F4CF80E0DF9119
:101D4000CF911F910895860F911D860F911DFC0163
:101D5000859194910C948B0EFC01878190850C9455
:101D6000A30EDC011796ED91FC911897E60FF11D7B
:101D700064918AE591E00C94A30EFF920F931F9358
:101D8000CF93DF93EC01F12C009781F0062F112700
:101D900007FD10952F2D30E0201731073CF4F39408
:101DA0008991882319F00E946F0EF4CF8F2DDF9157
:101DB000CF911F910F91FF900895FF920F931F9362
:101DC000CF93DF93CDB7DEB72B970FB6F894DEBF76
:101DD0000FBECDBFF42E8E010F5F1F4FA8010E94D2
:101DE000500BF80101900020E9F73197E01BF10B4F
:101DF0008F2D8E1B0E947A0E6F2DC8010E94BD0E82
:101E00002B960FB6F894DEBF0FBECDBFDF91CF91FA
:101E10001F910F91FF900895CF93DF93CDB7DEB759
:101E20002B970FB6F894DEBF0FBECDBFBC0180E08C
:101E300090E0AE014F5F5F4F0E94500B6BE0CE0110
:101E400001960E94BD0E2B960FB6F894DEBF0FBE12
:101E5000CDBFDF91CF9108959FB7F8948E3039F4BC
:101E600070933601609335018FB5806808C08D305E
:101E700039F470933201609331018FB580628FBD68
:101E80009FBF089580FF02C0C09A01C0C09881FF23
:101E900002C0C19A01C0C19882FF02C0C29A01C0AB
:101EA000C29883FF02C0C39A01C0C39884FF02C0D6
:101EB000DE9A01C0DE9885FF02C0DF9A0895DF98A0
:101EC0000895CF93DF93CDB7DEB729970FB6F89477
:101ED000DEBF0FBECDBF939A969A929A909813BE8A
:101EE00012BE979880E00E94420F8C9A8B9A889A33
:101EF0008F9AB89AB99ABA9ABB9AD69AD79A8D9A63
:101F00008E9A8D9A8A9A789462E087E394E00E9490
:101F1000C10D89B7836089BF80E094E097BD86BD1D
:101F200082E08FBD89E18EBD89B7846089BFD59875
:101F3000D498DD98DC98BF9ABE9ABD9A8EEA86B98D
:101F4000369A88E085BD85B5846085BD14BC8CE774
:101F500083BD89B7806889BF10923C0110923B0114
:101F600010923A011092390160E070E08EE00E9418
:101F70002C0F0E946A0611E01093380160E070E0B7
:101F80008EE00E942C0F0E946A06969A10923801E9
:101F90001093410110923E0110923D0160E070E00B
:101FA0008EE00E942C0F0E946A061092400110924F
:101FB0003F01929A109241011092F9011092F8019A
:101FC0000E947F06E0913D04F0913E04309711F4A9
:101FD000E1E4F4E0CE0109962EEB8E179F0710F096
:101FE0002193FBCF40E250E06AEB73E082E491E0A2
:101FF0000E94851740914201242F30E0A0E0BDE708
:102000000E94E7166B017C01A4E6B0E0A41BB109B5
:1020100024E630E00E94F6166C0D7D1D8E1D9F1D7E
:1020200024E630E040E050E00E942C17B9018DE03A
:102030000E942C0FBEE0FB2EF9821FE11A8301E102
:102040000B830C830D830E830F831887BE016F5F94
:102050007F4F80E00E94100EF9821A830B830C835D
:102060001D831E831F831887BE016F5F7F4F81E032
:102070000E94100EF9821A831B831C831D831E830A
:102080001F831887BE016F5F7F4F82E00E94100E92
:1020900040E061E087E394E00E94A60D88EC90E0C8
:1020A0000E94680D80E00E94410E8EE691E00E9441
:1020B0008B0E0E94F5087B010E94F5086E197F09BE
:1020C000683E7340C8F380916600813009F090C08B
:1020D0008091580190915901892B09F489C0E091B0
:1020E0005A01F0915B01EE0FFF1FEE0FFF1FE45747
:1020F000FE4FC590D590E590F490C114A1EEDA069C
:10210000E104F10411F1E0912904F0912A0481E045
:1021100090E00090350402C0880F991F0A94E2F7FE
:10212000808360E079E08DE390E0A70196010E9452
:102130002C1721503109410951095695479537957A
:1021400027952115B0E13B07A8F0E0912904F09113
:102150002A04108260E874E88EE190E0A7019601FD
:102160000E942C1721503109410951095695479574
:1021700037952795E0912504F09126043083E0916E
:102180002704F0912804208310923604E0912B0458
:10219000F0912C04408181E090E09C010090320499
:1021A00002C0220F331F0A94E2F7422B4083E091D2
:1021B0002B04F0912C0440819C010090330402C058
:1021C000220F331F0A94E2F7422B4083E0912B0445
:1021D000F0912C0420810090340402C0880F991FD4
:1021E0000A94E2F780958223808382E080936600E0
:1021F0008091630181111BC093981092F901109294
:10220000F8010E947F0681E080936301809367005C
:102210000E946A068091F8019091F901892B29F4B6
:102220008AE090E00E94D101F5CF10926201E2EACB
:10223000F1E02CE032E040E052E081919191D9014F
:102240008D939D939D01DA018D939D93AD01B1E036
:10225000EE3AFB0791F71092FF011092FE011092E7
:10226000FD01EEEAF1E01192119281E0E83FF807FA
:10227000D1F780E00E94420F1092FC011092FB0106
:102280008FEF8093FA0180E00E94410EE12CF12C47
:102290008FB7F894F701EE0FFF1FE65DFD4F6081E9
:1022A00071818FBF80E090E047E00E94DD0E81E009
:1022B0000E947A0EA1E0EA16F10419F481E00E946E
:1022C000410EBFEFEB1AFB0A84E0E816F10401F7B8
:1022D00084E690E00E94D101D6CF1F920F920FB6F4
:1022E0000F9211242F933F938F939F93EF93FF931C
:1022F00020911D0430911E0480911F0490912004B0
:102300002817390711F4559812C0E0911F04F09175
:102310002004E35EFC4F208180911F0490912004F3
:10232000019699279093200480931F042CB9FF9164
:10233000EF919F918F913F912F910F900FBE0F9032
:102340001F9018951F920F920FB60F9211242F9382
:102350003F934F938F939F93EF93FF935A991AC094
:102360004CB180911D0490911E04019699272091F3
:102370001F04309120048217930769F0E0911D0437
:10238000F0911E04E35EFC4F408390931E04809303
:102390001D0401C08CB1FF91EF919F918F914F91DE
:1023A0003F912F910F900FBE0F901F9018951F9285
:1023B0000F920FB60F9211242F933F938F939F93F9
:1023C0002091350130913601809133019091340193
:1023D000820F931F90933401809333012091310138
:1023E0003091320180912F0190913001820F931F23
:1023F0009093300180932F012FB7F894809133018F
:102400009091340135E0969587953A95E1F79BBD1B
:102410008ABD80912F019091300135E09695879586
:102420003A95E1F799BD88BD2FBF80913301909116
:1024300034018F71992790933401809333018091F7
:102440002F01909130018F719927909330018093E3
:102450002F019F918F913F912F910F900FBE0F9061
:102460001F9018950F931F93CF93DF93FC01248146
:102470002451621730F4DF91CF911F910F910C948A
:10248000AC0E621BC62FD0E0F8E26F9FB0011124A2
:1024900068567F4F48E250E083EA92E00E94851739
:1024A0008091A5029091A6028436910530F484E6CD
:1024B00090E09093A6028093A5028091A50290914E
:1024C000A602893E9D4F30F088EE9DEF9093A602C4
:1024D0008093A5028091B5029091B602893E934007
:1024E00030F088EE93E09093B6028093B50280912D
:1024F000A3029091A4029C012A5031092230310597
:1025000078F02AE0289FF001299FF00D1124E35272
:10251000FE4F6591749188E799E60E94181702C0F2
:1025200061E070E08091A7029091A8026817790796
:1025300020F47093A8026093A7028091A702909163
:10254000A802892B31F481E090E09093A802809357
:10255000A70282E00E946C0A9C0140E050E060E02B
:102560007DE281E391E00E942C17A8EEB3E00E9487
:10257000FD1624E630E040E050E00E942C178091E8
:102580004E0190914F0189019A0101151105E1E079
:102590002E07310520F00FEF1FEF20E030E080170D
:1025A000910708F48C018091A9029091AA02081762
:1025B000190720F41093AA020093A9028091A9029E
:1025C0009091AA022091B1023091B2028217930732
:1025D00020F49093B2028093B10282E00E946C0AD0
:1025E0009C0140E050E060EA75E286E290E00E94E3
:1025F0002C17A8EEB3E00E94FD1624E630E040E080
:1026000050E00E942C178091520190915301890152
:102610009A0101151105F1E02F07310520F00FEFA8
:102620001FEF20E030E08017910708F48C018091C3
:10263000AB029091AC020817190720F41093AC027A
:102640000093AB022091AB023091AC028091B302B7
:102650009091B4022817390720F43093B4022093E4
:10266000B30280914C0190914D014091A90250918B
:10267000AA024817590720F49093AA028093A9024E
:102680004091B1025091B2024817590720F490933B
:10269000B2028093B10280915001909151012817AC
:1026A000390720F49093AC028093AB022091B302DF
:1026B0003091B4022817390720F49093B402809324
:1026C000B3026091A3027091A4026115710539F003
:1026D00083E592E00E94A30E81E00E947A0E809131
:1026E000A3029091A4028A30910581F08B3091056C
:1026F00079F0892BF9F4CE0101960E940C0F8AE340
:10270000DF91CF911F910F910C946F0E89E00CC057
:1027100040E065E08091A9029091AA020E94B20671
:1027200081E00E947A0E84E0DF91CF911F910F919A
:102730000C947A0845E067E08091A5029091A6028A
:102740000E94B2068FE20E946F0E8091A7029091C4
:10275000A802DF91CF911F910F910C940C0F1F9243
:102760000F920FB60F9211248F9397988091370193
:1027700082BF8F910F900FBE0F901F9018951F92E0
:102780000F920FB60F921124979A0F900FBE0F90D1
:102790001F9018951F920F920FB60F9211242F932E
:1027A0003F934F935F936F937F938F939F93AF93D9
:1027B000BF93EF93FF9380918E0290918F02A0912F
:1027C0009002B09191020196A11DB11D80938E02DD
:1027D00090938F02A0939002B09391028091680031
:1027E0008150809368008111A3C081EE80936800BE
:1027F00080916301882309F44FC040919201509168
:10280000930180919F029091A002A091A102B091AA
:10281000A202840F951FA11DB11D80939F0290936A
:10282000A002A093A102B093A20280919E0291E027
:10283000980F90939E02883578F12091880130910D
:102840008901DA010E94E71624E630E040E050E01A
:102850000E942C1780919A0290919B02A0919C0259
:10286000B0919D02280F391F4A1F5B1F20939A02C7
:1028700030939B0240939C0250939D02CA01B90180
:1028800020EA3CE840E050E00E942C17B9018AE1C0
:102890000E94120D10929E0280913B0190913C018A
:1028A000892B89F580913D0190913E01892B59F545
:1028B0008091FE019091FF01892B81F48091630149
:1028C0008823B1F18091F8019091F9012091FB01E9
:1028D0003091FC01821B930B039750F5809192027B
:1028E00090919302A0919402B091950280599F4FCC
:1028F000AF4FBF4F8093920290939302A0939402A4
:10290000B093950215C08091960290919702A09184
:102910009802B091990280599F4FAF4FBF4F80935B
:10292000960290939702A0939802B0939902C0CF19
:10293000FF91EF91BF91AF919F918F917F916F9197
:102940005F914F913F912F910F900FBE0F901F906D
:1029500018951F920F920FB60F9211242F933F9349
:102960004F935F936F937F938F939F93AF93BF9397
:10297000EF93FF9344B165B1E0918402E13129F115
:102980007FB7F89450E0562BF0E0DF01AA0FBB1F91
:10299000A85EBD4F11965C934E9380917F02882371
:1029A00091F0EE0FFF1FEE0FFF1FE55CFD4F8081E2
:1029B0009181A281B381840F951FA11DB11D8083D8
:1029C0009183A283B3837FBF0CC0809185029091D5
:1029D0003A0267FD02C0892B02C08095892380934B
:1029E0003A0280918D0291E0980F90938D0287308A
:1029F00051F118F4882341F023C1883009F449C00B
:102A0000893009F44BC01CC18091880287FD18C130
:102A10004FB7F8949091880288B3292F217030E045
:102A2000220F331F220F331F92FB332730F9232B42
:102A30009270292B90E22902900111248F71822B30
:102A400088BB4FBF25C08091560190915701892BBB
:102A500009F4F6C040918C02442309F4F1C081E0EE
:102A600090E00090890202C0880F991F0A94E2F753
:102A700020918002309181022F703FB7F8945BB3B0
:102A80009BB3982B9BBB240F2A95F1F75BBB3FBFF1
:102A9000D7C080918902806287B9D2C010928D021E
:102AA000809187028F5F853108F080E080938702F4
:102AB00085E0E8E8F2E0A2E8B2E001900D928A95A4
:102AC000E1F7609187026F5F653108F060E085E0B3
:102AD000689FB001112465597D4F45E050E088E8BA
:102AE00092E00E947317809187028111A9C04091E2
:102AF0003B0150913C0150933702409336022091A4
:102B00003D0130913E01309339022093380280918B
:102B10007F02882309F48AC080917702909178021D
:102B2000A0917902B0917A02840F951FA11DB11D69
:102B30008093770290937802A0937902B0937A02FF
:102B400080917B0290917C02A0917D02B0917E02E7
:102B5000820F931FA11DB11D80937B0290937C0275
:102B6000A0937D02B0937E028091800290918102B9
:102B7000019709F04CC08091430290914402A091CA
:102B80004502B0914602B695A79597958795809393
:102B9000430290934402A0934502B0934602809171
:102BA0003B0290913C02A0913D02B0913E02B6954D
:102BB000A7959795879580933B0290933C02A093AD
:102BC0003D02B0933E0280913F0290914002A0915D
:102BD0004102B0914202B695A7959795879580934B
:102BE0003F0290934002A0934102B0934202809131
:102BF000470290914802A0914902B0914A02809305
:102C0000470290934802A0934902B0934A028091F0
:102C1000800290918102892B49F0809180029091ED
:102C200081020197909381028093800280918002BB
:102C30009091810221E0892B09F420E020937F020A
:102C4000FF91EF91BF91AF919F918F917F916F9184
:102C50005F914F913F912F910F900FBE0F901F905A
:102C600018951092CD021092CE021092CF0281E000
:102C70008093D0028093D1021092D3021092D2029C
:102C80002FEF2093D4028BE790E09093CC028093B7
:102C9000CB028FEE92E09093D7028093D6028FEF13
:102CA0009FE79093D9028093D80288EF99E09093A0
:102CB000DB028093DA022093DC0266E473E08BE0AF
:102CC00093E00E94960A6CE373E082E093E00E9436
:102CD000960A67E373E089EF92E00E94960A6FE23A
:102CE00073E080EF92E00E94960A69E273E087EE5B
:102CF00092E00E94960A67E273E08EED92E00E94F5
:102D0000960A87E493E040E0FC0125913491029615
:102D1000232B11F04F5FF8CF109216031092170378
:102D200051E05093190350931A0387E493E0909372
:102D30001C0380931B0383E890E09093150380931A
:102D400014034C5E409318038DE193E090932204AA
:102D500080932104909324048093230480E490E0E2
:102D6000909326048093250429E230E030932804D0
:102D7000209327042BE230E030932A042093290487
:102D80002AE230E030932C0420932B0490932E04FD
:102D900080932D048CE290E09093300480932F0474
:102DA00084E08093310483E08093320487E0809351
:102DB000330485E08093340450933504A59AA49A93
:102DC0001092370461E087E394E00C94C10DA29F58
:102DD000B001B39FC001A39F700D811D1124911DEF
:102DE000B29F700D811D1124911D08950E94E71658
:102DF000B7FF0895821B930B08950E94E716A59FC5
:102E0000900DB49F900DA49F800D911D11240895E5
:102E1000DB018F939F930E94FD16BF91AF91A29FFC
:102E2000800D911DA39F900DB29F900D11240895C8
:102E3000AA1BBB1B51E107C0AA1FBB1FA617B707E0
:102E400010F0A61BB70B881F991F5A95A9F78095FC
:102E50009095BC01CD010895A1E21A2EAA1BBB1BBF
:102E6000FD010DC0AA1FBB1FEE1FFF1FA217B30756
:102E7000E407F50720F0A21BB30BE40BF50B661F6C
:102E8000771F881F991F1A9469F760957095809530
:102E900090959B01AC01BD01CF010895052E97FBD4
:102EA0001EF400940E94651757FD07D00E942C174E
:102EB00007FC03D04EF40C9465175095409530955F
:102EC00021953F4F4F4F5F4F089590958095709596
:102ED00061957F4F8F4F9F4F0895EE0FFF1F059015
:102EE000F491E02D0994FB01DC0102C005900D92E4
:102EF00041505040D8F70895FC0105900020E9F7B3
:102F0000809590958E0F9F1F0895DC01CB01FC01E9
:102F1000E199FECF06C0FFBBEEBBE09A31960DB241
:0E2F20000D9241505040B8F70895F894FFCF3D
:102F2E000000410420000101E100004000140054A3
:102F3E000000000000B10E00000000C507160C00D6
:062F4E0000000032120039
:00000001FF
