:100000000C94AC060C94D4060C94D4060C94D40630
:100010000C942F350C94D4060C94D4060C94D4066E
:100020000C94D4060C94B9340C9424350C941435E7
:100030000C94D4060C9484340C944F340C94D40651
:100040000C94FC350C94D4060C94D4060C94D40671
:100050000C94D406331539153F1550155015471516
:100060005B15531549265F26642667266E26802673
:100070007D266726492604000001020202020203CF
:1000800004052D64560064542F64740056206C6976
:100090006D697400010101020A1E16191B1A1C0762
:1000A0000506212223242526272855006D00432FED
:1000B0006D00002500F400416800430057680057B8
:1000C000005600410079657300206E6F00E803015F
:1000D000C300E80300C100640000BF00640000BC6E
:1000E00000640000BA00E80301B700E80301B500AE
:1000F000010000B300E80301C100010000B2006488
:100100000000AE00010000AC00010000AC000100E6
:10011000000000010000AA006E6F6C696D69740038
:1001200054696E743D002D00546578743D002020A4
:100130002D2D202000776972657320523D00626189
:1001400074742E20523D004C696D6974733A20001E
:100150006E6F2064542F740064656C746120543D8C
:1001600020004E2F4100546578743D002500306D0D
:10017000570064656C746120563D20006D617856AF
:100180006F75743D00EA224C24CB19F5224C24E112
:1001900018A72231183513A02218245919B8221C87
:1001A000242224010318478E01190C030101016464
:1001B0006973636F6E6E6563740062616C616E6318
:1001C0006520706F727421006261747465727921A8
:1001D00000636F6E6E656374006220004368434283
:1001E000426C446946435374534243594343002588
:1001F00020006564697420626174746572790063BB
:100200006170616369747920636865636B00443E63
:100210004320666F726D61740073746F72616765FD
:100220002B62616C616E630073746F72616765004D
:1002300066617374206368617267650064697363E3
:1002400068617267650062616C616E636500636816
:10025000617267652B62616C616E636500636861E2
:10026000726765005D024E0246023C0230022802BF
:1002700019020E02FF01F20101000100010001005C
:100280000100B0040807520300005203B00408073D
:10029000E8030000E803D0079209D60600006C07C7
:1002A000E40C100ED007E40CB80B100E0410C409B7
:1002B000A60EAC0D740E6810B80B0A0F890C740EE4
:1002C000CC10B80B0A0F890C740EFE10B80B0A0F75
:1002D000890C40066C071405400678050100A00F44
:1002E000D007010001000100A00F01000100010082
:1002F0000F130D137B116578742E20416463006524
:1003000078742E20646562006465627567006E6FA4
:10031000726D616C00542D70726F67720054656D60
:10032000706572610070726F6772616D00616C77E9
:100330006179730064697361626C65640080250093
:1003400000004B00000096000000E1000000C20128
:100350000034030E030803FF02F60234032D0325C5
:10036000031D0315037265736574003D031E027C53
:1003700073706565643A0051031C02554152543A4A
:1003800000616463206E6F6973653A00696E707511
:1003900074206C6F773A20006D61782049643A00D0
:1003A0006D696E2049643A006D61782049633A00B6
:1003B0006D696E2049633A00626565703A00646950
:1003C000736368206F66663A007C66616E20542015
:1003D0006F6E3A005B03080266616E206F6E3A0032
:1003E0006261636B6C696768743A00566F75743A42
:1003F0000056312D383A005662383A005662373A84
:10040000005662363A005662353A005662343A0077
:100410005662333A005662323A005662313A00561A
:10042000696E3A006164633A0074656D703A006306
:10043000616C69622E20702E3A00566D696E75737C
:100440003A0056706C75733A00313030306D4100AF
:100450003130306D4100313030306D41003130305D
:100460006D41006578706572742044414E47455275
:10047000210074656D7020696E7465726E0074651C
:100480006D702065787465726E0072657365742096
:1004900064656661756C740063616C696272617435
:1004A000650073657474696E6773004C454400554C
:1004B0006E6B6E004E695A6E004C343335004C340E
:1004C0003330004C69706F004C696C6F004C69668A
:1004D000650050622020004E694D48004E6943641B
:1004E000004E6F6E6500E104DC04D704D204CD0435
:1004F000C804C304BE04B904B404AF04AB04442F5D
:100500004320726573743A00442F43206379636C0F
:1005100065733A0063617020434F66663A007C65FC
:100520007874726E2054434F3A007C64542F647484
:100530003A00657874726E20543A007C69676E7276
:1005400020667273743A007C64563A00656E61628C
:100550002064563A0062616C2E206572723A006D1A
:10056000696E49643A006D696E49633A0056733AA0
:100570000056636F3A0074696D653A0049643A0049
:1005800049633A004361703A00563A00E604280293
:10059000626174746572793A0056643A0056633A3F
:1005A000006164617074206469733A006F707469EB
:1005B0006F6E7300636865616C692D636861726753
:1005C00065720A76322E30305F3230313830353253
:1005D0003000460003008813701701003200581BDA
:1005E0003200881310270000000003000000000004
:1005F0000000E003FF7F49000602010000006400E4
:10060000D803FF7F0200D403010000000400C903E7
:10061000010044000A0264005802AC26BE03FF7FBA
:1006200044030C0264005802AC26B803FF7F4D005F
:100630000E02010000000100B003FF7F4000100225
:1006400001000100F401A803FF7F40001202FF7FB8
:100650000100581BA003FF7F4000140201000100AD
:10066000F4019803FF7F40001602FF7F010088130A
:100670008C03FF7F41031802E803581B3075810388
:10068000FF7F4D001A020100000001007B03FF7F85
:10069000020077030100000004006F030200010064
:1006A0006B030100000004006503FF7F00000000F1
:1006B000000000000000000000000000000000003A
:1006C0000000000006090A0B0C0D0E0F1006212277
:1006D0002324252627281F04820041005C020100F4
:1006E000000030751A0482004100920201000000EF
:1006F0008813150482004100940201000000881351
:1007000010048200410096020100000088130B04CF
:100710008200410098020100000088130604820054
:1007200041009A0201000000881301048200410088
:100730009C02010000008813FC03820041009E021D
:10074000010000008813F70382004100A0020100AD
:1007500000008813F103FF7F41007A0200000000CF
:100760000000EB03FF7F4100780200000000000062
:100770002F040400490026020100000001000000CF
:100780000000000000000000000000000729040233
:100790000044005E020100000010272404FF7F498E
:1007A00000E5010000000000002F040400490026BD
:1007B0000201000000010000000000000000000035
:1007C0000000000000052904020044005A02010054
:1007D000000010272404FF7F4900E1010000000011
:1007E00000002F040400490026020100000001005F
:1007F00000000000000000000000000000000001F8
:10080000420402004100500201000000CC8D3A0475
:1008100002004100520201000000CC8D2F040400B0
:100820004900260201000000010000000000000055
:1008300000000000000000006400E80350044904C8
:1008400000006400E8035D0456040000020AF90990
:10085000ED097E04720463040000A20498048A0473
:1008600000009005FF7F02008C05010000000B00D6
:1008700089050F000300D71DFE7FEA2500008405CF
:100880001F0045002A02FF7F6400E8FD80053F004D
:1008900040002E02FF7F0100581B7C051F00400016
:1008A0003002FF7F0100881376053F004C003A02BA
:1008B000FF7F0000E8039D050E00410032020100A9
:1008C000000088139D051000410032023200000034
:1008D000CC8D71050100410032020100B004D00747
:1008E0007105200041003202FF7F0100CC8D6D05B3
:1008F00004004100460201000000881399051F0012
:1009000041003402010000008813990510004100E5
:10091000340232000000CC8D66051F004000360214
:10092000FF7F0100581B5F051F0040003802FF7F5A
:100930000100881355050C0048004802010003001F
:10094000C8004C0501004D004602010000000100F6
:1009500047050002480048020100ECFF00003B058B
:1009600000024B004A02010001000F0032051F0087
:100970004D003C020100000001002A0500044A0667
:100980004C020A000A0084031E05000144033E02D3
:1009900064005802AC2614051F0047004402010001
:1009A0000100FA0008050F0049004E020100000096
:1009B0000500FE041F004B0042020100010063001D
:1009C000A1051F004D0040020100000001000000D1
:1009D00000000000000000000000000063616C697E
:1009E000626174696F6E206572726F720049206473
:1009F0006973636861726765004920636861726743
:100A00006500766F6C74616765008F091107653A40
:100A1000A1050F004D0040020100000001009D05EE
:100A20000E00410032020A000000881399050F00F1
:100A3000410034020A00000088130000000000009A
:100A4000000000000000000000090003040708097E
:100A50000001020304070809000307080900010256
:100A60000304050607080909AC05000000000000A2
:100A700080C64E5A000000007C6B08310001330034
:100A80000028D007800133004023E8030000000065
:100A9000C0AE4E5AFC5350143FA0540B000000004F
:100AA00000BBC43680186009DC37701700000000F6
:100AB000000000000000000044C4FA0E0000000026
:100AC00000C4FB0E0000000068C4FD0E0000000022
:100AD000AAC5160F0000000040C6190F0000000054
:100AE00040C72D0F0000000040C6190F0000000095
:100AF00040C72D0FB00032006001E8034F01320003
:100B00009E022C0120202020202020202020202098
:100B100079657300656570726F6D207265736574B9
:100B20003A00726573657474696E672065657072EA
:100B30006F6D00656570726F6D2072657365740A04
:100B40006572726F723A2000706C65617365206324
:100B5000616C696272617465006572726F723A20CD
:100B600020202000636F6D706C6574653A20005220
:100B700045564552534520504F4C41524954590017
:100B80006578742E74656D702E6375746F6666007B
:100B900074696D65206C696D69740063617061636F
:100BA000697479206375746F666600696E70757418
:100BB000205620746F206C6F77004857206661695B
:100BC0006C7572650062616C616E63657220646948
:100BD00073632E00626174742E646973632E200047
:100BE000696E742E74656D702E6375746F66660021
:100BF000493A0076616C75653A002B200000004090
:100C00000000000095230040000000000040F02F8D
:100C1000FFFFFF7F04000040C21EFFFFFF7F0400B4
:100C20000040691DFFFFFF7F04000000D723000282
:100C3000000008000040AC1E000200000800004058
:100C40008F1C000200000000004027200000006010
:100C500000000000232000000060000000001F20B2
:100C600000000060000000001B20000000200400C5
:100C70000040172000000020040000401320000066
:100C8000002004000040B31DFFFFFF7F0400004070
:100C90008F21FFFFFF7F000000401D1FFFFFFF7F30
:100CA0000000000003218001000000000040BE3869
:100CB000FFFFFF7F000000000000FFFFFF7F00003C
:100CC0000000C1091807C809F30BF00B0000206CE5
:100CD000696D69743D0056696E7075743D00FF0062
:100CE00000000A00050400000004090000FF0101E3
:100CF000000A040505000004040A0000FF020200C7
:100D000000020506000002040B0000FF03030000C0
:100D1000060507000006040C0000FF0000000A01A1
:100D20000513020001040D0000FF0101000A050582
:100D300013040005040E0000FF0202000003051367
:100D4000010003040F0000FF030300000705130860
:100D5000000704100000F22B11241FBECFE5D8E0DD
:100D6000DEBFCDBF10E0A0E6B0E0E8E8F8E702C0E3
:100D700005900D92A03BB107D9F715E0A0EBB0E0CC
:100D800001C01D92AD30B107E1F71DE0C8E5DDE01F
:100D900004C02297FE010E94E73BC635D107C9F780
:100DA0000E948E2C0C94423C0C940000409137041D
:100DB00050913804FA01F395208131812F5F3F4F24
:100DC0003327DA01AE5FBE4F6D917C9111972617E4
:100DD0003707D1F3A081B181A40FB51F8C93318364
:100DE0002083E0913F04F0914004908121E030E0C5
:100DF0000090480402C0220F331F0A94E2F7922B9E
:100E0000908391E090934A04E0913D04F0913E0478
:100E10009081906490839091B20098279093B20053
:100E200008958FEF8093F00288E080935504089531
:100E30001092CA01089540912C0250912D022091E8
:100E400028023091290295E0929FF001939FF00DC6
:100E50001124E80FF11DEE0FFF1FE858FD4F2591FB
:100E6000349193E09093D600813029F4209132029E
:100E70003091330206C0823039F42091340230912F
:100E800035028093D60006C0833021F420914602BB
:100E900030914702249FC001259F900D349F900DF3
:100EA00011240895CF93DF9381E00E941B07EC018A
:100EB00084E00E941B0740917C0250917D024C17F8
:100EC0005D07C0F484179507B8F4FA01E81BF90B25
:100ED0009E01281B390BC90164E670E00E94903B1B
:100EE000CF010E94903B6436710510F063E670E01C
:100EF000862F03C083E601C080E0DF91CF91089583
:100F0000853149F481E020917E0230917F022531C4
:100F10003105B9F419C0AEEFA80FAB3130F4B0E031
:100F2000A258BF4F9C91913071F4E82FF0E0EE0F82
:100F3000FF1FE05BFD4F81E020813181213931408D
:100F400018F480E0089581E0089520912C023091FA
:100F50002D02609128027091290295E0969FF00180
:100F6000979FF00D1124E80FF11DEE0FFF1FE858B9
:100F7000FD4F45915491823051F46230710539F43E
:100F80002730310520F02150310940EB54E0429FD9
:100F9000C001439F900D529F900D11240895DC01D4
:100FA00080E091E0980FFB01E80FF11DE491E9303A
:100FB00011F0892FF6CF12961C92129713961C925D
:100FC000139714969C93149781E015968C9315971C
:100FD00016968C93169786E790E011969C938E93C5
:100FE00018967C936E93179708958091D0019091F5
:100FF000D101892BA1F48091FC04882389F02091F0
:101000000402309105028091D3019091D401281BF4
:10101000390B81E02330310518F080E0089581E03C
:1010200008952091D0013091D101232B41F48F5D9F
:10103000E82FF0E0EE0FFF1FE05BFD4F25C0909121
:10104000D201282F30E09923D1F08F5DE82FF0E016
:10105000EE0FFF1FE05BFD4F220F331FD901AD5391
:10106000BF4F808191814D915C91841B950BF9015B
:10107000ED54FF4F20813181820F931F0895F901B4
:10108000EE0FFF1FED54FF4F808191810895CF92A5
:10109000DF92EF92FF920F931F93CF93DF937C0128
:1010A0000091CE011091CF01C0E0D0E0CC24C394D8
:1010B000D12C96018C2F0C2E02C0220F331F0A94C4
:1010C000E2F720233123232B29F00E941108E81690
:1010D000F90630F42196C830D10559F780E001C0F7
:1010E00081E0DF91CF911F910F91FF90EF90DF9002
:1010F000CF900895CF92DF92EF92FF928091670098
:10110000813009F090C080911C0290911D02892BC2
:1011100009F489C0E0911E02F0911F02EE0FFF1F3B
:10112000EE0FFF1FE35CFC4FC590D590E590F49067
:10113000C11481EED806E104F10411F1E0913D04FF
:10114000F0913E0481E090E00090490402C0880FD5
:10115000991F0A94E2F7808360E079E08DE390E0E4
:10116000A70196010E94A43B215031094109510970
:101170005695479537952795211580E13807A8F0B2
:10118000E0913D04F0913E04108260E874E88EE145
:1011900090E0A70196010E94A43B2150310941092A
:1011A00051095695479537952795E0913904F09167
:1011B0003A043083E0913B04F0913C042083109288
:1011C0004A04E0913F04F0914004408181E090E0C6
:1011D0009C010090460402C0220F331F0A94E2F7DC
:1011E000422B4083E0913F04F091400440819C01F8
:1011F0000090470402C0220F331F0A94E2F7422BEB
:101200004083E0913F04F091400420810090480425
:1012100002C0880F991F0A94E2F780958223808389
:1012200082E080936700FF90EF90DF90CF90089569
:10123000E0913D04F0913E0480914A04882319F026
:10124000808186FFFDCF10924A0408958091670047
:10125000813009F454C00E9418098091370490919C
:101260003804FC01F395DC01AE5FBE4F4081518133
:101270002D913C91119742175307C1F7E0913F041C
:10128000F0914004408181E090E09C010090460490
:1012900002C0220F331F0A94E2F7209524232083F3
:1012A000E0913F04F091400440819C01009047048C
:1012B00002C0220F331F0A94E2F7209524232083D3
:1012C000E0913F04F091400420810090480402C066
:1012D000880F991F0A94E2F780958223808380917A
:1012E000350490913604FC01EE5FFE4F2081318180
:1012F000FC01F3953183208381E08093670008959A
:101300008BE30C94D6062FB7F8946091E5047091A6
:10131000E6048091E7049091E8042FBF089587E0E8
:101320008093F00282E08093F1020E94830970931F
:1013300007056093060583E08093080508950E94E1
:101340008309969587957795679508950E949F09DB
:1013500028EE33E040E050E00E94A43BC90108952C
:101360008091A5029091A6022091A302222341F030
:101370000E94A6092091A5023091A602821B930B20
:1013800008950E94A6099093B1008093B00008953B
:101390000E94A6092091B0003091B100821B930BEE
:1013A00020915E0430915F042817390728F081E00E
:1013B0008093CA0182E008951092CA0181E00895E5
:1013C000CF93CFB7F8941092F2001092F1001092E0
:1013D000FB001092FC001092FD001092FE00109293
:1013E000F7001092F8001092F9001092FA00109293
:1013F000F3001092F4001092F5001092F6000E9493
:101400009F097093F0006093EF00CFBFCF910895D4
:101410009C01462F50E0FA01EE0FFF1FE817F90775
:101420005CF04817590724F4862F880F821B089513
:10143000181619060CF4089580E008951F93CF93B1
:10144000DF93EC01D695C795D695C795C93CD105D4
:101450002CF088E08093550480E00BC06AE0CE0158
:101460000E94080A182F6AE0CE0188970E94080A95
:10147000810FDF91CF911F910895FC01208127FDFD
:1014800005C0818186958F5F8170089580E0089501
:10149000DC016115710551F0CB0140E0FC012591A3
:1014A00034910296232B19F04F5FF8CF40E012964B
:1014B0001C92129713961C92139714964C931497A0
:1014C00081E015968C93159716968C9316978CE75A
:1014D00090E011969C938E9318967C936E93179739
:1014E000089580910802909109020397029718F4D9
:1014F0008FEF9FE702C08EEF9FE720911C02309193
:101500001D02232B09F402970895CF93DF93DC018A
:101510001B96CD91DC911C9790E080E0FE012EE0BF
:10152000829FE00DF11D11243296259134912115F1
:10153000310599F01D964D915C911E9737FF03C0C0
:1015400057FF09C0305824233523232B21F066236D
:1015500029F061509F5F8F5FE1CF892FDF91CF919D
:101560000895FF920F931F93CF93DF93EC018B01AC
:101570006A818B81680FCE010E94850AF82E1E8732
:101580000D876FEFCE010E94850A8C8310E08C815D
:10159000181760F4612FCE010E94850A8F1104C0D4
:1015A0008A81181B1B8302C01F5FF1CFDF91CF918F
:1015B0001F910F91FF900895CF93DF93EC010E944C
:1015C000710ABC01CE010E94B10A80911002909173
:1015D000110220911202309113022817390720F4CA
:1015E0009093130280931202809112029091130241
:1015F00089359B4130F088E59BE1909313028093FD
:1016000012028091140290911502209116023091DD
:1016100017022817390720F49093170280931602B7
:1016200080911602909117028938934130F088E832
:1016300093E19093170280931602DF91CF91089562
:10164000CF93DF93EC010E94850A2B853C859EE0B9
:10165000899F200D311D1124F90136964591549131
:10166000CA01F901349624912150223030F4FA0154
:101670004591559165917491CB01DF91CF9108957A
:10168000CF93DF93EC0188819981AA85BB85E8859A
:10169000F985309701F19B0140E050E0281B390BA0
:1016A000410951090E94693B9F01442737FD40953C
:1016B000542F0E94C63B8A819B81280F391F411DF0
:1016C000511D2115310581E04807510524F457FDCE
:1016D00005C0C90105C08FEF9FEF02C080E090E018
:1016E000DF91CF910895FC0142815381411551054D
:1016F00091F0A081B181B7FF03C0B195A195B10967
:1017000028EE33E00E94623B9A0140E050E00E94E4
:10171000A43BC901089580E090E00895CF93DF9342
:1017200000D000D0CDB7DEB78091780290917902D9
:1017300020917C0230917D02821B930B9A838983D6
:1017400080918202909183029C838B83CE010196CB
:101750000E94730B0F900F900F900F90DF91CF911D
:1017600008956091CE017091CF01E2E4F1E020E0B4
:1017700030E0A1E0B0E0AD01022E02C0440F551FE1
:101780000A94E2F746235723452B29F040815181E3
:101790004817590740F02F5F3F4F329628303105E8
:1017A00051F781E0089580E0089580912C01909197
:1017B0002D01039750F080913201909133010397EE
:1017C00020F083E090E00C94B10B80E00895E0916C
:1017D0002802F0912902EA58FF4F849108954F9210
:1017E0005F926F927F928F929F92AF92BF92CF92B1
:1017F000DF92EF92FF921F93CF93DF93CDB7DEB7C7
:101800002A970FB6F894DEBF0FBECDBF182F809178
:10181000DB02833021F0812C912C540105C0812CF6
:10182000912CA12CF0E4BF2E8091A902882311F005
:1018300080EEB81A0E94E70B21E030E00090DE0253
:1018400002C0220F331F0A94E2F76901EE24D7FC8D
:10185000E094FE2CC80CD91CEA1CFB1C40E052E0B2
:1018600002C0440F551F8A95E2F7662757FD609521
:10187000762FC40ED51EE61EF71EBB24B394B10E00
:10188000A12C1AE01A9DB00111246650744F4AE051
:1018900050E0CE0101960E94EB3B89819A814F80F6
:1018A000588469847A844B815C816D817E814C216E
:1018B0005D216E217F21452B462B472B51F0B7012F
:1018C000A6014421552166217721452B462B472B24
:1018D000C9F0A394B110D6CF2A960FB6F894DEBF04
:1018E0000FBECDBFDF91CF911F91FF90EF90DF90A2
:1018F000CF90BF90AF909F908F907F906F905F90B0
:101900004F900895BA94E5CF0E94E70B20912802EA
:1019100030912902232B59F0833061F0823069F035
:10192000882371F0853079F482EF92E008958FE199
:1019300093E0089584E093E0089586E193E00895AC
:101940008DE093E008958BEF92E00895CF93DF93BD
:1019500000D000D0CDB7DEB7A0912A02B0912B0203
:1019600020914402309145020E94533B24E630E02E
:1019700040E050E00E94A43B293E8DEF380741052E
:10198000510550F429833A834B835C830E94E70B13
:1019900029813A81853021F428EE3DEF40E050E086
:1019A000C9010F900F900F900F90DF91CF91089584
:1019B000CF92DF92EF92FF920F931F93CF93DF931B
:1019C000EC017B016A01E881F981CF01B8010E9435
:1019D000903B009731F01E141F049CF4081B190B58
:1019E00003C01E141F0474F4C901801B910BE81777
:1019F000F90718F40E0F1F1F01C08901198308830E
:101A00000DC08C01C8018C0D9D1D8E179F0718F409
:101A1000E01BF10B01C0F601F983E883DF91CF9160
:101A20001F910F91FF90EF90DF90CF900895CF928C
:101A3000DF92EF92FF92CF9397FF08C09095809529
:101A4000709561957F4F8F4F9F4F07C0611571054E
:101A50008105910511F0C0E001C0C1E0AAE0CA2EE5
:101A6000D12CE12CF12C611571058105910541F016
:101A7000CF5FA70196010E94C63BCA01B901F3CF0F
:101A80008C2FCF91FF90EF90DF90CF9008958F92A1
:101A90009F92AF92BF92CF92DF92EF92FF920F93FD
:101AA0001F93CF93DF936B017C01EA0197FF0BC07B
:101AB0008DE28883F094E094D094C094C11CD11C32
:101AC000E11CF11C2196C701B6010E94170DC80F39
:101AD000D11D18828E01BAE08B2E912CA12CB12C35
:101AE000C701B601A50194010E94C63B605DF801E3
:101AF00062938F0169017A01C114D104E104F104F8
:101B000079F7CE01DF91CF911F910F91FF90EF9068
:101B1000DF90CF90BF90AF909F908F9008950F93DC
:101B20001F93CF93DF93CDB7DEB72F970FB6F894FF
:101B3000DEBF0FBECDBFAE014F5F5F4F0E94470DAE
:101B40008E010F5F1F4FF80181918F01882319F0DB
:101B50000E94D606F8CF2F960FB6F894DEBF0FBEC0
:101B6000CDBFDF91CF911F910F9108956091B20089
:101B700070E080E090E00E948F0D8DE00E94D6061C
:101B80008AE00C94D606CF93DF93EC011092B2005A
:101B900084E20E94D606BE0180E090E00E948F0D94
:101BA0000E9480096091DE02643040F470E06F5F53
:101BB0007F4F882777FD8095982F0EC0869906C0A5
:101BC00061E070E080E090E00E948F0D829906C095
:101BD00064E070E080E090E00E948F0D0E94800938
:101BE0006091E2007091E3008091E4009091E50043
:101BF00028EE33E040E050E00E94A43B4427552704
:101C0000CA01B9010E948F0D8EE20E94D606609132
:101C1000E2007091E3008091E4009091E50024E6F9
:101C200030E040E050E00E94A43BCA01B9012AE044
:101C300030E040E050E00E94A43B0E948F0DDF9115
:101C4000CF910C948009CF92DF92EF92FF920F9385
:101C50001F93CF93DF9300D000D0CDB7DEB76C01D8
:101C60007B01FC0160817181F7FE02C06150710946
:101C700080E090E02B833C8349835A830E94170DB8
:101C80002B813C8149815A81823068F0825001E089
:101C900010E09AE0815048F0B801969F8001979F2C
:101CA000100D1124F7CF01E010E0B701C6010E942A
:101CB000D80C0F900F900F900F90DF91CF911F9144
:101CC0000F91FF90EF90DF90CF900895CF92DF9229
:101CD000EF92FF920F931F93CF93DF93CDB7DEB7B1
:101CE0002C970FB6F894DEBF0FBECDBF7C01D62E69
:101CF000C42E0E94200B8C016D2DC7010E94850A05
:101D0000D7011B966D917C911C97BEE08B9F600D57
:101D1000711D1124685F7F4F46E050E0CE010796A9
:101D20000E94EB3B86E0FE013796DE0111960190A2
:101D30000D928A95E1F769817A81EB81FC812D8191
:101D40003E8142E0C41619F081E090E002C08FEFBE
:101D50009FEF6F3FAFE77A0731F4AF01BC01C801D5
:101D60000E94230E24C06E3FBFE77B0711F4099544
:101D70001EC0869FA001879F500D969F500D112475
:101D8000D8018D919C911197480F591F4E175F07ED
:101D90001CF04D935C9303C0D801ED93FC93F801C4
:101DA000808191812817390714F431832083D7016A
:101DB0001F96ED91FC915097309719F0B801C7012B
:101DC00009952C960FB6F894DEBF0FBECDBFDF91FC
:101DD000CF911F910F91FF90EF90DF90CF900895DA
:101DE0002091CE013091CF0190E180E020FD8F5F06
:101DF000369527959150D1F70895CF93DF93EC0155
:101E00000E94F00E882339F0682F70E0CE010E9406
:101E1000903BCB0102C080E090E0DF91CF9108952C
:101E2000FC0125913491F9010994EF92FF920F93EF
:101E30001F93CF93DF937B018C01E80EF91ECFEF48
:101E4000DFEF0E151F05A9F0C8010E940D3CC82741
:101E500028E0CE01969587953C2FEC0130FF04C019
:101E600031E0C32730EAD327215099F70F5F1F4F86
:101E7000E8CFCE01DF91CF911F910F91FF90EF90AE
:101E80000895282FCA01233188F4623078F470E075
:101E9000620F711D620F711D660F771F660F771F2E
:101EA000625F7F4F44E050E00C941B3C0895262F66
:101EB000633110F4423040F021E030E0FC01338324
:101EC000228331832083089550E0BA01620F711D8F
:101ED000620F711D660F771F660F771F625F7F4F5E
:101EE00044E050E00C94FD3B8F929F92AF92BF92E2
:101EF000CF92DF92EF92FF92CF93DF93CDB7DEB711
:101F000028970FB6F894DEBF0FBECDBFF82E5B0149
:101F100040E0682FCE0101960E94570F41E06F2DDF
:101F2000CE0105960E94570F2D813E8140E050E082
:101F3000C980DA80E12CF12C2C193D094E095F098A
:101F4000B50180E090E08B809C80A12CB12C6819B9
:101F500079098A099B090E94743B2F81388540E0EA
:101F600050E0281939094A095B090E94C63B2C0D2B
:101F70003D1D4E1D5F1D57FD0BC02115310581E034
:101F80004807510544F02FEF3FEF40E050E003C019
:101F900020E030E0A901C90128960FB6F894DEBF11
:101FA0000FBECDBFDF91CF91FF90EF90DF90CF902C
:101FB000BF90AF909F908F9008958F929F92AF9215
:101FC000BF92CF92DF92EF92FF92CF93DF93CDB784
:101FD000DEB728970FB6F894DEBF0FBECDBFF82E40
:101FE0005B016115710509F445C040E0682FCE0121
:101FF00005960E94570F41E06F2DCE0101960E9479
:10200000570F2B813C8140E050E0CF80D884E12CF9
:10201000F12C2C193D094E095F09B50180E090E0D3
:102020008D809E80A12CB12C681979098A099B09A1
:102030000E94743B29813A8140E050E02819390917
:102040004A095B090E94C63B2C0D3D1D4E1D5F1DBC
:1020500057FD0BC02115310581E04807510544F0BB
:102060002FEF3FEF40E050E003C020E030E0A90157
:10207000C90102C080E090E028960FB6F894DEBF58
:102080000FBECDBFDF91CF91FF90EF90DF90CF904B
:10209000BF90AF909F908F9008951F93CF93DF9341
:1020A000182F68EE73E00E94740F9C01C091120219
:1020B000D0911302DE010E94533B28EE33E040E052
:1020C00050E00E94A43BB901812F0E94DD0F9E01C8
:1020D00036952795A9014C0F5D1F8417950748F485
:1020E000C21BD30B21E0C817D90708F020E0822FCC
:1020F00001C080E0DF91CF911F91089590E0880F9B
:10210000991FFC01E05BFD4F20813181621773074D
:1021100018F4261B370B04C0AB01421B530B9A016A
:10212000FC01E050FF4F2730310518F0118210827A
:1021300006C0208131812F5F3F4F31832083FC0116
:10214000E05BFD4F7183608308951F93CF93DF930E
:10215000182FC82FD0E0FE01EE0FFF1FEE0FFF1F5C
:10216000EC59FB4F608171818281938120E332E0E1
:1021700040E050E00E94A43BFE01EE0FFF1FE95239
:10218000FE4F31832083B901812F0E94DD0FBC01F6
:10219000812FDF91CF911F910C947E108436910591
:1021A00080F064E670E00E94903B8FE99FE0019729
:1021B000F1F700C000006150710961157105A9F7C0
:1021C0000895019728F025E32A95F1F70000F9CF4B
:1021D000089560FF02C0A89A01C0A89861FF02C0DC
:1021E000A99A01C0A99862FF02C0AA9A01C0AA9840
:1021F00063FF02C0AB9A01C0AB98AC9880E090E05E
:102200000E94CE10AC9A80E090E00E94CE10AC9874
:102210008AE090E00C94CE101F93CF93DF93EC01F3
:10222000162F442311F0AD9A01C0AD98612F70E0D4
:1022300024E0759567952A95E1F7CE010E94E91093
:10224000612FCE01DF91CF911F910C94E91080FF97
:1022500002C0C09A01C0C09881FF02C0C19A01C0EB
:10226000C19882FF02C0C29A01C0C29883FF02C017
:10227000C39A01C0C39884FF02C0DE9A01C0DE98F1
:1022800085FF02C0DF9A01C0DF9886FF02C0AE9AC8
:1022900001C0AE9887FF02C0AF9A0895AF98089525
:1022A0002091D0013091D101232B51F0009741F4BE
:1022B00020910402309105023093D4012093D30180
:1022C0009093D1018093D001E0E0F1E0119211925E
:1022D00021E0E235F207D1F72091D500211102C0AB
:1022E0000C942711089580E090E00E94501181E045
:1022F0008093D5000895BF92CF92DF92EF92FF9224
:102300000F931F93CF93DF938091D0019091D101D0
:10231000892B59F486E090E00E94B10B882351F19B
:102320000E94D50B811132C025C08091D201882333
:1023300069F00E94A6092091D3003091D400821B3D
:10234000930B4097B8F080E090E012C081E080935A
:10235000D201E2E9F2E0A3ECB0E0819191918D939A
:102360009D9382E0E23AF807C1F7E3CF80E090E086
:102370000E9450110E94F507882311F082E0A6C048
:102380008091D5008823D1F381E0A0C08091CD0158
:102390006091CE017091CF0187FD75C0E091CD01B4
:1023A000EF5DF0E0EE0FFF1FE05BFD4FA081B1811C
:1023B000C0903402D090350280E090E020E030E020
:1023C000FF24F394C1E0D0E0AE01022E02C0440F1E
:1023D000551F0A94E2F746235723452BC9F0AC0159
:1023E0004E565D4FFA01408151814C155D05B8F0A4
:1023F000A417B50708F4F12C8C010D541F4FF801F8
:10240000518340838C010D531F4FF801518340834A
:102410002F5F3F4F029628303105B1F602C0FF24EE
:10242000F3941092D2010E94A6099093D400809355
:10243000D300FF2019F00E9473119CCF8091CD0131
:1024400087FD94CF0E9411087C01C090CE01D090EE
:10245000CF01C0E0D0E0B12C01E010E098012C21C8
:102460003D21232B41F08B2D0E941108E816F9061F
:1024700010F4C02BD12B000F111FB394F8E0BF1242
:10248000EDCFCE0175CFE2E9F2E080E090E0CFEF52
:102490004FEF5FEFA1E0B0E09D01082E02C0220FD8
:1024A000331F0A94E2F726233723232B39F02081A8
:1024B00031812417350710F4C82FA90101963296EF
:1024C0008830910549F7C093CD0168CFDF91CF9156
:1024D0001F910F91FF90EF90DF90CF90BF900895E4
:1024E0007F928F929F92AF92BF92CF92DF92EF92A4
:1024F000FF920F931F93CF93DF93782E6B01809100
:10250000D702882309F45AC0772049F080915A01F4
:10251000811105C00E94731181E080935A0180915E
:102520005A01882319F0853009F048C08091510480
:1025300090915204803A910510F480EA90E08C1555
:102540009D0510F41092D5000E947B118093C70165
:10255000813009F053C0A090CE01B090CF01C0E00F
:10256000D0E00FEF1FEFE12CF12C88248394912C05
:1025700094018C2F0C2E02C0220F331F0A94E2F715
:102580002A213B21232B51F00E941108E816F9065D
:1025900008F47C018017910708F48C012196C8305B
:1025A000D10531F7E01AF10A809148029091490271
:1025B0008E159F0518F48FEF8093CD018091C70190
:1025C000813029F4809151049091520402C080E03E
:1025D00090E08C159D0530F0772021F080915A0114
:1025E000853019F01092590109C09091590181E08C
:1025F000890F8093590181E09A3008F480E0DF91DF
:10260000CF911F910F91FF90EF90DF90CF90BF90EF
:10261000AF909F908F907F9008950C947311CF93FB
:10262000DF93E2E9F2E0C3ECD0E0A3EBB0E081910C
:102630009191899399938D939D9382E0E23AF80763
:10264000B1F71092D1011092D0011092D50080E024
:1026500090E00E9450111092D4011092D3018FEF9C
:102660008093CD01DF91CF9108951F93CF93DF9396
:10267000C0915304D0915404CE010E94FD0E0E94DB
:102680004708182F0E94F50781110BC0111109C0CE
:1026900011E020917C0230917D02C217D30708F42B
:1026A00010E0C091D700D091D8008091C801882354
:1026B00029F0BE01812F0E94701201C0812F81116B
:1026C00008C0BE01812F0E94C3260E944A1A82E0E0
:1026D00001C081E0DF91CF911F9108952F923F9229
:1026E0004F925F926F927F928F929F92AF92BF9222
:1026F000CF92DF92EF92FF920F931F93CF93DF93CE
:10270000CDB7DEB763970FB6F894DEBF0FBECDBF6F
:102710009F878E870E949F09798768879E012D5F1A
:102720003F4F3D832C83CE0101969F838E831AE019
:10273000212E312C08E210E08091080290910902CC
:102740008130910531F1009731F18430910529F400
:102750008091A302811109C01EC08230910519F435
:102760008091A30214C0039789F420915A023091FA
:102770005B0280910A0290910B02AC015250241727
:10278000350748F08217930720F006C080E08823C1
:1027900011F0909A01C090988091FC04811105C0BD
:1027A0001092E7001092E60048C1809104029091D7
:1027B00005022091E6003091E7002817390709F457
:1027C0003CC19093E7008093E600809167008130E0
:1027D00009F433C10E949F0920916700223051F40F
:1027E0006093DE007093DF008093E0009093E1003F
:1027F00010926700C090DE00D090DF00E090E00013
:10280000F090E100DC01CB018C199D09AE09BF09F4
:102810008093E2009093E300A093E400B093E5007E
:10282000C0901C02D0901D0281E090E00E94C30D78
:10283000BAE9EB2EB0E0FB2EF7018491E82FF0E02F
:10284000EE0FFF1FE05BFD4F6081718180E090E043
:102850000E948F0D0E948009FFEFEF1AFF0A2AEAFB
:10286000E21620E0F20641F7E12CF12CC7018D5968
:102870009E4F0E94730BBC0180E090E00E948F0D80
:102880000E9480093CE0E30EF11C80E6E816F104AA
:1028900069F783EC91E00E94730BBC0180E090E04B
:1028A0000E948F0D0E9480090E948E0BBC0180E067
:1028B00090E00E948F0D0E9480090E945207682FAD
:1028C00070E080E090E00E948F0D0E9480090E94DD
:1028D00052079091DB009817E0F48093DB000E9490
:1028E000B0092091D9003091DA007C01E21AF30A94
:1028F0000E94B0099093DA008093D9008091DC00A7
:102900009091DD008E159F0520F4F092DD00E0929D
:10291000DC008091A902882311F089E601C084E6D9
:1029200090E02091DB00821B91092091DC00309126
:10293000DD00829FB001839F700D929F700D112466
:1029400080E090E00E948F0D0E9480090E94B60DE9
:1029500092E0C916D1040CF470C082E090E00E94AD
:10296000C30D77EDE72E71E0F72EE0E5AE2EE2E045
:10297000BE2EE4E0CE16D10414F0F70101C0F5013B
:102980006081718180E090E00E948F0D0E9480093B
:10299000F2E0EF0EF11C22E0A20EB11C39E2E316C8
:1029A00032E0F30631F76091D0017091D10180E0FF
:1029B00090E00E948F0D0E94800960E070E0CB01E2
:1029C0000E948F0D0E9480090E94B60D82E0C816F9
:1029D000D10499F183E090E00E94C30D8091090534
:1029E00090910A05009711F48DE095E0FC01BF017C
:1029F000681B790B8C809D808E169F0620F02081AD
:102A00002E3B09F4CBC280E090E00E948F0D0E9423
:102A100080098091090590910A05009711F48DE0D5
:102A200095E06E817F81681B790B80E090E00E94C9
:102A30008F0D0E9480090E94B60D0E94830920918B
:102A4000060530910705CB01821B930B609155045D
:102A5000462F50E04830510508F040C0FA01E65DCD
:102A6000FF4F0C94E53B969587958531910528F0AD
:102A70002AC060ED77E00E94903B6AE02CC0B10173
:102A80000E94903BCB016D38710520F11CC0B10153
:102A90000E94903BCB01683B21E07207C0F013C05D
:102AA0000E941E0A1CC0B1010E94903BCB016135FF
:102AB000710568F008C0B1010E94903BCB01683BF2
:102AC00031E0730720F088E08093550407C0B80117
:102AD0000E94903B64E10E94080A01C080E0282F18
:102AE00030E04091E8005091E90024173507C1F02B
:102AF0003093E9002093E800811104C013BE12BE98
:102B000097980EC0C9019595879528E7280F2093BF
:102B1000FD0188589E4F959587958CBF8CE483BFA7
:102B20002FB7F8948091D7049091D8042FBF892BA8
:102B300009F00FC28091FF008111F1C18091FC0466
:102B4000882309F4E5C18091040290910502019661
:102B500090930502809304024091640450916504AF
:102B600060916604709167047695679557954795CF
:102B70008091FB009091FC00A091FD00B091FE00BF
:102B8000840F951FA61FB71F8093FB009093FC0036
:102B9000A093FD00B093FE00409168045091690439
:102BA00060916A0470916B04769567955795479587
:102BB0008091F7009091F800A091F900B091FA008F
:102BC000840F951FA61FB71F8093F7009093F800FE
:102BD000A093F900B093FA004091800450918104D1
:102BE0006091820470918304769567955795479517
:102BF0008091F3009091F400A091F500B091F6005F
:102C0000840F951FA61FB71F8093F3009093F400C5
:102C1000A093F500B093F6008091F1009091F2003E
:102C200001969093F2008093F1000E949F092091F9
:102C3000EF003091F000621B730B6133754708F4AD
:102C400094C04FB7F8942091F1003091F200A0E3C6
:102C5000B2E00E94533B6B017C01F694E794D79459
:102C6000C7944090FB005090FC006090FD00709075
:102C7000FE006091F7007091F8008091F90090914A
:102C8000FA008090F3009090F400A090F500B090CE
:102C9000F6008A869B86AC86BD864FBF688B798B93
:102CA0008A8B9B8B0E94E0092091ED003091EE0011
:102CB0002F5F3F4F3093EE002093ED0068897989B4
:102CC0008A899B89A70196010E94A43B49015A0168
:102CD000C301B201A70196010E94A43BB90180E0A3
:102CE0000E94DD0F3C01B40181E00E94DD0F8615DA
:102CF000970520F45301A81AB90A02C0A12CB12CDF
:102D000080908C0290908D02A814B90420F48091D8
:102D1000EC00811104C0B5018EE10E947E10B50166
:102D2000681979098DE10E947E106A857B858C8502
:102D30009D85A70196010E94A43BB90187E00E94EE
:102D4000DD0F2091EA003091EB009093EB0080932F
:102D5000EA00BC01621B730B660F771F8FE10E94B4
:102D60007E10B60180E20E947E10F12C8F2D0E9411
:102D7000A510F394A3E19A2EF910F8CFE090500239
:102D8000F090510280915202909153028E159F054E
:102D900018F4E81AF90A02C0E12CF12CB70184E119
:102DA0000E947E10F2E6CF2EF2E0DF2E91E2F601D5
:102DB000619171916F01892F9B8B0E947E109B897D
:102DC0009F5F9932A1F78091A202811118C091E210
:102DD000AA24A394B12CC12CD12C892F9B8B0E94A7
:102DE00080079B89882311F0CA28DB28AA0CBB1C0A
:102DF0009F5F993291F7D092CF01C092CE01A090FF
:102E0000CE01B090CF01E2E9F2E080E090E0C12C89
:102E1000D12C41E050E09A01082E02C0220F331F4E
:102E20000A94E2F72A213B21232B21F020813181D2
:102E3000C20ED31E019632968830910561F7B60115
:102E400085E10E947E10C114D10481F0CE14DF040C
:102E500020F4C7018C199D0903C0C6018E199F0972
:102E6000893B9B4018F4760195E103C094E1A12CC5
:102E7000B12CB70186E19B8B0E947E10B50188E1E1
:102E80000E947E109B89692F70E087E10E947E106E
:102E90002FB7F8946091F8047091F9048091FA04C6
:102EA0009091FB042FBF2DE730E040E050E00E94FE
:102EB000A43B832E942EA52EBB248091030288234D
:102EC00029F0C0905602D09057020BC08091FE01AD
:102ED000882329F0C0905402D090550202C0C12C22
:102EE000D12CB60189E10E947E10B4018BE10E94D1
:102EF0007E109601D7010E94533B20E137E240E06B
:102F000050E00E94A43BB9018AE10E947E1007C0F4
:102F100080916800882319F085E00E94A5102FB7E2
:102F2000F89480E090E0FC01EE0FFF1FEE0FFF1F12
:102F3000EC59FB4F10821182128213820196833169
:102F4000910589F71093D8040093D7041092FF00DD
:102F50002FBF0E949F098884998468197909AE84DB
:102F6000BF846A157B0508F4E7CB63960FB6F89427
:102F7000DEBF0FBECDBFDF91CF911F910F91FF90AC
:102F8000EF90DF90CF90BF90AF909F908F907F9009
:102F90006F905F904F903F902F900895319627CD7E
:102FA00080910302882359F080E090E00E94341A57
:102FB0001092D8001092D700929A109203020895AE
:102FC0001F93CF93DF93EC01162F84E10E948007BB
:102FD00081110EC068EC71E081ED91E00E94C92B77
:102FE0008B858231D1F5DF91CF911F910C94D01751
:102FF000612FCE010E94152BCE0109960E943D0A39
:10300000882311F0298501C02FEF332727FD309544
:10301000812F90E02817390701F1111106C06E8544
:103020007F8580E090E049E013C040E067E0809158
:103030008202909183020E947C1BEC85F0E0EE0FEF
:10304000FF1FE952FE4F6081718180E090E046E011
:10305000DF91CF911F910C94161BDF91CF911F919F
:1030600008950E94D0170C947311813020E89207C4
:1030700010F080E090E890930202809301022FB755
:10308000F89490930405809303058FB580688FBDF5
:103090002FBF0C941F1A0F931F93CF93DF93EC0154
:1030A000443019F06FEF7FEF02C061E070E0E09113
:1030B0005C04F0E0EC56FF4FE4910E2F10E02889FD
:1030C000398941E050E0CE010E960E94D80C8E85E1
:1030D0009F852B85213131F4DF91CF911F910F9185
:1030E0000C943518DF91CF911F910F910C94341AE5
:1030F000CF93DF93D82FC92F209178023091790296
:103100002115310511F421E030E040E050E060ECA1
:1031100071EE84EE90E00E94A43BA8EEB3E00E9422
:10312000693B24E630E040E050E00E94A43B8091FF
:103130001202909113026D2F7C2F8617970708F4C7
:10314000BC01C901DA01009721E0A207B10520F016
:103150008FEF9FEFA0E0B0E08617970708F4BC015F
:103160008091FF01909100026817790750F49C014B
:10317000261B370B2D38310568F0BC016C587109DE
:1031800009C09B01281B390B2D38310518F0BC01F3
:1031900064577F4F8617970789F0709300026093FA
:1031A000FF016115710521F081E10E94740F02C0D9
:1031B00080E090E0DF91CF910C943518DF91CF91B2
:1031C0000895CF93DF930E94B826C0917C02D091DE
:1031D0007D0282E00E941B0720915A0430915B041B
:1031E0008C179D0710F4C90105C0C90196958795F4
:1031F000969587950E947818809153049091540475
:103200008C179D0718F48CE890E049C02091ED00E0
:103210003091EE002230310508F447C080913C0225
:1032200090913D02892B71F040918E0250918F0256
:1032300080914C0290914D02841795071CF486E80A
:1032400090E02DC080914A0290914B02880F991F07
:1032500041E02817390708F440E04093EC0044238C
:1032600021F18091460290914702892BF1F0409123
:1032700048025091490220912C0230912D02429F28
:10328000C001439F900D529F900D112420918A02FE
:1032900030918B022817390744F482E890E090932C
:1032A000DD028093DC0281E001C082E0DF91CF91FA
:1032B0000895AF92BF92CF92DF92EF92FF920F9359
:1032C0001F93CF93DF930091530410915404C801CE
:1032D0000E94FD0E7C01C090CE01D090CF01C0E0D5
:1032E000D0E0AA24A394B12C95018C2F0C2E02C0FF
:1032F000220F331F0A94E2F72C213D21232B29F0C2
:103300000E9411088E159F0530F42196C830D10512
:1033100059F7F12C02C0FF24F3940E94F5078111A4
:103320000CC0F1100AC0FF24F39420917C0230916C
:103330007D022017310708F4F12CC091FF01D091D4
:103340000002BE018F2D0E947012811118C0BE01B3
:103350008F2D0E94C326EC0100917C0210917D020A
:1033600082E00E941B070817190720F4D695C7951D
:10337000D695C795CE010E94781882E001C081E001
:10338000DF91CF911F910F91FF90EF90DF90CF9041
:10339000BF90AF9008950E94B82620917C02309192
:1033A0007D0280915304909154048217930740F456
:1033B0008CE890E09093DD028093DC0280E0089539
:1033C00080915A0490915B040E94781882E00895DD
:1033D0008091FE01811110C0109202021092010230
:1033E000109200021092FF0180E090E00E943518D8
:1033F000969881E08093FE01089582E0603478071A
:1034000059F421E08091400290914102892B09F406
:1034100020E02093C801089582E06233780729F400
:1034200086990CC061E081E007C06453724031F4BA
:10343000829904C060E082E00C94002608952FB7C2
:10344000F89481E090E09093D8048093D70481E0D1
:103450008093FF00E0E0F1E01192119281E0E2350B
:10346000F807D1F72FBF0895813020E8920710F0B8
:1034700080E090E89093EA048093E9042FB7F894F1
:1034800090930405809303058FB580688FBD2FBF8F
:103490000C941F1A0F931F93CF93DF93EC0180912D
:1034A0000C0290910D0220915A0230915B02AC0106
:1034B00052502417350718F082179307B8F140913E
:1034C0007802509179024115510511F441E050E024
:1034D0002091520130915301A8EEB3E00E94533B7A
:1034E0009A0140E050E00E94A43BA8EEB3E00E94A5
:1034F000693B24E630E040E050E00E94A43B80912C
:1035000016029091170289019A010115110541E0F7
:103510002407310520F00FEF1FEF20E030E0801787
:10352000910708F48C01902F812F02C090E080E079
:10353000692F782FC617D70708F4BE018091D700EE
:103540009091D8008617970799F07093D8006093F0
:10355000D7006115710521F082E10E94740F02C04D
:1035600080E090E0DF91CF911F910F910C94341A7D
:10357000DF91CF911F910F910895809103028111E6
:1035800012C080E090E00E94341A1092D80010928D
:10359000D700929881E08093030288E893E19093AA
:1035A00053018093520108958FB7F8941092F80454
:1035B0001092F9041092FA041092FB041092F30492
:1035C0001092F4041092F5041092F6048FBF0E943A
:1035D0001F1A0E94E0091092EE001092ED00109266
:1035E000EB001092EA0060E070E08BE10E947E1038
:1035F00060E070E08DE10E947E1060E070E08EE19E
:103600000E947E1060E070E08FE10C947E108111CA
:1036100005C0939AC498969A929A08959398C49ADA
:1036200008951092FC0480E00C94071BFF920F9306
:103630001F93CF93DF93CDB7DEB72B970FB6F894D8
:10364000DEBF0FBECDBFF42E8E010F5F1F4FA8014E
:103650000E94470DF80101900020E9F73197E01B27
:10366000F10B8F2D8E1B0E94A92A6F2DC8010E947D
:10367000262B2B960FB6F894DEBF0FBECDBFDF9181
:10368000CF911F910F91FF90089580913C029091EE
:103690003D02892BC1F080918E0290918F022AE029
:1036A000289FB001299F700D1124882777FD8095F0
:1036B000982F45E00E94161B8DE60E949F2A83E406
:1036C0000E949F2A04C080E591E00E94F42A0C9495
:1036D000BA2A60918A0270918B02882777FD8095C3
:1036E000982F45E00E94161B8DE60E949F2A86E5D2
:1036F0000E949F2A0C94BA2A2F923F924F925F9277
:103700007F928F929F92AF92BF92CF92DF92EF9271
:10371000FF920F931F93CF93DF93CDB7DEB72E9712
:103720000FB6F894DEBF0FBECDBF8C014D3061F4F3
:103730008DEF860F0E94A92A011103C089EC90E049
:10374000D4C085EC90E0D1C04C3029F4883E23E011
:10375000920770F006C0453059F4883E3DEF93075C
:1037600038F089EF860F0E94A92A88E191E0BDC058
:10377000E42EF12C85E0489FF0011124E053FF4F27
:1037800085909490C4014E876D870E94F43B6D85AF
:10379000762E781A4E8517140CF0A9C0483041F4E3
:1037A00017FF06C01195019511095524539401C0C6
:1037B000512C85E08E9DF0018F9DF00D1124E15379
:1037C000FF4F849195E09E9DF0019F9DF00D112487
:1037D000E353FF4FA590B490882379F19801A8EEA8
:1037E000B3E00E94533B6501E12CF12CA701960147
:1037F0000E94C63B69017A01552041F0F094E094A3
:10380000D094C094C11CD11CE11CF11CC701B601AD
:103810000E94170D8F5F90E0272D332727FD3095ED
:103820002817390754F04FEF470DC701B6010E9422
:10383000161B8DE60E949F2A57C0C801B5010E9441
:10384000903B80E090E0FE0131967F01552031F001
:103850002DE22983AE014E5F5F4F01C0AF010E9490
:10386000470D6C01F2E0AF16B10478F1872D99276E
:1038700087FD9095019796012E193F092817390762
:1038800024F5C801B5010E94903B1501412C512C33
:10389000A2019101280F391F411D511D85E6A8166F
:1038A000B10418F4A4E6B0E002C0A8EEB3E00E94B0
:1038B000693BA20191010E94C63BCA01B901A60160
:1038C0000E94470D8EE2F6018083F70101900020EF
:1038D000E9F73197EE19FF09872D8E1B0E94A92A5F
:1038E000672DC7010E94262BC4010E94F42A2E9640
:1038F0000FB6F894DEBF0FBECDBFDF91CF911F9101
:103900000F91FF90EF90DF90CF90BF90AF909F907E
:103910008F907F905F904F903F902F9008951092DE
:1039200062040E94662B86E691E00E94F42A809150
:103930003C0290913D02892B49F044E069E080917E
:10394000EA009091EB000E947C1B04C082E691E0AB
:103950000E94F42A0E94BA2A0E949B2A88E591E0DC
:103960000E94F42A0C94451BCF92DF92EF92FF92B3
:103970001F93CF93DF93EC01162F0E94850A9EE0E0
:10398000899F70011124EB85FC85EE0DFF1D85914B
:1039900094910E94F42AD82ECE0109960E943D0AE5
:1039A000882311F0298501C02FEF332727FD30959B
:1039B000612F70E02617370709F483C01FE01D1937
:1039C000EB85FC85EE0DFF1D3596D490DD2029F0AA
:1039D000812F8D190E94A92A1D2DEB85FC85EE0DE6
:1039E000FF1D34964591559165917491FB014330CB
:1039F00049F4812FDF91CF911F91FF90EF90DF90DD
:103A0000CF90099446FF0DC04F73612F8081918143
:103A1000DF91CF911F91FF90EF90DF90CF900C94AA
:103A20007C1B413009F1423009F04BC0C590D59064
:103A3000E590F490E701E881F981EE0FFF1FEC0DAE
:103A4000FD1D859194910E94F43B181B812F0E94CB
:103A5000A92A6881C601DF91CF911F91FF90EF9055
:103A6000DF90CF900C940C2BC590D590E590F490FE
:103A7000F7010190F081E02DEE0FFF1FEE0FFF1F09
:103A8000EC0DFD1D6591759185919491125024E680
:103A900030E040E050E00E94A43BCA01B901882711
:103AA0009927412F0E94161B80E30E949F2A80E3E2
:103AB000DF91CF911F91FF90EF90DF90CF900C940A
:103AC0009F2ADF91CF911F91FF90EF90DF90CF90D1
:103AD00008950E94662B80916204823041F46091C7
:103AE0005704662321F0869B32C0829B30C08091B0
:103AF0006204823041F480915804811104C088E04E
:103B00000E94A92A08C045E068E08091A702909130
:103B1000A8020E947C1B0E94F12A40E067E080918D
:103B20005A0490915B040E947C1B0E94BA2A0E9456
:103B30009B2A87E491E00E94F42A41E067E08091AB
:103B40005304909154040E947C1B0C94BA2A77274A
:103B500067FD709528EE3DEF4AE050E087EA92E07D
:103B60000E94230EC4CF109262040E94662B8EE343
:103B700091E00E94F42A83EC91E00E94730B46E0EE
:103B800068E00E947C1B0E94BA2A0E949B2A8091B6
:103B9000A902882351F085E391E00E94F42A0E9453
:103BA0008E0B46E068E00E947C1B0C94BA2AFF92C0
:103BB0000F931F93CF93DF93F82E80E00E94A50709
:103BC0008C0120912802309129022A50310922309B
:103BD000310560F481E00E941B0741E06F2DDF9109
:103BE000CF911F910F91FF900C947C1BC0912C02E0
:103BF000D0912D02CA3010F488E001C089E0F81A93
:103C00008F2D0E94A92A41E065E0C8010E947C1B1B
:103C10008FE20E949F2ACE0199270E94462B83E4BF
:103C2000DF91CF911F910F91FF900C949F2ACF931A
:103C3000FC0124812451621718F4CF910C94152BA8
:103C4000C62FC21B8C2F0E945E2A609128027091A1
:103C500029026115710531F086EE94E00E940C2B6B
:103C60000E94F12A20912802309129022A30310540
:103C700071F02B30310569F0232BC9F48C2F90E0C3
:103C800001960E94462B8AE3CF910C949F2A89E0EB
:103C90000BC040E065E080912E0290912F020E94BF
:103CA0007C1B0E94F12A84E0CF910C94D71D45E043
:103CB00067E080912A0290912B020E947C1B8FE288
:103CC0000E949F2A80912C0290912D02CF910C94FA
:103CD000462B45E068E080918602909187020E9421
:103CE0007C1B0C94F12ACF93DF93C82FD62F81E24F
:103CF0008C0F0E9480078823A1F0D13021F48C2FF3
:103D00000E94110808C02CE0C29FC00111248D59E7
:103D10009E4F0E94730B4D2F66E0DF91CF910C9464
:103D20007C1B8EE291E0DF91CF910C94F42AE82F76
:103D3000F0E0EE0FFF1FE05BFD4F208131818250EC
:103D40008B3130F4E82FF0E0E258FF4F408101C0A2
:103D500041E0C9010C947C1B109262040E94662B06
:103D60008CE791E00E94F42A67E08EE10E94971EA2
:103D70000E94BA2A0E949B2A82E791E00E94F42ABC
:103D80000C94691B0E94662B8299109262048091A8
:103D90006204823089F460915704662369F0829945
:103DA0000BC0772767FD709528E833E141E050E0CC
:103DB00082E591E00E94230E809162048230C9F472
:103DC00080915804811104C088E00E94A92A0DC086
:103DD000609152017091530180E090E045E00E94B3
:103DE000161B8EE691E00E94F42A81E00E94A92A27
:103DF00004C068E08AE10E94971E0E94F12A67E0F1
:103E000089E10E94971E0E94BA2A0E949B2A68E0BC
:103E10008CE10E94971E82E00E94A92A0E9452070C
:103E2000682F70E080E090E044E00E94161B8CE672
:103E300091E00E94F42A0C94BA2A109262040E9423
:103E4000662B88E291E00E94F42A80913C029091D6
:103E50003D02892B29F065E087E00E94971E04C08F
:103E600086E291E00E94F42A0E94BA2A0E949B2ACC
:103E700080E291E00E94F42A65E085E00E94971EAE
:103E80000C94BA2A8091D8029091D90202960E948D
:103E9000100F0E94B0099093A6028093A502109281
:103EA000A3028BE494E00C946A2BCF92DF92EF9202
:103EB000FF92482F282F30E0A0E0BDE70E94533B3F
:103EC0006B017C01A4E6B0E0A41BB10924E630E05C
:103ED0000E94623B6C0D7D1D8E1D9F1D24E630E00F
:103EE00040E050E00E94A43B9FB7F8943093000557
:103EF0002093FF048FB580628FBD9FBFFF90EF902E
:103F0000DF90CF900895EF92FF920F931F93CF937E
:103F1000DF93F82EE62E0E94662B0E94F507811192
:103F200008C083E090E00E94B10B882341F080E25A
:103F300009C08091D201882321F082E403C08DE67C
:103F400001C082E62091D0013091D101232B21F4D0
:103F50000E949F2A87E030C0C0E0D0E001E010E07E
:103F60002091CE013091CF0120233123232BB1F0BA
:103F70002091CD01332727FD3095C217D30791F04B
:103F80002091D0013091D10120233123232B41F006
:103F90008091F10280FF06C082E005C080E203C08C
:103FA00081E001C080E00E949F2A000F111F21962E
:103FB000C830D105A9F680E00E94A92AD1E0DF0D22
:103FC00081E38F0D0E949F2A8AE30E949F2A6E2D13
:103FD0008F2D0E94731E0E94BA2A0E949B2AD830FD
:103FE000D0F482E38F0D0E949F2A8AE30E949F2AC9
:103FF000C2E0CF0D6E2D8D2F0E94731EC83059F078
:1040000083E38F0D0E949F2A8AE30E949F2A6E2DD0
:104010008C2F0E94731EDF91CF911F910F91FF9003
:10402000EF900C94BA2A66E086E00C94831F66E059
:1040300083E00C94831F66E080E00C94831F61E0B2
:1040400086E00C94831F61E083E00C94831F61E0A1
:1040500080E00C94831FCF93DF930E94662B8091A6
:104060006204823059F480915704882339F09927EB
:1040700087FD90950E94EA250E94462860912802BB
:1040800086EE94E00E940C2B0E94F12A809162043B
:10409000823041F480915804811104C089E00E946B
:1040A000A92A05C088E00E94D71D0E94F12AC0916C
:1040B000DE02D0E0CC0FDD1FFE01E452FE4F849102
:1040C0000E949F2AFE01E352FE4F84910E949F2A84
:1040D0000E94F12A0E949B2A0E945207682F70E0DA
:1040E00080E090E042E00E94161B8FEE91E00E947B
:1040F000F42A80EF92E00E943D0A882319F0C091D3
:10410000F00201C0CFEFC0FF05C065E084E10E946E
:10411000971E03C085E00E94A92A80E20E949F2A80
:104120000E94E70B8230B9F4C1FF05C065E085E16C
:104130000E94971E03C085E00E94A92AC2FF07C003
:104140000E94F00E805DDF91CF910C949F2ADF9149
:10415000CF910C94F12A80912802909129020B971B
:1041600039F440E066E080912E0290912F0206C063
:1041700045E066E080912A0290912B020E947C1B10
:10418000DF91CF910C94BA2AEF92FF920F931F9375
:10419000CF93DF93EC016CE370E00E94903B8B01C6
:1041A00080E090E00E94170D23E0F22EF81AE12C37
:1041B000EF142CF480E30E949F2AE394F9CFC80106
:1041C0000E94462B8AE30E949F2ACE016CE370E096
:1041D0000E94903BEC01BC0180E090E00E94170D32
:1041E00012E0181B00E001172CF480E30E949F2AC4
:1041F0000F5FF9CFCE01DF91CF911F910F91FF900B
:10420000EF900C94462BCF93DF93D091F102C091A5
:1042100060040E94662B809162048230F1F49091D8
:104220005D048091CC01923021F4882369F08150A3
:1042300008C0943049F4909160049695891720F451
:104240008F5F8093CC0163C090916004969598171E
:1042500008F05DC09093CC015AC08D2F869586954D
:104260006C2F66956F5F0E94843B9093CC016091A8
:10427000CC0170E06F5F7F4F882777FD8095982F86
:1042800041E00E94161B80E00E949F2AE091CC0131
:1042900084E0E89FF0011124EE53FD4F808191816D
:1042A0000E94C4200E94F12A82E00E949F2AE0918D
:1042B000CC0184E0E89FF0011124EC53FD4F808194
:1042C00091810E94C4200E94BA2A0E949B2AE091F8
:1042D000CC0184E0E89FF0011124E255FD4F45E058
:1042E00068E0808191810E947C1BE091CC0184E098
:1042F000E89FF0011124E055FD4F45E068E0808122
:1043000091810E947C1BDF91CF910C94BA2A8091FD
:1043100058048111ACCF81E00E94A92AB4CFCF927A
:10432000DF92EF92FF920E94662B809162048230AE
:1043300041F460915704662321F0869B4EC0829B16
:104340004CC080916204823041F480915804811104
:1043500004C088E00E94A92A08C04CE068E080916F
:104360003A0290913B020E947C1B82E00E94A92AA3
:104370000E94B0090E94C4200E949B2A89ED91E00E
:104380000E94F42A6091EB047091EC048091ED049A
:104390009091EE0438EEC32E33E0D32EE12CF12CB5
:1043A000A70196010E94A43BC9010E94C42082E09B
:1043B0000E94A92A6091EF047091F0048091F104A9
:1043C0009091F204A70196010E94A43BC901FF90BD
:1043D000EF90DF90CF900C94C420772767FD709505
:1043E0002FEF3FEF41E050E08AE392E00E94230E7E
:1043F0000E944628A6CF7F928F929F92AF92BF9243
:10440000CF92DF92EF92FF920F931F93CF93DF93A0
:10441000782E81E08093C70140917C0250917D020B
:10442000C0905104D0905204809153049091540450
:104430009A01772041F08417950708F49C014817EA
:10444000590748F407C04817590708F49C01841716
:10445000950708F4AC013093C2012093C101309359
:10446000BC012093BB011092BE011092BD011092BD
:10447000C0011092BF01D092C601C092C501421B7B
:10448000530B5093C4014093C3010E94FD0E8C0155
:10449000A090CE01B090CF01CBE5D1E0E12CF12C82
:1044A00088248394912CC4010E2C02C0880F991F7C
:1044B0000A94E2F78A219B21892B21F18E2D0E94FB
:1044C00011089C01772041F00817190708F498019A
:1044D0008017910748F407C08017910708F49801E6
:1044E0000817190708F4C8013F832E8339832883EE
:1044F0001B821A821D821C82DB86CA86821B930B5A
:10450000998788878FEFE81AF80A2C9688E0E816D2
:10451000F10449F610925A01109259011092580173
:1045200010925701DF91CF911F910F91FF90EF9063
:10453000DF90CF90BF90AF909F908F907F90089525
:104540000E940F130E94E81981E00C94FB210E9445
:10455000BD1A0E940F1321E0809140029091410208
:10456000892B09F420E02093C80180E00C94FB2102
:10457000CF93DF930E940F1361E083E00E94002637
:10458000C0915304D09154040E94F00E811108C0D0
:1045900080917C0290917D02C817D90740F40CC02D
:1045A000CE010E94FD0E0E944708882329F00E9438
:1045B000A0221092C9010BC060E083E00E94002697
:1045C0000E94A72281E08093C8018093C901DF91F6
:1045D000CF9108950E94E81981E00E94FB2180910B
:1045E0005104909152040C9478180C94EA22DF92B2
:1045F000EF92FF920F931F93CF93DF93EC018B0108
:1046000041110E943C3C55E0D52EDA9489F0CE0150
:104610000E94153C8017910769F00E949F097B0159
:104620000E949F096E197F0964367105C8F3EDCFAA
:1046300081E001C080E0DF91CF911F910F91FF9049
:10464000EF90DF900895CF93DF931F92CDB7DEB741
:10465000482F60E270E08AEC93E049830E94150FD6
:10466000BC0149818AEE93E00F90DF91CF910C94C9
:10467000F72240E250E06AEC73E086E092E00E94AC
:104680001B3C81E00E942323809106020C94551F5D
:10469000CF93DF931F92CDB7DEB7482F60E273E070
:1046A00088EA90E049830E94150FBC01498188EC9B
:1046B00093E00F90DF91CF910C94F722CF93DF938B
:1046C0001F92CDB7DEB7482F68E970E08EE090E02A
:1046D00049830E94150FBC01498186EA90E00F9042
:1046E000DF91CF910C94F7228091FE0181110AC0D5
:1046F00080910302811108C00E94F507811106C054
:104700008EE405C083E403C084E401C082E4909198
:10471000CA01911187E50E949F2A0E94F12A0E94F6
:10472000B0090E94C4200C94F12A80915D04843069
:1047300029F0823091F46FEF7FEF02C061E070E00A
:104740002FEF3FEF40E050E08AE594E00E94230E17
:1047500010925D048AE08093CB010E94662B8091C9
:10476000CB01882371F081508093CB0140E068E059
:1047700080915A0490915B040E947C1B0E94F12A54
:1047800002C00E94742367E089E10E94971E0E9484
:10479000BA2A0E949B2A68E08AE10E94971E0E9422
:1047A000F12A67E086E10E94971E0C94BA2A1092C3
:1047B00062040E94662B0E94691E0E94451B0E9493
:1047C0009B2A0E9474230C94691BCF93DF9300D023
:1047D000CDB7DEB789839A830E94662B89819A813F
:1047E0000E94F42A0E94B0090E94C4200E949B2AC1
:1047F0008091DC029091DD020E94F42A0F900F90CC
:10480000DF91CF910C94BA2A8091FE01882379F030
:1048100080E090E00E94351810920202109201028E
:10482000109200021092FF01969A1092FE010895D4
:104830000E9404240C9473110E9418240E943118C1
:104840000C947311CF93DF931F92CDB7DEB7809195
:10485000C901882329F0813031F40E9435130CC03E
:104860000E94591909C00E947B11823089F0898306
:104870000E941C2489810CC0813051F49091D70290
:10488000992331F082E08093C9010E940F1382E0E6
:104890000F90DF91CF9108950C9404240F931F93F0
:1048A000CF93DF93E0915C04F0E0E755FE4F149165
:1048B000D0E003E087E090E00E946E13C0916304B3
:1048C00090915601809155019C17B1F0811112C051
:1048D000C093560110925C0410925401C11102C0A1
:1048E000C0E02DC080915504883049F580E00E94D9
:1048F0004D3A25C0815001C08F5F80935501809152
:104900005501843018F000935501DF5F1D1790F6B4
:1049100090915C04953098F4CC2311F3809154016C
:104920008F5F80935401E92FF0E0ED55FE4FE49145
:104930008E1728F09F5F90935C04109254018C2F87
:10494000DF91CF911F910F9108950F931F93CF93F4
:10495000DF93EC018B819A81890F89871A8681E028
:104960008D8302E011E00E944E24482F823011F026
:10497000843089F4E881F9816B818A81680F028033
:10498000F381E02DCE0109958B819A81890F89876A
:104990000A871D8304C08130B1F08830A1F0898579
:1049A00087FD07C09A858FEF890F869596958913A5
:1049B0001D838D81882319F0CE010E94BD2A8A852E
:1049C0008F5F8A87D0CF8FEF898781E08E838D8339
:1049D000483009F080E0DF91CF911F910F91089549
:1049E000CF93DF93D82F68EC71E081ED91E00E94C6
:1049F000C92BC0E084E10E9480078823B1F00E94A7
:104A0000F00E91E0811101C090E0D917A1F0C11121
:104A10000CC06AEB71E0DD2319F081ED91E002C07A
:104A20008FEA91E00E94C92BC1E00E944E248130A0
:104A300009F780E001C081E0DF91CF9108950E94E5
:104A40004E248111FCCF0E944E248823E1F3089567
:104A50000F931F93CF93DF93EC018B019A018A810F
:104A60009B818417950720F4BA01681B790B03C05A
:104A7000BC01641B750B4C815D81569547954617AB
:104A8000570770F5488159818217930748F4B90197
:104A9000681B790BCB01B801641B750BAB0104C01B
:104AA000401B510B821B930B4115510519F024F04B
:104AB000E1E003C0E0E001C0EFEF688579856115B2
:104AC000710519F024F061E003C060E001C06FEFF0
:104AD000E61306C09D838C83598748879B878A8706
:104AE000A885B9850E94623B2A853B8540E050E05D
:104AF0000E94C63BC801A0E0B0E082179307A4075C
:104B0000B5071CF41F821E8204C0021B130B1F83F7
:104B10000E83DF91CF911F910F910895809128020C
:104B2000909129029C012A5031092230310580F0F0
:104B30002AE0289FF001299FF00D1124E658FD4F2F
:104B4000659174918CEC9DE80E94903BCB01089597
:104B500081E090E00895CF92DF92EF92FF920F9361
:104B60001F93CF93DF937C0160917C0270917D0253
:104B7000AC018BEB91E00E9428250BE511E0C0E031
:104B8000D0E0CC24C394D12C96010C2E02C0220F6D
:104B9000331F0A94E2F78091CE019091CF01282330
:104BA0003923232B41F08C2F0E941108A701BC014F
:104BB000C8010E9428252196045F1F4FC830D105E7
:104BC00019F7DF91CF911F910F91FF90EF90DF9038
:104BD000CF9008950F931F93CF93DF93EC010E9422
:104BE0008E2501E010E09C0141E050E0BE018CE226
:104BF00092E00E94D80CDF91CF911F910F91089500
:104C0000CF93DF931F92CDB7DEB7882341F069833E
:104C10000E941B0790935404809353046981662378
:104C200069F080912E0290912F0290935B04809303
:104C30005A0480913602909137020CC08091300264
:104C40009091310290935B0480935A0480913802D2
:104C50009091390290935204809351040F90DF9108
:104C6000CF91089561E081E00E94002687E991E0FC
:104C70009093D9028093D80208951092D70290E0C1
:104C80008930910508F042C0FC01EE5CFF4F0C94A6
:104C9000E53B0E94E70B811107C061E081E00E94C3
:104CA00000268BE891E02EC00E94E70B853051F47E
:104CB00061E081E00E94002685E891E023C081E068
:104CC0008093D7020C94322680EF92E01BC060E004
:104CD00082E00E94002681E991E014C00E94322601
:104CE00080912E0290912F0265E070E00E94903B2F
:104CF0007093520460935104089581E08093D70229
:104D00008DE991E09093D9028093D8020895EF92B3
:104D1000FF920F931F93CF93DF931F92CDB7DEB710
:104D2000162F877028E0829FC0011124682F6064CD
:104D300040E08BE494E079830E940C11E12E7981AC
:104D4000F72E00E010E0F70161917F0141E08BE474
:104D500094E00E940C110F5F1F4F0830110599F766
:104D60000F90DF91CF911F910F91FF90EF900895D9
:104D70000E94D50B882331F08091FF0190910002B1
:104D80000C94AB2508954F925F926F927F928F9211
:104D90009F92BF92CF92DF92EF92FF920F931F9359
:104DA000CF93DF93B82EEB010E94D50B81110AC07F
:104DB000BB2009F4D4C08091570190915801892BF0
:104DC00009F4CDC00E94F5078111C9C0CE010E942F
:104DD000AB2580917C0290917D029093BC018093E1
:104DE000BB01D093BE01C093BD01C090CE01D09055
:104DF000CF01ABE5EA2EA1E0FA2E00E010E0882416
:104E00008394912CC401002E02C0880F991F0A942C
:104E1000E2F78C219D21892B41F0802F0E941108FF
:104E2000F70191838083D383C2830F5F1F4FFCE020
:104E3000EF0EF11C0830110529F7E0905304F090B3
:104E40005404B7018BEB91E00E94400B8C01C70129
:104E50000E94FD0E4C019BE5492E91E0592EE12C5C
:104E6000F12C66246394712CC3010E2C02C0880FB0
:104E7000991F0A94E2F78C219D21892B09F083C0A8
:104E80008FEFE81AF80AECE04E0E511CF8E0EF162E
:104E9000F10451F70C171D0720F40C0F1D1F169578
:104EA00007951093580100935701209157013091B5
:104EB000580180915A0490915B042817390708F42F
:104EC000C9012091C701213009F067C04091510408
:104ED000509152049A014817590708F49C016091B7
:104EE0005A01C217D30709F48CC0653009F064C0B9
:104EF0002C173D0708F460C04217530708F05CC048
:104F000080915104909152048C179D0708F048C07D
:104F10008091280290912902039709F072C0CE0176
:104F200001968217930708F06CC0282F892F2093D1
:104F3000570180935801623009F453C008F046C00D
:104F4000662309F448C0613009F057C0BB2039F02E
:104F500083E080935A01109258011092570180917A
:104F6000570190915801DF91CF911F910F91FF90C0
:104F7000EF90DF90CF90BF909F908F907F906F9039
:104F80005F904F900895B401C2010E94400B8017BA
:104F9000910708F075CF8C0173CF40E050E09ACFB5
:104FA0004091D5015091D6018091D3019091D401C7
:104FB0004817590709F4ACCF8091D3019091D401DF
:104FC0009093D6018093D501832FB1CF633061F0E8
:104FD000643081F012C0BB2011F20E94731181E095
:104FE0000DC010925A01BBCF109258011092570178
:104FF00084E004C0BB2009F4B2CF85E080935A015D
:10500000AECF2C2F8D2F93CFCF93DF930E94E70B42
:10501000C1E0D0E002C0CC0FDD1F8A95E2F780919D
:105020003C0290913D02892B11F4D05C07C00E9494
:10503000E70B882311F0DF5B01C0DB5B0E94E70B0D
:10504000811107C08091460290914702892B09F097
:10505000DE5FCE01DF91CF910895CF93C82F64E634
:1050600070E00E94740F2AE0289FB001299F700D04
:1050700011248C2F0E94DD0F9C01255F314081E0BF
:10508000273E334008F080E0CF91089580912A02B6
:1050900090912B028436910530F484E690E0909351
:1050A0002B0280932A0280912A0290912B02893E42
:1050B0009D4F30F088EE9DEF90932B0280932A0253
:1050C00080913A0290913B02893E934030F088EE05
:1050D00093E090933B0280933A020E948E252091A8
:1050E0002C0230912D028217930720F490932D0209
:1050F00080932C0280912C0290912D02892B31F407
:1051000081E090E090932D0280932C0282E00E9437
:10511000A5079C0140E050E060EC71EE84EE90E069
:105120000E94A43BA8EEB3E00E94693B24E630E075
:1051300040E050E00E94A43B609112027091130283
:10514000C901DA01009721E0A207B10520F08FEF35
:105150009FEFA0E0B0E06817790708F4CB01209139
:105160002E0230912F028217930720F490932F0282
:1051700080932E0280912E0290912F022091360270
:10518000309137028217930720F49093370280936F
:10519000360282E00E94A5079C0140E050E060E4F6
:1051A0007BE48CE490E00E94A43BA8EEB3E00E9474
:1051B000693B24E630E040E050E00E94A43B60916F
:1051C000160270911702C901DA01009721E0A207C7
:1051D000B10520F08FEF9FEFA0E0B0E068177907EE
:1051E00008F4CB01209130023091310282179307ED
:1051F00020F490933102809330022091300230915C
:10520000310280913802909139022817390720F431
:10521000309339022093380280911002909111024C
:1052200040912E0250912F024817590720F4909375
:105230002F0280932E024091360250913702481778
:10524000590720F49093370280933602809114021C
:10525000909115022817390720F49093310280931A
:10526000300220913802309139022817390720F492
:10527000909339028093380208950E9446288091C5
:105280002A0290912B029695879590932F028093F6
:105290002E0220912802309129022330310531F469
:1052A0009695879590932F0280932E0280912E02DF
:1052B00090912F0290933102809330020E944628F1
:1052C00080912E0290912F0234E0969587953A9521
:1052D000E1F790933702809336020E94462880912E
:1052E00030029091310244E0969587954A95E1F716
:1052F000909339028093380208958091280290910A
:1053000029022AE0289FF001299FF00D1124E65878
:10531000FD4F2591349130933302209332022AE0DD
:10532000289FF001299FF00D1124E458FD4F25918D
:1053300034913093350220933402892B31F580ED7E
:1053400097E090932B0280932A0283E090E0909361
:105350002D0280932C0288EE93E090933B02809381
:105360003A0210923D0210923C0280E797E190933E
:105370003F0280933E02109241021092400284E16B
:1053800090E090934302809342020E94E70B2091A9
:1053900028023091290281112BC081E090E0909386
:1053A00047028093460280EA90E090934502809302
:1053B00044022230310519F48BEF9FEF02C081EFD8
:1053C0009FEF909349028093480286E090E090938B
:1053D0004B0280934A0284E690E090934D028093C2
:1053E0004C0281E090E090934F0280934E021AC0ED
:1053F00088E790E0909345028093440288E090E033
:1054000090934902809348028AE0829FF001839F33
:10541000F00D1124E258FD4F85919491909347022D
:10542000809346020C943D29CF93DF93EC0182E0F8
:105430006832780719F40E947D292DC082E06A3213
:10544000780719F40E943D2926C082E06E32780761
:1054500081F40E94462820912E0230912F02E4E030
:1054600036952795EA95E1F7309337022093360277
:1054700012C06053724079F40E9446282091300295
:105480003091310274E0369527957A95E1F73093A3
:105490003902209338020E94462880912802909178
:1054A0002902892B21F00E940428BC0102C060E07F
:1054B00070E4CE01DF91CF910C94B10A98E2899FFC
:1054C000B001112468557F4F48E250E088E292E035
:1054D0000E94FD3B0C944628CF93DF93CDB7DEB7F7
:1054E00028970FB6F894DEBF0FBECDBF98E0EAE66E
:1054F000F0E0DE01119601900D929A95E1F79091FE
:105500004F04691710F06FEF690FFE013196E60F37
:10551000F11DE60FF11D6081680F606840E08BE4CB
:1055200094E028960FB6F894DEBF0FBECDBFDF9192
:10553000CF910C940C1161E080E00C946C2A8A30BD
:1055400011F40C949B2A41E0682F8BE494E00C94B6
:105550000C11CF93DF93D82FC0E0CD172CF480E24D
:105560000E949F2ACF5FF9CF8D2FD7FD80E0DF917A
:10557000CF91089580E10C94A92AFF920F931F9375
:10558000CF93DF93EC0100E010E0F02E602F80E07D
:105590000E946C2A8A81081302C08EE301C080E257
:1055A0000E949F2A6B819801260F311D8C8190E00B
:1055B0002817390744F4E881F9816F0D0190F081D3
:1055C000E02DCE0109950E94BA2A0F5F1F4F0230CD
:1055D0001105D9F61D82DF91CF911F910F91FF9098
:1055E000089581E00C94A92A1F93CF93DF9300972D
:1055F00071F0182FFC018E2F811B9491EF012196E1
:10560000992331F0892F0E949F2AFE01F4CF80E078
:10561000DF91CF911F910895860F911D860F911DE7
:10562000FC01859194910C94F42AFC01878190856A
:105630000C940C2BDC011796ED91FC911897E60F5A
:10564000F11D649184E692E00C940C2BFF920F9371
:105650001F93CF93DF93EC01F12C009781F0062F7D
:10566000112707FD10952F2D30E0201731073CF44E
:10567000F3948991882319F00E949F2AF4CF8F2DEB
:10568000DF91CF911F910F91FF900895CF93DF93FA
:10569000CDB7DEB72B970FB6F894DEBF0FBECDBFE8
:1056A000BC0180E090E0AE014F5F5F4F0E94470D6C
:1056B0006BE0CE0101960E94262B2B960FB6F89434
:1056C000DEBF0FBECDBFDF91CF91089560E080E0D7
:1056D0000C946C2A40E061E00E940C1188EC90E090
:1056E0000C94CE10CF93DF93EC01623018F08881D8
:1056F000886088836C831D82A09AA19AA29AA39A3B
:1057000088E893E10E94CE10AD98AC9863E0CE019A
:105710000E94E91082EC91E00E94CE1063E0CE017D
:105720000E94E91082EC91E00E94CE1063E0CE016D
:105730000E94E9108FE090E00E94CE1062E0CE015E
:105740000E94E9106881606240E0CE010E940C1165
:1057500084E0898340E06CE0CE010E940C11CE0110
:105760000E946A2B82E08A8340E066E0CE01DF91EE
:10577000CF910C940C11CF93DF93EC018BE494E068
:105780000E946A2B0E94662BCE01DF91CF910C9470
:10579000F42ACF93DF93EB010E94BB2B0E949B2A3C
:1057A000CE01DF91CF910C94F42A0E94520780938E
:1057B000DB001092DA001092D9001092DD001092F6
:1057C000DC001092EB041092EC041092ED041092A5
:1057D000EE041092EF041092F0041092F104109273
:1057E000F204089560E070E08FED92E00E94480AB4
:1057F0002FEF2093E8028DE990E09093E0028093F0
:10580000DF0280E19AE09093EB028093EA028FEF4F
:105810009FE79093ED028093EC028DEF99E19093D6
:10582000EF028093EE022093F00267E67AE08FE1C8
:1058300093E00E94CF076DE57AE086E193E00E9455
:10584000CF0768E57AE08DE093E00E94CF0760E53E
:105850007AE084E093E00E94CF076AE47AE08BEF7D
:1058600092E00E94CF0768E47AE082EF92E00E9423
:10587000CF0768E67AE088E293E00E94480A85EA6A
:1058800090E09093290380932803ECE2F3E0808179
:105890008C5E808381E393E090933604809335049B
:1058A000909338048093370480E490E090933A0416
:1058B0008093390429E230E030933C0420933B0488
:1058C0002BE230E030933E0420933D042AE230E0A6
:1058D0003093400420933F0490934204809341040A
:1058E0008CE290E0909344048093430484E080939E
:1058F000450483E08093460487E08093470485E075
:105900008093480481E080934904A59AA49A109258
:105910004B0461E08BE494E00C94722BCF93DF9303
:10592000CDB7DEB7C454D1090FB6F894DEBF0FBEB1
:10593000CDBF80E00E94071B909813BE12BE9798BF
:1059400080E00E9427118C9A8B9A889A8F9AB89A35
:10595000B99ABA9ABB9AD69AD79AA69AA79ABC9A93
:105960008D9A8E9A8D9A8A9A789462E08BE494E06C
:105970000E94722B89B7836089BF80E094E097BD55
:1059800086BD82E08FBD89E18EBD89B7846089BF05
:10599000D598D498DD98DC98BF9ABE9ABD9A8EEAC5
:1059A00086B9369A88E085BD85B5846085BD14BC0E
:1059B0008CE783BD89B7806889BF1092020210927C
:1059C0000102109200021092FF0180E090E00E941C
:1059D000351811E01093FE010E9404241093030275
:1059E0000E94D01710920502109204020E94D41A4D
:1059F000E0910905F0910A05309711F4EDE0F5E02A
:105A0000CE018D5B9F4F2EEB8E179F0710F02193D9
:105A1000FBCF40E250E06AEC73E086E092E00E9447
:105A2000FD3B809106020E94551FEEE0FE2EF9829A
:105A30001FE11A8301E10B830C830D830E830F8317
:105A40001887BE016F5F7F4F80E00E948726F98232
:105A50001A830B830C831D831E831F831887BE014B
:105A60006F5F7F4F81E00E948726F9821A831B8334
:105A70001C831D831E831F831887BE016F5F7F4FAA
:105A800082E00E94872684EB95E00E94BB2B0E9457
:105A90009F098B010E949F09601B710B683E734038
:105AA000C8F30E944434CC24C394D12C60E088E233
:105AB00093E00E94763787FDF9CF811116C16AE520
:105AC00078E0CE01CA960E94480A66246A940DE9DD
:105AD00010E032EFE32E35E0F32EAA24AA944FE72C
