:100000000C94F7050C941F060C941F060C941F0605
:100010000C9449090C941F060C941F060C941F069F
:100020000C941F060C94AD090C9479090C94840966
:100030000C941F060C94350A0C946A0A0C941F0643
:100040000C9425090C941F060C941F060C941F0693
:100050000C941F061A1426142B142E143014421458
:100060003F142E141A14DD36DF36E136E536E53658
:10007000E336E936E736000000003A65C52E000099
:1000800000003A65C52EF80132007C2BE80380049D
:100090003200001F2C0100000000000000000000E2
:1000A0000000000000000000000080A6CA30FC161E
:1000B000E808000000000000000043BFA80E000098
:1000C000000071D8681000000000AFD9681000006F
:1000D00000004067D007000000000FD66810000045
:1000E0000000C8D86810000000008AD86810F80125
:1000F00032007B2BE8039A0132007A0B2C010006B8
:100100000800FF01010A01060900FF0302000206C0
:100110000A00FF00000A06060E00FF0302000506A3
:100120000D00FF02030004060C00FF03020003069B
:100130000B00FF04060007060700FF030200420150
:1001400000006F7074696F6E7300460003008813BF
:100150007017010032000C173200D0071027000082
:100160000000030000000000000080250000004B9C
:1001700000000096000000E1000000C20100010044
:100180000100010001000100B00408075203000053
:100190005203B0040807E8030000E803D0079209FF
:1001A000D60600006C07E40C100ED007E40CB80B68
:1001B000100E0410C409A60EAC0D740E6810B80B16
:1001C0000A0F890C740ECC10B80B0A0F890C740E30
:1001D000FE10B80B0A0F890C40066C071405400688
:1001E00078050100A00FD007010001000100A00F59
:1001F00001000100010004000001020202020203EA
:100200000405BF0AB50AB00AAB0AA60AA10A9C0AED
:10021000970A920A8D0ABA0A890A261A5F1A851B5A
:10022000151C201C2B1C3A1D361D6A1D151E211E77
:10023000261EAE1EAB1EB51EDC1EE31E061F692168
:1002400039213F210824201C0A24078F080200447A
:100250000069020100000010278A08FF7F4900B3EF
:1002600002000000000000B808040049003C04013E
:10027000000000010000000000000000000000007D
:1002800000000000018308020041005B0201000041
:100290000078697B08020041005D020100000078DF
:1002A00069B808040049003C040100000001000096
:1002B00000000000000000000000000000ED0882C7
:1002C0000041006702010000003075E8088200412B
:1002D000009902010000008813E308820041009B9E
:1002E00002010000008813DE08820041009D020127
:1002F0000000008813D908820041009F020100001D
:10030000008813D40882004100A102010000008887
:1003100013CF0882004100A302010000008813C926
:1003200008FF7F41008102000000000000C308FFB9
:100330007F41007F02000000000000B8080400496F
:10034000003C04010000000100000000000000006B
:100350000000000000000006090A0B0C0D0E061F2D
:10036000202122232498089508000064002C0164B1
:1003700000E803A5089F080000B208AB08000022AF
:100380000919090D090109F2080000DC0AD20AC4A2
:100390000A0000070AFF7F02000D05010000000BA4
:1003A00000040A0F000300C933FE7F792C0000EE21
:1003B000091F0045006303FF7F6400E8FDEA093F71
:1003C0000040006703FF7F01000C17DF091F00409A
:1003D000006903FF7F0100D00791093F004C0073C3
:1003E00003FF7F0000E803000A0E0041006B0301D9
:1003F0000000008813000A100041006B0332000067
:10040000007869F309010041006B030100B004D0DA
:1004100007F309200041006B03FF7F01007869FCAE
:1004200009040041007F03010000008813F8091F40
:100430000041006D03010000008813F8091000411D
:10044000006D03320000007869E3091E0040006F70
:1004500003FF7F01000C17D8091F0040007103FF44
:100460007F0100D007CE090C004800810301000382
:1004700000C800C50901004D007F03010000000114
:1004800000C0090002480081030100ECFF0000B435
:100490000900024B008303010001000A00AB091FA1
:1004A000004D007503010000000100A30900044A8B
:1004B0000685030A000A00840397090001440377B4
:1004C0000364005802AC2687091F0047007D030122
:1004D000000100FA007B090F0049008703010000BA
:1004E00000050071091F004B007B03010001006340
:1004F0000066091F004D00790301000000010000A3
:100500000000000000000000000000000002026186
:1005100003500B410B390B2F0B230B1B0B0C0B0147
:100520000BF20AE50A0009000304070809000307A3
:100530000809000102030407080900010203040579
:100540000607080909830AFF7F4D004903010000DF
:100550000001007B0AFF7F40004B0301000100F413
:1005600001730AFF7F40004D03FF7F01000C176BF2
:100570000AFF7F40004F0301000100F401630AFFFE
:100580007F40005103FF7F0100D007570AFF7F41E2
:10059000035303E803581B30754C0AFF7F4D005589
:1005A00003010000000100460AFF7F0200E305018D
:1005B00000000004003E0A02000100DF0501000007
:1005C000000400380AFF7F00000000000000000067
:1005D0000000000000000000000000000000006AB1
:1005E000015903E70557032F0A280A220A190A109E
:1005F0000A20202D2D202000636865616C692D6321
:100600006861726765720A76312E39395F3230312E
:1006100036303531310063616C69626174696F6EC7
:10062000206572726F7200706C6561736520636122
:100630006C69627261746500656570726F6D2072BD
:10064000657365740A6572726F723A200072657321
:10065000657474696E6720656570726F6D00202027
:10066000202020202020202020207965730065652F
:1006700070726F6D2072657365743A00524556450D
:1006800052534520504F4C415249545900657272A3
:100690006F723A2020202000636F6D706C65746566
:1006A0003A20000D340000004000000000453500F5
:1006B000400000000000409B31FFFFFF7F0400006E
:1006C00040E932FFFFFF7F04000040DF31FFFFFF02
:1006D0007F04000000A3320002000008000040B1C7
:1006E000320002000008000040C732000200000093
:1006F0000000402E2F0000006000000000322F009C
:1007000000006000000000362F0000002004000000
:10071000403A2F00000020040000406632FFFFFF37
:100720007F040000402632FFFFFF7F00000040866C
:1007300032FFFFFF7F000000008C348001000000CA
:100740000000407133FFFFFF7F000000000000FF4A
:10075000FFFF7F000000002500306D570064656CCE
:10076000746120543D20004E2F4100546578743D43
:100770000064656C746120563D20006D6178566F91
:1007800075743D002D00546578743D00206C696DD2
:1007900069743D0056696E7075743D0077697265C5
:1007A0007320523D00626174742E20523D0062201D
:1007B000004C696D6974733A20006E6F2064542F89
:1007C000740066090F004D0079030100000001006C
:1007D000000A0E0041006B030A0000008813F809AC
:1007E0000F0041006D030A000000881300000000A4
:1007F00000000000000000000000252000436843C6
:1008000042426C4469464353745342435943430044
:10081000010101020A1E010318478E01190C030190
:100820000101E80301E00BE80300DE0B640000DCDB
:100830000B640000D90B640000D70BE80301D40B54
:10084000E80301D20B010000D00BE80301DE0B012D
:100850000000C90B640000CC0B010000CA0B0100B2
:1008600000CA0B0100000000010000C70B1417199B
:10087000181A0705061F2021222324566D696E755C
:10088000733A0056706C75733A006164633A007491
:10089000656D703A00493A0076616C75653A0033CF
:1008A00030306D41003130306D4100313030306DCD
:1008B00041003130306D410063616C69622E2070FF
:1008C0002E3A00566F75743A0056312D363A00565E
:1008D00062363A005662353A005662343A00566241
:1008E000333A005662323A005662313A0056696E27
:1008F0003A006578706572742044414E4745522134
:100900000074656D702065787465726E00492064AE
:100910006973636861726765004920636861726723
:100920006500766F6C746167650062616C616E630F
:100930006520706F72742100626174746572792130
:1009400000646973636F6E6E65637400636F6E6ECF
:100950006563740064542F6474002D64560056203F
:100960006C696D6974006164617074206469733AC4
:1009700000442F4320726573743A00442F43206370
:1009800079636C65733A0063617020434F66663A21
:100990000074696D653A007C657874726E2054430A
:1009A0004F3A007C64542F64743A00657874726E18
:1009B00020543A007C69676E7220667273743A0044
:1009C0007C64563A00656E61622064563A0062614A
:1009D0006C2E206572723A006D696E49643A004966
:1009E000643A006D696E49633A0049633A004361B5
:1009F000703A0056636F3A0056643A0056733A00F4
:100A000056633A00563A00626174746572793A002E
:100A10006578742E20416463006578742E206465C7
:100A200062006465627567006E6F726D616C006470
:100A3000697361626C6564007265736574007C73D0
:100A4000706565643A00554152543A006164632010
:100A50006E6F6973653A00696E707574206C6F779C
:100A60003A20006D61782049643A006D696E204932
:100A7000643A006D61782049633A006D696E2049DF
:100A8000633A00626565703A004C4544004E695A0D
:100A90006E004C343335004C343330004C69706F89
:100AA000004C696C6F004C69666500506220200044
:100AB0004E694D48004E69436400556E6B6E004EA2
:100AC0006F6E650072657365742064656661756C30
:100AD000740063616C69627261746500736574743B
:100AE000696E67730065646974206261747465720D
:100AF0007900636170616369747920636865636B11
:100B000000443E4320666F726D61740073746F72AF
:100B10006167652B62616C616E630073746F7261F3
:100B2000676500666173742063686172676500645D
:100B300069736368617267650062616C616E6365A9
:100B4000006368617267652B62616C616E6365004A
:100B5000636861726765006578742E74656D702EC8
:100B60006375746F66660074696D65206C696D6984
:100B700074006361706163697479206375746F6672
:100B80006600696E707574205620746F206C6F77E4
:100B9000004857206661696C7572650062616C611E
:100BA0006E63657220646973632E00626174742ED3
:100BB000646973632E20006E6F6C696D6974002028
:100BC0006E6F00796573005500006D00432F6D0056
:100BD0002500F400416800430057680057005600A4
:100BE00041009506A10B9912B82D153193331124AC
:100BF0001FBECFE5D8E0DEBFCDBF10E0A0E6B0E07D
:100C0000E6ECFDE702C005900D92A43BB107D9F7D1
:100C100014E0A4EBB0E001C01D92A53DB107E1F7DF
:100C20001BE0CEEEDBE004C02297FE010E94863E70
:100C3000C23ED107C9F70E9492120C94E13E0C9477
:100C4000000086B380958170B19B02C090E001C026
:100C500092E0892BB29B02C090E001C094E0892B06
:100C6000B39B02C090E001C098E0892B08958823CF
:100C700039F0A69AA79AD59A889A8A9A8F9A08954F
:100C8000A698A798D59888988A988F98089520E074
:100C900042E060E184EB90E00E94983B0E94A90949
:100CA0000E941E0A0E94D40788E799E60C94010767
:100CB000811106C0939A0E942A0780E00C942107B4
:100CC0009398089580FF02C0AE9A01C0AE9881FF4C
:100CD00002C0AF9A01C0AF9882FF02C0DD9A01C086
:100CE000DD9883FF02C0909A01C0909884FF02C0F3
:100CF000929A01C0929885FF02C0979A089597989A
:100D0000089580E00E94620680E00E94580680E01C
:100D10000E94940987B18F7387B98B9A8D9AD79A5D
:100D2000BC9A8C9A8D9A8E9A089584EB90E00C94DC
:100D3000ED3B2FB7F8948091BB009091BC00A0913F
:100D4000BD00B091BE002FBF892F9A2FAB2FBB27BC
:100D5000A7FDBA9508952FB7F8941092C20010928B
:100D6000C1008617970768F480E090E4A0E0B0E047
:100D70008093BB009093BC00A093BD00B093BE00D5
:100D800008C01092BB001092BC001092BD001092DF
:100D9000BE008091BB009091BC00A091BD00B091BD
:100DA000BE00BA2FA92F982F88278093BB0090935D
:100DB000BC00A093BD00B093BE0081E08093BA0058
:100DC0002FBF0895CF93DF93EC01C13080E6D807A1
:100DD00058F4C13080E4D80748F48EE00E942A0A13
:100DE0009598BE018DE009C0C0E0D0E68DE00E947C
:100DF0002A0A949ABE0170548EE0DF91CF910C9430
:100E0000080A893729E6920710F088E799E6BC01BD
:100E100080E00E94450E813C2FEF920710F080EC9D
:100E20009FEF2FB7F8949093C0008093BF002FBF1F
:100E300008952FB7F8949093C2008093C1002FBFFC
:100E40000895882329F080E00E942A07DF980895FA
:100E5000DF9A0895CF93DF93C82F882319F080E09D
:100E60000E942107DFB7F8948DE00E942A0A949827
:100E70008EE00E942A0A95981092BA00DFBFC11135
:100E800004C0969ADF91CF910895969880E00E94D1
:100E90005B0CEC0186E00E945B0CBE01DF91CF9100
:100EA0000C94AB060F931F938091BA00882309F42A
:100EB00074C080E00E94640C2091BF003091C0009B
:100EC0008217930730F080E00E942A071092BA0040
:100ED00064C082E00E94640C4091C1005091C20045
:100EE00060E070E00091BB001091BC002091BD005B
:100EF0003091BE00481B590B61097109E2E0440FB3
:100F0000551F661F771FEA95D1F7040F151F261F7F
:100F1000371F0093BB001093BC002093BD0030939B
:100F2000BE008091BB009091BC00A091BD00B0912B
:100F3000BE00B7FF08C01092BB001092BC00109218
:100F4000BD001092BE008091BB009091BC00A091AA
:100F5000BD00B091BE000197A046B10560F080E0F1
:100F600090E0A0E6B0E08093BB009093BC00A0931B
:100F7000BD00B093BE008091BB009091BC00A091D9
:100F8000BD00B091BE00892F9A2FAB2FBB27A7FDC4
:100F9000BA951F910F910C94E2061F910F9108953D
:100FA000BC018EE00C94080ADE98D698BD9ABE9AD1
:100FB000BF9A8EEA86B9369A0895CF930E94772415
:100FC0009093E6028093E5020E94981D9093E802B8
:100FD0008093E7028091C500882309F459C00E94DC
:100FE0007724409125035091260360912703709147
:100FF0002803CAE09C01C29FC001C39F900D112429
:10100000480F591F611D711D4093250350932603FE
:1010100060932703709328030E94981D4091290331
:1010200050912A0360912B0370912C039C01C29F65
:10103000C001C39F900D1124480F591F611D711DE0
:101040004093290350932A0360932B0370932C033E
:1010500080912D0390912E030197B9F48091F102B4
:101060009091F202A091F302B091F40222E0B695C1
:10107000A795979587952A95D1F78093F10290933C
:10108000F202A093F302B093F402CF910C94360FC6
:10109000CF9108958091550390915603892BE9F0E3
:1010A0004091C9004423C9F081E090E00090C7005E
:1010B00002C0880F991F0A94E2F720912D03309106
:1010C0002E032F703FB7F8945BB39BB3982B9BBB59
:1010D000240F2A95F1F75BBB3FBF08958091C400B0
:1010E0008F5F803108F080E08093C4008091C6005B
:1010F0009091C700A091C800B091C9008093CA0028
:101100009093CB00A093CC00B093CD00E091C400AD
:10111000EF5FE03108F0E0E084E0E89FF0011124A7
:10112000E250FF4F85919591A591B4918093C600AF
:101130009093C700A093C800B093C9008091750335
:1011400090917603892B39F48091C600873019F489
:1011500086E08093C6008091C40081110CC00E947B
:10116000DD0780912D0390912E0321E0892B09F456
:1011700020E02093C50008958091C300882341F1A9
:1011800024B185B1E091CC004FB7F89430E0382B12
:10119000F0E0DF01AA0FBB1FA953BD4F11963C938E
:1011A0002E938091C500882391F0EE0FFF1FEE0F64
:1011B000FF1FE751FD4F80819181A281B381820F92
:1011C000931FA11DB11D80839183A283B3834FBF61
:1011D0008091C30091E0980F9093C3008130A9F0F3
:1011E00028F0873039F18A3039F108958091C600AE
:1011F00087FD05C088B38F71806C88BBD69A8091BB
:10120000CC00823009F50C9452078091C60087FD0E
:101210001BC04FB7F8943AB33F7B28B38091C60008
:1012200050E28502C00111242F71282B28BB3ABB44
:101230004FBF08950C944A088091C700806287B917
:101240001092C3000C946E0808951F920F920FB66F
:101250000F9211242F933F934F935F936F937F933C
:101260008F939F93AF93BF93EF93FF930E94BC081C
:10127000FF91EF91BF91AF919F918F917F916F916E
:101280005F914F913F912F910F900FBE0F901F9044
:1012900018951F920F920FB60F9211242F933F9320
:1012A0004F935F936F937F938F939F93AF93BF936E
:1012B000EF93FF930E941B37FF91EF91BF91AF9186
:1012C0009F918F917F916F915F914F913F912F915E
:1012D0000F900FBE0F901F90189588E085BD85B5C3
:1012E000846085BD14BC8CE783BD89B7806889BFE5
:1012F00008951F920F920FB60F921124C49A0F9067
:101300000FBE0F901F9018951F920F920FB60F925D
:1013100011248F93C4988091CE0082BF8F910F903B
:101320000FBE0F901F901895811104C013BE12BEFE
:10133000C498089590E09595879528E7280F209305
:10134000CE0088589E4F959587958CBF8CE483BFBF
:10135000089589B7836089BF08951F920F920FB6D1
:101360000F9211242F933F938F939F932091D50039
:101370003091D6008091D1009091D200820F931FBE
:101380009093D2008093D1002091D3003091D4006B
:101390008091CF009091D000820F931F9093D00046
:1013A0008093CF002FB7F8948091D1009091D20014
:1013B00035E0969587953A95E1F79BBD8ABD80917A
:1013C000CF009091D00035E0969587953A95E1F75A
:1013D00099BD88BD2FBF8091D1009091D2008F71AF
:1013E00099279093D2008093D1008091CF00909163
:1013F000D0008F7199279093D0008093CF009F9158
:101400008F913F912F910F900FBE0F901F901895C5
:101410009FB7F8948E3039F47093D6006093D5005E
:101420008FB5806808C08D3039F47093D400609314
:10143000D3008FB580628FBD9FBF089580E092E09A
:1014400097BD86BD82E08FBD89E18EBD89B784607E
:1014500089BF08958E3019F48FB58F7704C08D3011
:1014600019F48FB58F7D8FBD08951F920F920FB61F
:101470000F9211242F933F934F938F939F93EF934A
:10148000FF935A991AC04CB18091ED019091EE01F1
:10149000019699272091EF013091F001821793076F
:1014A00069F0E091ED01F091EE01E351FF4F4083CF
:1014B0009093EE018093ED0101C08CB1FF91EF910B
:1014C0009F918F914F913F912F910F900FBE0F9051
:1014D0001F9018951F920F920FB60F9211242F9301
:1014E0003F938F939F93EF93FF932091ED01309162
:1014F000EE018091EF019091F0012817390711F466
:10150000559812C0E091EF01F091F001E351FF4FC7
:1015100020818091EF019091F0010196992790939D
:10152000F0018093EF012CB9FF91EF919F918F9182
:101530003F912F910F900FBE0F901F901895CF9253
:10154000DF92EF92FF92CF93DF93EC016A017B0170
:10155000411581EE580761057105F9F0E885F985B7
:1015600081E090E00C8802C0880F991F0A94E2F78E
:10157000808360E079E08DE390E0A70196010E940E
:10158000433E2150310941095109569547953795F8
:101590002795211580E1380798F0E885F9851082B4
:1015A00060E874E88EE190E0A70196010E94433E56
:1015B000215031094109510956954795379527958D
:1015C000EC81FD813083EE81FF8120831D8AEA85D5
:1015D000FB85408181E090E09C01098802C0220FD8
:1015E000331F0A94E2F7422B4083EA85FB85408152
:1015F0009C010A8802C0220F331F0A94E2F7422B93
:101600004083EA85FB8520810B8802C0880F991FE3
:101610000A94E2F7809582238083DF91CF91FF9037
:10162000EF90DF90CF900895CF93DF93FC018281FC
:101630009381DC01B395EC01CE5FDE4F4D915C915F
:1016400011972881398142175307C1F7A285B385C5
:101650004C9181E090E09C01018802C0220F331F71
:101660000A94E2F7209524232C93A285B3854C910C
:101670009C01028802C0220F331F0A94E2F72095D2
:1016800024232C93A285B3852C91038802C0880F54
:10169000991F0A94E2F7809582238C93808191812F
:1016A000FC01EE5FFE4F20813181FC01F395318317
:1016B0002083DF91CF910895FC018589882329F04B
:1016C000A085B1858C9186FFFBCF158A0895CF93B5
:1016D000DF93FC0122813381D901B3958D919C91D7
:1016E000119701969927E901CE5FDE4F4881598114
:1016F00084179507D9F30D90BC91A02DA20FB31FAD
:101700006C93A281B381B39511969C938E93A2851D
:10171000B3852C9181E090E0038802C0880F991F67
:101720000A94E2F7282B2C9381E0858B0084F185C5
:10173000E02D80818064808381E090E0DF91CF9113
:1017400008958DEE90E09093D8008093D700909309
:10175000DA008093D90080E490E09093DC008093DD
:10176000DB0029E230E03093DE002093DD002BE245
:1017700030E03093E0002093DF002AE230E0309345
:10178000E2002093E1009093E4008093E3008CE278
:1017900090E09093E6008093E50084E08093E7007A
:1017A00083E08093E80087E08093E90085E0809300
:1017B000EA0081E08093EB000895CF93DF931F92BE
:1017C000CDB7DEB7E091D104F091D204309711F497
:1017D000E5EDF4E0CE0101962EEB8E179F0710F099
:1017E0002193FBCF0F90DF91CF910895CF93DF939B
:1017F00000D0CDB7DEB72091D1043091D2042115AD
:10180000310511F425ED34E0CE010196821B930BD6
:101810000F900F90DF91CF910895CF93DF931F9298
:10182000CDB7DEB72091D1043091D2042115310516
:1018300011F425ED34E0F901AE014F5F5F4FCF01A8
:10184000821B930B4E175F0728F060816E3B11F4EB
:101850003196F5CF0F90DF91CF910895009741F029
:10186000EFE9FFE03197F1F700C000000197F6CFF4
:1018700008958436910538F064E670E00E942F3EAA
:10188000CB010C942E0C019728F025E32A95F1F753
:101890000000F9CF08956AE070E00E942F3ECB016E
:1018A0000C94390CE82FF0E0EE0FFF1FEB55FD4FC5
:1018B000808191810895E82FF0E0EE0FFF1FE55A37
:1018C000FD4F8081918108952FB7F894E82FF0E0C3
:1018D000EE0FFF1FE953FD4F808191812FBF0895C7
:1018E00080913303089580910F0290911002089522
:1018F0008091FD019091FE0108958091FF019091EA
:10190000000208958093FA010895E82FF0E0EE0FA9
:10191000FF1FEF5EFD4F80819181089581E08093EC
:1019200031030895262F613110F4423040F021E058
:1019300030E0FC013383228331832083089550E01B
:10194000BA01620F711D620F711D660F771F660F5E
:10195000771F625F7F4F44E050E00C949C3E282F3D
:10196000CA01213188F4623078F470E0620F711D91
:10197000620F711D660F771F660F771F625F7F4FC3
:1019800044E050E00C94BA3E0895FF920F931F93E9
:10199000CF93DF9300D000D0CDB7DEB706E710E0DD
:1019A000F12CF801459155916591749149835A83C1
:1019B0006B837C83AE014F5F5F4F60E08F2D0E9491
:1019C000AF0CF80134964591559165917491498316
:1019D0005A836B837C83AE014F5F5F4F61E08F2D35
:1019E0000E94AF0CF394085F1F4F81E1F812D9CF2A
:1019F00081E00E9420130F900F900F900F90DF91C5
:101A0000CF911F910F91FF90089580912F03909196
:101A100030030C94421581E02091850230918602BA
:101A20002331310509F080E008958091830290917F
:101A30008402089580917F029091800208958091A0
:101A4000890290918A0208958091390290913A0218
:101A5000039750F080913F0290914002039720F04D
:101A600083E090E00C94991A80E008952FB7F894E1
:101A700080E090E0FC01EE0FFF1FEE0FFF1FE7512B
:101A8000FD4F1082118212821382019681319105DD
:101A900089F784E690E090932E0380932D031092B3
:101AA00032032FBF0895CF93CFB7F89410920E0250
:101AB00010920D021092090210920A0210920B026B
:101AC00010920C0210920502109206021092070268
:101AD0001092080210920102109202021092030268
:101AE000109204020E9443379093FC018093FB0103
:101AF000CFBFCF9108950E94530D10920002109213
:101B0000FF011092FE011092FD010895E1E1F2E063
:101B10001192119282E0EB35F807D1F70895CF9337
:101B2000CFB7F89481E090E090932E0380932D033B
:101B300081E0809332030E94860DCFBFCF9108953C
:101B4000CF93DF930E948F0DC0910F02D0911002AE
:101B500080910F0290911002C817D90729F48AE0EA
:101B600090E00E946937F4CFDF91CF9108951092F1
:101B7000330380E00C945806CF93DF9381E00E94FA
:101B8000640CEC0180E00E94640C8C179D0718F433
:101B9000C81BD90B02C0C0E0D0E081E0C93ED340F1
:101BA00008F480E0DF91CF9108958F929F92AF92D9
:101BB000BF92CF92DF92EF92FF92CF93DF93CDB798
:101BC000DEB728970FB6F894DEBF0FBECDBFF82E54
:101BD0005B016115710509F445C040E0682FCE0135
:101BE00005960E94920C41E06F2DCE0101960E9455
:101BF000920C2B813C8140E050E0CF80D884E12CD6
:101C0000F12C2C193D094E095F09B50180E090E0E7
:101C10008D809E80A12CB12C681979098A099B09B5
:101C20000E94133E29813A8140E050E02819390989
:101C30004A095B090E94653E2C0D3D1D4E1D5F1D2E
:101C400057FD0BC02115310581E04807510544F0CF
:101C50002FEF3FEF40E050E003C020E030E0A9016B
:101C6000C90102C080E090E028960FB6F894DEBF6C
:101C70000FBECDBFDF91CF91FF90EF90DF90CF905F
:101C8000BF90AF909F908F9008958F929F92AF9248
:101C9000BF92CF92DF92EF92FF92CF93DF93CDB7B7
:101CA000DEB728970FB6F894DEBF0FBECDBFF82E73
:101CB0005B016115710509F445C040E0682FCE0154
:101CC00005960E94920C41E06F2DCE0101960E9474
:101CD000920C29813A8140E050E0CD80DE80E12CF9
:101CE000F12C2C193D094E095F09B50180E090E007
:101CF0008F809884A12CB12C681979098A099B09D5
:101D00000E94133E2B813C8140E050E028193909A4
:101D10004A095B090E94653E2C0D3D1D4E1D5F1D4D
:101D200057FD0BC02115310581E04807510544F0EE
:101D30002FEF3FEF40E050E003C020E030E0A9018A
:101D4000C90102C080E090E028960FB6F894DEBF8B
:101D50000FBECDBFDF91CF91FF90EF90DF90CF907E
:101D6000BF90AF909F908F9008958250893130F44A
:101D7000E82FF0E0EE58FF4F8081089581E008954C
:101D8000CF93C82F833149F481E0209185023091AF
:101D900086022331310581F412C00E94B50E8130D4
:101DA00069F4EC2FF0E0EE0FFF1FE55AFD4F2081A4
:101DB00031812139314018F480E001C081E0CF91B8
:101DC0000895EF92FF920F931F93CF93DF931F928B
:101DD000CDB7DEB79FE101E010E0E12CF12C892FB7
:101DE00099830E94C00E9981882311F0E02AF12A7C
:101DF000000F111F9F5F953291F7C7010F90DF9180
:101E0000CF911F910F91FF90EF9008951F93CF9363
:101E1000DF931F92CDB7DEB7182F69830E94B50EEE
:101E2000E12FF0E0EE0FFF1FE55AFD4F482F6981CB
:101E3000808191810F90DF91CF911F910C94063A90
:101E40002FB7F8946091F6017091F7018091F80135
:101E50009091F9012FBF2DE730E040E050E00E9463
:101E6000433EBB27A52F942F832F089580912D03E8
:101E700090912E03892B49F080912D0390912E0390
:101E8000019790932E0380932D03089590E0880F7F
:101E9000991FFC01E55AFD4F2081318162177307BC
:101EA00018F4261B370B04C0AB01421B530B9A01DD
:101EB000FC01EF5EFD4F2730310518F011821082D2
:101EC00006C0208131812F5F3F4F31832083FC0189
:101ED000E55AFD4F7183608308958FB7F89410928F
:101EE000F6011092F7011092F8011092F901109288
:101EF000F2011092F3011092F4011092F5018FBFDC
:101F00000E948F0D0E947B0D60E070E089E10E94CD
:101F1000460F60E070E08BE10E94460F60E070E0E9
:101F20008CE10E94460F60E070E08DE10C94460F5A
:101F30001092100210920F020C946D0FCF93DF934A
:101F40001F92CDB7DEB790913303911110C0698312
:101F50000E945806698161110E94980F81E0809368
:101F60003303809366000E94A00D109231030F90FE
:101F7000DF91CF9108950C94980F809133038823BB
:101F800009F44FC04091890250918A028091F60174
:101F90009091F701A091F801B091F901840F951F7C
:101FA000A11DB11D8093F6019093F701A093F80154
:101FB000B093F9018091F10191E0980F9093F101B4
:101FC000883578F120917F0230918002DA010E94F9
:101FD000F23D24E630E040E050E00E94433E809134
:101FE000F2019091F301A091F401B091F501280F55
:101FF000391F4A1F5B1F2093F2013093F301409376
:10200000F4015093F501CA01B90120EA3CE840E02F
:1020100050E00E94433EB9018AE10E94460F1092AF
:10202000F1010895CF92DF92EF92FF920F931F93E9
:10203000CF93DF931F92CDB7DEB7C0905B02D090F5
:102040005C0280915D0290915E028C159D0518F4F2
:10205000C81AD90A02C0C12CD12CB60182E10E9453
:10206000460F0DE612E09FE1F801619171918F0139
:10207000892F99830E94460F99819F5F9532A1F71E
:1020800080913103811106C00E94E10E90933003CC
:1020900080932F03E0902F03F0903003E9E9F2E002
:1020A00080E090E000E010E041E050E09A01082E6E
:1020B00002C0220F331F0A94E2F72E213F21232B67
:1020C00021F020813181020F131F01963296863054
:1020D000910561F7B80183E10E94460F01151105D2
:1020E00081F00C151D0520F4C601801B910B03C067
:1020F000C8018C199D09893B9B4018F4680113E1C4
:1021000003C012E1E12CF12CB60184E10E94460FDC
:10211000B70186E10E94460F612F70E085E10E94C1
:10212000460F0E94200F7C010E948C1D882329F0FD
:1021300000916102109162020BC00E946B248823FF
:1021400029F000915F021091600202C000E010E0EF
:10215000B80187E10E94460FB70189E10E94460F4E
:102160009801D6010E94F23D20E137E240E050E0C4
:102170000E94433EB90188E10F90DF91CF911F91FA
:102180000F91FF90EF90DF90CF900C94460F1F932C
:10219000CF93DF93182FC82FD0E0FE01EE0FFF1F63
:1021A000EE0FFF1FE751FD4F6081718182819381A6
:1021B00028EE33E040E050E00E94433EFE01EE0F87
:1021C000FF1FEB55FD4F31832083B901812F0E9402
:1021D000D50DBC01812FDF91CF911F910C94460F3B
:1021E0004F925F926F927F928F929F92AF92BF9227
:1021F000CF92DF92EF92FF92CF93DF93CDB7DEB70E
:1022000028970FB6F894DEBF0FBECDBF0E944337AC
:102210002091FB013091FC01821B930B8133954788
:1022200008F4A4C04FB7F89420910D0230910E022B
:10223000A8EEB3E00E94F23D6B017C01F694E794B6
:10224000D794C7944090090250900A0260900B0204
:1022500070900C0260910502709106028091070255
:10226000909108028090010290900202A0900302D7
:10227000B09004024FBF6D837E838F8398870E9446
:10228000530D2091FF01309100022F5F3F4F30939B
:1022900000022093FF016D817E818F819885A701C7
:1022A00096010E94433E29833A834B835C83C3019A
:1022B000B201A70196010E94433EB90180E00E944D
:1022C000D50D3C0169817A8181E00E94D50D86158A
:1022D000970518F4681A790A02C0612C712C409095
:1022E0009302509094026414750420F48091FA01D2
:1022F000811104C0B3018CE10E94460FB30164193F
:1023000075098BE10E94460FC501B401A701960132
:102310000E94433EB90187E00E94D50D2091FD0146
:102320003091FE019093FE018093FD01BC01621B80
:10233000730B660F771F8DE10E94460FB6018EE189
:1023400028960FB6F894DEBF0FBECDBFDF91CF91B8
:10235000FF90EF90DF90CF90BF90AF909F908F90C5
:102360007F906F905F904F900C94460F28960FB619
:10237000F894DEBF0FBECDBFDF91CF91FF90EF90FD
:10238000DF90CF90BF90AF909F908F907F906F9095
:102390005F904F900895CF932FB7F89480912D03BD
:1023A00090912E032FBF892B09F091C080913203A9
:1023B00081118AC080913303882309F47EC0809103
:1023C0000F029091100201969093100280930F02D9
:1023D0004091E9025091EA026091EB027091EC02A7
:1023E00076956795579547958091090290910A02D5
:1023F000A0910B02B0910C02840F951FA61FB71F6E
:102400008093090290930A02A0930B02B0930C02EE
:102410004091ED025091EE026091EF027091F00256
:10242000769567955795479580910502909106029C
:10243000A0910702B0910802840F951FA61FB71F35
:102440008093050290930602A0930702B0930802BE
:1024500040910503509106036091070370910803B2
:102460007695679557954795809101029091020264
:10247000A0910302B0910402840F951FA61FB71FFD
:102480008093010290930202A0930302B09304028E
:1024900080910D0290910E02019690930E0280930E
:1024A0000D020E94F010C0E08C2F0E94C710CF5F79
:1024B000C131D1F70E94121007C0809166008823B5
:1024C00019F085E00E94C710CF910C94360DCF9182
:1024D00008950C94CB1160E084E393E00E94182CE3
:1024E00087FD0AC0811102C00C944A2C992787FDF0
:1024F000909501970C94902D08950E9481067894F0
:102500000E9447060E946D090E9405250E94101E28
:102510000E94BB0F0E94DD0B0E94BB140E94F42F8F
:102520000C940D310E947D120E94B5130E946B1213
:10253000FDCF6EE371E084E393E00E94682E8FE8A4
:1025400090E09093350380933403E8E3F3E08081D7
:102550008C5E80830895FC0124812451621710F45D
:102560000C94632E862F821B0C948D18FF920F9370
:102570001F93CF93DF93EC018B0141110E94DB3E4F
:1025800085E0F82EFA9459F0CE010E94B43E8017EF
:10259000910739F084E690E00E945537F3CF81E04F
:1025A00001C080E0DF91CF911F910F91FF900895BE
:1025B000EF92FF920F931F93CF93DF937B018C01D8
:1025C000E80EF91ECFEFDFEF0E151F05A9F0C801C9
:1025D0000E94AC3EC82728E0CE01969587953C2FF7
:1025E000EC0130FF04C031E0C32730EAD32721508B
:1025F00099F70F5F1F4FE8CFCE01DF91CF911F9169
:102600000F91FF90EF900895EF92FF920F931F9319
:10261000CF93DF931F92CDB7DEB78C017B01498347
:102620000E94D8124981BC01C8018E0D9F1D0F90D8
:10263000DF91CF911F910F91FF90EF900C94B61204
:10264000482F68E870E08EE090E00C940413482F67
:1026500060E273E088E990E00C940413482F60E294
:1026600070E08AEB93E00C9404130F931F93CF93C5
:10267000DF93D82F182F1170412F63E678E680E0A2
:1026800090E00E94B612C82F412F6CE679E682E0F6
:1026900090E00E94B6128111C1E0412F61E070E12B
:1026A00084E090E00E94B6128111C1E0412F66E003
:1026B00070E086E090E00E94B6128111C1E0D1FB8B
:1026C000002700F9402F6AE070E088E090E00E9467
:1026D000B6128111C260D2FB112710F9412F63E0BD
:1026E00070E08AE090E00E94B6128111C460D3FBD2
:1026F000DD27D0F94D2F6CE070E08CE090E00E9477
:10270000B6128111C86001110E94C50C80E00E94C0
:1027100020138111C26011110E947B1880E00E9479
:1027200027138111C460D1110E94D41480E00E944B
:102730002E138111C8608C2FDF91CF911F910F91C3
:102740000895CF93C82F0E94CB30C0FDC260C1FD59
:10275000C460C2FDC8600E94E5308C2F0E94351312
:10276000682F8C2FCF910C94E93080E00E943513B4
:10277000882321F00E94A11380E0089581E008954C
:1027800080E00E94351381600C94A113CF930E94C6
:10279000EA2F8CE292E09093B5038093B403C1E0FA
:1027A000C093B3031092AC030E947416823011F4EC
:1027B000C093AC030E94F11C91E0813009F090E0DD
:1027C000892FCF91089561E081E00E94461C88E343
:1027D00092E09093B5038093B403089561E081E0A3
:1027E0000E94461C84E492E09093B5038093B40366
:1027F000089560E082E00E94461C86E292E0909399
:10280000B5038093B403089561E081E00E94461C03
:1028100080E292E09093B5038093B4030895109200
:10282000AC0390E08930910598F5FC01E65DFF4F1F
:102830000C94843E0E947416811102C00C94EE1315
:102840000E947416853029F40C94041481E080935E
:10285000AC030C94E3138AE192E016C00C94F913D4
:102860000E94E313809167039091680365E070E034
:102870000E942F3E7093AE036093AD03089581E0F4
:102880008093AC038EE392E09093B5038093B403FE
:1028900008950E94C71F0C946D0FCF93C82F0E94FC
:1028A00049148C2F0E940F14C73029F0C83059F4F6
:1028B00063E081E005C060918703660F615080E0AE
:1028C000CF910C94F718CF910C94F11C0E94E51D48
:1028D00084EF91E00E94C61D84E690E00E94693773
:1028E0000C94FE1DCF93C82F0E948729882389F15D
:1028F0000E946614C09340038C2F0E940F14109204
:102900003E0310923D0383E080933F030E942F3CDF
:1029100061E081E00E949E0F0E94C613882391F01F
:1029200081E080933F030E94E41F0E94EA2F1092EF
:10293000B30384E00E941F36809140030E944D142F
:102940000E9425200E94B70D0E94453CCF910C9417
:10295000F32FCF910895DC015896ED91FC91599792
:10296000EE0FFF1FEE0FFF1FE659FE4F65917591A9
:1029700085919491089540E250E06AEB73E081E420
:1029800093E00C949C3E40E250E06AEB73E081E4FB
:1029900093E00E94BA3E81E00C942E1340E250E096
:1029A0006AE471E00C948A3E81E493E00E94CE14C4
:1029B0000C94C31480914B0390914C0320914D03D0
:1029C00030914E032817390720F490934E038093DB
:1029D0004D0380914D0390914E038D30974130F01F
:1029E0008CE097E190934E0380934D0380914F03C9
:1029F00090915003209151033091520328173907C9
:102A000020F490935203809351038091510390914D
:102A10005203813D974030F080ED97E09093520350
:102A20008093510308950895FC010994FC01859158
:102A300094910C941415009761F09C0180E0F901C9
:102A4000459154912E5F3F4F452B11F08F5FF7CF8B
:102A5000089580E00895282F81E090E03AE0215029
:102A600038F0AC01349FC001359F900D1124F7CF91
:102A70000895009719F024F081E0089580E008950A
:102A80008FEF089530E120E080FD2F5F96958795C8
:102A90003150D1F7822F0895CF92DF92EF92FF92BB
:102AA000CF9397FF08C090958095709561957F4F63
:102AB0008F4F9F4F07C0611571058105910511F07A
:102AC000C0E001C0C1E05AE0C52ED12CE12CF12CB0
:102AD000611571058105910541F0CF5FA701960150
:102AE0000E94653ECA01B901F3CF8C2FCF91FF90B0
:102AF000EF90DF90CF900895BC0180E090E00C94BF
:102B00004C15CF92DF92EF92FF920F931F93CF93CA
:102B1000DF93EC017B016A01E881F981CF01B80103
:102B20000E942F3E009731F01E141F049CF4081BD6
:102B3000190B03C01E141F0474F4C901801B910BF0
:102B4000E817F90718F40E0F1F1F01C08901198338
:102B500008830DC08C01C8018C0D9D1D8E179F0729
:102B600018F4E01BF10B01C0F601F983E883DF9153
:102B7000CF911F910F91FF90EF90DF90CF9008952C
:102B8000AF92BF92CF92DF92EF92FF920F931F937B
:102B9000CF93DF93EC017B016A0159016881798150
:102BA000F7FE02C06150710980E090E00E944C1570
:102BB000823020F082500E942B1502C081E090E00C
:102BC0008C019501A601B701CE010E948115DF910C
:102BD000CF911F910F91FF90EF90DF90CF90BF901A
:102BE000AF9008952FEF3FEF40E050E00C94C015F8
:102BF0000E948C378111FCCF0E948C378823E1F32F
:102C00000895CF93C6E00E948C37811104C0C15053
:102C1000D1F780E001C081E0CF9108952091610358
:102C20003091620395E0929FF001939FF00D112483
:102C3000E80FF11DEE0FFF1FE258FE4F85919491B2
:102C400008951F93CF93DF93182FC0916503D09100
:102C500066030E940E169C01123061F4809161039C
:102C600090916203029731F4C730D10518F0219793
:102C700020EB34E02C9FC0012D9F900D3C9F900DC8
:102C80001124DF91CF911F9108951F93CF93DF936C
:102C9000182FC0916503D09166030E940E1623E0A1
:102CA00020938903113029F480916B0390916C0378
:102CB00006C0123039F480916D0390916E03109329
:102CC000890306C0133021F480917F039091800323
:102CD0009C012C9FC0012D9F900D3C9F900D1124B5
:102CE000DF91CF911F910895E0916103F09162030C
:102CF000EA50FE4F84910895CF93DF9300D000D027
:102D0000CDB7DEB7A0916303B091640320917D033A
:102D100030917E030E94F23D24E630E040E050E036
:102D20000E94433E293E8DEF38074105510550F47E
:102D300029833A834B835C830E94741629813A81EC
:102D4000853021F428EE3DEF40E050E0C9010F90BE
:102D50000F900F900F90DF91CF91089520918103F4
:102D6000309182038091650390916603AC01249FAA
:102D7000C001259F900D349F900D1124089582E08D
:102D80000E942116BC0180E49FE10E941E1920913F
:102D90004D0330914E032817390708F4C9010895EF
:102DA00082E00E942116BC0188EE93E00E941E1969
:102DB00020915103309152032817390708F4C901B3
:102DC000089580916103909162030A97029750F0F1
:102DD00081E00E940E16BC0188E799E60E942F3E12
:102DE000CB01089581E090E0089580916303909174
:102DF00064038436910530F484E690E09093640394
:102E0000809363038091630390916403893E9D4F97
:102E100030F088EE9DEF909364038093630380917C
:102E2000730390917403893E934030F088EE93E0F1
:102E300090937403809373030E94E11620916503BD
:102E4000309166038217930720F490936603809372
:102E500065038091650390916603892B31F481E0CD
:102E600090E090936603809365030E94BF162091C3
:102E70006703309168038217930720F490936803E7
:102E800080936703809167039091680320916F039B
:102E9000309170038217930720F49093700380930E
:102EA0006F030E94D0162091690330916A03821744
:102EB000930720F490936A03809369032091690338
:102EC00030916A038091710390917203281739073A
:102ED00020F4309372032093710380914B039091FF
:102EE0004C0340916703509168034817590720F439
:102EF000909368038093670340916F035091700330
:102F00004817590720F49093700380936F038091C2
:102F10004F03909150032817390720F490936A03C8
:102F20008093690320917103309172032817390748
:102F300020F49093720380937103089598E2899F1F
:102F4000B001112468567F4F48E250E081E693E0DB
:102F50000E949C3E0C94F51698E2899FB0011124C2
:102F600068567F4F48E250E081E693E00E94BA3E07
:102F700081E00C9427130E94F516809167039091CD
:102F8000680324E0969587952A95E1F7909370035E
:102F900080936F0308950E94F516809169039091C4
:102FA0006A0334E0969587953A95E1F7909372031A
:102FB0008093710308950E94F516809163039091A8
:102FC0006403969587959093680380936703209197
:102FD0006103309162032330310531F49695879572
:102FE00090936803809367038091670390916803CF
:102FF00090936A03809369030E94BB170C94CB17CC
:1030000081E00E940E1690936C0380936B0382E024
:103010000E940E1690936E0380936D03809161035E
:1030200090916203892B61F580ED97E090936403A2
:103030008093630383E090E090936603809365033D
:1030400088EE93E090937403809373031092760359
:103050001092750380E797E190937803809377034C
:1030600010927A03109279038EE190E090937C03A2
:1030700080937B0388E790E090937E0380937D03A9
:103080000E947416811128C081E090E09093800323
:1030900080937F038091610390916203029719F4FA
:1030A0008BEF9FEF02C081EF9FEF9093820380939D
:1030B000810383E090E0909384038093830384E60C
:1030C00090E0909386038093850382E090E0909354
:1030D0008803809387030DC088E090E0909382037B
:1030E0008093810383E00E940E1690938003809367
:1030F0007F030C94DB17CF9310926203109261034D
:103100000E940018C0E08C2F0E94AC17CF5FC43122
:10311000D1F781E0CF910C942713CF93C82F0E9451
:103120009E172091610330916203232B21F00E94AE
:1031300007340E94C03820916103309162032A3025
:10314000310571F02B30310569F0232BC1F48C2F40
:1031500090E001960E9460388AE3CF910C94373852
:1031600089E00AC065E080916703909168030E943E
:103170008F3A0E94C03884E0CF910C94C93367E045
:1031800080916303909164030E948C3A8FE20E94C5
:1031900037388091650390916603CF910C94603825
:1031A000BC0187E693E00E94F2150C94F516BC0171
:1031B00089E693E00E94F2150C94F5162FEF3FEF8D
:1031C00041E050E0BC0183E793E00E94C0150C94FD
:1031D000F51680917B0390917C030E94D01E82E3C0
:1031E00092E09093B5038093B4030C94F11CCF93B9
:1031F000C62F91E09093B30380938A0380918A0352
:103200008C1302C01092B30380FF02C080E001C0A3
:1032100083E00E944D14813079F49091B303992397
:1032200059F080918A038F5F80938A030E9449142A
:103230000E94E918813011F3CF910895AB019C01F0
:10324000A8EEB3E00E94F23D9A0140E050E00E94F7
:10325000433EA8EEB3E00E94083E24E630E040E0A2
:1032600050E00E94433E2115310581E04807510599
:1032700020F02FEF3FEF40E050E0C901089580912A
:10328000A9039091AA03892B99F40E94700C8823BA
:1032900081F00E94730C20918B0330918C03821B70
:1032A000930B9C0181E02330310518F080E00895F4
:1032B00081E00895815E0C945B0CDF92EF92FF92A7
:1032C0000F931F93CF93DF93C0E0D0E00FEF1FEF7A
:1032D000DD24DA94EE24E394F12C97018C2F0C2E4C
:1032E00002C0220F331F0A94E2F740912F0350913E
:1032F000300324233523232B39F00E945A198017D9
:10330000910710F4DC2E8C012196C630D10529F7E7
:103310008D2DDF91CF911F910F91FF90EF90DF9056
:103320000895CF93DF932091A9033091AA03232B13
:1033300021F4DF91CF910C945A1990918F03C82FEB
:10334000D0E0992391F00E945A19CC0FDD1FFE01A5
:10335000E057FC4FC456DC4F2081318148815981B0
:10336000241B350B280F391F07C0FE01EE0FFF1F6E
:10337000E057FC4F20813181C901DF91CF91089541
:10338000CF92DF92EF92FF920F931F93CF93DF9331
:10339000C0E0D0E0E12CF12C0FEF1FEFCC24C39460
:1033A000D12CC6010C2E02C0880F991F0A94E2F797
:1033B00020912F033091300382239323892B59F0DE
:1033C0008C2F0E949119E816F90608F47C018017E9
:1033D000910708F48C012196C630D10511F7E01A47
:1033E000F10A81E020918103309182032E153F057F
:1033F00008F080E0DF91CF911F910F91FF90EF9047
:10340000DF90CF900895CF93DF93EC018091A903D3
:103410009091AA03892B41F0209731F40E94730CFC
:1034200090938C0380938B03D093AA03C093A9033A
:103430000E94860D8091A803811105C08C2FDF9119
:10344000CF910C946206DF91CF910895FF920F9374
:103450001F93CF93DF9381E00E9437060CE913E0BE
:10346000C0E9D3E0F12C8F2D0E945A19F801819305
:1034700091938F0189939993F394F6E0FF12F3CF20
:103480001092AA031092A9031092A80380E090E082
:103490000E94031A10928C0310928B038FEF80937B
:1034A000AB03DF91CF911F910F91FF90089580E0C2
:1034B00090E00E94031A81E08093A80308950E947F
:1034C000571A80E00C943706DF92EF92FF920F9329
:1034D0001F93CF93DF938091AB0387FD20C00E94A1
:1034E00091197C01D12C01E010E0C0E0D0E02091E6
:1034F0002F033091300320233123232B41F08D2DD6
:103500000E949119E816F90610F4C02BD12B000F78
:10351000111FD39486E0D812EACFCE0102C080E01A
:1035200090E0DF91CF911F910F91FF90EF90DF908E
:103530000895EF92FF920F931F93CF93DF938C0127
:10354000C0E0D0E0EE24E394F12C97010C2E02C0F1
:10355000220F331F0A94E2F780912F0390913003DA
:1035600028233923232B31F42196C630D10569F75E
:1035700081E008C08C2F815E0E94850C8017910726
:1035800098F780E0DF91CF911F910F91FF90EF901E
:1035900008957F928F929F92AF92BF92CF92DF92C7
:1035A000EF92FF920F931F93CF93DF9386E090E00B
:1035B0000E94991A882309F478C00E94240D882358
:1035C00009F473C08091AB0387FF04C00E945D19AA
:1035D0008093AB038091AB030E945A196C01A090B9
:1035E0006D03B0906E0360E9E62E63E0F62E0CE901
:1035F00013E0C0E0D0E07724739488248394912C66
:10360000C4010C2E02C0880F991F0A94E2F7209182
:103610002F033091300382239323892B81F08C2F49
:103620000E945A198A159B05A0F0C816D90608F4FD
:10363000712CF70191838083F80191838083219617
:10364000F2E0EF0EF11C0E5F1F4FC630D105C1F640
:1036500002C07724739410928F030E944B3790938B
:103660008E0380938D03772079F0DF91CF911F91A6
:103670000F91FF90EF90DF90CF90BF90AF909F9011
:103680008F907F900C94571A0E94641ADF91CF910B
:103690001F910F91FF90EF90DF90CF90BF90AF9070
:1036A0009F908F907F900C94031ADF91CF911F9180
:1036B0000F91FF90EF90DF90CF90BF90AF909F90D1
:1036C0008F907F9008951F93CF93DF9380918F0306
:1036D00081110EC081E080938F03CCE9D3E010E02C
:1036E000812F0E945A19899399931F5F1630C1F751
:1036F000DF91CF911F9108950E944B3720918D0348
:1037000030918E03821B930B08958091A9039091B1
:10371000AA03892B19F40E94C91A0AC00E94631BCC
:103720000E947C1B409720F080E090E00E94031AEA
:103730000E943F19882311F082E008958091A80328
:103740008823D1F381E00895EF92FF920F931F93A6
:10375000CF93DF938C01C0E0D0E0EE24E394F12C12
:1037600097010C2E02C0220F331F0A94E2F78091BA
:103770002F039091300328233923232B31F42196F2
:10378000C630D10569F780E007C08C2F0E949119DF
:1037900080179107A0F381E0DF91CF911F910F91E6
:1037A000FF90EF900895EF92FF920F931F93CF93A6
:1037B000DF938C01C0E0D0E0EE24E394F12C97017C
:1037C0000C2E02C0220F331F0A94E2F780912F03C0
:1037D0009091300328233923232B31F42196C630CE
:1037E000D10569F780E007C08C2F0E949119081756
:1037F0001907A0F381E0DF91CF911F910F91FF9006
:10380000EF900895CF93DF93EC010E94050D88237C
:1038100039F0682F70E0CE010E942F3ECB0102C02C
:1038200080E090E0DF91CF9108950E94D82481E05C
:103830000E94D5218091AD039091AE030C94A324F6
:103840000C94EF240E94240D882321F00E947C24F4
:103850000C948A2208950E94221C0E94150D20912A
:10386000B1033091B2032817390740F48EE599E08F
:1038700090933E0380933D0380E008958091AF03D1
:103880009091B0030E94A32482E00895CF93DF9328
:103890001F92CDB7DEB7882341F069830E94451699
:1038A0009093B2038093B1036981662369F080919C
:1038B0006703909168039093B0038093AF03809166
:1038C0006F03909170030CC08091690390916A031B
:1038D0009093B0038093AF03809171039091720332
:1038E0009093AE038093AD030F90DF91CF91089535
:1038F0008091B4039091B5030C9416158091B40394
:103900009091B50302960C9416150E947E1C0E949D
:1039100025200C943338CF93DF930E944B37EC0172
:103920000E944B378C1B9D0B853B910510F00E942C
:10393000B70D0E948C37882399F3DF91CF910C94B7
:103940001436CF93DF930E94851C0E944B37EC0105
:1039500085E00E941F360E94B70D93980E94343074
:103960000E94011681110FC00E949B310E94011616
:10397000811109C00E944B378C1B9D0B853B910523
:1039800068F3939AEBCF0E94143660E081E0DF91F8
:10399000CF910C949E0F0E94851C0E94B70D0E942F
:1039A000383086E00E941F360C948B1CE091B403E3
:1039B000F091B503349685919491FC01099481119D
:1039C00003C00E94CB1C0BC0813039F48091B3033B
:1039D000811105C00E94A11C02C081E0089580E011
:1039E00008950F931F93CF93DF93109274040E9456
:1039F000781C02E0C0E0D0E011E00E948C37809398
:103A000074040E945D30112379F00E946520082F14
:103A10000E94DF1C182F882339F00E94730CC817EE
:103A2000D90791F4111107C08091B303882311F0D5
:103A3000011114C010E0809174048130F1F60E94ED
:103A400089378230D0F20AC00E94730CEC010E94C8
:103A5000D61C082F0E94DF1C182FE4CF0E947E1C6A
:103A6000802FDF91CF911F910F9108950E94FE1D2D
:103A70000C945F1A0E94E51D0E94261A21E0809195
:103A8000790390917A03892B09F420E02093B603FF
:103A900080E00C94D5211F93CF93DF93C091B103A5
:103AA000D091B203CE010E94021C0E94D31B182F9A
:103AB0000E943F19811109C0111107C00E94150D04
:103AC00011E0C817D90708F410E0812FDF91CF91DA
:103AD0001F9108951F93CF93DF930E944B1D182FC2
:103AE0000E949D1DEC018091B603882329F0BE0140
:103AF000812F0E94392201C0812F811108C0BE018F
:103B0000812F0E949A230E94C61D82E001C081E09D
:103B1000DF91CF911F9108958091BD03089581E0B9
:103B20002091BB033091BC03232B09F480E008955E
:103B30008091BB039091BC0308958091B70390914D
:103B4000B80308950E941A0D009711F481E090E0E7
:103B5000BC018091B9039091BA030E941E19209173
:103B60005103309152032817390708F4C901089509
:103B7000813020E4920710F080E090E49093BC0341
:103B80008093BB030E94D0070C948F0DCF93DF93DB
:103B9000EC010E94A21DBC01C817D90708F4BE01A0
:103BA0008091B7039091B8038617970759F07093E7
:103BB000B8036093B70380E10E94450EDF91CF9177
:103BC0000C94B81DDF91CF9108958091BD038111B0
:103BD00014C080E090E00E94B81D1092B8031092CB
:103BE000B70381E00E94210781E08093BD0388EE46
:103BF00093E09093BA038093B90308958091BD0335
:103C0000882369F080E090E00E94B81D1092B8030C
:103C10001092B70380E00E9421071092BD0308951F
:103C200081E08093BD030C94FE1D87E080937A04AD
:103C300082E080937B040E94183683E08093BE0369
:103C400008958FEF80937A040C941436FF920F93AB
:103C50001F93CF93DF930E94050DF82E8091AC0344
:103C6000882369F08091650301E08F1101C000E0B5
:103C700011E0F11010E0813021F4112311F010E077
:103C800000E00E940B0D882309F457C083E10E94D5
:103C90005B0CEC0182E10E945B0CC817D90728F489
:103CA0009C012C1B3D0BE90102C0C81BD90BC53F71
:103CB000D14008F442C0C1E0011102C087E001C058
:103CC00083E080937A04112329F080917A04825052
:103CD00080937A04CC2329F080917A0481508093D8
:103CE0007A04011104C0111102C0CC2331F081E02B
:103CF0000E941F36111106C003C00E94143604C072
:103D0000002311F0F11002C0D0E001C0D1E00E9408
:103D10007F37811102C01092BE03D11106C0C111BC
:103D200004C00E947F37883051F08091BE038230FA
:103D300011F481E00AC082E008C0C0E0BDCF8091EC
:103D4000BE038F5F8093BE03F0CFDF91CF911F91B1
:103D50000F91FF9008951092C30308950E944B376E
:103D60009093C2038093C10308950E944B37209122
:103D7000C1033091C203821B930B2091BF0330918A
:103D8000C0032817390728F081E08093C30382E03D
:103D900008951092C30381E008958091C3030895AC
:103DA0002CE3AC01249FC001259F900D112490931A
:103DB000C0038093BF0308950E94261A0E94D8244E
:103DC00081E00C94D5210E94EF240C945F1A1F937C
:103DD000CF93DF93C091B103D091B203CE010E9483
:103DE000021C0E94A41B182F0E943F19811109C0B8
:103DF000111107C00E94150D11E08C179D0708F4E2
:103E000010E0812FDF91CF911F9108951F93CF93E1
:103E1000DF930E94E71E182F0E947C24EC01BC0156
:103E2000812F0E943922811108C0BE01812F0E947A
:103E30009A230E94A32482E001C081E0DF91CF9108
:103E40001F9108958091D2039091D3032091D503BF
:103E5000222341F00E944B372091D2033091D303AB
:103E6000821B930B08956091CE037091CF038091D4
:103E7000D0039091D10328EE33E040E050E00E945F
:103E8000433EC90108956091CA037091CB038091AC
:103E9000CC039091CD0328EE33E040E050E00E9447
:103EA000433EC90108950F931F93CF93DF9381E0A1
:103EB0000E9445168C0184E00E944516EC0184E1C5
:103EC0000E945B0C80179107B8F4C817D907B0F4AB
:103ED0009C012C1B3D0BC8018C1B9D0B64E670E004
:103EE0000E942F3EC9010E942F3E6436710510F0DA
:103EF00063E670E0862F03C083E601C080E0DF91B7
:103F0000CF911F910F910895CF93DF930E94531F7C
:103F10009091D4039817E0F48093D4030E94221F59
:103F20002091D7033091D803EC01C21BD30B0E9420
:103F3000221F9093D8038093D7038091D903909147
:103F4000DA038C179D0720F4D093DA03C093D903CA
:103F5000DF91CF9108950E94841F8091D60388231A
:103F600011F089E601C084E690E02091D403821B21
:103F700091092091D9033091DA03AC01429FC0012D
:103F8000439F900D529F900D1124089508950E9413
:103F9000531F8093D4031092D8031092D70310922A
:103FA000DA031092D9031092CE031092CF0310922D
:103FB000D0031092D1031092CA031092CB03109237
:103FC000CC031092CD030895CF93DF9360E971E0A5
:103FD00080E00E94450E9093C9038093C80381E05E
:103FE0000E944516EC01C854D44FC93729E6D207C0
:103FF00010F0C8E7D9E6CE010E940107BE0180E0BB
:104000000E94450E813C2FEF920710F080EC9FEF4D
:104010009093C7038093C6030E940B0D8093D60331
:104020000E947C169093C5038093C4030E944B3773
:104030009093D3038093D2030E94C71F81E08093A3
:10404000D503DF91CF910C948E0C0E94221F909388
:10405000D3038093D2031092D50308950E946E2457
:1040600081111DC00E948F1D811119C00E943F192E
:10407000882351F18091CE039091CF03A091D0037A
:10408000B091D10380599F4FAF4FBF4F8093CE0364
:104090009093CF03A093D003B093D1030895809160
:1040A000CA039091CB03A091CC03B091CD0380596A
:1040B0009F4FAF4FBF4F8093CA039093CB03A09302
:1040C000CC03B093CD03D2CF0895CF93DF938091EB
:1040D000D503811102C082E0C9C080E00E94640C57
:1040E0002091C6033091C7038217930758F420919B
:1040F000C8033091C90382179307A8F40E948C1D4E
:10410000882389F00E947416823009F087C080915C
:10411000650390916603029709F080C00E940B0D21
:1041200081117CC07EC0C091D6030E940B0DC817C0
:1041300019F08CE99BE095C0C091AF03D091B0031A
:10414000C851DC4F0E941F0DC817D90718F481E928
:104150009BE087C086E00E945B0C20915303309166
:1041600054038217930718F482E89BE07AC089E130
:104170000E945B0CC091C403D091C503C83E2DEFD3
:10418000D207D9F08C179D07C0F00E947C16C81783
:10419000D90709F04EC00E947416811160C0809149
:1041A00063039091640360916703709168030E94B8
:1041B0002F3E6A307105E8F552C0C0917303D0916B
:1041C0007403C83E83E0D807A0F46091CA037091DD
:1041D000CB038091CC039091CD0320E63AEE40E0F2
:1041E00050E00E94433E2C173D0718F087E69BE005
:1041F0001AC08091750390917603892B09F46BCFD7
:1042000087E00E945B0C2091770330917803281798
:10421000390708F060CF87E59BE023C08BEA9BE07D
:1042200020C08BEA9BE090933E0380933D0381E0A6
:104230001DC0C091C403D091C5030E947C168C1789
:104240009D0730F482E79BE090933E0380933D030B
:104250000E947C169093C5038093C403E8CF82E745
:104260009BE090933E0380933D0380E0DF91CF91EC
:1042700008950E94E31E0E94361D0C945F1ACF938E
:10428000DF931F92CDB7DEB78091DB03882329F03F
:10429000813031F40E946A1D0CC00E94061F09C0C3
:1042A0000E94851B823089F089830E94392189818F
:1042B0000CC0813051F49091AC03992331F082E02D
:1042C0008093DB030E94261A82E00F90DF91CF914A
:1042D0000895CF93DF930E94261A61E083E00E9445
:1042E000461CC091B103D091B2030E94050D81110B
:1042F00006C00E94150DC817D90740F40CC0CE01A6
:104300000E94021C0E94D31B882329F00E94DC1EFD
:104310001092DB030BC060E083E00E94461C0E9409
:104320003A1D81E08093B6038093DB03DF91CF9148
:1043300008958091DC03813029F48091AD03909140
:10434000AE03089580E090E008952CE0829FC001C4
:10435000112488519C4F0C94162580E394E00C9412
:104360001625CF93DF9300D000D0CDB7DEB782E122
:104370000E945B0C9A83898384E10E945B0C2981F3
:104380003A81281B390B3A83298387E10E945B0C11
:104390009C838B83CE0101960E9416250F900F906F
:1043A0000F900F90DF91CF910895AF92BF92CF926F
:1043B000DF92EF92FF920F931F93CF93DF93182F0B
:1043C00081E08093DC030E94150DBC012091AD03B8
:1043D0003091AE034091B1035091B203012F88E2B6
:1043E00094E00E9431258091B1039091B2030E9424
:1043F000021C6C0180EEE82E83E0F82EC0E0D0E0D5
:10440000AA24A394B12C95010C2E02C0220F331FB5
:104410000A94E2F780912F039091300328233923E7
:10442000232B69F08C2F0E949119BC012091AD03C0
:104430003091AE03012FA601C7010E9431252196BC
:104440008CE0E80EF11CC630D105E9F61092360476
:104450001092DF031092350410923404DF91CF9153
:104460001F910F91FF90EF90DF90CF90BF90AF9092
:1044700008951F93CF93DF93182FEB018091AC0326
:10448000882361F1112349F080913604811105C020
:104490000E94571A81E08093360480913604882365
:1044A00011F08530D9F42091AD033091AE03203A5C
:1044B000310510F420EA30E02C173D0710F410927B
:1044C000A8030E94851B8093DC038130F1F40E94D5
:1044D000C019882319F08FEF8093AB030E949921B4
:1044E0008C179D0780F0112371F080913604853080
:1044F00051F49091DF0381E0890F8093DF0381E025
:104500009A3020F402C01092DF0380E0DF91CF9157
:104510001F910895CF92DF92EF92FF920F931F9316
:10452000CF93DF937C010E94150DA701BC0188E2A7
:1045300094E00E94F32500EE13E0C0E0D0E0CC242C
:10454000C394D12C96010C2E02C0220F331F0A9463
:10455000E2F780912F039091300328233923232BF6
:1045600041F08C2F0E949119A701BC01C8010E9443
:10457000F3252196045F1F4FC630D10519F7DF914F
:10458000CF911F910F91FF90EF90DF90CF90089502
:10459000AF92BF92CF92DF92EF92FF920F931F9351
:1045A000CF93DF936091B1037091B20388E294E0FE
:1045B0000E9456257C018091B1039091B2030E9424
:1045C000021C6C0100EE13E0C0E0D0E0AA24A3942A
:1045D000B12C95010C2E02C0220F331F0A94E2F772
:1045E00080912F039091300328233923232B61F0EE
:1045F000B601C8010E945625E816F90628F0B60152
:10460000C8010E9456257C012196045F1F4FC630C9
:10461000D105F9F6C701DF91CF911F910F91FF905E
:10462000EF90DF90CF90BF90AF9008950F931F93BE
:10463000CF93DF93EB012091AF033091B0038C0156
:104640002817390708F489010E9499219C018017D5
:10465000910708F49801C217D307E1F0409136049E
:104660004530D1F42C173D07B8F082179307A0F41A
:104670008091AD039091AE038C179D0758F0409147
:10468000DD035091DE0380918B0390918C034817DA
:10469000590711F4CE0109C080918B0390918C03CE
:1046A0009093DE038093DD03C901DF91CF911F91C9
:1046B0000F910895CF92DF92EF92FF920F931F9385
:1046C000CF93DF937C010E94150D90932904809372
:1046D0002804F0922B04E0922A0400EE13E0C0E0DC
:1046E000D0E0CC24C394D12C96010C2E02C0220F12
:1046F000331F0A94E2F780912F039091300328230F
:104700003923232B41F08C2F0E949119F8019183BA
:104710008083F382E2822196045F1F4FC630D10569
:1047200019F7DF91CF911F910F91FF90EF90DF90DC
:10473000CF9008951F93CF93DF93182FEB010E9422
:10474000240D811108C01123E1F12091340430912E
:104750003504232BB1F10E943F19811132C0CE01E3
:104760000E948A22CE010E945A230E94C8228C17DE
:104770009D0708F048C09C012C0F3D1F36952795DA
:104780003093350420933404BE0180913404909119
:1047900035040E941623909335048093340490913D
:1047A0003604923009F1A8F49923C1F0913039F51B
:1047B000112339F083E0809336041092350410926F
:1047C00034048091340490913504DF91CF911F918E
:1047D0000895933061F0943081F011C0112389F372
:1047E0000E94571A81E00CC010923604EACF109252
:1047F00035041092340484E003C0112311F385E0E2
:1048000080933604DECF9093350480933404BCCF7C
:104810000C94151CCF93DF930E94221C0E94150D4F
:10482000EC0182E00E9445168C179D0730F48091C0
:10483000AF039091B0030E94A3248091B1039091A3
:10484000B2038C179D0718F48EE599E03AC00E94D8
:104850007D0C0297E0F18091750390917603892B8E
:1048600069F08DE10E945B0C2091850330918603F5
:10487000281739071CF484E599E023C00E947D0CB9
:104880002091830330918403220F331FC1E08217EC
:10489000930708F4C0E08C2F0E94820CCC23B9F05F
:1048A00080917F0390918003892B89F08BE10E9496
:1048B0005B0CEC010E94AE16C817D90744F48AE5D8
:1048C00099E090933E0380933D0381E001C082E034
:1048D000DF91CF91089580913B04089581E020916C
:1048E000390430913A04232B09F480E00895809133
:1048F000390490913A0408958091370490913804D6
:1049000008950E941A0D009711F481E090E0BC0117
:1049100080E49FE10E941E1920914D0330914E03C7
:104920002817390708F4C9010895893E2DEF920729
:1049300010F088EE9DEF90933A04809339040E9422
:1049400019070C948F0DCF93DF93EC010E94812403
:10495000BC01C817D90708F4BE01809137049091B3
:1049600038046817790750F49C01261B370B2D3843
:10497000310568F0BC016C58710909C09B01281B06
:10498000390B2D38310518F0BC0164577F4F86175D
:10499000970759F070933804609337048FE00E94B2
:1049A000450EDF91CF910C949524DF91CF9108951E
:1049B00080913B04811112C010923A041092390484
:1049C000109238041092370480E090E00E94952401
:1049D00081E00E942A0781E080933B040895809142
:1049E0003B04882389F080E090E00E949524109297
:1049F0003A0410923904109238041092370480E07F
:104A00000E942A0710923B04089510923A041092D3
:104A10003904109238041092370480E090E00E942C
:104A2000952481E080933B040C94EF24FC014281A7
:104A300053814115510591F0A081B181B7FF03C0A9
:104A4000B195A195B10928EE33E00E94013E9A018B
:104A500040E050E00E94433EC901089580E090E0AC
:104A600008950F93FC01CB01002341F0461757072F
:104A700008F4CA016417750748F407C0641775077E
:104A800008F4CA014617570708F4BA0197838683CA
:104A90009183808313821282158214823387228746
:104AA000681B790B718760870F910895CF93DF930F
:104AB000EC0188819981AA85BB85E885F9853097C5
:104AC00001F19B0140E050E0281B390B41095109DD
:104AD0000E94083E9F01442737FD4095542F0E94B5
:104AE000653E8A819B81280F391F411D511D21156B
:104AF000310581E04807510524F457FD05C0C9017F
:104B000005C08FEF9FEF02C080E090E0DF91CF9172
:104B10000895DF92EF92FF920F931F93CF93DF934D
:104B2000EC012A813B812417350720F4FA01E21BAE
:104B3000F30B03C0F901E41BF50B8C819D81969565
:104B400087958E179F0710F5E880F98024173507A1
:104B500040F48A01021B130BCB018E199F097C01C3
:104B600005C0E61AF70A8901041B150BC7010E944C
:104B70003915D82E888599850E943915D81206C016
:104B80001D830C83F986E8861B870A87DF91CF9106
:104B90001F910F91FF90EF90DF9008950F931F9357
:104BA000CF93DF93EC018B019A01A885B9850E9410
:104BB000013E2A853B8540E050E00E94653EC801E9
:104BC000A0E0B0E082179307A407B5071CF41F828A
:104BD0001E8204C0021B130B1F830E83DF91CF9133
:104BE0001F910F910895EF92FF920F931F93CF9310
:104BF000DF93EC018B017A010E948925A701B8019E
:104C0000CE01DF91CF911F910F91FF90EF900C9407
:104C1000CE250F931F93CF93DF9300D000D0CDB755
:104C2000DEB780E00E94520C9A83898381E00E9463
:104C3000520C29813A81281B390B3A83298383E15D
:104C40000E945B0C9C838B830CE314E0AE014F5FEE
:104C50005F4FF801608180E00E94AF0CAE014F5FB2
:104C60005F4FF801608181E00E94AF0C0F900F90C0
:104C70000F900F90DF91CF911F910F910895CF93D7
:104C8000DF93D82F68E379E08CE499E00E94093043
:104C9000C0E082E10E94C00E8823B1F00E94050DA1
:104CA00091E0811101C090E0D917A1F0C1110CC0B1
:104CB0006AE279E0DD2319F08CE499E002C081E436
:104CC00099E00E940930C1E00E948C37813009F7D9
:104CD00080E001C081E0DF91CF910895CF93DF9311
:104CE00000D000D0CDB7DEB7862F5A8349833C83EE
:104CF0002B83AE014F5F5F4F60913C040E94AF0C6D
:104D00000F900F900F900F90DF91CF910895FF9229
:104D10000F931F93CF93DF93F82E162F042F83E06A
:104D20000E941F36812F0E945B0CEC010E944F3CB9
:104D3000802F0E94520CAC019E01602F812F0E9497
:104D40006E26FF2049F081E0809333030E94A00D7E
:104D50000E944F3C0E94092681E0DF91CF911F9174
:104D60000F91FF900C942013AF92BF92CF92DF92DD
:104D7000EF92FF920F931F93CF93DF93CDB7DEB7E0
:104D800061970FB6F894DEBF0FBECDBF8C017B01DB
:104D90006A0160E070E0CE0101960E94682E8FEFFC
:104DA0008A878DE990E09A8389831D870C878FEF2E
:104DB0009FE79F878E87198A188A6FEF7FE7CE015A
:104DC00001960E94772A61E0CE0101960E94182C7C
:104DD000082F87FD38C0682FCE0101960E94652AF2
:104DE000B82E80FDF0CF81FF29C0112707FD109557
:104DF000F701E00FF11FA4908A2D0E94C00E8823B6
:104E000011F30E94A00D1092330310926600CE01A0
:104E100001960E942C2B882359F0F601E00FF11F18
:104E200044916A2D8B2D881F8827881F0E94872612
:104E300081E08093330380936600C5CFCE01019655
:104E40000E942C2BC0CF61960FB6F894DEBF0FBE28
:104E5000CDBFDF91CF911F910F91FF90EF90DF9029
:104E6000CF90BF90AF90089581E090E090933D0483
:104E700080933C040E94661461E081E00E949E0FD2
:104E800081E00E943F26882349F020E047E553E077
:104E90006EE573E08DEB92E00E94B4260C94B70DA2
:104EA00081E090E090933D0480933C040E9466145E
:104EB00061E080E00E949E0F1092680020E043E8CD
:104EC00052E0BA0185E892E00E94B42681E0809326
:104ED00068000C94B70D8F3019F4CB010C94952415
:104EE000CB010C94B81DEF92FF920F931F93CF93B9
:104EF000DF9300D0CDB7DEB77C01443019F06FEFFF
:104F00007FEF02C061E070E069837A830E9482379C
:104F1000082F10E0F7012089318941E050E06981D4
:104F20007A81C7010E960E948115F7016685778503
:104F300083850F900F90DF91CF911F910F91FF907C
:104F4000EF900C946B27AF92BF92CF92DF92EF92CB
:104F5000FF920F931F93CF93DF93CDB7DEB76A977E
:104F60000FB6F894DEBF0FBECDBFA82EB62E8A01B5
:104F70000E94661461E081E00E949E0F80E00E9422
:104F80003F26882309F47CC0AA2079F00E94D82407
:104F900088E799E60E94010732E0C32E4FE0D42E45
:104FA00058EEE52E5DEFF52E09C00E94E51D83E069
:104FB000C82E90E1D92EE12C20E4F22E4B2D6D2D40
:104FC000CE0147960E94920C4B2D6C2DCE0143963C
:104FD0000E94920C65E673E0CE0101960E94682E55
:104FE0008FEF8A8725E930E03A832983DC86CD86F6
:104FF000BE86FA8AE98A2F89388D388B2F8761E03F
:10500000CE0101960E94182C87FD22C08111F3CF9A
:105010006F8578898D2D0E946B27CE0101960E94A5
:105020002C2B882379F00E94A00D1A8F098F2F85D1
:105030003889388F2F8B1E8B0D8B8C2D0E94520C34
:105040009C8B8B8B60E070E08D2D0E946B27D3CF03
:10505000AA2019F00E94EF2402C00E94FE1DAE019A
:10506000495E5F4F6B2D8D2D0E94AF0CAE014D5EE2
:105070005F4F6B2D8C2D0E94AF0C81E00E9420139E
:105080000E94B70D6A960FB6F894DEBF0FBECDBF73
:10509000DF91CF911F910F91FF90EF90DF90CF9014
:1050A000BF90AF900895EF92FF920F931F93CF930D
:1050B000DF93CDB7DEB729970FB6F894DEBF0FBEEA
:1050C000CDBF8C017B01BC01CE0101960E94682EF0
:1050D00060E0CE0101960E94182C682F87FD10C059
:1050E000E82FEE0FFF0BEE0DFF1D4591549181E06F
:1050F00093E00937190709F080E00E94A327E8CF61
:1051000029960FB6F894DEBF0FBECDBFDF91CF91C9
:105110001F910F91FF90EF90089510923D0410920F
:105120003C040E94453C81E090E09093760380939C
:10513000750361E080E00E949E0F20E04AE452E0A7
:10514000BA018BE492E00E94B4260E94B70D0C9441
:105150002F3CCF93DF93CDB7DEB72A970FB6F894E5
:10516000DEBF0FBECDBF6FE773E0CE0101960E9498
:10517000682E60E0CE0101960E94182C87FD2AC09F
:1051800010927603109275038A870E942F3C8A85BD
:105190008230A1F04CF4882371F08130C1F46FE6C5
:1051A00073E089E793E00EC0833079F0843079F4BE
:1051B0000E9450270CC00E94342709C06BE673E0A0
:1051C00083E793E00E94532802C00E948D280E942A
:1051D000453CCFCF10923F032A960FB6F894DEBF1E
:1051E0000FBECDBFDF91CF910895CF93DF93EC0138
:1051F000842F0E94D50D9E0136952795A9014C0F4D
:105200005D1F8417950730F4C21BD30B21E0C8172C
:10521000D90708F020E0822FDF91CF91089568EE42
:1052200073E080E00E94450E2BE1289FB001299F8A
:10523000700D112440E088E799E60C94F5281F933F
:10524000CF93DF93182F68EE73E00E94450E9C0108
:10525000C0914D03D0914E03DE010E94F23D28EE35
:1052600033E040E050E00E94433ECA01B901412FC3
:10527000CE01DF91CF911F910C94F528CF93DF934E
:105280001F92CDB7DEB7482F64E670E049830E94D5
:10529000450EBC01660F771F680F791F49818CE2AC
:1052A00091E00F90DF91CF910C94F528CF930E945D
:1052B000B513C82F882341F10E940F29C82F8111EF
:1052C00005C082E299E00E9406311EC08FE00E9474
:1052D0001F29882329F082E00E941F29811106C01E
:1052E00089E199E00E940631C0E00EC080E10E9491
:1052F0003E29882331F083E00E943E29C82F811186
:1053000003C08DE099E0EECF8C2FCF9108950C94DF
:1053100056291F93CF93DF93EC01162F82E10E9451
:10532000C00E81110EC068E379E08CE499E00E9420
:1053300009308B85803171F5DF91CF911F910C94ED
:10534000FE1D612FCE010E94632ECE0109960E94A0
:10535000FA35882311F0298501C02FEF332727FD67
:105360003095812F90E028173907A1F0111104C062
:1053700069E08E859F8509C00E941F0D67E00E942D
:105380008F3A8C850E94520C66E0DF91CF911F917D
:105390000C94F839DF91CF911F910895CF93DF934B
:1053A000DC011B96CD91DC911C9790E080E0FE0122
:1053B0002EE0829FE00DF11D11243296259134914B
:1053C0002115310599F01D964D915C911E9737FF7F
:1053D00003C057FF09C0305824233523232B21F065
:1053E000662329F061509F5F8F5FE1CF892FDF91A6
:1053F000CF910895EF92FF920F931F93CF93DF9376
:10540000EC01F62E0E94CE299EE0899F8001112496
:10541000EB85FC85E00FF11F859194910E94803807
:10542000E82ECE0109960E94FA35882311F02985CD
:1054300001C02FEF332727FD30956F2D70E0261721
:105440003707E1F06FE06E19EB85FC85E00FF11F87
:105450003596F490FF2029F0862F8F190E94BC38D2
:105460006F2D8B859C85800F911F0496DF91CF91C6
:105470001F910F91FF90EF900C947C35DF91CF91AD
:105480001F910F91FF90EF900895CF93DF93EC0160
:105490000E94CE292B853C859EE0899F200D311DE1
:1054A0001124F901369645915491CA01F9013496B7
:1054B00024912150223030F4FA01459155916591A3
:1054C0007491CB01DF91CF910895CF93DF93EC01DD
:1054D0000E94CE29EB85FC859EE0899FE00DF11DA1
:1054E0001124329685919491DF91CF910895FF9286
:1054F0000F931F93CF93DF93EC018B016A818B8114
:10550000680FCE010E94CE29F82E1E870D876FEFFF
:10551000CE010E94CE298C8310E08C81181760F494
:10552000612FCE010E94CE298F1104C08A81181BE1
:105530001B8302C01F5FF1CFDF91CF911F910F91AD
:10554000FF900895CF92DF92EF92FF920F931F93F7
:10555000CF93DF93CDB7DEB72C970FB6F894DEBFAD
:105560000FBECDBF7C01D62EC42E0E94452A8C01D1
:105570006D2DC7010E94CE29D7011B966D917C919C
:105580001C97BEE08B9F600D711D1124685F7F4FDB
:1055900046E050E0CE0107960E948A3E86E0FE017A
:1055A0003796DE01119601900D928A95E1F7698197
:1055B0007A81EB81FC812D813E8142E0C41619F095
:1055C00081E090E002C08FEF9FEF6F3FAFE77A0777
:1055D00031F4AF01BC01C8010E94C01524C06E3F68
:1055E000BFE77B0711F409951EC0869FA001879F26
:1055F000500D969F500D1124D8018D919C911197BB
:10560000480F591F4E175F071CF04D935C9303C062
:10561000D801ED93FC93F801808191812817390717
:1056200014F431832083D7011F96ED91FC9150979C
:10563000309719F0B801C70109952C960FB6F89468
:10564000DEBF0FBECDBFDF91CF911F910F91FF90B5
:10565000EF90DF90CF900895EF92FF920F931F93FA
:10566000CF93DF93EC018B819A81890F89871A860A
:1056700081E08D8382E0E82EFF24F3948E01075FA2
:105680001F4F0E948C37482F823011F0843089F4EC
:10569000E881F9816B818A81680F0280F381E02DB6
:1056A000CE0109958B819A81890F8987EA86FD82CF
:1056B00004C0813089F0883079F0C8010E94053635
:1056C0008111FD828D81882319F0CE010E94B32BB8
:1056D0008A858F5F8A87D5CF8FEF898781E08E8318
:1056E0008D83483009F080E0DF91CF911F910F91B9
:1056F000FF90EF9008950895FC0185EA90E0918372
:10570000808312821382648381E085838683089577
:10571000FC018481823010F022E001C0282F9281A8
:10572000492F50E030E021503109421753071CF453
:105730009F5F928308952381420F511D90E001974E
:105740004817590714F42F5F23830895FC018281C1
:10575000882319F08150828308958381882311F072
:10576000815083830895FF920F931F93CF93DF930C
:10577000EC0100E010E0F02E602F80E00E94253860
:105780008A81081302C08EE301C080E20E9437388C
:105790006B819801260F311D8C8190E02817390705
:1057A00044F4E881F9816F0D0190F081E02DCE0184
:1057B00009950E94C3380F5F1F4F02301105D9F6BB
:1057C0001D82DF91CF911F910F91FF9008950F934C
:1057D0001F93CF93DF93EC010E948C37182F0E9408
:1057E000F43B882321F081E08D838FE71CC00B817F
:1057F0008A81080F123031F0143039F4CE010E9442
:10580000882B03C0CE010E94A62B8B819A81890F21
:10581000081711F081E08D838D81882319F0CE0166
:105820000E94B32B812FDF91CF911F910F9108958B
:10583000EF92FF921F93CF93DF931F92CDB7DEB706
:105840007C0181E0F701858311E0C70169830E9433
:10585000E72B6981811102C0F7011682F701968159
:10586000911108C0883031F481E086838381928170
:10587000890F09C0662311F0F7011583813029F7DC
:105880009111E3CF8FEF0F90DF91CF911F91FF9098
:10589000EF900895CF93DF93CDB7DEB729970FB67A
:1058A000F894DEBF0FBECDBF6BE873E0CE0101966A
:1058B0000E94682E60E0CE0101960E94182C813073
:1058C00039F0823041F0811109C00E94F52DF2CFEC
:1058D0000E94A928EFCF0E94C013ECCF87FFEACF28
:1058E00029960FB6F894DEBF0FBECDBFDF91CF91E2
:1058F00008950F931F93CF93DF93EC010E94E1165D
:1059000001E010E09C0141E050E0BE0185E693E03B
:105910000E948115DF91CF911F910F910895CF9330
:10592000DF938091610390916203892B21F10E94A2
:105930007416C1E0D0E002C0CC0FDD1F8A95E2F7FB
:105940008091750390917603892B11F4D05C07C088
:105950000E947416882311F0DF5B01C0DB5B0E949C
:10596000741681110AC080917F0390918003892B66
:1059700021F0DE5F02C0C0E0D0E4CE01DF91CF9124
:105980000895CF93DF93EC0183E06136780719F433
:105990000E94001813C083E06336780719F40E9450
:1059A000DB170CC083E06736780719F40E94BB1739
:1059B00005C06956734011F40E94CB170E94F5167A
:1059C0000E948F2CBC01CE01DF91CF910C94772ADD
:1059D0001F93CF93DF93CDB7DEB7E9970FB6F89457
:1059E000DEBF0FBECDBF60E070E0CE0189960E94A1
:1059F000682E8FEF8AAB8DE990E09AA789A783E99B
:105A000093E09DAB8CAB8FEF9FE79FAB8EAB81ECB0
:105A10009CE299AF88AF18E20E948F2CBC01CE01A6
:105A200089960E94772A60E0CE0189960E94182C00
:105A300087FD1FC0E1E6F3E0DE011196812F0190A2
:105A40000D928A95E1F7CE0189960E942C2B811147
:105A50000AC0FE013196A1E6B3E0812F01900D92BC
:105A60008A95E1F7D9CF83E00E941F360E94F51690
:105A7000D3CFE9960FB6F894DEBF0FBECDBFDF914E
:105A8000CF911F910895DC011796ED91FC91189725
:105A9000E60FF11D649181E195E00C9498380F9325
:105AA0001F93CF93DF93EC018B0180E061E0680FDF
:105AB000F801E80FF11DE491E93011F0862FF6CFDF
:105AC000CE010E947C2B8BEA90E099838883188713
:105AD0000F83DF91CF911F910F9108950E9474164B
