:10000000080F0020E5050000E1050000E105000003
:1000100000000000000000000000000000000000E0
:10002000000000000000000000000000E1050000EA
:100030000000000000000000E1050000E1050000F4
:10004000E1050000E1050000E1050000E105000018
:10005000E1050000E1050000E1100000E1050000FD
:100060005128000081350000D12F0000E10500007B
:1000700021330000E1050000E1050000E10500007A
:10008000E1050000E1050000E1050000E1050000D8
:10009000E1050000E1050000E1050000E1050000C8
:1000A000E1050000E1050000E1050000E1050000B8
:1000B000E105000069380000E1050000E1050000ED
:1000C00010B5064C2378002B07D1054B002B02D02E
:1000D000044800E000BF0123237010BD7404002019
:1000E000000000007450000008B5084B002B03D03E
:1000F0000748084900E000BF07480368002B00D10B
:1001000008BD064B002BFBD09847F9E70000000024
:1001100074500000780400207004002000000000EB
:10012000164B002B00D1144B9D46402292029A1A86
:10013000924600218B460F461348144A121A03F0C8
:1001400079FF0F4B002B00D098470E4B002B00D0AF
:1001500098470020002104000D000D48002802D01F
:100160000C4804F071F803F003FF2000290000F0B0
:100170008FFE03F0EDFEC0460000080000100020D6
:1001800000000000000000007404002004090020AA
:10019000494200005942000070B5051C002002F0E1
:1001A000EDF91649061C4B780A781B0213430A3BEB
:1001B000012B06D8012002F0FFF9291C01F0C5FE31
:1001C0001AE04C7908792402092304430020E2B2A2
:1001D00093424041181A281A40B201F0F2FD05215D
:1001E000301C01F0B2FE2F2001F08EFDE0B201F0D4
:1001F000B1FD432001F088FD70BDC04674070020AA
:1002000008B5034B0348197801F0BFFD08BDC0468F
:1002100074070020084B000082B00190019B013B55
:10022000FDD102B07047000008B5034B5843000BE6
:10023000FFF7F2FF08BDC046666900007047000086
:1002400008B5034801F0FAFE02F06AFC08BDC0469A
:100250005A07002008B5034B1B689847024B1B68E0
:10026000984708BD080000200C00002010B5041CB1
:10027000034B1B689847034B18786040187010BDFB
:10028000040000209404002010B5064C2378012BB4
:1002900007D1054B5B8A002B03D0FFF7D1FF022368
:1002A000237010BD000000205A07002010B5044C38
:1002B0002378012B03D0FFF7CDFF0123237010BD5E
:1002C0000000002008B53B20FFF7D0FF08BD10B5A7
:1002D000041C2078002803D0FFF7C8FF0134F8E79A
:1002E00010BD1FB5694601F0D1FC6846FFF7EFFF6E
:1002F00005B000BD38B50023051C144C2420237024
:10030000FFF7B4FF281CFFF7ECFFFFF7DBFF104BF4
:1003100018780130FFF7E5FFFFF7D4FFFA21606896
:10032000890003F093FC80B2FFF7DBFF2E20FFF77C
:100330009DFF6068642103F089FC0A2103F00CFD35
:10034000081CFFF7CEFFFFF7BDFF38BD9404002067
:10035000F408002008B50D20FFF788FF0A20FFF7FA
:1003600085FF08BD08B5034B1878FFF7BAFFFFF704
:10037000F1FF08BD9404002010B50120FFF7BAFF7B
:100380000024194BE05C01F073F80134FFF7A9FF7A
:10039000FFF798FF0E2CF4D10024201C013401F04B
:1003A00023F8E4B2FFF79DFFFFF78CFF062CF4D192
:1003B00001F026F8FFF795FFFFF784FF01F028F81A
:1003C000FFF78FFFFFF77EFF00F09EF8FFF789FF32
:1003D000FFF778FF00F0D6F8FFF783FFFFF772FF13
:1003E000FFF7C0FF10BDC0467843000038B5051CBC
:1003F0000220FFF77FFF0024201C002D02D001F017
:1004000031F801E001F034F80134E4B2FFF769FF9C
:10041000FFF758FF252CEFD1074B1878FFF761FF46
:10042000FFF750FF02F0C0FBFFF75BFFFFF74AFF4B
:10043000FFF798FF38BDC0466005002008B50320CF
:10044000FFF758FF00F008F9FFF74BFFFFF73AFFFF
:1004500000F0F8F8FFF745FFFFF734FFFFF782FFE2
:1004600008BD000010B5094B5C8AFFF785FF012C21
:100470000ADD0120032C00DC0020C0B2FFF7B6FF2C
:10048000022C01D0FFF7DAFF10BDC0465A0700204A
:1004900010B5094C2378012B0DD001F059FB2278BF
:1004A000064B022A02D10022986022709A68801AB4
:1004B0005860FFF7D7FF10BD000000209404002013
:1004C00010B500F0EDFF084C002801D1A08107E035
:1004D00000F0ECFFA389834202D0A081FFF7D8FF90
:1004E000FFF7ACFE10BDC04694040020054B10B5CC
:1004F0001C889B78002B03D001F039FB041BA4B2AD
:10050000201C10BDA404002070B5012002F054F896
:10051000051C042002F050F8061C142000F0A8FF6F
:100520006323A84213D20023B04210D9801B84B2A7
:10053000A81B642180B203F089FB81B2201C03F068
:1005400085FB80B2031C632800D96323DBB2181C2F
:1005500070BD000038B5FFF7D7FF094C237B8342FD
:100560000CD2E5892073FFF7C1FF451BFFF7BEFFE3
:10057000238AADB2E081AB4200D2258238BDC046AD
:10058000A404002008B5FFF7E5FF064A6923917C23
:10059000002900D1053B107B1B1A108A434398B2F7
:1005A00008BDC046A40400207047000008B500F054
:1005B000AFFE00280CD100F071FB002808D100F03C
:1005C00099FD002809D0054A53687033536004E050
:1005D000024A936870339360F1E708BDA4040020D9
:1005E000FEE70000002208B50A4B0B49D3188B42E6
:1005F00004D20A49895804321960F5E7084B094AC0
:10060000934202D2002204C3F9E702F043FDFFF750
:1006100087FD08BD00000020740400207C5000000D
:100620007404002004090020054B82B06A4607329A
:10063000934203D8BE221A700133F7E702B0704725
:100640000809002082B0034801AB181A80B202B03A
:100650007047C04608090020002382B06946064A58
:1006600007319A1898B28A4203D812780133BE2A09
:10067000F4D002B07047C0460809002038B5002504
:10068000094C2560BFF34F8F0120FFF7CDFD0120FE
:100690002060BFF34F8FFFF7C7FD2560BFF34F8F7B
:1006A0006420FFF7C1FD38BD8442005010B501231E
:1006B0000C1C0D4A1C401460BFF34F8F0B4C4A08B2
:1006C0001A402260BFF34F8F094C8A081A402260FB
:1006D000BFF34F8F074AC9080B401360BFF34F8F1A
:1006E000FFF7CCFF10BDC04610420050144200502E
:1006F000184200501C42005038B5531E9A41074B17
:10070000051C0C1C1A60BFF34F8F0909FFF7CEFFC1
:10071000281C211CFFF7CAFF38BDC0460C42005000
:1007200008B50022FFF7E8FF08BD08B50121FFF773
:10073000F7FFFA20C000FFF777FD08BDF0B585B0E0
:100740006D460C4B8C46C2CBC2C51B686C462B60F9
:1007500003799A4201D35A1ED2B29200A35863443D
:10076000191C80235B421943C9B2FFF7D9FF05B0BA
:10077000F0BDC0468843000008B5042341780B4310
:1007800043700C231943FFF7CBFF08BD072370B557
:10079000141C1940C90039331943261C051CFFF7E6
:1007A000BFFF08362178281C01220134FFF7A4FF7F
:1007B000B442F7D170BD000010B5041C012A03D962
:1007C00001780820014321700021227161718B4260
:1007D00005D0012A03D1237803321343237025481F
:1007E000032102F059FC2448032102F055FC234860
:1007F000032102F051FC0321214802F04DFC214865
:10080000FFF712FD0023204A1360BFF34F8F1F4AEA
:100810001360BFF34F8F0321201CFFF747FF1C48D5
:10082000FFF702FD201C0321FFF740FF1848FFF7E8
:10083000FBFC201C0321FFF739FF9620FFF7F4FC97
:10084000201C0221FFF732FF20212378201C1943AE
:10085000FFF766FF0423201C6370FFF78DFF201C49
:10086000FFF763FF0223201CA3700621FFF758FF48
:1008700010BDC046104200501442005018420050B3
:100880001C42005050C300000C42005084420050F3
:100890009411000010B50321041C074802F0FCFB72
:1008A0000648032102F0F8FB0023201C23701021CE
:1008B0000122FFF781FF10BD0C420050844200501E
:1008C00010B5041CFFF7E6FF201C10BD08B501227F
:1008D000FFF712FF012008BD38B50D1C0D4C002894
:1008E00002D001F069FE20800B4B002D07D0DA7991
:1008F000997912020A4362809A7BDB7B06E05A7A7E
:10090000197A12020A4362801A7C5B7C1B02134331
:10091000A38038BDC00400207407002070B588B0E3
:100920006946134B6A4670CB70C170CB70C130CB37
:1009300030C11049104B884202D15B695B050CE065
:100940000E49884202D15B695B0406E00C495B6991
:10095000884201D15B0300E05B025B0F022B02D1F6
:10096000084B186801E09B00D05808B070BDC04625
:1009700098430000000001400002005020000140A8
:100980000000114018000020F7B5061C0191171C4B
:10099000FFF7C4FF4508AF4218D8124B984202D95E
:1009A000C50807240BE0104B984202D985080324A0
:1009B00005E00E4B0124984201D8051C0024391C87
:1009C000281C03F043F9011C281C01E0002402212B
:1009D000019B2343013433607160614303F036F9B6
:1009E000FEBDC046FFFFFF03FFFFFF01FFFFFF004B
:1009F00008B5C06801F0C9F908BD000038B5041C8D
:100A0000081C0D1C02F0CCF9011C201C00F0DCFBC2
:100A1000024BE5600833201C236038BDB84300005A
:100A200010B5FA24A400604303F010F96421604378
:100A300003F00CF9024B984200D9181C80B210BD8B
:100A4000FFFF0000FEE70000F0B59DB00593574B97
:100A500007AF9C4600923B1C6246041C0D1C43CA17
:100A600043C36146126810311A600BA8442203F098
:100A7000A3FA4F4A4F4B0220944208D1C021890566
:100A80000A1C284082405B691C301A4006E0302175
:100A90000A1C28408240DB6904301A40131CC34002
:100AA000022B0FD102F0AAFA434B1B680293009964
:100AB000029803F0CBF8FF230193FE3B071C0526A9
:100AC000009302E09B00FB58F0E7381C009903F00C
:100AD000BDF880235B04984215D8384BC3181B0C13
:100AE000DBB2191C022B00D20221CBB2191C0193DC
:100AF00003F0ACF880235B02984204D8071E012F54
:100B000009D087B207E0009B013E5900CBB20093A9
:100B1000002EDAD1294F7B1E9BB20393009B9A00D3
:100B20000BABD658236804936B089C46D800019BF6
:100B3000591EFF231A1C8240C9B28140101C049A1E
:100B400033408243072011432160A90088408B4035
:100B500062686146824313438022D2058A40636003
:100B6000A368E9009343A36008238B40A268261C76
:100B70001343A3600C235D43039B6421581C059B16
:100B80000C344343181C03F061F81036039BAE1974
:100B900001382D19306000992B60019B0298594350
:100BA000794303F053F81DB0F0BDC046F047000094
:100BB000000004400002005018000020FFFF000069
:100BC00001230B408A0702D58022520013434A07B3
:100BD00002D58022520213430A0702D58022520412
:100BE00013438268134383607047C36F1943C1671F
:100BF000704701238B4043647047000008B5C36809
:100C00000248595C01F0C1F808BDC04654480000D4
:100C100038B50D1C041C00216B5C4A1CD1B2092B99
:100C2000FAD1201C00F0D0FA024BE560201C2360B2
:100C300038BDC0465048000038B5134C134D211C38
:100C4000281C2831FFF7E4FF281C211C2030293103
:100C5000FFF7DEFF281C211C30303331FFF7D8FFAF
:100C6000281C211C10303831FFF7D2FF281C211C12
:100C700050304031FFF7CCFF281C211C403046315A
:100C8000FFF7C6FF38BDC04654480000D00400201E
:100C9000014B18787047C04630050020024B588839
:100CA000431E9841C0B2704730050020014B588860
:100CB0007047C04630050020064A08B5031C904224
:100CC00000D9131C044A98B2538002F063F800F074
:100CD00057FC08BDF87F00003005002038B5074CF0
:100CE0002378002B08D000250020FFF7E5FF281C03
:100CF000A58002F03FF8257038BDC04630050020C1
:100D0000012208B5024B1A70FFF7E8FF08BDC04684
:100D100030050020FFB58023C405400A40029B0037
:100D2000C518031CFFB002AFE40D01923C191A680C
:100D30003E1AF2500433AB42F9D101230027019A45
:100D4000974209DA002B05D0CA5DE35D9B1A5A422F
:100D50005A41D3B20137F2E7002B28D1019A9342CE
:100D60000CDACF5CE7540133F8E71969114A00291E
:100D7000FBD1146840310C420FD0116022220D4B80
:100D8000DA60213A58601A61BFF36F8FEDE71A6994
:100D9000002AFCD10430A84209D021213258D96060
:100DA00058609A6001221A61BFF36F8FEFE77FB03E
:100DB000FFBDC04600C00050F7B5061C0F1C141C38
:100DC00072B61A4B1A78019301321A70184B5A688E
:100DD000012A06D059225A60433A5A6072325A6048
:100DE000F4E702F0D9FD002C11DD8022F305DB0DC4
:100DF00019199200251C914200DDD51A301C391CAE
:100E00002A1CFFF787FF76197F19641BEBE702F0B6
:100E1000BBFD0023064A5360019B019A1B78013BEE
:100E2000DBB21370002B00D162B6F7BDBE08002004
:100E3000FC000050030E084A9B009B180122000290
:100E4000000A82401968101C0A1C02431A601A68C2
:100E500082431A607047C0460800005008B501F090
:100E6000B9FD02F08DFA01F053FD01F0FBFC00F03A
:100E700085FAFFF745FF00F0B7FC01F079FEFFF7B8
:100E8000D3FB01F0E3F800F087FA00F09BFA08BD0D
:100E900008B5FFF7E3FF01F0E9F9002008BD000005
:100EA00010B5054C0549201CFFF7A8FD044B236035
:100EB000A3791433A37110BD38050020AC4800009D
:100EC000A848000008B58379143BDBB2994202D2EE
:100ED000FFF78EFD03E0C91AC8B201F077FC08BD28
:100EE00070B50025012000F057FE01F0EBFC1B4B14
:100EF0009A781C1C002A02D158701A70DA7059783E
:100F00000126814200D0FE36B218D2B20A2A02D897
:100F10009A70002503E00A2201359A70EDB2187824
:100F20000F4A135CAB42DDD2052814D8E3780732B0
:100F30000133125CDBB2E3709A420CD8002901D174
:100F4000217003E0002801D102F04CFD2378013329
:100F500023700023E370607870BDC0464805002010
:100F6000BC48000010B5104C2A2123686268D318D1
:100F70006360A368E268D318E360606802F066FE0D
:100F80000A4B2A211860E06802F060FE084B2A2113
:100F90001860606802F0E0FE6160E0682A2102F0FB
:100FA000DBFEE16010BDC0464C0500201C00044083
:100FB0002800144070B5294D294C281C01F0E8F98F
:100FC000201C01F0E5F98021FA26281C8905002261
:100FD00001F0AEF980210022201C01F0A9F9214C7A
:100FE0002148FFF727FF214DF6012148FFF722FF97
:100FF000321C201C01210023FFF726FD321C002398
:10100000281C0221FFF720FD201C0221FFF7EDFD27
:10101000281C0421FFF7E9FD02214023C120154AC5
:101020002164800013601658134B33408026F6036A
:1010300033431350114B124A186810611148066867
:101040001661C322920002601A60201CFFF7B8FDEF
:10105000281C0421FFF7B4FD70BDC0461400C02752
:1010600017006066000004401400000400001440F3
:101070001500000400E100E0FFFF00FF2400144021
:101080004C05002018000440142807D1094BA02269
:1010900019608021D205936B890008E01A2808D1D5
:1010A000044BA02299608021D205936BC9010B43A8
:1010B000936370474C050020142804D1A022D20568
:1010C000916B054B05E01A2805D1A022D205916B42
:1010D000024B0B4093637047FFFDFFFFFFBFFFFF15
:1010E00008B5FFF73FFF02480121FFF782FD08BD69
:1010F0000000044038B5094D01202C78002C0CD19B
:1011000000F0CEF9002808D000F0D0F96B88C01AA2
:10111000022380B283426441E0B238BD6005002002
:1011200008B51F30C0B200F0A3F908BD38B50A4CAD
:10113000051C2378002B04D0002802D100F0B6F95A
:101140006080257000F010FAA37F002B02D1281CCC
:1011500001F00EFC38BDC0466005002038B5012006
:1011600001F0D4FB162000F083F900250C4C20710F
:1011700023799D420ADAE8B2FFF7D2FF221C6B0006
:1011800012329852A21D98520135F1E70025281C11
:101190002570A577FFF7CAFFFF236580E37738BD89
:1011A0006005002008B50020FFF7C0FF0122014BB9
:1011B0009A7708BD6005002008B5FFF7F3FF00200F
:1011C00001F0A4FB08BD7047044B8171036000234C
:1011D000037143710133C37103727047D848000033
:1011E00082790221012A00D8111C037901398B422E
:1011F00002DA0133037106E04179013ACB189342D8
:1012000001DA0131417170470379002B02D0013BB3
:10121000037104E04379002B01D0013B4371704717
:1012200070B5041C0025EEB20020311C00F04EFD0C
:1012300023793E20B34200D01E3800F065FD61796D
:10124000A3796A189A4205DA23687118C9B21B6833
:10125000201C984700F0C0FD012D01D00125E2E7D8
:101260000023E37170BD70B5041CFFF739FE051C47
:1012700000F0CAFE002803D001237F25E3711CE0A3
:1012800066792379F618F6B2022D05D0042D06D121
:10129000201CFFF7A5FF02E0201CFFF7B5FF6279D5
:1012A0002379D318DBB29E4201D00123E371E379A5
:1012B000002B02D0201CFFF7B3FF281C70BD38B5EF
:1012C0000123041C0D1CC371201CFFF7CCFF002858
:1012D00000D12072237A002B08D1082806D10133CF
:1012E000237260792379C018C0B208E0002D01D0C4
:1012F0000122E2710128E7D1002BE5D1FE3040B296
:1013000038BD0000014B18787047C0469405002096
:10131000024B5888431E9841C0B270479405002084
:10132000014B58887047C04694050020074A08B50D
:10133000031C904201D9064B1B88064A98B2538081
:1013400001F0A0FC00F01CF908BDC04660EA0000F6
:10135000DC4800009405002038B5074C2378002BAA
:1013600009D000250020FFF7E1FF281C6580A5803B
:1013700001F094FC257038BD94050020002010B5C4
:10138000044C6080A080FFF7D1FF01232370FFF79A
:10139000E3FF10BD9405002008B500F003FE08BD72
:1013A00010B5041C00F0A8FC00F09AFC201C00F012
:1013B000DBFC10BD08B50248FFF7F2FF08BDC046D0
:1013C000F848000008B50448FFF7EAFFFA2080005B
:1013D00000F0D6FB08BDC0467C490000FF22014B4F
:1013E0001A7070479A05002008B50C235843034B28
:1013F00018180A3001F00AFF08BDC046A2050020F7
:1014000008B50248523001F001FF08BDA2050020D6
:1014100013B5122000F02CF801AC2080142000F04D
:1014200027F82388181A2080172000F021F8608000
:10143000201C01F0EBFE16BD72B6034B187801308C
:10144000C0B218707047C046BE080020044A137826
:10145000013BDBB21370002B00D162B67047C0466F
:10146000BE080020014B4000185A704700060020BB
:10147000024B40002233185A7047C0460006002035
:1014800010B5041CFFF7D8FF044B64006C33E45A1A
:10149000A4B2FFF7DBFF201C10BDC04600060020F1
:1014A000014B987BC0B2704780060020014B188A20
:1014B0007047C0468006002010B5102901D8012AC7
:1014C00006D900230122C37082700270437014E0B9
:1014D000490051180231094A890089180B790C1DFD
:1014E0004979A27809021943E37801701B0213437A
:1014F000090A83701B0A4170C37010BD00F001001F
:1015000008B5FFF799FF002307499A008A180021C0
:1015100001335166112BF7D16422044B1A852A330B
:101520001970FFF793FF08BD800600200007002018
:1015300010B5FFF781FF0023054CA3852363636388
:10154000A36300F00AFBA087FFF780FF10BDC04631
:101550000007002008B5FFF7EBFF0022014B9A823D
:101560005A8208BD8006002000230021034A183259
:10157000995202334A2BF8D17047C04680060020AA
:1015800008B5FFF759FF0122044B1A852A331A7058
:10159000FFF7EAFFFFF75AFF08BDC046000700202B
:1015A00038B5FFF7EDFF054B1C1C1D8A238AAB42A3
:1015B00003D10A2000F0F0FAF8E738BD80060020D9
:1015C000002008B5024B987301F0C0F908BDC04671
:1015D0008006002010B50120FFF752FF041C0020F8
:1015E000FFF74EFF0022844201D9201A82B2FA236B
:1015F0009B0093428041404210BD002273B591424E
:101600001BD0041C01AE0D1C6846211CFFF754FFC3
:10161000211C0122301CFFF74FFF6B4670885C884D
:10162000198833886D1A001B591A684302F09EFB13
:101630000019C343DB17184082B2101C76BD00228C
:1016400073B591421BD0041C01AE0D1C6846211CD1
:10165000FFF732FF211C0122301CFFF72DFF6B46E4
:1016600030881C88598873886D1A001B591A684382
:1016700002F07CFB0019C343DB17184082B2101C38
:1016800076BD0000831EDBB20120182B01D8014A71
:10169000D05C7047AE4900000E4B10B522331328C2
:1016A00005D1588D133843425841C0B210E0420072
:1016B000D45AFFF7E7FF002804D0012807D196206D
:1016C000800000E03220A0428041404200E0012042
:1016D00010BDC0460006002010B50024201C1F309D
:1016E000C0B2FFF7D9FF002803D00134E4B2062CC2
:1016F000F4D1201C10BD000010B5FFF79DFE054B76
:101700001C6CFFF7A3FE201C7D2102F09FFA000A4B
:1017100080B210BD00070020044A138D002B03D0B7
:10172000138D013B9BB213857047C0460007002014
:1017300010B50C4C4000231C2233C35A8B4201D9F4
:101740005B1A00E0CB1A9BB2074A062B02D913188A
:10175000002202E013181A8B013222341A8321521C
:1017600010BDC046000600208006002010B50024F1
:10177000FFF762FE0C4B1C645C64FFF767FEFFF72B
:10178000FFFEFFF7E7FE211C1920FFF7D1FF211C08
:101790001B20FFF7CDFF211C1C20FFF7C9FF1D20D8
:1017A000211CFFF7C5FF10BD00070020002208B56F
:1017B000024B1A82FFF7DAFF08BDC0468006002000
:1017C00038B5084CA37B002B0AD10D1C01F0BEF8E4
:1017D000002D01D0FFF7EAFF0123A373FFF7E0FE1E
:1017E00038BDC0468006002008B5FFF7DFFF08BD02
:1017F00038B5124B9B7B002B1ED0114C114B251C76
:101800002233D88D226C4835821822642A78511CE4
:101810002970572A10D99B8C6421584302F016FA7C
:10182000636C0949C018606402F010FA81B21A2092
:10183000FFF77EFF00232B7038BDC04680060020D6
:101840000007002000060020A08C00000A4A830048
:10185000D31810B50949041C586E02F0F7F9084B6B
:1018600081B26200201CD152FFF7C7FE011C201C70
:10187000FFF75EFF10BDC04680060020581B000029
:1018800000060020F7B52C4EB48F00F066F92B4B04
:10189000001B80B298424ED9FFF7CEFDB48D284B85
:1018A000376B5C43B36B756B0193FFF7CFFDFFF7AD
:1018B0003FFE244E2409B38A281C0133B382211C25
:1018C00002F0C4F9211C051C381C02F0BFF981B2DA
:1018D0000020FFF792FEA9B2071C0120FFF78DFE42
:1018E0000025874201D93D1AADB2174B22331F8F15
:1018F000BD4202D2B37D002B03D11C20291CFFF76F
:1019000017FFED1BA9B21B20FFF712FF0198211C46
:1019100002F09CF981B20720FFF76FFE718A708296
:10192000411A89B2490089B21D20FFF701FFA1B217
:101930001E20FFF7FDFEF7BD0007002030750000F8
:10194000581B00008006002000060020F7B5434D1C
:1019500000246B8CA88C984201D21C1AA4B21220CD
:10196000211CFFF7E5FE2B1C688EAA8E22339B8A72
:101970000021824201D9101A81B20026934201D976
:101980009B1A9EB21F20FFF7D3FE311C2020FFF7C9
:10199000CFFE0026301C7300EB182130C0B2198F27
:1019A0000136FFF7C5FE042EF4D1FFF795FE0023A4
:1019B000071C1E1C83420BD01A1C291C1F32D2B2DA
:1019C00022315200525A01339619B6B2DBB2F1E716
:1019D0001320311CFFF7ACFE002E0BD0A31BB4422A
:1019E00000D8331B1E4A9BB2934207D81323341CE2
:1019F000019306E01223371C019302E01223002713
:101A000001931420211CFFF793FEB9B21620FFF7B3
:101A10008FFE6B4615209988FFF78AFEFFF76CFE54
:101A2000071CFFF735F9061E01D02E8D04E0FFF7E5
:101A300069FC002800D0EE8C311C1720FFF778FEDF
:101A4000391C1920FFF774FE201C0649704302F070
:101A5000FDF881B21820FFF76BFEF7BD00060020ED
:101A6000B80B00001027000038B5FFF7E5FC1C4D4F
:101A70002C8DA4B2FFF7EAFC002C30D12B1C2A33AA
:101A80001C78E4B2002C28D1164B9A7B002A21D076
:101A90001A8A296B01321A825A6E043312095218BB
:101AA0002A635A6E696B12095218DB6F6A63AA6B5C
:101AB0001B099B18AB63AB8D0133AB85FFF7E2FECF
:101AC000201C0134E4B2FFF7C1FE112CF8D1FFF75E
:101AD0003DFF02E00520FFF7B9FEFFF711FD38BD1D
:101AE000000700208006002008B5FFF7BDFF08BDF5
:101AF00072B6044B1868044B1B78002B00D162B6F9
:101B00007047C04654070020BE08002008B5FEF705
:101B10004BFDFEF7D5FC02F027F8FFF7E5FF08BD07
:101B2000094A08B5136801331360084A1378013B6A
:101B3000DBB2002B01D0137005E0E1231370FFF737
:101B400057FEFEF733FD08BD5407002001000020BA
:101B500008B5FFF7CDFF400808BD08B5FFF7F8FF4F
:101B600080B208BD08B5FFF7C3FF80B208BD08B555
:101B7000FFF7EEFFFA21890002F068F880B208BD95
:101B800038B5051CFFF7E4FF84B2FFF7E1FF031B44
:101B90009BB2AB42F9D338BD38B5051CFFF7D8FF6F
:101BA00084B2FFF7B3FFFFF7D3FF031B9BB2AB4237
:101BB000F7D338BD70B500240123A340194209D0E2
:101BC000032663009E400568B543161C9E40331CE7
:101BD0002B4303600134082CEED170BD031C70B59B
:101BE00086B002AD08220C1C281C191C02F0E4F976
:101BF0002A78032A03D160B26B68984744E0530601
:101C000007D56B6861B218883F231A4000F0A2F92B
:101C10003AE0012A1BD0022A36D1696804A80822BA
:101C200002F0CAF9059E049D3188042289006918D2
:101C300001A802F0C1F9019802F042FA201A40B25C
:101C400000F0BFF83178281C00F09FF81CE06968AC
:101C5000082204A802F0B0F9059B04221988049B0D
:101C60008900591801A802F0A7F90198642101F030
:101C7000EDFFA11E80B249B200F05EF9302000F005
:101C800043F8302000F040F806B070BD70B5041C79
:101C90000D1C002803DA2D2344420B700135201C53
:101CA00001F09CF800232D182B706E1E201C0A21B9
:101CB00002F042F930313170201C0A2102F056F84E
:101CC000013E041EF2D1281C70BD000008B5031CA3
:101CD0000A1C0248191CFEF731FD08BD9D070020B3
:101CE000002008B5011CFFF7F1FF08BD08B5002072
:101CF0000121FFF7EBFF08BD08B50248FEF715FD0F
:101D000008BDC0469D07002008B5011E0A2902D162
:101D1000FFF7ECFF02E00248FEF7D8FD08BDC04621
:101D20009D07002070B5031C041C0E1C051E0FD05F
:101D3000EAB2E0B2131ADBB2B34209DA121A287817
:101D40000132D3B20135002802D0FFF7DDFFEFE703
:101D500058B270BD1FB501A9FFF798FF01A80B216C
:101D6000FFF7E0FF05B000BD38B5031E0BD0051C22
:101D7000041C631B0134621E1078DBB2002802D001
:101D8000FFF7C2FFF5E758B238BD07B58900411823
:101D9000042201A802F010F90198FFF7E5FF0EBD3B
:101DA00070B5061C0C1C00256BB2A34205DA301C72
:101DB0000135FFF7A9FFEDB2F6E7E043C017204079
:101DC00070BD08B5011C2020FFF7EAFF08BD08B56B
:101DD0000120FFF7F6FF08BD08B51020FFF7F1FF5F
:101DE00008BD38B50C1C051C02F06AF9201A40B277
:101DF000FFF7E7FF281C211CFFF794FF38BD1FB534
:101E00000C1C01A9FFF742FF01A8211CFFF7E9FF05
:101E10001FBDF0B587B0151C0CAA1278071C0C1C4E
:101E20000192002B1AD0FA2080007843291C01F07F
:101E30009DFF019B061C002B00D04642301C00F089
:101E4000CDFF0130C0B2A04208DC611E301C49B297
:101E5000FFF7D5FF6D20FFF757FF2FE0291C381C37
:101E600001F0F4FE019B03AE80B2311C002B03D0C5
:101E70002D23337002AB591DFFF708FF0190012D90
:101E800018D9621E831B934214DA381C291C01F0F6
:101E900063FF642089B24919854201D9FA20800084
:101EA0004843291C01F062FF0199FFF7EFFE2E2342
:101EB000019A1370301C211CFFF793FF07B0F0BD8F
:101EC000F0B5134ED50073195F6885B0041C381C3B
:101ED0000391029202F0F4F8039B191A49B2002907
:101EE00013DD029B0020082B05D123B2834202DAC6
:101EF0006442A4B20130725B7519AB780090201C6B
:101F0000FFF787FF381CFFF72FFF05B0F0BDC04675
:101F1000C849000010B5041CC81E40B2FFF751FFAD
:101F20000348002C00D00348FFF71EFF10BDC04639
:101F3000CD470000D147000008B5FFF760FF08BD9E
:101F400008B50022FFF7BCFF08BD08B50122FFF766
:101F5000B7FF08BD08B50D2A03D1C0B2FFF7DAFFFD
:101F600012E00C2A01D1094B02E0052A0AD1084BE4
:101F7000984207D9073948B2FFF723FF0548FFF712
:101F8000F3FE01E0FFF79CFF08BDC046E703000039
:101F9000E7FD0000C547000008B50522FFF7DAFF9E
:101FA00008BD0000F7B51F246B4611250E27154EFE
:101FB0006A46301C00211F709D70DD701D715D71BF
:101FC0009D715C70DC71FEF7E1FB6B46301C6A466C
:101FD00001211F709D70DD705C701C715C719C71C3
:101FE000DC71FEF7D3FB6B46301C02216A461F7082
:101FF0005C709C70DC701C715C719C71DC71FEF714
:10200000C5FBF7BD9D07002038B50A4B187800289E
:102010000ED0FFF7DFFA084D041E07D02B78002BF7
:1020200001D1FFF7C7F9072001F0C6FC201C2C7076
:1020300038BDC0460200002058070020838A024AAB
:102040009B00D0587047C046404A0000EE2310B5B0
:102050001A24074988B09B00C918221C01A801F066
:10206000ABFF01A9221C034801F0A6FF08B010BD78
:1020700000F001005A07002008B5044804491A225C
:10208000FEF79AFE012001F0CBFD08BDB8F3010078
:102090005A07002008B503491A22143101F08CFFB9
:1020A00008BDC046404A00007047F7B50025071C30
:1020B0000E1C2C1C182161437B69022259186B46A7
:1020C0000431981D01F078FF6B46DB88002B14D09B
:1020D00019B23A8B002905DA11B200290ADA8021F7
:1020E00009024B401A4205D0002E08D0013E0135AE
:1020F000F6B2EDB20134E4B2DCE7281C00E0201CAB
:10210000FEBDF7B5051C0F1C1824FFF7CEFF444396
:102110006B690422191901A801F04EFF0198FFF71D
:1021200023FE061C281C103000F0EEFFFF230028C1
:1021300000D02B7C5BB2BB4211D00F216B69891B95
:102140001B195E7AC9B2002E04D0891B48B2FFF772
:1021500038FE311C686900190830FFF73FFDF7BDF4
:1021600037B5051CFFF7A1FF182358436C690422FB
:102170002418211C68460C3101F01EFF237A0099B7
:10218000013B012B04D86846082201F015FF019994
:10219000081C3EBDF7B5141C061C0F1CFFF7E0FF22
:1021A000391C051C301CFFF780FF18235843736946
:1021B000082219181031023C684601F0FDFE614208
:1021C00061416B464C4201211B8815481AB22143DC
:1021D000824203D1281C00F053FE0AE011488242DB
:1021E00003D1019B081C984713E059432B88C91859
:1021F00029806B469B880022A95E1AB2914200DAC0
:102200002B806B46DB880022A95E1AB2914200DD6A
:102210002B80F369002B02D0301C291C9847F7BD96
:10222000FF7F0000FE7F000070B50D1C437901792F
:10223000041CC918C9B2FFF738FF2583061CFF210B
:10224000201CFFF732FF0025A071A379AB420CD907
:10225000201C291CFFF729FFB04203D12379ED1A76
:10226000657102E00135EDB2EFE770BD08B501F030
:10227000A9F808BD38B542790379041CD318037452
:10228000002343740133C371FEF72AFE0225831E27
:10229000AB43DBB2021C002B0FD12379617920689C
:1022A000C918C9B24368201C9847627923796574BC
:1022B000D31823740123E37103E0012813D0082805
:1022C00011D0201C103000F02AFF002801D001237B
:1022D000E371E379002B02D0201CFEF7A1FF637CA1
:1022E00001336374D0E7083A101CFF234242504187
:1022F0002374FE3BC0B22372E37138BD08B500F011
:102300007DFE014B186808BD1800002010B5072499
:10231000064A1369A343184310610F20936983434E
:102320001943916100F06AFE10BDC04600020050E2
:1023300070B5C400240F0BD0C601F60EB4400E4D8C
:1023400043009B0F5B199B001D68A543294319603F
:10235000810AC9B200290DD003038005C00E814057
:10236000064C9B0F1B199B001C68081C211C8143F9
:102370000A431A6070BDC046840000148600001431
:10238000024A1368184310607047C04600020050AC
:10239000074AC30F9B18011C1F2211401E3A8A4096
:1023A000101C10B59B001C682043186010BDC0466F
:1023B00082000014044A054BDB680340834202D0CC
:1023C000013A002AF7D1704791D003000002005073
:1023D000F0B5414C85B0002805D1226A3F4B13402F
:1023E00023623F4B05E08022236A120313432362DA
:1023F0003C4B01933C4BCA183C4B9A423BD93C4B5B
:10240000CA183C4B9A4202D84900012534E03A4BA5
:10241000CA183A4B9A4202D8890003252CE00028BA
:1024200001D1374B00E0374B2362042003ADFFF7A7
:10243000C1FF0422281C344901F0BEFDA022236AFA
:10244000D2020020134244D11A0301D4244800E0F0
:1024500024489A033DD4DA05D20D02328008504355
:102460001A04920F9B04A95CDB0E0233594301F05E
:10247000EDFB80002DE00025081C244901F0E6FB5F
:102480002249071C019801F0E1FB061C3B1C334369
:10249000DB0706D4022E04D0022F02D076087F0874
:1024A000F4E7236AAA031B0C1B041343BA1E13434D
:1024B000B21E520213432362226A154B04201340BA
:1024C0002362FFF777FF0198691C7843714301F09D
:1024D000BDFB05B0F0BDC04600020050FFFFF7FF96
:1024E0000024F40000805101FF1E0AFAFFE0F50508
:1024F0007F0F05FD7FF0FA02C08782FE40787D01E4
:102500002EC200006FD60000804A000040420F003B
:10251000FFFFFAFF0D4B10B5011E994204D80C4B7A
:10252000984202D80B4900E0191C0B4B00201B6895
:10253000DB0701D480200003FFF74AFF041C0021C1
:102540000220FFF7E3FE201C10BDC04680F0FA0217
:102550003F787D0140787D0100020050054B1A78DC
:102560005B781B02134305225343C018024B400003
:10257000185A704774070020844A000070B5061C82
:102580000C4D6C79287924020443301CFFF7E6FFD8
:10259000022E0BD16B782A781B021343022B05D134
:1025A000062C03D99620013CA4B2C0004443A0B23B
:1025B00070BDC0467407002070B5061C104C6579CC
:1025C00020792D020543301CFFF7C8FF221C03238E
:1025D00028321370012E02D1A37AE07A03E0022E92
:1025E00005D1237B607B00021843167005E0032EA3
:1025F00003D1E07FA37F00021843684380B270BD1F
:102600007407002010B50220FFF7B8FF054C011C2D
:10261000201CFEF705FA031CA04200D9231C98B227
:1026200010BDC0468813000008B50220FFF7A6FFC2
:10263000011CFA204000FEF7F3F9FA22031C920075
:10264000904200D9131C98B208BD0000012008B5C3
:10265000074B1A785B781B0213430A3B834206D967
:10266000FFF77CFF011C034801F080FB80B208BD2E
:10267000740700207869000038B5454CE378A278EB
:102680001B021343632B03D86423A3700023E3705E
:10269000E378A2781B0213433E4A934204D91823DD
:1026A0005B42A3701533E370E37CA27C1B021343EF
:1026B000FA229200934204D918235B42A3741B337D
:1026C000E374FFF7C3FF637922791B02134383424C
:1026D00002D92071000A6071637922791B021343C9
:1026E00002D1012263712271FFF78CFFE379A27995
:1026F0001B021343834202D9A071000AE071E379FF
:10270000A2791B021343E27BA17B12020A439A4285
:1027100002D9A3731B0AE373FFF786FF637A227A59
:102720001B021343834202D92072000A6072627A4C
:10273000237A12021A43637C217C1B020B439342CF
:1027400002D9130A227463741349E079A5794B897D
:1027500000022843984202D2180AA371E071E07B7C
:10276000A57B00022843984202D2A3731B0AE3739D
:102770008B899A4202D21A0A23726272627C217C8D
:1027800012020A439A4202D223741B0A637438BDB0
:1027900074070020E8FD00005A07002010B5282427
:1027A000604308498AB00918221C9631684601F036
:1027B00003FC6946221C044801F0FEFBFFF75CFFA6
:1027C0000AB010BD00F001007407002038B5051CE8
:1027D000FFF7E4FF1D4C637822781B02134303D0FC
:1027E000FDF70EFDFFF7F3FA637822781B0213431F
:1027F0000A2B0AD00B2B0AD0002B15D1681CFFF72F
:10280000A9FA3A20FFF780FA1EE0092009E0E079F2
:10281000A379000218430521FFF792FBFFF7D7FACF
:102820000420FDF7B9FC0FE0E078A378000218431C
:102830000721FFF7B1FB2F20FFF766FA60792379B4
:1028400000021843FFF786FA38BDC046740700201F
:10285000012208B5024B9A60FFF762F908BDC04635
:102860000000014010B5144C201CFFF791FD8021A1
:10287000201C89000022FFF75BFD8021FA220F4C0B
:102880000905201CD200FEF77FF8802223689205FC
:10289000134323608023C221FF20094A5B00136099
:1028A0008900535883437F38034353508022236861
:1028B000D2051343236010BD0200802E00000140AA
:1028C00000E100E00D4B0E4A1868C0B2434243419C
:1028D0001068C0B24242504140001843094B1B6887
:1028E000DBB25A4253419B001843074B1B68DBB2D3
:1028F0005A425341DB0018437047C04668420050BB
:102900006C4200507042005074420050704700000A
:1029100008B50748102102220023FDF74DFF00F003
:1029200095FEFEF747FB034800F090F908BDC0464E
:102930009D0700207869000001231840024B1860B1
:10294000BFF34F8F7047C0468C4200500123074AA7
:10295000434010B51360BFF34F8F002805D1041C0E
:1029600000F09CF9201C00F005FA10BD4042005018
:102970000123011C114A19401160BFF34F8F104908
:1029800042081A400A60BFF34F8F0E4982081A406E
:102990000A60BFF34F8F0C49C2081A400A60BFF3A8
:1029A0004F8F0A4902091A400A60BFF34F8F084A45
:1029B000400903401360BFF34F8F704780420050BF
:1029C0004C420050484200507C4200507842005037
:1029D0005042005010B50020FFF7CAFF0020FFF75B
:1029E000B5FF0023244C2360BFF34F8F23480321FE
:1029F00000F052FB2248032100F04EFB2148032146
:102A000000F04AFB2048032100F046FB1F48032149
:102A100000F042FB1E48032100F03EFB1D4803214D
:102A200000F03AFB1C48032100F036FB1B48032151
:102A300000F032FB1A48032100F02EFB1948032155
:102A400000F02AFB201C184C032100F025FB201C61
:102A5000032100F021FB1548032100F01DFB144861
:102A6000032100F019FB201C032100F015FB114885
:102A7000032100F011FB10BD8C4200508042005039
:102A80004C420050484200507C4200507842005076
:102A900050420050684200506C420050704200505A
:102AA00074420050404200504442005024420050C2
:102AB000584200505C42005008B50248FDF700FF44
:102AC00008BDC0469D07002030B5064C0648256A63
:102AD000284002430A43FF212262626A8A43134369
:102AE000636230BD00000E40F3FBFFFFCB0704D54F
:102AF0000220094A136A034313620220014203D0F1
:102B0000054A936A034393624B0704D50221024AA4
:102B1000D36A0B43D362704700000E407047704782
:102B200008B50B4BDA8A0B4B002A08D00A4A1A6008
:102B30000A4A5A600A4A9A6000F088FB07E0094A8C
:102B40001A60094A5A60094A9A6000F0C5F908BD3E
:102B50005A07002004000020BD320000F5320000BA
:102B600015330000352F0000612F00007D2F00007D
:102B700008B500F05DFB00F08BF908BD72B6034BA1
:102B800018780130C0B218707047C046BE080020E7
:102B9000044A1378013BDBB21370002B00D162B6FC
:102BA0007047C046BE08002010B5FFF7E7FF034B93
:102BB0001C68FFF7EDFF2412A0B210BDA40800208E
:102BC00038B5041C0D1CFFF7D9FF0022064B9A8074
:102BD000A54200D9054A1A601A6812021A60012239
:102BE0009A71FFF7D5FF38BDA4080020F87F0000D8
:102BF000114B10B5041E9C420DD8104B98420BD8B7
:102C00001420FEF759FA00220D4B1A60BFF34F8FC4
:102C10001A20211C0CE01C1C1A20FEF74DFA012280
:102C2000084B1A60BFF34F8F1420074BE11889B28D
:102C3000FEF72AFA10BDC046F4BF0000F87F00007E
:102C400044420050584200500880FFFF0A4B10B524
:102C5000011C984200D9191C89B20020FEF7EFFC34
:102C6000064B041C984200D91C1CFFF787FF044B3D
:102C70001C81FFF78DFF10BD78690000F87F000010
:102C8000A408002010B5041CFFF778FF024B9C80BD
:102C9000FFF77EFF10BDC046A408002038B5051E12
:102CA00004D00122164B1A60BFF34F8F0024FFF7A8
:102CB00065FF144B1A209C71FEF7FEF9124B1C6045
:102CC000BFF34F8F1420FEF7F7F9104B1C60BFF3D2
:102CD0004F8FFFF75DFF01230D4A6B401360BFF379
:102CE0004F8FA5420AD00620FEF7C2FB051C201C10
:102CF000FEF7BEFB011C281CFFF762FF38BDC04673
:102D000024420050A4080020584200504442005081
:102D10005C42005038B5154DAB792C1C002B23D0EC
:102D20000020FEF7ADFB2B89984205D30020FFF76A
:102D3000B5FF0023AB7117E00220FEF7A1FBAB88C3
:102D40002A68181A8000101828602B68002B01DAF6
:102D500000232B602268064B9A4200D9236020682A
:102D6000001280B2FFF744FF38BDC046A40800201F
:102D700000F4BF0010B5041E02D00020FFF78EFF44
:102D800001235C40024B1C60BFF34F8F10BDC04657
:102D90002442005008B5011C1420FEF775F908BD47
:102DA00037B5011C041E0CD0002401A804220D1DFF
:102DB00001F002F9019B002B03D00134E4B2291C7D
:102DC000F3E7201C3EBD01230138C0B2FF2803D029
:102DD0000A2253439BB2F7E7181C704710B500282E
:102DE00002DA4042012401E044424441002805D077
:102DF00001340A21E4B200F0B9FFF7E7201C10BD4E
:102E0000F7B5019308AB1C880588061C0F1C281C0D
:102E1000211C009200F0A0FF89B2002904D0002FED
:102E20000BDD641AA4B201E0002F07DD019B0199BC
:102E30001B1B64199D4207DB07E00C1C009B0099DB
:102E40001B199D4201DD2C1BA1B23180F7BDF7B5E6
:102E5000041C00881D1C0F1C161CFFF7BFFF01235C
:102E6000984204D90238C0B2FFF7ADFF031C0093AB
:102E7000391C321C2B1C201CFFF7C2FFF7BD0000C1
:102E800008B50022014BFFF7E2FF08BDFFFF00007D
:102E900010B50C4C201CFFF77BFA8021201C890206
:102EA0000022FFF745FAC221074B89005858074A0C
:102EB00002405A508022D2001A60054A054B1A601F
:102EC00010BDC0460400002F00E100E0FFFF00FF3E
:102ED00028420050B0080020114A38B51168114B43
:102EE000051C0B4013601048012100F0D5F880212B
:102EF0000E4C2A1C201C0905FDF746FD80220121ED
:102F00002368920513432360094B1A68116000225D
:102F10009A8080222368D2051343236038BDC046BF
:102F200034000050FBFBFFFF28420050000011401E
:102F3000B008002010B5084AD3880133DBB299B23B
:102F40001489BFF35F8FA142FAD0044C2468E05487
:102F5000BFF35F8FD18010BDB008002010000020AB
:102F6000054B1989BFF35F8FDA889142F8D19B88AE
:102F7000002BF5D17047C046B0080020044B054A2D
:102F800019680A401A601968034A0A401A607047B3
:102F900000001140FFFFFFBFFFFFFFDF0A490B8961
:102FA000CA889BB2BFF35F8F93420CD08020074A40
:102FB00001331268DBB2D25C8000520012188A80A2
:102FC000BFF35F8F0B817047B00800201000002016
:102FD000084A08B59388002B06D0012110681940D3
:102FE0005B100160938001E0FFF7D8FF0122024BE4
:102FF0009A6008BDB0080020000011400723F7B513
:103000001D4D1E4E2C6901AF0422381C311C1C4082
:1030100000F0D2FFA0222B6AD2020020134215D169
:103020001A0301D4164800E016489A030ED4DA05B4
:10303000D20D0232800850431A04920F9B04B95CEF
:10304000DB0E0233594300F001FE80000E4F386062
:10305000022C02D0A400361970680F23A969194008
:10306000013100F0F3FD094B78600949C01800F008
:10307000EDFDB860F7BDC04600020050384B0000BF
:103080000024F400008051011400002020A107005A
:1030900040420F0070470000F8B507244509184B5F
:1030A0002540ED1880080A1CAD0104400126C829FE
:1030B00005D1371CA740281C391C002206E0C9296D
:1030C00011D1371CA740281C391CC73A0834A64028
:1030D000FEF770FD6B680B4A3B436B601368B343AC
:1030E0001F4317600BE0311C281CA140FEF762FD56
:1030F00002235B42A3401C1C686804406C60F8BD5E
:1031000000014001340000500278031C00207F2A97
:1031100004D85878012340080130184070470278DD
:10312000031C00207F2A08D85A78531ED8B24308BF
:103130005208981A431E9841C0B27047034B5B8AED
:10314000002B01D1024800E0024870475A070020D6
:10315000FD7F0000FF7F000010B5041CFFF7EEFFAD
:10316000011C201CFFF760F810BD000030B591B0C5
:1031700008AC201C0021FDF741FCFF2323741E4BEB
:1031800008931E4B63611E4B23831E4BE361FFF7C5
:10319000D5FF011C201CFFF747F8201C0021FEF77B
:1031A0008EF8002824DBC1B2201CFEF7D9FF164D93
:1031B000002806D1281CFEF76DFF032000F0FCFB61
:1031C000E5E701A8291C1A2200F0F6FE201CFFF7F3
:1031D00051F8002805D1281C01A91A2200F0ECFEA4
:1031E00002E0032000F0E8FB281CFEF75DFFCEE7BD
:1031F000FEF742FF11B030BD784A00005C4B000082
:10320000FF7F0000593100005A07002008B54188AF
:1032100000290AD00023C05EC317C0185840FA2303
:103220009B00584300F012FD81B2081C08BD00004D
:1032300010B5054C201CFFF7ABF80021201C0A1C20
:10324000FFF776F810BDC046103D8027A02208B5D4
:10325000144B011CDB8AD205012B06D1D06B124B1B
:10326000034002200343D36303E0136B0F4803437F
:1032700013630F4B4808C01800F0E8FCC02303227A
:103280009B05023818430B4B0B495862DA60013A30
:103290005A60C322FF2092008B5883433F38034378
:1032A0008B5008BD5A070020FDFDFFFF04040000FD
:1032B0000024F4000000054000E100E010B50A4AD7
:1032C00013880133DBB299B25488BFF35F8FA142F8
:1032D000FAD0064C2468E054BFF35F8F118080223F
:1032E000034B52011A6010BDBA08002020000020D4
:1032F00000E100E0054B5A88BFF35F8F1B889A42BC
:10330000F8D1034B9B69DB00FBD57047BA0800205E
:10331000000005400022014B5A6070470000054044
:1033200010B5134A1348538814889BB2BFF35F8FBC
:10333000111CA34217D18369DB0017D480220E4BE6
:103340005201DA6712E00D4C01332468DAB2A45C52
:1033500093B2084A1460BFF35F8F4B800A88BFF3B3
:103360005F8F934202D082691202ECD510BDC04635
:10337000BA0800200000054004E100E02000002021
:10338000002238B50C4B1A700C4C6568012D06D024
:1033900059236360433B636072336360F4E7281C26
:1033A000FEF7EEFF281CFFF705F80548FFF7B2F817
:1033B0000023636038BDC046BE080020FC000050FA
:1033C00080F0FA0210B586B0FCF75EFF0120011C08
:1033D000FEF7F6F9FDF7C2FE0022164B01AC201CE9
:1033E00015491A70FDF70AFB144B0193052323744A
:1033F000201C0121FDF763FFC0B20F2809D8104A35
:1034000013780133DBB2022B01D81370F0E70023ED
:10341000FBE7FDF7D1FEFEF7D3F8FCF747FFFFF718
:10342000A5FEFCF731FF0120011CFEF7C9F9FDF7ED
:1034300095FEDDE702000020BC4C0000B84C000007
:10344000BF08002038B50C1C051CFDF7D1FA0E2C66
:103450001DD8134B4833185D124B1B78002B02D13B
:10346000FEF700F817E0012B02D1FEF701F812E099
:1034700072B60D4C237801332370FEF701F82378E0
:10348000013BDBB22370002B05D162B603E00F2CA9
:1034900005D1044B187810216956FEF74DFD38BD53
:1034A000BC4C0000BF080020BE080020044A13786E
:1034B000013BDBB21370002B00D162B67047C046EF
:1034C000BE080020FF210A4A0138536AC0B28B436C
:1034D000191C822803D8074B8000C35800E0064B14
:1034E0000120DB065B0F9840031C0B4353627047BF
:1034F00000000E40BC4D000098420050C0B20123B5
:10350000011C094A19401160BFF34F8F0749420857
:103510001A400A60BFF34F8F80081840044B1860B0
:10352000BFF34F8F7047C046944200509042005006
:103530005442005008B5002817DB0C4BC0B218707D
:1035400072B60B4A0620137801331370FFF7D6FFCB
:10355000084A094B11680B401360FFF7A7FF802151
:10356000064AC90513680B43136008BDC008002054
:10357000BE08002034000050FEFEFFFF2000014086
:1035800010B501240A4B9C6072B60A4A13781B19C5
:103590001370094B187840B2FFF7B0FF074A084B89
:1035A00011680B4023431360FFF780FF10BDC04636
:1035B00020000140BE080020C00800203400005058
:1035C000FFFEFFFF1021002208B5084B0C205B789E
:1035D0000133DBB29942524152421340044A9B00EC
:1035E000D3181856FFF7A6FF08BDC046C008002034
:1035F000BC4F000010B5FFF7E5FF104A10495378A3
:103600009B00CB18997B5C7B91700021201CD170B2
:103610005160FFF757FF0B4A0B4B516A402C04D9FE
:10362000A41124020B40234300E00B40802153628D
:10363000136A09010B43136210BDC046C008002085
:10364000BC4F000000000E40FFFCFFFFF8B5002655
:1036500041480321FFF720FD40480321FFF71CFDEF
:103660003F480321FFF718FD3E48C821FFF714FD2E
:103670003D48C821FFF710FD3C48C821FFF70CFD6D
:103680003B4C3C48C821FFF707FD3B48C821FFF7EA
:1036900003FD201CC921FFF7FFFC2660BFF34F8FFD
:1036A000A0220127D205D369344C3B43D361201CAF
:1036B000FEF76EFE8021201C314C321C8901FEF782
:1036C00037FE311C201C2F4AFDF75EF9802223684B
:1036D0009205134323608023C2222B4D9B0092004E
:1036E0002B60AB5829492A4C0B40802109020B431F
:1036F000AB50201CFEF74CFEFEF700FE254900F003
:10370000A5FA421E1204201C0821FEF711FE042215
:10371000214C311C131C201CFFF7D6F9236A391CDD
:10372000BB40FB402362236A201C3B432362276388
:10373000FFF7DCF98023C7229B052B609200AB5872
:1037400012490B40802109020B43AB50134B5E70B2
:10375000FFF750FFF8BDC046944200509042005021
:10376000544200502C42005034420050304200502D
:1037700020420050384200503C4200500300C02E0E
:103780002000014050C3000000E100E0FF00FFFF07
:103790001CFE232600093D0000000E40C00800204A
:1037A00038B5FDF7BDFD104CE083FDF77FFA0F4BF8
:1037B00020841B7A002B16D0FDF7B2FD46250C4C59
:1037C0006843E36BC018E063FDF770FA4543236C70
:1037D000ED18084B25641B88012B02D1A3689B08B8
:1037E000A360FDF799FF38BD6C060020C0080020DB
:1037F000E40600202807002010B5164B1A68191C93
:103800001307FAD480230A685B001A4002D0124BD7
:103810001B68F7E71021114C63780133DBB2994242
:10382000524152421340637007D1FFF7B9FF0C4B6E
:103830001B885A1E9341DBB22372FFF7DBFE6378CD
:10384000084A9B00D318DB7B002B01D0FFF762FAFC
:1038500010BDC04630000E4000000E40C0080020E1
:1038600028070020BC4F000010B5194B194C1B68ED
:10387000DB0529D52268184B92B2DA60DA78191C78
:10388000012A03D9DA68586882185A60DA78013256
:10389000D2B2DA70472AE8D9226A104B1048134096
:1038A00023628A78CB6852001B019BB213520B7AB9
:1038B000002B07D04B688A780A49920050581B01A8
:1038C000C3185350FFF798FF0123236310BDC04670
:1038D00030000E4000000E40C0080020FFF7FFFF40
:1038E0006C060020E406002008B5124B994209D16D
:1038F000114B1A7E5B7E1B0213435A1E93410F4AE3
:10390000137015E00E4B994207D10E4B1B68DBB2CA
:10391000002B0DD10120011C08E00B4B994207D16F
:103920000A4B1968C9B2002902D10220FCF7D4FF62
:1039300008BDC0468C0700207407002090040020BA
:103940007E0700205C420050800700202442005087
:1039500010B5084C0021201CFDF750F8FF232374FC
:10396000054B2360054B6361054B2383054BE361E6
:1039700010BDC046D0080020784A00000C5000005E
:10398000FF7F0000E93800000121024A13688B43E1
:103990001360704700C000500121024A13680B43B6
:1039A0001360704700C0005008B5FEF7DBF8014B0C
:1039B000188008BDFE08002008B5084B1B89002BA5
:1039C00000D10820064B9A78824205D09870FFF704
:1039D000EBFF3220FEF7E0F808BDC0465A07002092
:1039E000FE08002008B5034B9B78082B01D1FFF798
:1039F000E3FF08BDFE08002008B50820FFF7DCFF44
:103A000008BD031C4A000020934206DC8B4201DD06
:103A1000D31A01E0002B00DDD8B2704708B540088A
:103A2000142803D9FFF7E8FF002002E00A21FFF77E
:103A3000E8FF08BD38B58408C82C03D9FFF7DCFFC0
:103A400000200BE00A21201CFFF7DBFF051C201CD7
:103A50000A212838FFF7D5FF4019C0B238BDFA2136
:103A600008B5C90000F078F988B20A21FFF7C9FF4C
:103A700008BD08B50A2100F0E9F880B28C2803D906
:103A8000FFF7BAFF002002E01421FFF7BAFF08BDDC
:103A900010B50A2100F0DAF884B2201C282100F0C9
:103AA0005BF9B823FF3388B29C4203D9FFF7A4FF28
:103AB000002002E01421FFF7A4FF10BD10B50A2179
:103AC00000F0C4F884B2201C282100F045F988B227
:103AD000502C03D9FFF790FF002002E01421FFF7DC
:103AE00090FF10BD10B50A2100F0B0F884B2201C80
:103AF000282100F031F9B823FF3388B29C4203D962
:103B0000FFF77AFF002002E01421FFF77AFF10BDD3
:103B1000144A08B59278031C0020072A21D8101CEB
:103B200000F08AF804080C1414101C18181CFFF775
:103B300075FF16E0181CFFF792FF12E0181CFFF744
:103B400098FF0EE0181CFFF7A3FF0AE0181CFFF710
:103B500071FF06E0181CFFF7B1FF02E0181CFFF729
:103B6000C1FF08BDFE08002038B5084C2588FDF7C8
:103B7000F9FF401B80B2FFF7CBFFA28883B29A42C5
:103B800002D0A380FEF7D8FE38BDC046FE08002054
:103B900073B56B469D1D061C2980002A03D0291C85
:103BA0000222FDF709F90524013CE4B2002C07D0FC
:103BB00032882B889A4205D06420FDF7E1FFF3E7B5
:103BC000012000E0002076BD70B5041C0C4B221AC9
:103BD00092B28A4211D222785340082201265D1007
:103BE0001E40ABB2002E02D0064B5D40ABB2013A94
:103BF000D2B2002AF2D10134E9E7181C70BDC046E8
:103C0000FFFF000001A0FFFF70B5051C0C1C161C77
:103C1000FFF7DAFF321C011C2819FFF7B9FF70BD4E
:103C200008B5EE23021C03489B00C0181A21FFF7B9
:103C3000EBFF08BD00F0010002B4714649084900DD
:103C4000095C49008E4402BC7047C046002243080C
:103C50008B4274D303098B425FD3030A8B4244D354
:103C6000030B8B4228D3030C8B420DD3FF22090296
:103C700012BA030C8B4202D31212090265D0030B55
:103C80008B4219D300E0090AC30B8B4201D3CB034B
:103C9000C01A5241830B8B4201D38B03C01A52418D
:103CA000430B8B4201D34B03C01A5241030B8B428F
:103CB00001D30B03C01A5241C30A8B4201D3CB027A
:103CC000C01A5241830A8B4201D38B02C01A52415F
:103CD000430A8B4201D34B02C01A5241030A8B4262
:103CE00001D30B02C01A5241CDD2C3098B4201D37A
:103CF000CB01C01A524183098B4201D38B01C01AF8
:103D0000524143098B4201D34B01C01A524103096E
:103D10008B4201D30B01C01A5241C3088B4201D31D
:103D2000CB00C01A524183088B4201D38B00C01ACA
:103D3000524143088B4201D34B00C01A5241411AF1
:103D400000D20146524110467047FFE701B50020FE
:103D500000F0FCF802BDC0460029F7D003B5FFF71C
:103D600075FF0EBC4243891A1847C04603460B43F1
:103D70007FD4002243088B4274D303098B425FD364
:103D8000030A8B4244D3030B8B4228D3030C8B4290
:103D90000DD3FF22090212BA030C8B4202D3121276
:103DA000090265D0030B8B4219D300E0090AC30B4B
:103DB0008B4201D3CB03C01A5241830B8B4201D3F8
:103DC0008B03C01A5241430B8B4201D34B03C01AE1
:103DD0005241030B8B4201D30B03C01A5241C30A59
:103DE0008B4201D3CB02C01A5241830A8B4201D3CA
:103DF0008B02C01A5241430A8B4201D34B02C01AB4
:103E00005241030A8B4201D30B02C01A5241CDD258
:103E1000C3098B4201D3CB01C01A524183098B42A3
:103E200001D38B01C01A524143098B4201D34B018C
:103E3000C01A524103098B4201D30B01C01A5241EF
:103E4000C3088B4201D3CB00C01A524183088B4276
:103E500001D38B00C01A524143088B4201D34B005F
:103E6000C01A5241411A00D20146524110467047D1
:103E70005DE0CA0F00D04942031000D340425340D6
:103E800000229C4603098B422DD3030A8B4212D396
:103E9000FC22890112BA030A8B420CD389019211C8
:103EA0008B4208D3890192118B4204D389013AD005
:103EB000921100E08909C3098B4201D3CB01C01ADA
:103EC000524183098B4201D38B01C01A52414309ED
:103ED0008B4201D34B01C01A524103098B4201D3DB
:103EE0000B01C01A5241C3088B4201D3CB00C01A48
:103EF000524183088B4201D38B00C01A5241D9D260
:103F000043088B4201D34B00C01A5241411A00D2E0
:103F10000146634652415B10104601D34042002BDC
:103F200000D54942704763465B1000D3404201B55B
:103F3000002000F00BF802BD0029F8D003B5FFF710
:103F400015FF0EBC4243891A1847C0467047C04649
:103F500010B50021041C00F0F3F8044B1868C36B83
:103F6000002B00D09847201CFCF76CFD705000001F
:103F700070B50D4E0D4D0024AD1BAD1005D0A30046
:103F8000F35801349847A542F9D100F0E9F9084EF9
:103F9000084D0024AD1BAD1005D0A300F35801342B
:103FA0009847A542F9D170BD50040020500400206C
:103FB000500400206C04002070B50F2A32D9041C74
:103FC0000C430B1CA40731D1151C041C103D2D09FA
:103FD00001352D0149191E6826605E6866609E687D
:103FE000A660DE681033E66010349942F3D10F23E7
:103FF00045191340032B1BD91C1F0023A4080134AF
:10400000A400CE58EE500433A342FAD1ED18C918DB
:1040100003231A4005D00023CC5CEC5401339342B7
:10402000FAD170BD051C002AF5D1FAE7051CF2E7AC
:104030001A1CF8E770B583073FD0541E002A3BD006
:10404000CEB2031C032503E0621E002C34D0141CE6
:1040500001335A1E16702B42F6D1032C24D9FF25AA
:104060000D402A0215432A0415430F2C11D9261C92
:10407000103E3609013636011A1C9B191560556031
:104080009560D56010329342F8D10F221440032C72
:104090000AD9261FB6080136B6001A1C9B1920C281
:1040A0009342FCD103221440002C05D0C9B21C1944
:1040B00019700133A342FBD170BD141C031CCCE763
:1040C00010B5830727D00378002B26D0031C0321CB
:1040D00002E01A78002A1CD001330B42F9D119688A
:1040E0000F4A104C8A188A4322420FD104331968B0
:1040F0000B4A8A188A43224208D104331968084AB5
:104100008A188A432242F1D000E001331A78002A4B
:10411000FBD1181A10BD031CE1E70020FAE7C046E6
:10412000FFFEFEFE8080808008B5034B002B02D08E
:10413000024800F089F808BD000000005942000064
:10414000F0B556465F464D464446F0B40E1C3C4B17
:1041500087B01B68019003934933FF330493A42273
:10416000039B52009F58002F4CD0049B984600237D
:104170009B46C4235B009C46BC4463460293C62313
:104180005B009A467C68BA44A5007D19013C08D5BD
:1041900026E06B1DFF331B68B34204D0043D013C95
:1041A0001ED3002EF5D17B686A68013BA3423AD04A
:1041B0005B466B60002AF1D07B6802999946012327
:1041C000A34009680591194223D190477B684B456C
:1041D000C5D143461B68BB42C1D1043D013CE0D27E
:1041E000184B002B0ED07B68002B23D13B68002B93
:1041F00024D04246381C136000E000BF43461F68CD
:10420000002FB6D107B03CBC90469946A246AB46BB
:10421000F0BD51460968194207D12B1C8433196837
:1042200001989047D2E77C60C4E72B1C8433186860
:104230009047CBE73B68B8461F1CE1E70023FAE74D
:10424000705000000000000008B5011C0022002092
:10425000002300F01BF808BD38B5094B094CE41ADF
:10426000A41009D0084AA518AD00ED182B68013C30
:104270009847043D002CF9D100F078F838BDC046CD
:104280006C04002070040020FFFFFF3FF8B5444697
:104290005F4656464D469B462F4BF0B41C68A42300
:1042A0005B00051CE0580E1C904600284BD043686C
:1042B0001F2B0DDC5C1C002D21D102339B004460C0
:1042C0001E5000203CBC90469946A246AB46F8BD25
:1042D000224B002B3CD0C820400000E000BF00284B
:1042E00036D0A42200235200A15843600160A050A0
:1042F00040328350043283500124002DDDD09A00D7
:1043000091468144424688214F467A50C422520049
:104310009046804442468739994012688A460A434B
:104320009446424661461160842249465F465200E7
:104330008F50022DC1D1021C55468D32FF321168BB
:104340000D431560B9E7201C4D30FF30E050AEE75B
:1043500001204042B6E7C046705000000000000057
:10436000F8B5C046F8BC08BC9E467047F8B5C046D4
:10437000F8BC08BC9E467047141719181A070506A2
:104380001F20212223240000000000004000000024
:1043900014000000540000000024F400000000009D
:1043A00000000000000000000000000010270000D6
:1043B000000000000080510100000000000000002B
:1043C000F1090000566D696E75733A0056706C7590
:1043D000733A0056623270696E3A00566231706903
:1043E0006E3A0056623070696E3A006164633A005A
:1043F00074656D703A00706F696E7420322E0070B3
:104400006F696E7420312E00496F75743A20200058
:1044100076616C75653A20003330306D4100313083
:10442000306D4100313030306D41003130306D4100
:104430000063616C69622E20702E3A00566F7574AD
:104440003A0056312D363A005662383A00566237F5
:104450003A005662363A005662353A005662343AAD
:10446000005662333A005662323A005662313A00E0
:1044700056696E3A006578706572742044414E4703
:104480004552210074656D7020696E7465726E000E
:1044900074656D702065787465726E00492064697A
:1044A000736368617267650049206368617267655C
:1044B00000766F6C746167650062616C616E636544
:1044C00020706F72742100626174746572792100CA
:1044D000646973636F6E6E65637400636F6E6E659F
:1044E00063740064542F6474002D64560056206C6D
:1044F000696D6974006164617074206469733A0065
:10450000442F4320726573743A00442F432063792B
:10451000636C65733A0063617020434F66663A00CE
:1045200074696D653A007C657874726E2054434FEF
:104530003A007C64542F64743A00657874726E207B
:10454000543A007C69676E7220667273743A007C1C
:1045500064563A00656E61622064563A0062616C8E
:104560002E206572723A006D696E49643A004964A2
:104570003A006D696E49633A0049633A00436170DD
:104580003A0056636F3A0056643A0056733A005642
:10459000633A00563A00626174746572793A006158
:1045A0006476616E6365640073696D706C65005458
:1045B0002D70726F67720054656D70657261007066
:1045C000726F6772616D00616C77617973006578F5
:1045D000742E20416463006578742E206465620047
:1045E0006465627567006E6F726D616C00646973FB
:1045F00061626C65640070696E33380070696E3793
:104600000074656D70007265736574006D656E751C
:10461000733A007C6F75747075743A007C737065C2
:1046200065643A00554152543A00616463206E6FEC
:104630006973653A00696E707574206C6F773A2003
:10464000006D696E2049643A006D696E2049633AD5
:1046500000626565703A006469736368206F66661E
:104660003A007C66616E2054206F6E3A0066616E7F
:10467000206F6E3A006261636B6C696768743A0020
:104680004C4544004E695A6E004C343335004C346E
:104690003330004C69706F004C696C6F004C696678
:1046A000650050622020004E694D48004E69436409
:1046B00000556E6B6E004E6F6E65006D696E2E005C
:1046C00072657365742064656661756C74006361FE
:1046D0006C6962726174650073657474696E677386
:1046E0000065646974206261747465727900636145
:1046F00070616369747920636865636B00443E434D
:1047000020666F726D61740073746F726167652BE0
:1047100062616C616E630073746F726167650066DD
:1047200061737420636861726765006469736368AC
:10473000617267650062616C616E636500636861E8
:104740007267652B62616C616E636500636861729C
:104750006765006578742E74656D702E6375746F6F
:1047600066660074696D65206C696D6974006361CB
:10477000706163697479206375746F666600696E31
:10478000707574205620746F206C6F770048572026
:104790006661696C7572650062616C616E636572F9
:1047A00020646973632E00696E742E74656D702EBB
:1047B0006375746F666600626174746572792064F3
:1047C0006973632E006E6F6C696D697400206E6F83
:1047D00000796573005500006D00432F6D002500C2
:1047E000F40041680043005768005700560041003C
:1047F0000024F40010270000000000000080510198
:1048000000000000040000000000000000000000A4
:104810000100000000000000000000000000000097
:104820000200000000000000000000000000000086
:104830000000000000000000000000000000000078
:104840000300000000000000000000000000000065
:10485000FD0B00004C4700003D47000035470000BD
:104860002B4700001F4700001747000008470000C3
:10487000FD460000EE460000E1460000090001028E
:1048800003040506070809000307080900010203DD
:1048900004070809000304070809000900000000D4
:1048A0000000000000000000C50E0000B448000039
:1048B000000000006F7074696F6E730001FA7D3C38
:1048C0001E0A0101010308141E010000000000007F
:1048D0000000000000000000C711000060EA636FE4
:1048E0006D706C6574653A20006572726F723A2063
:1048F000202020004E2F410052455645525345205E
:10490000504F4C41524954590043616C2E657272AC
:104910002E2020463A00656570726F6D20726573B7
:1049200065743A00202020202020202020202020F4
:1049300079657300726573657474696E6720656567
:1049400070726F6D00656570726F6D207265736552
:10495000740A6572726F723A2000706C65617365DB
:104960002063616C6962726174650063616C696285
:104970006174696F6E206572726F72006368656141
:104980006C692D636861726765720A76302E3939F9
:10499000004E45454420666F7263652062616C2E4F
:1049A0000A7365742E202D2D3E20594553000000BA
:1049B00001040104010101010101010000010101E3
:1049C0000101010002010300E8030100EE470000BD
:1049D000E8030000EC47000064000000EA47000024
:1049E00064000000E747000064000000E5470000A5
:1049F000E8030100E2470000E8030100E04700008F
:104A000001000000DE470000E8030100EC47000061
:104A100001000000D747000064000000DA470000F2
:104A200001000000D847000001000000D847000046
:104A3000010000000000000001000000D547000058
:104A400080250000004B00000096000000E10000FF
:104A500000C20100460003008813701701003200F5
:104A600032001027000000000300000000000000DA
:104A7000000000000000000003210000952100005C
:104A80000102020401000100010001000100B00464
:104A90000807520300005203B0040807E8030000AF
:104AA000E803D0079209D60600006C07E40C100E4C
:104AB000D007E40CB80B100E0410C409A60EAC0D00
:104AC000740E6810B80B0A0F890C740ECC10B80B5A
:104AD0000A0F890C740EFE10B80B0A0F890C4006E1
:104AE0006C071405400678050100A00FD0070100EF
:104AF00001000100A00F01000100010004000001FD
:104B00000202020202030405B6460000AC460000A1
:104B1000A7460000A24600009D46000098460000FF
:104B2000934600008E46000089460000844600003F
:104B3000B146000080460000010202040024F40097
:104B40000000000080F0FA021027000000000000C2
:104B500000000000000000000080510157460000E6
:104B6000FF7F000044030000600700206400000095
:104B70005802AC2651460000FF7F00004D000000A7
:104B8000620700200100000000000100494600000B
:104B9000FF7F0000400000006407002001000000CB
:104BA0000100F40141460000FF7F000040000000CA
:104BB00066070020010000000100F40135460000F6
:104BC000FF7F00004103000068070020E8030000A9
:104BD000581B307524460000FF7F000002000000D3
:104BE000904C000001000000000004001C46000082
:104BF0000200000001000000884C000001000000DD
:104C00000000040013460000020000000200000043
:104C1000744C000001000000000002000C4600007F
:104C2000FF7F000002000000644C00000100000053
:104C30000000010006460000FF7F000000000000A9
:104C40000000000000000000000000000000000064
:104C50000000000000000000000000000000000054
:104C6000000000006C4C000072070020A845000006
:104C70009F4500007C4C00007007002001460000AA
:104C8000FC450000F6450000404A00006E07002089
:104C9000984C00006C070020ED450000E645000040
:104CA000E0450000D7450000CE45000000000000B0
:104CB000000000000000000045340000AF4D00007F
:104CC000A54D00009B4D0000914D0000874D000058
:104CD0007D4D0000734D0000694D00005F4D0000E8
:104CE000554D00004B4D0000414D0000374D000078
:104CF0002D4D0000234D00001C4D0000134D000001
:104D000000000000000102030405060708090A0B61
:104D10000C0D0E73657474696E6773007479706539
:104D20003A20005662365F70696E3A20005662354E
:104D30005F70696E3A20005662345F70696E3A2087
:104D4000005662335F70696E3A20005662325F70BF
:104D5000696E3A20005662315F70696E3A200056E3
:104D600062305F70696E3A20005465787465726EC7
:104D70003A200056696E3A20202020200054696EA7
:104D80007465726E3A2000566F75744D75783A20CE
:104D900000496469736368613A200049736D7073F8
:104DA0003A20202000562D5F70696E3A2020005670
:104DB0002B5F70696E3A20200000000034420050E2
:104DC000384200503C42005098420050604200502F
:104DD0009842005064420050684200506C420050BB
:104DE00070420050744200508C4200507842005093
:104DF0007C42005098420050984200509842005027
:104E000098420050404200504442005048420050F6
:104E10004C420050504200508042005054420050DA
:104E2000584200505C420050904200509442005062
:104E3000984200509C4200501C42005018420050C2
:104E40001442005010420050844200500C42005066
:104E50000842005004420050004200509842005066
:104E600098420050204200502442005028420050F6
:104E70002C4200503042005088420050984200506E
:104E8000984200509842005098420050984200507A
:104E9000984200509842005098420050984200506A
:104EA000984200509842005098420050984200505A
:104EB000984200509842005098420050984200504A
:104EC000984200503C420050984200509842005096
:104ED000984200509842005098420050984200502A
:104EE000984200509842005098420050984200501A
:104EF000984200509842005098420050984200500A
:104F000098420050984200509842005098420050F9
:104F100098420050984200509842005098420050E9
:104F200098420050984200509842005098420050D9
:104F300098420050984200509842005098420050C9
:104F400098420050984200509842005098420050B9
:104F500098420050984200509842005098420050A9
:104F60009842005098420050984200509842005099
:104F70009842005098420050984200509842005089
:104F80009842005098420050984200509842005079
:104F90009842005098420050984200509842005069
:104FA0009842005098420050984200509842005059
:104FB0009842005098420050984200509842005049
:104FC000984200503C420050002B0800FF010100B5
:104FD000012B0900FF2F0201022B0A00FF02000033
:104FE000062B0E00FF2F0201052B0D00FF0303000F
:104FF000042B0C00FF2F0201032B0B00FF2E0600D9
:10500000FF2D0700FF830500FF2F0201F54400007C
:105010000F0000004D0000008C0700200100000080
:10502000000001008F4500000E000000410000005C
:105030007E0700200A00000000008813874500005A
:105040000F00000041000000800700200A0000005F
:1050500000008813000000000000000000000000B5
:1050600000000000000000000000000043000000FD
:0450700028000020F4
:08507400ACB0FF7F0100000059
:10507C0001E101001F2B00001D2B00001D2B000067
:10508C00A307002080F0FA0280F0FA023200000040
:10509C00A307002000000000000000001403002003
:1050AC007C030020E403002000000000000000004E
:1050BC0000000000000000000000000000000000E4
:1050CC000000000000000000000000006C50000018
:1050DC0000000000000000000000000000000000C4
:1050EC0000000000000000000000000000000000B4
:1050FC0000000000000000000000000000000000A4
:10510C000000000000000000000000000000000093
:10511C000000000000000000000000000000000083
:10512C000000000000000000000000000000000073
:10513C000000000000000000000000000000000063
:10514C0001000000000000000E33CDAB34126DE600
:10515C00ECDE05000B000000000000000000000069
:10516C000000000000000000000000000000000033
:10517C000000000000000000000000000000000023
:10518C000000000000000000000000000000000013
:10519C000000000000000000000000000000000003
:1054CC0029410000E9000000390C0000A10E000089
:1054DC00DD130000B92A000051390000C1000000A2
:0454EC0000000000BC
:00000001FF
