:100000000C941A060C9442060C9442060C94420678
:100010000C946C090C9442060C9442060C94420613
:100020000C9442060C94D0090C949C090C94A709DA
:100030000C9442060C94580A0C948D0A0C944206B7
:100040000C9448090C9442060C9442060C94420607
:100050000C94420661146D1472147514771489148B
:10006000861475146114A637A837AA37AE37AE3791
:10007000AC37B237B0370000000040D50662000050
:100080000000F567E6307A013200A42AE803B71BC6
:1000900032003EA82C01000000000000000000001B
:1000A000000000000000000000008DBBD636FC16EA
:1000B000E808000000000000000043BFA80E000098
:1000C000000015D65110000000009BD9C820000088
:1000D0000000CAD863100000000007D857100000C5
:1000E000000040D85F1000000000A5CF58107C0130
:1000F0003200A82AE803320A3200EA3D2C01000649
:100100000800FF01010A01060900FF0302000206C0
:100110000A00FF00000A06060E00FF0302000506A3
:100120000D00FF02030004060C00FF03020003069B
:100130000B00FF04060007060700FF030200420150
:1001400000006F7074696F6E7300460003008813BF
:1001500070170100320094113200E80310270000EC
:100160000000030000000000000080250000004B9C
:1001700000000096000000E1000000C20100010044
:100180000100010001000100B00408075203000053
:100190005203B0040807E8030000E803D0079209FF
:1001A000D60600006C07E40C100ED007E40CB80B68
:1001B000100E0410C409A60EAC0D740E6810B80B16
:1001C0000A0F890C740ECC10B80B0A0F890C740E30
:1001D000FE10B80B0A0F890C40066C071405400688
:1001E00078050100A00FD007010001000100A00F59
:1001F00001000100010004000001020202020203EA
:100200000405040BFA0AF50AF00AEB0AE60AE10A09
:10021000DC0AD70AD20AFF0ACE0A6D1AA61ACC1B2C
:100220005C1C671C721C811D7D1DB11D5C1E681E3F
:100230006D1EF51EF21EFC1E231F2A1F4D1FB0212E
:10024000802186214F24671C512407D408020044D2
:10025000006902010000001027CF08FF7F4900B3AA
:1002600002000000000000FD08040049003C0401F9
:10027000000000010000000000000000000000007D
:1002800000000008090A0001C708020041006B02D3
:10029000010000001027BF08020041006D020100AC
:1002A00000001027B708020041006F0201000000A3
:1002B0001027B008020041005B02010000007869CD
:1002C000A808020041005D02010000007869FD08F5
:1002D000040049003C04010000000100000000008F
:1002E0000000000000000000000032098200410010
:1002F00067020100000030752D098200410099025B
:100300000100000088132809820041009B020100BF
:10031000000088132309820041009D0201000000B3
:1003200088131E09820041009F020100000088130B
:10033000190982004100A10201000000881314097C
:1003400082004100A3020100000088130E09FF7F14
:10035000410081020000000000000809FF7F410009
:100360007F02000000000000FD08040049003C047A
:10037000010000000100000000000000000000007B
:100380000000000006090A0B0C0D0E061F2021229A
:100390002324DD08DA08000064002C016400E8036F
:1003A000EA08E4080000F708F008000067095E09A1
:1003B0005209460937090000210B170B090B0000F1
:1003C0004C0AFF7F02003A05010000000B00490AB9
:1003D0000F0003009234FE7F422D0000330A1F00FD
:1003E00045006303FF7F6400E8FD2F0A3F004000E3
:1003F0006703FF7F01009411240A1F004000690376
:10040000FF7F0100E803D6093F004C007303FF7F24
:100410000000E803450A0E0041006B0301000000E4
:100420008813450A100041006B0332000000786910
:10043000380A010041006B030100B004D007380AFC
:10044000200041006B03FF7F01007869410A04002E
:1004500041007F030100000088133D0A1F00410096
:100460006D030100000088133D0A100041006D0378
:10047000320000007869280A1E0040006F03FF7FE9
:10048000010094111D0A1F0040007103FF7F01004D
:10049000E803130A0C004800810301000300C800B0
:1004A0000A0A01004D007F03010000000100050A57
:1004B0000002480081030100ECFF0000F90900027E
:1004C0004B008303010001000A00F0091F004D00EA
:1004D0007503010000000100E80900044A068503D5
:1004E0000A000A008403DC09000144037703640066
:1004F0005802AC26CC091F0047007D030100010013
:10050000FA00C0090F004900870301000000050040
:10051000B6091F004B007B03010001006300AB091B
:100520001F004D00790301000000010000000000E1
:100530000000000000000000000002026103950BB3
:10054000860B7E0B740B680B600B510B460B370B45
:100550002A0B000900030407080900030708090023
:100560000102030407080900010203040506070845
:100570000909C80AFF7F4D0049030100000001007E
:10058000C00AFF7F40004B0301000100F401B80ADC
:10059000FF7F40004D03FF7F01009411B00AFF7FF1
:1005A00040004F0301000100F401A80AFF7F400052
:1005B0005103FF7F0100E8039C0AFF7F41035303BF
:1005C000E803581B3075910AFF7F4D005503010069
:1005D000000001008B0AFF7F0200100601000000EE
:1005E0000400830A020001000C0601000000040060
:1005F0007D0AFF7F000000000000000000000000F6
:100600000000000000000000000000006A01590323
:1006100014065703740A6D0A670A5E0A550A2020F9
:100620002D2D202000636865616C692D63686172FF
:100630006765720A76312E39395F3230313630359E
:1006400031310063616C69626174696F6E2065723B
:10065000726F7200706C656173652063616C6962B2
:100660007261746500656570726F6D207265736587
:10067000740A6572726F723A2000726573657474E1
:10068000696E6720656570726F6D002020202020E4
:100690002020202020202079657300656570726F0E
:1006A0006D2072657365743A005245564552534544
:1006B00020504F4C4152495459006572726F723A42
:1006C0002020202000636F6D706C6574653A2000F7
:1006D000D63400000040000000000E36004000004C
:1006E000000000406432FFFFFF7F04000040B2338F
:1006F000FFFFFF7F04000040A832FFFFFF7F0400E0
:1007000000006C3300020000080000407A33000251
:10071000000008000040903300020000000000408C
:10072000F72F0000006000000000FB2F00000060B9
:1007300000000000FF2F00000020040000400330F4
:1007400000000020040000402F33FFFFFF7F040063
:100750000040EF32FFFFFF7F000000404F33FFFFFC
:10076000FF7F0000000055358001000000000040C0
:100770003A34FFFFFF7F000000000000FFFFFF7F13
:10078000000000002500306D570064656C74612026
:10079000543D20004E2F4100546578743D0064653F
:1007A0006C746120563D20006D6178566F75743D04
:1007B000002D00546578743D00206C696D69743DAE
:1007C0000056696E7075743D0077697265732052CA
:1007D0003D00626174742E20523D006220004C691D
:1007E0006D6974733A20006E6F2064542F7400ABEF
:1007F000090F004D007903010000000100450A0EB9
:100800000041006B030A00000088133D0A0F0041FD
:10081000006D030A000000881300000000000000C3
:100820000000000000000025200043684342426CA5
:100830004469464353745342435943430001010101
:10084000020A1E010318478E01190C03010101E879
:100850000301250CE80300230C640000210C640054
:10086000001E0C6400001C0CE80301190CE80301D5
:10087000170C010000150CE80301230C0100000E09
:100880000C640000110C0100000F0C0100000F0CA3
:1008900001000000000100000C0C141719181A07C1
:1008A00005061F2021222324566D696E75733A00B8
:1008B00056706C75733A0056623270696E3A005623
:1008C000623170696E3A0056623070696E3A00614A
:1008D00064633A0074656D703A00493A0076616C61
:1008E00075653A003330306D41003130306D410074
:1008F000313030306D41003130306D410063616C1A
:1009000069622E20702E3A00566F75743A00563187
:100910002D363A005662363A005662353A00566233
:10092000343A005662333A005662323A0056623127
:100930003A0056696E3A00657870657274204441D9
:100940004E474552210074656D702065787465725C
:100950006E004920646973636861726765004920AD
:1009600063686172676500766F6C746167650062C9
:10097000616C616E636520706F72742100626174D6
:10098000746572792100646973636F6E6E65637458
:1009900000636F6E6E6563740064542F6474002D81
:1009A00064560056206C696D6974006164617074EE
:1009B000206469733A00442F4320726573743A00CF
:1009C000442F43206379636C65733A006361702040
:1009D000434F66663A0074696D653A007C657874C9
:1009E000726E2054434F3A007C64542F64743A0072
:1009F000657874726E20543A007C69676E72206666
:100A00007273743A007C64563A00656E61622064C9
:100A1000563A0062616C2E206572723A006D696E02
:100A200049643A0049643A006D696E49633A004985
:100A3000633A004361703A0056636F3A0056643A75
:100A40000056733A0056633A00563A006261747475
:100A50006572793A006578742E2041646300657888
:100A6000742E20646562006465627567006E6F7243
:100A70006D616C0064697361626C656400726573BA
:100A80006574007C73706565643A00554152543A50
:100A900000616463206E6F6973653A00696E7075FA
:100AA00074206C6F773A20006D61782049643A00B9
:100AB0006D696E2049643A006D61782049633A009F
:100AC0006D696E2049633A00626565703A004C4575
:100AD00044004E695A6E004C343335004C34333088
:100AE000004C69706F004C696C6F004C6966650062
:100AF00050622020004E694D48004E694364005505
:100B00006E6B6E004E6F6E65007265736574206467
:100B1000656661756C740063616C696272617465AD
:100B20000073657474696E6773006564697420622C
:100B300061747465727900636170616369747920AE
:100B4000636865636B00443E4320666F726D617439
:100B50000073746F726167652B62616C616E630014
:100B600073746F7261676500666173742063686196
:100B700072676500646973636861726765006261CA
:100B80006C616E6365006368617267652B62616C9E
:100B9000616E636500636861726765006578742ED5
:100BA00074656D702E6375746F66660074696D652B
:100BB000206C696D69740063617061636974792088
:100BC0006375746F666600696E7075742056207464
:100BD0006F206C6F77004857206661696C7572658D
:100BE0000062616C616E63657220646973632E00DC
:100BF000626174742E646973632E20006E6F6C6979
:100C00006D697400206E6F00796573005500006D8A
:100C100000432F6D002500F4004168004300576831
:100C20000057005600410000B806C40BE012812EA8
:100C3000DE315C3411241FBECFE5D8E0DEBFCDBF6E
:100C400010E0A0E6B0E0E8E5FFE702C005900D92F5
:100C5000A43BB107D9F714E0A4EBB0E001C01D92AA
:100C6000A53DB107E1F71CE0C4E3DCE004C0229736
:100C7000FE010E944F3FC832D107C9F70E94D91226
:100C80000C94AA3F0C94000086B380958170B19BB0
:100C900002C090E001C092E0892BB29B02C090E0BC
:100CA00001C094E0892BB39B02C090E001C098E0A2
:100CB000892B0895882339F0A69AA79AD59A889AFD
:100CC0008A9A8F9A0895A698A798D59888988A980E
:100CD0008F98089520E042E060E184EB90E00E946C
:100CE000613C0E94CC090E94410A0E94F70788E7F4
:100CF00099E60C942407811106C0939A0E944D072F
:100D000080E00C9444079398089580FF02C0AE9A47
:100D100001C0AE9881FF02C0AF9A01C0AF9882FFB8
:100D200002C0DD9A01C0DD9883FF02C0909A01C025
:100D3000909884FF02C0929A01C0929885FF02C0E9
:100D4000979A08959798089580E00E94850680E01C
:100D50000E947B0680E00E94B70987B18F7387B934
:100D60008B9A8D9AD79ABC9A8C9A8D9A8E9A08955E
:100D700084EB90E00C94B63C2FB7F8948091BB00C4
:100D80009091BC00A091BD00B091BE002FBF892FF3
:100D90009A2FAB2FBB27A7FDBA9508952FB7F894CC
:100DA0001092C2001092C1008617970768F480E085
:100DB00090E4A0E0B0E08093BB009093BC00A093CF
:100DC000BD00B093BE0008C01092BB001092BC00E2
:100DD0001092BD001092BE008091BB009091BC00AB
:100DE000A091BD00B091BE00BA2FA92F982F8827DF
:100DF0008093BB009093BC00A093BD00B093BE0055
:100E000081E08093BA002FBF0895CF93DF93EC0168
:100E1000C13080E6D80758F4C13080E4D80748F4E0
:100E20008EE00E944D0A9598BE018DE009C0C0E099
:100E3000D0E68DE00E944D0A949ABE0170548EE077
:100E4000DF91CF910C942B0A893729E6920710F095
:100E500088E799E6BC0180E00E94680E813C2FEF94
:100E6000920710F080EC9FEF2FB7F8949093C0009A
:100E70008093BF002FBF08952FB7F8949093C200BE
:100E80008093C1002FBF0895882329F080E00E943D
:100E90004D07DF980895DF9A0895CF93DF93C82F09
:100EA000882319F080E00E944407DFB7F8948DE0B2
:100EB0000E944D0A94988EE00E944D0A95981092D7
:100EC000BA00DFBFC11104C0969ADF91CF91089597
:100ED000969880E00E947E0CEC0186E00E947E0CD9
:100EE000BE01DF91CF910C94CE060F931F9380919A
:100EF000BA00882309F474C080E00E94870C209116
:100F0000BF003091C0008217930730F080E00E944C
:100F10004D071092BA0064C082E00E94870C409195
:100F2000C1005091C20060E070E00091BB001091E0
:100F3000BC002091BD003091BE00481B590B6109D7
:100F40007109E2E0440F551F661F771FEA95D1F73C
:100F5000040F151F261F371F0093BB001093BC0002
:100F60002093BD003093BE008091BB009091BC00E7
:100F7000A091BD00B091BE00B7FF08C01092BB00A9
:100F80001092BC001092BD001092BE008091BB0078
:100F90009091BC00A091BD00B091BE000197A04609
:100FA000B10560F080E090E0A0E6B0E08093BB0087
:100FB0009093BC00A093BD00B093BE008091BB0095
:100FC0009091BC00A091BD00B091BE00892F9A2FD6
:100FD000AB2FBB27A7FDBA951F910F910C94050766
:100FE0001F910F910895BC018EE00C942B0ADE989E
:100FF000D698BD9ABE9ABF9A8EEA86B9369A089557
:10100000CF930E94BE249093E6028093E5020E9453
:10101000DF1D9093E8028093E7028091C50088234A
:1010200009F459C00E94BE24409125035091260323
:101030006091270370912803CAE09C01C29FC00100
:10104000C39F900D1124480F591F611D711D4093BE
:1010500025035093260360932703709328030E946F
:10106000DF1D4091290350912A0360912B03709159
:101070002C039C01C29FC001C39F900D1124480FF7
:10108000591F611D711D4093290350932A036093DA
:101090002B0370932C0380912D0390912E030197C5
:1010A000B9F48091F1029091F202A091F302B09113
:1010B000F40222E0B695A795979587952A95D1F7E2
:1010C0008093F1029093F202A093F302B093F402A2
:1010D000CF910C94590FCF91089580915503909121
:1010E0005603892BE9F04091C9004423C9F081E0FF
:1010F00090E00090C70002C0880F991F0A94E2F7A1
:1011000020912D0330912E032F703FB7F8945BB3DD
:101110009BB3982B9BBB240F2A95F1F75BBB3FBF7A
:1011200008958091C4008F5F803108F080E0809343
:10113000C4008091C6009091C700A091C800B091F2
:10114000C9008093CA009093CB00A093CC00B093C9
:10115000CD00E091C400EF5FE03108F0E0E084E012
:10116000E89FF0011124E250FF4F85919591A591E0
:10117000B4918093C6009093C700A093C800B09329
:10118000C9008091750390917603892B39F4809181
:10119000C600873019F486E08093C6008091C400B1
:1011A00081110CC00E94000880912D0390912E03A4
:1011B00021E0892B09F420E02093C5000895809157
:1011C000C300882341F124B185B1E091CC004FB731
:1011D000F89430E0382BF0E0DF01AA0FBB1FA953D1
:1011E000BD4F11963C932E938091C500882391F0BA
:1011F000EE0FFF1FEE0FFF1FE751FD4F8081918122
:10120000A281B381820F931FA11DB11D80839183A1
:10121000A283B3834FBF8091C30091E0980F909356
:10122000C3008130A9F028F0873039F18A3039F1D4
:1012300008958091C60087FD05C088B38F71806CCA
:1012400088BBD69A8091CC00823009F50C94750742
:101250008091C60087FD1BC04FB7F8943AB33F7B1F
:1012600028B38091C60050E28502C00111242F717D
:10127000282B28BB3ABB4FBF08950C946D08809172
:10128000C700806287B91092C3000C94910808953A
:101290001F920F920FB60F9211242F933F934F93EB
:1012A0005F936F937F938F939F93AF93BF93EF93CE
:1012B000FF930E94DF08FF91EF91BF91AF919F9143
:1012C0008F917F916F915F914F913F912F910F90EF
:1012D0000FBE0F901F9018951F920F920FB60F928E
:1012E00011242F933F934F935F936F937F938F932B
:1012F0009F93AF93BF93EF93FF930E94E437FF91C7
:10130000EF91BF91AF919F918F917F916F915F917D
:101310004F913F912F910F900FBE0F901F901895F6
:1013200088E085BD85B5846085BD14BC8CE783BD30
:1013300089B7806889BF08951F920F920FB60F92E8
:101340001124C49A0F900FBE0F901F9018951F92F2
:101350000F920FB60F9211248F93C4988091CE00F4
:1013600082BF8F910F900FBE0F901F901895811123
:1013700004C013BE12BEC498089590E09595879559
:1013800028E7280F2093CE0088589E4F9595879583
:101390008CBF8CE483BF089589B7836089BF0895AB
:1013A0001F920F920FB60F9211242F933F938F939A
:1013B0009F932091D5003091D6008091D1009091DB
:1013C000D200820F931F9093D2008093D10020917E
:1013D000D3003091D4008091CF009091D000820F43
:1013E000931F9093D0008093CF002FB7F8948091F3
:1013F000D1009091D20035E0969587953A95E1F726
:101400009BBD8ABD8091CF009091D00035E096952C
:1014100087953A95E1F799BD88BD2FBF8091D1009E
:101420009091D2008F7199279093D2008093D10030
:101430008091CF009091D0008F7199279093D00028
:101440008093CF009F918F913F912F910F900FBE6E
:101450000F901F9018959FB7F8948E3039F47093C1
:10146000D6006093D5008FB5806808C08D3039F400
:101470007093D4006093D3008FB580628FBD9FBFFF
:10148000089580E092E097BD86BD82E08FBD89E13E
:101490008EBD89B7846089BF08958E3019F48FB5E9
:1014A0008F7704C08D3019F48FB58F7D8FBD08956F
:1014B0001F920F920FB60F9211242F933F934F93C9
:1014C0008F939F93EF93FF935A991AC04CB18091D9
:1014D000ED019091EE01019699272091EF01309155
:1014E000F0018217930769F0E091ED01F091EE01B0
:1014F000E351FF4F40839093EE018093ED0101C0D3
:101500008CB1FF91EF919F918F914F913F912F91CE
:101510000F900FBE0F901F9018951F920F920FB64D
:101520000F9211242F933F938F939F93EF93FF93E9
:101530002091ED013091EE018091EF019091F00149
:101540002817390711F4559812C0E091EF01F09176
:10155000F001E351FF4F20818091EF019091F00164
:10156000019699279093F0018093EF012CB9FF9198
:10157000EF919F918F913F912F910F900FBE0F9000
:101580001F901895CF92DF92EF92FF92CF93DF9347
:10159000EC016A017B01411581EE58076105710577
:1015A000F9F0E885F98581E090E00C8802C0880FA9
:1015B000991F0A94E2F7808360E079E08DE390E080
:1015C000A70196010E940C3F2150310941095109A0
:1015D0005695479537952795211580E1380798F05E
:1015E000E885F985108260E874E88EE190E0A70153
:1015F00096010E940C3F215031094109510956952D
:10160000479537952795EC81FD813083EE81FF81E9
:1016100020831D8AEA85FB85408181E090E09C0162
:10162000098802C0220F331F0A94E2F7422B40833D
:10163000EA85FB8540819C010A8802C0220F331F86
:101640000A94E2F7422B4083EA85FB8520810B88D0
:1016500002C0880F991F0A94E2F780958223808345
:10166000DF91CF91FF90EF90DF90CF900895CF93CF
:10167000DF93FC0182819381DC01B395EC01CE5FA5
:10168000DE4F4D915C9111972881398142175307A4
:10169000C1F7A285B3854C9181E090E09C0101885F
:1016A00002C0220F331F0A94E2F7209524232C93C3
:1016B000A285B3854C919C01028802C0220F331F82
:1016C0000A94E2F7209524232C93A285B3852C91CC
:1016D000038802C0880F991F0A94E2F7809582233D
:1016E0008C9380819181FC01EE5FFE4F20813181DE
:1016F000FC01F39531832083DF91CF910895FC01A4
:101700008589882329F0A085B1858C9186FFFBCF40
:10171000158A0895CF93DF93FC0122813381D9018B
:10172000B3958D919C91119701969927E901CE5F10
:10173000DE4F4881598184179507D9F30D90BC91EC
:10174000A02DA20FB31F6C93A281B381B395119604
:101750009C938E93A285B3852C9181E090E00388C1
:1017600002C0880F991F0A94E2F7282B2C9381E07E
:10177000858B0084F185E02D80818064808381E009
:1017800090E0DF91CF9108958DEE90E09093D80096
:101790008093D7009093DA008093D90080E490E0A2
:1017A0009093DC008093DB0029E230E03093DE0090
:1017B0002093DD002BE230E03093E0002093DF0047
:1017C0002AE230E03093E2002093E1009093E400BD
:1017D0008093E3008CE290E09093E6008093E50034
:1017E00084E08093E70083E08093E80087E08093C3
:1017F000E90085E08093EA0081E08093EB000895A2
:10180000CF93DF931F92CDB7DEB7E091D104F09173
:10181000D204309711F4E5EDF4E0CE0101962EEB01
:101820008E179F0710F02193FBCF0F90DF91CF9180
:101830000895CF93DF9300D0CDB7DEB72091D104C8
:101840003091D2042115310511F425ED34E0CE019B
:101850000196821B930B0F900F90DF91CF9108950B
:10186000CF93DF931F92CDB7DEB72091D104309193
:10187000D2042115310511F425ED34E0F901AE0152
:101880004F5F5F4FCF01821B930B4E175F0728F00E
:1018900060816E3B11F43196F5CF0F90DF91CF91BF
:1018A0000895009741F0EFE9FFE03197F1F700C0AC
:1018B00000000197F6CF08958436910538F064E66C
:1018C00070E00E94F83ECB010C94510C019728F077
:1018D00025E32A95F1F70000F9CF08956AE070E05A
:1018E0000E94F83ECB010C945C0CE82FF0E0EE0F68
:1018F000FF1FEB55FD4F808191810895E82FF0E0A7
:10190000EE0FFF1FE55AFD4F8081918108952FB79B
:10191000F894E82FF0E0EE0FFF1FE953FD4F8081B0
:1019200091812FBF089580913303089580910F0214
:101930009091100208958091FD019091FE0108950B
:101940008091FF019091000208958093FA0108951B
:10195000E82FF0E0EE0FFF1FEF5EFD4F80819181D9
:10196000089581E0809331030895262F613110F4AA
:10197000423040F021E030E0FC01338322833183A8
:101980002083089550E0BA01620F711D620F711D2E
:10199000660F771F660F771F625F7F4F44E050E04E
:1019A0000C94653F282FCA01213188F4623078F405
:1019B00070E0620F711D620F711D660F771F660F59
:1019C000771F625F7F4F44E050E00C94833F08959F
:1019D000FF920F931F93CF93DF9300D000D0CDB72A
:1019E000DEB706E710E0F12CF801459155916591BD
:1019F000749149835A836B837C83AE014F5F5F4F41
:101A000060E08F2D0E94D20CF801349645915591DB
:101A10006591749149835A836B837C83AE014F5FD8
:101A20005F4F61E08F2D0E94D20CF394085F1F4F2F
:101A300081E1F812D9CF81E00E9467130F900F90D7
:101A40000F900F90DF91CF911F910F91FF9008950C
:101A500080912F03909130030C94891581E020919F
:101A60008502309186022331310509F080E0089526
:101A70008091830290918402089580917F029091D9
:101A8000800208958091890290918A020895809140
:101A9000390290913A02039750F080913F02909161
:101AA0004002039720F083E090E00C94E01A80E07D
:101AB00008952FB7F89480E090E0FC01EE0FFF1F2F
:101AC000EE0FFF1FE751FD4F108211821282138229
:101AD00001968131910589F784E690E090932E0379
:101AE00080932D03109232032FBF0895CF93CFB769
:101AF000F89410920E0210920D02109209021092A8
:101B00000A0210920B0210920C021092050210921F
:101B1000060210920702109208021092010210921F
:101B2000020210920302109204020E940C38909359
:101B3000FC018093FB01CFBFCF9108950E94760DE9
:101B4000109200021092FF011092FE011092FD010E
:101B50000895E1E1F2E01192119282E0EB35F8078D
:101B6000D1F70895CF93CFB7F89481E090E09093A8
:101B70002E0380932D0381E0809332030E94A90DF0
:101B8000CFBFCF910895CF93DF930E94B20DC09144
:101B90000F02D091100280910F0290911002C8178D
:101BA000D90729F48AE090E00E943238F4CFDF911F
:101BB000CF9108951092330380E00C947B06CF936D
:101BC000DF9381E00E94870CEC0180E00E94870C8B
:101BD0008C179D0718F4C81BD90B02C0C0E0D0E0D9
:101BE00081E0C93ED34008F480E0DF91CF910895B1
:101BF0008F929F92AF92BF92CF92DF92EF92FF921D
:101C0000CF93DF93CDB7DEB728970FB6F894DEBF3A
:101C10000FBECDBFF82E5B016115710509F445C0FB
:101C200040E0682FCE0105960E94B50C41E06F2D73
:101C3000CE0101960E94B50C2B813C8140E050E022
:101C4000CF80D884E12CF12C2C193D094E095F0975
:101C5000B50180E090E08D809E80A12CB12C6819A8
:101C600079098A099B090E94DC3E29813A8140E07A
:101C700050E0281939094A095B090E942E3F2C0DB2
:101C80003D1D4E1D5F1D57FD0BC02115310581E027
:101C90004807510544F02FEF3FEF40E050E003C00C
:101CA00020E030E0A901C90102C080E090E0289660
:101CB0000FB6F894DEBF0FBECDBFDF91CF91FF907E
:101CC000EF90DF90CF90BF90AF909F908F9008954E
:101CD0008F929F92AF92BF92CF92DF92EF92FF923C
:101CE000CF93DF93CDB7DEB728970FB6F894DEBF5A
:101CF0000FBECDBFF82E5B016115710509F445C01B
:101D000040E0682FCE0105960E94B50C41E06F2D92
:101D1000CE0101960E94B50C29813A8140E050E045
:101D2000CD80DE80E12CF12C2C193D094E095F0994
:101D3000B50180E090E08F809884A12CB12C6819C7
:101D400079098A099B090E94DC3E2B813C8140E095
:101D500050E0281939094A095B090E942E3F2C0DD1
:101D60003D1D4E1D5F1D57FD0BC02115310581E046
:101D70004807510544F02FEF3FEF40E050E003C02B
:101D800020E030E0A901C90102C080E090E028967F
:101D90000FB6F894DEBF0FBECDBFDF91CF91FF909D
:101DA000EF90DF90CF90BF90AF909F908F9008956D
:101DB0008250893130F4E82FF0E0EE58FF4F8081F7
:101DC000089581E00895CF93C82F833149F481E0CD
:101DD00020918502309186022331310581F412C0B1
:101DE0000E94D80E813069F4EC2FF0E0EE0FFF1F57
:101DF000E55AFD4F208131812139314018F480E0CE
:101E000001C081E0CF910895EF92FF920F931F934D
:101E1000CF93DF931F92CDB7DEB79FE101E010E0D3
:101E2000E12CF12C892F99830E94E30E998188235C
:101E300011F0E02AF12A000F111F9F5F953291F7F0
:101E4000C7010F90DF91CF911F910F91FF90EF90FD
:101E500008951F93CF93DF931F92CDB7DEB7182F4E
:101E600069830E94D80EE12FF0E0EE0FFF1FE55AC4
:101E7000FD4F482F6981808191810F90DF91CF9133
:101E80001F910C94CF3A2FB7F8946091F60170919E
:101E9000F7018091F8019091F9012FBF2DE730E013
:101EA00040E050E00E940C3FBB27A52F942F832FCA
:101EB000089580912D0390912E03892B49F08091F4
:101EC0002D0390912E03019790932E0380932D0361
:101ED000089590E0880F991FFC01E55AFD4F20817D
:101EE00031816217730718F4261B370B04C0AB014E
:101EF000421B530B9A01FC01EF5EFD4F2730310569
:101F000018F01182108206C0208131812F5F3F4F6F
:101F100031832083FC01E55AFD4F7183608308956E
:101F20008FB7F8941092F6011092F7011092F80111
:101F30001092F9011092F2011092F3011092F40143
:101F40001092F5018FBF0E94B20D0E949E0D60E0BD
:101F500070E089E10E94690F60E070E08BE10E940F
:101F6000690F60E070E08CE10E94690F60E070E052
:101F70008DE10C94690F1092100210920F020C94D4
:101F8000900FCF93DF931F92CDB7DEB790913303BD
:101F9000911110C069830E947B06698161110E94C2
:101FA000BB0F81E080933303809366000E94C30DD2
:101FB000109231030F90DF91CF9108950C94BB0FD5
:101FC00080913303882309F44FC0409189025091D6
:101FD0008A028091F6019091F701A091F801B091E9
:101FE000F901840F951FA11DB11D8093F6019093F7
:101FF000F701A093F801B093F9018091F10191E00C
:10200000980F9093F101883578F120917F023091FB
:102010008002DA010E94BB3E24E630E040E050E05E
:102020000E940C3F8091F2019091F301A091F40184
:10203000B091F501280F391F4A1F5B1F2093F20151
:102040003093F3014093F4015093F501CA01B901B3
:1020500020EA3CE840E050E00E940C3FB9018AE1F0
:102060000E94690F1092F1010895CF92DF92EF92D2
:10207000FF920F931F93CF93DF931F92CDB7DEB7DD
:10208000C0905B02D0905C0280915D0290915E02F4
:102090008C159D0518F4C81AD90A02C0C12CD12C80
:1020A000B60182E10E94690F20916B0230916C02AF
:1020B00080916D0290916E0200916F0210917002FA
:1020C0002817390720F4BC01621B730B02C060E0C3
:1020D00070E08017910718F4081B190B02C000E08C
:1020E00010E08FE10E94690FB80180E20E94690F41
:1020F00001E712E091E2F801619171918F01892F5E
:1021000099830E94690F99819F5F9532A1F7809111
:102110003103811106C00E94040F90933003809315
:102120002F03E0902F03F0903003E9E9F2E080E024
:1021300090E000E010E041E050E09A01082E02C07B
:10214000220F331F0A94E2F72E213F21232B21F087
:1021500020813181020F131F01963296863091053E
:1021600061F7B80183E10E94690F0115110581F043
:102170000C151D0520F4C601801B910B03C0C8017E
:102180008C199D09893B9B4018F4680113E103C039
:1021900012E1E12CF12CB60184E10E94690FB70134
:1021A00086E10E94690F612F70E085E10E94690F4E
:1021B0000E94430F7C010E94D31D882329F00091C7
:1021C0006102109162020BC00E94B224882329F0A0
:1021D00000915F021091600202C000E010E0B801BF
:1021E00087E10E94690FB70189E10E94690F980198
:1021F000D6010E94BB3E20E137E240E050E00E9461
:102200000C3FB90188E10F90DF91CF911F910F91A1
:10221000FF90EF90DF90CF900C94690F1F93CF93B6
:10222000DF93182FC82FD0E0FE01EE0FFF1FEE0F37
:10223000FF1FE751FD4F608171818281938128EEFC
:1022400033E040E050E00E940C3FFE01EE0FFF1F24
:10225000EB55FD4F31832083B901812F0E94F80D8A
:10226000BC01812FDF91CF911F910C94690F4F9288
:102270005F926F927F928F929F92AF92BF92CF9216
:10228000DF92EF92FF92CF93DF93CDB7DEB728971F
:102290000FB6F894DEBF0FBECDBF0E940C38209160
:1022A000FB013091FC01821B930B8133954708F4AD
:1022B000A4C04FB7F89420910D0230910E02A8EE01
:1022C000B3E00E94BB3E6B017C01F694E794D79487
:1022D000C7944090090250900A0260900B027090DF
:1022E0000C026091050270910602809107029091A4
:1022F00008028090010290900202A0900302B09028
:1023000004024FBF6D837E838F8398870E94760D72
:102310002091FF01309100022F5F3F4F3093000268
:102320002093FF016D817E818F819885A7019601A1
:102330000E940C3F29833A834B835C83C301B20123
:10234000A70196010E940C3FB90180E00E94F80DA0
:102350003C0169817A8181E00E94F80D861597051C
:1023600018F4681A790A02C0612C712C409093020B
:10237000509094026414750420F48091FA01811144
:1023800004C0B3018CE10E94690FB301641975099F
:102390008BE10E94690FC501B401A70196010E945B
:1023A0000C3FB90187E00E94F80D2091FD013091AA
:1023B000FE019093FE018093FD01BC01621B730B33
:1023C000660F771F8DE10E94690FB6018EE1289696
:1023D0000FB6F894DEBF0FBECDBFDF91CF91FF9057
:1023E000EF90DF90CF90BF90AF909F908F907F90B5
:1023F0006F905F904F900C94690F28960FB6F894E9
:10240000DEBF0FBECDBFDF91CF91FF90EF90DF9089
:10241000CF90BF90AF909F908F907F906F905F9084
:102420004F900895CF932FB7F89480912D039091FA
:102430002E032FBF892B09F091C0809132038111A7
:102440008AC080913303882309F47EC080910F02F3
:102450009091100201969093100280930F02409188
:10246000E9025091EA026091EB027091EC027695DC
:102470006795579547958091090290910A02A0911E
:102480000B02B0910C02840F951FA61FB71F8093FB
:10249000090290930A02A0930B02B0930C024091A0
:1024A000ED025091EE026091EF027091F00276958C
:1024B0006795579547958091050290910602A091E6
:1024C0000702B0910802840F951FA61FB71F8093C3
:1024D000050290930602A0930702B0930802409170
:1024E00005035091060360910703709108037695E8
:1024F0006795579547958091010290910202A091AE
:102500000302B0910402840F951FA61FB71F80938A
:10251000010290930202A0930302B09304028091FF
:102520000D0290910E02019690930E0280930D027F
:102530000E943711C0E08C2F0E940E11CF5FC13175
:10254000D1F70E94351007C080916600882319F0EA
:1025500085E00E940E11CF910C94590DCF910895F2
:102560000C94121260E084E393E00E94E12C87FD5A
:102570000AC0811102C00C94132D992787FD9095F4
:1025800001970C94592E08950E94A40678940E94F5
:102590006A060E9490090E944C250E94571E0E94C4
:1025A000DE0F0E94000C0E9402150E94BD300C94A8
:1025B000D6310E94C4120E94FC130E94B212FDCFB9
:1025C0006EE371E084E393E00E94312F8FE890E0A6
:1025D0009093350380933403E8E3F3E080818C5ECD
:1025E00080830895FC0124812451621710F40C9417
:1025F0002C2F862F821B0C94D418FF920F931F93BD
:10260000CF93DF93EC018B0141110E94A43F85E041
:10261000F82EFA9459F0CE010E947D3F8017910761
:1026200039F084E690E00E941E38F3CF81E001C0CB
:1026300080E0DF91CF911F910F91FF900895EF926D
:10264000FF920F931F93CF93DF937B018C01E80ED2
:10265000F91ECFEFDFEF0E151F05A9F0C8010E948C
:10266000753FC82728E0CE01969587953C2FEC0151
:1026700030FF04C031E0C32730EAD327215099F757
:102680000F5F1F4FE8CFCE01DF91CF911F910F91C8
:10269000FF90EF900895EF92FF920F931F93CF93C7
:1026A000DF931F92CDB7DEB78C017B0149830E9477
:1026B0001F134981BC01C8018E0D9F1D0F90DF9132
:1026C000CF911F910F91FF90EF900C94FD12482F26
:1026D00068E870E08EE090E00C944B13482F60E2C5
:1026E00073E088E990E00C944B13482F60E270E0AF
:1026F0008AEB93E00C944B130F931F93CF93DF93CC
:10270000D82F182F1170412F63E678E680E090E013
:102710000E94FD12C82F412F6CE679E682E090E01E
:102720000E94FD128111C1E0412F61E070E184E05F
:1027300090E00E94FD128111C1E0412F66E070E03F
:1027400086E090E00E94FD128111C1E0D1FB0027DC
:1027500000F9402F6AE070E088E090E00E94FD12EE
:102760008111C260D2FB112710F9412F63E070E0A4
:102770008AE090E00E94FD128111C460D3FBDD2746
:10278000D0F94D2F6CE070E08CE090E00E94FD12DB
:102790008111C86001110E94E80C80E00E9467135B
:1027A0008111C26011110E94C21880E00E946E1354
:1027B0008111C460D1110E941B1580E00E94751325
:1027C0008111C8608C2FDF91CF911F910F910895D7
:1027D000CF93C82F0E949431C0FDC260C1FDC46078
:1027E000C2FDC8600E94AE318C2F0E947C13682FFE
:1027F0008C2FCF910C94B23180E00E947C138823FF
:1028000021F00E94E81380E0089581E0089580E0BF
:102810000E947C1381600C94E813CF930E94B33024
:102820008CE292E09093B5038093B403C1E0C0932F
:10283000B3031092AC030E94BB16823011F4C09314
:10284000AC030E94381D91E0813009F090E0892F9F
:10285000CF91089561E081E00E948D1C88E392E0B1
:102860009093B5038093B403089561E081E00E94E2
:102870008D1C84E492E09093B5038093B403089593
:1028800060E082E00E948D1C86E292E09093B503A6
:102890008093B403089561E081E00E948D1C80E282
:1028A00092E09093B5038093B40308951092AC0323
:1028B00090E08930910598F5FC01E65DFF4F0C949E
:1028C0004D3F0E94BB16811102C00C9435140E942A
:1028D000BB16853029F40C944B1481E08093AC0333
:1028E0000C942A148AE192E016C00C9440140E94C1
:1028F0002A14809167039091680365E070E00E945C
:10290000F83E7093AE036093AD03089581E0809329
:10291000AC038EE392E09093B5038093B4030895E3
:102920000E940E200C94900FCF93C82F0E949014F9
:102930008C2F0E945614C73029F0C83059F463E038
:1029400081E005C060918703660F615080E0CF9100
:102950000C943E19CF910C94381D0E942C1E84EFCC
:1029600091E00E940D1E84E690E00E9432380C94A3
:10297000451ECF93C82F0E94502A882389F10E94B8
:10298000AD14C09340038C2F0E94561410923E0346
:1029900010923D0383E080933F030E94F83C61E086
:1029A00081E00E94C10F0E940D14882391F081E004
:1029B00080933F030E942B200E94B3301092B303F8
:1029C00084E00E94E836809140030E9494140E94A3
:1029D0006C200E94DA0D0E940E3DCF910C94BC3009
:1029E000CF910895DC015896ED91FC915997EE0F27
:1029F000FF1FEE0FFF1FE659FE4F65917591859100
:102A00009491089540E250E06AEB73E081E493E032
:102A10000C94653F40E250E06AEB73E081E493E0A0
:102A20000E94833F81E00C94751340E250E06AE419
:102A300071E00C94533F81E493E00E9415150C94CF
:102A40000A1580914B0390914C0320914D033091D6
:102A50004E032817390720F490934E0380934D03BB
:102A600080914D0390914E038539914130F084E976
:102A700091E190934E0380934D0380914F03909189
:102A8000500320915103309152032817390720F445
:102A9000909352038093510380915103909152037C
:102AA000893E934030F088EE93E0909352038093F8
:102AB000510308950895FC010994FC0185919491B6
:102AC0000C945B15009761F09C0180E0F901459141
:102AD00054912E5F3F4F452B11F08F5FF7CF089534
:102AE00080E00895282F81E090E03AE0215038F00E
:102AF000AC01349FC001359F900D1124F7CF08958C
:102B0000009719F024F081E0089580E008958FEF98
:102B1000089530E120E080FD2F5F96958795315034
:102B2000D1F7822F0895CF92DF92EF92FF92CF9349
:102B300097FF08C090958095709561957F4F8F4F56
:102B40009F4F07C0611571058105910511F0C0E027
:102B500001C0C1E05AE0C52ED12CE12CF12C611549
:102B600071058105910541F0CF5FA70196010E9493
:102B70002E3FCA01B901F3CF8C2FCF91FF90EF9078
:102B8000DF90CF900895BC0180E090E00C94931505
:102B9000CF92DF92EF92FF920F931F93CF93DF9329
:102BA000EC017B016A01E881F981CF01B8010E9443
:102BB000F83E009731F01E141F049CF4081B190BFB
:102BC00003C01E141F0474F4C901801B910BE81785
:102BD000F90718F40E0F1F1F01C08901198308831C
:102BE0000DC08C01C8018C0D9D1D8E179F0718F418
:102BF000E01BF10B01C0F601F983E883DF91CF916F
:102C00001F910F91FF90EF90DF90CF900895AF92BA
:102C1000BF92CF92DF92EF92FF920F931F93CF93C9
:102C2000DF93EC017B016A01590168817981F7FE2C
:102C300002C06150710980E090E00E9493158230DB
:102C400020F082500E94721502C081E090E08C0159
:102C50009501A601B701CE010E94C815DF91CF9161
:102C60001F910F91FF90EF90DF90CF90BF90AF90AA
:102C700008952FEF3FEF40E050E00C9407160E94BC
:102C800055388111FCCF0E9455388823E1F308950F
:102C9000CF93C6E00E945538811104C0C150D1F7CE
:102CA00080E001C081E0CF910895209161033091CF
:102CB000620395E0929FF001939FF00D1124E80FBD
:102CC000F11DEE0FFF1FE258FE4F8591949108957C
:102CD0001F93CF93DF93182FC0916503D0916603A4
:102CE0000E9455169C01123061F48091610390910D
:102CF0006203029731F4C730D10518F0219720EB19
:102D000034E02C9FC0012D9F900D3C9F900D11240D
:102D1000DF91CF911F9108951F93CF93DF93182FC9
:102D2000C0916503D09166030E94551623E020935D
:102D30008903113029F480916B0390916C0306C0D4
:102D4000123039F480916D0390916E0310938903D2
:102D500006C0133021F480917F03909180039C0181
:102D60002C9FC0012D9F900D3C9F900D1124DF9151
:102D7000CF911F910895E0916103F0916203EA50B1
:102D8000FE4F84910895CF93DF9300D000D0CDB74C
:102D9000DEB7A0916303B091640320917D0330916D
:102DA0007E030E94BB3E24E630E040E050E00E94FB
:102DB0000C3F293E8DEF38074105510550F429831A
:102DC0003A834B835C830E94BB1629813A8185300C
:102DD00021F428EE3DEF40E050E0C9010F900F9044
:102DE0000F900F90DF91CF91089520918103309142
:102DF00082038091650390916603AC01249FC0011A
:102E0000259F900D349F900D1124089582E00E941B
:102E10006816BC0188E893E10E94651920914D0372
:102E200030914E032817390708F4C901089582E04C
:102E30000E946816BC0184EF91E00E946519209100
:102E40005103309152032817390708F4C901089536
:102E500080916103909162030A97029750F081E09C
:102E60000E945516BC0188E799E60E94F83ECB0106
:102E7000089581E090E00895809163039091640348
:102E80008436910530F484E690E090936403809357
:102E900063038091630390916403893E9D4F30F0FA
:102EA00088EE9DEF90936403809363038091730396
:102EB00090917403893E934030F088EE93E09093B4
:102EC0007403809373030E94281720916503309147
:102ED00066038217930720F490936603809365033B
:102EE0008091650390916603892B31F481E090E035
:102EF00090936603809365030E94061720916703F1
:102F0000309168038217930720F4909368038093AD
:102F10006703809167039091680320916F0330915C
:102F200070038217930720F49093700380936F03CC
:102F30000E9417172091690330916A038217930743
:102F400020F490936A038093690320916903309180
:102F50006A0380917103909172032817390720F456
:102F6000309372032093710380914B0390914C0333
:102F700040916703509168034817590720F49093D4
:102F800068038093670340916F0350917003481763
:102F9000590720F49093700380936F0380914F033F
:102FA000909150032817390720F490936A03809377
:102FB000690320917103309172032817390720F4B7
:102FC0009093720380937103089598E2899FB001F2
:102FD000112468567F4F48E250E081E693E00E945A
:102FE000653F0C943C1798E2899FB0011124685604
:102FF0007F4F48E250E081E693E00E94833F81E00A
:103000000C946E130E943C178091670390916803A3
:1030100024E0969587952A95E1F790937003809325
:103020006F0308950E943C178091690390916A0391
:1030300034E0969587953A95E1F7909372038093E3
:10304000710308950E943C1780916303909164037B
:103050009695879590936803809367032091610309
:10306000309162032330310531F496958795909322
:10307000680380936703809167039091680390933E
:103080006A03809369030E9402180C94121881E06D
:103090000E94551690936C0380936B0382E00E940C
:1030A000551690936E0380936D0380916103909108
:1030B0006203892B61F580ED97E090936403809320
:1030C000630383E090E0909366038093650388EE4A
:1030D00093E090937403809373031092760310929D
:1030E000750380E797E190937803809377031092BC
:1030F0007A03109279038EE190E090937C038093A1
:103100007B0388E790E090937E0380937D030E9489
:10311000BB16811128C081E090E0909380038093DA
:103120007F038091610390916203029719F48BEF02
:103130009FEF02C081EF9FEF909382038093810302
:1031400083E090E0909384038093830384E690E08F
:10315000909386038093850382E090E090938803A8
:10316000809387030DC088E090E090938203809362
:10317000810383E00E9455169093800380937F0320
:103180000C942218CF9310926203109261030E9454
:103190004718C0E08C2F0E94F317CF5FC431D1F7DE
:1031A00081E0CF910C946E13CF93C82F0E94E51746
:1031B0002091610330916203232B21F00E94D034CF
:1031C0000E94893920916103309162032A303105D0
:1031D00071F02B30310569F0232BC1F48C2F90E076
:1031E00001960E9429398AE3CF910C94003989E035
:1031F0000AC065E080916703909168030E94583B84
:103200000E94893984E0CF910C94923467E08091D8
:103210006303909164030E94553B8FE20E94003942
:103220008091650390916603CF910C942939BC017C
:1032300087E693E00E9439160C943C17BC0189E69E
:1032400093E00E9439160C943C172FEF3FEF41E0BA
:1032500050E0BC0183E793E00E9407160C943C17F2
:1032600080917B0390917C030E94171F82E392E080
:103270009093B5038093B4030C94381DCF93C62F5D
:1032800091E09093B30380938A0380918A038C1317
:1032900002C01092B30380FF02C080E001C083E04F
:1032A0000E949414813079F49091B303992359F0DA
:1032B00080918A038F5F80938A030E9490140E94FA
:1032C0003019813011F3CF910895AB019C01A8EE24
:1032D000B3E00E94BB3E9A0140E050E00E940C3FE8
:1032E000A8EEB3E00E94D13E24E630E040E050E09A
:1032F0000E940C3F2115310581E04807510520F05F
:103300002FEF3FEF40E050E0C90108958091A903FD
:103310009091AA03892B99F40E94930C882381F041
:103320000E94960C20918B0330918C03821B930B8F
:103330009C0181E02330310518F080E0089581E0A0
:103340000895815E0C947E0CDF92EF92FF920F93B2
:103350001F93CF93DF93C0E0D0E00FEF1FEFDD248A
:10336000DA94EE24E394F12C97018C2F0C2E02C0FA
:10337000220F331F0A94E2F740912F03509130033C
:1033800024233523232B39F00E94A119801791079C
:1033900010F4DC2E8C012196C630D10529F78D2D35
:1033A000DF91CF911F910F91FF90EF90DF900895E3
:1033B000CF93DF932091A9033091AA03232B21F40B
:1033C000DF91CF910C94A11990918F03C82FD0E079
:1033D000992391F00E94A119CC0FDD1FFE01E05747
:1033E000FC4FC456DC4F2081318148815981241B18
:1033F000350B280F391F07C0FE01EE0FFF1FE057E6
:10340000FC4F20813181C901DF91CF910895CF9286
:10341000DF92EF92FF920F931F93CF93DF93C0E061
:10342000D0E0E12CF12C0FEF1FEFCC24C394D12C72
:10343000C6010C2E02C0880F991F0A94E2F7209152
:103440002F033091300382239323892B59F08C2F43
:103450000E94D819E816F90608F47C018017910734
:1034600008F48C012196C630D10511F7E01AF10A53
:1034700081E020918103309182032E153F0508F0F1
:1034800080E0DF91CF911F910F91FF90EF90DF903F
:10349000CF900895CF93DF93EC018091A903909191
:1034A000AA03892B41F0209731F40E94960C909347
:1034B0008C0380938B03D093AA03C093A9030E942B
:1034C000A90D8091A803811105C08C2FDF91CF91A8
:1034D0000C948506DF91CF910895FF920F931F936F
:1034E000CF93DF9381E00E945A060CE913E0C0E914
:1034F000D3E0F12C8F2D0E94A119F80181939193B3
:103500008F0189939993F394F6E0FF12F3CF109211
:10351000AA031092A9031092A80380E090E00E94F1
:103520004A1A10928C0310928B038FEF8093AB0397
:10353000DF91CF911F910F91FF90089580E090E06F
:103540000E944A1A81E08093A80308950E949E1A5F
:1035500080E00C945A06DF92EF92FF920F931F9334
:10356000CF93DF938091AB0387FD20C00E94D819D1
:103570007C01D12C01E010E0C0E0D0E020912F03CD
:103580003091300320233123232B41F08D2D0E94D5
:10359000D819E816F90610F4C02BD12B000F111F13
:1035A000D39486E0D812EACFCE0102C080E090E04A
:1035B000DF91CF911F910F91FF90EF90DF900895D1
:1035C000EF92FF920F931F93CF93DF938C01C0E094
:1035D000D0E0EE24E394F12C97010C2E02C0220FD0
:1035E000331F0A94E2F780912F0390913003282330
:1035F0003923232B31F42196C630D10569F781E0B8
:1036000008C08C2F815E0E94A80C8017910798F744
:1036100080E0DF91CF911F910F91FF90EF9008957F
:103620007F928F929F92AF92BF92CF92DF92EF9252
:10363000FF920F931F93CF93DF9386E090E00E9459
:10364000E01A882309F478C00E94470D882309F402
:1036500073C08091AB0387FF04C00E94A4198093BC
:10366000AB038091AB030E94A1196C01A0906D0384
:10367000B0906E0360E9E62E63E0F62E0CE913E0ED
:10368000C0E0D0E07724739488248394912CC40103
:103690000C2E02C0880F991F0A94E2F720912F0385
:1036A0003091300382239323892B81F08C2F0E9449
:1036B000A1198A159B05A0F0C816D90608F4712C2B
:1036C000F70191838083F801918380832196F2E052
:1036D000EF0EF11C0E5F1F4FC630D105C1F602C0C0
:1036E0007724739410928F030E94143890938E0362
:1036F00080938D03772079F0DF91CF911F910F9107
:10370000FF90EF90DF90CF90BF90AF909F908F9001
:103710007F900C949E1A0E94AB1ADF91CF911F915B
:103720000F91FF90EF90DF90CF90BF90AF909F9060
:103730008F907F900C944A1ADF91CF911F910F9137
:10374000FF90EF90DF90CF90BF90AF909F908F90C1
:103750007F9008951F93CF93DF9380918F03811102
:103760000EC081E080938F03CCE9D3E010E0812F7D
:103770000E94A119899399931F5F1630C1F7DF91B9
:10378000CF911F9108950E94143820918D0330919C
:103790008E03821B930B08958091A9039091AA0335
:1037A000892B19F40E94101B0AC00E94AA1B0E94B8
:1037B000C31B409720F080E090E00E944A1A0E94CC
:1037C0008619882311F082E008958091A803882348
:1037D000D1F381E00895EF92FF920F931F93CF935F
:1037E000DF938C01C0E0D0E0EE24E394F12C97014C
:1037F0000C2E02C0220F331F0A94E2F780912F0390
:103800009091300328233923232B31F42196C6309D
:10381000D10569F780E007C08C2F0E94D819801766
:103820009107A0F381E0DF91CF911F910F91FF905D
:10383000EF900895EF92FF920F931F93CF93DF9332
:103840008C01C0E0D0E0EE24E394F12C97010C2E23
:1038500002C0220F331F0A94E2F780912F03909148
:10386000300328233923232B31F42196C630D10588
:1038700069F780E007C08C2F0E94D8190817190734
:10388000A0F381E0DF91CF911F910F91FF90EF9016
:103890000895CF93DF93EC010E94280D882339F01F
:1038A000682F70E0CE010E94F83ECB0102C080E09C
:1038B00090E0DF91CF9108950E941F2581E00E9442
:1038C0001C228091AD039091AE030C94EA240C94D9
:1038D00036250E94470D882321F00E94C3240C94B2
:1038E000D12208950E94691C0E94380D2091B103D5
:1038F0003091B2032817390740F483EA99E0909396
:103900003E0380933D0380E008958091AF03909142
:10391000B0030E94EA2482E00895CF93DF931F92C0
:10392000CDB7DEB7882341F069830E948C1690934F
:10393000B2038093B1036981662369F080916703C4
:10394000909168039093B0038093AF0380916F03CD
:10395000909170030CC08091690390916A039093D9
:10396000B0038093AF0380917103909172039093A1
:10397000AE038093AD030F90DF91CF9108958091B6
:10398000B4039091B5030C945D158091B4039091AC
:10399000B50302960C945D150E94C51C0E946C2014
:1039A0000C94FC38CF93DF930E941438EC010E94F2
:1039B00014388C1B9D0B853B910510F00E94DA0D8D
:1039C0000E945538882399F3DF91CF910C94DD360E
:1039D000CF93DF930E94CC1C0E941438EC0185E049
:1039E0000E94E8360E94DA0D93980E94FD300E94F2
:1039F000481681110FC00E9464320E94481681113E
:103A000009C00E9414388C1B9D0B853B910568F3FF
:103A1000939AEBCF0E94DD3660E081E0DF91CF9199
:103A20000C94C10F0E94CC1C0E94DA0D0E9401313F
:103A300086E00E94E8360C94D21CE091B403F09129
:103A4000B503349685919491FC010994811103C0CA
:103A50000E94121D0BC0813039F48091B303811193
:103A600005C00E94E81C02C081E0089580E008952E
:103A70000F931F93CF93DF93109274040E94BF1C87
:103A800002E0C0E0D0E011E00E9455388093740459
:103A90000E942631112379F00E94AC20082F0E9449
:103AA000261D182F882339F00E94960CC817D907B5
:103AB00091F4111107C08091B303882311F0011113
:103AC00014C010E0809174048130F1F60E945238E5
:103AD0008230D0F20AC00E94960CEC010E941D1D9B
:103AE000082F0E94261D182FE4CF0E94C51C802F8E
:103AF000DF91CF911F910F9108950E94451E0C9464
:103B0000A61A0E942C1E0E946D1A21E08091790352
:103B100090917A03892B09F420E02093B60380E08A
:103B20000C941C221F93CF93DF93C091B103D091CB
:103B3000B203CE010E94491C0E941A1C182F0E9439
:103B40008619811109C0111107C00E94380D11E0BA
:103B5000C817D90708F410E0812FDF91CF911F918A
:103B600008951F93CF93DF930E94921D182F0E94F8
:103B7000E41DEC018091B603882329F0BE01812F5A
:103B80000E94802201C0812F811108C0BE01812FB7
:103B90000E94E1230E940D1E82E001C081E0DF91BE
:103BA000CF911F9108958091BD03089581E02091E8
:103BB000BB033091BC03232B09F480E0089580916E
:103BC000BB039091BC0308958091B7039091B80313
:103BD00008950E943D0D009711F481E090E0BC0132
:103BE0008091B9039091BA030E9465192091510305
:103BF000309152032817390708F4C901089581301C
:103C000020E4920710F080E090E49093BC0380934E
:103C1000BB030E94F3070C94B20DCF93DF93EC012A
:103C20000E94E91DBC01C817D90708F4BE018091A4
:103C3000B7039091B8038617970759F07093B803AC
:103C40006093B70380E10E94680EDF91CF910C94DE
:103C5000FF1DDF91CF9108958091BD03811114C0A4
:103C600080E090E00E94FF1D1092B8031092B7030D
:103C700081E00E94440781E08093BD0384EF91E0DE
:103C80009093BA038093B90308958091BD0388236C
:103C900069F080E090E00E94FF1D1092B80310923E
:103CA000B70380E00E9444071092BD03089581E0AD
:103CB0008093BD030C94451E87E080937A0482E0D4
:103CC00080937B040E94E13683E08093BE030895D5
:103CD0008FEF80937A040C94DD36FF920F931F933D
:103CE000CF93DF930E94280DF82E8091AC03882398
:103CF00069F08091650301E08F1101C000E011E0DF
:103D0000F11010E0813021F4112311F010E000E0F7
:103D10000E942E0D882309F457C083E10E947E0C77
:103D2000EC0182E10E947E0CC817D90728F49C019F
:103D30002C1B3D0BE90102C0C81BD90BC53FD1406C
:103D400008F442C0C1E0011102C087E001C083E075
:103D500080937A04112329F080917A048250809311
:103D60007A04CC2329F080917A04815080937A04DC
:103D7000011104C0111102C0CC2331F081E00E9476
:103D8000E836111106C003C00E94DD3604C00023CE
:103D900011F0F11002C0D0E001C0D1E00E9448381B
:103DA000811102C01092BE03D11106C0C11104C01E
:103DB0000E944838883051F08091BE03823011F45F
:103DC00081E00AC082E008C0C0E0BDCF8091BE03A0
:103DD0008F5F8093BE03F0CFDF91CF911F910F9142
:103DE000FF9008951092C30308950E941438909391
:103DF000C2038093C10308950E9414382091C10327
:103E00003091C203821B930B2091BF033091C003FA
:103E10002817390728F081E08093C30382E00895D2
:103E20001092C30381E008958091C30308952CE3A9
:103E3000AC01249FC001259F900D11249093C003D5
:103E40008093BF0308950E946D1A0E941F2581E090
:103E50000C941C220E9436250C94A61A1F93CF9313
:103E6000DF93C091B103D091B203CE010E94491CEF
:103E70000E94EB1B182F0E948619811109C0111195
:103E800007C00E94380D11E08C179D0708F410E060
:103E9000812FDF91CF911F9108951F93CF93DF93CF
:103EA0000E942E1F182F0E94C324EC01BC01812FF9
:103EB0000E948022811108C0BE01812F0E94E1234F
:103EC0000E94EA2482E001C081E0DF91CF911F913E
:103ED00008958091D2039091D3032091D50322239A
:103EE00041F00E9414382091D2033091D303821BF9
:103EF000930B08956091CE037091CF038091D0030E
:103F00009091D10328EE33E040E050E00E940C3F56
:103F1000C90108956091CA037091CB038091CC03CD
:103F20009091CD0328EE33E040E050E00E940C3F3A
:103F3000C90108950F931F93CF93DF9381E00E94EF
:103F40008C168C0184E00E948C16EC0184E10E94A6
:103F50007E0C80179107B8F4C817D907B0F49C01FC
:103F60002C1B3D0BC8018C1B9D0B64E670E00E946E
:103F7000F83EC9010E94F83E6436710510F063E610
:103F800070E0862F03C083E601C080E0DF91CF910F
:103F90001F910F910895CF93DF930E949A1F9091E4
:103FA000D4039817E0F48093D4030E94691F2091F2
:103FB000D7033091D803EC01C21BD30B0E94691FB9
:103FC0009093D8038093D7038091D9039091DA031B
:103FD0008C179D0720F4D093DA03C093D903DF91A7
:103FE000CF9108950E94CB1F8091D603882311F0B2
:103FF00089E601C084E690E02091D403821B9109F8
:104000002091D9033091DA03AC01429FC001439F54
:10401000900D529F900D1124089508950E949A1FAB
:104020008093D4031092D8031092D7031092DA032E
:104030001092D9031092CE031092CF031092D003A6
:104040001092D1031092CA031092CB031092CC03AA
:104050001092CD030895CF93DF9360E971E080E083
:104060000E94680E9093C9038093C80381E00E9468
:104070008C16EC01C854D44FC93729E6D20710F08A
:10408000C8E7D9E6CE010E942407BE0180E00E9465
:10409000680E813C2FEF920710F080EC9FEF909319
:1040A000C7038093C6030E942E0D8093D6030E94FF
:1040B000C3169093C5038093C4030E941438909351
:1040C000D3038093D2030E940E2081E08093D50316
:1040D000DF91CF910C94B10C0E94691F9093D30390
:1040E0008093D2031092D50308950E94B5248111C4
:1040F0001DC00E94D61D811119C00E9486198823F7
:1041000051F18091CE039091CF03A091D003B09153
:10411000D10380599F4FAF4FBF4F8093CE039093F1
:10412000CF03A093D003B093D10308958091CA0325
:104130009091CB03A091CC03B091CD0380599F4FB8
:10414000AF4FBF4F8093CA039093CB03A093CC0390
:10415000B093CD03D2CF0895CF93DF938091D50351
:10416000811102C082E0C9C080E00E94870C2091CA
:10417000C6033091C7038217930758F42091C803F0
:104180003091C90382179307A8F40E94D31D882396
:1041900089F00E94BB16823009F087C080916503C8
:1041A00090916603029709F080C00E942E0D811144
:1041B0007CC07EC0C091D6030E942E0DC81719F096
:1041C00081EE9BE095C0C091AF03D091B003C85180
:1041D000DC4F0E94420DC817D90718F486ED9BE00A
:1041E00087C086E00E947E0C2091530330915403D7
:1041F0008217930718F487EC9BE07AC089E10E944C
:104200007E0CC091C403D091C503C83E2DEFD207E8
:10421000D9F08C179D07C0F00E94C316C817D907A4
:1042200009F04EC00E94BB16811160C080916303EB
:104230009091640360916703709168030E94F83E57
:104240006A307105E8F552C0C0917303D0917403D0
:10425000C83E83E0D807A0F46091CA037091CB03F5
:104260008091CC039091CD0320E63AEE40E050E0FF
:104270000E940C3F2C173D0718F08CEA9BE01AC0F7
:104280008091750390917603892B09F46BCF87E0B9
:104290000E947E0C2091770330917803281739070C
:1042A00008F060CF8CE99BE023C080EF9BE020C04A
:1042B00080EF9BE090933E0380933D0381E01DC01F
:1042C000C091C403D091C5030E94C3168C179D07EB
:1042D00030F487EB9BE090933E0380933D030E9474
:1042E000C3169093C5038093C403E8CF87EB9BE08C
:1042F00090933E0380933D0380E0DF91CF9108953A
:104300000E942A1F0E947D1D0C94A61ACF93DF9352
:104310001F92CDB7DEB78091DB03882329F081306F
:1043200031F40E94B11D0CC00E944D1F09C00E94B3
:10433000CC1B823089F089830E94802189810CC046
:10434000813051F49091AC03992331F082E0809355
:10435000DB030E946D1A82E00F90DF91CF910895E8
:10436000CF93DF930E946D1A61E083E00E948D1C61
:10437000C091B103D091B2030E94280D811106C0F3
:104380000E94380DC817D90740F40CC0CE010E9416
:10439000491C0E941A1C882329F00E94231F109296
:1043A000DB030BC060E083E00E948D1C0E94811D36
:1043B00081E08093B6038093DB03DF91CF91089572
:1043C0008091DC03813029F48091AD039091AE039C
:1043D000089580E090E008952CE0829FC0011124B0
:1043E00088519C4F0C945D2580E394E00C945D25EE
:1043F000CF93DF9300D000D0CDB7DEB782E10E942B
:104400007E0C9A83898384E10E947E0C29813A8103
:10441000281B390B3A83298387E10E947E0C9C83F9
:104420008B83CE0101960E945D250F900F900F9017
:104430000F90DF91CF910895AF92BF92CF92DF920C
:10444000EF92FF920F931F93CF93DF93182F81E08A
:104450008093DC030E94380DBC012091AD033091A4
:10446000AE034091B1035091B203012F88E294E072
:104470000E9478258091B1039091B2030E94491C5B
:104480006C0180EEE82E83E0F82EC0E0D0E0AA2494
:10449000A394B12C95010C2E02C0220F331F0A9455
:1044A000E2F780912F039091300328233923232BA7
:1044B00069F08C2F0E94D819BC012091AD03309176
:1044C000AE03012FA601C7010E94782521968CE03A
:1044D000E80EF11CC630D105E9F6109236041092B0
:1044E000DF031092350410923404DF91CF911F91B5
:1044F0000F91FF90EF90DF90CF90BF90AF90089515
:104500001F93CF93DF93182FEB018091AC03882387
:1045100061F1112349F080913604811105C00E9498
:104520009E1A81E08093360480913604882311F02E
:104530008530D9F42091AD033091AE03203A310596
:1045400010F420EA30E02C173D0710F41092A80375
:104550000E94CC1B8093DC038130F1F40E94071A87
:10456000882319F08FEF8093AB030E94E0218C1712
:104570009D0780F0112371F080913604853051F44D
:104580009091DF0381E0890F8093DF0381E09A300F
:1045900020F402C01092DF0380E0DF91CF911F91E1
:1045A0000895CF92DF92EF92FF920F931F93CF93D4
:1045B000DF937C010E94380DA701BC0188E294E0E2
:1045C0000E943A2600EE13E0C0E0D0E0CC24C39471
:1045D000D12C96010C2E02C0220F331F0A94E2F751
:1045E00080912F039091300328233923232B41F00E
:1045F0008C2F0E94D819A701BC01C8010E943A263D
:104600002196045F1F4FC630D10519F7DF91CF9176
:104610001F910F91FF90EF90DF90CF900895AF9290
:10462000BF92CF92DF92EF92FF920F931F93CF939F
:10463000DF936091B1037091B20388E294E00E942D
:104640009D257C018091B1039091B2030E94491C89
:104650006C0100EE13E0C0E0D0E0AA24A394B12CDA
:1046600095010C2E02C0220F331F0A94E2F78091AD
:104670002F039091300328233923232B61F0B601B7
:10468000C8010E949D25E816F90628F0B601C80168
:104690000E949D257C012196045F1F4FC630D105E5
:1046A000F9F6C701DF91CF911F910F91FF90EF9025
:1046B000DF90CF90BF90AF9008950F931F93CF934B
:1046C000DF93EB012091AF033091B0038C012817E9
:1046D000390708F489010E94E0219C0180179107A5
:1046E00008F49801C217D307E1F040913604453031
:1046F000D1F42C173D07B8F082179307A0F48091EE
:10470000AD039091AE038C179D0758F04091DD03E7
:104710005091DE0380918B0390918C0348175907C9
:1047200011F4CE0109C080918B0390918C0390937A
:10473000DE038093DD03C901DF91CF911F910F91BB
:104740000895CF92DF92EF92FF920F931F93CF9332
:10475000DF937C010E94380D9093290480932804F4
:10476000F0922B04E0922A0400EE13E0C0E0D0E0C7
:10477000CC24C394D12C96010C2E02C0220F331FDF
:104780000A94E2F780912F03909130032823392374
:10479000232B41F08C2F0E94D819F801918380833C
:1047A000F382E2822196045F1F4FC630D10519F7CC
:1047B000DF91CF911F910F91FF90EF90DF90CF90FD
:1047C00008951F93CF93DF93182FEB010E94470D9D
:1047D000811108C01123E1F1209134043091350496
:1047E000232BB1F10E948619811132C0CE010E94A3
:1047F000D122CE010E94A1230E940F238C179D0776
:1048000008F048C09C012C0F3D1F3695279530932A
:10481000350420933404BE01809134049091350412
:104820000E945D2390933504809334049091360464
:10483000923009F1A8F49923C1F0913039F5112390
:1048400039F083E0809336041092350410923404DA
:104850008091340490913504DF91CF911F91089598
:10486000933061F0943081F011C0112389F30E94DC
:104870009E1A81E00CC010923604EACF10923504E3
:104880001092340484E003C0112311F385E0809377
:104890003604DECF9093350480933404BCCF0C945F
:1048A0005C1CCF93DF930E94691C0E94380DEC01C1
:1048B00082E00E948C168C179D0730F48091AF0324
:1048C0009091B0030E94EA248091B1039091B203C9
:1048D0008C179D0718F483EA99E03AC00E94A00C57
:1048E0000297E0F18091750390917603892B69F02E
:1048F0008DE10E947E0C209185033091860328175C
:1049000039071CF489E999E023C00E94A00C20918A
:10491000830330918403220F331FC1E08217930772
:1049200008F4C0E08C2F0E94A50CCC23B9F0809134
:104930007F0390918003892B89F08BE10E947E0C8C
:10494000EC010E94F516C817D90744F48FE999E0E5
:1049500090933E0380933D0381E001C082E0DF91AC
:10496000CF91089580913B04089581E0209139040E
:1049700030913A04232B09F480E0089580913904A2
:1049800090913A04089580913704909138040895E5
:104990000E943D0D009711F481E090E0BC0188E891
:1049A00093E10E94651920914D0330914E03281721
:1049B000390708F4C9010895853824EE920710F0EC
:1049C00084E894EE90933A04809339040E943C0763
:1049D0000C94B20DCF93DF93EC010E94C824BC016C
:1049E000C817D90708F4BE018091370490913804A4
:1049F0006817790750F49C01261B370B2D383105B9
:104A000068F0BC016C58710909C09B01281B390B67
:104A10002D38310518F0BC0164577F4F8617970772
:104A200059F070933804609337048FE00E94680E49
:104A3000DF91CF910C94DC24DF91CF910895809188
:104A40003B04811112C010923A0410923904109262
:104A500038041092370480E090E00E94DC2481E06A
:104A60000E944D0781E080933B04089580913B04B0
:104A7000882389F080E090E00E94DC2410923A04C0
:104A800010923904109238041092370480E00E948A
:104A90004D0710923B04089510923A041092390485
:104AA000109238041092370480E090E00E94DC24D9
:104AB00081E080933B040C943625FC0142815381B4
:104AC0004115510591F0A081B181B7FF03C0B195A7
:104AD000A195B10928EE33E00E94CA3E9A0140E058
:104AE00050E00E940C3FC901089580E090E00895D5
:104AF0000F93FC01CB01002341F04617570708F440
:104B0000CA016417750748F407C06417750708F4ED
:104B1000CA014617570708F4BA0197838683918321
:104B20008083138212821582148233872287681B46
:104B3000790B718760870F910895CF93DF93EC0114
:104B400088819981AA85BB85E885F985309701F12F
:104B50009B0140E050E0281B390B410951090E949C
:104B6000D13E9F01442737FD4095542F0E942E3F90
:104B70008A819B81280F391F411D511D2115310547
:104B800081E04807510524F457FD05C0C90105C05F
:104B90008FEF9FEF02C080E090E0DF91CF9108950A
:104BA000DF92EF92FF920F931F93CF93DF93EC016D
:104BB0002A813B812417350720F4FA01E21BF30B0D
:104BC00003C0F901E41BF50B8C819D8196958795B7
:104BD0008E179F0710F5E880F9802417350740F4F9
:104BE0008A01021B130BCB018E199F097C0105C0A2
:104BF000E61AF70A8901041B150BC7010E948015EC
:104C0000D82E888599850E948015D81206C01D83EC
:104C10000C83F986E8861B870A87DF91CF911F9165
:104C20000F91FF90EF90DF9008950F931F93CF9314
:104C3000DF93EC018B019A01A885B9850E94CA3ED9
:104C40002A853B8540E050E00E942E3FC801A0E04D
:104C5000B0E082179307A407B5071CF41F821E82D9
:104C600004C0021B130B1F830E83DF91CF911F9192
:104C70000F910895EF92FF920F931F93CF93DF93BD
:104C8000EC018B017A010E94D025A701B801CE0169
:104C9000DF91CF911F910F91FF90EF900C9415260B
:104CA0000F931F93CF93DF9300D000D0CDB7DEB723
:104CB00080E00E94750C9A83898381E00E94750CC4
:104CC00029813A81281B390B3A83298383E10E9489
:104CD0007E0C9C838B830CE314E0AE014F5F5F4F2F
:104CE000F801608180E00E94D20CAE014F5F5F4FFF
:104CF000F801608181E00E94D20C0F900F900F901C
:104D00000F90DF91CF911F910F9108950F931F93F3
:104D1000CF93DF93CDB7DEB728970FB6F894DEBFF9
:104D20000FBECDBF8C0189E00E94750C9E838D83E0
:104D300088E00E947E0C800F911F98878F838AE005
:104D40000E94750C9A8389830F81188580E20E94E6
:104D50007E0C800F911F9C838B83AE014B5F5F4F56
:104D600060913C0488E00E94D20CAE014B5F5F4F23
:104D700060913C0489E00E94D20C80E20E94E30E24
:104D8000882341F0AE014F5F5F4F60913C048AE0A1
:104D90000E94D20C28960FB6F894DEBF0FBECDBF8E
:104DA000DF91CF911F910F9108950F931F93CF9390
:104DB000DF9300D000D0CDB7DEB78C018AE00E942F
:104DC000750C9A83898389E00E947E0C800F911F65
:104DD0009C838B83AE014F5F5F4F60913C048AE000
:104DE0000E94D20C0F900F900F900F90DF91CF91F7
:104DF0001F910F910895CF93DF93D82F6DE779E03E
:104E000081E999E00E94D230C0E082E10E94E30E85
:104E10008823B1F00E94280D91E0811101C090E03B
:104E2000D917A1F0C1110CC06FE679E0DD2319F0AC
:104E300081E999E002C086E899E00E94D230C1E0A1
:104E40000E945538813009F780E001C081E0DF9190
:104E5000CF910895CF93DF9300D000D0CDB7DEB7C8
:104E6000962F5A8349833C832B838F3121F4C901C8
:104E70000E9486260EC0803221F4C9010E94D526E8
:104E800008C0AE014F5F5F4F60913C04892F0E94C4
:104E9000D20C0F900F900F900F90DF91CF9108954B
:104EA000FF920F931F93CF93DF93F82E162F042FAB
:104EB00083E00E94E836812F0E947E0CEC010E9464
:104EC000183D802F0E94750CAC019E01602F812F30
:104ED0000E942A27FF2049F081E0809333030E943B
:104EE000C30D0E94183D0E94502681E0DF91CF91B2
:104EF0001F910F91FF900C946713AF92BF92CF92C6
:104F0000DF92EF92FF920F931F93CF93DF93CDB772
:104F1000DEB761970FB6F894DEBF0FBECDBF8C0130
:104F20007B016A0160E070E0CE0101960E94312FA2
:104F30008FEF8A878DE990E09A8389831D870C879C
:104F40008FEF9FE79F878E87198A188A6FEF7FE719
:104F5000CE0101960E94402B61E0CE0101960E9495
:104F6000E12C082F87FD38C0682FCE0101960E94E2
:104F70002E2BB82E80FDF0CF81FF29C0112707FD11
:104F80001095F701E00FF11FA4908A2D0E94E30E07
:104F9000882311F30E94C30D109233031092660010
:104FA000CE0101960E94F52B882359F0F601E00FFF
:104FB000F11F44916A2D8B2D881F8827881F0E941E
:104FC000502781E08093330380936600C5CFCE01E4
:104FD00001960E94F52BC0CF61960FB6F894DEBF04
:104FE0000FBECDBFDF91CF911F910F91FF90EF903A
:104FF000DF90CF90BF90AF90089581E090E09093C4
:105000003D0480933C040E94AD1461E081E00E9465
:10501000C10F81E00E94FB26882349F020E044E88C
:1050200053E06BE873E08AEE92E00E947D270C94D7
:10503000DA0D81E090E090933D0480933C040E945F
:10504000AD1461E080E00E94C10F1092680020E082
:1050500043E852E0BA0188E892E00E947D2781E0AF
:10506000809368000C94DA0D8F3019F4CB010C9406
:10507000DC24CB010C94FF1DEF92FF920F931F9342
:10508000CF93DF9300D0CDB7DEB77C01443019F069
:105090006FEF7FEF02C061E070E069837A830E9466
:1050A0004B38082F10E0F7012089318941E050E0AA
:1050B00069817A81C7010E960E94C815F70166853D
:1050C000778583850F900F90DF91CF911F910F917E
:1050D000FF90EF900C943428AF92BF92CF92DF9262
:1050E000EF92FF920F931F93CF93DF93CDB7DEB76D
:1050F0006A970FB6F894DEBF0FBECDBFA82EB62EAE
:105100008A010E94AD1461E081E00E94C10F80E03D
:105110000E94FB26882309F47CC0AA2079F00E9413
:105120001F2588E799E60E94240732E0C32E4FE04E
:10513000D42E54E8E52E54EEF52E09C00E942C1E04
:1051400083E0C82E90E1D92EE12C20E4F22E4B2DE5
:105150006D2DCE0147960E94B50C4B2D6C2DCE01C6
:1051600043960E94B50C62E973E0CE0101960E945D
:10517000312F8FEF8A8725E930E03A832983DC8657
:10518000CD86BE86FA8AE98A2F89388D388B2F879B
:1051900061E0CE0101960E94E12C87FD22C08111C1
:1051A000F3CF6F8578898D2D0E943428CE0101962A
:1051B0000E94F52B882379F00E94C30D1A8F098F66
:1051C0002F853889388F2F8B1E8B0D8B8C2D0E944D
:1051D000750C9C8B8B8B60E070E08D2D0E943428C9
:1051E000D3CFAA2019F00E94362502C00E94451E86
:1051F000AE01495E5F4F6B2D8D2D0E94D20CAE012A
:105200004D5E5F4F6B2D8C2D0E94D20C81E00E9471
:1052100067130E94DA0D6A960FB6F894DEBF0FBED0
:10522000CDBFDF91CF911F910F91FF90EF90DF9055
:10523000CF90BF90AF900895EF92FF920F931F937E
:10524000CF93DF93CDB7DEB729970FB6F894DEBFC3
:105250000FBECDBF8C017B01BC01CE0101960E9427
:10526000312F60E0CE0101960E94E12C682F87FD6E
:1052700010C0E82FEE0FFF0BEE0DFF1D459154916E
:1052800081E093E0063A190709F080E00E946C285B
:10529000E8CF29960FB6F894DEBF0FBECDBFDF91E1
:1052A000CF911F910F91FF90EF90089510923D04C0
:1052B00010923C040E940E3D81E090E090937603B2
:1052C0008093750361E080E00E94C10F20E04AE412
:1052D00052E0BA018BE492E00E947D270E94DA0D31
:1052E0000C94F83CCF93DF93CDB7DEB72A970FB677
:1052F000F894DEBF0FBECDBF6CEA73E0CE0101961D
:105300000E94312F60E0CE0101960E94E12C87FDC2
:105310002AC010927603109275038A870E94F83C87
:105320008A858230A1F04CF4882371F08130C1F479
:105330006CE973E086EA93E00EC0833079F0843044
:1053400079F40E9419280CC00E94FD2709C068E961
:1053500073E080EA93E00E941C2902C00E94562953
:105360000E940E3DCFCF10923F032A960FB6F894BD
:10537000DEBF0FBECDBFDF91CF910895CF93DF93F6
:10538000EC01842F0E94F80D9E0136952795A90106
:105390004C0F5D1F8417950730F4C21BD30B21E01F
:1053A000C817D90708F020E0822FDF91CF91089528
:1053B00068EE73E080E00E94680E2BE1289FB00148
:1053C000299F700D112440E088E799E60C94BE29CE
:1053D0001F93CF93DF93182F68EE73E00E94680E3F
:1053E0009C01C0914D03D0914E03DE010E94BB3E53
:1053F00028EE33E040E050E00E940C3FCA01B901C2
:10540000412FCE01DF91CF911F910C94BE29CF93F4
:10541000DF931F92CDB7DEB7482F64E670E0498373
:105420000E94680EBC01660F771F680F791F4981C3
:105430008CE291E00F90DF91CF910C94BE29CF9335
:105440000E94FC13C82F882341F10E94D829C82F3D
:10545000811105C087E699E00E94CF311EC08FE020
:105460000E94E829882329F082E00E94E82981111E
:1054700006C08EE599E00E94CF31C0E00EC080E109
:105480000E94072A882331F083E00E94072AC82F50
:10549000811103C082E599E0EECF8C2FCF91089562
:1054A0000C941F2A1F93CF93DF93EC01162F82E1F8
:1054B0000E94E30E81110EC06DE779E081E999E069
:1054C0000E94D2308B85803171F5DF91CF911F9191
:1054D0000C94451E612FCE010E942C2FCE010996FF
:1054E0000E94C336882311F0298501C02FEF33278E
:1054F00027FD3095812F90E028173907A1F0111171
:1055000004C069E08E859F8509C00E94420D67E056
:105510000E94583B8C850E94750C66E0DF91CF910C
:105520001F910C94C13ADF91CF911F910895CF93B1
:10553000DF93DC011B96CD91DC911C9790E080E01D
:10554000FE012EE0829FE00DF11D1124329625917F
:1055500034912115310599F01D964D915C911E975E
:1055600037FF03C057FF09C0305824233523232BAE
:1055700021F0662329F061509F5F8F5FE1CF892F73
:10558000DF91CF910895EF92FF920F931F93CF93E6
:10559000DF93EC01F62E0E94972A9EE0899F8001FE
:1055A0001124EB85FC85E00FF11F859194910E94F9
:1055B0004939E82ECE0109960E94C336882311F09E
:1055C000298501C02FEF332727FD30956F2D70E01F
:1055D00026173707E1F06FE06E19EB85FC85E00FC9
:1055E000F11F3596F490FF2029F0862F8F190E9425
:1055F00085396F2D8B859C85800F911F0496DF91D7
:10560000CF911F910F91FF90EF900C944536DF9151
:10561000CF911F910F91FF90EF900895CF93DF935B
:10562000EC010E94972A2B853C859EE0899F200DE6
:10563000311D1124F901369645915491CA01F901A1
:10564000349624912150223030F4FA01459155913D
:1056500065917491CB01DF91CF910895CF93DF9342
:10566000EC010E94972AEB85FC859EE0899FE00D66
:10567000F11D1124329685919491DF91CF91089577
:10568000FF920F931F93CF93DF93EC018B016A81FD
:105690008B81680FCE010E94972AF82E1E870D87F6
:1056A0006FEFCE010E94972A8C8310E08C8118172F
:1056B00060F4612FCE010E94972A8F1104C08A8165
:1056C000181B1B8302C01F5FF1CFDF91CF911F9189
:1056D0000F91FF900895CF92DF92EF92FF920F9378
:1056E0001F93CF93DF93CDB7DEB72C970FB6F89407
:1056F000DEBF0FBECDBF7C01D62EC42E0E940E2B66
:105700008C016D2DC7010E94972AD7011B966D91C0
:105710007C911C97BEE08B9F600D711D1124685F0A
:105720007F4F46E050E0CE0107960E94533F86E04F
:10573000FE013796DE01119601900D928A95E1F7F0
:1057400069817A81EB81FC812D813E8142E0C41622
:1057500019F081E090E002C08FEF9FEF6F3FAFE75D
:105760007A0731F4AF01BC01C8010E94071624C0BA
:105770006E3FBFE77B0711F409951EC0869FA0010D
:10578000879F500D969F500D1124D8018D919C91AB
:105790001197480F591F4E175F071CF04D935C93EC
:1057A00003C0D801ED93FC93F80180819181281703
:1057B000390714F431832083D7011F96ED91FC91B2
:1057C0005097309719F0B801C70109952C960FB67C
:1057D000F894DEBF0FBECDBFDF91CF911F910F9127
:1057E000FF90EF90DF90CF900895EF92FF920F938C
:1057F0001F93CF93DF93EC018B819A81890F898767
:105800001A8681E08D8382E0E82EFF24F3948E01D6
:10581000075F1F4F0E945538482F823011F08430A7
:1058200089F4E881F9816B818A81680F0280F381B4
:10583000E02DCE0109958B819A81890F8987EA86AF
:10584000FD8204C0813089F0883079F0C8010E945F
:10585000CE368111FD828D81882319F0CE010E9400
:105860007C2C8A858F5F8A87D5CF8FEF898781E0EF
:105870008E838D83483009F080E0DF91CF911F91B6
:105880000F91FF90EF9008950895FC0185EA90E054
:105890009183808312821382648381E0858386836F
:1058A0000895FC018481823010F022E001C0282F8D
:1058B0009281492F50E030E02150310942175307BF
:1058C0001CF49F5F928308952381420F511D90E045
:1058D00001974817590714F42F5F23830895FC019B
:1058E0008281882319F081508283089583818823DF
:1058F00011F0815083830895FF920F931F93CF93EC
:10590000DF93EC0100E010E0F02E602F80E00E94B9
:10591000EE388A81081302C08EE301C080E20E9443
:1059200000396B819801260F311D8C8190E028177A
:10593000390744F4E881F9816F0D0190F081E02D81
:10594000CE0109950E948C390F5F1F4F023011055F
:10595000D9F61D82DF91CF911F910F91FF9008958D
:105960000F931F93CF93DF93EC010E945538182FAC
:105970000E94BD3C882321F081E08D838FE71CC00D
:105980000B818A81080F123031F0143039F4CE01C6
:105990000E94512C03C0CE010E946F2C8B819A81F2
:1059A000890F081711F081E08D838D81882319F00C
:1059B000CE010E947C2C812FDF91CF911F910F91FE
:1059C0000895EF92FF921F93CF93DF931F92CDB76D
:1059D000DEB77C0181E0F701858311E0C7016983AF
:1059E0000E94B02C6981811102C0F7011682F70173
:1059F0009681911108C0883031F481E086838381DB
:105A00009281890F09C0662311F0F7011583813057
:105A100029F79111E3CF8FEF0F90DF91CF911F9175
:105A2000FF90EF900895CF93DF93CDB7DEB729971E
:105A30000FB6F894DEBF0FBECDBF68EB73E0CE01AA
:105A400001960E94312F60E0CE0101960E94E12C68
:105A5000813039F0823041F0811109C00E94BE2EA0
:105A6000F2CF0E947229EFCF0E940714ECCF87FF7C
:105A7000EACF29960FB6F894DEBF0FBECDBFDF91F7
:105A8000CF9108950F931F93CF93DF93EC010E9462
:105A9000281701E010E09C0141E050E0BE0185E6DE
:105AA00093E00E94C815DF91CF911F910F91089547
:105AB000CF93DF938091610390916203892B21F151
:105AC0000E94BB16C1E0D0E002C0CC0FDD1F8A955A
:105AD000E2F78091750390917603892B11F4D05CE5
