:100000000C94AC010C94D4010C94D4010C94D40144
:100010000C9406040C94D4010C94D4010C94D401D7
:100020000C94D4010C946A040C9436040C9441048E
:100030000C94D4010C94E7040C941C050C94D4018A
:100040000C94E2030C94D4010C94D4010C94D401CC
:100050000C94D401161418141A141E141E141C1413
:1000600022142014FF000000000005040000040515
:10007000090000FF01010000010505000005050A57
:100080000000FF02020000020506000006050B004A
:1000900000FF03030000030507000007050C000034
:1000A000FF00000000040511020004040D0000FF21
:1000B00001010000050511040005040E00000605FD
:1000C000110100FF020200000705110800D1000025
:1000D000006F7074696F6E730080250000004B0024
:1000E000000096000000E1000000C20100010001D4
:1000F00000010001000100B0040807520300005293
:1001000003B0040807E8030000E803D0079209D60B
:100110000600006C07E40C100ED007E40CB80B10BE
:100120000E0410C409A60EAC0D740E6810B80B0AAC
:100130000F890C740ECC10B80B0A0F890C740EFECC
:1001400010B80B0A0F890C40066C0714054006789E
:10015000050100A00FD007010001000100A00F0160
:100160000001000100A9029F029A02950290028BF1
:1001700002860281027C027702A402730219030A3A
:10018000030203F802EC02E402D502CA02BB02AE8B
:100190000200090003040708090003070809000119
:1001A0000203040708090001020304050607080901
:1001B00009636865616C692D636861726765720ABD
:1001C00076312E39395F3230313630353131006099
:1001D000020F004D0066030100000001006F020ED7
:1001E00000410058030A00000088136B020F004111
:1001F000005A030A000000881300000000000000FD
:1002000000000000000000E803014903E803004784
:1002100003640000450364000042036400004003DF
:10022000E803013D03E803013B030100003903E853
:10023000030147030100003203640000350301009D
:10024000003303010000330301000000000100003F
:100250003003141719181A0705061F20212223241A
:100260006164617074206469733A0056643A0056A0
:10027000633A004C4544004E695A6E004C343335A5
:10028000004C343330004C69706F004C696C6F0067
:100290004C6966650050622020004E694D48004E52
:1002A00069436400556E6B6E004E6F6E6500656449
:1002B000697420626174746572790063617061634E
:1002C00069747920636865636B00443E4320666F00
:1002D000726D61740073746F726167652B62616C1B
:1002E000616E630073746F72616765006661737439
:1002F000206368617267650064697363686172672F
:10030000650062616C616E63650063686172676558
:100310002B62616C616E6365006368617267650082
:100320006E6F6C696D697400206E6F007965730083
:100330005500006D00432F6D002500F4004168005A
:10034000430057680057005600410000690200064C
:100350009D0B00125E12841211241FBECFE5D8E05F
:10036000DEBFCDBF10E0A0E6B0E0E6E4F6E302C0F9
:1003700005900D92AA3AB107D9F714E0AAEAB0E0C5
:1003800001C01D92AC36B107E1F713E0C8E5D3E038
:1003900004C02297FE010E94FB1ACC34D107C9F792
:1003A0000E94960B0C94211B0C94000020E042E06C
:1003B00060E18AEA90E00E942D180E9466040E9483
:1003C000DB040C946D02CF92DF92EF92FF92482FE4
:1003D000282F30E0A0E0BDE70E94731A6B017C017A
:1003E000A4E6B0E0A41BB10924E630E00E94821A22
:1003F0006C0D7D1D8E1D9F1D24E630E040E050E019
:100400000E94B81AB9018DE0FF90EF90DF90CF9075
:100410000C94C504882311F0909A0895909808953B
:10042000811102C0969A089596980895811102C08C
:10043000929A089592980895811106C0939A0E9405
:10044000100280E00C94160293980895BC018EE08F
:100450000C94C504BC018EE00C94C50480FF02C05E
:10046000C09A01C0C09881FF02C0C19A01C0C19862
:1004700082FF02C0C29A01C0C29883FF02C0C39A21
:1004800001C0C39884FF02C0DE9A01C0DE9885FFD8
:1004900002C0DF9A0895DF98089580E00E941C0250
:1004A00080E00E940A0280E00E94510480E00E94E5
:1004B0002E028C9A8B9A889A8F9AB89AB99ABA9A7D
:1004C000BB9AD69AD79A8D9A8E9A8D9A8A9A0895BF
:1004D00008958AEA90E00C948218D598D498DD9813
:1004E000DC98BF9ABE9ABD9A8EEA86B9369A08956C
:1004F00034B145B1E091BB00E13131F12FB7F8944F
:10050000832F90E0942BF0E0DF01AA0FBB1FA954CA
:10051000BD4F11969C938E933091B300332391F08D
:10052000EE0FFF1FEE0FFF1FE752FD4F408151817D
:1005300062817381480F591F611D711D4083518372
:10054000628373832FBF08952091BC003091B00067
:1005500047FD02C0232B02C0209523232093B00027
:1005600008950E9452109093D6028093D5020E9463
:10057000000F9093D8028093D7028091B300882314
:1005800009F481C00E945210409115035091160346
:100590006091170370911803480F591F611D711D59
:1005A0004093150350931603609317037093180339
:1005B0000E94000F4091190350911A0360911B0390
:1005C00070911C03480F591F611D711D4093190341
:1005D00050931A0360931B0370931C0380911D03B7
:1005E00090911E03019709F04CC08091E102909117
:1005F000E202A091E302B091E402B695A795979527
:1006000087958093E1029093E202A093E302B09376
:10061000E4028091D9029091DA02A091DB02B091BC
:10062000DC02B695A795979587958093D90290930C
:10063000DA02A093DB02B093DC028091DD0290919C
:10064000DE02A091DF02B091E002B695A7959795E2
:1006500087958093DD029093DE02A093DF02B09332
:10066000E0028091E5029091E602A091E702B0914C
:10067000E8028093E5029093E602A093E702B0932C
:10068000E8020C944C080895809142039091430332
:10069000892BE9F04091B8004423C9F081E090E053
:1006A0000090B50002C0880F991F0A94E2F72091CC
:1006B0001D0330911E032F703FB7F8945BB39BB3BB
:1006C000982B9BBB240F2A95F1F75BBB3FBF089586
:1006D0008091B2008F5F853108F080E08093B20096
:1006E00085E0E4EBF0E0A9EBB0E001900D928A9593
:1006F000E1F76091B2006F5F653108F060E085E07E
:10070000689FB00111246C597F4F45E050E084EBA5
:1007100090E00E94FF1A8091B20081110CC00E94EB
:10072000B10280911D0390911E0321E0892B09F4F1
:1007300020E02093B3000895CF93DF930E947802C6
:100740008091B10091E0980F9093B100873079F1DA
:1007500018F4882359F033C0883069F1893079F56D
:100760001092B100DF91CF910C9468038091B40096
:1007700087FD25C02FB7F8949091B40088B3392F26
:100780003170C32F30E0D32FCC0FDD1FCC0FDD1F16
:1007900092FB332730F9C32B9270C92B90E2C90228
:1007A000E00111248F718C2B88BB2FBF08C0DF9113
:1007B000CF910C9444038091B500806287B9DF919A
:1007C000CF9108951F920F920FB60F9211242F937D
:1007D0003F934F935F936F937F938F939F93AF93C9
:1007E000BF93EF93FF930E949C03FF91EF91BF9102
:1007F000AF919F918F917F916F915F914F913F91B9
:100800002F910F900FBE0F901F9018951F920F926F
:100810000FB60F9211242F933F934F935F936F93D3
:100820007F938F939F93AF93BF93EF93FF930E9418
:100830005414FF91EF91BF91AF919F918F917F9150
:100840006F915F914F913F912F910F900FBE0F903D
:100850001F90189588E085BD85B5846085BD14BC62
:100860008CE783BD89B7806889BF08951F920F9276
:100870000FB60F921124979A0F900FBE0F901F90F2
:1008800018951F920F920FB60F9211248F9397987D
:100890008091BE0082BF8F910F900FBE0F901F906E
:1008A0001895811104C013BE12BE9798089590E068
:1008B0009595879528E7280F2093BE0088589E4F6E
:1008C000959587958CBF8CE483BF089589B7836025
:1008D00089BF08951F920F920FB60F9211242F9384
:1008E0003F938F939F932091C5003091C6008091D4
:1008F000C1009091C200820F931F9093C200809319
:10090000C1002091C3003091C4008091BF0090913C
:10091000C000820F931F9093C0008093BF002FB739
:10092000F8948091C1009091C20035E0969587952A
:100930003A95E1F79BBD8ABD8091BF009091C000C0
:1009400035E0969587953A95E1F799BD88BD2FBF1B
:100950008091C1009091C2008F7199279093C2003D
:100960008093C1008091BF009091C0008F71992742
:100970009093C0008093BF009F918F913F912F91E2
:100980000F900FBE0F901F9018959FB7F8948E3060
:1009900039F47093C6006093C5008FB5806808C0B5
:1009A0008D3039F47093C4006093C3008FB58062BA
:1009B0008FBD9FBF089580E094E097BD86BD82E023
:1009C0008FBD89E18EBD89B7846089BF08951F926C
:1009D0000F920FB60F9211242F933F934F938F9343
:1009E0009F93EF93FF935A991AC04CB18091DD0108
:1009F0009091DE01019699272091DF013091E0016D
:100A00008217930769F0E091DD01F091DE01E35276
:100A1000FF4F40839093DE018093DD0101C08CB1D4
:100A2000FF91EF919F918F914F913F912F910F9057
:100A30000FBE0F901F9018951F920F920FB60F9236
:100A400011242F933F938F939F93EF93FF932091C4
:100A5000DD013091DE018091DF019091E0012817E6
:100A6000390711F4559812C0E091DF01F091E001CF
:100A7000E352FF4F20818091DF019091E0010196C8
:100A800099279093E0018093DF012CB9FF91EF91BA
:100A90009F918F913F912F910F900FBE0F901F90BC
:100AA0001895CF92DF92EF92FF92CF93DF93EC01F4
:100AB0006A017B01411581EE580761057105F9F066
:100AC000E885F98581E090E00C8802C0880F991FC5
:100AD0000A94E2F7808360E079E08DE390E0A7017B
:100AE00096010E94B81A21503109410951095695C1
:100AF000479537952795211580E1380798F0E885C7
:100B0000F985108260E874E88EE190E0A701960113
:100B10000E94B81A2150310941095109569547954B
:100B200037952795EC81FD813083EE81FF8120830D
:100B30001D8AEA85FB85408181E090E09C0109885F
:100B400002C0220F331F0A94E2F7422B4083EA854A
:100B5000FB8540819C010A8802C0220F331F0A9442
:100B6000E2F7422B4083EA85FB8520810B8802C097
:100B7000880F991F0A94E2F7809582238083DF9182
:100B8000CF91FF90EF90DF90CF900895CF93DF93B8
:100B9000FC0122813381D901B3958D919C911197EC
:100BA00001969927E901CE5FDE4F4881598184176C
:100BB0009507D9F30D90BC91A02DA20FB31F6C9394
:100BC000A281B381B39511969C938E93A285B38530
:100BD0002C9181E090E0038802C0880F991F0A944D
:100BE000E2F7282B2C9381E0858B0084F185E02DA2
:100BF00080818064808381E090E0DF91CF910895CF
:100C00008DED90E09093C8008093C7009093CA0048
:100C10008093C90080E490E09093CC008093CB0057
:100C200029E230E03093CE002093CD002BE230E07B
:100C30003093D0002093CF002AE230E03093D200EE
:100C40002093D1009093D4008093D3008CE290E065
:100C50009093D6008093D50084E08093D70083E002
:100C60008093D80087E08093D90085E08093DA00F4
:100C700081E08093DB000895CF93DF931F92CDB77F
:100C8000DEB7E0916804F0916904309711F4ECE666
:100C9000F4E0CE0101962EEB8E179F0710F0219302
:100CA000FBCF0F90DF91CF910895CF93DF9300D0CA
:100CB000CDB7DEB720916804309169042115310564
:100CC00011F42CE634E0CE010196821B930B0F90B9
:100CD0000F90DF91CF910895CF93DF931F92CDB7FF
:100CE000DEB720916804309169042115310511F4B3
:100CF0002CE634E0F901AE014F5F5F4FCF01821B5C
:100D0000930B4E175F0728F060816E3B11F431960C
:100D1000F5CF0F90DF91CF910895009741F0EFE963
:100D2000FFE03197F1F700C000000197F6CF08957A
:100D30008436910538F064E670E00E94A41ACB0175
:100D40000C948D06019728F025E32A95F1F7000011
:100D5000F9CF08956AE070E00E94A41ACB010C94C8
:100D60009806E82FF0E0EE0FFF1FEB56FD4F808155
:100D700091810895E82FF0E0EE0FFF1FE55BFD4F36
:100D80008081918108952FB7F894E82FF0E0EE0F5D
:100D9000FF1FE954FD4F808191812FBF08958091FD
:100DA000230308958091FF01909100020895262F5A
:100DB000613110F4423040F021E030E0FC01338337
:100DC000228331832083089550E0BA01620F711DA0
:100DD000620F711D660F771F660F771F625F7F4F6F
:100DE00044E050E00C94111B2FB7F89480E090E0A1
:100DF000FC01EE0FFF1FEE0FFF1FE752FD4F1082A9
:100E000011821282138201968131910589F784E65D
:100E100090E090931E0380931D03109222032FBF36
:100E20000895CF93CFB7F8941092FE011092FD0170
:100E30001092F9011092FA011092FB011092FC013C
:100E40001092F5011092F6011092F7011092F8013C
:100E50001092F1011092F2011092F3011092F4013C
:100E60000E947C149093EC018093EB01CFBFCF9153
:100E700008950E9411071092F0011092EF01109254
:100E8000EE011092ED010895E1E0F2E0119211926D
:100E900082E0EB34F807D1F70895CF93CFB7F894F9
:100EA00081E090E090931E0380931D0381E0809386
:100EB00022030E944407CFBFCF910895CF93DF93C1
:100EC0000E944D07C091FF01D09100028091FF0167
:100ED00090910002C817D90729F48AE090E00E9497
:100EE000A214F4CFDF91CF9108958F929F92AF9289
:100EF000BF92CF92DF92EF92FF92CF93DF93CDB765
:100F0000DEB728970FB6F894DEBF0FBECDBFF82E20
:100F10005B016115710509F445C040E0682FCE0101
:100F200005960E94D70641E06F2DCE0101960E94E2
:100F3000D7062B813C8140E050E0CF80D884E12C63
:100F4000F12C2C193D094E095F09B50180E090E0B4
:100F50008D809E80A12CB12C681979098A099B0982
:100F60000E94941A29813A8140E050E028193909F9
:100F70004A095B090E94DA1A2C0D3D1D4E1D5F1DAA
:100F800057FD0BC02115310581E04807510544F09C
:100F90002FEF3FEF40E050E003C020E030E0A90138
:100FA000C90102C080E090E028960FB6F894DEBF39
:100FB0000FBECDBFDF91CF91FF90EF90DF90CF902C
:100FC000BF90AF909F908F9008958250893130F4F8
:100FD000E82FF0E0EF58FF4F8081089581E00895F9
:100FE000CF93C82F833149F481E02091750230916D
:100FF00076022331310581F412C00E94E507813069
:1010000069F4EC2FF0E0EE0FFF1FE55BFD4F208150
:1010100031812139314018F480E001C081E0CF9165
:101020000895EF92FF920F931F93CF93DF931F9238
:10103000CDB7DEB79FE101E010E0E12CF12C892F64
:1010400099830E94F0079981882311F0E02AF12A00
:10105000000F111F9F5F953291F7C7010F90DF912D
:10106000CF911F910F91FF90EF9008952FB7F894B3
:101070006091E6017091E7018091E8019091E901AA
:101080002FBF2DE730E040E050E00E94B81ABB27A8
:10109000A52F942F832F089580911D0390911E03F7
:1010A000892B49F080911D0390911E030197909325
:1010B0001E0380931D03089590E0880F991FFC0183
:1010C000E55BFD4F208131816217730718F4261B01
:1010D000370B04C0AB01421B530B9A01FC01EF5FBD
:1010E000FD4F2730310518F01182108206C0208193
:1010F00031812F5F3F4F31832083FC01E55BFD4F42
:101100007183608308958FB7F8941092E60110926E
:10111000E7011092E8011092E9011092E2011092A9
:10112000E3011092E4011092E5018FBF0E944D0788
:101130000E94390760E070E089E10E945C0860E08D
:1011400070E08BE10E945C0860E070E08CE10E943E
:101150005C0860E070E08DE10C945C081092000285
:101160001092FF010C948308CF93DF931F92CDB7A9
:10117000DEB790912303911110C069830E941C0275
:10118000698161110E94AE0881E0809323038093FE
:1011900066000E945E07109221030F90DF91CF91AD
:1011A00008950C94AE0880912303882309F44FC05E
:1011B0004091790250917A028091E6019091E70185
:1011C000A091E801B091E901840F951FA11DB11D07
:1011D0008093E6019093E701A093E801B093E901C1
:1011E0008091E10191E0980F9093E101883578F1C9
:1011F00020916F0230917002DA010E94731A24E686
:1012000030E040E050E00E94B81A8091E2019091F5
:10121000E301A091E401B091E501280F391F4A1FB5
:101220005B1F2093E2013093E3014093E40150936C
:10123000E501CA01B90120EA3CE840E050E00E9423
:10124000B81AB9018AE10E945C081092E101089580
:10125000CF92DF92EF92FF920F931F93CF93DF9382
:101260001F92CDB7DEB7C0904B02D0904C02809158
:101270004D0290914E028C159D0518F4C81AD90A9A
:1012800002C0C12CD12CB60182E10E945C080DE5A0
:1012900012E09FE1F801619171918F01892F99838B
:1012A0000E945C0899819F5F9532A1F7809121038C
:1012B000811106C00E9411089093200380931F03A0
:1012C000E0901F03F0902003E9E8F2E080E090E076
:1012D00000E010E041E050E09A01082E02C0220F29
:1012E000331F0A94E2F72E213F21232B21F0208186
:1012F0003181020F131F019632968630910561F7F6
:10130000B80183E10E945C080115110581F00C15FC
:101310001D0520F4C601801B910B03C0C8018C1968
:101320009D09893B9B4018F4680113E103C012E159
:10133000E12CF12CB60184E10E945C08B70186E142
:101340000E945C08612F70E085E10E945C080E94A9
:1013500036087C010E94F40E882329F00091510286
:10136000109152020BC00E944610882329F0009170
:101370004F021091500202C000E010E0B80187E176
:101380000E945C08B70189E10E945C089801D601BF
:101390000E94731A20E137E240E050E00E94B81A40
:1013A000B90188E10F90DF91CF911F910F91FF90CC
:1013B000EF90DF90CF900C945C081F93CF93DF9356
:1013C000182FC82FD0E0FE01EE0FFF1FEE0FFF1FFA
:1013D000E752FD4F608171818281938128EE33E075
:1013E00040E050E00E94B81AFE01EE0FFF1FEB56DE
:1013F000FD4F31832083B901812F0E947507BC0105
:10140000812FDF91CF911F910C945C084F925F92D6
:101410006F927F928F929F92AF92BF92CF92DF9204
:10142000EF92FF92CF93DF93CDB7DEB728970FB639
:10143000F894DEBF0FBECDBF0E947C142091EB015B
:101440003091EC01821B930B8133954708F4A4C0C3
:101450004FB7F8942091FD013091FE01A8EEB3E062
:101460000E94731A6B017C01F694E794D794C79499
:101470004090F9015090FA016090FB017090FC01DE
:101480006091F5017091F6018091F7019091F8015A
:101490008090F1019090F201A090F301B090F401DE
:1014A0004FBF6D837E838F8398870E9411072091A1
:1014B000EF013091F0012F5F3F4F3093F001209307
:1014C000EF016D817E818F819885A70196010E9431
:1014D000B81A29833A834B835C83C301B201A70105
:1014E00096010E94B81AB90180E00E9475073C017C
:1014F00069817A8181E00E9475078615970518F445
:10150000681A790A02C0612C712C409083025090B5
:1015100084026414750420F48091EA01811104C0EE
:10152000B3018CE10E945C08B301641975098BE179
:101530000E945C08C501B401A70196010E94B81A77
:10154000B90187E00E9475072091ED013091EE010D
:101550009093EE018093ED01BC01621B730B660F4B
:10156000771F8DE10E945C08B6018EE128960FB6C8
:10157000F894DEBF0FBECDBFDF91CF91FF90EF900B
:10158000DF90CF90BF90AF909F908F907F906F90A3
:101590005F904F900C945C0828960FB6F894DEBFCD
:1015A0000FBECDBFDF91CF91FF90EF90DF90CF9036
:1015B000BF90AF909F908F907F906F905F904F9073
:1015C0000895CF932FB7F89480911D0390911E0337
:1015D0002FBF892B09F091C08091220381118AC00D
:1015E00080912303882309F47EC08091FF019091AC
:1015F00000020196909300028093FF014091D9026E
:101600005091DA026091DB027091DC027695679569
:10161000579547958091F9019091FA01A091FB01AE
:10162000B091FC01840F951FA61FB71F8093F9018D
:101630009093FA01A093FB01B093FC014091DD026D
:101640005091DE026091DF027091E002769567951D
:10165000579547958091F5019091F601A091F7017A
:10166000B091F801840F951FA61FB71F8093F50155
:101670009093F601A093F701B093F8014091F50221
:101680005091F6026091F7027091F8027695679595
:10169000579547958091F1019091F201A091F30146
:1016A000B091F401840F951FA61FB71F8093F1011D
:1016B0009093F201A093F301B093F4018091FD01A6
:1016C0009091FE0101969093FE018093FD010E948E
:1016D000060AC0E08C2F0E94DD09CF5FC131D1F72F
:1016E0000E94280907C080916600882319F085E0D0
:1016F0000E94DD09CF910C94F406CF9108950C94CB
:10170000E10A0E944D0278940E94D6010E942A04A8
:101710000E947B100E94250F0E94D1080E943C0667
:101720000E94CE0B0E9441120C9456120E94810B13
:101730000E944A1A80E090E008956DEC70E084E227
:1017400093E00E9429128EE890E090932503809305
:101750002403E8E2F3E080818C5E80830895FC013D
:1017600024812451621710F40C942412862F821BBA
:101770000C94EC0DDC015896ED91FC915997EE0F0D
:10178000FF1FEE0FFF1FE752FF4F65917591859187
:1017900094910895FC0180810C94E30140E250E0B3
:1017A0006AEB73E08EE293E00E94111B8EE293E0FD
:1017B0000C94CA0B009761F09C0180E0F9014591FF
:1017C00054912E5F3F4F452B11F08F5FF7CF089557
:1017D00080E00895282F81E090E03AE0215038F031
:1017E000AC01349FC001359F900D1124F7CF0895AF
:1017F000CF92DF92EF92FF92CF9397FF08C0909520
:101800008095709561957F4F8F4F9F4F07C06115F1
:1018100071058105910511F0C0E001C0C1E05AE0F9
:10182000C52ED12CE12CF12C611571058105910596
:1018300041F0CF5FA70196010E94DA1ACA01B901EF
:10184000F3CF8C2FCF91FF90EF90DF90CF90089542
:10185000CF92DF92EF92FF920F931F93CF93DF937C
:10186000EC017B016A01E881F981CF01B8010E9496
:10187000A41A009731F01E141F049CF4081B190BC6
:1018800003C01E141F0474F4C901801B910BE817D8
:10189000F90718F40E0F1F1F01C08901198308836F
:1018A0000DC08C01C8018C0D9D1D8E179F0718F46B
:1018B000E01BF10B01C0F601F983E883DF91CF91C2
:1018C0001F910F91FF90EF90DF90CF900895AF920E
:1018D000BF92CF92DF92EF92FF920F931F93CF931D
:1018E000DF93EC017B016A01590168817981F7FE80
:1018F00002C06150710980E090E00E94F80B8230D4
:1019000020F082500E94EA0B02C081E090E08C013E
:101910009501A601B701CE010E94280CDF91CF915D
:101920001F910F91FF90EF90DF90CF90BF90AF90FD
:10193000089520914E0330914F0395E0929FF0015E
:10194000939FF00D1124E80FF11DEE0FFF1FE351DF
:10195000FF4F8591949108951F93CF93DF93182F94
:10196000C0915203D09153030E94990C9C011230F4
:1019700061F480914E0390914F03029731F4C73088
:10198000D10518F0219720EB34E02C9FC0012D9F4A
:10199000900D3C9F900D1124DF91CF911F910895E0
:1019A0001F93CF93DF93182FC0915203D09153030D
:1019B0000E94990C23E020937603113029F4809142
:1019C00058039091590306C0123039F480915A039C
:1019D00090915B031093760306C0133021F480913D
:1019E0006C0390916D039C012C9FC0012D9F900D65
:1019F0003C9F900D1124DF91CF911F91089582E0BB
:101A00000E94AC0CBC0180E29EE40E942F0E20914B
:101A10003A0330913B032817390708F4C9010895A8
:101A200082E00E94AC0CBC0184EC99E00E942F0E75
:101A300020913E0330913F032817390708F4C9016C
:101A4000089580914E0390914F030A97029750F0AA
:101A500081E00E94990CBC0188E799E60E94A41AD3
:101A6000CB01089581E090E008958091500390911A
:101A700051038436910530F484E690E0909351034D
:101A8000809350038091500390915103893E9D4F64
:101A900030F088EE9DEF9093510380935003809136
:101AA000600390916103893E934030F088EE93E0AB
:101AB00090936103809360030E94210D2091520353
:101AC000309153038217930720F49093530380932C
:101AD00052038091520390915303892B31F481E09A
:101AE00090E090935303809352030E94FF0C209147
:101AF0005403309155038217930720F490935503B4
:101B000080935403809154039091550320915C037A
:101B100030915D038217930720F490935D038093C7
:101B20005C030E94100D20915603309157038217D9
:101B3000930720F490935703809356032091560304
:101B40003091570380915E0390915F032817390706
:101B500020F430935F0320935E03809138039091CB
:101B6000390340915403509155034817590720F405
:101B7000909355038093540340915C0350915D030F
:101B80004817590720F490935D0380935C0380917C
:101B90003C0390913D032817390720F49093570395
:101BA0008093560320915E0330915F032817390715
:101BB00020F490935F0380935E03089598E2899FD9
:101BC000B001112468567F4F48E250E08EE493E064
:101BD0000E94111B0C94350DCF93C82F0E94DE0D6F
:101BE00020914E0330914F03232B21F00E94E412E9
:101BF0000E949B1520914E0330914F032A303105EE
:101C000071F02B30310569F0232BC1F48C2F90E05B
:101C100001960E943B158AE3CF910C94121589E03E
:101C20000AC065E080915403909155030E942717E4
:101C30000E949B1584E0CF910C94A61267E08091DE
:101C40005003909151030E9424178FE20E941215B5
:101C50008091520390915303CF910C943B15AB01AB
:101C60009C01A8EEB3E00E94731A9A0140E050E094
:101C70000E94B81AA8EEB3E00E94891A24E630E068
:101C800040E050E00E94B81A2115310581E0480774
:101C9000510520F02FEF3FEF40E050E0C9010895DB
:101CA0008091920390919303892B99F40E94CF061F
:101CB000882381F00E94D206209177033091780327
:101CC000821B930B9C0181E02330310518F080E0EA
:101CD000089581E00895815E0C94BA06CF93DF9356
:101CE000EC018091920390919303892B41F020970E
:101CF00031F40E94D2069093780380937703D093B7
:101D00009303C09392030E94440780919103811131
:101D100005C08C2FDF91CF910C942E02DF91CF91D3
:101D20000895FF920F931F93CF93DF9381E00E945A
:101D3000680205E813E0C9E7D3E0F12C8F2D0E947B
:101D40006B0EF801819391938F0189939993F3948A
:101D5000F6E0FF12F3CF10929303109292031092C9
:101D6000910380E090E00E946E0E10927803109232
:101D700077038FEF80939403DF91CF911F910F91A1
:101D8000FF900895CF93DF931F92CDB7DEB78823DE
:101D900041F069830E94D00C90939A038093990339
:101DA0006981662369F08091540390915503909363
:101DB00098038093970380915C0390915D030CC01E
:101DC00080915603909157039093980380939703C3
:101DD00080915E0390915F039093960380939503A7
:101DE0000F90DF91CF9108958091A003089581E035
:101DF00020919E0330919F03232B09F480E00895E6
:101E000080919E0390919F030895813020E892076E
:101E100010F080E090E890939F0380939E030E94CF
:101E20002A020C944D078091A003882369F080E07A
:101E300090E00E94050F10929D0310929C0380E099
:101E40000E9416021092A003089581E08093A003DF
:101E50000C94130F8091A9039091AA032091AC03D5
:101E6000222341F00E9484142091A9033091AA03F7
:101E7000821B930B08950F931F93CF93DF9381E001
:101E80000E94D00C8C0184E00E94D00CEC0184E113
:101E90000E94BA0680179107B8F4C817D907B0F4A2
:101EA0009C012C1B3D0BC8018C1B9D0B64E670E054
:101EB0000E94A41AC9010E94A41A6436710510F088
:101EC00063E670E0862F03C083E601C080E0DF9107
:101ED000CF911F910F910895CF93DF930E943B0FF5
:101EE0009091AB039817E0F48093AB030E942A0F04
:101EF0002091AE033091AF03EC01C21BD30B0E94C3
:101F00002A0F9093AF038093AE038091B00390911A
:101F1000B1038C179D0720F4D093B103C093B00395
:101F2000DF91CF9108950E946C0F8091AD038823BB
:101F300011F089E601C084E690E02091AB03821B9A
:101F400091092091B0033091B103AC01429FC001CF
:101F5000439F900D529F900D1124089520913003BE
:101F6000309131032130310511F481E026C0211573
:101F7000310511F480E021C02430310529F480912D
:101F8000AC0381110AC0F6CF2230310519F48091DB
:101F9000AC0313C02330310581F485E00E94BA06FA
:101FA0002091320330913303A901525084179507D1
:101FB00008F328173907C8F208950C940A020E9402
:101FC000491081111DC00E94F70E811119C00E9495
:101FD000500E882351F18091A5039091A603A09102
:101FE000A703B091A80380599F4FAF4FBF4F809375
:101FF000A5039093A603A093A703B093A803089505
:102000008091A1039091A203A091A303B091A40396
:1020100080599F4FAF4FBF4F8093A1039093A2036E
:10202000A093A303B093A403D2CF08952CE0829F82
:10203000C001112486549C4F0C948C1082E094E0D3
:102040000C948C10CF93DF9300D000D0CDB7DEB7C7
:1020500082E10E94BA069A83898384E10E94BA06CB
:1020600029813A81281B390B3A83298387E10E9411
:10207000BA069C838B83CE0101960E948C100F9030
:102080000F900F900F90DF91CF91089580910A04E7
:10209000089581E02091080430910904232B09F46C
:1020A00080E008958091080490910904089581309A
:1020B00020E8920710F080E090E890930904809364
:1020C00008040E9426020C944D0780910A0488237C
:1020D00089F080E090E00E9457101092090410925D
:1020E0000804109207041092060480E00E94100277
:1020F00010920A0408951092090410920804109294
:1021000007041092060480E090E00E94571081E0DE
:1021100080930A040C946510FC014281538141159F
:10212000510591F0A081B181B7FF03C0B195A19590
:10213000B10928EE33E00E94821A9A0140E050E093
:102140000E94B81AC901089580E090E00895CF93E5
:10215000DF93DC011B96CD91DC911C9790E080E031
:10216000FE012EE0829FE00DF11D11243296259193
:1021700034912115310599F01D964D915C911E9772
:1021800037FF03C057FF09C0305824233523232BC2
:1021900021F0662329F061509F5F8F5FE1CF892F87
:1021A000DF91CF910895EF92FF920F931F93CF93FA
:1021B000DF93EC01F62E0E94A7109EE0899F80011C
:1021C0001124EB85FC85E00FF11F859194910E940D
:1021D0005B15E82ECE0109960E946813882311F042
:1021E000298501C02FEF332727FD30956F2D70E033
:1021F00026173707E1F06FE06E19EB85FC85E00FDD
:10220000F11F3596F490FF2029F0862F8F190E9438
:1022100097156F2D8B859C85800F911F0496DF91FC
:10222000CF911F910F91FF90EF900C94EA12DF91E4
:10223000CF911F910F91FF90EF900895CF93DF936F
:10224000EC010E94A7102B853C859EE0899F200D04
:10225000311D1124F901369645915491CA01F901B5
:10226000349624912150223030F4FA014591559151
:1022700065917491CB01DF91CF910895CF92DF9258
:10228000EF92FF920F931F93CF93DF93CDB7DEB7FB
:102290002C970FB6F894DEBF0FBECDBF7C01D62EB3
:1022A000C42E0E941E118C016D2DC7010E94A71023
:1022B000D7011B966D917C911C97BEE08B9F600DA2
:1022C000711D1124685F7F4F46E050E0CE010796F4
:1022D0000E94FF1A86E0FE013796DE0111960190FA
:1022E0000D928A95E1F769817A81EB81FC812D81DC
:1022F0003E8142E0C41619F081E090E002C08FEF09
:102300009FEF6F3FAFE77A0731F4AF01BC01C8011F
:102310000E94670C24C06E3FBFE77B0711F409954C
:102320001EC0869FA001879F500D969F500D1124BF
:10233000D8018D919C911197480F591F4E175F0737
:102340001CF04D935C9303C0D801ED93FC93F8010E
:10235000808191812817390714F431832083D701B4
:102360001F96ED91FC915097309719F0B801C70175
:1023700009952C960FB6F894DEBF0FBECDBFDF9146
:10238000CF911F910F91FF90EF90DF90CF90089524
:102390000895FC018CE990E091838083128213827E
:1023A000648381E0858386830895DC011796ED912F
:1023B000FC911897E60FF11D64918DE791E00C9464
:1023C00073150F931F93CF93DF93EC018B0180E084
:1023D00061E0680FF801E80FF11DE491E93011F0B8
:1023E000862FF6CFCE010E94C91182EA90E0998330
:1023F000888318870F83DF91CF911F910F910895E4
:1024000060EB71E088E394E00E94E11166EA71E01C
:102410008FE294E00E94E11169E971E086E294E0C4
:102420000E94E1116EE971E08DE194E00E94E111FA
:1024300063E971E084E194E00E94E11161E971E0F7
:102440008BE094E00C94E111FC01878190850C9461
:1024500073150F931F93CF93DF93EC018B01CB0187
:102460000E94DA0B682FCE010E94C91188EA90E021
:102470009983888318870F83DF91CF911F910F91E4
:1024800008950C942D17CF93DF9300D0CDB7DEB70E
:1024900089839A830E940E150E94061589819A816C
:1024A0000F900F90DF91CF910C945B1581EB91E031
:1024B0000E94431288EE93E00C948E148FEF809369
:1024C0004104089583E06636780759F421E080914D
:1024D000660390916703892B09F420E020939B0306
:1024E000089583E06835780729F486990CC061E087
:1024F00081E007C06A55734031F4829904C060E0FE
:1025000082E00C94C20E089560E070E083E494E0F1
:102510000E9429128FEF80934C0484E990E09093FD
:102520004404809343048FEC91E090934F04809394
:102530004E048FEF9FE7909351048093500482E6FE
:1025400092E190935304809352040895FF920F9365
:102550001F93CF93DF93F82E80E00E94AC0C8C0188
:1025600020914E0330914F032A503109223031051A
:1025700058F481E00E94D00C6F2DDF91CF911F9114
:102580000F91FF900C942A17C0915203D0915303DE
:10259000CA3010F488E001C089E0F81A8F2D0E943B
:1025A000971565E0C8010E942A178FE20E94121554
:1025B000CE0199270E943B1583E4DF91CF911F91B3
:1025C0000F91FF900C94121560914E0385E691E0F7
:1025D0000C947315CF92DF92EF92FF920F931F939B
:1025E000CF93C62FFC014591559165917491FB01E4
:1025F000433049F48C2FCF911F910F91FF90EF90B2
:10260000DF90CF90099446FF0DC04F736C2F8081EF
:102610009181CF911F910F91FF90EF90DF90CF901C
:102620000C94A116413011F1423009F049C0C59017
:10263000D590E590F490D701ED91FC91EE0FFF1F3E
:10264000EC0DFD1D859194910E94081BC81B8C2FD9
:102650000E949715F7016081C601CF911F910F91DC
:10266000FF90EF90DF90CF900C94731545915591AA
:1026700065917491FB010190F081E02DEE0FFF1F39
:10268000EE0FFF1FE40FF51F6591759185919491F1
:10269000C25024E630E040E050E00E94B81A6C2FAF
:1026A000C9010E949B1680E30E94121580E3CF911E
:1026B0001F910F91FF90EF90DF90CF900C94121527
:1026C000CF911F910F91FF90EF90DF90CF900895E1
:1026D000FC01208127FD05C0818186958F5F817077
:1026E000089580E008959C01462F50E0FA01EE0F16
:1026F000FF1FE217F30764F04217530724F4862FF5
:10270000880F821B08951216130614F4822F089561
:1027100080E00895969587958531910518F46AE0D3
:102720000C94731388E08093540480E008951F9301
:10273000CF93DF93EC01D695C795D695C795C93C45
:10274000D1052CF088E08093540480E00BC06AE04F
:10275000CE010E947313182F6AE0CE0188970E9461
:102760007313810FDF91CF911F91089560ED77E092
:102770000E94A41A6AE00C9473136AE070E00E944D
:10278000A41ACB016D38710518F464E10C9473132D
:1027900088E08093540480E008956AE070E00E942D
:1027A000A41ACB01683B21E0720738F468E270E0BC
:1027B0000E94A41A64E10C94731388E0809354047B
:1027C00080E008956AE070E00E94A41ACB016135B0
:1027D000710538F468E270E00E94A41A64E10C9478
:1027E000731388E08093540480E008956AE070E0F9
:1027F0000E94A41ACB01683B21E0720738F468E21A
:1028000070E00E94A41A64E10C94731388E0809332
:10281000540480E008954091540450E0483051053C
:1028200098F4FA01E65DFF4F0C94F91A0C948A13A0
:102830000C94B6130C94BD130C94CD130C949713F5
:102840000C94E2130C94F61380E008950E94801417
:102850002091570430915804821B930B0E940B1453
:10286000282F30E040915504509156042417350725
:1028700031F030935604209355040C94510408957C
:102880002FB7F8946091590470915A0480915B04B9
:1028900090915C042FBF08950E94AE0F0E94301AE1
:1028A0000E9426140C947F0B8091590490915A0435
:1028B000A0915B04B0915C040196A11DB11D8093B1
:1028C000590490935A04A0935B04B0935C048091E4
:1028D0006700815019F080936700089581EE80931E
:1028E00067000E94D3080C94DF0F0E944014969555
:1028F00087957795679508950E947514CB01089583
:102900000E944014CB0108950E94751428EE33E014
:1029100040E050E00E94B81AC90108950F931F9338
:10292000CF93DF93EC010E9475148B010E94751404
:10293000601B710B6C177D07C8F3DF91CF911F915E
:102940000F9108950F931F93CF93DF93EC010E9493
:1029500075148B010E944C140E947514601B710B3E
:102960006C177D07B8F3DF91CF911F910F910895F8
:102970008F929F92AF92BF92CF92DF92EF92FF928F
:102980000F931F93CF93DF936B017C01EA0197FFB5
:102990000BC08DE28883F094E094D094C094C11C65
:1029A000D11CE11CF11C2196C701B6010E94F80B55
:1029B000C80FD11D18828E018AE0882E912CA12C7F
:1029C000B12CC701B601A50194010E94DA1A605D1D
:1029D000F80162938F0169017A01C114D104E10405
:1029E000F10479F7CE01DF91CF911F910F91FF9004
:1029F000EF90DF90CF90BF90AF909F908F90089511
:102A0000462F682F8AEA90E00C94C41760E080E0BB
:102A10000C94001561E080E00C9400158AEA90E0C7
:102A20000C94BD178A3011F40C940A15682F8AEAA9
:102A300090E00C948418FF920F931F93CF93DF9331
:102A4000EC01F12C009781F0062F112707FD10955E
:102A50002F2D30E0201731073CF4F394899188231F
:102A600019F00E941215F4CF8F2DDF91CF911F9195
:102A70000F91FF900895CF93DF93CDB7DEB72B97DB
:102A80000FB6F894DEBF0FBECDBFBC0180E090E072
:102A9000AE014F5F5F4F0E94B8146BE0CE0101960C
:102AA0000E941B152B960FB6F894DEBF0FBECDBF4C
:102AB000DF91CF9108951F93CF93DF93009771F02B
:102AC000182FFC018E2F811B9491EF0121969923E1
:102AD00031F0892F0E941215FE01F4CF80E0DF91C2
:102AE000CF911F910895860F911D860F911DFC01B6
:102AF000859194910C945B150F931F93CF93DF9363
:102B00001F92CDB7DEB7082F10E016173CF4802FC8
:102B100069830E9412151F5F6981F7CF862F67FDB9
:102B200080E00F90DF91CF911F910F910895682F52
:102B300080E20C947C1581E00C9497150F931F9301
:102B4000CF93DF931F92CDB7DEB78C01FC010190CC
:102B50000020E9F73197E81BF90B862F8E1B69835C
:102B60000E9497156981C8010F90DF91CF911F9145
:102B70000F910C941B151F93CF93DF93CDB7DEB746
:102B80002B970FB6F894DEBF0FBECDBF142FAE014A
:102B90004F5F5F4F0E94B814612FCE0101960E94D3
:102BA0009E152B960FB6F894DEBF0FBECDBFDF91FA
:102BB000CF911F9108954F925F926F927F928F9263
:102BC0009F92AF92BF92CF92DF92EF92FF920F93BC
:102BD0001F93CF93DF93CDB7DEB72C970FB6F89442
:102BE000DEBF0FBECDBF4C01162F5A01222379F153
:102BF0009C01A8EEB3E00E94731A6A01E12CF12C4B
:102C0000A70196010E94DA1A69017A01002341F0B6
:102C1000F094E094D094C094C11CD11CE11CF11C30
:102C2000C701B6010E94F80B8F5F90E0212F332778
:102C300027FD30952817390754F04FEF410FC70192
:102C4000B6010E94BB158DE60E9412154DC0C4014D
:102C5000B5010E94A41A80E090E09E012F5F3F4FD3
:102C60007901002331F02DE22983AE014E5F5F4FE1
:102C700001C0A9010E94B8146C0132E0A316B1048E
:102C800078F1812F992787FD9095019796012E194C
:102C90003F092817390724F5C401B5010E94A41A79
:102CA0002501612C712CA3019201280F391F411DB0
:102CB000511D85E6A816B10418F4A4E6B0E002C0E0
:102CC000A8EEB3E00E94891AA30192010E94DA1AC9
:102CD000CA01B901A6010E94B8148EE2F6018083F0
:102CE000612FC7010E949E152C960FB6F894DEBF87
:102CF0000FBECDBFDF91CF911F910F91FF90EF904D
:102D0000DF90CF90BF90AF909F908F907F906F900B
:102D10005F904F900895CF93C82F8DEF860F0E943C
:102D20009715C11103C088E293E002C08CE293E0E2
:102D3000CF910C945B15462FBC0180E090E00C9481
:102D4000BB15AF92BF92CF92DF92EF92FF920F939B
:102D5000CF93DF9300D0CDB7DEB75C014D3069F47F
:102D60000F900F90DF91CF910F91FF90EF90DF9038
:102D7000CF90BF90AF900C948B164C3031F488EE0E
:102D8000A81683E0B80670F006C0453059F4883EB6
:102D9000EDEF9E0738F089EF860F0E94971580E2CD
:102DA00093E039C0C42ED12C85E0489FF001112456
:102DB000E65FFD4FE590F490C7014A8369830E9466
:102DC000081B6981681B4A81161694F5483039F44E
:102DD000B7FE05C0B194A194B10801E001C000E0C4
:102DE00085E08C9DF0018D9DF00D1124E75FFD4F76
:102DF000849195E09C9DF0019D9DF00D1124E95F6B
:102E0000FD4F4591549121E0811101C020E0C501A1
:102E10000E94DB15C7010F900F90DF91CF910F91AA
:102E2000FF90EF90DF90CF90BF90AF900C945B1528
:102E30000F900F90DF91CF910F91FF90EF90DF9067
:102E4000CF90BF90AF90089545E00C94A11640E05C
:102E50000C94A11641E00C94A116FF920F931F93BE
:102E6000CF93DF93CDB7DEB728970FB6F894DEBFC8
:102E70000FBECDBF9EE0F92EF9821FE11A8301E15A
:102E80000B830C830D830E830F831887AE014F5F76
:102E90005F4F60E08AEA90E00E94F917F9821A8396
:102EA0000B830C831D831E831F831887AE014F5F26
:102EB0005F4F61E08AEA90E00E94F917F9821A8375
:102EC0001B831C831D831E831F831887AE014F5FE6
:102ED0005F4F62E08AEA90E00E94F91728960FB6E9
:102EE000F894DEBF0FBECDBFDF91CF911F910F9140
:102EF000FF900895AC9881E090E00E94AA06AC9AF9
:102F000081E090E00E94AA06AC9884E690E00C94E0
:102F1000AA0660FF02C0A89A01C0A89861FF02C07B
:102F2000A99A01C0A99862FF02C0AA9A01C0AA98F2
:102F300063FF02C0AB9A01C0AB980C947A171F9341
:102F4000CF93DF93EC01162F442311F0AD9A01C00B
:102F5000AD98612F70E084E0759567958A95E1F7EB
:102F6000CE010E948917612FCE01DF91CF911F9171
:102F70000C94891740E00C949F1761E00E94BA17E7
:102F800080ED97E00C94AA06CF93DF93CDB7DEB720
:102F900028970FB6F894DEBF0FBECDBF28E0E9E654
:102FA000F0E0DE01119601900D922A95E1F7FC0107
:102FB0002481421710F04FEF420FFE013196E40FCB
:102FC000F11DE40FF11D2081260F2068622F289645
:102FD0000FB6F894DEBF0FBECDBFDF91CF910C943A
:102FE000BA17FC016181262F246021836C600C9448
:102FF000BA17CF92DF92EF92FF920F931F93CF9366
:10300000DF9300D0CDB7DEB77C01677088E0689FA2
:10301000B00111246064C70149835A830E94BA1722
:103020004981C42E5A81D52E00E010E0F60161914D
:103030006F0141E0C7010E949F170F5F1F4F0830CB
:103040001105A1F70F900F90DF91CF911F910F9174
:10305000FF90EF90DF90CF900895CF93DF93EC0136
:10306000423018F08881886088834C831D82222337
:1030700029F0413019F4888184608883A09AA19A4C
:10308000A29AA39A80E593EC0E94AA06AD98AC9808
:1030900063E0CE010E94891784E991E10E94AA06AB
:1030A00063E0CE010E94891784E991E10E94AA069B
:1030B00063E0CE010E94891786E990E00E94AA068B
:1030C00062E0CE010E94891768816062CE010E9491
:1030D000BA1784E08983CE010E94F117CE010E94C5
:1030E000BD1782E08A8366E0CE01DF91CF910C9418
:1030F000BA17A59AA49AFC01108220E041E060E191
:103100000C942D180C94791841E00E949F1781E0CF
:10311000089508958EE293E00E94BA0BAB01BC01C2
:1031200087EC90E00C945105CF93C82F682F87EC63
:1031300090E00E94C60590915F049C2790935F04E5
:10314000CF91089580916800813059F480914403B3
:1031500090914503892B29F00E948A1882E0809380
:10316000680008958BE30C949418CF93DF93EC01DF
:103170008991882319F00E949418FACFDF91CF919A
:103180000895CF93DF93CDB7DEB72F970FB6F8949E
:10319000DEBF0FBECDBFAE014F5F5F4F0E94B814C0
:1031A000CE0101960E94B5182F960FB6F894DEBF97
:1031B0000FBECDBFDF91CF910895CF93DF93EC0188
:1031C00010925F0484E20E949418BE0180E090E0B7
:1031D0000E94C1180E94B21860912D03643040F41F
:1031E00070E06F5F7F4F882777FD8095982F0EC026
:1031F000869906C061E070E080E090E00E94C1180E
:10320000829906C064E070E080E090E00E94C118FE
:103210000E94B21860916004709161048091620410
:103220009091630428EE33E040E050E00E94B81A29
:1032300044275527CA01B9010E94C1188EE20E9495
:10324000941860916004709161048091620490917F
:10325000630424E630E040E050E00E94B81ACA015E
:10326000B9012AE030E040E050E00E94B81A0E9424
:10327000C118DF91CF910C94B2188DE00E94941880
:103280008AE00C94941860915F0470E080E090E014
:103290000E94C1180C943D19CF93DF9381E090E018
:1032A0000E94DD18C2E5D2E0FE0184910E94BA06B8
:1032B000BC0180E090E00E94C1180E94B2182196E3
:1032C000F2E0C036DF0781F7C0E08C2F0E941610B5
:1032D000BC0180E090E00E94C1180E94B218CF5F4C
:1032E000C63099F70E941E10BC0180E090E00E9459
:1032F000C1180E94B2180E942210BC0180E090E028
:103300000E94C1180E94B2180E943B0F682F70E003
:1033100080E090E00E94C1180E94B2180E94930FB2
:10332000BC0180E090E00E94C1180E94B218DF91B9
:10333000CF910C944319CF93DF93D82F82E090E084
:103340000E94DD18C0E08C2FDD2319F00E94B10629
:1033500002C00E94BA06BC0180E090E00E94C11841
:103360000E94B218CF5FC53271F7609192037091DD
:10337000930380E090E00E94C1180E94B21860E0C0
:1033800070E0CB010E94C1180E94B218DF91CF916A
:103390000C94431983E090E00E94DD180E946C06B3
:1033A000BC0180E090E00E94C1180E94B2180E9407
:1033B0005506BC0180E090E00E94C1180E94B2183E
:1033C0000C944319CF93DF93C0914403D0914503EC
:1033D0000E944C19C230D1056CF081E0C430D10597
:1033E0000CF480E00E949B19229721F0DF91CF918D
:1033F0000C94CA19DF91CF9108950F931F93809178
:103400006800813051F10E947514209168002230CB
:1034100051F4609364047093650480936604909300
:103420006704109268000091640410916504209173
:10343000660430916704DC01CB01801B910BA20B69
:10344000B30B8093600490936104A0936204B093E3
:1034500063041F910F910C94E2191F910F9108952D
:103460000E94CF06811105C010925E0410925D0487
:103470000FC00E94D20620915D0430915E0428178F
:10348000390731F090935E0480935D040E94FD192A
:103490000C9489180C944C1A0E94A21861E081E0E7
:1034A0000E94B4080E94910E60E080E00E94001526
:1034B000C0E0D0E08C2F875F0E94C30667E00E94C7
:1034C0009B160E949B15C130D10521F461E080E07C
:1034D0000E9400152196C430D10561F784E690E082
:1034E0000E94A214E1CFA29FB001B39FC001A39F8D
:1034F000700D811D1124911DB29F700D811D11242D
:10350000911D08950E94731AB7FF0895821B930BB3
:1035100008950E94731AA59F900DB49F900DA49FCB
:10352000800D911D11240895DB018F939F930E94BC
:10353000891ABF91AF91A29F800D911DA39F900DFD
:10354000B29F900D11240895AA1BBB1B51E107C027
:10355000AA1FBB1FA617B70710F0A61BB70B881F23
:10356000991F5A95A9F780959095BC01CD010895B2
:10357000A1E21A2EAA1BBB1BFD010DC0AA1FBB1F77
:10358000EE1FFF1FA217B307E407F50720F0A21BE9
:10359000B30BE40BF50B661F771F881F991F1A9456
:1035A00069F760957095809590959B01AC01BD0180
:1035B000CF010895052E97FB1EF400940E94F11A86
:1035C00057FD07D00E94B81A07FC03D04EF40C94A4
:1035D000F11A50954095309521953F4F4F4F5F4FD1
:1035E000089590958095709561957F4F8F4F9F4F6F
:1035F0000895EE0FFF1F0590F491E02D0994FB0153
:10360000DC0102C005900D9241505040D8F708955A
:10361000FC0105900020E9F7809590958E0F9F1F83
:103620000895DC01CB01FC01E199FECF06C0FFBB90
:10363000EEBBE09A31960DB20D9241505040B8F772
:063640000895F894FFCF8D
:1036460000006C04200001E1010000400014005459
:103656000000000104010401010101010101000053
:103666000101010101010002010300000000AF0B8E
:1036760000000000D3103E1100000000C811000039
:0A3686000000D5110000000024121E
:00000001FF
