:100000000C94B1060C94D9060C94D9060C94D9061C
:100010000C9409090C94D9060C94D9060C94D906B1
:100020000C94D9060C946D090C9439090C9444096C
:100030000C94D9060C94EA090C941F0A0C94D90666
:100040000C94E5080C94D9060C94D9060C94D906A6
:100050000C94D906CF13DB13E013E313E513F71366
:10006000F413E313CF132D372F37313735373537A7
:100070003337393737370000000080C64E5A00004A
:1000800000007C6B0831000133000028D00780019C
:1000900033004023E80300000000C0AE4E5AFC537A
:1000A00050143FA0540B0000000000BBC436801861
:1000B0006009DC377017000000000000000000003D
:1000C000000044C4FA0E0000000000C4FB0E000053
:1000D000000068C4FD0E00000000AAC5160F000055
:1000E000000040C6190F0000000040C72D0F00009F
:1000F000000040C6190F0000000040C72D0FB000DF
:1001000032006001E8034F0132009E022C01FF0023
:1001100000000A00050400000004090000FF0101BE
:10012000000A040505000004040A0000FF020200A2
:1001300000020506000002040B0000FF030300009C
:10014000060507000006040C0000FF0000000A017D
:100150000513020001040D0000FF0101000A05055E
:1001600013040005040E0000FF0202000003051343
:10017000010003040F0000FF03030000070513083C
:100180000007041000008A0100006F7074696F6E30
:100190007300460003008813701701003200581BDB
:1001A0003200881310270000000003000000000048
:1001B000000080250000004B00000096000000E1D8
:1001C000000000C201000100010001000100010067
:1001D000B0040807520300005203B0040807E80304
:1001E0000000E803D0079209D60600006C07E40C73
:1001F000100ED007E40CB80B100E0410C409A60EA4
:10020000AC0D740E6810B80B0A0F890C740ECC106C
:10021000B80B0A0F890C740EFE10B80B0A0F890C6C
:1002200040066C071405400678050100A00FD007B2
:10023000010001000100A00F010001000100040005
:1002400000010202020202030405230C190C140C23
:100250000F0C0A0C050C000CFB0BF60BF10B1E0C23
:10026000ED0B061A3F1A651BF51B001C0B1C1A1D13
:10027000161D4A1D0D1E191E1E1EA61EA31EAD1EF6
:10028000D41EDB1EFE1E972167216D213624001C23
:1002900038240507940902004400690201000000A7
:1002A00010278F09FF7F4900BB02000000000000FB
:1002B000BE090400490078040100000001000000AC
:1002C000000000000000000000000000940902008F
:1002D00044006D020100000010278F09FF7F4900D4
:1002E000BF02000000000000BE09040049007804BD
:1002F00001000000010000000000000000000000FC
:100300000000000000018809020041005F020100B6
:100310000000CC8D80090200410061020100000054
:10032000CC8DBE09040049007804010000000100E2
:100330000000000000000000000000000000FD09B7
:10034000820041006B02010000003075F809820054
:100350004100A102010000008813F309820041005E
:10036000A302010000008813EE0982004100A502EB
:10037000010000008813E90982004100A702010082
:1003800000008813E40982004100A9020100000076
:100390008813DF0982004100AB02010000008813CE
:1003A000DA0982004100AD02010000008813D5097E
:1003B00082004100AF02010000008813CF09FF7FD7
:1003C00041008902000000000000C909FF7F4100D0
:1003D0008702000000000000BE0904004900780404
:1003E000010000000100000000000000000000000B
:1003F0000000000006090A0B0C0D0E0F100621224A
:100400002324252627289D099A0900006400E80373
:100410006400E803AB09A4090000B809B1090000B1
:100420003E0A350A290A1D0A110A020A0000400C78
:10043000360C280C0000230BFF7F0200B0050100E2
:1004400000000B00200B0F0003001934FE7FB12CBD
:1004500000000A0B1F0045007F03FF7F6400E8FDDA
:10046000060B3F0040008303FF7F0100581BFB0A7F
:100470001F0040008503FF7F01008813AD0A3F0085
:100480004C008F03FF7F0000E8031C0B0E004100AF
:1004900087030100000088131C0B10004100870334
:1004A00032000000CC8D0F0B0100410087030100DA
:1004B000B004D0070F0B200041008703FF7F01002D
:1004C000CC8D180B040041009B0301000000881331
:1004D000140B1F0041008903010000008813140B56
:1004E00010004100890332000000CC8DFF0A1E007D
:1004F00040008B03FF7F0100581BF40A1F004000DF
:100500008D03FF7F01008813EA0A0C0048009D0359
:1005100001000300C800E10A01004D009B03010037
:1005200000000100DC0A000248009D030100ECFF0E
:100530000000D00A00024B009F03010001000A00E6
:10054000C70A1F004D009103010000000100BF0A0F
:1005500000044A06A1030A000A008403B30A00014A
:100560004403930364005802AC26A30A1F0047000B
:10057000990301000100FA00970A0F004900A30344
:100580000100000005008D0A1F004B0097030100C9
:1005900001006300820A1F004D0095030100000066
:1005A000010000000000000000000000000000004A
:1005B0004A027D03B40CA50C9D0C930C870C7F0C98
:1005C000700C650C560C490C00090003040708095F
:1005D00000030708090001020304070809000102DB
:1005E0000304050607080909E20BFF7F49005D03C4
:1005F000010000006400DA0BFF7F0200CC0601005E
:1006000000000400CF0B01004400610364005802A5
:10061000AC26C40BFF7F4403630364005802AC267E
:10062000BE0BFF7F4D006503010000000100B60B0B
:10063000FF7F4000670301000100F401AE0BFF7F64
:1006400040006903FF7F0100581BA60BFF7F40009D
:100650006B0301000100F4019E0BFF7F40006D035E
:10066000FF7F01008813920BFF7F41036F03E803B4
:10067000581B3075870BFF7F4D0071030100000090
:100680000100810BFF7F0200BE0601000000040094
:10069000790B02000100BA06010000000400730B90
:1006A000FF7F0000000000000000000000000000CC
:1006B00000000000000000000000B2017503C20647
:1006C00073036A0B630B5D0B540B4B0BD0065F037C
:1006D0006A0B440B3C0B340B2C0B20202D2D2020BF
:1006E00000636865616C692D636861726765720A91
:1006F00076312E39395F3230313630353131006361
:10070000616C69626174696F6E206572726F7200EC
:10071000706C656173652063616C69627261746598
:1007200000656570726F6D2072657365740A65721D
:10073000726F723A2000726573657474696E672017
:10074000656570726F6D0020202020202020202001
:1007500020202079657300656570726F6D20726569
:100760007365743A005245564552534520504F4CDC
:100770004152495459006572726F723A202020200C
:1007800000636F6D706C6574653A20005D34000025
:1007900000400000000095350040000000000040CF
:1007A000E331FFFFFF7F040000403933FFFFFF7F8D
:1007B000040000402732FFFFFF7F04000000F332F7
:1007C00000020000080000400133000200000800A1
:1007D0000040173300020000000000406E2F0000B0
:1007E000006000000000722F0000006000000000A8
:1007F000762F00000060000000007A2F000000202B
:10080000040000407E2F0000002004000040822FE2
:100810000000002004000040AE32FFFFFF7F040014
:1008200000406E32FFFFFF7F00000040CE32FFFF2E
:10083000FF7F00000000DC34800100000000004069
:10084000C133FFFFFF7F000000000000FFFFFF7FBC
:10085000000000002500306D570064656C74612055
:10086000543D20004E2F4100546578743D0064656E
:100870006C746120563D20006D6178566F75743D33
:100880000054696E743D002D00546578743D00205D
:100890006C696D69743D0056696E7075743D0077C2
:1008A0006972657320523D00626174742E20523D5E
:1008B000006220004C696D6974733A20006E6F20ED
:1008C00064542F7400820A0F004D0095030100004C
:1008D0000001001C0B0E00410087030A0000008885
:1008E00013140B0F00410089030A00000088130055
:1008F00000000000000000000000000000252000B3
:1009000043684342426C44694643537453424359DB
:10091000434300010101020A1E010318478E011919
:100920000C03010101E80301540DE80300520D64BA
:100930000000500D6400004D0D6400004B0DE803F5
:1009400001480DE80301460D010000440DE80301D4
:10095000520D0100003D0D640000400D0100003EFD
:100960000D0100003E0D01000000000100003B0DE4
:1009700016191B1A1C0705062122232425262728C1
:10098000566D696E75733A0056706C75733A0061F6
:1009900064633A0074656D703A00493A0076616CA0
:1009A00075653A00313030306D41003130306D4185
:1009B00000313030306D41003130306D41006361C5
:1009C0006C69622E20702E3A00566F75743A00568C
:1009D000312D383A005662383A005662373A00569E
:1009E00062363A005662353A005662343A00566230
:1009F000333A005662323A005662313A0056696E16
:100A00003A006578706572742044414E4745522122
:100A10000074656D7020696E7465726E0074656D2A
:100A2000702065787465726E00492064697363682C
:100A30006172676500492063686172676500766F5F
:100A40006C746167650062616C616E636520706FD4
:100A50007274210062617474657279210064697333
:100A6000636F6E6E65637400636F6E6E65637400B2
:100A700064542F6474002D64560056206C696D69AF
:100A800074006164617074206469733A00442F4398
:100A900020726573743A00442F43206379636C6558
:100AA000733A0063617020434F66663A0074696D63
:100AB000653A007C657874726E2054434F3A007C2E
:100AC00064542F64743A00657874726E20543A004E
:100AD0007C69676E7220667273743A007C64563A61
:100AE00000656E61622064563A0062616C2E20657A
:100AF00072723A006D696E49643A0049643A006D59
:100B0000696E49633A0049633A004361703A00569E
:100B1000636F3A0056643A0056733A0056633A00DF
:100B2000563A00626174746572793A00542D70729D
:100B30006F67720054656D706572610070726F67E7
:100B400072616D00616C77617973006578742E2035
:100B5000416463006578742E206465620064656298
:100B60007567006E6F726D616C0064697361626CB1
:100B70006564007265736574007C73706565643AC2
:100B800000554152543A00616463206E6F69736589
:100B90003A00696E707574206C6F773A20006D6151
:100BA000782049643A006D696E2049643A006D61AD
:100BB000782049633A006D696E2049633A006265A6
:100BC00065703A006469736368206F66663A007CFA
:100BD00066616E2054206F6E3A0066616E206F6E03
:100BE0003A006261636B6C696768743A004C454413
:100BF000004E695A6E004C343335004C34333000AB
:100C00004C69706F004C696C6F004C6966650050F0
:100C1000622020004E694D48004E69436400556EC5
:100C20006B6E004E6F6E650072657365742064654F
:100C30006661756C740063616C69627261746500F1
:100C400073657474696E67730065646974206261AA
:100C5000747465727900636170616369747920638B
:100C60006865636B00443E4320666F726D6174007B
:100C700073746F726167652B62616C616E63007380
:100C8000746F726167650066617374206368617276
:100C90006765006469736368617267650062616CAF
:100CA000616E6365006368617267652B62616C6188
:100CB0006E636500636861726765006578742E74A1
:100CC000656D702E6375746F66660074696D65205E
:100CD0006C696D6974006361706163697479206324
:100CE00075746F666600696E707574205620746F37
:100CF000206C6F77004857206661696C75726500DB
:100D000062616C616E63657220646973632E006951
:100D10006E742E74656D702E6375746F66660062F6
:100D20006174742E646973632E20006E6F6C696D3C
:100D3000697400206E6F00796573005500006D00C6
:100D4000432F6D002500F400416800430057680000
:100D50005700560041007D07560B4E12F02D5D31B5
:100D6000E33311241FBECFE5D8E0DEBFCDBF10E0D6
:100D7000A0E6B0E0E6E5FEE702C005900D92A63BD6
:100D8000B107D9F715E0A6EBB0E001C01D92A13183
:100D9000B107E1F71DE0C2E6DDE004C02297FE01E5
:100DA0000E94CE3EC635D107C9F70E9447120C9467
:100DB000293F0C94000020E042E060E186EB90E0E7
:100DC0000E94E83B0E9469090E94DE090C94810799
:100DD000CF92DF92EF92FF92482F282F30E0A0E0D1
:100DE000BDE70E943A3E6B017C01A4E6B0E0A41B83
:100DF000B10924E630E00E94493E6C0D7D1D8E1D38
:100E00009F1D24E630E040E050E00E948B3EB90197
:100E10008DE0FF90EF90DF90CF900C94C80988236D
:100E200011F0909A089590980895811102C0969AB1
:100E3000089596980895811102C0929A0895929803
:100E40000895811107C0939AC4980E94150780E005
:100E50000C941B079398C49A0895BC018EE00C94DF
:100E6000C809BC018EE00C94C80980FF02C0C09A7A
:100E700001C0C09881FF02C0C19A01C0C19882FF21
:100E800002C0C29A01C0C29883FF02C0C39A01C0C7
:100E9000C39884FF02C0DE9A01C0DE9885FF02C0BD
:100EA000DF9A01C0DF9886FF02C0AE9A01C0AE98FB
:100EB00087FF02C0AF9A0895AF98089580E00E941E
:100EC000210780E00E940F0780E00E94540980E023
:100ED0000E9435078C9A8B9A889A8F9AB89AB99AF9
:100EE000BA9ABB9AD69AD79AA69AA79ABC9A8D9A7A
:100EF0008E9A8D9A8A9A0895089586EB90E00C94C4
:100F00003D3CD598D498DD98DC98BF9ABE9ABD9A9E
:100F10008EEA86B9369A089534B145B1E091C7009A
:100F2000E33131F12FB7F894832F90E0942BF0E068
:100F3000DF01AA0FBB1FA952BD4F11969C938E9340
:100F40003091BF00332391F0EE0FFF1FEE0FFF1F14
:100F5000E350FD4F4081518162817381480F591FD9
:100F6000611D711D40835183628373832FBF089578
:100F70002091C8003091BC0047FD02C0232B02C065
:100F8000209523232093BC0008950E94A5249093CC
:100F9000FA028093F9020E94781D9093FC028093DC
:100FA000FB028091BF00882309F485C00E94A5241C
:100FB0004091410350914203609143037091440377
:100FC000480F591F611D711D409341035093420307
:100FD00060934303709344030E94781D409145033E
:100FE000509146036091470370914803480F591F81
:100FF000611D711D40934503509346036093470361
:10100000709348038091490390914A03019709F036
:1010100050C08091050390910603A0910703B09101
:101020000803B695A79597958795809305039093A8
:101030000603A0930703B09308038091FD029091EB
:10104000FE02A091FF02B0910003B695A795979577
:1010500087958093FD029093FE02A093FF02B093C8
:1010600000038091010390910203A0910303B091CA
:101070000403B695A7959795879580930103909360
:101080000203A0930303B09304038091090390919A
:101090000A03A0910B03B0910C03B695A795979501
:1010A00087958093090390930A03A0930B03B09351
:1010B0000C030C94EB0E08958091710390917203D0
:1010C000892BE9F04091C4004423C9F081E090E00D
:1010D0000090C10002C0880F991F0A94E2F7209186
:1010E000490330914A032F703FB7F8945BB39BB329
:1010F000982B9BBB240F2A95F1F75BBB3FBF08954C
:101100008091BE008F5F883108F080E08093BE0040
:1011100085E0E0ECF0E0A5ECB0E001900D928A955E
:10112000E1F76091BE006F5F683108F060E085E034
:10113000689FB0011124625F7E4F45E050E080EC73
:1011400090E00E94D23E8091BE0081110CC00E94AE
:10115000C5078091490390914A0321E0892B09F446
:1011600020E02093BF0008958091BD0081110E946E
:101170008C078091BD0091E0980F9093BD0087305F
:10118000B1F08A30B1F081111CC08091C00087FDA0
:1011900018C03FB7F89428B38091C00040E2849F04
:1011A000C00111242F71282B28BB3FBF08950C9438
:1011B0005C088091C100806287B91092BD000C94D8
:1011C000800808958091BC0008951F920F920FB679
:1011D0000F9211242F933F934F935F936F937F93BD
:1011E0008F939F93AF93BF93EF93FF930E94B408A5
:1011F000FF91EF91BF91AF919F918F917F916F91EF
:101200005F914F913F912F910F900FBE0F901F90C4
:1012100018951F920F920FB60F9211242F933F93A0
:101220004F935F936F937F938F939F93AF93BF93EE
:10123000EF93FF930E946B37FF91EF91BF91AF91B6
:101240009F918F917F916F915F914F913F912F91DE
:101250000F900FBE0F901F90189588E085BD85B543
:10126000846085BD14BC8CE783BD89B7806889BF65
:1012700008951F920F920FB60F921124979A0F9014
:101280000FBE0F901F9018951F920F920FB60F92DE
:1012900011248F9397988091CA0082BF8F910F90ED
:1012A0000FBE0F901F901895811104C013BE12BE7F
:1012B0009798089590E09595879528E7280F2093B3
:1012C000CA0088589E4F959587958CBF8CE483BF44
:1012D000089589B7836089BF08951F920F920FB652
:1012E0000F9211242F933F938F939F932091D100BE
:1012F0003091D2008091CD009091CE00820F931F4B
:101300009093CE008093CD002091CF003091D000FB
:101310008091CB009091CC00820F931F9093CC00D2
:101320008093CB002FB7F8948091CD009091CE00A0
:1013300035E0969587953A95E1F79BBD8ABD8091FA
:10134000CB009091CC0035E0969587953A95E1F7E2
:1013500099BD88BD2FBF8091CD009091CE008F7137
:1013600099279093CE008093CD008091CB009091EF
:10137000CC008F7199279093CC008093CB009F91E4
:101380008F913F912F910F900FBE0F901F90189546
:101390009FB7F8948E3039F47093D2006093D100E7
:1013A0008FB5806808C08D3039F47093D000609399
:1013B000CF008FB580628FBD9FBF089580E094E01D
:1013C00097BD86BD82E08FBD89E18EBD89B78460FF
:1013D00089BF08951F920F920FB60F9211242F9379
:1013E0003F934F938F939F93EF93FF935A991AC014
:1013F0004CB18091E9019091EA01019699272091E1
:10140000EB013091EC018217930769F0E091E9015B
:10141000F091EA01E751FF4F40839093EA018093F6
:10142000E90101C08CB1FF91EF919F918F914F9194
:101430003F912F910F900FBE0F901F9018951F9204
:101440000F920FB60F9211242F933F938F939F9378
:10145000EF93FF932091E9013091EA018091EB0134
:101460009091EC012817390711F4559812C0E091BA
:10147000EB01F091EC01E751FF4F20818091EB01EE
:101480009091EC01019699279093EC018093EB01E8
:101490002CB9FF91EF919F918F913F912F910F90D8
:1014A0000FBE0F901F901895CF92DF92EF92FF9290
:1014B000CF93DF93EC016A017B01411581EE580760
:1014C00061057105F9F0E885F98581E090E00C8807
:1014D00002C0880F991F0A94E2F7808360E079E0E8
:1014E0008DE390E0A70196010E948B3E21503109C7
:1014F000410951095695479537952795211580E162
:10150000380798F0E885F985108260E874E88EE184
:1015100090E0A70196010E948B3E215031094109BC
:1015200051095695479537952795EC81FD81308374
:10153000EE81FF8120831D8AEA85FB85408181E061
:1015400090E09C01098802C0220F331F0A94E2F741
:10155000422B4083EA85FB8540819C010A8802C0BA
:10156000220F331F0A94E2F7422B4083EA85FB8562
:1015700020810B8802C0880F991F0A94E2F780959A
:1015800082238083DF91CF91FF90EF90DF90CF9007
:101590000895CF93DF93FC0182819381DC01B395A1
:1015A000EC01CE5FDE4F4D915C911197288139811E
:1015B00042175307C1F7A285B3854C9181E090E0B3
:1015C0009C01018802C0220F331F0A94E2F7209584
:1015D00024232C93A285B3854C919C01028802C0E0
:1015E000220F331F0A94E2F7209524232C93A2851F
:1015F000B3852C91038802C0880F991F0A94E2F7E3
:10160000809582238C9380819181FC01EE5FFE4F57
:1016100020813181FC01F39531832083DF91CF91CB
:101620000895FC018589882329F0A085B1858C91D6
:1016300086FFFBCF158A0895CF93DF93FC012281AB
:101640003381D901B3958D919C911197019699277A
:10165000E901CE5FDE4F4881598184179507D9F3A0
:101660000D90BC91A02DA20FB31F6C93A281B381EA
:10167000B39511969C938E93A285B3852C9181E0AE
:1016800090E0038802C0880F991F0A94E2F7282B84
:101690002C9381E0858B0084F185E02D808180642E
:1016A000808381E090E0DF91CF91089589EE90E012
:1016B0009093D4008093D3009093D6008093D5006C
:1016C00080E490E09093D8008093D70029E230E046
:1016D0003093DA002093D9002BE230E03093DC0025
:1016E0002093DB002AE230E03093DE002093DD001F
:1016F0009093E0008093DF008CE290E09093E20012
:101700008093E10084E08093E30083E08093E40031
:1017100087E08093E50085E08093E60081E0809398
:10172000E7000895CF93DF931F92CDB7DEB7E09126
:101730000D05F0910E05309711F4E1E1F5E0CE01D1
:1017400001962EEB8E179F0710F02193FBCF0F9081
:10175000DF91CF910895CF93DF9300D0CDB7DEB75F
:1017600020910D0530910E052115310511F421E16F
:1017700035E0CE010196821B930B0F900F90DF9105
:10178000CF910895CF93DF931F92CDB7DEB720910D
:101790000D0530910E052115310511F421E135E0DB
:1017A000F901AE014F5F5F4FCF01821B930B4E17C4
:1017B0005F0728F060816E3B11F43196F5CF0F90F2
:1017C000DF91CF910895009741F0EFE9FFE0319765
:1017D000F1F700C000000197F6CF08958436910517
:1017E00038F064E670E00E94773ECB010C94E30B86
:1017F000019728F025E32A95F1F70000F9CF089525
:101800006AE070E00E94773ECB010C94EE0BE82F6B
:10181000F0E0EE0FFF1FEF54FD4F8081918108959E
:10182000E82FF0E0EE0FFF1FE15AFD4F808191811C
:1018300008952FB7F894E82FF0E0EE0FFF1FE9525C
:10184000FD4F808191812FBF089580914F030895AE
:1018500080910B0290910C0208958091F901909172
:10186000FA0108958091FB019091FC010895809305
:10187000F6010895E82FF0E0EE0FFF1FE35FFD4F44
:1018800080819181089581E080934D030895262FF2
:10189000633110F4423040F021E030E0FC0133834A
:1018A000228331832083089550E0BA01620F711DB5
:1018B000620F711D660F771F660F771F625F7F4F84
:1018C00044E050E00C94E43E282FCA01233188F410
:1018D000623078F470E0620F711D620F711D660F47
:1018E000771F660F771F625F7F4F44E050E00C94D4
:1018F000023F0895FF920F931F93CF93DF9300D081
:1019000000D0CDB7DEB706E710E0F12CF801459125
:1019100055916591749149835A836B837C83AE01A1
:101920004F5F5F4F60E08F2D0E94640CF80134968A
:10193000459155916591749149835A836B837C835A
:10194000AE014F5F5F4F61E08F2D0E94640CF394F6
:10195000085F1F4F83E1F812D9CF81E00E94D512B2
:101960000F900F900F900F90DF91CF911F910F91DB
:10197000FF90089580914B0390914C030C94221595
:1019800081E020918D0230918E022531310509F0E0
:1019900080E0089580918B0290918C02089580914F
:1019A000870290918802089580919102909192020D
:1019B00008958091390290913A02039750F08091F6
:1019C0003F0290914002039720F083E090E00C9456
:1019D000791A80E008952FB7F89480E090E0FC0138
:1019E000EE0FFF1FEE0FFF1FE350FD4F108211821D
:1019F0001282138201968331910589F784E690E083
:101A000090934A038093490310924E032FBF089589
:101A1000CF93CFB7F89410920A0210920902109255
:101A2000050210920602109207021092080210920C
:101A3000010210920202109203021092040210920C
:101A4000FD011092FE011092FF01109200020E940F
:101A500093379093F8018093F701CFBFCF9108950A
:101A60000E94080D1092FC011092FB011092FA01E5
:101A70001092F9010895EDE0F2E01192119282E0E6
:101A8000EF35F807D1F70895CF93CFB7F89481E0F9
:101A900090E090934A038093490381E080934E0342
:101AA0000E943B0DCFBFCF910895CF93DF930E944B
:101AB000440DC0910B02D0910C0280910B029091C9
:101AC0000C02C817D90729F48AE090E00E94B937C0
:101AD000F4CFDF91CF91089510924F0380E00C94E2
:101AE0002107CF93DF9381E00E94190CEC0180E085
:101AF0000E94190C8C179D0718F4C81BD90B02C043
:101B0000C0E0D0E081E0C93ED34008F480E0DF913E
:101B1000CF9108958F929F92AF92BF92CF92DF9212
:101B2000EF92FF92CF93DF93CDB7DEB728970FB632
:101B3000F894DEBF0FBECDBFF82E5B0161157105B5
:101B400009F445C040E0682FCE0105960E94470C7D
:101B500041E06F2DCE0101960E94470C2B813C8104
:101B600040E050E0CF80D884E12CF12C2C193D09C5
:101B70004E095F09B50180E090E08D809E80A12C28
:101B8000B12C681979098A099B090E945B3E298159
:101B90003A8140E050E0281939094A095B090E945E
:101BA000AD3E2C0D3D1D4E1D5F1D57FD0BC021157B
:101BB000310581E04807510544F02FEF3FEF40E049
:101BC00050E003C020E030E0A901C90102C080E07C
:101BD00090E028960FB6F894DEBF0FBECDBFDF9120
:101BE000CF91FF90EF90DF90CF90BF90AF909F90FC
:101BF0008F9008958F929F92AF92BF92CF92DF9273
:101C0000EF92FF92CF93DF93CDB7DEB728970FB651
:101C1000F894DEBF0FBECDBFF82E5B0161157105D4
:101C200009F445C040E0682FCE0105960E94470C9C
:101C300041E06F2DCE0101960E94470C29813A8127
:101C400040E050E0CD80DE80E12CF12C2C193D09E4
:101C50004E095F09B50180E090E08F809884A12C47
:101C6000B12C681979098A099B090E945B3E2B8176
:101C70003C8140E050E0281939094A095B090E947B
:101C8000AD3E2C0D3D1D4E1D5F1D57FD0BC021159A
:101C9000310581E04807510544F02FEF3FEF40E068
:101CA00050E003C020E030E0A901C90102C080E09B
:101CB00090E028960FB6F894DEBF0FBECDBFDF913F
:101CC000CF91FF90EF90DF90CF90BF90AF909F901B
:101CD0008F90089582508B3130F4E82FF0E0EE5869
:101CE000FF4F8081089581E00895CF93C82F8531FB
:101CF00049F481E020918D0230918E022531310529
:101D000081F412C00E946A0E813069F4EC2FF0E079
:101D1000EE0FFF1FE15AFD4F208131812139314003
:101D200018F480E001C081E0CF910895EF92FF9216
:101D30000F931F93CF93DF931F92CDB7DEB791E23E
:101D400001E010E0E12CF12C892F99830E94750E9F
:101D50009981882311F0E02AF12A000F111F9F5F5B
:101D6000993291F7C7010F90DF91CF911F910F9199
:101D7000FF90EF9008951F93CF93DF931F92CDB7FD
:101D8000DEB7182F69830E946A0EE12FF0E0EE0F94
:101D9000FF1FE15AFD4F482F6981808191810F908B
:101DA000DF91CF911F910C94563A2FB7F894609120
:101DB000F2017091F3018091F4019091F5012FBF30
:101DC0002DE730E040E050E00E948B3EBB27A52F7E
:101DD000942F832F08958091490390914A03892B72
:101DE00049F08091490390914A03019790934A03E7
:101DF00080934903089590E0880F991FFC01E15AF0
:101E0000FD4F208131816217730718F4261B370BB1
:101E100004C0AB01421B530B9A01FC01E35FFD4F71
:101E20002730310518F01182108206C020813181DF
:101E30002F5F3F4F31832083FC01E15AFD4F7183B7
:101E4000608308958FB7F8941092F2011092F30115
:101E50001092F4011092F5011092EE011092EF0130
:101E60001092F0011092F1018FBF0E94440D0E9468
:101E7000300D60E070E08BE10E94FB0E60E070E0EE
:101E80008DE10E94FB0E60E070E08EE10E94FB0E8F
:101E900060E070E08FE10C94FB0E10920C02109247
:101EA0000B020C94220FCF93DF931F92CDB7DEB7B6
:101EB00090914F03911110C069830E94210769819D
:101EC00061110E944D0F81E080934F038093660063
:101ED0000E94550D10924D030F90DF91CF91089500
:101EE0000C944D0F80914F03882309F44FC040910B
:101EF0009102509192028091F2019091F301A09190
:101F0000F401B091F501840F951FA11DB11D8093BF
:101F1000F2019093F301A093F401B093F501809145
:101F2000ED0191E0980F9093ED01883578F12091C3
:101F3000870230918802DA010E943A3E24E630E0BE
:101F400040E050E00E948B3E8091EE019091EF01C5
:101F5000A091F001B091F101280F391F4A1F5B1FBA
:101F60002093EE013093EF014093F0015093F10183
:101F7000CA01B90120EA3CE840E050E00E948B3EF3
:101F8000B9018CE10E94FB0E1092ED010895CF92F1
:101F9000DF92EF92FF920F931F93CF93DF931F92E5
:101FA000CDB7DEB7C0905F02D09060028091610231
:101FB000909162028C159D0518F4C81AD90A02C0C6
:101FC000C12CD12CB60184E10E94FB0E01E712E086
:101FD00091E2F801619171918F01892F99830E949B
:101FE000FB0E99819F5F9932A1F780914D0381117A
:101FF00006C00E94960E90934C0380934B03E09092
:102000004B03F0904C03E1EAF2E080E090E000E066
:1020100010E041E050E09A01082E02C0220F331F69
:102020000A94E2F72E213F21232B21F020813181D8
:10203000020F131F019632968830910561F7B8019F
:1020400085E10E94FB0E0115110581F00C151D059F
:1020500020F4C601801B910B03C0C8018C199D0997
:10206000893B9B4018F4680115E103C014E1E12CA1
:10207000F12CB60186E10E94FB0EB70188E10E94B7
:10208000FB0E612F70E087E10E94FB0E0E94D50ECF
:102090007C010E946C1D882329F00091650210913B
:1020A00066020BC00E949924882329F000916302E4
:1020B0001091640202C000E010E0B80189E10E94C2
:1020C000FB0EB7018BE10E94FB0E9801D6010E9426
:1020D0003A3E20E137E240E050E00E948B3EB901F9
:1020E0008AE10F90DF91CF911F910F91FF90EF90B8
:1020F000DF90CF900C94FB0E1F93CF93DF93182F9C
:10210000C82FD0E0FE01EE0FFF1FEE0FFF1FE350C0
:10211000FD4F608171818281938128EE33E040E040
:1021200050E00E948B3EFE01EE0FFF1FEF54FD4F6B
:1021300031832083B901812F0E948A0DBC01812F38
:10214000DF91CF911F910C94FB0E4F925F926F9293
:102150007F928F929F92AF92BF92CF92DF92EF9237
:10216000FF92CF93DF93CDB7DEB728970FB6F894E1
:10217000DEBF0FBECDBF0E9493372091F701309193
:10218000F801821B930B8133954708F4A4C04FB725
:10219000F8942091090230910A02A8EEB3E00E945F
:1021A0003A3E6B017C01F694E794D794C794409033
:1021B000050250900602609007027090080260913C
:1021C00001027091020280910302909104028090BA
:1021D000FD019090FE01A090FF01B09000024FBF62
:1021E0006D837E838F8398870E94080D2091FB0169
:1021F0003091FC012F5F3F4F3093FC012093FB0196
:102200006D817E818F819885A70196010E948B3E0A
:1022100029833A834B835C83C301B201A7019601F2
:102220000E948B3EB90180E00E948A0D3C016981C9
:102230007A8181E00E948A0D8615970518F4681A44
:10224000790A02C0612C712C40909B0250909C0234
:102250006414750420F48091F601811104C0B30167
:102260008EE10E94FB0EB301641975098DE10E9495
:10227000FB0EC501B401A70196010E948B3EB90176
:1022800087E00E948A0D2091F9013091FA01909324
:10229000FA018093F901BC01621B730B660F771F73
:1022A0008FE10E94FB0EB60180E228960FB6F894EB
:1022B000DEBF0FBECDBFDF91CF91FF90EF90DF90DB
:1022C000CF90BF90AF909F908F907F906F905F90D6
:1022D0004F900C94FB0E28960FB6F894DEBF0FBEFD
:1022E000CDBFDF91CF91FF90EF90DF90CF90BF9067
:1022F000AF909F908F907F906F905F904F900895D8
:10230000CF932FB7F8948091490390914A032FBF40
:10231000892B09F091C080914E0381118AC0809170
:102320004F03882309F47EC080910B0290910C0228
:10233000019690930C0280930B024091FD02509104
:10234000FE026091FF0270910003769567955795A4
:1023500047958091050290910602A0910702B091E5
:102360000802840F951FA61FB71F80930502909344
:102370000602A0930702B093080240910103509116
:102380000203609103037091040376956795579556
:1023900047958091010290910202A0910302B091B1
:1023A0000402840F951FA61FB71F8093010290930C
:1023B0000202A0930302B0930402409119035091CA
:1023C0001A0360911B0370911C03769567955795CE
:1023D00047958091FD019091FE01A091FF01B09180
:1023E0000002840F951FA61FB71F8093FD019093D5
:1023F000FE01A093FF01B093000280910902909129
:102400000A02019690930A02809309020E94A51085
:10241000C0E08C2F0E947C10CF5FC331D1F70E94A7
:10242000C70F07C080916600882319F085E00E94DD
:102430007C10CF910C94EB0CCF9108950C948011EB
:1024400060E080E593E00E94502C87FD0AC0811176
:1024500002C00C94822C992787FD909501970C94CB
:10246000C82D08950E945E0778940E94DB060E94A2
:102470002D090E9433250E94081E0E94700F0E94A1
:10248000920B0E94B3140E943C300C9455310E9470
:1024900032120E946A130E942012FDCF66E871E09A
:1024A00080E593E00E94A82E81E990E0909351038B
:1024B00080935003E4E5F3E080818C5E808308958F
:1024C000FC0124812451621710F40C94A32E862F52
:1024D000821B0C946D18FF920F931F93CF93DF9381
:1024E000EC018B0141110E94233F85E0F82EFA9404
:1024F00059F0CE010E94FC3E8017910739F084E626
:1025000090E00E94A537F3CF81E001C080E0DF9129
:10251000CF911F910F91FF900895EF92FF920F932B
:102520001F93CF93DF937B018C01E80EF91ECFEF51
:10253000DFEF0E151F05A9F0C8010E94F43EC82761
:1025400028E0CE01969587953C2FEC0130FF04C022
:1025500031E0C32730EAD327215099F70F5F1F4F8F
:10256000E8CFCE01DF91CF911F910F91FF90EF90B7
:102570000895EF92FF920F931F93CF93DF931F92D3
:10258000CDB7DEB78C017B0149830E948D12498152
:10259000BC01C8018E0D9F1D0F90DF91CF911F913F
:1025A0000F91FF90EF900C946B12482F68E970E048
:1025B0008EE090E00C94B912482F60E273E088EA54
:1025C00090E00C94B912482F60E270E08AEC93E03E
:1025D0000C94B9120F931F93CF93DF93D82F182F1A
:1025E0001170412F63E678E680E090E00E946B1264
:1025F000C82F412F6CE679E682E090E00E946B12D2
:102600008111C1E0412F62E070E184E090E00E941E
:102610006B128111C1E0412F68E070E086E090E02C
:102620000E946B128111C1E0D1FB002700F9402FFD
:102630006AE070E088E090E00E946B128111C26055
:10264000D2FB112710F9412F63E070E08AE090E09F
:102650000E946B128111C460D3FBDD27D0F94D2F8E
:102660006CE070E08CE090E00E946B128111C86019
:1026700001110E947A0C80E00E94D5128111C26083
:1026800011110E945B1880E00E94DC128111C4606D
:10269000D1110E94CE1480E00E94E3128111C86023
:1026A0008C2FDF91CF911F910F910895CF93C82F59
:1026B0000E941331C0FDC260C1FDC460C2FDC8608C
:1026C0000E942D318C2F0E94EA12682F8C2FCF91FF
:1026D0000C94313180E00E94EA12882321F00E949C
:1026E000561380E0089581E0089580E00E94EA1288
:1026F00081600C945613CF930E94323084E792E0AD
:102700009093D9038093D803C1E0C093D70310926C
:10271000D0030E945416823011F4C093D0030E945B
:10272000D11C91E0813009F090E0892FCF9108957C
:1027300061E081E00E94261C80E892E09093D9033A
:102740008093D803089561E081E00E94261C8CE804
:1027500092E09093D9038093D803089560E082E0DB
:102760000E94261C8EE692E09093D9038093D803B2
:10277000089561E081E00E94261C88E692E0909333
:10278000D9038093D80308951092D00390E0893044
:10279000910598F5FC01E65DFF4F0C94CC3E0E943C
:1027A0005416811102C00C94A3130E945416853054
:1027B00029F40C94B91381E08093D0030C949813FE
:1027C00082E692E016C00C94AE130E94981380919A
:1027D00083039091840365E070E00E94773E7093DC
:1027E000D2036093D103089581E08093D00386E8FB
:1027F00092E09093D9038093D80308950E94EF1F2D
:102800000C94220FCF93C82F0E94FE138C2F0E948E
:10281000C413C73029F0C83059F463E081E005C023
:102820006091A303660F615080E0CF910C94D7189C
:10283000CF910C94D11C0E94DD1D84EF91E00E9489
:10284000BE1D84E690E00E94B9370C94F61DCF932C
:10285000C82F0E94BF29882389F10E941B14C093AE
:102860005C038C2F0E94C41310925A0310925903D8
:1028700083E080935B030E947F3C61E081E00E94E3
:10288000530F0E947B13882391F081E080935B03B8
:102890000E940C200E9432301092D70384E00E94E4
:1028A0006F3680915C030E9402140E9445200E94B2
:1028B0006C0D0E948F3CCF910C943B30CF910895CA
:1028C000DC015896ED91FC915997EE0FFF1FEE0F2A
:1028D000FF1FEE54FE4F6591759185919491089577
:1028E00040E250E062E971E00C94D23E80916703CF
:1028F000909168032091690330916A032817390782
:1029000020F490936A038093690380916903909106
:102910006A0389359B4130F088E59BE190936A0317
:102920008093690380916B0390916C0320916D03F8
:1029300030916E032817390720F490936E0380932B
:102940006D0380916D0390916E038938934130F04F
:1029500088E893E190936E0380936D030895FC01E2
:1029600080810C94E80640E250E06AEC73E08DE56B
:1029700093E00E94E43E8DE593E00C94AF1440E2B6
:1029800050E06AEC73E08DE593E00E94023F81E045
:102990000E94E3128DE593E00C94AF148DE593E073
:1029A0000E9470140C94BF14FC010994FC018591E1
:1029B00094910C94D414009761F09C0180E0F9018B
:1029C000459154912E5F3F4F452B11F08F5FF7CF0C
:1029D000089580E00895EF92FF920F931F93CF9395
:1029E000DF93EC017B018A0185E00E94100C8E15BB
:1029F0009F0518F4188281E007C00817190718F41A
:102A000081E0888301C080E0DF91CF911F910F9119
:102A1000FF90EF900895282F81E090E03AE0215058
:102A200038F0AC01349FC001359F900D1124F7CFD1
:102A30000895009719F024F081E0089580E008954A
:102A40008FEF089530E120E080FD2F5F9695879508
:102A50003150D1F7822F0895CF92DF92EF92FF92FB
:102A6000CF9397FF08C090958095709561957F4FA3
:102A70008F4F9F4F07C0611571058105910511F0BA
:102A8000C0E001C0C1E05AE0C52ED12CE12CF12CF0
:102A9000611571058105910541F0CF5FA701960190
:102AA0000E94AD3ECA01B901F3CF8C2FCF91FF90A8
:102AB000EF90DF90CF900895BC0180E090E00C94FF
:102AC0002C15CF92DF92EF92FF920F931F93CF932B
:102AD000DF93EC017B016A01E881F981CF01B80144
:102AE0000E94773E009731F01E141F049CF4081BCF
:102AF000190B03C01E141F0474F4C901801B910B31
:102B0000E817F90718F40E0F1F1F01C08901198378
:102B100008830DC08C01C8018C0D9D1D8E179F0769
:102B200018F4E01BF10B01C0F601F983E883DF9193
:102B3000CF911F910F91FF90EF90DF90CF9008956C
:102B4000AF92BF92CF92DF92EF92FF920F931F93BB
:102B5000CF93DF93EC017B016A0159016881798190
:102B6000F7FE02C06150710980E090E00E942C15D0
:102B7000823020F082500E940B1502C081E090E06C
:102B80008C019501A601B701CE010E946115DF916C
:102B9000CF911F910F91FF90EF90DF90CF90BF905A
:102BA000AF9008952FEF3FEF40E050E00C94A01558
:102BB0000E94DC378111FCCF0E94DC378823E1F3CF
:102BC0000895CF93C6E00E94DC37811104C0C15044
:102BD000D1F780E001C081E0CF91089520917D037D
:102BE00030917E0395E0929FF001939FF00D1124A8
:102BF000E80FF11DEE0FFF1FEA53FE4F85919491F0
:102C000008951F93CF93DF93182FC0918103D09124
:102C100082030E94EE159C01123061F480917D03C5
:102C200090917E03029731F4C730D10518F02197B7
:102C300020EB34E02C9FC0012D9F900D3C9F900D08
:102C40001124DF91CF911F9108951F93CF93DF93AC
:102C5000182FC0918103D09182030E94EE1523E0CA
:102C60002093A503113029F4809187039091880364
:102C700006C0123039F48091890390918A03109331
:102C8000A50306C0133021F480919B0390919C030F
:102C90009C012C9FC0012D9F900D3C9F900D1124F5
:102CA000DF91CF911F910895E0917D03F0917E0314
:102CB000E25CFD4F84910895CF93DF9300D000D064
:102CC000CDB7DEB7A0917F03B09180032091990327
:102CD00030919A030E943A3E24E630E040E050E012
:102CE0000E948B3E293E8DEF38074105510550F477
:102CF00029833A834B835C830E94541629813A814D
:102D0000853021F428EE3DEF40E050E0C9010F90FE
:102D10000F900F900F90DF91CF91089520919D0318
:102D200030919E038091810390918203AC01249F96
:102D3000C001259F900D349F900D1124089582E0CD
:102D40000E940116BC0188E99AE30E94FE182091B6
:102D5000690330916A032817390708F4C9010895F7
:102D600082E00E940116BC0184EC99E00E94FE18EA
:102D700020916D0330916E032817390708F4C901BB
:102D8000089580917D0390917E030A97029750F0F9
:102D900081E00E94EE15BC018CEC9DE80E94773E1C
:102DA000CB01089581E090E0089580917F03909198
:102DB00080038436910530F484E690E0909380039C
:102DC00080937F0380917F0390918003893E9D4F84
:102DD00030F088EE9DEF9093800380937F03809185
:102DE0008F0390919003893E934030F088EE93E0FA
:102DF0009093900380938F030E94C11620918103CA
:102E0000309182038217930720F49093820380937A
:102E100081038091810390918203892B31F481E0B9
:102E200090E090938203809381030E949F162091EB
:102E30008303309184038217930720F490938403D3
:102E400080938303809183039091840320918B036B
:102E500030918C038217930720F490938C03809316
:102E60008B030E94B0162091850330918603821750
:102E7000930720F490938603809385032091850324
:102E80003091860380918D0390918E032817390726
:102E900020F430938E0320938D03809167039091EB
:102EA000680340918303509184034817590720F425
:102EB000909384038093830340918B0350918C0300
:102EC0004817590720F490938C0380938B038091CB
:102ED0006B0390916C032817390720F490938603B5
:102EE0008093850320918D0330918E032817390735
:102EF00020F490938E0380938D03089598E2899F28
:102F0000B001112468557F4F48E250E08DE793E00F
:102F10000E94E43E0C94D51698E2899FB0011124DA
:102F200068557F4F48E250E08DE793E00E94023FF2
:102F300081E00C94DC120E94D5168091830390915D
:102F4000840324E0969587952A95E1F790938C0366
:102F500080938B0308950E94D516809185039091EC
:102F6000860334E0969587953A95E1F790938E0322
:102F700080938D0308950E94D51680917F039091D0
:102F80008003969587959093840380938303209183
:102F90007D0330917E032330310531F4969587957A
:102FA000909384038093830380918303909184039F
:102FB00090938603809385030E949B170C94AB1714
:102FC00081E00E94EE15909388038093870382E04E
:102FD0000E94EE1590938A038093890380917D036C
:102FE00090917E03892B61F580ED97E090938003AB
:102FF00080937F0383E090E090938203809381032A
:1030000088EE93E09093900380938F031092920345
:103010001092910380E797E1909394038093930338
:1030200010929603109295038EE190E0909398038E
:103030008093970388E790E090939A038093990395
:103040000E945416811128C081E090E090939C0367
:1030500080939B0380917D0390917E03029719F4E6
:103060008BEF9FEF02C081EF9FEF90939E038093C1
:103070009D0383E090E09093A00380939F0384E6F8
:1030800090E09093A2038093A10382E090E090935C
:10309000A4038093A3030DC088E090E090939E0367
:1030A00080939D0383E00E94EE1590939C03809390
:1030B0009B030C94BB17CF9310927E0310927D0359
:1030C0000E94E017C0E08C2F0E948C17CF5FC431A4
:1030D000D1F781E0CF910C94DC12CF93C82F0E94DE
:1030E0007E1720917D0330917E03232B21F00E94D7
:1030F00057340E94103920917D0330917E032A308D
:10310000310571F02B30310569F0232BC1F48C2F80
:1031100090E001960E94B0388AE3CF910C948738F2
:1031200089E00AC065E080918303909184030E9446
:10313000DF3A0E94103984E0CF910C94193467E093
:1031400080917F03909180030E94DC3A8FE20E947D
:1031500087388091810390918203CF910C94B0388D
:10316000BC0183E893E00E94D2150C94D516BC01F3
:1031700085E893E00E94D2150C94D5162FEF3FEF0F
:1031800041E050E0BC018FE893E00E94A0150C9450
:10319000D51680919703909198030E94C81E8AE7E4
:1031A00092E09093D9038093D8030C94D11CCF93D1
:1031B000C62F91E09093D7038093A6038091A60336
:1031C0008C1302C01092D70380FF02C080E001C0C0
:1031D00083E00E940214813079F49091D7039923FF
:1031E00059F08091A6038F5F8093A6030E94FE137F
:1031F0000E94C918813011F3CF910895AB019C0151
:10320000A8EEB3E00E943A3E9A0140E050E00E94EE
:103210008B3EA8EEB3E00E94503E24E630E040E052
:1032200050E00E948B3E2115310581E04807510591
:1032300020F02FEF3FEF40E050E0C901089580916A
:10324000CD039091CE03892B99F40E94250C8823FD
:1032500081F00E94280C2091A7033091A803821BC3
:10326000930B9C0181E02330310518F080E0089534
:1032700081E008958F5D0C94100CDF92EF92FF9225
:103280000F931F93CF93DF93C0E0D0E00FEF1FEFBA
:10329000DD24DA94EE24E394F12C97018C2F0C2E8C
:1032A00002C0220F331F0A94E2F740914B03509162
:1032B0004C0324233523232B39F00E943A1980171D
:1032C000910710F4DC2E8C012196C830D10529F726
:1032D0008D2DDF91CF911F910F91FF90EF90DF9097
:1032E0000895CF93DF932091CD033091CE03232B0C
:1032F00021F4DF91CF910C943A199091AB03C82F30
:10330000D0E0992391F00E943A19CC0FDD1FFE0105
:10331000E455FC4FC454DC4F2081318148815981F0
:10332000241B350B280F391F07C0FE01EE0FFF1FAE
:10333000E455FC4F20813181C901DF91CF9108957F
:10334000CF92DF92EF92FF920F931F93CF93DF9371
:10335000C0E0D0E0E12CF12C0FEF1FEFCC24C394A0
:10336000D12CC6010C2E02C0880F991F0A94E2F7D7
:1033700020914B0330914C0382239323892B59F0E6
:103380008C2F0E947119E816F90608F47C01801749
:10339000910708F48C012196C830D10511F7E01A85
:1033A000F10A81E020919D0330919E032E153F0587
:1033B00008F080E0DF91CF911F910F91FF90EF9087
:1033C000DF90CF900895CF93DF93EC018091CD03F0
:1033D0009091CE03892B41F0209731F40E94280C64
:1033E0009093A8038093A703D093CE03C093CD03FB
:1033F0000E943B0D8091CC03811105C08C2FDF9181
:10340000CF910C943507DF91CF910895FF920F93E0
:103410001F93CF93DF9381E00E947C070CEB13E0B6
:10342000CCEAD3E0F12C8F2D0E943A19F801819358
:1034300091938F0189939993F394F8E0FF12F3CF5E
:103440001092CE031092CD031092CC0380E090E056
:103450000E94E3191092A8031092A7038FEF8093A4
:10346000CF03DF91CF911F910F91FF90089580E0DE
:1034700090E00E94E31981E08093CC0308950E94BC
:10348000371A80E00C947C07DF92EF92FF920F9343
:103490001F93CF93DF938091CF0387FD20C00E94BD
:1034A00071197C01D12C01E010E0C0E0D0E0209146
:1034B0004B0330914C0320233123232B41F08D2DDE
:1034C0000E947119E816F90610F4C02BD12B000FD9
:1034D000111FD39488E0D812EACFCE0102C080E059
:1034E00090E0DF91CF911F910F91FF90EF90DF90CF
:1034F0000895EF92FF920F931F93CF93DF938C0168
:10350000C0E0D0E0EE24E394F12C97010C2E02C031
:10351000220F331F0A94E2F780914B0390914C03E2
:1035200028233923232B31F42196C830D10569F79C
:1035300081E008C08C2F8F5D0E943A0C80179107A4
:1035400098F780E0DF91CF911F910F91FF90EF905E
:1035500008957F928F929F92AF92BF92CF92DF9207
:10356000EF92FF920F931F93CF93DF9386E090E04B
:103570000E94791A882309F478C00E94D90C882304
:1035800009F473C08091CF0387FF04C00E943D19E6
:103590008093CF038091CF030E943A196C01A090D1
:1035A0008903B0908A036CEAE62E63E0F62E0CEBFA
:1035B00013E0C0E0D0E07724739488248394912CA6
:1035C000C4010C2E02C0880F991F0A94E2F72091C3
:1035D0004B0330914C0382239323892B81F08C2F52
:1035E0000E943A198A159B05A0F0C816D90608F45E
:1035F000712CF70191838083F80191838083219658
:10360000F2E0EF0EF11C0E5F1F4FC830D105C1F67E
:1036100002C0772473941092AB030E949B3790935F
:10362000AA038093A903772079F0DF91CF911F91AE
:103630000F91FF90EF90DF90CF90BF90AF909F9051
:103640008F907F900C94371A0E94441ADF91CF918B
:103650001F910F91FF90EF90DF90CF90BF90AF90B0
:103660009F908F907F900C94E319DF91CF911F91E1
:103670000F91FF90EF90DF90CF90BF90AF909F9011
:103680008F907F9008951F93CF93DF938091AB032A
:1036900081110EC081E08093AB03CCEBD3E010E04E
:1036A000812F0E943A19899399931F5F1830C1F7AF
:1036B000DF91CF911F9108950E949B372091A9031C
:1036C0003091AA03821B930B08958091CD039091B2
:1036D000CE03892B19F40E94A91A0AC00E94431B29
:1036E0000E945C1B409720F080E090E00E94E3196C
:1036F0000E941F19882311F082E008958091CC0365
:103700008823D1F381E00895EF92FF920F931F93E6
:10371000CF93DF938C01C0E0D0E0EE24E394F12C52
:1037200097010C2E02C0220F331F0A94E2F78091FA
:103730004B0390914C0328233923232B31F42196FA
:10374000C830D10569F780E007C08C2F0E9471193D
:1037500080179107A0F381E0DF91CF911F910F9126
:10376000FF90EF900895EF92FF920F931F93CF93E6
:10377000DF938C01C0E0D0E0EE24E394F12C9701BC
:103780000C2E02C0220F331F0A94E2F780914B03E4
:1037900090914C0328233923232B31F42196C830F0
:1037A000D10569F780E007C08C2F0E9471190817B6
:1037B0001907A0F381E0DF91CF911F910F91FF9046
:1037C000EF900895CF93DF93EC010E94BA0C882309
:1037D00039F0682F70E0CE010E94773ECB0102C025
:1037E00080E090E0DF91CF9108950E94062581E06E
:1037F0000E9403228091D1039091D2030C94D12492
:103800000C941D250E94D90C882321F00E94AA2423
:103810000C94B82208950E94021C0E94CA0C2091A8
:10382000D5033091D6032817390740F48AE79AE088
:1038300090935A038093590380E008958091D303B5
:103840009091D4030E94D12482E00895CF93DF9316
:103850001F92CDB7DEB7882341F069830E942516F9
:103860009093D6038093D5036981662369F0809194
:103870008303909184039093D4038093D303809126
:103880008B0390918C030CC08091850390918603EB
:103890009093D4038093D30380918D0390918E03F2
:1038A0009093D2038093D1030F90DF91CF9108952D
:1038B0008091D8039091D9030C94D6148091D803A9
:1038C0009091D90302960C94D6140E945E1C0E941B
:1038D00045200C948338CF93DF930E949B37EC01F3
:1038E0000E949B378C1B9D0B853B910510F00E941D
:1038F0006C0D0E94DC37882399F3DF91CF910C94F3
:103900006436CF93DF930E94651C0E949B37EC01C5
:1039100085E00E946F360E946C0D93980E947C3067
:103920000E94E11581110FC00E94E3310E94E11550
:10393000811109C00E949B378C1B9D0B853B910513
:1039400068F3939AEBCF0E94643660E081E0DF91E8
:10395000CF910C94530F0E94651C0E946C0D0E9425
:10396000803086E00E946F360C946B1CE091D80387
:10397000F091D903349685919491FC0109948111B9
:1039800003C00E94AB1C0BC0813039F48091D70377
:10399000811105C00E94811C02C081E0089580E071
:1039A00008950F931F93CF93DF931092B0040E945A
:1039B000581C02E0C0E0D0E011E00E94DC378093A8
:1039C000B0040E94A530112379F00E948520082FB1
:1039D0000E94BF1C182F882339F00E94280CC8179A
:1039E000D90791F4111107C08091D703882311F0F2
:1039F000011114C010E08091B0048130F1F60E94F2
:103A0000D9378230D0F20AC00E94280CEC010E9403
:103A1000B61C082F0E94BF1C182FE4CF0E945E1C0A
:103A2000802FDF91CF911F910F9108950E94F61D75
:103A30000C943F1A0E94DD1D0E94061A21E080911D
:103A4000950390919603892B09F420E02093DA03E3
:103A500080E00C9403221F93CF93DF93C091D50392
:103A6000D091D603CE010E94E21B0E94B31B182FF7
:103A70000E941F19811109C0111107C00E94CA0CB0
:103A800011E0C817D90708F410E0812FDF91CF911A
:103A90001F9108951F93CF93DF930E942B1D182F22
:103AA0000E947D1DEC018091DA03882329F0BE017C
:103AB000812F0E94672201C0812F811108C0BE01A1
:103AC000812F0E94C8230E94BE1D82E001C081E0B8
:103AD000DF91CF911F9108958091E103089581E0D6
:103AE0002091DF033091E003232B09F480E0089557
:103AF0008091DF039091E00308958091DB03909122
:103B0000DC030895CF93DF931F92CDB7DEB74091CA
:103B1000630350916403BA017250CE0101960E9472
:103B2000EB148981811116C00E94CF0C009711F40B
:103B300081E090E0BC018091DD039091DE030E9462
:103B4000FE1820916D0330916E032817390720F479
:103B5000C90102C080E090E00F90DF91CF910895FD
:103B6000813020E8920710F080E090E89093E00325
:103B70008093DF030E9431070C94440DCF93DF93B1
:103B8000EC010E94821DBC01C817D90708F4BE01D0
:103B90008091DB039091DC038617970759F07093AF
:103BA000DC036093DB0382E10E94FA0DDF91CF9189
:103BB0000C94B01DDF91CF9108958091E1038111A4
:103BC00014C080E090E00E94B01D1092DC031092BF
:103BD000DB0381E00E941B0781E08093E10384EC1A
:103BE00099E09093DE038093DD0308958091E103D3
:103BF000882369F080E090E00E94B01D1092DC0301
:103C00001092DB0380E00E941B071092E1030895ED
:103C100081E08093E1030C94F61D87E08093B60465
:103C200082E08093B7040E94683683E08093E203C9
:103C300008958FEF8093B6040C946436FF920F932F
:103C40001F93CF93DF930E94BA0CF82E8091D0037C
:103C5000882369F08091810301E08F1101C000E0A9
:103C600011E0F11010E0813021F4112311F010E087
:103C700000E00E94C00C882309F457C085E10E942F
:103C8000100CEC0184E10E94100CC817D90728F42D
:103C90009C012C1B3D0BE90102C0C81BD90BC53F81
:103CA000D14008F442C0C1E0011102C087E001C068
:103CB00083E08093B604112329F08091B6048250EA
:103CC0008093B604CC2329F08091B6048150809370
:103CD000B604011104C0111102C0CC2331F081E0FF
:103CE0000E946F36111106C003C00E94643604C0E2
:103CF000002311F0F11002C0D0E001C0D1E00E9419
:103D0000CF37811102C01092E203D11106C0C11158
:103D100004C00E94CF37883051F08091E203823096
:103D200011F481E00AC082E008C0C0E0BDCF8091FC
:103D3000E2038F5F8093E203F0CFDF91CF911F9179
:103D40000F91FF9008951092E70308950E949B370A
:103D50009093E6038093E50308950E949B3720919A
:103D6000E5033091E603821B930B2091E30330912E
:103D7000E4032817390728F081E08093E70382E005
:103D800008951092E70381E008958091E703089574
:103D90002CE3AC01249FC001259F900D112490932A
:103DA000E4038093E30308950E94061A0E94062507
:103DB00081E00C9403220E941D250C943F1A1F934E
:103DC000CF93DF93C091D503D091D603CE010E944B
:103DD000E21B0E94841B182F0E941F19811109C029
:103DE000111107C00E94CA0C11E08C179D0708F43E
:103DF00010E0812FDF91CF911F9108951F93CF93F2
:103E0000DF930E94DF1E182F0E94AA24EC01BC0140
:103E1000812F0E946722811108C0BE01812F0E945C
:103E2000C8230E94D12482E001C081E0DF91CF91BC
:103E30001F9108958091F6039091F7032091F90363
:103E4000222341F00E949B372091F6033091F70323
:103E5000821B930B08956091F2037091F30380919C
:103E6000F4039091F50328EE33E040E050E00E9427
:103E70008B3EC90108956091EE037091EF0380912C
:103E8000F0039091F10328EE33E040E050E00E940F
:103E90008B3EC90108950F931F93CF93DF9381E069
:103EA0000E9425168C0184E00E942516EC0186E113
:103EB0000E94100C80179107B8F4C817D907B0F406
:103EC0009C012C1B3D0BC8018C1B9D0B64E670E014
:103ED0000E94773EC9010E94773E6436710510F05A
:103EE00063E670E0862F03C083E601C080E0DF91C7
:103EF000CF911F910F910895CF93DF930E944B1F95
:103F00009091F8039817E0F48093F8030E941A1F29
:103F10002091FB033091FC03EC01C21BD30B0E94E8
:103F20001A1F9093FC038093FB038091FD039091F3
:103F3000FE038C179D0720F4D093FE03C093FD036E
:103F4000DF91CF9108950E947C1F8091FA0388230E
:103F500011F089E601C084E690E02091F803821B0D
:103F600091092091FD033091FE03AC01429FC001F5
:103F7000439F900D529F900D1124089520915F034F
:103F8000309160032130310511F481E026C0211504
:103F9000310511F480E021C02430310529F48091ED
:103FA000F90381110AC0F6CF2230310519F480914E
:103FB000F90313C02330310581F485E00E94100C11
:103FC0002091610330916203A90152508417950733
:103FD00008F328173907C8F208950C940F070E94B8
:103FE0004B1F8093F8031092FC031092FB03109276
:103FF000FE031092FD031092F2031092F30310924D
:10400000F4031092F5031092EE031092EF03109256
:10401000F0031092F103089560E971E080E00E94DE
:10402000FA0D9093ED038093EC0381E00E94251636
:10403000BC016854744F6D3C2DE8720710F06CECB5
:104040007DE880E00E94FA0D813C2FEF920710F08E
:1040500080EC9FEF9093EB038093EA030E94C00CE7
:104060008093FA030E945C169093E9038093E8031F
:104070000E949B379093F7038093F6030E94EF1FF3
:1040800081E08093F9030C94430C0E941A1F9093D3
:10409000F7038093F6031092F90308950E949C247D
:1040A00081111DC00E946F1D811119C00E941F192E
:1040B000882351F18091F2039091F303A091F403CE
:1040C000B091F50380599F4FAF4FBF4F8093F203DC
:1040D0009093F303A093F403B093F50308958091B4
:1040E000EE039091EF03A091F003B091F10380599A
:1040F0009F4FAF4FBF4F8093EE039093EF03A0937A
:10410000F003B093F103D2CF0895CF93DF93809162
:10411000F903811102C082E0D7C085E00E94100C33
:1041200020916303309164033E5F2817390718F428
:104130008FE09DE0C4C080E00E94190C2091EA034A
:104140003091EB038217930758F42091EC033091E0
:10415000ED0382179307B8F40E946C1D882399F031
:104160000E945416823009F08FC080918103909193
:104170008203029709F088C00E94C00C811184C09C
:104180008FE19DE07BC0C091FA030E94C00CC8176C
:1041900019F080E09DE093C0C091D303D091D40387
:1041A000C851DC4F0E94D40CC817D90718F485EF0A
:1041B0009CE085C086E00E94100C20916F03309136
:1041C00070038217930718F486EE9CE078C08BE1A9
:1041D0000E94100CC091E803D091E903C83E2DEF76
:1041E000D207D9F08C179D07C0F00E945C16C81743
:1041F000D90709F04CC00E94541681115EC080910D
:104200007F039091800360918303709184030E94E7
:10421000773E6A307105D8F550C0C0918F03D091B8
:104220009003C83E83E0D807A0F46091EE0370913C
:10423000EF038091F0039091F10320E63AEE40E025
:1042400050E00E948B3E2C173D0718F08BEC9CE051
:1042500015C08091910390919203892B09F45BCF53
:1042600087E00E94100C209193033091940328174B
:10427000390708F050CF8BEB9CE021C090935A0394
:104280008093590381E020C08FE19DE018C0C09168
:10429000E803D091E9030E945C168C179D0730F467
:1042A00086ED9CE090935A03809359030E945C161C
:1042B0009093E9038093E803E5CF86ED9CE090932B
:1042C0005A038093590380E0DF91CF9108950E94B3
:1042D000DB1E0E94161D0C943F1ACF93DF931F9292
:1042E000CDB7DEB78091FF03882329F0813031F408
:1042F0000E944A1D0CC00E94FE1E09C00E94651B40
:10430000823089F089830E94672189810CC08130C5
:1043100051F49091D003992331F082E08093FF0310
:104320000E94061A82E00F90DF91CF910895CF93FB
:10433000DF930E94061A61E083E00E94261CC09170
:10434000D503D091D6030E94BA0C811106C00E94F9
:10435000CA0CC817D90740F40CC0CE010E94E21B5A
:104360000E94B31B882329F00E94D41E1092FF03E1
:104370000BC060E083E00E94261C0E941A1D81E0B1
:104380008093DA038093FF03DF91CF9108958091AA
:104390000004813029F48091D1039091D2030895D3
:1043A00080E090E008952CE0829FC0011124845F9A
:1043B0009B4F0C9444258CE694E00C944425CF93B9
:1043C000DF9300D000D0CDB7DEB784E10E94100C9F
:1043D0009A83898386E10E94100C29813A81281BE7
:1043E000390B3A83298389E10E94100C9C838B83CB
:1043F000CE0101960E9444250F900F900F900F90D0
:10440000DF91CF910895AF92BF92CF92DF92EF925A
:10441000FF920F931F93CF93DF93182F81E0809328
:1044200000040E94CA0CBC012091D1033091D20338
:104430004091D5035091D603012F84E694E00E9469
:104440005F258091D5039091D6030E94E21B6C01F9
:1044500084E0E82E84E0F82EC0E0D0E0AA24A39403
:10446000B12C95010C2E02C0220F331F0A94E2F7E3
:1044700080914B0390914C0328233923232B69F01F
:104480008C2F0E947119BC012091D1033091D2036D
:10449000012FA601C7010E945F2521968CE0E80E3E
:1044A000F11CC830D105E9F6109272041092030491
:1044B0001092710410927004DF91CF911F910F91AF
:1044C000FF90EF90DF90CF90BF90AF9008951F9333
:1044D000CF93DF93182FEB018091D003882361F1F4
:1044E000112349F080917204811105C00E94371A8E
:1044F00081E08093720480917204882311F08530EA
:10450000D9F42091D1033091D203203A310510F42F
:1045100020EA30E02C173D0710F41092CC030E94E3
:10452000651B809300048130F1F40E94A019882358
:1045300019F08FEF8093CF030E94C7218C179D073E
:1045400080F0112371F080917204853051F49091C4
:10455000030481E0890F8093030481E09A3020F402
:1045600002C01092030480E0DF91CF911F91089563
:10457000CF92DF92EF92FF920F931F93CF93DF932F
:104580007C010E94CA0CA701BC0184E694E00E9451
:10459000212604E014E0C0E0D0E0CC24C394D12C68
:1045A00096010C2E02C0220F331F0A94E2F780916D
:1045B0004B0390914C0328233923232B41F08C2F5C
:1045C0000E947119A701BC01C8010E9421262196F1
:1045D000045F1F4FC830D10519F7DF91CF911F91AC
:1045E0000F91FF90EF90DF90CF900895AF92BF9220
:1045F000CF92DF92EF92FF920F931F93CF93DF93AF
:104600006091D5037091D60384E694E00E948425DE
:104610007C018091D5039091D6030E94E21B6C012E
:1046200004E014E0C0E0D0E0AA24A394B12C9501EA
:104630000C2E02C0220F331F0A94E2F780914B0325
:1046400090914C0328233923232B61F0B601C80134
:104650000E948425E816F90628F0B601C8010E94D8
:1046600084257C012196045F1F4FC830D105F9F6DF
:10467000C701DF91CF911F910F91FF90EF90DF90D5
:10468000CF90BF90AF9008950F931F93CF93DF9378
:10469000EB012091D3033091D4038C012817390703
:1046A00008F489010E94C7219C018017910708F432
:1046B0009801C217D307E1F0409172044530D1F45C
:1046C0002C173D07B8F082179307A0F48091D1030F
:1046D0009091D2038C179D0758F04091010450919E
:1046E00002048091A7039091A8034817590711F479
:1046F000CE0109C08091A7039091A8039093020472
:1047000080930104C901DF91CF911F910F9108950A
:10471000CF92DF92EF92FF920F931F93CF93DF938D
:104720007C010E94CA0C9093650480936404F0920B
:104730006704E092660404E014E0C0E0D0E0CC241A
:10474000C394D12C96010C2E02C0220F331F0A9461
:10475000E2F780914B0390914C0328233923232BBC
:1047600041F08C2F0E947119F80191838083F382AC
:10477000E2822196045F1F4FC830D10519F7DF91FF
:10478000CF911F910F91FF90EF90DF90CF90089500
:104790001F93CF93DF93182FEB010E94D90C811147
:1047A00008C01123E1F12091700430917104232B92
:1047B000B1F10E941F19811132C0CE010E94B822AE
:1047C000CE010E9488230E94F6228C179D0708F0D4
:1047D00048C09C012C0F3D1F3695279530937104DE
:1047E00020937004BE0180917004909171040E9426
:1047F00044239093710480937004909172049230DA
:1048000009F1A8F49923C1F0913039F5112339F059
:1048100083E080937204109271041092700480916E
:10482000700490917104DF91CF911F91089593309E
:1048300061F0943081F011C0112389F30E94371A7E
:1048400081E00CC010927204EACF109271041092B1
:10485000700484E003C0112311F385E08093720497
:10486000DECF9093710480937004BCCF0C94F51B41
:10487000CF93DF930E94021C0E94CA0CEC0182E0DD
:104880000E9425168C179D0730F48091D3039091D8
:10489000D4030E94D1248091D5039091D6038C1724
:1048A0009D0718F48AE79AE03AC00E94320C0297FA
:1048B000E0F18091910390919203892B69F08FE14F
:1048C0000E94100C2091A1033091A20328173907F0
:1048D0001CF480E79AE023C00E94320C20919F03D1
:1048E0003091A003220F331FC1E08217930708F411
:1048F000C0E08C2F0E94370CCC23B9F080919B0331
:1049000090919C03892B89F08DE10E94100CEC01A1
:104910000E948E16C817D90744F486E79AE0909350
:104920005A038093590381E001C082E0DF91CF9167
:10493000089580917704089581E020917504309165
:104940007604232B09F480E00895809175049091FA
:1049500076040895809173049091740408950E94E0
:10496000CF0C009711F481E090E0BC0188E99AE354
:104970000E94FE182091690330916A0328173907B5
:1049800008F4C9010895813020E8920710F080E012
:1049900090E890937604809375040E942D070C9400
:1049A000440DCF93DF93EC010E94AF24BC01C817E4
:1049B000D90708F4BE0180917304909174046817BC
:1049C000790750F49C01261B370B2D38310568F010
:1049D000BC016C58710909C09B01281B390B2D388B
:1049E000310518F0BC0164577F4F8617970759F0BF
:1049F000709374046093730481E10E94FA0DDF9157
:104A0000CF910C94C324DF91CF91089580917704C6
:104A1000811112C0109276041092750410927404E1
:104A20001092730480E090E00E94C32481E00E9411
:104A3000150781E080937704089580917704882397
:104A400089F080E090E00E94C324109276041092D6
:104A50007504109274041092730480E00E9415078C
:104A600010927704089510927604109275041092B3
:104A700074041092730480E090E00E94C32481E0EB
:104A8000809377040C941D25FC01428153814115CC
:104A9000510591F0A081B181B7FF03C0B195A195F7
:104AA000B10928EE33E00E94493E9A0140E050E00F
:104AB0000E948B3EC901089580E090E008950F9315
:104AC000FC01CB01002341F04617570708F4CA0147
:104AD0006417750748F407C06417750708F4CA011E
:104AE0004617570708F4BA0197838683918380831A
:104AF000138212821582148233872287681B790BF6
:104B0000718760870F910895CF93DF93EC018881BF
:104B10009981AA85BB85E885F985309701F19B01CC
:104B200040E050E0281B390B410951090E94503EDA
:104B30009F01442737FD4095542F0E94AD3E8A8146
:104B40009B81280F391F411D511D2115310581E021
:104B50004807510524F457FD05C0C90105C08FEF72
:104B60009FEF02C080E090E0DF91CF910895DF9247
:104B7000EF92FF920F931F93CF93DF93EC012A8163
:104B80003B812417350720F4FA01E21BF30B03C025
:104B9000F901E41BF50B8C819D81969587958E1705
:104BA0009F0710F5E880F9802417350740F48A0143
:104BB000021B130BCB018E199F097C0105C0E61A5D
:104BC000F70A8901041B150BC7010E941915D82E7D
:104BD000888599850E941915D81206C01D830C83FB
:104BE000F986E8861B870A87DF91CF911F910F9185
:104BF000FF90EF90DF9008950F931F93CF93DF9373
:104C0000EC018B019A01A885B9850E94493E2A854D
:104C10003B8540E050E00E94AD3EC801A0E0B0E01E
:104C200082179307A407B5071CF41F821E8204C0D5
:104C3000021B130B1F830E83DF91CF911F910F91E6
:104C40000895EF92FF920F931F93CF93DF93EC01A0
:104C50008B017A010E94B725A701B801CE01DF912F
:104C6000CF911F910F91FF90EF900C94FC250F9323
:104C70001F93CF93DF9300D000D0CDB7DEB780E095
:104C80000E94070C9A83898381E00E94070C298186
:104C90003A81281B390B3A83298385E10E94100C45
:104CA0009C838B8308E714E0AE014F5F5F4FF801F0
:104CB000608180E00E94640CAE014F5F5F4FF8019D
:104CC000608181E00E94640C0F900F900F900F9014
:104CD000DF91CF911F910F910895CF93DF93D82F3C
:104CE00064E57AE088E69AE00E945130C0E084E111
:104CF0000E94750E8823B1F00E94BA0C91E08111D8
:104D000001C090E0D917A1F0C1110CC066E47AE0AF
:104D1000DD2319F088E69AE002C08DE59AE00E9452
:104D20005130C1E00E94DC37813009F780E001C0DA
:104D300081E0DF91CF910895CF93DF9300D000D031
:104D4000CDB7DEB7862F5A8349833C832B83AE01D0
:104D50004F5F5F4F609178040E94640C0F900F903A
:104D60000F900F90DF91CF910895FF920F931F93B3
:104D7000CF93DF93F82E162F042F83E00E946F3617
:104D8000812F0E94100CEC010E94993C802F0E9400
:104D9000070CAC019E01602F812F0E949C26FF20F2
:104DA00049F081E080934F030E94550D0E94993C89
:104DB0000E94372681E0DF91CF911F910F91FF90E4
:104DC0000C94D512AF92BF92CF92DF92EF92FF92E6
:104DD0000F931F93CF93DF93CDB7DEB761970FB6D5
:104DE000F894DEBF0FBECDBF8C017B016A0160E08D
:104DF00070E0CE0101960E94A82E8FEF8A878FE97E
:104E000090E09A8389831D870C878FEF9FE79F87A8
:104E10008E87198A188A6FEF7FE7CE0101960E946C
:104E2000AF2A61E0CE0101960E94502C082F87FD29
:104E300038C0682FCE0101960E949D2AB82E80FDB1
:104E4000F0CF81FF29C0112707FD1095F701E00F72
:104E5000F11FA4908A2D0E94750E882311F30E94E1
:104E6000550D10924F0310926600CE0101960E94DC
:104E7000642B882359F0F601E00FF11F44916A2D4D
:104E80008B2D881F8827881F0E94B52681E080937C
:104E90004F0380936600C5CFCE0101960E94642B1C
:104EA000C0CF61960FB6F894DEBF0FBECDBFDF91C5
:104EB000CF911F910F91FF90EF90DF90CF90BF9017
:104EC000AF90089581E090E0909379048093780406
:104ED0000E941B1461E081E00E94530F81E00E9458
:104EE0006D26882349F020E044EF53E06DEF73E036
:104EF0008EE393E00E94E2260C946C0D81E090E03A
:104F000090937904809378040E941B1461E080E000
:104F10000E94530F1092680020E044E053E0BA0171
:104F200086E093E00E94E22681E0809368000C9482
:104F30006C0D813119F4CB010C94C324CB010C947A
:104F4000B01DEF92FF920F931F93CF93DF9300D08A
:104F5000CDB7DEB77C01443019F06FEF7FEF02C0B0
:104F600061E070E069837A830E94D237082F10E0F5
:104F7000F7012089318941E050E069817A81C701D8
:104F80000E960E946115F7016685778583850F90DF
:104F90000F90DF91CF911F910F91FF90EF900C94A4
:104FA0009927CF92DF92EF92FF920F931F93CF93A7
:104FB000DF93CDB7DEB76A970FB6F894DEBF0FBEAA
:104FC000CDBFC82ED62E8A010E941B1461E081E05D
:104FD0000E94530F80E00E946D26882309F473C05D
:104FE000CC2039F00E94062522E0E22E31E1F32E9A
:104FF00006C00E94DD1D83E0E82E92E1F92E4D2DC2
:105000006F2DCE0147960E94470C4D2D6E2DCE017F
:1050100043960E94470C66E074E0CE0101960E9420
:10502000A82E8FEF8A8727E930E03A832983FC8610
:10503000ED86DE8620E030E83A8B298B2F89388D8B
:10504000388B2F8761E0CE0101960E94502C87FD9E
:1050500022C08111F3CF6F8578898F2D0E94992707
:10506000CE0101960E94642B882379F00E94550D91
:105070001A8F098F2F853889388F2F8B1E8B0D8BB8
:105080008E2D0E94070C9C8B8B8B60E070E08F2D27
:105090000E949927D3CFCC2019F00E941D2502C071
:1050A0000E94F61DAE01495E5F4F6D2D8F2D0E944F
:1050B000640CAE014D5E5F4F6D2D8E2D0E94640C11
:1050C00081E00E94D5120E946C0D6A960FB6F8948A
:1050D000DEBF0FBECDBFDF91CF911F910F91FF902B
:1050E000EF90DF90CF900895EF92FF920F931F9370
:1050F000CF93DF93CDB7DEB729970FB6F894DEBF15
:105100000FBECDBF8C017B01BC01CE0101960E9478
:10511000A82E60E0CE0101960E94502C682F87FDDA
:1051200010C0E82FEE0FFF0BEE0DFF1D45915491BF
:1051300081E094E00A31190709F080E00E94D1274C
:10514000E8CF29960FB6F894DEBF0FBECDBFDF9132
:10515000CF911F910F91FF90EF90089510927904D5
:10516000109278040E948F3C81E090E0909392032B
:105170008093910361E080E00E94530F20E043E9B7
:1051800052E0BA018CEC92E00E94E2260E946C0D83
:105190000C947F3C109279041092780461E080E0D6
:1051A0000E94530F20E042E952E0BA0184E992E004
:1051B0000E94E2260C946C0DCF93DF93CDB7DEB73F
:1051C0002A970FB6F894DEBF0FBECDBF60E274E041
:1051D000CE0101960E94A82E60E0CE0101960E94A9
:1051E000502C87FD2EC010929203109291038A8753
:1051F0000E947F3C8A858230A9F04CF4882379F0A4
:105200008130E1F460E174E08AE194E00FC0843021
:1052100099F07CF0853091F40E947E270FC00E94A7
:1052200062270CC06CE074E084E194E00E94742872
:1052300005C00E94AE2802C00E94CA280E948F3C6E
:10524000CBCF10925B032A960FB6F894DEBF0FBE49
:10525000CDBFDF91CF910895CF93DF93EC01842FE1
:105260000E948A0D9E0136952795A9014C0F5D1F5E
:105270008417950730F4C21BD30B21E0C817D90758
:1052800008F020E0822FDF91CF91089568EE73E05F
:1052900080E00E94FA0D24E2289FB001299F700D42
:1052A000112440E08CEC9DE80C942C291F93CF93A3
:1052B000DF93182F68EE73E00E94FA0D9C01C091F5
:1052C0006903D0916A03DE010E943A3E28EE33E082
:1052D00040E050E00E948B3ECA01B901412FCE014F
:1052E000DF91CF911F910C942C29CF93DF931F92C4
:1052F000CDB7DEB7482F64E670E049830E94FA0D0F
:105300002AE0289FB001299F700D1124498188EE61
:1053100093E00F90DF91CF910C942C29CF930E94B2
:105320006A13C82F882341F10E944629C82F811192
:1053300005C08EE39AE00E944E311EC081E10E94BA
:105340005629882329F082E00E945629811106C03F
:1053500085E39AE00E944E31C0E00EC082E10E94D7
:105360007529882331F083E00E947529C82F8111A7
:1053700003C089E29AE0EECF8C2FCF9108950C9470
:105380008E291F93CF93DF93EC01162F84E10E94A7
:10539000750E81110EC064E57AE088E69AE00E94FD
:1053A00051308B85823171F5DF91CF911F910C9433
:1053B000F61D612FCE010E94A32ECE0109960E94F8
:1053C0004A36882311F0298501C02FEF332727FDA6
:1053D0003095812F90E028173907A1F0111104C0F2
:1053E00069E08E859F8509C00E94D40C67E00E9409
:1053F000DF3A8C850E94070C66E0DF91CF911F9108
:105400000C94483ADF91CF911F910895CF93DF9389
:10541000DC011B96CD91DC911C9790E080E0FE01B1
:105420002EE0829FE00DF11D1124329625913491DA
:105430002115310599F01D964D915C911E9737FF0E
:1054400003C057FF09C0305824233523232B21F0F4
:10545000662329F061509F5F8F5FE1CF892FDF9135
:10546000CF910895EF92FF920F931F93CF93DF9305
:10547000EC01F62E0E94062A9EE0899F80011124ED
:10548000EB85FC85E00FF11F859194910E94D03847
:10549000E82ECE0109960E944A36882311F029850C
:1054A00001C02FEF332727FD30956F2D70E02617B1
:1054B0003707E1F06FE06E19EB85FC85E00FF11F17
:1054C0003596F490FF2029F0862F8F190E940C3911
:1054D0006F2D8B859C85800F911F0496DF91CF9156
:1054E0001F910F91FF90EF900C94CC35DF91CF91ED
:1054F0001F910F91FF90EF900895CF93DF93EC01F0
:105500000E94062A2B853C859EE0899F200D311D37
:105510001124F901369645915491CA01F901349646
:1055200024912150223030F4FA0145915591659132
:105530007491CB01DF91CF910895CF93DF93EC016C
:105540000E94062AEB85FC859EE0899FE00DF11DF7
:105550001124329685919491DF91CF910895FF9215
:105560000F931F93CF93DF93EC018B016A818B81A3
:10557000680FCE010E94062AF82E1E870D876FEF56
:10558000CE010E94062A8C8310E08C81181760F4EB
:10559000612FCE010E94062A8F1104C08A81181B38
:1055A0001B8302C01F5FF1CFDF91CF911F910F913D
:1055B000FF900895CF92DF92EF92FF920F931F9387
:1055C000CF93DF93CDB7DEB72C970FB6F894DEBF3D
:1055D0000FBECDBF7C01D62EC42E0E947D2A8C0129
:1055E0006D2DC7010E94062AD7011B966D917C91F3
:1055F0001C97BEE08B9F600D711D1124685F7F4F6B
:1056000046E050E0CE0107960E94D23E86E0FE01C1
:105610003796DE01119601900D928A95E1F7698126
:105620007A81EB81FC812D813E8142E0C41619F024
:1056300081E090E002C08FEF9FEF6F3FAFE77A0706
:1056400031F4AF01BC01C8010E94A01524C06E3F17
:10565000BFE77B0711F409951EC0869FA001879FB5
:10566000500D969F500D1124D8018D919C9111974A
:10567000480F591F4E175F071CF04D935C9303C0F2
:10568000D801ED93FC93F8018081918128173907A7
:1056900014F431832083D7011F96ED91FC9150972C
:1056A000309719F0B801C70109952C960FB6F894F8
:1056B000DEBF0FBECDBFDF91CF911F910F91FF9045
:1056C000EF90DF90CF900895EF92FF920F931F938A
:1056D000CF93DF93EC018B819A81890F89871A869A
:1056E00081E08D8382E0E82EFF24F3948E01075F32
:1056F0001F4F0E94DC37482F823011F0843089F42C
:10570000E881F9816B818A81680F0280F381E02D45
:10571000CE0109958B819A81890F8987EA86FD825E
:1057200004C0813089F0883079F0C8010E94553674
:105730008111FD828D81882319F0CE010E94EB2B0F
:105740008A858F5F8A87D5CF8FEF898781E08E83A7
:105750008D83483009F080E0DF91CF911F910F9148
:10576000FF90EF9008950895FC0187EA90E09183FF
:10577000808312821382648381E085838683089507
:10578000FC018481823010F022E001C0282F928138
:10579000492F50E030E021503109421753071CF4E3
:1057A0009F5F928308952381420F511D90E00197DE
:1057B0004817590714F42F5F23830895FC01828151
:1057C000882319F08150828308958381882311F002
:1057D000815083830895FF920F931F93CF93DF939C
:1057E000EC0100E010E0F02E602F80E00E947538A0
:1057F0008A81081302C08EE301C080E20E948738CC
:105800006B819801260F311D8C8190E02817390794
:1058100044F4E881F9816F0D0190F081E02DCE0113
:1058200009950E9413390F5F1F4F02301105D9F6F9
:105830001D82DF91CF911F910F91FF9008950F93DB
:105840001F93CF93DF93EC010E94DC37182F0E9447
:10585000443C882321F081E08D838FE71CC00B81BD
:105860008A81080F123031F0143039F4CE010E94D1
:10587000C02B03C0CE010E94DE2B8B819A81890F41
:10588000081711F081E08D838D81882319F0CE01F6
:105890000E94EB2B812FDF91CF911F910F910895E3
:1058A000EF92FF921F93CF93DF931F92CDB7DEB796
:1058B0007C0181E0F701858311E0C70169830E94C3
:1058C0001F2C6981811102C0F7011682F7019681B0
:1058D000911108C0883031F481E086838381928100
:1058E000890F09C0662311F0F7011583813029F76C
:1058F0009111E3CF8FEF0F90DF91CF911F91FF9028
:10590000EF900895CF93DF93CDB7DEB729970FB609
:10591000F894DEBF0FBECDBF6EE274E0CE010196FB
:105920000E94A82E60E0CE0101960E94502C81308A
:1059300039F0823041F0811109C00E94352EF2CF3A
:105940000E94DC28EFCF0E947513ECCF87FFEACFCF
:1059500029960FB6F894DEBF0FBECDBFDF91CF9171
:1059600008950F931F93CF93DF93EC010E94C1160C
:1059700001E010E09C0141E050E0BE0181E893E0CD
:105980000E946115DF91CF911F910F910895CF93E0
:10599000DF9380917D0390917E03892B21F10E94FA
:1059A0005416C1E0D0E002C0CC0FDD1F8A95E2F7AB
:1059B0008091910390919203892B11F4D05C07C0E0
:1059C0000E945416882311F0DF5B01C0DB5B0E944C
:1059D000541681110AC080919B0390919C03892BDE
:1059E00021F0DE5F02C0C0E0D0E4CE01DF91CF91B4
:1059F0000895CF93DF93EC0183E06D37780719F4B6
:105A00000E94E01713C083E06F37780719F40E94F3
:105A1000BB170CC083E06338780719F40E949B170A
:105A200005C06558734011F40E94AB170E94D5164B
:105A30000E94C72CBC01CE01DF91CF910C94AF2AFC
:105A40001F93CF93DF93CDB7DEB7E9970FB6F894E6
:105A5000DEBF0FBECDBF60E070E0CE0189960E9430
:105A6000A82E8FEF8AAB8FE990E09AA789A786E3EB
:105A700094E09DAB8CAB8FEF9FE79FAB8EAB89EF34
:105A80009CE299AF88AF18E20E94C72CBC01CE01FE
:105A900089960E94AF2A60E0CE0189960E94502C20
:105AA00087FD1FC0EDE7F3E0DE011196812F019025
:105AB0000D928A95E1F7CE0189960E94642B81119F
:105AC0000AC0FE013196ADE7B3E0812F01900D923F
:105AD0008A95E1F7D9CF83E00E946F360E94D516F0
