:100000000C9436050C945E050C945E050C945E050C
:100010000C94B3080C945E050C945E050C945E057C
:100020000C945E050C94E3080C945E050C945E053C
:100030000C945E050C947D090C94B2090C945E0539
:100040000C948F080C945E050C945E050C945E0570
:100050000C945E05111318131E1321131B13271381
:10006000241331132E134F3451345334573457342F
:1000700055345B345934000000003A65C52E000049
:1000800000003A65C52EF80132007C2BE80380049D
:100090003200001F2C0100000000000000000000E2
:1000A0000000000000000000000080A6CA30C24C22
:1000B0002A010C4958020000000043BFA80E0000AE
:1000C000000071D8681000000000AFD9681000006F
:1000D00000004067D007000000000FD66810000045
:1000E0000000C8D86810000000008AD86810F80125
:1000F00032007B2BE8039A0132007A0B2C010006B8
:100100000800FF01010A01060900FF0302000206C0
:100110000A00FF00000A06060E00FF0302000506A3
:100120000D00FF02030004060C00FF03020003069B
:100130000B00FF04060007060700FF030200420150
:1001400000006F7074696F6E7300460003008813BF
:100150007017010032003200102700000000030079
:100160000000000080250000004B00000096000009
:1001700000E1000000C201000100010001000100D7
:10018000010001000100010001000100B0040807A6
:10019000520300005203B0040807E8030000E8031C
:1001A000D0079209D60600006C07E40C100ED007A9
:1001B000E40CB80B100E0410C409A60EAC0D740E9E
:1001C0006810B80B0A0F890C740ECC10B80B0A0F0C
:1001D000890C740EFE10B80B0A0F890C40066C07D0
:1001E0001405400678053B09360931092C09270911
:1001F00022091D09180913090E09090947188C1845
:100200007619E01ADB1A101BB51B471CC11B501CCA
:100210004D1C571C7E1C851CA91C0E1FDE1EE41ED7
:100220005121DD1953210001F406EC0600000307FB
:10023000FC06000013070A07000024071C07000043
:1002400064002C016400E80332072C0700003F071C
:100250003807000006090A0B0C0D0E061F2021228C
:100260002324131275076F07690763075D07570794
:1002700051074B0745070000AB07A20796078A07FF
:100280007B07000058094E09400900008008FF7FE5
:100290000200C003010000000A007D080F000300F7
:1002A0009231FE7FB02A00006B080F004500680302
:1002B000FF7F6400F47E67080F0040006C03FF7F3F
:1002C000010070175C080F0040006E03FF7F010003
:1002D000D0071A080F004C007803FF7F0000E803E6
:1002E00079080E80410070030A000000881370082E
:1002F0000180410070030A0040063A0775080F802C
:10030000410072030A000000881360080E8040005C
:100310007403FF7F0100701755080F8040007603BB
:10032000FF7F0100D0074B080C80480084030100C8
:100330000300C800420801004D00840301000000D2
:1003400001003D082000480086030100ECFF00008A
:1003500034080F004D007A030100000001002C0852
:1003600040004A0688030A000A008403200810009F
:1003700044037C0364005802AC2610080F004700B9
:10038000820301000100FA0004080F0049008A03FB
:10039000010000000500FA070F804B0080030100F8
:1003A00001006300EF070F804D007E030100000095
:1003B000010000000000000000000000000000003C
:1003C000E6016603CC09BD09B509AB099F09970988
:1003D00088097D096E096109000304070809000303
:1003E00007080900010203040708090001020304C9
:1003F0000506070809090309FF7F4D0054030100A2
:1004000000000100FB08FF7F4000560301000100CF
:10041000F401F308FF7F4000580301000100F401DC
:10042000E708FF7F41035A03E803581B3075DC08D7
:10043000FF7F4D005C03010000000100D608FF7F34
:1004400002008E04010000000400CE08020001003A
:100450008A04010000000400C708FF7F0200820434
:10046000010000000100C108FF7F00000000000043
:10047000000000000000000000000000000000007C
:1004800000008604640392088908640160039204F2
:100490005E03B808B108AB08A208990820202D2DEA
:1004A000202000636865616C692D6368617267650F
:1004B000720A76302E39395F32303135303632318A
:1004C0000063616C69626174696F6E206572726F3E
:1004D0007200706C656173652063616C6962726142
:1004E000746500656570726F6D2072657365740A5E
:1004F0006572726F723A2000726573657474696E0A
:100500006720656570726F6D0020202020202020FC
:10051000202020202079657300656570726F6D2042
:1005200072657365743A00524556455253452050E2
:100530004F4C4152495459006572726F723A2020F3
:10054000202000636F6D706C6574653A2000DB31AC
:1005500000800000A72FFFFF0480EB30FFFF048026
:10056000EB2FFFFF0480AB3000020880B7300002A1
:100570000880CB30000200805A2D00C000005E2DA4
:1005800000C00000622D00400480662D0040048001
:100590007230FFFF04803230FFFF00809030FFFF99
:1005A00000004A32800100804031FFFF000000005F
:1005B000FFFF0000250064656C746120543D20003D
:1005C0004E2F4100546578743D0064656C74612061
:1005D000563D20006D6178566F75743D002D0054B6
:1005E0006578743D00206C696D69743D0056696ED4
:1005F0007075743D00776972657320523D006261C9
:1006000074742E20523D006220004C696D69747331
:100610003A20006E6F2064542F7400EF070F004DD6
:10062000007E0301000000010079080E0041007007
:10063000030A000000881375080F00410072030AC6
:10064000000000881300000000000000000000000F
:1006500000000025200043684342426C4469464341
:100660005374534243594343000100010001000AFF
:10067000000A000B00640001000300080009000AE2
:10068000000B000C00010002000400060008000A34
:10069000000C00E803015E0AE803005C0A64000045
:1006A0005A0A640000570A640000550AE803015220
:1006B0000AE80301500A0100004E0AE803015C0A3F
:1006C000010000470A6400004A0A010000480A01CC
:1006D0000000480A0100000000010000450A14174C
:1006E00019181A0705061F2021222324566D696E4A
:1006F00075733A0056706C75733A200076616C75AC
:10070000653A0074656D703A2000706F696E7420F0
:10071000322E00706F696E7420312E00496F75742F
:100720003A20200076616C75653A20003330306DD8
:1007300041003130306D4100313030306D41003199
:1007400030306D4100566F75743A0056312D363A8F
:10075000005662363A20005662353A20005662341E
:100760003A20005662333A20005662323A20005650
:1007700062313A200056696E3A20006578706572E1
:10078000742044414E474552210074656D702065C8
:10079000787465726E00492064697363686172677A
:1007A0006500492063686172676500766F6C7461EB
:1007B00067650062616C616E636520706F727421A1
:1007C00000626174746572792100646973636F6E8D
:1007D0006E65637400636F6E6E6563740064542F9E
:1007E0006474002D64560056206C696D6974006154
:1007F00064617074206469733A00442F4320726509
:1008000073743A00442F43206379636C65733A0034
:1008100063617020434F66663A0074696D653A0003
:100820007C657874726E2054434F3A007C64542F78
:1008300064743A00657874726E20543A007C645691
:100840003A00656E61622064563A0062616C2E2047
:100850006572723A006D696E49643A0049643A0003
:100860006D696E49633A0049633A004361703A002A
:1008700056636F3A0056643A0056633A00563A009F
:10088000626174746572793A00616476616E636561
:10089000640073696D706C65006578742E20416426
:1008A00063006578742E2064656200646562756714
:1008B000006E6F726D616C0064697361626C656477
:1008C000007265736574006D656E75733A007C73B4
:1008D000706565643A00554152543A006164632082
:1008E0006E6F6973653A00696E707574206C6F770E
:1008F0003A20006D696E2049643A006D696E2049A6
:10090000633A00626565703A004E695A6E004C3475
:100910003335004C343330004C69706F004C696CD7
:100920006F004C6966650050622020004E694D489A
:10093000004E69436400556E6B6E004E6F6E65002D
:1009400072657365742064656661756C74006361BB
:100950006C6962726174650073657474696E677343
:100960000065646974206261747465727900636102
:1009700070616369747920636865636B00443E430A
:1009800020666F726D61740073746F726167652B9E
:1009900062616C616E630073746F7261676500669B
:1009A000617374206368617267650064697363686A
:1009B000617267650062616C616E636500636861A6
:1009C0007267652B62616C616E636500636861725A
:1009D0006765006578742E74656D702E6375746F2D
:1009E00066660074696D65206C696D697400636189
:1009F000706163697479206375746F666600696EEF
:100A0000707574205620746F206C6F7700485720E3
:100A10006661696C7572650062616C616E636572B6
:100A200020646973632E0062617474657279206456
:100A30006973632E006E6F6C696D697400206E6F50
:100A400000796573005500006D00432F6D0025008F
:100A5000F400416800430057680057005600410009
:100A6000F905E90AA411FA2B212F623111241FBEC6
:100A7000CFE5D8E0DEBFCDBF10E0A0E6B0E0EEEA03
:100A8000F8E702C005900D92A23CB107D9F714E037
:100A9000A2ECB0E001C01D92A93CB107E1F71AE059
:100AA000CCE6DAE004C02297FE010E94FA3BC03691
:100AB000D107C9F70E949F110C94553C0C9400007B
:100AC00086B380958170B19B02C090E001C092E036
:100AD000892BB29B02C090E001C094E0892BB39BAC
:100AE00002C090E001C098E0892B0895882339F076
:100AF000A69AA79AD59A889A8A9A8F9A0895A698BC
:100B0000A798D59888988A988F98089520E042E011
:100B100060E183EC90E00E942E390E9466090E94F9
:100B2000380788E799E60C9465068091C900882308
:100B300031F08091C2008F5F8093C20002C010929A
:100B4000C2008091C9008A3010F480E001C088E0C2
:100B50009091C900943108F084E09091C9009E31D1
:100B600008F082E09091C200982311F0C49A089591
:100B7000C49808958093C9000895811106C0939A7E
:100B80000E948E0680E00C9485069398089580FF5D
:100B900002C0AE9A01C0AE9881FF02C0AF9A01C0F8
:100BA000AF9882FF02C0DD9A01C0DD9883FF02C0CA
:100BB000909A01C0909884FF02C0929A01C09298C6
:100BC00085FF02C0979A08959798089580E00E9443
:100BD000C70580E00E94BD051092C90087B18F73E0
:100BE00087B98B9A8D9AD79ABC9A8C9A8D9A8E9A3D
:100BF000089583EC90E00C9483392FB7F89480919A
:100C0000CB009091CC00A091CD00B091CE002FBF31
:100C1000892F9A2FAB2FBB27A7FDBA9508952FB721
:100C2000F8941092D2001092D1008617970768F4BA
:100C300080E090E4A0E0B0E08093CB009093CC0003
:100C4000A093CD00B093CE0008C01092CB001092BC
:100C5000CC001092CD001092CE008091CB009091EC
:100C6000CC00A091CD00B091CE00BA2FA92F982F23
:100C700088278093CB009093CC00A093CD00B093B5
:100C8000CE0081E08093CA002FBF0895CF93DF93F9
:100C9000EC01C13080E6D80758F4C13080E4D807B1
:100CA00048F48EE00E9472099598BE018DE009C05B
:100CB000C0E0D0E68DE00E947209949ABE017054A3
:100CC0008EE0DF91CF910C945009893729E6920785
:100CD00010F088E799E6BC0180E00E94740D813C29
:100CE0002FEF920710F080EC9FEF2FB7F8949093BE
:100CF000D0008093CF002FBF08952FB7F894909322
:100D0000D2008093D1002FBF0895882329F080E07E
:100D10000E948E06DF980895DF9A0895CF93DF939F
:100D2000C82F882319F080E00E948506DFB7F89469
:100D30008DE00E94720994988EE00E947209959845
:100D40001092CA00DFBFC11104C0969ADF91CF9103
:100D50000895969880E00E94A30BEC0186E00E9423
:100D6000A30BBE01DF91CF910C940F060F931F933D
:100D70008091CA00882309F474C080E00E94AC0B03
:100D80002091CF003091D0008217930730F080E09F
:100D90000E948E061092CA0064C082E00E94AC0BD2
:100DA0004091D1005091D20060E070E00091CB0002
:100DB0001091CC002091CD003091CE00481B590BF2
:100DC00061097109E2E0440F551F661F771FEA951C
:100DD000D1F7040F151F261F371F0093CB00109368
:100DE000CC002093CD003093CE008091CB00909129
:100DF000CC00A091CD00B091CE00B7FF08C01092FA
:100E0000CB001092CC001092CD001092CE008091B9
:100E1000CB009091CC00A091CD00B091CE00019775
:100E2000A046B10560F080E090E0A0E6B0E08093DD
:100E3000CB009093CC00A093CD00B093CE008091D6
:100E4000CB009091CC00A091CD00B091CE00892F25
:100E50009A2FAB2FBB27A7FDBA951F910F910C942A
:100E600046061F910F910895BC018EE00C94500925
:100E7000DE98D698BD9ABE9ABF9A8EEA86B9369AFF
:100E8000089584B135B1E091DC002FB7F89490E07B
:100E9000932BF0E0DF01AA0FBB1FAB52BD4F1196A1
:100EA0009C938E933091D500332391F0EE0FFF1F6A
:100EB000EE0FFF1FE950FD4F408151816281738128
:100EC000480F591F611D711D4083518362837383D5
:100ED0002FBF0895CF930E94B1219093F402809385
:100EE000F3020E94441B9093F6028093F5028091D6
:100EF000D500882309F459C00E94B12140913303E1
:100F0000509134036091350370913603CAE09C011F
:100F1000C29FC001C39F900D1124480F591F611D2E
:100F2000711D4093330350933403609335037093E2
:100F300036030E94441B409137035091380360915F
:100F4000390370913A039C01C29FC001C39F900D69
:100F50001124480F591F611D711D40933703509391
:100F600038036093390370933A0380913B03909167
:100F70003C030197B9F48091FF0290910003A09186
:100F80000103B091020352E0B695A7959795879516
:100F90005A95D1F78093FF0290930003A093010329
:100FA000B0930203CF910C944D0ECF910895089504
:100FB00080915C0390915D03892BE9F04091D90009
:100FC0004423C9F081E090E00090D70002C0880F70
:100FD000991F0A94E2F720913B0330913C032F7054
:100FE0003FB7F8945BB39BB3982B9BBB240F2A9518
:100FF000F1F75BBB3FBF08958091D4008F5F8031D4
:1010000008F080E08093D4008091D6009091D700C2
:10101000A091D800B091D9008093DA009093DB00C2
:10102000A093DC00B093DD00E091D400EF5FE031ED
:1010300008F0E0E084E0E89FF0011124E250FF4F67
:1010400085919591A591B4918093D6009093D70006
:10105000A093D800B093D90080915E0390915F0374
:10106000892B39F08091D600873019F486E080937F
:10107000D6008091D40081110CC00E946A07809133
:101080003B0390913C0321E0892B09F420E020935D
:10109000D50008950E9441078091D30091E0980FF8
:1010A0009093D300873079F128F4882341F0813080
:1010B000A9F00895883049F1893061F1089580914F
:1010C000D60087FD05C088B38F71806C88BBD69A27
:1010D0008091DC00823011F50C94B6068091D60028
:1010E00087FD1CC04FB7F8943AB33F7B28B380917B
:1010F000D60050E28502C00111242F71282B28BB95
:101100003ABB4FBF08950C94D8078091D7008062F6
:1011100087B908951092D3000C94FC0708951F928C
:101120000F920FB60F9211242F933F934F935F931B
:101130006F937F938F939F93AF93BF93EF93FF939F
:101140000E944A08FF91EF91BF91AF919F918F91BB
:101150007F916F915F914F913F912F910F900FBEB3
:101160000F901F9018951F920F920FB60F92112497
:101170002F933F934F935F936F937F938F939F939F
:10118000AF93BF93EF93FF930E948D34FF91EF9144
:10119000BF91AF919F918F917F916F915F914F918F
:1011A0003F912F910F900FBE0F901F90189588E0E0
:1011B00085BD85B5846085BD14BC8CE783BD89B7CA
:1011C000806889BF08951F920F920FB60F92112465
:1011D0002F933F934F935F936F937F938F939F933F
:1011E000AF93BF93EF93FF932091E4003091E5001C
:1011F0008091E0009091E100820F931F9093E100B5
:101200008093E0002091E2003091E3008091DE00C5
:101210009091DF00820F931F9093DF008093DE0098
:101220002FB7F8948091E0009091E10035E0969519
:1012300087953A95E1F79BBD8ABD8091DE0090913C
:10124000DF0045E0969587954A95E1F799BD88BD01
:101250002FBF8091E0009091E1008F7199279093CA
:10126000E1008093E0008091DE009091DF008F71BB
:1012700099279093DF008093DE000E949505FF91EF
:10128000EF91BF91AF919F918F917F916F915F91FE
:101290004F913F912F910F900FBE0F901F90189577
:1012A0009FB7F8948E3039F47093E5006093E400B2
:1012B0008FB5806808C08D3039F47093E300609377
:1012C000E2008FB580628FBD9FBF089580E092E0FD
:1012D00097BD86BD82E08FBD89E18EBD89B78460F0
:1012E00089BF08958E3019F48FB58F7704C08D3083
:1012F00019F48FB58F7D8FBD08951F920F920FB691
:101300000F9211242F933F934F938F939F93EF93BB
:10131000FF935A991AC04CB18091FC019091FD0144
:10132000019699272091FE013091FF0182179307C2
:1013300069F0E091FC01F091FD01E450FF4F408322
:101340009093FD018093FC0101C08CB1FF91EF915E
:101350009F918F914F913F912F910F900FBE0F90C2
:101360001F9018951F920F920FB60F9211242F9372
:101370003F938F939F93EF93FF932091FC013091C4
:10138000FD018091FE019091FF012817390711F4AA
:10139000559812C0E091FE01F091FF01E450FF4F1B
:1013A00020818091FE019091FF01019699279093F1
:1013B000FF018093FE012CB9FF91EF919F918F91D6
:1013C0003F912F910F900FBE0F901F901895CF92C5
:1013D000DF92EF92FF92CF93DF93EC016A017B01E2
:1013E000411581EE580761057105F9F0E885F98529
:1013F00081E090E00C8802C0880F991F0A94E2F700
:10140000808360E079E08DE390E0A70196010E947F
:10141000B73B2150310941095109569547953795F8
:101420002795211580E1380798F0E885F985108225
:1014300060E874E88EE190E0A70196010E94B73B56
:1014400021503109410951095695479537952795FE
:10145000EC81FD813083EE81FF8120831D8AEA8546
:10146000FB85408181E090E09C01098802C0220F49
:10147000331F0A94E2F7422B4083EA85FB854081C3
:101480009C010A8802C0220F331F0A94E2F7422B04
:101490004083EA85FB8520810B8802C0880F991F55
:1014A0000A94E2F7809582238083DF91CF91FF90A9
:1014B000EF90DF90CF900895CF93DF93FC0182816E
:1014C0009381DC01B395EC01CE5FDE4F4D915C91D1
:1014D00011972881398142175307C1F7A285B38537
:1014E0004C9181E090E09C01018802C0220F331FE3
:1014F0000A94E2F7209524232C93A285B3854C917E
:101500009C01028802C0220F331F0A94E2F7209543
:1015100024232C93A285B3852C91038802C0880FC5
:10152000991F0A94E2F7809582238C9380819181A0
:10153000FC01EE5FFE4F20813181FC01F395318388
:101540002083DF91CF910895FC018589882329F0BC
:10155000A085B1858C9186FFFBCF158A0895CF9326
:10156000DF93FC0122813381D901B3958D919C9148
:10157000119701969927E901CE5FDE4F4881598185
:1015800084179507D9F30D90BC91A02DA20FB31F1E
:101590006C93A281B381B39511969C938E93A2858F
:1015A000B3852C9181E090E0038802C0880F991FD9
:1015B0000A94E2F7282B2C9381E0858B0084F18537
:1015C000E02D80818064808381E090E0DF91CF9185
:1015D00008958CEF90E09093E7008093E60090935D
:1015E000E9008093E80080E490E09093EB00809322
:1015F000EA0029E230E03093ED002093EC002BE28A
:1016000030E03093EF002093EE002AE230E0309398
:10161000F1002093F0009093F3008093F2008CE2AD
:1016200090E09093F5008093F40084E08093F600BE
:1016300083E08093F70087E08093F80085E0809353
:10164000F90081E08093FA000895CF93DF931F9211
:10165000CDB7DEB7E091C504F091C604309711F420
:10166000E9ECF4E0CE0101962EEB8E179F0710F007
:101670002193FBCF0F90DF91CF910895CF93DF930C
:1016800000D0CDB7DEB72091C5043091C604211536
:10169000310511F429EC34E0CE010196821B930B45
:1016A0000F900F90DF91CF910895CF93DF931F920A
:1016B000CDB7DEB72091C5043091C60421153105A0
:1016C00011F429EC34E0F901AE014F5F5F4FCF0117
:1016D000821B930B4E175F0728F060816E3B11F45D
:1016E0003196F5CF0F90DF91CF910895009741F09B
:1016F000EFE9FFE03197F1F700C000000197F6CF66
:1017000008958436910538F064E670E00E94A33BAA
:10171000CB010C94760B019728F025E32A95F1F77D
:101720000000F9CF08956AE070E00E94A33BCB016E
:101730000C94810BE82FF0E0EE0FFF1FED54FD4FEE
:10174000808191810895E82FF0E0EE0FFF1FE759A7
:10175000FD4F8081918108952FB7F894E82FF0E034
:10176000EE0FFF1FEB52FD4F808191812FBF089537
:1017700080913E03089580911D0290911E0208956C
:1017800080910B0290910C02089580910D0290912E
:101790000E020895E82FF0E0EE0FFF1FE15EFD4F0F
:1017A000808191810895262F613110F4423040F0FC
:1017B00021E030E0FC0133832283318320830895CC
:1017C00050E0BA01620F711D620F711D660F771F25
:1017D000660F771F645F7F4F44E050E00C94103C2D
:1017E000282FCA01213188F4623078F470E0620F4A
:1017F000711D620F711D660F771F660F771F645F83
:101800007F4F44E050E00C942E3C0895FF920F93DC
:101810001F93CF93DF9300D000D0CDB7DEB706E79C
:1018200010E0F12CF801459155916591749149832F
:101830005A836B837C83AE014F5F5F4F60E08F2DD7
:101840000E94F00BF8013496459155916591749181
:1018500049835A836B837C83AE014F5F5F4F61E0A6
:101860008F2D0E94F00BF394085F1F4F81E1F81257
:10187000D9CF81E00E942B120F900F900F900F9004
:10188000DF91CF911F910F91FF90089581E02091FA
:101890009302309194022331310509F080E00895DC
:1018A0008091910290919202089580918D02909181
:1018B0008E020895809197029091980208958091E8
:1018C000470290914802039750F080914D02909109
:1018D0004E02039720F083E090E00C94B81880E06B
:1018E00008952FB7F89480E090E0FC01EE0FFF1F01
:1018F000EE0FFF1FE950FD4F1082118212821382FA
:1019000001968131910589F784E690E090933C033C
:1019100080933B0310923D032FBF0895CF93CFB721
:10192000F89410921C0210921B021092170210924F
:1019300018021092190210921A02109213021092B9
:101940001402109215021092160210920F021092B9
:10195000100210921102109212020E94B53490935C
:101960000A0280930902CFBFCF9108950E948E0C86
:1019700010920E0210920D0210920C0210920B02A5
:101980000895EFE1F2E01192119282E0E936F80752
:10199000D1F70895CF93CFB7F89481E090E090937A
:1019A0003C0380933B0381E080933D030E94C10C84
:1019B000CFBFCF910895CF93DF930E94CA0CC091FF
:1019C0001D02D0911E0280911D0290911E02C81727
:1019D000D90729F48AE090E00E94DB34F4CFDF914C
:1019E000CF91089510923E0380E00C94BD05CF93F3
:1019F000DF9381E00E94AC0BEC0180E00E94AC0B15
:101A00008C179D0718F4C81BD90B02C0C0E0D0E0AA
:101A100081E0C93ED34008F480E0DF91CF91089582
:101A20008F929F92AF92BF92CF92DF92EF92FF92EE
:101A3000CF93DF93CDB7DEB728970FB6F894DEBF0C
:101A40000FBECDBFF82E5B0161157105D1F140E0ED
:101A5000682FCE0105960E94D30B41E06F2DCE0179
:101A600001960E94D30B2B813C8140E050E0CF8057
:101A7000D884E12CF12C2C193D094E095F09B501E0
:101A800080E090E08D809E80A12CB12C68197909AE
:101A90008A099B090E94873B29813A8140E050E0F6
:101AA000281939094A095B090E94D93B2C0D3D1DB3
:101AB0004E1D5F1D57FF03C020E030E0A901C901A2
:101AC00002C080E090E028960FB6F894DEBF0FBE0B
:101AD000CDBFDF91CF91FF90EF90DF90CF90BF907F
:101AE000AF909F908F9008958F929F92AF92BF92E8
:101AF000CF92DF92EF92FF92CF93DF93CDB7DEB715
:101B000028970FB6F894DEBF0FBECDBFF82E5B014D
:101B100061157105D1F140E0682FCE0105960E9454
:101B2000D30B41E06F2DCE0101960E94D30B29818A
:101B30003A8140E050E0CD80DE80E12CF12C2C1980
:101B40003D094E095F09B50180E090E08F809884DF
:101B5000A12CB12C681979098A099B090E94873B3D
:101B60002B813C8140E050E0281939094A095B0982
:101B70000E94D93B2C0D3D1D4E1D5F1D57FF03C01C
:101B800020E030E0A901C90102C080E090E0289681
:101B90000FB6F894DEBF0FBECDBFDF91CF91FF909F
:101BA000EF90DF90CF90BF90AF909F908F9008956F
:101BB0008250893130F4E82FF0E0EF58FF4F8081F8
:101BC000089581E00895CF93DF93833149F481E054
:101BD000209193023091940223313105C1F41AC04F
:101BE000E82FF0E0EE0FFF1FE759FD4FC081D181D4
:101BF0000E94D80D882319F0813029F00AC081E0B5
:101C0000E39740F404C081E0C935D24018F480E085
:101C100001C081E0DF91CF910895CF93C0E08FE1C3
:101C20008C0F0E94E30D882329F0CF5FC630B9F7EF
:101C300086E001C08C2FCF9108951F93CF93DF933F
:101C40001F92CDB7DEB7182F69830E94D80DE12F00
:101C5000F0E0EE0FFF1FE759FD4F482F69818081AB
:101C600091810F90DF91CF911F910C949C372FB7EA
:101C7000F89460910502709106028091070290919C
:101C800008022FBF2DE730E040E050E00E94B73B54
:101C9000BB27A52F942F832F089580913B0390910C
:101CA0003C03892B49F080913B0390913C030197C1
:101CB00090933C0380933B03089590E0880F991F15
:101CC000FC01E759FD4F208131816217730718F439
:101CD000261B370B04C0AB01421B530B9A01FC01BE
:101CE000E15EFD4F2730310518F01182108206C0E9
:101CF000208131812F5F3F4F31832083FC01E759E1
:101D0000FD4F7183608308958FB7F8941092050298
:101D1000109206021092070210920802109201021D
:101D20001092020210920302109204028FBF0E94CE
:101D3000CA0C0E94B60C60E070E089E10E945D0E62
:101D400060E070E08BE10E945D0E60E070E08CE18D
:101D50000E945D0E60E070E08DE10C945D0E1092CB
:101D60001E0210921D020E94840EE9E6F2E011921A
:101D7000119282E0E33BF807D1F70895CF93DF9308
:101D80001F92CDB7DEB790913E0391110FC06983CA
:101D90000E94BD05698161110E94AF0E81E08093B0
:101DA0003E030F90DF91CF910C94DB0C0F90DF91ED
:101DB000CF9108950C94AF0E80913E03882309F4CF
:101DC0004FC04091970250919802809105029091E6
:101DD0000602A0910702B0910802840F951FA11D71
:101DE000B11D8093050290930602A0930702B09361
:101DF00008028091000291E0980F909300028835CC
:101E000078F120918D0230918E02DA010E94663BBA
:101E100024E630E040E050E00E94B73B80910102B0
:101E200090910202A0910302B0910402280F391F81
:101E30004A1F5B1F2093010230930202409303026A
:101E400050930402CA01B90120EA3CE840E050E0A6
:101E50000E94B73BB9018AE10E945D0E1092000218
:101E60000895CF92DF92EF92FF920F931F93CF933B
:101E7000DF931F92CDB7DEB7C0906902D0906A029F
:101E800080916B0290916C028C159D0518F4C81A14
:101E9000D90A02C0C12CD12CB60182E10E945D0E8C
:101EA0000BE712E09FE1F801619171918F01892F99
:101EB00099830E945D0E99819F5F9532A1F70E94E0
:101EC0000D0EF82E80E000E010E08F1569F0EFE1D4
:101ED000E80FF0E0EE0FFF1FE759FD4F2081318141
:101EE000020F131F8F5FF1CFB80183E10E945D0ED7
:101EF0000115110581F00C151D0520F49601201B1C
:101F0000310B03C098012C193D09293B3B4018F4C3
:101F1000680113E102C012E1F12CB60184E10E94D4
:101F20005D0E6F2D70E086E10E945D0E612F70E006
:101F300085E10E945D0E0E94370E7C010E94351BD8
:101F4000882329F000916F02109170020BC00E944B
:101F5000A221882329F000916D0210916E0202C027
:101F600000E010E0B80187E10E945D0EB70189E151
:101F70000E945D0E9801D6010E94663B20E137E287
:101F800040E050E00E94B73BB90188E10F90DF913B
:101F9000CF911F910F91FF90EF90DF90CF900C9415
:101FA0005D0E4F925F926F927F928F929F92AF924F
:101FB000BF92CF92DF92EF92FF92CF93DF93CDB794
:101FC000DEB728970FB6F894DEBF0FBECDBF0E94D4
:101FD000B5342091090230910A02821B930B8133A0
:101FE000954708F4A0C04FB7F89420911B02309198
:101FF0001C02A8EEB3E00E94663B6B017C01F694E4
:10200000E794D794C79440901702509018026090BC
:10201000190270901A02609113027091140280915B
:1020200015029091160280900F0290901002A090DD
:102030001102B09012024FBF6D837E838F83988709
:102040000E948E0C20910D0230910E022F5F3F4FA7
:1020500030930E0220930D026D817E818F819885D1
:10206000A70196010E94B73B29833A834B835C8387
:10207000C301B201A70196010E94B73BB90180E0FC
:102080000E94100D3C0169817A8181E00E94100D4F
:102090008615970518F4681A790A02C0612C712C0C
:1020A0004090A1025090A2026414750420F0B30184
:1020B0008CE10E945D0EB301641975098BE10E94E9
:1020C0005D0EC501B401A70196010E94B73BB9019D
:1020D00087E00E94100D20910B0230910C0290932A
:1020E0000C0280930B02BC01621B730B660F771FFF
:1020F0008DE10E945D0EB6018EE128960FB6F89430
:10210000DEBF0FBECDBFDF91CF91FF90EF90DF908C
:10211000CF90BF90AF909F908F907F906F905F9087
:102120004F900C945D0E28960FB6F894DEBF0FBE4C
:10213000CDBFDF91CF91FF90EF90DF90CF90BF9018
:10214000AF909F908F907F906F905F904F90089589
:10215000CF92DF92EF92FF920F931F93CF93DF9373
:102160002FB7F89480913B0390913C032FBF892BAC
:1021700009F0ADC080913D0381119FC080911D0287
:1021800090911E02019690931E0280931D02409131
:10219000F7025091F8026091F9027091FA02769577
:1021A0006795579547958091170290911802A091D5
:1021B0001902B0911A02840F951FA61FB71F8093B2
:1021C000170290931802A0931902B0931A0240913B
:1021D000FB025091FC026091FD027091FE02769527
:1021E0006795579547958091130290911402A0919D
:1021F0001502B0911602840F951FA61FB71F80937A
:10220000130290931402A0931502B093160240910A
:102210001303509114036091150370911603769582
:1022200067955795479580910F0290911002A09164
:102230001102B0911202840F951FA61FB71F809341
:102240000F0290931002A0931102B093120280919A
:102250001B0290911C02019690931C0280931B021A
:102260000E94D10F03EB12E0C0E0D0E0B8EECB2E1D
:10227000B3E0DB2EE12CF12CFE01EE0FFF1FEE0F81
:10228000FF1FE950FD4F6081718182819381A70119
:1022900096010E94B73BF801219331938F01B90158
:1022A0008C2F0E94100DBC018C2F0E945D0E219678
:1022B000C131D10509F70E94310FDF91CF911F91F4
:1022C0000F91FF90EF90DF90CF900C94710CDF9105
:1022D000CF911F910F91FF90EF90DF90CF900895D5
:1022E00080913E0381110C94A810089560E08FE363
:1022F00093E00E944F2A87FD0AC0811102C00C940E
:10230000812A992787FD909501970C94D22B0895E7
:102310000E94E60578940E9486050E94D7080E94D4
:1023200041220E94AE1B0E94DA0E0E94250B0E94E1
:1023300080130E94002E0E94192F0C94B7120E9445
:1023400088110E947611FDCF6EE371E08FE393E078
:102350000E949E2C8EE890E09093400380933F0370
:10236000E3E4F3E080818C5E80830895FC012481A6
:102370002451621710F40C94992C862F821B0C9414
:10238000F016FF920F931F93CF93DF93EC018B0115
:1023900041110E944F3C85E0F82EFA9459F0CE018D
:1023A0000E94283C8017910739F084E690E00E9453
:1023B000C734F3CF81E001C080E0DF91CF911F915E
:1023C0000F91FF900895EF92FF920F931F93CF9379
:1023D000DF937B018C01E80EF91ECFEFDFEF0E15C6
:1023E0001F05A9F0C8010E94203CC82728E0CE01A3
:1023F000969587953C2FEC0130FF04C031E0C32750
:1024000030EAD327215099F70F5F1F4FE8CFCE0155
:10241000DF91CF911F910F91FF90EF900895EF9270
:10242000FF920F931F93CF93DF931F92CDB7DEB729
:102430008C017B0149830E94E3114981BC01C801E1
:102440008E0D9F1D0F90DF91CF911F910F91FF90E7
:10245000EF900C94C111482F68E870E08CE090E098
:102460000C940F12482F68EF72E086E990E00C940C
:102470000F12482F6AE170E080E993E00C940F128C
:102480000F931F93CF93DF93D82F182F1170412FE5
:1024900063E678E680E090E00E94C111C82F412FEA
:1024A0006CE679E682E090E00E94C1118111C1E002
:1024B000412F61E070E184E090E00E94C111811140
:1024C000C1E0D1FB002700F9402F69E070E086E011
:1024D00090E00E94C1118111C260D2FB112710F956
:1024E000412F62E070E088E090E00E94C11181110C
:1024F000C460D3FBDD27D0F94D2F68E070E08AE09F
:1025000090E00E94C1118111C86001110E94060C67
:1025100080E00E942B128111C26011110E94DE1610
:1025200080E00E9432128111C460D1110E9499137F
:1025300080E00E9439128111C8608C2FDF91CF9109
:102540001F910F910895CF93C82F0E94D72EC0FDE1
:10255000C260C1FDC460C2FDC8600E94F12E8C2F14
:102560000E944012682F8C2FCF910C94F52E80E0A2
:102570000E944012882321F00E94A31280E0089557
:1025800081E0089580E00E94401281600C94A312C3
:10259000CF930E94F62D88E092E09093B803809349
:1025A000B703C1E0C093B6031092AF030E94F614C4
:1025B000823011F4C093AF030E94961A91E08130EB
:1025C00009F090E0892FCF91089561E081E00E94A9
:1025D000E91984E192E09093B8038093B7030895DA
:1025E00061E081E00E94E91980E292E09093B803F3
:1025F0008093B703089560E082E00E94E91982E0C9
:1026000092E09093B8038093B70308951092AF03BC
:1026100090E08930910570F5FC01E65DFF4F0C9468
:10262000F83B0E94F614811106C00E94F01220C0EF
:1026300081E08093AF030E94E5121AC08CEF91E015
:1026400008C00E94FB1214C081E08093AF038AE1AE
:1026500092E09093B8038093B7030AC063E081E0EF
:1026600005C060918A03660F615080E00C944917A1
:102670000C94961A80E00895CF93C82F0E94832768
:10268000882361F1C0934B031092490310924803D1
:1026900083E080934A030E94C43961E081E00E9494
:1026A000BE0E0E94C812882391F081E080934A03F5
:1026B0000E948A1D0E94F62D1092B60384E00E94AB
:1026C000933380914B030E9406130E94CA1D0E94FF
:1026D000F20C0E94D439CF910C94FF2DCF91089524
:1026E000DC015496ED91FC915597EE0FFF1FEE0F14
:1026F000FF1FEC59FE4F6591759185919491089556
:102700004AE150E060E973E08CE493E00C94103C03
:102710004AE150E060E973E08CE493E00E942E3CD3
:1027200081E00C9439124AE150E06AE471E00C94C3
:10273000FE3B8CE493E00E9493130C94881308955D
:10274000FC010994FC01859194910C94A0130097CD
:1027500061F09C0180E0F901459154912E5F3F4F5B
:10276000452B11F08F5FF7CF089580E00895282F53
:1027700081E090E03AE0215038F0AC01349FC00194
:10278000359F900D1124F7CF089597FD02C081E089
:1027900008958FEF0895CF92DF92EF92FF92CF933B
:1027A00097FF08C090958095709561957F4F8F4FEA
:1027B0009F4F07C0611571058105910511F0C0E0BB
:1027C00001C0C1E02AE0C22ED12CE12CF12C611510
:1027D00071058105910541F0CF5FA70196010E9427
:1027E000D93BCA01B901F3CF8C2FCF91FF90EF9065
:1027F000DF90CF900895BC0180E090E00C94CB1363
:10280000CF92DF92EF92FF920F931F93CF93DF93BC
:10281000EC017B016A01E881F981CF01B8010E94D6
:10282000A33B009731F01E141F049CF4081B190BE6
:1028300003C01E141F0474F4C901801B910BE81718
:10284000F90718F40E0F1F1F01C0890119830883AF
:102850000DC08C01C8018C0D9D1D8E179F0718F4AB
:10286000E01BF10B01C0F601F983E883DF91CF9102
:102870001F910F91FF90EF90DF90CF900895AF924E
:10288000BF92CF92DF92EF92FF920F931F93CF935D
:10289000DF93EC017B016A0159016881798180E055
:1028A00090E00E94CB13823020F082500E94B71338
:1028B00002C081E090E08C019501A601B701CE0134
:1028C0000E940014DF91CF911F910F91FF90EF9024
:1028D000DF90CF90BF90AF9008952FEF3FEF40E093
:1028E00050E00C943F140E9420358111FCCF0E94CF
:1028F00020358823E1F30895CF93CAE00E94F43491
:10290000811108C084E690E00E94DB34C150B1F729
:1029100080E001C081E0CF9108952091660330915D
:10292000670395E0929FF001939FF00D1124E80F4B
:10293000F11DEE0FFF1FE858FE4F85919491089509
:102940001F93CF93DF93182FC0916A03D0916B032D
:102950000E948D149C01123061F480916603909165
:102960006703039731F4C730D10518F0219720EBA6
:1029700034E02C9FC0012D9F900D3C9F900D1124A1
:10298000DF91CF911F9108951F93CF93DF93182F5D
:10299000C0916A03D0916B030E948D149C0183E067
:1029A00080938C03113029F42091700330917103CE
:1029B00006C0123031F420917203309173031093EA
:1029C0008C038091660390916703019721F4C901FC
:1029D0008C0F9D1F07C02C9FC0012D9F900D3C9F09
:1029E000900D1124DF91CF911F910895809166037E
:1029F000909167038A30910579F09C012550310947
:102A00002530310558F09C012250310981E02230F7
:102A1000310528F480E0089583E0089582E0089568
:102A2000A0916803B09169032091820330918303E0
:102A30000E94663B24E630E040E050E00E94B73B55
:102A4000293E8DEF38074105510520F028EE3DEF76
:102A500040E050E0C901089520918603309187033A
:102A600080916A0390916B03AC01249FC001259F64
:102A7000900D349F900D1124089582E00E94A014BF
:102A8000BC0180E49FE10E947217813727E1920721
:102A900010F080E797E1089582E00E94A014BC0145
:102AA00088EE93E00E947217813D27E0920710F0B4
:102AB00080ED97E0089581E00E948D14BC0188E7C5
:102AC00099E60E94A33BCB01089580916803909101
:102AD00069038436910530F484E690E090936903AD
:102AE000809368038091680390916903893E9D4FAC
:102AF00030F088EE9DEF9093690380936803809196
:102B0000780390917903893E934030F088EE93E00A
:102B100090937903809378030E945B1520916A0358
:102B200030916B038217930720F490936B0380938B
:102B30006A0380916A0390916B03892B31F481E0E1
:102B400090E090936B0380936A030E943D1520915F
:102B50006C0330916D038217930720F490936D03FB
:102B600080936C0380916C0390916D0320917403AA
:102B7000309175038217930720F490937503809327
:102B800074030E944C1520916E0330916F038217DD
:102B9000930720F490936F0380936E0320916E034C
:102BA00030916F038091760390917703281739074E
:102BB00020F430937703209376038091560390910D
:102BC000570340916C0350916D034817590720F447
:102BD00090936D0380936C0340917403509175033F
:102BE0004817590720F490937503809374038091DC
:102BF0005803909159032817390720F490936F03D5
:102C000080936E032091760330917703281739075C
:102C100020F49093770380937603089596E2899F3A
:102C2000B00111246A567F4F46E250E086E693E0F9
:102C30000E94103C0C94651596E2899FB001112406
:102C40006A567F4F46E250E086E693E00E942E3CB3
:102C500081E00C9432120E94651580916C03909172
:102C60006D0324E0969587952A95E1F79093750377
:102C70008093740308950E94651580916E0390916E
:102C80006F0334E0969587953A95E1F79093770333
:102C90008093760308950E94651580916803909152
:102CA00069039695879590936D0380936C032091AB
:102CB0006603309167032430310531F4969587958A
:102CC00090936D0380936C0380916C0390916D03DE
:102CD00090936F0380936E030E942B160C943B1607
:102CE000CF93DF9381E00E948D14909371038093C2
:102CF000700382E00E948D1490937303809372039B
:102D0000C0916603D0916703209761F580ED97E04D
:102D1000909369038093680383E090E090936B0342
:102D200080936A0388EE93E090937903809378030D
:102D300010927B0310927A0380E797E190937D03D2
:102D400080937C0310927F0310927E038EE190E0CB
:102D5000909381038093800388E790E090938303AE
:102D6000809382030E94F61481111EC081E090E0DE
:102D70009093850380938403239719F48BEF9FEF3F
:102D800002C081EF9FEF909387038093860384E6D0
:102D900090E0909389038093880382E090E0909381
:102DA0008B0380938A0306C088E090E090938503AC
:102DB00080938403DF91CF910C944B16CF931092A4
:102DC0006703109266030E947016C0E08C2F0E9469
:102DD0001C16CF5FC431D1F781E0CF910C94321231
:102DE000CF93C82F0E940E168C2F90E001960E9460
:102DF000F6358AE30E94CD35809166039091670392
:102E0000892BF1F00E94D5310E94563680916603DD
:102E100090916703019781F0809168039091690315
:102E20000E94F6358FE20E94CD3580916A03909121
:102E30006B03CF910C94F63589E0CF910C949231CD
:102E4000CF910895BC018CE693E00E946D140C9420
:102E50006515BC018EE693E00E946D140C94651517
:102E60002FEF3FEF41E050E0BC0188E793E00E9484
:102E70003F140C94651580918003909181030E940A
:102E8000721C8EE092E09093B8038093B7030C9489
:102E9000961ACF93C62F91E09093B60380938D033B
:102EA00080918D038C1302C01092B60380FF02C084
:102EB00080E001C083E00E940613813089F4909184
:102EC000B603992369F080918D038F5F80938D0302
:102ED0000E946D1D0E94840E0E943B17813001F3F9
:102EE000CF910895AB019C01A8EEB3E00E94663B30
:102EF0009A0140E050E00E94B73BA8EEB3E00E9488
:102F00007C3B24E630E040E050E00E94B73B2115D6
:102F1000310581E04807510520F02FEF3FEF40E0F9
:102F200050E0C90108958091AC03811113C00E9443
:102F3000B80B882381F00E94BB0B20918E03309147
:102F40008F03821B930B9C0181E02330310518F025
:102F500080E0089581E00895815E0C94A30B0F93A7
:102F60001F93CF93DF9310E0CFEFDFEF00E080916E
:102F7000AE03181760F4812F0E94AC178C179D07C1
:102F800010F0CE0101C0012F1F5FEC01F0CF802FA8
:102F9000DF91CF911F910F910895CF93DF9390917F
:102FA000AC03911104C0DF91CF910C94AC179091B8
:102FB0009203C82FD0E0992391F00E94AC17CC0F58
:102FC000DD1FFE01ED56FC4FC156DC4F20813181E3
:102FD00048815981241B350B280F391F07C0FE017A
:102FE000EE0FFF1FED56FC4F20813181C901DF91AB
:102FF000CF910895EF92FF920F931F93CF93DF939A
:10300000C0E0D0E0E12CF12C0FEF1FEF8091AE0378
:1030100090E0C817D9076CF48C2F0E94CD17E816E2
:10302000F90608F47C018017910708F48C012196B9
:10303000EDCFE01AF10A81E02091840330918503FD
:103040002E153F0508F080E0DF91CF911F910F9181
:10305000FF90EF900895CF93C82F8091AC03882301
:1030600041F0C11106C00E94BB0B90938F03809367
:103070008E03C093AC030E94C10C8091AB038111FD
:1030800004C08C2FCF910C94C705CF910895EF9277
:10309000FF920F931F93CF93DF9381E00E947605F9
:1030A00086E10E94A30B8093AE030FE913E033E99E
:1030B000E32E33E0F32EC0E0D0E08091AE0390E049
:1030C000C817D9076CF48C2F0E94AC17F8018193B4
:1030D00091938F01F701819391937F012196EDCF19
:1030E0001092AC031092AB0380E00E942B18109258
:1030F0008F0310928E038FEF8093AD03DF91CF91FA
:103100001F910F91FF90EF90089580E00E942B187F
:1031100081E08093AB0308950E94851880E00C94B1
:103120007605FF920F931F93CF93DF938091AD03AA
:1031300087FD17C00E94CD17EC0110E0FF24F39427
:1031400000E08091AE03181750F4812F0E94CD1734
:10315000C817D90708F40F29FF0C1F5FF2CF802F83
:1031600001C080E0DF91CF911F910F91FF900895F2
:103170001F93CF93DF93EC0110E08091AE031817FB
:1031800048F48FE1810F0E94CA0B8C179D0720F035
:103190001F5FF3CF81E001C080E0DF91CF911F91ED
:1031A00008959F92AF92BF92CF92DF92EF92FF92DB
:1031B0000F931F93CF93DF9386E090E00E94B8189F
:1031C000882309F462C00E945F0C882309F45DC063
:1031D0008091AD0387FF04C00E94AF178093AD03B9
:1031E0008091AD030E94AC176C01A0907203B09067
:1031F000730343E9E42E43E0F42E0FE913E0C0E04B
:10320000D0E0992493948091AE0390E0C817D90739
:10321000B4F48C2F0E94AC178A159B0570F0C81669
:10322000D90608F4912CF701819391937F01F8015D
:10323000819391938F012196E6CF992493941092D4
:1032400092030E94BD349093910380939003992040
:1032500069F0DF91CF911F910F91FF90EF90DF9078
:10326000CF90BF90AF909F900C9485180E949118BA
:10327000DF91CF911F910F91FF90EF90DF90CF9052
:10328000BF90AF909F900C942B18DF91CF911F911E
:103290000F91FF90EF90DF90CF90BF90AF909F90F5
:1032A0000895CF9380919203811115C081E080939E
:1032B0009203C0E08091AE03C81768F48C2F0E947F
:1032C000AC17EC2FF0E0EE0FFF1FE156FC4F91839F
:1032D0008083CF5FEFCFCF9108950E94BD342091BE
:1032E000900330919103821B930B08958091AC035E
:1032F000811103C00E94D11809C00E9451190E9477
:103300006D19409718F080E00E942B180E949317C7
:10331000882311F082E008958091AB038823D1F3D4
:1033200081E008951F93CF93DF93EC0110E080912B
:10333000AE03181740F4812F0E94CD178C179D07FC
:1033400020F41F5FF4CF80E001C081E0DF91CF91D6
:103350001F9108951F93CF93DF93EC0110E08091AC
:10336000AE03181740F4812F0E94CD17C817D90754
:1033700020F41F5FF4CF80E001C081E0DF91CF91A6
:103380001F9108956091AE03662329F070E00E94BA
:10339000A33BCB01089580E090E008950E941022A5
:1033A00061E081E00E94E91981E00E947A1F80912A
:1033B000B0039091B1030C94DB2181E00C942622A0
:1033C0000E945F0C882321F00E94B6210C941520E6
:1033D0000895CF93DF931F92CDB7DEB7882341F0D6
:1033E00069830E94C4149093B5038093B4036981E8
:1033F000662369F080916C0390916D039093B30301
:103400008093B20380917403909175030CC08091F6
:103410006E0390916F039093B3038093B2038091F6
:103420007603909177039093B1038093B0030F904C
:10343000DF91CF9108958091B7039091B8030C94D8
:10344000A2138091B7039091B80302960C94A21333
:103450000E94211A0E94CA1D0C94C935CF93DF9394
:103460000E94BD34EC010E94BD348C1B9D0B853B3A
:10347000910510F00E94F20C0E942035882399F3E8
:1034800088E0DF91CF910C949333CF93DF930E9428
:10349000281A0E94BD34EC0185E00E9493330E94FB
:1034A000F20C93980E94402E0E947C1481110FC050
:1034B0000E94A72F0E947C14811109C00E94BD3474
:1034C0008C1B9D0B853B910568F3939AEBCF88E0AD
:1034D0000E94933360E081E0DF91CF910C94BE0EA7
:1034E0000E94281A0E94F20C0E94442E86E00E943C
:1034F00093330C942E1AE091B703F091B8033496ED
:1035000085919491FC010994811103C00E94701A65
:103510000BC0813039F48091B603811105C00E943F
:10352000451A02C081E0089580E008950F931F932B
:10353000CF93DF9310926A040E941B1A02E0C0E04E
:10354000D0E011E00E94203580936A040E94692E29
:10355000112379F00E940A1E082F0E94841A182F46
:10356000882339F00E94BB0BC817D90791F41111B9
:1035700007C08091B603882311F0011114C010E038
:1035800080916A048130F1F60E94F1348823D1F2EF
:103590000AC00E94BB0BEC010E947B1A082F0E94FC
:1035A000841A182FE4CF0E94211A802FDF91CF9127
:1035B0001F910F91089581E00E949B1B0C948C1821
:1035C0000E948D1B0E94471821E080917E039091FC
:1035D0007F03892B09F420E02093B90380E00C9449
:1035E0007A1F1F93CF93DF93C091B403D091B5039B
:1035F000CE010E94C2190E94AA19182F0E94931787
:10360000811109C0111107C00E94500C11E0C817A8
:10361000D90708F410E0812FDF91CF911F91089511
:103620001F93CF93DF930E94F11A182F0E94491B1A
:10363000EC018091B903882329F0BE01812F0E94FB
:10364000C41F01C0812F882329F081E00E949B1BA9
:1036500081E007C0BE01812F0E94E3200E946E1B03
:1036600082E0DF91CF911F91089581E09091BE0398
:10367000911180E0089581E02091BC033091BD0359
:10368000232B09F480E008958091BC039091BD0341
:1036900008958091BA039091BB0308950E94550C40
:1036A000009711F481E090E0BC0188EE93E00E9465
:1036B0007217813D27E0920710F080ED97E00895A2
:1036C000813020E4920710F080E090E49093BD03F5
:1036D0008093BC030E9434070C94CA0CCF93DF93F1
:1036E000EC010E944E1BBC01C817D90708F4BE01AB
:1036F0008091BA039091BB038617970759F0709396
:10370000BB036093BA0380E10E94740DDF91CF91F7
:103710000C94601BDF91CF9108958091BE038823A4
:1037200049F080E090E00E94601B81E00E948506E5
:103730001092BE030895CF93C82F8091BE038111CC
:103740000BC0CC2349F080E090E00E94601B80E039
:103750000E948506C093BE03CF91089580E090E05B
:103760000E94601B81E00C949B1B87E08093700497
:1037700082E0809371040E948C3383E08093BF03C6
:103780000895FF920F931F93CF93DF938091AF0320
:10379000882381F00E940D0EF82E80916A0301E0CB
:1037A0008F1101C000E011E0F11010E0813021F430
:1037B000112311F010E000E00E94460C882309F468
:1037C00058C083E10E94A30BEC0182E10E94A30B8D
:1037D000C817D90728F49C012C1B3D0BE90102C036
:1037E000C81BD90BC53FD14008F443C0C1E001114B
:1037F00002C087E001C083E080937004112329F0A8
:1038000080917004825080937004CC2329F08091C1
:103810007004815080937004011104C0111102C022
:10382000CC2331F081E00E949333111107C004C012
:1038300088E00E94933304C0002311F0F11002C00D
:10384000D0E001C0D1E00E94F434811102C0109296
:10385000BF03D11106C0C11104C00E94F4348830E6
:1038600051F08091BF03823011F481E00AC082E000
:1038700008C0C0E0BCCF8091BF038F5F8093BF03BF
:10388000F0CFDF91CF911F910F91FF9008958FEFAF
:103890008093700488E00C9493331092C4030895CD
:1038A0000E94BD349093C3038093C20308950E9485
:1038B000BD342091C2033091C303821B930B20912E
:1038C000C0033091C1032817390728F081E08093A5
:1038D000C40382E008951092C40381E008958091AA
:1038E000C40308952CE3AC01249FC001259F900DD3
:1038F00011249093C1038093C00308950E94471838
:103900000E94102281E00C947A1F81E00E942622FE
:103910000C948C181F93CF93DF93C091B403D09174
:10392000B503CE010E94C2190E949219182F0E945D
:103930009317811109C0111107C00E94500C11E0AA
:103940008C179D0708F410E0812FDF91CF911F9114
:1039500008951F93CF93DF930E948A1C182F0E9413
:10396000B621EC01BC01812F0E94C41F882329F0DD
:1039700081E00E94262281E007C0BE01812F0E94C3
:10398000E3200E94DB2182E0DF91CF911F91089517
:103990008091D3039091D4032091D603222341F048
:1039A0000E94BD342091D3033091D403821B930B2A
:1039B00008956091CF037091D0038091D1039091CD
:1039C000D20328EE33E040E050E00E94B73BC9014B
:1039D00008956091CB037091CC038091CD039091B9
:1039E000CE0328EE33E040E050E00E94B73BC9012F
:1039F00008950F931F93CF93DF9381E00E94C41427
:103A00008C0184E00E94C414EC0184E10E94A30BA9
:103A100080179107B8F4C817D907B0F49C012C1B84
:103A20003D0BC8018C1B9D0B64E670E00E94A33B1C
:103A3000C9010E94A33B6436710510F063E670E093
:103A4000862F03C083E601C080E0DF91CF911F91F4
:103A50000F910895CF93DF930E94F91C9091D503A5
:103A60009817E0F48093D5030E94C81C2091D803D6
:103A70003091D903EC01C21BD30B0E94C81C909358
:103A8000D9038093D8038091DA039091DB038C17DC
:103A90009D0720F4D093DB03C093DA03DF91CF912D
:103AA00008950E942A1D8091D703882311F089E68A
:103AB00001C084E690E02091D503821B91092091FA
:103AC000DA033091DB03AC01429FC001439F900DAC
:103AD000529F900D1124089508950E94F91C80931F
:103AE000D5031092D9031092D8031092DB031092E1
:103AF000DA031092CF031092D0031092D1031092E8
:103B0000D2031092CB031092CC031092CD031092EB
:103B1000CE030895CF93DF9368E572E080E00E94C2
:103B2000740D9093CA038093C90381E00E94C4146A
:103B3000EC01C854D44FC93729E6D20710F0C8E7C2
:103B4000D9E6CE010E946506BE0180E00E94740D98
:103B5000813C2FEF920710F080EC9FEF9093C80309
:103B60008093C7030E94460C8093D7030E941015D0
:103B70009093C6038093C5030E94BD349093D403F1
:103B80008093D3030E946D1D81E08093D603DF9163
:103B9000CF9108950E94C81C9093D4038093D303BF
:103BA0001092D60308950E94A82181111DC00E9481
:103BB0003B1B811119C00E949317882351F18091FA
:103BC000CF039091D003A091D103B091D20380593B
:103BD0009F4FAF4FBF4F8093CF039093D003A093DD
:103BE000D103B093D20308958091CB039091CC037D
:103BF000A091CD03B091CE0380599F4FAF4FBF4FDF
:103C00008093CB039093CC03A093CD03B093CE03CA
:103C1000D2CF0895CF93DF938091D603811102C054
:103C200082E0C9C080E00E94AC0B2091C7033091B4
:103C3000C8038217930758F42091C9033091CA032F
:103C400082179307A8F40E94351B882389F00E94ED
:103C5000F614823009F087C080916A0390916B035B
:103C6000029709F080C00E94460C81117CC07EC082
:103C7000C091D7030E94460CC81719F088E19AE05A
:103C800095C0C091B203D091B303C851DC4F0E94DC
:103C90005A0CC817D90718F48DE09AE087C086E05F
:103CA0000E94A30B20915A0330915B038217930764
:103CB00018F48EEF99E07AC089E10E94A30BC091BD
:103CC000C503D091C603C83E2DEFD207D9F08C179B
:103CD0009D07C0F00E941015C817D90709F04EC003
:103CE0000E94F614811160C080916803909169036D
:103CF00060916C0370916D030E94A33B6A30710563
:103D0000E8F552C0C0917803D0917903C83E83E0B2
:103D1000D807A0F46091CB037091CC038091CD03C0
:103D20009091CE0320E63AEE40E050E00E94B73B8F
:103D30002C173D0718F083EE99E01AC080917A03A2
:103D400090917B03892B09F46BCF87E00E94A30B32
:103D500020917C0330917D032817390708F060CF4C
:103D600083ED99E023C087E29AE020C087E29AE0E1
:103D7000909349038093480381E01DC0C091C5031F
:103D8000D091C6030E9410158C179D0730F48EEE5B
:103D900099E090934903809348030E9410159093F3
:103DA000C6038093C503E8CF8EEE99E09093490354
:103DB0008093480380E0DF91CF9108950E94851C95
:103DC0000E94DB1A0C948C18CF93DF931F92CDB70F
:103DD000DEB78091DC03882329F0813031F40E9422
:103DE000101B0CC00E94A91C09C00E9476198230C9
:103DF00089F089830E94DE1E89810CC0813051F4D4
:103E00009091AF03992331F082E08093DC030E940C
:103E1000471882E00F90DF91CF910895CF93DF9301
:103E20000E94471861E083E00E94E919C091B40341
:103E3000D091B5038091AE03811106C00E94500C51
:103E4000C817D90740F40CC0CE010E94C2190E94C5
:103E5000AA19882329F00E947E1C1092DC030BC053
:103E600060E083E00E94E9190E94E01A81E08093FB
:103E7000B9038093DC03DF91CF9108958091DD0336
:103E8000813029F48091B0039091B103089580E0CE
:103E900090E008952CE0829FC001112487519C4F2F
:103EA0000C94502281E394E00C945022CF93DF9342
:103EB00000D000D0CDB7DEB782E10E94A30B9A8379
:103EC000898384E10E94A30B29813A81281B390B45
:103ED0003A83298387E10E94A30B9C838B83CE01C5
:103EE00001960E9450220F900F900F900F90DF913B
:103EF000CF910895EF92FF920F931F93CF93DF938B
:103F0000F82E81E08093DD030E94500CBC012091CB
:103F1000B0033091B1034091B4035091B5030F2D1C
:103F200089E294E00E946B228091B4039091B503E2
:103F30000E94C219EC0110E08CE0E82E8091AE03E3
:103F4000181798F4812F0E94CD17BC012091B0035F
:103F50003091B103E19EC00111240F2DAE018F51AC
:103F60009C4F0E946B221F5FE9CF10923704109282
:103F7000E0031092360410923504DF91CF911F9127
:103F80000F91FF90EF9008951F93CF93DF93182F19
:103F9000EB018091AF03882361F1112349F08091F7
:103FA0003704811105C00E94851881E08093370491
:103FB00080913704882311F08530D9F42091B00323
:103FC0003091B103203A310510F420EA30E02C178B
:103FD0003D0710F41092AB030E9476198093DD0325
:103FE0008130F1F40E94FA17882319F08FEF809343
:103FF000AD030E943E1F8C179D0780F0112371F0C6
:1040000080913704853051F49091E00381E0890F6D
:104010008093E00381E09A3020F402C01092E00324
:1040200080E0DF91CF911F9108950F931F93CF935D
:10403000DF93EC010E94500CAE01BC0189E294E0D8
:104040000E942D2310E00CE08091AE03181770F44D
:10405000812F0E94CD17BC01019FC0011124AE0128
:104060008F519C4F0E942D231F5FEECFDF91CF9188
:104070001F910F910895CF92DF92EF92FF920F93CD
:104080001F93CF93DF936091B4037091B50389E2DE
:1040900094E00E9490228C018091B4039091B5032A
:1040A0000E94C2197C01D12C9CE0C92E8091AE03E4
:1040B000D81698F4CD9CE0011124CF51DC4FB70104
:1040C000CE010E9490220817190728F0B701CE01EF
:1040D0000E9490228C01D394E9CFC801DF91CF9147
:1040E0001F910F91FF90EF90DF90CF9008950F9365
:1040F0001F93CF93DF93EB012091B2033091B30371
:104100008C012817390708F489010E943E1F9C0181
:104110008017910708F49801C217D307E1F0409186
:1041200037044530D1F42C173D07B8F082179307B8
:10413000A0F48091B0039091B1038C179D0758F0C3
:104140004091DE035091DF0380918E0390918F03A5
:104150004817590711F4CE0109C080918E03909140
:104160008F039093DF038093DE03C901DF91CF912A
:104170001F910F9108950F931F93CF93DF93EC013D
:104180000E94500C90932A0480932904D0932C040D
:10419000C0932B0410E00CE08091AE03181770F46C
:1041A000812F0E94CD17019FF0011124EF51FC4F88
:1041B00091838083D383C2831F5FEECFDF91CF9142
:1041C0001F910F9108951F93CF93DF93182FEB0149
:1041D0000E945F0C811108C01123E1F12091350488
:1041E00030913604232BB1F10E949317811132C014
:1041F000CE010E941520CE010E94BB200E943B20D0
:104200008C179D0708F048C09C012C0F3D1F369568
:1042100027953093360420933504BE0180913504F0
:10422000909136040E947720909336048093350451
:1042300090913704923009F1A8F49923C1F091309C
:1042400039F5112339F083E0809337041092360456
:10425000109235048091350490913604DF91CF910E
:104260001F910895933061F0943081F011C01123B3
:1042700089F30E94851881E00CC010923704EACFC0
:10428000109236041092350484E003C0112311F318
:1042900085E080933704DECF909336048093350415
:1042A000BCCF0C94CE19CF93DF930E94E0190E94EB
:1042B000500CEC0182E00E94C4148C179D0730F46E
:1042C0008091B2039091B3030E94DB218091B403EB
:1042D0009091B5038C179D0718F487EE97E028C0DE
:1042E0000E94C50B029750F1809184039091850341
:1042F000892B61F08BE10E94A30BEC010E942C152D
:10430000C817D9071CF483EE97E012C080917A0396
:1043100090917B03892B91F08DE10E94A30B20915A
:104320008803309189032817390744F48DED97E00D
:10433000909349038093480381E001C082E0DF91BC
:10434000CF91089581E090913C04911180E008950F
:1043500081E020913A0430913B04232B09F480E062
:10436000089580913A0490913B0408958091380417
:104370009091390408950E94550C009711F481E042
:1043800090E0BC0180E49FE10E947217813727E131
:10439000920710F080E797E10895893E2DEF92078C
:1043A00010F088EE9DEF90933B0480933A040E94B6
:1043B0007D060C94CA0CCF93DF93EC010E94BB21C5
:1043C000BC01C817D90708F4BE0180913804909148
:1043D00039046817790750F49C01261B370B2D38D8
:1043E000310568F0BC016C58710909C09B01281B9C
:1043F000390B2D38310518F0BC0164577F4F8617F3
:10440000970759F070933904609338048FE00E9445
:10441000740DDF91CF910C94CD21DF91CF91089550
:1044200080913C04882389F010923B0410923A0456
:10443000109239041092380480E090E00E94CD215F
:1044400081E00E948E0610923C040895CF93C82FFD
:1044500080913C04811113C0CC2389F080E090E06E
:104460000E94CD2110923B0410923A04109239041C
:104470001092380480E00E948E06C0933C04CF91D5
:10448000089510923B0410923A041092390410924D
:10449000380480E090E00E94CD2181E00C94262237
:1044A000FC01428153814115510591F0A081B181F8
:1044B000B7FF03C0B195A195B10928EE33E00E9482
:1044C000753B9A0140E050E00E94B73BC901089556
:1044D00080E090E008950F93FC01CB01002341F0B0
:1044E0004617570708F4CA016417750748F407C050
:1044F0006417750708F4CA014617570708F4BA018C
:10450000978386839183808313821282158214821B
:1045100033872287681B790B718760870F91089515
:10452000CF93DF93EC0188819981AA85BB85E885CB
:10453000F985309701F19B0140E050E0281B390BD1
:10454000410951090E947C3B9F01442737FD40955A
:10455000542F0E94D93B8A819B81280F391F411D0E
:10456000511D2115310581E04807510524F457FDFF
:1045700005C0C90105C08FEF9FEF02C080E090E049
:10458000DF91CF910895DF92EF92FF920F931F93E7
:10459000CF93DF93EC012A813B812417350720F468
:1045A000FA01E21BF30B03C0F901E41BF50B8C814C
:1045B0009D81969587958E179F0710F5E880F98065
:1045C0002417350740F48A01021B130BCB018E1907
:1045D0009F097C0105C0E61AF70A8901041B150B27
:1045E000C7010E94C513D82E888599850E94C513DE
:1045F000D81206C01D830C83F986E8861B870A87BC
:10460000DF91CF911F910F91FF90EF90DF90089570
:104610000F931F93CF93DF93EC018B019A01A88531
:10462000B9850E94753B2A853B8540E050E00E9499
:10463000D93BC801A0E0B0E082179307A407B507F3
:104640001CF41F821E8204C0021B130B1F830E83E7
:10465000DF91CF911F910F910895EF92FF920F93E9
:104660001F93CF93DF93EC018B017A010E94C32249
:10467000A701B801CE01DF91CF911F910F91FF905B
:10468000EF900C9408230F931F93CF93DF938C012B
:10469000443019F0CFEFDFEF02C0C1E0D0E00E945C
:1046A000F634D8011B96EC91F0E0EE0FFF1FE759AE
:1046B000FD4F9C01C29FC001C39F900DD29F900DE2
:1046C000112420813181820F931F91838083DF9198
:1046D000CF911F910F910895EF92FF920F931F9327
:1046E000CF93DF931F92CDB7DEB78C01443021F01A
:1046F000EE24EA94FE2C03C0EE24E394F12C6983AB
:104700000E94F634D8011B96ED91FC911C976981AB
:10471000E60FF11DE491F0E0EE0FFF1FE759FD4FAA
:10472000E89E9001E99E300DF89E300D11248081A5
:104730009181820F931F918380830F90DF91CF919E
:104740001F910F91FF90EF900895CF93DF93EC01AD
:104750000E947233882311F0888101C08FEFDF91AE
:10476000CF910895CF93DF9300D000D0CDB7DEB7BF
:1047700080E00E949A0B9A83898381E00E949A0BC1
:1047800029813A81281B390B3A83298383E10E94CE
:10479000A30B9C838B83AE014F5F5F4F61E080E092
:1047A0000E94F00BAE014F5F5F4F61E081E00E941D
:1047B000F00B0F900F900F900F90DF91CF91089515
:1047C000CF93DF93D82F61EC77E085ED97E00E94DF
:1047D000152EC0E082E10E94E30D882399F08FE15D
:1047E0000E94E30D8D17A1F0C1110CC063EB77E0BF
:1047F000DD2319F085ED97E002C08AEC97E00E9476
:10480000152EC1E00E942035813021F780E001C0E3
:1048100081E0DF91CF910895CF93DF9300D000D056
:10482000CDB7DEB7862F5A8349833C832B83AE01F5
:104830004F5F5F4F61E00E94F00B0F900F900F9061
:104840000F90DF91CF910895FF920F931F93CF9315
:10485000DF93F82E162F042F83E00E949333812FCD
:104860000E94A30BEC01802F0E949A0BAC019E01C9
:10487000602F812F0E940C2481E080933E030E94D0
:10488000DB0CFF2039F0DF91CF911F910F91FF904A
:104890000C94B223DF91CF911F910F91FF90089557
:1048A000FF920F931F93CF93DF93CDB7DEB72E9771
:1048B0000FB6F894DEBF0FBECDBF61E081E00E946D
:1048C000BE0E81E00E94E023882349F164E672E095
:1048D000CE0101960E949E2C8FEF8A8784E990E09A
:1048E0009A8389838BE592E09D878C8789E08E8708
:1048F00061E0CE0101960E944F2A87FD10C0082F6B
:10490000112707FD1095F801E55AFD4FF490873007
:104910007CF78F2D0E94E30D882351F30EC00E9477
:10492000F20C2E960FB6F894DEBF0FBECDBFDF910E
:10493000CF911F910F91FF9008950E94DB0C109270
:104940003E03CE0101960E946329882341F0F801BD
:10495000EC5AFD4F44916F2D81E00E94242481E0A8
:1049600080933E03C5CF1F93CF93DF93CDB7DEB7C0
:104970002E970FB6F894DEBF0FBECDBF61E080E08A
:104980000E94BE0E1092670068E272E0CE010196AE
:104990000E949E2C8FEF8A8784E990E09A83898316
:1049A00086E292E09D878C8787E08E8761E0CE016A
:1049B00001960E944F2A87FD1FC0E82FFF27E7FDC1
:1049C000F095EA5DFD4F1491812F0E94E30D88233D
:1049D00069F30E94DB0C10923E03CE0101960E9407
:1049E0006329882329F0412F612F80E00E9424242D
:1049F00081E080933E03DACF81E0809367000E94DC
:104A0000F20C2E960FB6F894DEBF0FBECDBFDF912D
:104A1000CF911F9108958F3019F4CB010C94CD21C3
:104A2000CB010C94601BEF92FF920F931F93CF93D7
:104A3000DF93EC01443019F00FEF1FEF02C001E0EB
:104A400010E00E94F634089F7001099FF00C189F37
:104A5000F00C11240E94F6342F8538898C0141E036
:104A600050E0B701CE010D960E9400146D857E8541
:104A70008B85DF91CF911F910F91FF90EF900C9458
:104A80000B25AF92BF92CF92DF92EF92FF920F93DE
:104A90001F93CF93DF93CDB7DEB765970FB6F8942A
:104AA000DEBF0FBECDBFA82EB62E7A0161E081E039
:104AB0000E94BE0E80E00E94E023882309F46EC0AD
:104AC000AA2069F00E94102288E799E60E946506F4
:104AD000E2E0CE2EFFE0DF2E08EE1DEF08C00E94C0
:104AE0008D1B63E0C62E70E1D72E00E010E46AE370
:104AF00072E0CE0101960E949E2C8FEF8A872CE9EE
:104B000030E03A832983DC86BD86198B088B4D857E
:104B10006C85CE0142960E94D30B2A893B893F8740
:104B20002E8761E0CE0101960E944F2A87FD2EC09C
:104B30008111EDCF6E857F858D2D0E940B25CE01D5
:104B400001960E9463298823D9F00E94DB0CFD8A1C
:104B5000EC8A2E853F853B8B2A8BAE014E5E5F4FE4
:104B60006B2D8D2D0E94F00B8C2D0E949A0B9B8B30
:104B70008A8BAE014E5E5F4F6B2D8C2D0E94F00B29
:104B800060E070E08D2D0E940B25C1CF81E0AA204E
:104B900019F00E94262202C00E949B1B0E94F20C68
:104BA00065960FB6F894DEBF0FBECDBFDF91CF91F3
:104BB0001F910F91FF90EF90DF90CF90BF90AF903B
:104BC0000895EF92FF920F931F93CF93DF93CDB78A
:104BD000DEB729970FB6F894DEBF0FBECDBF8C01AC
:104BE0007B01BC01CE0101960E949E2C60E0CE01AB
:104BF00001960E944F2A682F87FD10C0E82FEE0F04
:104C0000FF0BEE0DFF1D4591549181E092E00E34B3
:104C1000190709F080E00E944125E8CF29960FB6D8
:104C2000F894DEBF0FBECDBFDF91CF911F910F91E2
:104C3000FF90EF9008951F93CF93DF9300D000D0A3
:104C40001F92CDB7DEB7182F6D830E949A0B9A83FF
:104C50008983812F0E94A30B9C838B83AE014F5FBE
:104C60005F4F6D81812F0E94F00B0F900F900F907E
:104C70000F900F90DF91CF911F9108950F931F9385
:104C8000CF93DF93CDB7DEB72C970FB6F894DEBF86
:104C90000FBECDBF182F062F61E080E00E94BE0E30
:104CA0006EE272E0CE0101960E949E2C8FEF8A8701
:104CB00024EA30E03A8329831C8761E0CE01019623
:104CC0000E944F2A87FD12C08111F7CF10923E0338
:104CD000CE0101960E946329882321F0602F812F45
:104CE0000E941B2681E080933E03E7CF0E94F20CD6
:104CF0002C960FB6F894DEBF0FBECDBFDF91CF91DB
:104D00001F910F9108951F93CF93DF93CDB7DEB717
:104D100029970FB6F894DEBF0FBECDBF182F64E3FE
:104D200072E0CE0101960E949E2C60E0CE010196B9
:104D30000E944F2A682F87FD04C0812F0E943E26C3
:104D4000F4CF29960FB6F894DEBF0FBECDBFDF912A
:104D5000CF911F910895CF93DF93CDB7DEB72A97F8
:104D60000FB6F894DEBF0FBECDBF68E772E0CE018C
:104D700001960E949E2C60E0CE0101960E944F2A6F
:104D800087FD2AC08A870E94C4398A858230A1F0B3
:104D90004CF4882371F08130C9F464E472E08EE44D
:104DA00092E00EC0833079F0843081F40E94B32405
:104DB0000DC00E9450240AC060E472E088E492E0D2
:104DC0000E94E12503C087E00E94832681E00E94C3
:104DD0002B120E94D439CFCF10924A032A960FB6D5
:104DE000F894DEBF0FBECDBFDF91CF910895CF9372
:104DF000DF93EC01842F0E94100D9E0136952795BC
:104E0000A9014C0F5D1F8417950730F4C21BD30B0B
:104E100021E0C817D90708F020E0822FDF91CF9159
:104E2000089568EE73E080E00E94740D2BE1289FE6
:104E3000B001299F700D112440E088E799E60C9499
:104E4000F726CF93DF931F92CDB7DEB7482F68EEDA
:104E500073E049830E94740D26E0289FB001299FCA
:104E6000700D1124498180E797E10F90DF91CF9178
:104E70000C94F726CF93DF931F92CDB7DEB7482F60
:104E800064E670E049830E94740DBC01660F771FD1
:104E9000680F791F49818CE291E00F90DF91CF91EB
:104EA0000C94F726CF930E94B712C82F882341F1A4
:104EB0000E941127C82F811105C08BEA97E00E943C
:104EC000122F1EC08FE00E942127882329F082E044
:104ED0000E942127811106C082EA97E00E94122FCA
:104EE000C0E00EC080E10E943A27882331F083E0C1
:104EF0000E943A27C82F811103C086E997E0EECFC0
:104F00008C2FCF9108950C9452271F93CF93DF934A
:104F1000EC01162F0E94992CCE0109960E94A52320
:104F2000992787FD9095612F70E08617970759F0B4
:104F3000EB85FC85E60FF71F84916D85DF91CF919E
:104F40001F910C941D0EDF91CF911F9108951F9317
:104F5000CF93DF93EC01162F82E10E94E30D8111C4
:104F60000FC061EC77E085ED97E00E94152E8B85F0
:104F7000803141F581E0DF91CF911F910C949B1B13
:104F8000612FCE010E94992CCE0109960E94A52383
:104F9000992787FD9095212F30E08217930791F094
:104FA000111108C065E08D859E85DF91CF911F911D
:104FB0000C948E370E945A0C67E0DF91CF911F91BD
:104FC0000C942538DF91CF911F9108951F93CF93B3
:104FD000DF93EC01162F0E94992CCE0109960E94B6
:104FE000A523992787FD9095212F30E082179307FD
:104FF00091F0111107C067E08B85DF91CF911F9170
:105000000C941D0E8B850E949A0B67E0DF91CF9167
:105010001F910C948E37DF91CF911F910895CF93FC
:10502000DF93DC011B96CD91DC911C9790E080E032
:10503000FE012EE0829FE00DF11D11243296259194
:1050400034912115310599F01D964D915C911E9773
:1050500037FF03C057FF09C0305824233523232BC3
:1050600021F0662329F061509F5F8F5FE1CF892F88
:10507000DF91CF910895EF92FF920F931F93CF93FB
:10508000DF93EC01F62E0E940F289EE0899F80019D
:105090001124EB85FC85E00FF11F859194910E940E
:1050A0001636E82ECE0109960E947233882311F03D
:1050B000298501C02FEF332727FD30956F2D70E034
:1050C00026173707E1F06FE06E19EB85FC85E00FDE
:1050D000F11F3596F490FF2029F0862F8F190E943A
:1050E00052366F2D8B859C85800F911F0496DF9122
:1050F000CF911F910F91FF90EF900C94F432DF91BC
:10510000CF911F910F91FF90EF900895CF93DF9370
:10511000EC010E940F282B853C859EE0899F200D85
:10512000311D1124F901369645915491CA01F901B6
:10513000349624912150223030F4FA014591559152
:1051400065917491CB01DF91CF9108959F92AF92B9
:10515000BF92CF92DF92EF92FF920F931F93CF9364
:10516000DF93CDB7DEB72C970FB6F894DEBF0FBE36
:10517000CDBF7C01D62E942E0E9486288C016D2DE9
:10518000C7010E940F28D7011B966D917C911C9737
:10519000BEE08B9F600D711D1124685F7F4F46E05C
:1051A00050E0CE0107960E94FE3B86E0FE01379656
:1051B000DE01119601900D928A95E1F729813A81DD
:1051C000CB80DC80AD80BE80E2E09E1619F081E0ED
:1051D00090E002C08FEF9FEF2F3FFFE73F0729F4DA
:1051E000BC01C8010E946D1416C02E3F4FE7340762
:1051F00019F4F601099520C0829FA001839F500DEC
:10520000929F500D1124D8018D919C911197840F7C
:10521000951F8D939C93F801808191818C159D053C
:1052200014F4D182C082D8018D919C911197A81657
:10523000B90614F4AD92BC92D7011F96ED91FC9182
:105240005097309719F0B801C70109952C960FB601
:10525000F894DEBF0FBECDBFDF91CF911F910F91AC
:10526000FF90EF90DF90CF90BF90AF909F90089508
:10527000FF920F931F93CF93DF93EC018B016A8111
:105280008B81680FCE010E940F28F82E1E870D8794
:105290006FEFCE010E940F288C8310E08C811817CD
:1052A00060F4612FCE010E940F288F1104C08A8103
:1052B000181B1B8302C01F5FF1CFDF91CF911F919D
:1052C0000F91FF900895EF92FF920F931F93CF934A
:1052D000DF93EC018B819A81890F89871A8681E09F
:1052E0008D8382E0E82EFF24F3948E01075F1F4F29
:1052F0000E942035482F823011F0843089F4E881F3
:10530000F9816B818A81680F0280F381E02DCE01E3
:1053100009958B819A81890F8987EA86FD8204C06D
:10532000813089F0883079F0C8010E947D33811185
:10533000FD828D81882319F0CE010E94EA298A8599
:105340008F5F8A87D5CF8FEF898781E08E838D83AA
:10535000483009F080E0DF91CF911F910F91FF90CD
:10536000EF9008950895FC0184EB90E09183808391
:1053700012821382648381E0858386830895FC0111
:105380008481823010F022E001C0282F9281492FC1
:1053900050E030E021503109421753071CF49F5F61
:1053A000928308952381420F511D90E00197481781
:1053B000590714F42F5F23830895FC018281882309
:1053C00019F08150828308958381882311F08150E0
:1053D00083830895FF920F931F93CF93DF93EC0184
:1053E00000E010E0F02E602F80E00E94BB358A8143
:1053F000081302C08EE301C080E20E94CD356B81AC
:105400009801260F311D8C8190E02817390744F44C
:10541000E881F9816F0D0190F081E02DCE010995B1
:105420000E9459360F5F1F4F02301105D9F61D82B9
:10543000DF91CF911F910F91FF9008950F931F93CC
:10544000CF93DF93EC010E942035182F0E948A39F8
:10545000882321F081E08D838FE71CC00B818A8136
:10546000080F123031F0143039F4CE010E94BF29F8
:1054700003C0CE010E94DD298B819A81890F081714
:1054800011F081E08D838D81882319F0CE010E9477
:10549000EA29812FDF91CF911F910F910895EF920B
:1054A000FF921F93CF93DF931F92CDB7DEB77C019E
:1054B00081E0F701858311E0C70169830E941E2AFC
:1054C0006981811102C0F7011682F701968191115D
:1054D00008C0883031F481E0868383819281890F0E
:1054E00009C0662311F0F7011583813029F7911166
:1054F000E3CF8FEF0F90DF91CF911F91FF90EF904F
:105500000895CF93DF93CDB7DEB729970FB6F89400
:10551000DEBF0FBECDBF64E872E0CE0101960E94EF
:105520009E2C60E0CE0101960E944F2A813039F016
:10553000823041F0811109C00E942F2CF2CF0E94CD
:10554000AB26EFCF0E94C212ECCF87FFEACF29969D
:105550000FB6F894DEBF0FBECDBFDF91CF91089597
:105560000F931F93CF93DF93EC018091660390918B
:105570006703019719F402E310E002C001E010E0B4
:105580000E945B159C0141E050E0BE018AE693E079
:105590000E940014DF91CF911F910F910895CF9336
:1055A000DF938091660390916703892B61F10E94DC
:1055B000F614C1E0D0E002C0CC0FDD1F8A95E2F7FF
:1055C00080917A0390917B03892B11F4D05C09C000
:1055D0000E94F614882319F0C05FDF4B02C0C05B45
:1055E000DF4B0E94F614811106C0809184039091D4
:1055F0008503892B59F48091640390916503892B6D
:1056000039F0D05805C0C0E0D0E402C0A096F3CF76
:10561000CE01DF91CF910895CF93DF93EC0183E02A
:105620006636780719F40E94701613C083E0683656
:10563000780719F40E944B160CC083E06C3678078B
:1056400019F40E942B1605C06E56734011F40E9487
:105650003B160E9465150E94CF2ABC01CE01DF9146
:10566000CF910C9438291F93CF93DF93CDB7DEB73A
:10567000E7970FB6F894DEBF0FBECDBF60E070E0D5
:10568000CE0187960E949E2C8FEF88AB8CEA90E02B
:1056900098A78FA38CE892E09BAB8AAB8CE09BE24F
:1056A0009FAB8EAB16E20E94CF2ABC01CE0187963B
:1056B0000E94382960E0CE0187960E944F2A87FD1C
:1056C0001FC0E6E6F3E0DE011196812F01900D92F6
:1056D0008A95E1F7CE0187960E94632981110AC05D
:1056E000FE013196A6E6B3E0812F01900D928A95D6
:1056F000E1F7D9CF83E00E9493330E946515D3CFA1
:10570000E7960FB6F894DEBF0FBECDBFDF91CF9105
:105710001F910895DC011796ED91FC911897E60F03
:10572000F11D649184EC93E00C942E360F931F933B
:10573000CF93DF93EC018B0180E061E0680FF8010B
:10574000E80FF11DE491E93011F0862FF6CFCE017C
:105750000E94B3298AEB90E09983888318870F838E
:10576000DF91CF911F910F9108950E94F61420911F
:10577000660330916703232B49F0833051F0823068
:1057800059F081110CC08FE494E0089581E694E013
:10579000089586E494E0089588E594E008958DE303
:1057A00094E008951F93CF93DF93182F0E940E1655
:1057B0000E94B52BEC0160E0CE010E944F2A87FDCC
:1057C00015C0EF81F885E80FF11D87FDFA958491EA
:1057D000893049F4812F0E940E160E94332B812FAD
:1057E0000E941C16E5CF0E943C13E5CFDF91CF91BC
:1057F0001F91089565EF73E081E694E00E94962B77
:105800006BEE73E088E594E00E94962B6EED73E0FA
:105810008FE494E00E94962B63EE73E086E494E0BC
:105820000E94962B68ED73E08DE394E00C94962B28
:1058300080915E0390915F03892B19F08FEF9FE7B2
:1058400008958DEF9FE70895CF93DF93EC010E94B9
:10585000182CBC01CE01DF91CF910C9438291F93F5
:10586000CF93DF93CDB7DEB7AB970FB6F894DEBF1B
:105870000FBECDBF60E070E0CE014B960E949E2C23
:105880008FEF8CA38CEA90E09C8F8B8F86EF93E058
:105890009FA38EA384E29CE29BA78AA71AE10E94A1
:1058A000182CBC01CE014B960E94382960E0CE0135
:1058B0004B960E944F2A87FD30C0682FCE014B9631
:1058C0000E948628892B41F48CE493E00E94931374
:1058D00083E00E949333E3CFECE4F3E0DE01119622
:1058E000812F01900D928A95E1F7CE014B960E948F
:1058F000632981110AC0FE013196ACE4B3E0812F27
:1059000001900D928A95E1F703C083E00E949333E2
:105910008CE493E00E949F13C2CF0E948813AB9641
:105920000FB6F894DEBF0FBECDBFDF91CF911F91B0
:105930000895FC01878190850C942E360F931F9358
:10594000CF93DF93EC018B01CB010E94A713682F4B
:10595000CE010E94B32980EC90E099838883188758
:105960000F83DF91CF911F910F910895613011F452
:105970000C94CD170C944A1FCF93DF93D82FC62FCA
:105980008FE18D0F0E94E30D882351F06C2F8D2F36
:105990000E94B62C4C2F66E0DF91CF910C949C377F
:1059A0008CE994E0DF91CF910C9416360F931F93FE
:1059B000CF93DF93D82F062F0E94C1350E949317F3
:1059C000811108C083E090E00E94B818882341F05C
:1059D00080E209C080919203882321F082E403C011
:1059E0008DE601C082E69091AC03911102C00E9445
:1059F000CD358091AC03882349F110E0C1E090914E
:105A0000AE03191700F5412F50E02091AD03332765
:105A100027FD30954217530761F08091AC038C232A
:105A200031F08091710480FF04C082E003C081E006
:105A300001C080E00E94CD35C03811F0CC0F01C00C
:105A4000C0E01F5FDCCF88E0891B01C087E00E94B7
:105A5000523611E01D0F812F0E9459378AE30E94B0
:105A6000CD35602F8D2F0E94BC2C0E9459360E948C
:105A7000C5351630C8F4C2E0CD0F8C2F0E945937BF
:105A80008AE30E94CD35602F812F0E94BC2CC63046
:105A900059F083E08D0F0E9459378AE30E94CD357B
:105AA000602F8C2F0E94BC2CDF91CF911F910F9102
:105AB0000C94593661E080E00C94D62C61E083E0D0
:105AC0000C94D62C66E080E00C94D62C66E083E043
:105AD0000C94D62CCF93DF9380914A03833019F036
