:100000000C94BB040C94E3040C94E3040C94E304FC
:100010000C9438080C94E3040C94E3040C94E3046B
:100020000C94E3040C9468080C94E3040C94E3042B
:100030000C94E3040C9402090C9437090C94E30427
:100040000C9414080C94E3040C94E3040C94E3045F
:100050000C94E30493129C12A212A512A812AF12E0
:10006000AC12B612472D4A2D582D642D702D742DCB
:10007000822D862D942D982DAB2DAE2DBC2DC82D07
:10008000D62DE22DE82DEC2DF02DF32DF92DFC2DA4
:10009000062E042F082F0D2F122F152F172F1C2F70
:1000A0001E2F232F262F2C2F2F2F322F352F382F77
:1000B0003D2F412F452F482F4B2F502F532F572F78
:1000C0001E36203622362636263624362A3628365E
:1000D000AD3A8F3A983A913A9A3A8A3A963A00006B
:1000E00000003A65C52E000000003A65C52EF801F3
:1000F00032007C2BE80380043200001F2C0100003A
:1001000000000000000000000000000000000000EF
:10011000000080A6CA30C24C2A010C4958020000D7
:10012000000043BFA80E0000000071D86810000056
:100130000000AFD96810000000004067D007000041
:1001400000000FD6681000000000C8D8681000003A
:1001500000008AD86810F80132007B2BE8039A016E
:1001600032007A0B2C0100060800FF01010A01068B
:100170000900FF03020002060A00FF00000A06064B
:100180000E00FF03020005060D00FF020300040637
:100190000C00FF03020003060B00FF040600070625
:1001A0000700FF030200AA0100006F7074696F6E00
:1001B000730080250000004B00000096000000E165
:1001C000000000C20100460088137017000070177D
:1001D00064000100FBFFF1FF0807080705001E008F
:1001E00001000A0032007800102700000000000023
:1001F00001000800000000000300000000000000F3
:10020000000073086E08690864085F085A085508FA
:1002100050084B0846080000980898086C071027FB
:10022000580201009808F4016C070100E001020087
:100230009808F4016C070100E00103009808DC0055
:100240006C070600E0010400980898086C0703009A
:1002500078000500980898086C07030078000600ED
:10026000980898086C070300780007009808980819
:100270006C07030078000800980898086C070300D2
:1002800078000900980898086C07030078000100BE
:100290000100010001000100B00400005203000051
:1002A0005203B0040000E8030000E803D0079209FD
:1002B000D60600006C07E40C100ED007E40CB80B57
:1002C000100E0410C409A60EAC0D740E6810B80B05
:1002D0000A0F890C740ECC10B80B0A0F890C740E1F
:1002E000FE10B80B0A0F890C40066C071405400677
:1002F00078056F18B418A0190B1B061B3B1BE91BD4
:100300007C1CF51B851C821C8C1CB31CBA1CDE1CBF
:10031000551F251F2B1F9821071A9A210001D70569
:10032000CF050000E605DF050000F605ED0500003D
:100330000706FF05000064002C016400E8031506B1
:100340000F06000022061B06000006090A0B0C0D12
:100350000E061F20212223241312580652064C0693
:10036000460640063A0634062E06280600008E068B
:10037000850679066D065E0600009D0893088508CF
:1003800000000E0709070407FF06FA06F306E70652
:10039000DD06D20600000209F308EB08E108D508E3
:1003A000CD08BE08B308A608000304070800030729
:1003B0000800010203040708000102030405060700
:1003C0000854074D0747073E07350739082E082709
:1003D000081E0815080C080208F807EC07E207DCFD
:1003E00007CE07C407BA07AE07A4079B0790078587
:1003F000077B0770076A0763075D07000020202D51
:100400002D202000636865616C692D6368617267E7
:1004100065720A76302E39395F32303135303232FA
:10042000330063616C69626174696F6E206572721A
:100430006F7200706C656173652063616C696272D4
:1004400061746500656570726F6D207265736574A7
:100450000A6572726F723A2000726573657474690E
:100460006E6720656570726F6D00206E6F202020B2
:1004700020202020202079657300656570726F6DE3
:100480002072657365743A005245564552534520B3
:10049000504F4C4152495459006572726F723A2064
:1004A00020202000636F6D706C6574653A20002316
:1004B00034008000005132FFFF0480B633FFFF0498
:1004C000809A32FFFF048076330001088082330077
:1004D000010880963300010080213000C000002513
:1004E0003000C000002930004004802D300040045E
:1004F000802133FFFF0480E132FFFF00805B33FF88
:10050000FF00009734800000803F33FFFF000000B1
:1005100000FFFF00002500202D2D3A2D2D006465E1
:100520006C746120543D20004E2F41005465787456
:100530003D0064656C746120563D20006D61785605
:100540006F75743D002D00546578743D00206C6912
:100550006D69743D0056696E7075743D00776972FF
:10056000657320523D00626174742E20523D00621A
:1005700020004C696D6974733A20006E6F206454DA
:100580002F740025200043684342426C446946436F
:10059000537453424359000100010001000100015E
:1005A000000A00640001000300080009000A000BB3
:1005B000000C00010002000400060008000A000C04
:1005C00000141719181A0705061F20212223245684
:1005D0006D696E75733A0056706C75733A200076CB
:1005E000616C75653A0074656D703A2000706F69D2
:1005F0006E7420322E00706F696E7420312E0049A7
:100600006F75743A20200076616C75653A2000336E
:1006100030306D41003130306D4100313030306D5F
:1006200041003130306D4100566F75743A005631DB
:100630002D363A005662363A20005662353A20008E
:100640005662343A20005662333A20005662323AFB
:1006500020005662313A200056696E3A20006578D3
:10066000706572742044414E474552210074656D97
:10067000702065787465726E0049206469736368E0
:100680006172676500492063686172676500766F13
:100690006C746167650062616C616E636520706F88
:1006A00072742100626174746572792100646973E7
:1006B000636F6E6E65637400636F6E6E6563740066
:1006C00064542F6474002D64560056206C696D6963
:1006D00074005265736574206E616D6500456469D0
:1006E00074206E616D6500437265617465206E6192
:1006F0006D6500546C696D3A200049643A200049E8
:10070000633A200043683A2000563A2020004261B4
:10071000743A2020004E616D653A0045646974208A
:100720006E616D653A006D5600206E6F00796573DD
:1007300000496E66006578742E2041646300657818
:10074000742E20646562006465627567006E6F7266
:100750006D616C0064697361626C656400726573DD
:1007600065740073706565643A00554152543A00EF
:10077000616463206E6F6973653A0062616C2E205C
:100780006572723A00666F7263652062616C3A004E
:100790006469732061677265733A006F2E646973D0
:1007A00063683A006F2E6368617267653A00696E2C
:1007B000707574206C6F773A200063617020434F2E
:1007C00066663A006D696E20496F75743A006D690E
:1007D0006E20496F75743A2020492F00626565705C
:1007E0003A00442F4320726573743A00442F43202B
:1007F0006379636C65733A004E6943642056434FD6
:100800003A004E694D482056434F3A004E694364C2
:100810002064563A004E694D482064563A00656E91
:1008200061622064563A0064542F64743A0065781B
:1008300074726E2054434F3A00657874726E20547F
:100840003A00432F6D004E695A6E004C3433350028
:100850004C343330004C69706F004C696C6F004C45
:100860006966650050622020004E694D48004E695F
:10087000436400556E6B6E006D696E2E006E6F6C7A
:10088000696D69740072657365742064656661756D
:100890006C740063616C6962726174650073657485
:1008A00074696E677300656469742062617474654D
:1008B000727900443E4320666F726D6174007374F8
:1008C0006F726167652B62616C616E630073746F38
:1008D0007261676500666173742063686172676541
:1008E000006469736368617267650062616C616E60
:1008F0006365006368617267652B62616C616E633A
:100900006500636861726765006578742E74656D53
:10091000702E6375746F66660074696D65206C690E
:100920006D697400636170616369747920637574C3
:100930006F666600696E707574205620746F206C47
:100940006F77004857206661696C75726500626157
:100950006C616E63657220646973632E00626174FA
:100960007465727920646973632E00007E056E0AD7
:100970002111232CED3111241FBECFE5D8E0DEBFBD
:10098000CDBF10E0A0E6B0E0E6EEFDE702C00590C6
:100990000D92AA3CB107D9F714E0AAECB0E001C06F
:1009A0001D92AC3CB107E1F719E0C6E7D9E004C0FD
:1009B0002297FE010E94873ECC36D107C9F70E94DC
:1009C0001C110C94F13E0C94000086B3809581704C
:1009D000B19B02C090E001C092E0892BB29B02C0A3
:1009E00090E001C094E0892BB39B02C090E001C06D
:1009F00098E0892B0895882339F0A69AA79AD59A6A
:100A0000889A8A9A8F9A0895A698A798D5988898D0
:100A10008A988F98089520E042E060E18BEC90E0A6
:100A20000E94D93B0E94EB080E94BD0688E799E628
:100A30000C94EA058091D100882331F08091CA009E
:100A40008F5F8093CA0002C01092CA008091D100CB
:100A50008A3010F480E001C088E09091D100943198
:100A600008F084E09091D1009E3108F082E09091EE
:100A7000CA00982311F0C49A0895C49808958093E9
:100A8000D1000895811106C0939A0E94130680E058
:100A90000C940A069398089580FF02C0AE9A01C094
:100AA000AE9881FF02C0AF9A01C0AF9882FF02C02A
:100AB000DD9A01C0DD9883FF02C0909A01C0909832
:100AC00084FF02C0929A01C0929885FF02C0979A53
:100AD00008959798089580E00E944C0580E00E9458
:100AE00042051092D10087B18F7387B98B9A8D9A86
:100AF000D79ABC9A8C9A8D9A8E9A08958BEC90E036
:100B00000C942E3C2FB7F8948091D3009091D40090
:100B1000A091D500B091D6002FBF892F9A2FAB2F6F
:100B2000BB27A7FDBA9508952FB7F8941092DA0065
:100B30001092D9008617970768F480E090E4A0E04F
:100B4000B0E08093D3009093D400A093D500B093ED
:100B5000D60008C01092D3001092D4001092D50095
:100B60001092D6008091D3009091D400A091D5002E
:100B7000B091D600BA2FA92F982F88278093D30041
:100B80009093D400A093D500B093D60081E08093D9
:100B9000D2002FBF0895CF93DF93EC01C13080E6E0
:100BA000D80758F4C13080E4D80748F48EE00E949A
:100BB000F7089598BE018DE009C0C0E0D0E68DE051
:100BC0000E94F708949ABE0170548EE0DF91CF9195
:100BD0000C94D508893729E6920710F088E799E642
:100BE000BC0180E00E94F90C813C2FEF920710F0CD
:100BF00080EC9FEF2FB7F8949093D8008093D700A4
:100C00002FBF08952FB7F8949093DA008093D900FE
:100C10002FBF0895882329F080E00E941306DF98F3
:100C20000895DF9A0895CF93DF93C82F882319F092
:100C300080E00E940A06DFB7F8948DE00E94F70872
:100C400094988EE00E94F70895981092D200DFBF2A
:100C5000C11104C0969ADF91CF910895969880E0D3
:100C60000E94280BEC0186E00E94280BBE01DF9158
:100C7000CF910C9494050F931F938091D2008823F9
:100C800009F474C080E00E94310B2091D7003091AC
:100C9000D8008217930730F080E00E94130610926C
:100CA000D20064C082E00E94310B4091D900509183
:100CB000DA0060E070E00091D3001091D400209140
:100CC000D5003091D600481B590B61097109E2E04B
:100CD000440F551F661F771FEA95D1F7040F151FA4
:100CE000261F371F0093D3001093D4002093D50004
:100CF0003093D6008091D3009091D400A091D5007C
:100D0000B091D600B7FF08C01092D3001092D40063
:100D10001092D5001092D6008091D3009091D4000B
:100D2000A091D500B091D6000197A046B10560F022
:100D300080E090E0A0E6B0E08093D3009093D400F0
:100D4000A093D500B093D6008091D3009091D400A9
:100D5000A091D500B091D600892F9A2FAB2FBB2739
:100D6000A7FDBA951F910F910C94CB051F910F9180
:100D70000895BC018EE00C94D508DE98D698BD9AF3
:100D8000BE9ABF9A8EEA86B9369A089584B135B173
:100D9000E091E4002FB7F89490E0932BF0E0DF01AE
:100DA000AA0FBB1FA352BD4F11969C938E933091F7
:100DB000DD00332391F0EE0FFF1FEE0FFF1FE15018
:100DC000FD4F4081518162817381480F591F611D20
:100DD000711D40835183628373832FBF0895CF9326
:100DE0000E94FC219093FC028093FB020E946F1BE7
:100DF0009093FE028093FD028091DD00882309F428
:100E000059C00E94FC2140913B0350913C036091EA
:100E10003D0370913E03CAE09C01C29FC001C39F85
:100E2000900D1124480F591F611D711D40933B0304
:100E300050933C0360933D0370933E030E946F1BED
:100E400040913F03509140036091410370914203F0
:100E50009C01C29FC001C39F900D1124480F591FD0
:100E6000611D711D40933F03509340036093410304
:100E70007093420380914303909144030197B9F426
:100E80008091070390910803A0910903B0910A0390
:100E900052E0B695A795979587955A95D1F7809387
:100EA000070390930803A0930903B0930A03CF911B
:100EB0000C94D20DCF910895089580918203909162
:100EC0008303892BE9F04091E1004423C9F081E0DC
:100ED00090E00090DF0002C0880F991F0A94E2F7AB
:100EE00020914303309144032F703FB7F8945BB3D4
:100EF0009BB3982B9BBB240F2A95F1F75BBB3FBF9D
:100F000008958091DC008F5F803108F080E080934D
:100F1000DC008091DE009091DF00A091E000B091B4
:100F2000E1008093E2009093E300A093E400B0938B
:100F3000E500E091DC00EF5FE03108F0E0E084E004
:100F4000E89FF0011124EA59FE4F85919591A591F2
:100F5000B4918093DE009093DF00A093E000B09303
:100F6000E1008091840390918503892B39F0809171
:100F7000DE00873019F486E08093DE008091DC008B
:100F800081110CC00E94EF068091430390914403AD
:100F900021E0892B09F420E02093DD0008950E94D0
:100FA000C6068091DB0091E0980F9093DB008730BC
:100FB00079F128F4882341F08130A9F00895883030
:100FC00049F1893061F108958091DE0087FD05C007
:100FD00088B38F71806C88BBD69A8091E400823090
:100FE00011F50C943B068091DE0087FD1CC04FB7C5
:100FF000F8943AB33F7B28B38091DE0050E285023B
:10100000C00111242F71282B28BB3ABB4FBF089574
:101010000C945D078091DF00806287B9089510927B
:10102000DB000C94810708951F920F920FB60F9268
:1010300011242F933F934F935F936F937F938F93DD
:101040009F93AF93BF93EF93FF930E94CF07FF91BE
:10105000EF91BF91AF919F918F917F916F915F9130
:101060004F913F912F910F900FBE0F901F901895A9
:101070001F920F920FB60F9211242F933F934F930D
:101080005F936F937F938F939F93AF93BF93EF93F0
:10109000FF930E945C36FF91EF91BF91AF919F91BA
:1010A0008F917F916F915F914F913F912F910F9011
:1010B0000FBE0F901F90189588E085BD85B58460A0
:1010C00085BD14BC8CE783BD89B7806889BF08954E
:1010D0001F920F920FB60F9211242F933F934F93AD
:1010E0005F936F937F938F939F93AF93BF93EF9390
:1010F000FF932091EC003091ED008091E8009091F9
:10110000E900820F931F9093E9008093E8002091FB
:10111000EA003091EB008091E6009091E700820FA9
:10112000931F9093E7008093E6002FB7F894809187
:10113000E8009091E90035E0969587953A95E1F7BA
:101140009BBD8ABD8091E6009091E70045E09695B1
:1011500087954A95E1F799BD88BD2FBF8091E8003A
:101160009091E9008F7199279093E9008093E800AE
:101170008091E6009091E7008F7199279093E700A6
:101180008093E6000E941A05FF91EF91BF91AF9105
:101190009F918F917F916F915F914F913F912F918F
:1011A0000F900FBE0F901F9018959FB7F8948E3038
:1011B00039F47093ED006093EC008FB5806808C03F
:1011C0008D3039F47093EB006093EA008FB5806244
:1011D0008FBD9FBF089580E092E097BD86BD82E0FD
:1011E0008FBD89E18EBD89B7846089BF08958E3037
:1011F00019F48FB58F7704C08D3019F48FB58F7DBA
:101200008FBD08951F920F920FB60F9211242F9346
:101210003F934F938F939F93EF93FF935A991AC0E5
:101220004CB180910402909105020196992720917A
:101230000602309107028217930769F0E0910402D9
:10124000F0910502EC5FFE4F40839093050280937E
:10125000040201C08CB1FF91EF919F918F914F914A
:101260003F912F910F900FBE0F901F9018951F92D6
:101270000F920FB60F9211242F933F938F939F934A
:10128000EF93FF93209104023091050280910602B2
:10129000909107022817390711F4559812C0E09170
:1012A0000602F0910702EC5FFE4F2081809106025A
:1012B0009091070201969927909307028093060266
:1012C0002CB9FF91EF919F918F913F912F910F90AA
:1012D0000FBE0F901F901895CF92DF92EF92FF9262
:1012E000CF93DF93EC016A017B01411581EE580732
:1012F00061057105F9F0E885F98581E090E00C88D9
:1013000002C0880F991F0A94E2F7808360E079E0B9
:101310008DE390E0A70196010E94443E21503109DF
:10132000410951095695479537952795211580E133
:10133000380798F0E885F985108260E874E88EE156
:1013400090E0A70196010E94443E215031094109D5
:1013500051095695479537952795EC81FD81308346
:10136000EE81FF8120831D8AEA85FB85408181E033
:1013700090E09C01098802C0220F331F0A94E2F713
:10138000422B4083EA85FB8540819C010A8802C08C
:10139000220F331F0A94E2F7422B4083EA85FB8534
:1013A00020810B8802C0880F991F0A94E2F780956C
:1013B00082238083DF91CF91FF90EF90DF90CF90D9
:1013C0000895CF93DF93FC0182819381DC01B39573
:1013D000EC01CE5FDE4F4D915C91119728813981F0
:1013E00042175307C1F7A285B3854C9181E090E085
:1013F0009C01018802C0220F331F0A94E2F7209556
:1014000024232C93A285B3854C919C01028802C0B1
:10141000220F331F0A94E2F7209524232C93A285F0
:10142000B3852C91038802C0880F991F0A94E2F7B4
:10143000809582238C9380819181FC01EE5FFE4F29
:1014400020813181FC01F39531832083DF91CF919D
:101450000895FC018589882329F0A085B1858C91A8
:1014600086FFFBCF158A0895CF93DF93FC0122817D
:101470003381D901B3958D919C911197019699274C
:10148000E901CE5FDE4F4881598184179507D9F372
:101490000D90BC91A02DA20FB31F6C93A281B381BC
:1014A000B39511969C938E93A285B3852C9181E080
:1014B00090E0038802C0880F991F0A94E2F7282B56
:1014C0002C9381E0858B0084F185E02D8081806400
:1014D000808381E090E0DF91CF91089584E091E0F6
:1014E0009093EF008093EE009093F1008093F000D2
:1014F00080E490E09093F3008093F20029E230E0E2
:101500003093F5002093F4002BE230E03093F700A5
:101510002093F6002AE230E03093F9002093F8009F
:101520009093FB008093FA008CE290E09093FD0092
:101530008093FC0084E08093FE0083E08093FF00B2
:1015400087E08093000185E08093010181E0809332
:1015500002010895CF93DF931F92CDB7DEB7E091DC
:10156000C804F091C904309711F4ECECF4E0CE011A
:1015700001962EEB8E179F0710F02193FBCF0F9053
:10158000DF91CF910895CF93DF9300D0CDB7DEB731
:101590002091C8043091C9042115310511F42CECB7
:1015A00034E0CE010196821B930B0F900F90DF91D8
:1015B000CF910895CF93DF931F92CDB7DEB72091DF
:1015C000C8043091C9042115310511F42CEC34E024
:1015D000F901AE014F5F5F4FCF01821B930B4E1796
:1015E0005F0728F060816E3B11F43196F5CF0F90C4
:1015F000DF91CF910895009741F0EFE9FFE0319737
:10160000F1F700C000000197F6CF089584369105E8
:1016100038F064E670E00E94303ECB010C94FB0A87
:10162000019728F025E32A95F1F70000F9CF0895F6
:101630006AE070E00E94303ECB010C94060BE82F6C
:10164000F0E0EE0FFF1FE554FD4F8081918108957A
:10165000E82FF0E0EE0FFF1FEF58FD4F80819181E2
:1016600008952FB7F894E82FF0E0EE0FFF1FE35234
:10167000FD4F808191812FBF089580914603089589
:1016800080912502909126020895809113029091F5
:101690001402089580911502909116020895E82F82
:1016A000F0E0EE0FFF1FE95DFD4F8081918108950D
:1016B000262F613110F4423040F021E030E0FC018F
:1016C0003383228331832083089550E0BA01620F6F
:1016D000711D620F711D660F771F660F771F665FA2
:1016E0007F4F44E050E00C94AC3E282FCA012131DA
:1016F00088F4623078F470E0620F711D620F711D22
:10170000660F771F660F771F665F7F4F44E050E0DC
:101710000C94CA3E0895FF920F931F93CF93DF93CB
:1017200000D000D0CDB7DEB70EED10E0F12CF801FF
:10173000459155916591749149835A836B837C835C
:10174000AE014F5F5F4F60E08F2D0E94750BF80177
:101750003496459155916591749149835A836B8371
:101760007C83AE014F5F5F4F61E08F2D0E94750B50
:10177000F394085F1F4F81E1F812D9CF81E00E94F6
:10178000AD110F900F900F900F90DF91CF911F919F
:101790000F91FF90089581E020919B0230919C026F
:1017A0002331310509F080E00895809199029091EC
:1017B0009A020895809195029091960208958091E1
:1017C0009F029091A002089580914F029091500243
:1017D000039750F08091550290915602039720F0A4
:1017E00083E090E00C94E01880E008952FB7F8941F
:1017F00080E090E0FC01EE0FFF1FEE0FFF1FE150B5
:10180000FD4F10821182128213820196813191055F
:1018100089F784E690E09093440380934303109209
:1018200045032FBF0895CF93CFB7F89410922402A9
:101830001092230210921F02109220021092210295
:101840001092220210921B0210921C0210921D0292
:1018500010921E0210921702109218021092190292
:1018600010921A020E948436909312028093110201
:10187000CFBFCF9108950E94130C109216021092C0
:10188000150210921402109213020895E7E2F2E09A
:101890001192119282E0E137F807D1F70895CF93C2
:1018A000CFB7F89481E090E0909344038093430392
:1018B00081E0809345030E94460CCFBFCF910895ED
:1018C000CF93DF930E944F0CC0912502D091260246
:1018D0008091250290912602C817D90729F48AE041
:1018E00090E00E94AA36F4CFDF91CF910895109234
:1018F000460380E00C944205CF93DF9381E00E9481
:10190000310BEC0180E00E94310B8C179D0718F41D
:10191000C81BD90B02C0C0E0D0E081E0C93ED34073
:1019200008F480E0DF91CF9108958F929F92AF925B
:10193000BF92CF92DF92EF92FF92CF93DF93CDB71A
:10194000DEB728970FB6F894DEBF0FBECDBFF82ED6
:101950005B0161157105D1F140E0682FCE0105965C
:101960000E94580B41E06F2DCE0101960E94580B4A
:101970002B813C8140E050E0CF80D884E12CF12CD9
:101980002C193D094E095F09B50180E090E08D807A
:101990009E80A12CB12C681979098A099B090E94A3
:1019A000143E29813A8140E050E0281939094A095A
:1019B0005B090E94663E2C0D3D1D4E1D5F1D57FFAD
:1019C00003C020E030E0A901C90102C080E090E03E
:1019D00028960FB6F894DEBF0FBECDBFDF91CF9132
:1019E000FF90EF90DF90CF90BF90AF909F908F903F
:1019F00008958F929F92AF92BF92CF92DF92EF9213
:101A0000FF92CF93DF93CDB7DEB728970FB6F89448
:101A1000DEBF0FBECDBFF82E5B0161157105D1F1A0
:101A200040E0682FCE0105960E94580B41E06F2DD3
:101A3000CE0101960E94580B29813A8140E050E086
:101A4000CD80DE80E12CF12C2C193D094E095F0977
:101A5000B50180E090E08F809884A12CB12C6819AA
:101A600079098A099B090E94143E2B813C8140E040
:101A700050E0281939094A095B090E94663E2C0D7D
:101A80003D1D4E1D5F1D57FF03C020E030E0A90142
:101A9000C90102C080E090E028960FB6F894DEBF3E
:101AA0000FBECDBFDF91CF91FF90EF90DF90CF9031
:101AB000BF90AF909F908F9008958250893130F4FD
:101AC000E82FF0E0EF58FF4F8081089581E00895FE
:101AD000CF93DF93833149F481E020919B023091D1
:101AE0009C0223313105C1F41AC0E82FF0E0EE0F5B
:101AF000FF1FEF58FD4FC081D1810E945D0D8823EB
:101B000019F0813029F00AC081E0E39740F404C065
:101B100081E0C935D24018F480E001C081E0DF9156
:101B2000CF910895CF93C0E08FE18C0F0E94680D94
:101B3000882329F0CF5FC630B9F786E001C08C2F2B
:101B4000CF9108951F93CF93DF931F92CDB7DEB748
:101B5000182F69830E945D0DE12FF0E0EE0FFF1F4B
:101B6000EF58FD4F4981682F808191810F90DF915F
:101B7000CF911F910C947A3A2FB7F89460910D028F
:101B800070910E0280910F02909110022FBF2DE7ED
:101B900030E040E050E00E94443EBB27A52F942F48
:101BA000832F08958091430390914403892B49F03A
:101BB0008091430390914403019790934403809351
:101BC0004303089590E0880F991FFC01EF58FD4FE3
:101BD000208131816217730718F4261B370B04C06C
:101BE000AB01421B530B9A01FC01E95DFD4F27300D
:101BF000310518F01182108206C0208131812F5FDB
:101C00003F4F31832083FC01EF58FD4F7183608388
:101C100008958FB7F89410920D0210920E02109250
:101C20000F02109210021092090210920A021092F2
:101C30000B0210920C028FBF0E944F0C0E943B0CB3
:101C400060E070E089E10E94E20D60E070E08BE10D
:101C50000E94E20D60E070E08CE10E94E20D60E025
:101C600070E08DE10C94E20D109226021092250294
:101C70000E94090EE1E7F2E01192119282E0EB3B43
:101C8000F807D1F70895CF93C82F809146038111AB
:101C90000CC081E00E944205C1110E94340E81E017
:101CA00080934603CF910C94600CCF9108950C94CF
:101CB000340E80914603882309F44FC040919F025F
:101CC0005091A00280910D0290910E02A0910F02FE
:101CD000B0911002840F951FA11DB11D80930D02BC
:101CE00090930E02A0930F02B0931002809108020D
:101CF00091E0980F90930802883578F12091950231
:101D000030919602DA010E94F33D24E630E040E093
:101D100050E00E94443E8091090290910A02A091F5
:101D20000B02B0910C02280F391F4A1F5B1F209332
:101D3000090230930A0240930B0250930C02CA012D
:101D4000B90120EA3CE840E050E00E94443EB9017D
:101D50008AE10E94E20D109208020895CF92DF926C
:101D6000EF92FF920F931F93CF93DF931F92CDB704
:101D7000DEB7C0907102D090720280917302909190
:101D800074028C159D0518F4C81AD90A02C0C12C1A
:101D9000D12CB60182E10E94E20D03E812E09FE13E
:101DA000F801619171918F01892F99830E94E20D51
:101DB00099819F5F9532A1F70E94920DF82E80E0E5
:101DC00000E010E08F1569F0EFE1E80FF0E0EE0FB2
:101DD000FF1FEF58FD4F20813181020F131F8F5FCE
:101DE000F1CFB80183E10E94E20D0115110581F0E8
:101DF0000C151D0520F49601201B310B03C0980122
:101E00002C193D09293B3B4018F4680113E102C03D
:101E100012E1F12CB60184E10E94E20D6F2D70E019
:101E200086E10E94E20D612F70E085E10E94E20DE3
:101E30000E94BC0D7C010E94601B882329F0009148
:101E40007702109178020BC00E94ED21882329F0BF
:101E5000009175021091760202C000E010E0B80116
:101E600087E10E94E20DB70189E10E94E20D98012D
:101E7000D6010E94F33D20E137E240E050E00E94AD
:101E8000443EB90188E10F90DF91CF911F910F91EE
:101E9000FF90EF90DF90CF900C94E20D4F925F9205
:101EA0006F927F928F929F92AF92BF92CF92DF926A
:101EB000EF92FF92CF93DF93CDB7DEB728970FB69F
:101EC000F894DEBF0FBECDBF0E9484362091110270
:101ED00030911202821B930B8133954708F4A0C006
:101EE0004FB7F8942091230230912402A8EEB3E07A
:101EF0000E94F33D6B017C01F694E794D794C7945C
:101F000040901F02509020026090210270902202A7
:101F100060911B0270911C0280911D0290911E0223
:101F20008090170290901802A0901902B0901A02A7
:101F30004FBF6D837E838F8398870E94130C2091FF
:101F40001502309116022F5F3F4F309316022093F7
:101F500015026D817E818F819885A70196010E946F
:101F6000443E29833A834B835C83C301B201A701BA
:101F700096010E94443EB90180E00E94950C3C010C
:101F800069817A8181E00E94950C8615970518F485
:101F9000681A790A02C0612C712C4090A9025090F5
:101FA000AA026414750420F0B3018CE10E94E20DD2
:101FB000B301641975098BE10E94E20DC501B401FA
:101FC000A70196010E94443EB90187E00E94950C4A
:101FD0002091130230911402909314028093130203
:101FE000BC01621B730B660F771F8DE10E94E20D2F
:101FF000B6018EE128960FB6F894DEBF0FBECDBFB6
:10200000DF91CF91FF90EF90DF90CF90BF90AF9096
:102010009F908F907F906F905F904F900C94E20D07
:1020200028960FB6F894DEBF0FBECDBFDF91CF91DB
:10203000FF90EF90DF90CF90BF90AF909F908F90E8
:102040007F906F905F904F900895CF92DF92EF92C4
:10205000FF920F931F93CF93DF932FB7F894809144
:102060004303909144032FBF892B09F0ADC08091A9
:10207000450381119FC0809125029091260201960F
:1020800090932602809325024091FF025091000315
:102090006091010370910203769567955795479576
:1020A00080911F0290912002A0912102B091220202
:1020B000840F951FA61FB71F80931F0290932002C5
:1020C000A0932102B0932202409103035091040394
:1020D000609105037091060376956795579547952E
:1020E00080911B0290911C02A0911D02B0911E02D2
:1020F000840F951FA61FB71F80931B0290931C028D
:10210000A0931D02B0931E0240911B0350911C032B
:1021100060911D0370911E037695679557954795BD
:102120008091170290911802A0911902B0911A02A1
:10213000840F951FA61FB71F809317029093180254
:10214000A0931902B0931A02809123029091240265
:10215000019690932402809323020E944E0F0BEB72
:1021600012E0C0E0D0E0B8EECB2EB3E0DB2EE12CE5
:10217000F12CFE01EE0FFF1FEE0FFF1FE150FD4F90
:102180006081718182819381A70196010E94443E02
:10219000F801219331938F01B9018C2F0E94950C86
:1021A000BC018C2F0E94E20D2196C131D10509F7A7
:1021B0000E94AE0EDF91CF911F910F91FF90EF9093
:1021C000DF90CF900C94F60BDF91CF911F910F9180
:1021D000FF90EF90DF90CF9008958091460381119A
:1021E0000C942510089560E087E493E00E94F5299F
:1021F00087FD0AC0811102C00C94272A992787FD08
:10220000909501970C94F12B08950E946B0578949A
:102210000E940B050E945C080E9495220E94E21B0E
:102220000E94570E0E94AA0A0E94FF120E94C93003
:102230000E94E5310C9436120E9405110E94F310A1
:10224000FDCF66EA71E087E493E00E94652F8EE897
:1022500090E09093480380934703EBE4F3E08081A0
:10226000825E80830895FC0124812E51621710F450
:102270000C94602F862F90E0821B91090E94FB1521
:102280006EE00C94C838FF920F931F93CF93DF93A7
:10229000EC018B0141110E94EB3E85E0F82EFA948F
:1022A00059F0CE010E94C43E8017910739F084E6B0
:1022B00090E00E949636F3CF81E001C080E0DF918C
:1022C000CF911F910F91FF900895EF92FF920F937E
:1022D0001F93CF93DF937B018C01E80EF91ECFEFA4
:1022E000DFEF0E151F05A9F0C8010E94BC3EC827EC
:1022F00028E0CE01969587953C2FEC0130FF04C075
:1023000031E0C32730EAD327215099F70F5F1F4FE1
:10231000E8CFCE01DF91CF911F910F91FF90EF9009
:102320000895EF92FF920F931F93CF93DF931F9225
:10233000CDB7DEB78C017B0149830E9465114981CD
:10234000BC01C8018E0D9F1D0F90DF91CF911F9191
:102350000F91FF90EF900C944311482F68E870E0C4
:102360008AE090E00C949111482F6CE073E084E9CE
:1023700090E00C949111482F6CE370E082EA93E0B6
:102380000C9491110F931F93CF93DF93D82F182F95
:102390001170412F63E678E680E090E00E944311DF
:1023A000C82F412F6CE679E682E090E00E9443114D
:1023B0008111C1E0D1FB002700F9402F69E070E0F6
:1023C00084E090E00E9443118111C260D2FB11278A
:1023D00010F9412F62E070E086E090E00E94431126
:1023E0008111C460D3FBDD27D0F94D2F68E070E088
:1023F00088E090E00E9443118111C86001110E94A1
:102400008B0B80E00E94AD118111C26011110E94FE
:10241000381780E00E94B4118111C460D1110E946C
:10242000181380E00E94BB118111C8608C2FDF91CE
:10243000CF911F910F910895CF93C82F0E94A03183
:10244000882389F0C0FDC260C1FDC460C2FDC860C0
:102450000E94BD318C2F0E94C211682F8C2F0E94C8
:10246000C13181E001C080E0CF91089580E00E94F9
:10247000C21181110C941C1281E0089580E00E9429
:10248000C21181600C941C12CF930E94BF308EEF5A
:1024900092E09093D6038093D503C1E0C093D40318
:1024A0001092CC0380E993E00E944E14823011F424
:1024B000C093CC030E94C11A91E0813009F090E0F2
:1024C000892FCF91089561E081E00E94201A8AE06F
:1024D00093E09093D6038093D503089561E081E063
:1024E0000E94201A86E193E09093D6038093D5034F
:1024F000089560E082E00E94201A88EF92E09093B5
:10250000D6038093D5030895909170039093CD03E3
:102510001092CC0390E08830910560F5FC01E65DF7
:10252000FF4F0C94853E80E993E00E944E14811188
:1025300006C00E946E121CC081E08093CC030E94F2
:10254000631216C082EF92E00CC00E94791210C094
:1025500085E08093CD03F3CF81E08093CC0380E1CD
:1025600093E09093D6038093D50302C00C948B170D
:102570000C94C11A80E00895CF93C82F0E94C727FA
:10258000882359F1C09353031092510310925003C2
:1025900083E0809352030E946F3C81E00E94430ECF
:1025A0000E944412882391F081E0809352030E949C
:1025B000C31D0E94BF301092D40384E00E94623594
:1025C000809153030E9484120E94071E0E94770C80
:1025D0000E947F3CCF910C94C830CF910895DC01CC
:1025E000D296ED91FC91D397EE0FFF1FEE0FFF1FD8
:1025F000EE54FE4F659175918591949108954CE349
:1026000050E062EA73E084E593E00C94AC3E4CE366
:1026100050E062EA73E084E593E00E94CA3E81E004
:102620000C94BB114CE350E066EC71E00C948B3ED3
:1026300084E593E00E9412130C940713FC01268991
:1026400037892630310520F025E030E0378B268BA6
:10265000089508950F931F93CF93DF93CDB7DEB7FF
:10266000C754D1090FB6F894DEBF0FBECDBF8C01A1
:10267000BC01CE0101960E943B2CCE0101960E9426
:10268000582C8CE3FE013C96D80101900D928A955E
:10269000E1F70E940713C95BDF4F0FB6F894DEBF66
:1026A0000FBECDBFDF91CF911F910F910895FC0117
:1026B00025913491F901099440E0FC012591349170
:1026C0000296232B11F04F5FF8CF842F0895282F07
:1026D00081E090E03AE0215038F0AC01349FC00135
:1026E000359F900D1124F7CF089597FD02C081E02A
:1026F00008958FEF0895CF92DF92EF92FF92CF93DC
:10270000611571058105910521F461E070E080E0BB
:1027100090E0C0E02AE0C22ED12CE12CF12CCF5F5A
:10272000A70196010E94443ECA01B9012115310555
:1027300041055105A1F78C2FCF91FF90EF90DF90CD
:10274000CF900895BC0180E090E00C947B13CF9271
:10275000DF92EF92FF920F931F93CF93DF93EC01E1
:102760007B016A01E881F981CF01B8010E94303E06
:10277000009731F01E141F049CF4081B190B03C0B2
:102780001E141F0474F4C901801B910BE817F9078C
:1027900018F40E0F1F1F01C08901198308830DC093
:1027A0008C01C8018C0D9D1D8E179F0718F4E01B2E
:1027B000F10B01C0F601F983E883DF91CF911F91FE
:1027C0000F91FF90EF90DF90CF9008950F931F939C
:1027D000242F30E001E010E040E050E00E94A71319
:1027E0001F910F9108950F931F93242F30E001E064
:1027F00010E041E050E00E94A7131F910F9108954F
:10280000AF92BF92CF92DF92EF92FF920F931F93FE
:10281000CF93DF93EC017B016A01590168817981D3
:1028200080E090E00E947B13823020F082500E9472
:10283000671302C081E090E08C019501A601B70109
:10284000CE010E94A713DF91CF911F910F91FF90AE
:10285000EF90DF90CF90BF90AF9008952FEF3FEFB4
:1028600040E050E00C9400140E94EF368111FCCF40
:102870000E94EF368823E1F30895CF93CAE00E94C7
:10288000C336811108C084E690E00E94AA36C15088
:10289000B1F780E001C081E0CF910895FC01808113
:1028A00091818930910579F09C01245031092530BE
:1028B000310558F09C012150310981E02230310569
:1028C00028F480E0089583E0089582E00895CF938E
:1028D000DF93FC012081318145E0429FF001439F5D
:1028E000F00D1124E60FF11DEE0FFF1FE257FD4F13
:1028F000C591D4916130C9F42230310529F4C091D9
:102900006603D09167031DC02130310529F4C091C1
:102910006803D091690315C00E944E14823089F477
:1029200080917803909179030AC0623051F40E943B
:102930004E14823031F480917A0390917B03C80F5A
:10294000D91FCE01DF91CF910895FF920F931F936E
:10295000CF93DF938C01F62EFC01C085D1850E94B8
:102960006714F2E0FF120CC0F8012081318122309F
:10297000310531F4C730D10518F0219780EB94E090
:102980009C012C9FC0012D9F900D3C9F900D112408
:10299000DF91CF911F910F91FF9008950F931F9397
:1029A000CF93DF93EC018B0150E00E94B9374AE3EB
:1029B000B801CE01DF91CF911F910F910C94653733
:1029C000EF92FF920F931F93CF93DF9300D01F924C
:1029D000CDB7DEB78C01462F0C969A8389838EE0A3
:1029E0008B83D801ED91FC91EE0FFF1FEE5FFD4F41
:1029F000E590F490BE016D5F7F4FCE0101960E947D
:102A0000CE14A701BE016D5F7F4FCE0101960E94DB
:102A1000803740E2BE016D5F7F4FCE0101960E947C
:102A20006537F80142815381BE016D5F7F4FCE0152
:102A300001960E94B9374FE2BE016D5F7F4FCE0114
:102A400001960E946537D80118964D915C911997AF
:102A5000BE016D5F7F4FCE0101960E94B9370F9086
:102A60000F900F90DF91CF911F910F91FF90EF90FA
:102A70000895CF93DF9300D01F92CDB7DEB7462FD6
:102A80002EE02B830C969A838983BE016D5F7F4F66
:102A9000CE0101960E94CE140F900F900F90DF91FF
:102AA000CF9108952AE1289FB001299F700D11242C
:102AB0006C567F4F4AE150E080E993E00C94AC3EC5
:102AC0002AE1289FB001299F700D11246C567F4F79
:102AD0004AE150E080E993E00C94CA3EFC01A281F7
:102AE000B38120917403309175030E94F33D24E675
:102AF00030E040E050E00E94443E293EFDEF3F07B9
:102B00004105510520F028EE3DEF40E050E0C901BD
:102B10000895FC01208131812130310529F4209173
:102B20006403309165030AC02230310529F42091F5
:102B300062033091630302C020E030E0FC01808535
:102B40009185AC01249FC001259F900D349F900D6D
:102B500011240895FC01208131814CE0429FB00195
:102B6000439F700D11246A5E7D4F4CE050E00C9441
:102B70008B3EFC01608182E092E00C948E38CF9312
:102B8000DF93EC018881998160E0892B41F4CE01CB
:102B90000E94A51467E0DF91CF910C94C23ACE0158
:102BA0000E94A51465E00E94C23A8FE20E940D388F
:102BB000888599850E944C3883E4DF91CF910C94ED
:102BC0000D3866E0FC01848195810C94BE3A66E084
:102BD000FC01868197810C94BE3AFC01828193812D
:102BE000883EFDEF9F0721F48DE798E00C9476383E
:102BF00067E00C94BA3A2AE1AC01249FC001259FFA
:102C0000900D112480569F4F08950F931F93CF93DB
:102C1000DF93CDB7DEB7A7970FB6F894DEBF0FBE30
:102C2000CDBF8C01AB01BC01CE0101960E94802A70
:102C3000CE0101960E94052B8AE1FE013C96D80147
:102C400001900D928A95E1F7A7960FB6F894DEBF32
:102C50000FBECDBFDF91CF911F910F910895FC0161
:102C600020813181260F371F2A30310550F016168A
:102C7000170624F4FC011182108205C029E030E01F
:102C8000FC01318320830C94AA1562E00E94A514F4
:102C90009C0140E050E060E074EB84EC94E00E9422
:102CA000443E213787E138074105510520F020E7F0
:102CB00037E140E050E0C901089562E00E94A514A8
:102CC0009C0140E050E060E876E988E990E00E94ED
:102CD000443E213D87E038074105510520F020EDB5
:102CE00037E040E050E0C901089561E00E946714B8
:102CF000BC0188E799E60E94303ECB010895CF934E
:102D0000DF93EC018A819B818436910520F484E66F
:102D100090E09B838A838A819B81893E9D4F20F02E
:102D200088EE9DEF9B838A838A859B85893E9340AD
:102D300020F088EE93E09B878A87CE010E9475166B
:102D4000288539858217930710F499878887CE01E3
:102D50000E9445162C813D818217930710F49D83B4
:102D60008C83CE010E945D162E813F8182179307CE
:102D700010F49F838E8380917203909173032C8152
:102D80003D812817390710F49D838C832E813F8164
:102D90002817390710F49F838E83DF91CF91089510
:102DA000EF92FF920F931F93CF93DF9300D0CDB795
:102DB000DEB77C01FC0180819181892B19F402E34B
:102DC00010E002C001E010E0C70169837A830E942D
:102DD00075169C0141E050E069817A81C70108962F
:102DE0000E94A713C7010F900F90DF91CF911F9101
:102DF0000F91FF90EF900C947F160F931F93CF933A
:102E0000DF93EC0102960E942E14CE010E947F16E1
:102E10000A811B81169507951D830C83CE010E94A4
:102E20004E14813021F4169507951D830C838C81F7
:102E30009D819F838E83CE01DF91CF911F910F9152
:102E40000C947F16CF93DF93EC0104960E942E140E
:102E5000CE01DF91CF910C947F16CF93DF93EC01DD
:102E600006960E942E14CE01DF91CF910C947F160E
:102E70000F931F93CF93DF934CE050E06EE572E029
:102E800080E993E00E948B3E80E993E00E947F16E8
:102E9000C0E0D0E08E010F5F1F4FB80180E993E0E2
:102EA0000E943915CE010E9460150E31110511F0F6
:102EB000E801F0CF81E0DF91CF911F910F910C9449
:102EC000B411FC0182859385883EF3E09F0719F4D5
:102ED0008DE798E005C063E00E94593A88E798E0E2
:102EE0000C947638CF93DF93EC010A960E942E144F
:102EF000CE01DF91CF910C947F1680916C0390915D
:102F00006D030E94A71C84E093E09093D603809306
:102F1000D5030C94C11A81E08093D4031092AA03C4
:102F20004091AA03242F30E080916A0390916B03B3
:102F3000880F991F01972817390711F41092D403AD
:102F400040FF02C080E001C083E00E948412813013
:102F500089F49091D403992369F08091AA038F5F3B
:102F60008093AA030E94A61D0E94090E0E947D174D
:102F70008130B1F208958091C903811113C00E947C
:102F80003D0B882381F00E94400B2091AB033091D0
:102F9000AC03821B930B9C0181E02330310518F0B8
:102FA00080E0089581E00895815E0C94280B0F93D2
:102FB0001F93CF93DF9310E0CFEFDFEF00E080911E
:102FC000CB03181760F4812F0E94D4178C179D072C
:102FD00010F0CE0101C0012F1F5FEC01F0CF802F58
:102FE000DF91CF911F910F910895CF93DF9390912F
:102FF000C903911104C0DF91CF910C94D417909123
:10300000AF03C82FD0E0992391F00E94D417CC0FC2
:10301000DD1FFE01E055FC4FC454DC4F208131819F
:1030200048815981241B350B280F391F07C0FE0129
:10303000EE0FFF1FE055FC4F20813181C901DF9168
:10304000CF910895EF92FF920F931F93CF93DF9349
:10305000C0E0D0E0E12CF12C0FEF1FEF8091CB030B
:1030600090E0C817D9076CF48C2F0E94F517E8166A
:10307000F90608F47C018017910708F48C01219669
:10308000EDCFE01AF10A81E02091800330918103B5
:103090002E153F0508F080E0DF91CF911F910F9131
:1030A000FF90EF900895CF93C82F8091C903882394
:1030B00041F0C11106C00E94400B9093AC03809375
:1030C000AB03C093C9030E94460C8091C8038111D1
:1030D00004C08C2FCF910C944C05CF910895EF92A2
:1030E000FF920F931F93CF93DF9381E00E94FB0425
:1030F00086E10E94280B8093CB030CEB13E030EBAE
:10310000E32E33E0F32EC0E0D0E08091CB0390E0DB
:10311000C817D9076CF48C2F0E94D417F80181933B
:1031200091938F01F701819391937F012196EDCFC8
:103130001092C9031092C80380E00E9453181092A5
:10314000AC031092AB038FEF8093CA03DF91CF9152
:103150001F910F91FF90EF90089580E00E94531807
:1031600081E08093C80308950E94AD1880E00C941C
:10317000FB04FF920F931F93CF93DF938091CA03B9
:1031800087FD17C00E94F517EC0110E0FF24F394AF
:1031900000E08091CB03181750F4812F0E94F5179F
:1031A000C817D90708F40F29FF0C1F5FF2CF802F33
:1031B00001C080E0DF91CF911F910F91FF900895A2
:1031C0001F93CF93DF93EC0110E08091CB0318178E
:1031D00048F48FE1810F0E944F0B8C179D0720F060
:1031E0001F5FF3CF81E001C080E0DF91CF911F919D
:1031F00008959F92AF92BF92CF92DF92EF92FF928B
:103200000F931F93CF93DF9386E090E00E94E01826
:10321000882309F464C00E94E40B882309F45FC08A
:103220008091CA0387FF04C00E94D7178093CA0306
:103230008091CA030E94D4176C0162E080E993E098
:103240000E9467145C0140EBE42E43E0F42E0CEB8B
:1032500013E0C0E0D0E0992493948091CB0390E0F8
:10326000C817D907B4F48C2F0E94D4178A159B0570
:1032700070F0C816D90608F4912CF7018193919348
:103280007F01F801819391938F012196E6CF9924D4
:1032900093941092AF030E948C369093AE03809368
:1032A000AD03992069F0DF91CF911F910F91FF90AD
:1032B000EF90DF90CF90BF90AF909F900C94AD189F
:1032C0000E94B918DF91CF911F910F91FF90EF905D
:1032D000DF90CF90BF90AF909F900C945318DF91E8
:1032E000CF911F910F91FF90EF90DF90CF90BF9003
:1032F000AF909F900895CF938091AF03811115C037
:1033000081E08093AF03C0E08091CB03C81768F4DD
:103310008C2F0E94D417EC2FF0E0EE0FFF1FE45427
:10332000FC4F91838083CF5FEFCFCF9108950E94B0
:103330008C362091AD033091AE03821B930B089520
:103340008091C903811103C00E94F91809C00E942D
:103350007B190E949719409718F080E00E9453183B
:103360000E94BB17882311F082E008958091C80362
:103370008823D1F381E008951F93CF93DF93EC016D
:1033800010E08091CB03181740F4812F0E94F517AD
:103390008C179D0720F41F5FF4CF80E001C081E00F
:1033A000DF91CF911F9108951F93CF93DF93EC018D
:1033B00010E08091CB03181740F4812F0E94F5177D
:1033C000C817D90720F41F5FF4CF80E001C081E067
:1033D000DF91CF911F9108956091CB03662329F06F
:1033E00070E00E94303ECB01089580E090E00895A7
:1033F0000E94642261E081E00E94201A81E00E9424
:10340000C11F8091CE039091CF030C942F2281E0B5
:103410000C947A220E94E40B882321F00E9401225E
:103420000C945C20089520917203309173038217ED
:10343000930708F4C9019093CF038093CE030895B6
:10344000CF93C62F682F80E993E00E94A514909334
:10345000D3038093D203CC2329F0809194039091DD
:10346000950304C080919603909197039093D103A4
:103470008093D0036091CD0370E08091D003909150
:10348000D1030E94303ECB01CF910C94131A80914E
:10349000D5039091D6030C9457138091D503909146
:1034A000D60302960C9457130E944D1A0E94071ED1
:1034B0000C946137CF93DF930E948C36EC010E940D
:1034C0008C368C1B9D0B853B910510F00E94770C70
:1034D0000E94EF36882399F388E0DF91CF910C9416
:1034E0006235CF93DF930E94541A0E948C36EC0110
:1034F00085E00E9462350E94770C93980E94093102
:103500000E943D1481110FC00E9451320E943D144F
:10351000811109C00E948C368C1B9D0B853B910547
:1035200068F3939AEBCF88E00E94623580E0DF91E8
:10353000CF910C94430E0E94541A0E94770C0E9463
:103540000D3186E00E9462350C945A1AE091D50341
:10355000F091D603349685919491FC0109948111E0
:1035600003C00E949B1A0BC0813039F48091D403B0
:10357000811105C00E94711A02C081E0089580E0A7
:1035800008950F931F93CF93DF9310927F040E94AF
:10359000471A02E0C0E0D0E011E00E94EF368093CD
:1035A0007F040E943231112379F00E94471E082FB8
:1035B0000E94AF1A182F882339F00E94400BC817B9
:1035C000D90791F4111107C08091D403882311F019
:1035D000011114C010E080917F048130F1F60E9447
:1035E000C0368823D1F20AC00E94400BEC010E9431
:1035F000A61A082F0E94AF1A182FE4CF0E944D1A66
:10360000802FDF91CF911F910F91089581E00E944B
:10361000CF1B0C94B4180E94C11B0E946F1821E0AC
:1036200080917C0390917D03892B09F420E0209305
:10363000D70380E00C94C11F1F93CF93DF93C091F9
:10364000D203D091D303CE010E94EC190E94D41969
:10365000182F0E94BB17811109C0111107C00E94C9
:10366000D50B11E0C817D90708F410E0812FDF91BE
:10367000CF911F9108951F93CF93DF930E941C1B3E
:10368000182F0E94741BEC018091D703882329F026
:10369000BE01812F0E940B2001C0812F882329F0B9
:1036A00081E00E94CF1B81E007C0BE01812F0E94F4
:1036B0002A210E94A21B82E0DF91CF911F910895E1
:1036C00081E09091DC03911180E0089581E02091E8
:1036D000DA033091DB03232B09F480E00895809115
:1036E000DA039091DB0308958091D8039091D90378
:1036F00008950E94DA0B009711F481E090E09C019C
:1037000040E050E060E876E988E990E00E94443EBD
:10371000213D87E038074105510520F020ED37E0D5
:1037200040E050E0C9010895813020E4920710F094
:1037300080E090E49093DB038093DA030E94B90663
:103740000C944F0CCF93DF93EC010E94791BBC01CA
:10375000C817D90708F4BE018091D8039091D90306
:103760008617970759F07093D9036093D80380E1C7
:103770000E94F90CDF91CF910C94941BDF91CF91B3
:1037800008958091DC03882349F080E090E00E9456
:10379000941B81E00E940A061092DC030895CF93E7
:1037A000C82F8091DC0381110BC0CC2349F080E04D
:1037B00090E00E94941B80E00E940A06C093DC0304
:1037C000CF91089580E090E00E94941B81E00C94DA
:1037D000CF1B87E08093850482E0809386040E945B
:1037E0005B3583E08093DD0308950F931F93CF93A0
:1037F000DF938091CC03882379F00E94920D909101
:10380000980301E0981301C000E011E0811110E07D
:10381000913021F4112311F010E000E00E94CB0B55
:10382000882309F45CC083E10E94280BEC0182E14B
:103830000E94280BC817D90728F49C012C1B3D0BAC
:10384000E90102C0C81BD90BC53FD14008F447C0ED
:10385000C1E0011102C087E001C083E080938504CC
:10386000112329F080918504825080938504CC2314
:1038700029F080918504815080938504011104C052
:10388000111102C0CC2331F081E00E946235111188
:1038900007C004C088E00E94623508C0002331F0F0
:1038A00080917E0390917F03892B11F4D0E001C0B9
:1038B000D1E00E94C336811102C01092DD03D11104
:1038C00006C0C11104C00E94C336883051F08091F7
:1038D000DD03823011F481E00AC082E008C0C0E05C
:1038E000B8CF8091DD038F5F8093DD03F0CFDF9150
:1038F000CF911F910F9108958FEF8093850488E0F9
:103900000C9462351092E20308950E948C369093D5
:10391000E1038093E00308950E948C362091E00338
:103920003091E103821B930B2091DE033091DF0382
:103930002817390728F081E08093E20382E0089598
:103940001092E20381E008958091E20308952CE350
:10395000AC01249FC001259F900D11249093DF039B
:103960008093DE0308950E946F180E94642281E014
:103970000C94C11F81E00E947A220C94B4181F930A
:10398000CF93DF93C091D203D091D303CE010E9495
:10399000EC190E94BC19182F0E94BB17811109C095
:1039A000111107C00E94D50B11E08C179D0708F478
:1039B00010E0812FDF91CF911F9108951F93CF9336
:1039C000DF930E94BF1C182F0E940122EC01BC0152
:1039D000812F0E940B20882329F081E00E947A2207
:1039E00081E007C0BE01812F0E942A210E942F2260
:1039F00082E0DF91CF911F9108958091F103909122
:103A0000F2032091F403222341F00E948C3620918E
:103A1000F1033091F203821B930B08956091ED0343
:103A20007091EE038091EF039091F00328EE33E064
:103A300040E050E00E94443EC90108956091E903CE
:103A40007091EA038091EB039091EC0328EE33E050
:103A500040E050E00E94443EC90108950F931F9337
:103A6000CF93DF9361E080E993E00E94A5148C017D
:103A700064E080E993E00E94A514EC0184E10E94D7
:103A8000280B80179107B8F4C817D907B0F49C0128
:103A90002C1B3D0BC8018C1B9D0B64E670E00E9443
:103AA000303EC9010E94303E6436710510F063E675
:103AB00070E0862F03C083E601C080E0DF91CF91E4
:103AC0001F910F910895CF93DF930E942E1D909127
:103AD000F3039817E0F48093F3030E94FD1C2091F8
:103AE000F6033091F703EC01C21BD30B0E94FD1CBF
:103AF0009093F7038093F6038091F8039091F90374
:103B00008C179D0720F4D093F903C093F803DF913D
:103B1000CF9108950E94631D8091F503882311F0D1
:103B200089E601C084E690E02091F303821B9109AD
:103B30002091F8033091F903AC01429FC001439FEB
:103B4000900D529F900D1124089508950E942E1DEE
:103B50008093F3031092F7031092F6031092F90387
:103B60001092F8031092ED031092EE031092EF03FF
:103B70001092F0031092E9031092EA031092EB0303
:103B80001092EC030895CF93DF9368E572E080E034
:103B90000E94F90C9093E8038093E70361E080E9C9
:103BA00093E00E94A514EC01C854D44FC93729E60C
:103BB000D20710F0C8E7D9E6CE010E94EA05BE019F
:103BC00080E00E94F90C813C2FEF920710F080EC0E
:103BD0009FEF9093E6038093E5030E94CB0B8093C5
:103BE000F50380E993E00E946E159093E4038093BF
:103BF000E3030E948C369093F2038093F1030E94BA
:103C0000A61D81E08093F403DF91CF9108950E9477
:103C1000FD1C9093F2038093F1031092F403089536
:103C20000E94F32181111DC00E94661B811119C0E1
:103C30000E94BB17882351F18091ED039091EE0310
:103C4000A091EF03B091F00380599F4FAF4FBF4F4A
:103C50008093ED039093EE03A093EF03B093F003F2
:103C600008958091E9039091EA03A091EB03B0914C
:103C7000EC0380599F4FAF4FBF4F8093E903909360
:103C8000EA03A093EB03B093EC03D2CF0895CF9354
:103C9000DF938091F403811102C082E0D3C080E001
:103CA0000E94310B2091E5033091E60382179307C0
:103CB00058F42091E7033091E80382179307B8F492
:103CC0000E94601B882399F080E993E00E944E14C3
:103CD000823009F08BC080919803909199030297EC
:103CE00009F084C00E94CB0B811180C082C0C091BA
:103CF000F5030E94CB0BC81719F08EE499E09DC024
:103D0000C091D003D091D103C851DC4F0E94DF0B8A
:103D1000C817D90718F483E499E08FC086E00E94A1
:103D2000280B20917603309177038217930718F4BC
:103D300084E399E082C089E10E94280BC091E303EB
:103D4000D091E403C83E2DEFD207F9F08C179D0700
:103D5000E0F080E993E00E946E15C817D90709F0DA
:103D600050C080E993E00E944E14811164C080919C
:103D700092039091930360919403709195030E9434
:103D8000303E6A307105E8F556C0C0919A03D09173
:103D90009B03C83E83E0D807A0F46091E9037091CB
:103DA000EA038091EB039091EC0320E63AEE40E0C9
:103DB00050E00E94443E2C173D0718F089E199E03D
:103DC0001AC080915A0390915B03892B09F465CF47
:103DD00087E00E94280B20915C0330915D03281737
:103DE000390708F05ACF89E099E027C08DE599E0BE
:103DF00024C08DE599E0909351038093500381E0B6
:103E000021C0C091E303D091E40380E993E00E94D4
:103E10006E158C179D0730F484E299E0909351035E
:103E20008093500380E993E00E946E159093E40321
:103E30008093E303E4CF84E299E09093510380936D
:103E4000500380E0DF91CF9108950E94BA1C0E9438
:103E5000061B0C94B418CF93DF931F92CDB7DEB737
:103E60008091FA03882329F0813031F40E943B1BB2
:103E70000CC00E94DE1C09C00E94A019823089F08B
:103E800089830E94251F89810CC0813051F4909153
:103E9000CC03992331F082E08093FA030E946F18DB
:103EA00082E00F90DF91CF910895CF93DF930E942E
:103EB0006F1861E083E00E94201AC091D203D09174
:103EC000D3038091CB03811106C00E94D50BC81784
:103ED000D90740F40CC0CE010E94EC190E94D419FD
:103EE000882329F00E94B31C1092FA030BC060E0F3
:103EF00083E00E94201A0E940B1B81E08093D7036D
:103F00008093FA03DF91CF9108958091FB03813074
:103F100029F48091CE039091CF03089580E090E042
:103F200008952CE0829FC0011124895F9B4F0C945F
:103F3000A4228FE494E00C94A422CF93DF9300D0CA
:103F400000D0CDB7DEB782E10E94280B9A83898327
:103F500084E10E94280B29813A81281B390B3A837E
:103F6000298387E10E94280B9C838B83CE010196D5
:103F70000E94A4220F900F900F900F90DF91CF918D
:103F80000895EF92FF920F931F93CF93DF93F82E34
:103F900081E08093FB030E94D50BBC012091CE03EE
:103FA0003091CF034091D2035091D3030F2D87E47A
:103FB00094E00E94BF228091D2039091D3030E948B
:103FC000EC19EC0110E08CE0E82E8091CB0318177F
:103FD00098F4812F0E94F517BC012091CE033091F7
:103FE000CF03E19EC00111240F2DAE0181509C4FE3
:103FF0000E94BF221F5FE9CF109255041092FE036A
:104000001092540410925304DF91CF911F910F919D
:10401000FF90EF9008951F93CF93DF93182FEB013C
:104020008091CC03882361F1112349F080915504DC
:10403000811105C00E94AD1881E0809355048091E4
:104040005504882311F08530D9F42091CE033091A6
:10405000CF03203A310510F420EA30E02C173D0759
:1040600010F41092C8030E94A0198093FB038130C2
:10407000F1F40E942218882319F08FEF8093CA036D
:104080000E94851F8C179D0780F0112371F080918D
:104090005504853051F49091FE0381E0890F80939F
:1040A000FE0381E09A3020F402C01092FE0380E00B
:1040B000DF91CF911F9108950F931F93CF93DF93BB
:1040C000EC010E94D50BAE01BC0187E494E00E9494
:1040D000782310E00CE08091CB03181770F4812F47
:1040E0000E94F517BC01019FC0011124AE0181504F
:1040F0009C4F0E9478231F5FEECFDF91CF911F91DD
:104100000F910895CF92DF92EF92FF920F931F933A
:10411000CF93DF936091D2037091D30387E494E04F
:104120000E94E4228C018091D2039091D3030E94DB
:10413000EC197C01D12C9CE0C92E8091CB03D816C0
:1041400098F4CD9CE0011124C150DC4FB701CE01A1
:104150000E94E4220817190728F0B701CE010E9437
:10416000E4228C01D394E9CFC801DF91CF911F9154
:104170000F91FF90EF90DF90CF9008950F931F93D2
:10418000CF93DF93EB012091D0033091D1038C01C9
:104190002817390708F489010E94851F9C018017A0
:1041A000910708F49801C217D307E1F04091550434
:1041B0004530D1F42C173D07B8F082179307A0F4CF
:1041C0008091CE039091CF038C179D0758F04091BA
:1041D000FC035091FD038091AB039091AC03481711
:1041E000590711F4CE0109C08091AB039091AC0343
:1041F0009093FD038093FC03C901DF91CF911F9140
:104200000F9108950F931F93CF93DF93EC010E94BA
:10421000D50B9093480480934704D0934A04C093ED
:10422000490410E00CE08091CB03181770F4812F43
:104230000E94F517019FF0011124E150FC4F91837A
:104240008083D383C2831F5FEECFDF91CF911F9115
:104250000F9108951F93CF93DF93182FEB010E94C6
:10426000E40B811108C01123E1F120915304309136
:104270005404232BB1F10E94BB17811132C0CE012F
:104280000E945C20CE010E9402210E9482208C1795
:104290009D0708F048C09C012C0F3D1F36952795BF
:1042A0003093540420935304BE01809153049091A1
:1042B00054040E94BE209093540480935304909120
:1042C0005504923009F1A8F49923C1F0913039F5E1
:1042D000112339F083E08093550410925404109216
:1042E00053048091530490915404DF91CF911F9116
:1042F0000895933061F0943081F011C0112389F357
:104300000E94AD1881E00CC010925504EACF1092C3
:1043100054041092530484E003C0112311F385E088
:1043200080935504DECF9093540480935304BCCF04
:104330000C94F819CF93DF930E940A1A0E94D50BB0
:10434000EC0162E080E993E00E94A5148C179D07C0
:1043500030F48091D0039091D1030E942F2280915C
:10436000D2039091D3038C179D0718F48AEC96E042
:104370002AC00E944A0B029760F1809160039091DD
:104380006103892B71F08BE10E94280BEC0180E91D
:1043900093E00E948915C817D9071CF486EC96E0B3
:1043A00012C080915A0390915B03892B91F08DE1AB
:1043B0000E94280B20915E0330915F032817390774
:1043C00044F480EC96E0909351038093500381E095
:1043D00001C082E0DF91CF91089581E090915A046D
:1043E000911180E0089581E02091580430915904A2
:1043F000232B09F480E0089580915804909159048A
:104400000895809156049091570408950E94DA0B04
:10441000009711F481E090E09C0140E050E060E002
:1044200074EB84EC94E00E94443E213787E1380726
:104430004105510520F020E737E140E050E0C90197
:104440000895893E2DEF920710F088EE9DEF90932E
:104450005904809358040E9402060C944F0CCF9389
:10446000DF93EC010E940622BC01C817D90708F4AB
:10447000BE0180915604909157046817790750F453
:104480009C01261B370B2D38310568F0BC016C5898
:10449000710909C09B01281B390B2D38310518F013
:1044A000BC0164577F4F8617970759F070935704E4
:1044B000609356048FE00E94F90CDF91CF910C9429
:1044C0002122DF91CF91089580915A04882389F0A9
:1044D00010925904109258041092570410925604E6
:1044E00080E090E00E94212281E00E941306109259
:1044F0005A040895CF93C82F80915A04811113C094
:10450000CC2389F080E090E00E942122109259048F
:1045100010925804109257041092560480E00E94A2
:104520001306C0935A04CF91089510925904109223
:104530005804109257041092560480E090E00E94B4
:10454000212281E00C947A22FC01428153814115A1
:10455000510591F0A081B181B7FF03C0B195A1953C
:10456000B10928EE33E00E94023E9A0140E050E09B
:104570000E94443EC901089580E090E008950F93A1
:10458000FC01CB01002341F04617570708F4CA018C
:104590006417750748F407C06417750708F4CA0163
:1045A0004617570708F4BA0197838683918380835F
:1045B000138212821582148233872287681B790B3B
:1045C000718760870F910895FC0186819781A2858C
:1045D000B3850084F185E02D3097D1F09B0140E058
:1045E00050E0281B390B410951090E94093E9F01E7
:1045F000442737FD4095542F0E94663E2115310512
:1046000081E04807510524F457FD05C0C90108950C
:104610008FEF9FEF089580E090E00895DF92EF9292
:10462000FF920F931F93CF93DF93EC012A813B817D
:104630002417350720F4FA01E21BF30B03C0F9013C
:10464000E41BF50B8C819D81969587958E179F07AE
:1046500010F5E880F9802417350740F48A01021B21
:10466000130BCB018E199F097C0105C0E61AF70ACE
:104670008901041B150BC7010E947513D82E88856C
:1046800099850E947513D81206C01D830C83F98684
:10469000E8861B870A87DF91CF911F910F91FF90CA
:1046A000EF90DF9008950F931F93CF93DF93EC016A
:1046B0008B019A01A885B9850E94023E2A853B8517
:1046C00040E050E00E94663EC801A0E0B0E08217E2
:1046D0009307A407B5071CF41F821E8204C0021BA7
:1046E000130B1F830E83DF91CF911F910F910895BC
:1046F000EF92FF920F931F93CF93DF93EC018B0107
:104700007A010E940E23A701B801CE01DF91CF915B
:104710001F910F91FF90EF900C9453230F931F93D1
:10472000CF93DF938C01443019F0CFEFDFEF02C05D
:10473000C1E0D0E00E94C536D8011B96EC91F0E0B4
:10474000EE0FFF1FEF58FD4F9C01C29FC001C39F9A
:10475000900DD29F900D112420813181820F931FE3
:1047600091838083DF91CF911F910F910895EF92F4
:10477000FF920F931F93CF93DF931F92CDB7DEB7B6
:104780008C01443021F0EE24EA94FE2C03C0EE2488
:10479000E394F12C69830E94C536D8011B96ED91F4
:1047A000FC911C976981E60FF11DE491F0E0EE0F9A
:1047B000FF1FEF58FD4FE89E9001E99E300DF89ED7
:1047C000300D112480819181820F931F918380830A
:1047D0000F90DF91CF911F910F91FF90EF9008956F
:1047E000CF93DF93EC010E944135882311F088813B
:1047F00001C08FEFDF91CF910895CF93DF9300D069
:1048000000D0CDB7DEB780E00E941F0B9A8389836A
:1048100081E00E941F0B29813A81281B390B3A83C2
:10482000298383E10E94280B9C838B83AE014F5F19
:104830005F4F61E080E00E94750BAE014F5F5F4FFC
:1048400061E081E00E94750B0F900F900F900F9028
:10485000DF91CF910895CF93DF93D82F64EA76E06C
:1048600088EB96E00E94DE30C0E082E10E94680D95
:10487000882399F08FE10E94680D8D17A1F0C11176
:104880000CC066E976E0DD2319F088EB96E002C003
:104890008DEA96E00E94DE30C1E00E94EF36813062
:1048A00021F780E001C081E0DF91CF910895CF939F
:1048B000DF9300D000D0CDB7DEB7862F5A8349836F
:1048C0003C832B83AE014F5F5F4F61E00E94750B0D
:1048D0000F900F900F900F90DF91CF910895FF925E
:1048E0000F931F93CF93DF93F82E162F042F83E09F
:1048F0000E946235812F0E94280BEC01802F0E94BC
:104900001F0BAC019E01602F812F0E94572481E074
:10491000809346030E94600CFF2039F0DF91CF9115
:104920001F910F91FF900C94FD23DF91CF911F9168
:104930000F91FF900895EF92FF920F931F93CF93E3
:10494000DF93CDB7DEB72E970FB6F894DEBF0FBE5C
:10495000CDBF81E00E942B24882309F441C06AE581
:1049600073E0CE0101960E94652F8FEF8A8784E95C
:1049700090E09A83898381E593E09D878C8789E025
:104980008E8761E0CE0101960E94F529F82E87FD01
:1049900027C0082F112707FD1095F801EF5AFC4F8B
:1049A000E49086E08F156CF38E2D0E94680D8823AD
:1049B00041F30E94600C109246036F2DCE010196C8
:1049C0000E945328882341F0F801E65BFC4F449194
:1049D0006E2D81E00E946F2481E080934603D1CF49
:1049E0002E960FB6F894DEBF0FBECDBFDF91CF91EC
:1049F0001F910F91FF90EF9008950F931F93CF9306
:104A0000DF93CDB7DEB72E970FB6F894DEBF0FBE9B
:104A1000CDBF109267006EE173E0CE0101960E9457
:104A2000652F8FEF8A8784E990E09A8389838CE1F0
:104A300093E09D878C8787E08E8761E0CE010196A9
:104A40000E94F529082F87FD20C0E82FFF27E7FDEA
:104A5000F095E45EFC4F1491812F0E94680D88232D
:104A600061F30E94600C10924603602FCE01019604
:104A70000E945328882329F0412F612F80E00E9453
:104A80006F2481E080934603D8CF81E08093670054
:104A90002E960FB6F894DEBF0FBECDBFDF91CF913B
:104AA0001F910F9108958F3019F4CB010C9421229E
:104AB000CB010C94941BEF92FF920F931F93CF9313
:104AC000DF93EC01443019F00FEF1FEF02C001E05B
:104AD00010E00E94C536089F7001099FF00C189FD6
:104AE000F00C11240E94C5362F8538898C0141E0D5
:104AF00050E0B701CE010D960E94A7136D857E850B
:104B00008B85DF91CF911F910F91FF90EF900C94C7
:104B10005325AF92BF92CF92DF92EF92FF920F9305
:104B20001F93CF93DF93CDB7DEB765970FB6F89499
:104B3000DEBF0FBECDBFA82EB62E7A0180E00E9448
:104B40002B24882309F46FC0AA2069F00E946422F4
:104B500088E799E60E94EA05E2E0CE2EFFE0DF2E2C
:104B600008EE1DEF08C00E94C11B63E0C62E70E175
:104B7000D72E00E010E460E373E0CE0101960E94BE
:104B8000652F8FEF8A872CE930E03A832983DC8612
:104B9000BD86198B088B4D856C85CE0142960E948F
:104BA000580B2A893B893F872E8761E0CE01019609
:104BB0000E94F52987FD2FC08111EDCF6E857F857D
:104BC0008D2D0E94532560E0CE0101960E9453284E
:104BD0008823D9F00E94600CFD8AEC8A2E853F85DF
:104BE0003B8B2A8BAE014E5E5F4F6B2D8D2D0E944D
:104BF000750B8C2D0E941F0B9B8B8A8BAE014E5E1A
:104C00005F4F6B2D8C2D0E94750B60E070E08D2D39
:104C10000E945325C0CF81E0AA2019F00E947A2279
:104C200002C00E94CF1B65960FB6F894DEBF0FBE80
:104C3000CDBFDF91CF911F910F91FF90EF90DF904B
:104C4000CF90BF90AF900895EF92FF920F931F9374
:104C5000CF93DF93CDB7DEB729970FB6F894DEBFB9
:104C60000FBECDBF8C017B01BC01CE0101960E941D
:104C7000652F60E0CE0101960E94F529682F87FD1F
:104C800010C0E82FEE0FFF0BEE0DFF1D4591549164
:104C900081E093E00434190709F080E00E9489253F
:104CA000E8CF29960FB6F894DEBF0FBECDBFDF91D7
:104CB000CF911F910F91FF90EF9008951F93CF9385
:104CC000DF9300D000D01F92CDB7DEB7182F6D83D1
:104CD0000E941F0B9A838983812F0E94280B9C833B
:104CE0008B83AE014F5F5F4F6D81812F0E94750BEB
:104CF0000F900F900F900F900F90DF91CF911F9119
:104D000008950F931F93CF93DF93CDB7DEB72C9702
:104D10000FB6F894DEBF0FBECDBF182F062F64E28A
:104D200073E0CE0101960E94652F8FEF8A8724EAF7
:104D300030E03A8329831C8761E0CE0101960E940E
:104D4000F52987FD13C08111F7CF1092460360E06B
:104D5000CE0101960E945328882321F0602F812FD5
:104D60000E945E2681E080934603E6CF2C960FB624
:104D7000F894DEBF0FBECDBFDF91CF911F910F9191
:104D800008951F93CF93DF93CDB7DEB729970FB662
:104D9000F894DEBF0FBECDBF182F6AE273E0CE01DC
:104DA00001960E94652F60E0CE0101960E94F529D0
:104DB000682F87FD04C0812F0E948126F4CF299699
:104DC0000FB6F894DEBF0FBECDBFDF91CF911F911C
:104DD00008951F93CF93DF93CDB7DEB729970FB612
:104DE000F894DEBF0FBECDBF6EE673E0CE01019634
:104DF0000E94652F60E0CE0101960E94F529182FD0
:104E000087FD2DC00E946F3C81E00E94430E12304E
:104E1000A1F04CF4112371F01130C9F46AE373E08E
:104E200084E493E00EC0133079F0143081F40E94D2
:104E3000FD240DC00E949B240AC066E373E08EE34C
:104E400093E00E94242603C087E00E94C12681E0EF
:104E50000E94AD110E94770C0E947F3CCBCF109234
:104E6000520329960FB6F894DEBF0FBECDBFDF9177
:104E7000CF911F910895CF93DF93EC01842F0E946F
:104E8000950C9E0136952795A9014C0F5D1F84173F
:104E9000950730F4C21BD30B21E0C817D90708F0DF
:104EA00020E0822FDF91CF91089568EE73E080E0DB
:104EB0000E94F90C2BE1289FB001299F700D11244D
:104EC00040E088E799E60C943B27CF93DF931F924D
:104ED000CDB7DEB7482F68EE73E049830E94F90C26
:104EE00026E0289FB001299F700D1124498180E799
:104EF00097E10F90DF91CF910C943B27CF93DF93F5
:104F00001F92CDB7DEB7482F64E670E049830E9458
:104F1000F90CBC01660F771F680F791F49818CE27D
:104F200091E00F90DF91CF910C943B27CF930E949B
:104F30003612C82F882341F10E945527C82F8111AE
:104F400005C08EE896E00E94DE311EC08FE00E9410
:104F50006527882329F082E00E946527811106C019
:104F600085E896E00E94DE31C0E00EC080E10E943C
:104F70007E27882331F083E00E947E27C82F81118D
:104F800003C089E796E0EECF8C2FCF9108950C9463
:104F900096271F93CF93DF93EC01162F0E94602F6B
:104FA000CE0109960E94F023992787FD9095612FE5
:104FB00070E08617970759F0EB85FC85E60FF71F21
:104FC00084916D85DF91CF911F910C94A20DDF919B
:104FD000CF911F9108951F93CF93DF93EC01162F6C
:104FE00082E10E94680D81110FC064EA76E088EBCF
:104FF00096E00E94DE308B85803141F581E0DF91C3
:10500000CF911F910C94CF1B612FCE010E94602F76
:10501000CE0109960E94F023992787FD9095212FB4
:1050200030E08217930791F0111108C065E08D857B
:105030009E85DF91CF911F910C94593A0E94DF0B0E
:1050400067E0DF91CF911F910C94BE3ADF91CF9131
:105050001F9108951F93CF93DF93EC01162F0E94A9
:10506000602FCE0109960E94F023992787FD909525
:10507000212F30E08217930791F0111107C067E0EC
:105080008B85DF91CF911F910C94A20D8B850E948F
:105090001F0B67E0DF91CF911F910C94593ADF917C
:1050A000CF911F910895DF92EF92FF920F931F937C
:1050B000CF93DF93EC01F62E69871A8681E08D830A
:1050C00082E0D82EEE24E3948E01075F1F4F0E94EA
:1050D000EF36482F823011F0843061F4E881F98195
:1050E0000280F381E02D6F2DCE010995F986DA86D5
:1050F000ED8204C0813089F0883079F0C8010E94C7
:105100004C358111ED828D81882319F0CE010E94EA
:10511000A0298A858F5F8A87DACF8FEF898781E020
:105120008E838D83483009F080E0DF91CF911F910D
:105130000F91FF90EF90DF900895CF93DF93EC01F4
:105140000E9459378B819C810E9476380E945D377E
:105150006A8188819981DF91CF910C942B38FC0171
:1051600087818F3118F48F5F8783089586818F5FE1
:1051700086830895FC018781882319F081508783F5
:10518000089586818150868308950F931F93CF934E
:10519000DF93FC01C681D0E06D2F80E00E94533781
:1051A00010E11C0F01E00C0F8C2F0E940D3801172D
:1051B00011F0C02FF7CFDF5FD23011F0C12FECCF4D
:1051C000DF91CF911F910F9108951F93CF93DF939C
:1051D000EC018BEC90E00E949D3B1FEF8E81181735
:1051E00021F0CE010E94C5281E818F81682F70E0BA
:1051F00094E0759567959A95E1F78F700E94533703
:105200000E94EF36823049F0843019F0813049F441
:1052100013C0CE010E94AF28E1CFCE010E94BA2870
:10522000DDCF8830D9F68D81E881F981E80FF11D55
:105230008F819E81890F8083DF91CF911F91089587
:10524000FC0171836083428334832383158280E26F
:10525000868317820895CF93DF93EC018BEC90E067
:105260000E949D3B0E946137CE010E949D2861E013
:105270008D810E9453370E94EF368230B1F0843026
:1052800041F08130C1F48BEC90E00E94963B80E0CD
:1052900026C04D81242F30E08A8190E001972817A5
:1052A00039072CF74F5F4D83E2CF8D818823F9F2C8
:1052B00081508D83DCCF8830D1F682E00E94423766
:1052C000823048F083E00E9462358BEC90E00E94CF
:1052D000963B81E004C0CE010E94E528C3CFDF9158
:1052E000CF9108950895FC018CEA90E0918380832A
:1052F00012821382648381E0858386830895FC0192
:105300002281211103C081E082830895438130E02E
:10531000240F311D848190E001972817390714F478
:105320004F5F43830895FC018281882319F08150E7
:10533000828308958381882311F0815083830895A7
:105340001F93CF93DF93EC0110E0612F80E00E9468
:1053500053378A81181302C08EE301C080E20E9495
:105360000D38E881F9816B81610F0190F081E02DAA
:10537000CE0109950E9428381F5F123031F71D8237
:10538000DF91CF911F9108950F931F93CF93DF93D8
:10539000EC010E94EF36182F0E94353C882321F043
:1053A00081E08D838FE71CC00B818A81080F12304A
:1053B00031F0143039F4CE010E947F2903C0CE01B0
:1053C0000E9493298B819A81890F081711F081E03F
:1053D0008D838D81882319F0CE010E94A029812F11
:1053E000DF91CF911F910F910895EF92FF921F933C
:1053F000CF93DF931F92CDB7DEB77C0181E0F70139
:10540000858311E0C70169830E94C42969818111E4
:1054100002C0F7011682F7019681911108C0883009
:1054200031F481E0868383819281890F09C06623EC
:1054300011F0F7011583813029F79111E3CF8FEF38
:105440000F90DF91CF911F91FF90EF900895CF9330
:10545000DF93CDB7DEB729970FB6F894DEBF0FBE46
:10546000CDBF6AE773E0CE0101960E94652F60E030
:10547000CE0101960E94F529813049F0823051F029
:1054800081110BC084E593E00E942A13F0CF0E94A3
:10549000E926EDCF0E943E12EACF87FFE8CF29969A
:1054A0000FB6F894DEBF0FBECDBFDF91CF91089548
:1054B000262F443019F06FEF7FEF02C061E070E0FB
:1054C000223091F028F4222349F0213051F0089540
:1054D000243081F060F0253081F008950B960C9413
:1054E0002F160B960C94D0160B960C94FD160B965B
:1054F0000C9422170B960C942D170B960C94721784
:10550000EF92FF920F931F93CF93DF93EC018B01E8
:105510007A0162E873E00E94652F8FEF898782EB42
:1055200090E0998388838AE1F801DE011B9601905F
:105530000D928A95E1F7FEA2EDA2DF91CF911F9126
:105540000F91FF90EF9008950F931F93CF93DF93E8
:10555000CDB7DEB728970FB6F894DEBF0FBECDBF2C
:105560008C01BC01695E7F4F2BE137E04EE050E0DB
:10557000CE0101960E942029CE0101960E942B297E
:1055800081E0F801858328960FB6F894DEBF0FBE40
:10559000CDBFDF91CF911F910F910895CF93DF93EE
:1055A000EC010E9461370E94593785E197E00E9423
:1055B00076380E945D376EE0CE0147960E942B3808
:1055C0000E94341483E0DF91CF910C946235CF9325
:1055D000DF93EC016DA17EA16F5F7F4F0B960E9460
:1055E000E014CE01DF91CF910C94CE2ACF93DF93BC
:1055F000EC016DA17EA16F5F7F4F0B960E94391564
:10560000CE01DF91CF910C94CE2ADF92EF92FF92E0
:105610000F931F93CF93DF93CDB7DEB76A970FB683
:10562000F894DEBF0FBECDBF8C018AE1D82EC80131
:105630000B967C0160E0C8010E94F52987FD30C00F
:10564000873041F0883051F0863061F4C8010E9403
:10565000E72AF0CFC8010E94A42AECCFC8010E941B
:10566000F62AE8CFF701DE0111969D2D01900D92EB
:105670009A95E1F7682FC8010E945328811109C04B
:10568000FE013196D7018D2D01900D928A95E1F79B
:10569000D1CF83E00E946235C7010E947F16CACF36
:1056A0006A960FB6F894DEBF0FBECDBFDF91CF91E3
:1056B0001F910F91FF90EF90DF9008951F93CF936C
:1056C000DF93EC01162F0E94602FCE0109960E94F5
:1056D0004135882311F0298501C02FEF332727FD9D
:1056E0003095812F90E028173907B1F11230F9F089
:1056F00058F41123A9F0113079F5CE010B96DF9102
:10570000CF911F910C94BF151430F9F0B8F01530FB
:1057100019F5CE010B96DF91CF911F910C94611773
:10572000CE010B96DF91CF911F910C94B915CE014C
:105730000B96DF91CF911F910C94ED15CE010B9636
:10574000DF91CF911F910C94E115CE010B96DF9163
:10575000CF911F910C94E715DF91CF911F91089580
:10576000DC011796ED91FC911897E60FF11D6491FD
:1057700086E993E00C948E380F931F93CF93DF93B9
:10578000EC018B0180E061E0680FF801E80FF11D8A
:10579000E491E83011F0862FF6CFCE010E947329F4
:1057A0008AEB90E09983888318870F83DF91CF91EC
:1057B0001F910F91089580E993E00E944E14833069
:1057C00039F0823041F0811109C08DE694E00895EE
:1057D00084E694E0089586E794E008958BE594E0EC
:1057E00008950F931F93CF93DF93EC0110928404DD
:1057F0000E9452150E94DB2B8C0160E0C8010E94C0
:10580000F52987FD1BC0D8011796ED91FC911897DB
:10581000E80FF11D87FDFA958491883061F4BE018F
:1058200080E993E00E940516CE010E94601581E098
:105830000E94B411DFCF0E94BC12DFCFDF91CF9165
:105840001F910F91089568EB73E086E794E00E9442
:10585000BC2B6DEA73E08DE694E00E94BC2B61EBFB
:1058600073E084E694E00E94BC2B68EA73E08BE569
:1058700094E00C94BC2B0F931F93CF93DF93EC0118
:105880008B016BEC73E00E94652F8FEF898780ECB2
:1058900090E0998388838CE3F801DE011B960190E8
:1058A0000D928A95E1F7DF91CF911F910F910895A5
:1058B000DF92EF92FF920F931F93CF93DF93CDB7B9
:1058C000DEB7EC970FB6F894DEBF0FBECDBF7C01FC
:1058D0008C01055F1F4F8CE3D82E60E0C7010E944A
:1058E000F52987FD2AC0873139F4C8010E941213B7
:1058F00083E00E946235F1CFF801DE0111969D2D03
:1059000001900D929A95E1F7682FC7010E945328E4
:10591000811109C0FE013196D8018D2D01900D92A3
:105920008A95E1F706C083E00E946235C8010E94B3
:105930001E13C8010E942913D0CFEC960FB6F8941D
:10594000DEBF0FBECDBFDF91CF911F910F91FF90B2
:10595000EF90DF900895262F215064E670E00E94BA
:10596000303ECB01622F0E94593A83E40C940D38EB
:10597000262F215068EE73E00E94303ECB01622F4B
:105980000E94593A86E50C940D38CF93DF93462F49
:10599000455064E670E00E94303E9B01EC01642FAC
:1059A000C9010E94593A8EE20E940D38CE016AE088
:1059B00070E00E94303E862F0E94E33882E498E037
:1059C000DF91CF910C94763841E041960C94E61328
:1059D00044E0CB960C94E613CF93DF93EC0188EF71
:1059E000860F0E9416386BAD81EC93E0DF91CF916A
:1059F0000C948E38CF93C62F0B960E94EF12C25094
:105A000024E630E040E050E00E94443E6C2FC901A3
:105A10000E94593A80E30E940D3880E3CF910C94A4
:105A20000D38EF92FF920F931F93CF93DF931F9246
:105A3000CDB7DEB77C01162FDC0117968D919C91B6
:105A400018970E948E38082F60E1681BC7010996DD
:105A500069830E9441356981882321F0D701199615
:105A6000EC9101C0EFEFFF27E7FDF095212F30E02B
:105A7000E217F30709F4D4C0812F90E08731910534
:105A800008F0CEC0FC01EE5CFF4F0C94853EF701A0
:105A900081891DC0D70153968D919C9154970F9089
:105AA000DF91CF911F910F91FF90EF900C94AB2C51
:105AB000F701858996890F90DF91CF911F910F9102
:105AC000FF90EF900C94C52CD70157968C910F90B6
:105AD000DF91CF911F910F91FF90EF900C94AB3815
