:100000000C94CB040C94F3040C94F3040C94F304BC
:100010000C9448080C94F3040C94F3040C94F3042B
:100020000C94F3040C9478080C94F3040C94F304EB
:100030000C94F3040C9412090C9447090C94F304E7
:100040000C9424080C94F3040C94F3040C94F3041F
:100050000C94F304C712D012D612D912DC12E31298
:10006000E012EA12FD2D002E0E2E1A2E262E2A2E1A
:10007000382E3C2E4A2E4E2E612E642E722E7E2E4F
:100080008C2E982E9E2EA22EA62EA92EAF2EB22EEC
:10009000BC2EBA2FBE2FC32FC82FCB2FCD2FD22FC0
:1000A000D42FD92FDC2FE22FE52FE82FEB2FEE2FC7
:1000B000F32FF72FFB2FFE2F0130063009300D30C4
:1000C000D436D636D836DC36DC36DA36E036DE36AE
:1000D000633B453B4E3B473B503B403B4C3B00006A
:1000E00000003ED7356200000000F567E6300703E8
:1000F0003200482BE803E1073200C32E2C01000038
:1001000000000000000000000000000000000000EF
:100110000000BDBBDF36C24CA40B0C4970170000B9
:10012000000043BFA80E0000000008D75B100000CD
:100130000000B8DBBA200000000003DB5F10000005
:10014000000000D66110000000001ED764100000FF
:10015000000000DA61100C033200482BE803DA02D9
:1001600032003A112C0100060800FF01010A0106C5
:100170000900FF03020002060A00FF00000A06064B
:100180000E00FF03020005060D00FF020300040637
:100190000C00FF03020003060B00FF040600070625
:1001A0000700FF030200AA0100006F7074696F6E00
:1001B000730080250000004B00000096000000E165
:1001C000000000C20100460088137017000070177D
:1001D00064000100FBFFF1FF0807080705001E008F
:1001E00001000A0032007800102700000000000023
:1001F00001000800000000000300000000000000F3
:10020000000094088F088A08850880087B08760813
:1002100071086C0867080000980898086C07102798
:10022000580201009808F4016C070100E001020087
:100230009808F4016C070100E00103009808DC0055
:100240006C070600E0010400980898086C0703009A
:1002500078000500980898086C07030078000600ED
:10026000980898086C070300780007009808980819
:100270006C07030078000800980898086C070300D2
:1002800078000900980898086C07030078000100BE
:100290000100010001000100B00400005203000051
:1002A0005203B0040000E8030000E803D0079209FD
:1002B000D60600006C07E40C100ED007E40CB80B57
:1002C000100E0410C409A60EAC0D740E6810B80B05
:1002D0000A0F890C740ECC10B80B0A0F890C740E1F
:1002E000FE10B80B0A0F890C40066C071405400677
:1002F0007805A718EC18D819431B3E1B731B211C4B
:10030000B41C2D1CBD1CBA1CC41CEB1CF21C161DFD
:100310008D1F5D1F631FD0213F1AD22108090A00DB
:1003200001F805F005E805E005D80500000706001E
:1003300006000017060E06000028062006000064CE
:10034000002C016400E80336063006000043063C3A
:1003500006000006090A0B0C0D0E061F20212223A1
:10036000241312790673066D06670661065B06554F
:10037000064F0649060000AF06A6069A068E067FBF
:10038000060000BE08B408A60800002F072A0725AB
:100390000720071B0714070807FE06F306000023C3
:1003A0000914090C090209F608EE08DF08D408C789
:1003B00008000304070800030708000102030407FC
:1003C0000800010203040506070875076E076807A1
:1003D0005F0756075A084F0848083F0836082D0897
:1003E000230819080D080308FD07EF07E507DB07D9
:1003F000CF07C507BC07B107A6079C0791078B0766
:1004000084077E07000020202D2D202000636865D2
:10041000616C692D636861726765720A76302E3986
:10042000395F32303135303232340063616C6962A9
:100430006174696F6E206572726F7200706C6561B5
:1004400073652063616C69627261746500656570D3
:10045000726F6D2072657365740A6572726F723A9D
:100460002000726573657474696E672065657072CB
:100470006F6D00206E6F202020202020202020790A
:10048000657300656570726F6D2072657365743A8F
:10049000005245564552534520504F4C4152495405
:1004A00059006572726F723A2020202000636F6DD0
:1004B000706C6574653A2000D93400800000073301
:1004C000FFFF04806C34FFFF04805033FFFF048083
:1004D0002C34000108803834000108804C340001BD
:1004E0000080D73000C00000DB3000C00000DF30EB
:1004F00000400480E33000400480D733FFFF0480D5
:100500009733FFFF00801134FFFF00004D3580005E
:100510000080F533FFFF00000000FFFF0000250012
:10052000202D2D3A2D2D0064656C746120543D20E2
:10053000004E2F4100546578743D0064656C746111
:1005400020563D20006D6178566F75743D002D007A
:10055000546578743D00206C696D69743D0056697E
:100560006E7075743D00776972657320523D00624C
:100570006174742E20523D006220004C696D6974D4
:10058000733A20006E6F2064542F740025200043BE
:10059000684342426C446946435374534243590092
:1005A000010001000100010001000A0064000100D7
:1005B0000300080009000A000B000C000100020003
:1005C0000400060008000A000C00141719181A0786
:1005D00005061F2021222324566D696E75733A008B
:1005E00056706C75733A200056623270696E3A002C
:1005F00056623170696E3A0056623070696E3A0028
:1006000076616C75653A0074656D703A2000706FA4
:10061000696E7420322E00706F696E7420312E0066
:10062000496F75743A20200076616C75653A200038
:100630003330306D41003130306D41003130303079
:100640006D41003130306D4100566F75743A00567F
:10065000312D363A005662363A20005662353A203D
:10066000005662343A20005662333A200056623215
:100670003A20005662313A200056696E3A200065F1
:1006800078706572742044414E474552210074656C
:100690006D702065787465726E00492064697363BB
:1006A00068617267650049206368617267650076FA
:1006B0006F6C746167650062616C616E6365207068
:1006C0006F727421006261747465727921006469CB
:1006D00073636F6E6E65637400636F6E6E656374D3
:1006E0000064542F6474002D64560056206C696DAC
:1006F0006974005265736574206E616D65004564B0
:100700006974206E616D6500437265617465206E69
:10071000616D6500546C696D3A200049643A2000AF
:1007200049633A200043683A2000563A20200042AC
:1007300061743A2020004E616D653A004564697429
:10074000206E616D653A006D5600206E6F00796510
:100750007300496E66006578742E204164630065FD
:1007600078742E20646562006465627567006E6F40
:10077000726D616C0064697361626C6564007265BE
:100780007365740073706565643A00554152543A5C
:1007900000616463206E6F6973653A0062616C2E5C
:1007A000206572723A00666F7263652062616C3A0E
:1007B000006469732061677265733A006F2E646923
:1007C0007363683A006F2E6368617267653A006907
:1007D0006E707574206C6F773A20006361702043EF
:1007E0004F66663A006D696E20496F75743A006D08
:1007F000696E20496F75743A2020492F0062656543
:10080000703A00442F4320726573743A00442F43BA
:10081000206379636C65733A004E694364205643E4
:100820004F3A004E694D482056434F3A004E6943B7
:10083000642064563A004E694D482064563A00657B
:100840006E61622064563A0064542F64743A006505
:100850007874726E2054434F3A00657874726E203B
:10086000543A00432F6D004E695A6E004C343335B4
:10087000004C343330004C69706F004C696C6F0071
:100880004C6966650050622020004E694D48004E5C
:1008900069436400556E6B6E006D696E2E006E6F5D
:1008A0006C696D6974007265736574206465666156
:1008B000756C740063616C69627261746500736564
:1008C0007474696E6773006564697420626174741E
:1008D00065727900443E4320666F726D61740073E7
:1008E000746F726167652B62616C616E6300737413
:1008F0006F72616765006661737420636861726717
:1009000065006469736368617267650062616C6148
:100910006E6365006368617267652B62616C616E0E
:10092000636500636861726765006578742E74653D
:100930006D702E6375746F66660074696D65206CEA
:10094000696D6974006361706163697479206375AE
:10095000746F666600696E707574205620746F201F
:100960006C6F77004857206661696C75726500622C
:10097000616C616E63657220646973632E006261ED
:10098000747465727920646973632E008E057E0A23
:100990005511D92CA33211241FBECFE5D8E0DEBFFC
:1009A000CDBF10E0A0E6B0E0E2E5FFE702C00590B1
:1009B0000D92AA3CB107D9F714E0AAECB0E001C04F
:1009C0001D92AC3CB107E1F719E0C6E9D9E004C0DB
:1009D0002297FE010E943D3FCC38D107C9F70E9403
:1009E00050110C94A73F0C94000086B38095817041
:1009F000B19B02C090E001C092E0892BB29B02C083
:100A000090E001C094E0892BB39B02C090E001C04C
:100A100098E0892B0895882339F0A69AA79AD59A49
:100A2000889A8A9A8F9A0895A698A798D5988898B0
:100A30008A988F98089520E042E060E18BEC90E086
:100A40000E948F3C0E94FB080E94CD0688E799E631
:100A50000C94FA058091D100882331F08091CA006E
:100A60008F5F8093CA0002C01092CA008091D100AB
:100A70008A3010F480E001C088E09091D100943178
:100A800008F084E09091D1009E3108F082E09091CE
:100A9000CA00982311F0C49A0895C49808958093C9
:100AA000D1000895811106C0939A0E94230680E028
:100AB0000C941A069398089580FF02C0AE9A01C064
:100AC000AE9881FF02C0AF9A01C0AF9882FF02C00A
:100AD000DD9A01C0DD9883FF02C0909A01C0909812
:100AE00084FF02C0929A01C0929885FF02C0979A33
:100AF00008959798089580E00E945C0580E00E9428
:100B000052051092D10087B18F7387B98B9A8D9A55
:100B1000D79ABC9A8C9A8D9A8E9A08958BEC90E015
:100B20000C94E43C2FB7F8948091D3009091D400BA
:100B3000A091D500B091D6002FBF892F9A2FAB2F4F
:100B4000BB27A7FDBA9508952FB7F8941092DA0045
:100B50001092D9008617970768F480E090E4A0E02F
:100B6000B0E08093D3009093D400A093D500B093CD
:100B7000D60008C01092D3001092D4001092D50075
:100B80001092D6008091D3009091D400A091D5000E
:100B9000B091D600BA2FA92F982F88278093D30021
:100BA0009093D400A093D500B093D60081E08093B9
:100BB000D2002FBF0895CF93DF93EC01C13080E6C0
:100BC000D80758F4C13080E4D80748F48EE00E947A
:100BD00007099598BE018DE009C0C0E0D0E68DE020
:100BE0000E940709949ABE0170548EE0DF91CF9164
:100BF0000C94E508893729E6920710F088E799E612
:100C0000BC0180E00E94090D813C2FEF920710F09B
:100C100080EC9FEF2FB7F8949093D8008093D70083
:100C20002FBF08952FB7F8949093DA008093D900DE
:100C30002FBF0895882329F080E00E942306DF98C3
:100C40000895DF9A0895CF93DF93C82F882319F072
:100C500080E00E941A06DFB7F8948DE00E94070931
:100C600094988EE00E94070995981092D200DFBFF9
:100C7000C11104C0969ADF91CF910895969880E0B3
:100C80000E94380BEC0186E00E94380BBE01DF9118
:100C9000CF910C94A4050F931F938091D2008823C9
:100CA00009F474C080E00E94410B2091D70030917C
:100CB000D8008217930730F080E00E94230610923C
:100CC000D20064C082E00E94410B4091D900509153
:100CD000DA0060E070E00091D3001091D400209120
:100CE000D5003091D600481B590B61097109E2E02B
:100CF000440F551F661F771FEA95D1F7040F151F84
:100D0000261F371F0093D3001093D4002093D500E3
:100D10003093D6008091D3009091D400A091D5005B
:100D2000B091D600B7FF08C01092D3001092D40043
:100D30001092D5001092D6008091D3009091D400EB
:100D4000A091D500B091D6000197A046B10560F002
:100D500080E090E0A0E6B0E08093D3009093D400D0
:100D6000A093D500B093D6008091D3009091D40089
:100D7000A091D500B091D600892F9A2FAB2FBB2719
:100D8000A7FDBA951F910F910C94DB051F910F9150
:100D90000895BC018EE00C94E508DE98D698BD9AC3
:100DA000BE9ABF9A8EEA86B9369A089584B135B153
:100DB000E091E4002FB7F89490E0932BF0E0DF018E
:100DC000AA0FBB1FA352BD4F11969C938E933091D7
:100DD000DD00332391F0EE0FFF1FEE0FFF1FE150F8
:100DE000FD4F4081518162817381480F591F611D00
:100DF000711D40835183628373832FBF0895CF9306
:100E00000E9434229093FC028093FB020E94A71B55
:100E10009093FE028093FD028091DD00882309F407
:100E200059C00E94342240913B0350913C03609191
:100E30003D0370913E03CAE09C01C29FC001C39F65
:100E4000900D1124480F591F611D711D40933B03E4
:100E500050933C0360933D0370933E030E94A71B95
:100E600040913F03509140036091410370914203D0
:100E70009C01C29FC001C39F900D1124480F591FB0
:100E8000611D711D40933F035093400360934103E4
:100E90007093420380914303909144030197B9F406
:100EA0008091070390910803A0910903B0910A0370
:100EB00052E0B695A795979587955A95D1F7809367
:100EC000070390930803A0930903B0930A03CF91FB
:100ED0000C94E20DCF910895089580918203909132
:100EE0008303892BE9F04091E1004423C9F081E0BC
:100EF00090E00090DF0002C0880F991F0A94E2F78B
:100F000020914303309144032F703FB7F8945BB3B3
:100F10009BB3982B9BBB240F2A95F1F75BBB3FBF7C
:100F200008958091DC008F5F803108F080E080932D
:100F3000DC008091DE009091DF00A091E000B09194
:100F4000E1008093E2009093E300A093E400B0936B
:100F5000E500E091DC00EF5FE03108F0E0E084E0E4
:100F6000E89FF0011124EA59FE4F85919591A591D2
:100F7000B4918093DE009093DF00A093E000B093E3
:100F8000E1008091840390918503892B39F0809151
:100F9000DE00873019F486E08093DE008091DC006B
:100FA00081110CC00E94FF0680914303909144037D
:100FB00021E0892B09F420E02093DD0008950E94B0
:100FC000D6068091DB0091E0980F9093DB0087308C
:100FD00079F128F4882341F08130A9F00895883010
:100FE00049F1893061F108958091DE0087FD05C0E7
:100FF00088B38F71806C88BBD69A8091E400823070
:1010000011F50C944B068091DE0087FD1CC04FB794
:10101000F8943AB33F7B28B38091DE0050E285021A
:10102000C00111242F71282B28BB3ABB4FBF089554
:101030000C946D078091DF00806287B9089510924B
:10104000DB000C94910708951F920F920FB60F9238
:1010500011242F933F934F935F936F937F938F93BD
:101060009F93AF93BF93EF93FF930E94DF07FF918E
:10107000EF91BF91AF919F918F917F916F915F9110
:101080004F913F912F910F900FBE0F901F90189589
:101090001F920F920FB60F9211242F933F934F93ED
:1010A0005F936F937F938F939F93AF93BF93EF93D0
:1010B000FF930E941237FF91EF91BF91AF919F91E3
:1010C0008F917F916F915F914F913F912F910F90F1
:1010D0000FBE0F901F90189588E085BD85B5846080
:1010E00085BD14BC8CE783BD89B7806889BF08952E
:1010F0001F920F920FB60F9211242F933F934F938D
:101100005F936F937F938F939F93AF93BF93EF936F
:10111000FF932091EC003091ED008091E8009091D8
:10112000E900820F931F9093E9008093E8002091DB
:10113000EA003091EB008091E6009091E700820F89
:10114000931F9093E7008093E6002FB7F894809167
:10115000E8009091E90035E0969587953A95E1F79A
:101160009BBD8ABD8091E6009091E70045E0969591
:1011700087954A95E1F799BD88BD2FBF8091E8001A
:101180009091E9008F7199279093E9008093E8008E
:101190008091E6009091E7008F7199279093E70086
:1011A0008093E6000E942A05FF91EF91BF91AF91D5
:1011B0009F918F917F916F915F914F913F912F916F
:1011C0000F900FBE0F901F9018959FB7F8948E3018
:1011D00039F47093ED006093EC008FB5806808C01F
:1011E0008D3039F47093EB006093EA008FB5806224
:1011F0008FBD9FBF089580E092E097BD86BD82E0DD
:101200008FBD89E18EBD89B7846089BF08958E3016
:1012100019F48FB58F7704C08D3019F48FB58F7D99
:101220008FBD08951F920F920FB60F9211242F9326
:101230003F934F938F939F93EF93FF935A991AC0C5
:101240004CB180910402909105020196992720915A
:101250000602309107028217930769F0E0910402B9
:10126000F0910502EC5FFE4F40839093050280935E
:10127000040201C08CB1FF91EF919F918F914F912A
:101280003F912F910F900FBE0F901F9018951F92B6
:101290000F920FB60F9211242F933F938F939F932A
:1012A000EF93FF9320910402309105028091060292
:1012B000909107022817390711F4559812C0E09150
:1012C0000602F0910702EC5FFE4F2081809106023A
:1012D0009091070201969927909307028093060246
:1012E0002CB9FF91EF919F918F913F912F910F908A
:1012F0000FBE0F901F901895CF92DF92EF92FF9242
:10130000CF93DF93EC016A017B01411581EE580711
:1013100061057105F9F0E885F98581E090E00C88B8
:1013200002C0880F991F0A94E2F7808360E079E099
:101330008DE390E0A70196010E94FA3E2150310909
:10134000410951095695479537952795211580E113
:10135000380798F0E885F985108260E874E88EE136
:1013600090E0A70196010E94FA3E215031094109FF
:1013700051095695479537952795EC81FD81308326
:10138000EE81FF8120831D8AEA85FB85408181E013
:1013900090E09C01098802C0220F331F0A94E2F7F3
:1013A000422B4083EA85FB8540819C010A8802C06C
:1013B000220F331F0A94E2F7422B4083EA85FB8514
:1013C00020810B8802C0880F991F0A94E2F780954C
:1013D00082238083DF91CF91FF90EF90DF90CF90B9
:1013E0000895CF93DF93FC0182819381DC01B39553
:1013F000EC01CE5FDE4F4D915C91119728813981D0
:1014000042175307C1F7A285B3854C9181E090E064
:101410009C01018802C0220F331F0A94E2F7209535
:1014200024232C93A285B3854C919C01028802C091
:10143000220F331F0A94E2F7209524232C93A285D0
:10144000B3852C91038802C0880F991F0A94E2F794
:10145000809582238C9380819181FC01EE5FFE4F09
:1014600020813181FC01F39531832083DF91CF917D
:101470000895FC018589882329F0A085B1858C9188
:1014800086FFFBCF158A0895CF93DF93FC0122815D
:101490003381D901B3958D919C911197019699272C
:1014A000E901CE5FDE4F4881598184179507D9F352
:1014B0000D90BC91A02DA20FB31F6C93A281B3819C
:1014C000B39511969C938E93A285B3852C9181E060
:1014D00090E0038802C0880F991F0A94E2F7282B36
:1014E0002C9381E0858B0084F185E02D80818064E0
:1014F000808381E090E0DF91CF91089584E091E0D6
:101500009093EF008093EE009093F1008093F000B1
:1015100080E490E09093F3008093F20029E230E0C1
:101520003093F5002093F4002BE230E03093F70085
:101530002093F6002AE230E03093F9002093F8007F
:101540009093FB008093FA008CE290E09093FD0072
:101550008093FC0084E08093FE0083E08093FF0092
:1015600087E08093000185E08093010181E0809312
:1015700002010895CF93DF931F92CDB7DEB7E091BC
:10158000C804F091C904309711F4ECECF4E0CE01FA
:1015900001962EEB8E179F0710F02193FBCF0F9033
:1015A000DF91CF910895CF93DF9300D0CDB7DEB711
:1015B0002091C8043091C9042115310511F42CEC97
:1015C00034E0CE010196821B930B0F900F90DF91B8
:1015D000CF910895CF93DF931F92CDB7DEB72091BF
:1015E000C8043091C9042115310511F42CEC34E004
:1015F000F901AE014F5F5F4FCF01821B930B4E1776
:101600005F0728F060816E3B11F43196F5CF0F90A3
:10161000DF91CF910895009741F0EFE9FFE0319716
:10162000F1F700C000000197F6CF089584369105C8
:1016300038F064E670E00E94E63ECB010C940B0BA0
:10164000019728F025E32A95F1F70000F9CF0895D6
:101650006AE070E00E94E63ECB010C94160BE82F86
:10166000F0E0EE0FFF1FE554FD4F8081918108955A
:10167000E82FF0E0EE0FFF1FEF58FD4F80819181C2
:1016800008952FB7F894E82FF0E0EE0FFF1FE35214
:10169000FD4F808191812FBF089580914603089569
:1016A00080912502909126020895809113029091D5
:1016B0001402089580911502909116020895E82F62
:1016C000F0E0EE0FFF1FE95DFD4F808191810895ED
:1016D000262F613110F4423040F021E030E0FC016F
:1016E0003383228331832083089550E0BA01620F4F
:1016F000711D620F711D660F771F660F771F665F82
:101700007F4F44E050E00C94623F282FCA01213102
:1017100088F4623078F470E0620F711D620F711D01
:10172000660F771F660F771F665F7F4F44E050E0BC
:101730000C94803F0895FF920F931F93CF93DF93F4
:1017400000D000D0CDB7DEB70EED10E0F12CF801DF
:10175000459155916591749149835A836B837C833C
:10176000AE014F5F5F4F60E08F2D0E94850BF80147
:101770003496459155916591749149835A836B8351
:101780007C83AE014F5F5F4F61E08F2D0E94850B20
:10179000F394085F1F4F81E1F812D9CF81E00E94D6
:1017A000E1110F900F900F900F90DF91CF911F914B
:1017B0000F91FF90089581E020919B0230919C024F
:1017C0002331310509F080E00895809199029091CC
:1017D0009A020895809195029091960208958091C1
:1017E0009F029091A002089580914F029091500223
:1017F000039750F08091550290915602039720F084
:1018000083E090E00C94181980E008952FB7F894C5
:1018100080E090E0FC01EE0FFF1FEE0FFF1FE15094
:10182000FD4F10821182128213820196813191053F
:1018300089F784E690E090934403809343031092E9
:1018400045032FBF0895CF93CFB7F8941092240289
:101850001092230210921F02109220021092210275
:101860001092220210921B0210921C0210921D0272
:1018700010921E0210921702109218021092190272
:1018800010921A020E943A3790931202809311022A
:10189000CFBFCF9108950E94230C10921602109290
:1018A000150210921402109213020895E7E2F2E07A
:1018B0001192119282E0E137F807D1F70895CF93A2
:1018C000CFB7F89481E090E0909344038093430372
:1018D00081E0809345030E94560CCFBFCF910895BD
:1018E000CF93DF930E945F0CC0912502D091260216
:1018F0008091250290912602C817D90729F48AE021
:1019000090E00E946037F4CFDF91CF91089510925C
:10191000460380E00C945205CF93DF9381E00E9450
:10192000410BEC0180E00E94410B8C179D0718F4DD
:10193000C81BD90B02C0C0E0D0E081E0C93ED34053
:1019400008F480E0DF91CF9108958F929F92AF923B
:10195000BF92CF92DF92EF92FF92CF93DF93CDB7FA
:10196000DEB728970FB6F894DEBF0FBECDBFF82EB6
:101970005B0161157105D1F140E0682FCE0105963C
:101980000E94680B41E06F2DCE0101960E94680B0A
:101990002B813C8140E050E0CF80D884E12CF12CB9
:1019A0002C193D094E095F09B50180E090E08D805A
:1019B0009E80A12CB12C681979098A099B090E9483
:1019C000CA3E29813A8140E050E0281939094A0984
:1019D0005B090E941C3F2C0D3D1D4E1D5F1D57FFD6
:1019E00003C020E030E0A901C90102C080E090E01E
:1019F00028960FB6F894DEBF0FBECDBFDF91CF9112
:101A0000FF90EF90DF90CF90BF90AF909F908F901E
:101A100008958F929F92AF92BF92CF92DF92EF92F2
:101A2000FF92CF93DF93CDB7DEB728970FB6F89428
:101A3000DEBF0FBECDBFF82E5B0161157105D1F180
:101A400040E0682FCE0105960E94680B41E06F2DA3
:101A5000CE0101960E94680B29813A8140E050E056
:101A6000CD80DE80E12CF12C2C193D094E095F0957
:101A7000B50180E090E08F809884A12CB12C68198A
:101A800079098A099B090E94CA3E2B813C8140E06A
:101A900050E0281939094A095B090E941C3F2C0DA6
:101AA0003D1D4E1D5F1D57FF03C020E030E0A90122
:101AB000C90102C080E090E028960FB6F894DEBF1E
:101AC0000FBECDBFDF91CF91FF90EF90DF90CF9011
:101AD000BF90AF909F908F9008958250893130F4DD
:101AE000E82FF0E0EF58FF4F8081089581E00895DE
:101AF000CF93DF93833149F481E020919B023091B1
:101B00009C0223313105C1F41AC0E82FF0E0EE0F3A
:101B1000FF1FEF58FD4FC081D1810E946D0D8823BA
:101B200019F0813029F00AC081E0E39740F404C045
:101B300081E0C935D24018F480E001C081E0DF9136
:101B4000CF910895CF93C0E08FE18C0F0E94780D64
:101B5000882329F0CF5FC630B9F786E001C08C2F0B
:101B6000CF9108951F93CF93DF931F92CDB7DEB728
:101B7000182F69830E946D0DE12FF0E0EE0FFF1F1B
:101B8000EF58FD4F4981682F808191810F90DF913F
:101B9000CF911F910C94303B2FB7F89460910D02B8
:101BA00070910E0280910F02909110022FBF2DE7CD
:101BB00030E040E050E00E94FA3EBB27A52F942F72
:101BC000832F08958091430390914403892B49F01A
:101BD0008091430390914403019790934403809331
:101BE0004303089590E0880F991FFC01EF58FD4FC3
:101BF000208131816217730718F4261B370B04C04C
:101C0000AB01421B530B9A01FC01E95DFD4F2730EC
:101C1000310518F01182108206C0208131812F5FBA
:101C20003F4F31832083FC01EF58FD4F7183608368
:101C300008958FB7F89410920D0210920E02109230
:101C40000F02109210021092090210920A021092D2
:101C50000B0210920C028FBF0E945F0C0E944B0C73
:101C600060E070E089E10E94F20D60E070E08BE1DD
:101C70000E94F20D60E070E08CE10E94F20D60E0E5
:101C800070E08DE10C94F20D109226021092250264
:101C90000E94190EE1E7F2E01192119282E0EB3B13
:101CA000F807D1F70895CF93C82F8091460381118B
:101CB0000CC081E00E945205C1110E94440E81E0D7
:101CC00080934603CF910C94700CCF9108950C949F
:101CD000440E80914603882309F44FC040919F022F
:101CE0005091A00280910D0290910E02A0910F02DE
:101CF000B0911002840F951FA11DB11D80930D029C
:101D000090930E02A0930F02B093100280910802EC
:101D100091E0980F90930802883578F12091950210
:101D200030919602DA010E94A93E24E630E040E0BC
:101D300050E00E94FA3E8091090290910A02A0911F
:101D40000B02B0910C02280F391F4A1F5B1F209312
:101D5000090230930A0240930B0250930C02CA010D
:101D6000B90120EA3CE840E050E00E94FA3EB901A7
:101D70008AE10E94F20D109208020895CF92DF923C
:101D8000EF92FF920F931F93CF93DF931F92CDB7E4
:101D9000DEB7C0907102D090720280917302909170
:101DA00074028C159D0518F4C81AD90A02C0C12CFA
:101DB000D12CB60182E10E94F20D20918102309176
:101DC0008202809183029091840200918502109199
:101DD00086022817390720F4BC01621B730B02C06E
:101DE00060E070E08017910718F4081B190B02C01F
:101DF00000E010E08FE10E94F20DB80180E20E9445
:101E0000F20D07E812E091E2F801619171918F0102
:101E1000892F99830E94F20D99819F5F9532A1F7D6
:101E20000E94A20DF82E80E000E010E08F1569F00E
:101E3000EFE1E80FF0E0EE0FFF1FEF58FD4F2081BC
:101E40003181020F131F8F5FF1CFB80183E10E9430
:101E5000F20D0115110581F00C151D0520F49601F8
:101E6000201B310B03C098012C193D09293B3B4035
:101E700018F4680113E102C012E1F12CB60184E10B
:101E80000E94F20D6F2D70E086E10E94F20D612F2D
:101E900070E085E10E94F20D0E94CC0D7C010E9451
:101EA000981B882329F000917702109178020BC0CB
:101EB0000E942522882329F0009175021091760254
:101EC00002C000E010E0B80187E10E94F20DB70106
:101ED00089E10E94F20D9801D6010E94A93E20E1FD
:101EE00037E240E050E00E94FA3EB90188E10F90ED
:101EF000DF91CF911F910F91FF90EF90DF90CF90E6
:101F00000C94F20D4F925F926F927F928F929F92FC
:101F1000AF92BF92CF92DF92EF92FF92CF93DF9377
:101F2000CDB7DEB728970FB6F894DEBF0FBECDBF92
:101F30000E943A372091110230911202821B930BBA
:101F40008133954708F4A0C04FB7F894209123023D
:101F500030912402A8EEB3E00E94A93E6B017C01FF
:101F6000F694E794D794C79440901F0250902002B3
:101F7000609021027090220260911B0270911C02FD
:101F800080911D0290911E0280901702909018027D
:101F9000A0901902B0901A024FBF6D837E838F8389
:101FA00098870E94230C20911502309116022F5F12
:101FB0003F4F30931602209315026D817E818F81F1
:101FC0009885A70196010E94FA3E29833A834B83A4
:101FD0005C83C301B201A70196010E94FA3EB901D8
:101FE00080E00E94A50C3C0169817A8181E00E9419
:101FF000A50C8615970518F4681A790A02C0612C99
:10200000712C4090A9025090AA026414750420F02B
:10201000B3018CE10E94F20DB301641975098BE1E3
:102020000E94F20DC501B401A70196010E94FA3E7B
:10203000B90187E00E94A50C20911302309114028F
:102040009093140280931302BC01621B730B660F02
:10205000771F8DE10E94F20DB6018EE128960FB632
:10206000F894DEBF0FBECDBFDF91CF91FF90EF9010
:10207000DF90CF90BF90AF909F908F907F906F90A8
:102080005F904F900C94F20D28960FB6F894DEBF37
:102090000FBECDBFDF91CF91FF90EF90DF90CF903B
:1020A000BF90AF909F908F907F906F905F904F9078
:1020B0000895CF92DF92EF92FF920F931F93CF93E9
:1020C000DF932FB7F89480914303909144032FBF7F
:1020D000892B09F0ADC08091450381119FC080918B
:1020E0002502909126020196909326028093250264
:1020F0004091FF025091000360910103709102032F
:10210000769567955795479580911F02909120028B
:10211000A0912102B0912202840F951FA61FB71F24
:1021200080931F0290932002A0932102B093220279
:1021300040910303509104036091050370910603DD
:10214000769567955795479580911B0290911C0253
:10215000A0911D02B0911E02840F951FA61FB71FEC
:1021600080931B0290931C02A0931D02B0931E0249
:1021700040911B0350911C0360911D0370911E033D
:10218000769567955795479580911702909118021B
:10219000A0911902B0911A02840F951FA61FB71FB4
:1021A0008093170290931802A0931902B0931A0219
:1021B00080912302909124020196909324028093AF
:1021C00023020E94820F0BEB12E0C0E0D0E0B8EED9
:1021D000CB2EB3E0DB2EE12CF12CFE01EE0FFF1F26
:1021E000EE0FFF1FE150FD4F60817181828193816D
:1021F000A70196010E94FA3EF801219331938F01C5
:10220000B9018C2F0E94A50CBC018C2F0E94F20DED
:102210002196C131D10509F70E94BE0EDF91CF9101
:102220001F910F91FF90EF90DF90CF900C94060CD0
:10223000DF91CF911F910F91FF90EF90DF90CF90A2
:1022400008958091460381110C945910089560E01F
:1022500087E493E00E94AB2A87FD0AC0811102C087
:102260000C94DD2A992787FD909501970C94A72C53
:1022700008950E947B0578940E941B050E946C08BB
:102280000E94CD220E941A1C0E94670E0E94BA0A68
:102290000E9433130E947F310E949B320C946A1279
:1022A0000E9439110E942711FDCF66EA71E087E490
:1022B00093E00E941B308EE890E090934803809357
:1022C0004703EBE4F3E08081825E80830895FC01A4
:1022D00024812E51621710F40C941630862F90E052
:1022E000821B91090E942F166EE00C947E39FF929A
:1022F0000F931F93CF93DF93EC018B0141110E9449
:10230000A13F85E0F82EFA9459F0CE010E947A3F61
:102310008017910739F084E690E00E944C37F3CFA4
:1023200081E001C080E0DF91CF911F910F91FF907C
:102330000895EF92FF920F931F93CF93DF937B014A
:102340008C01E80EF91ECFEFDFEF0E151F05A9F087
:10235000C8010E94723FC82728E0CE019695879554
:102360003C2FEC0130FF04C031E0C32730EAD32713
:10237000215099F70F5F1F4FE8CFCE01DF91CF912A
:102380001F910F91FF90EF900895EF92FF920F939E
:102390001F93CF93DF931F92CDB7DEB78C017B01E4
:1023A00049830E9499114981BC01C8018E0D9F1D6E
:1023B0000F90DF91CF911F910F91FF90EF900C94B0
:1023C0007711482F68E870E08AE090E00C94C5111E
:1023D000482F6CE073E084E990E00C94C511482F1D
:1023E0006CE370E082EA93E00C94C5110F931F93A5
:1023F000CF93DF93D82F182F1170412F63E678E623
:1024000080E090E00E947711C82F412F6CE679E6BA
:1024100082E090E00E9477118111C1E0D1FB00279A
:1024200000F9402F69E070E084E090E00E947711AD
:102430008111C260D2FB112710F9412F62E070E0D8
:1024400086E090E00E9477118111C460D3FBDD2704
:10245000D0F94D2F68E070E088E090E00E9477119D
:102460008111C86001110E949B0B80E00E94E11164
:102470008111C26011110E946C1780E00E94E81166
:102480008111C460D1110E944C1380E00E94EF11B1
:102490008111C8608C2FDF91CF911F910F9108950A
:1024A000CF93C82F0E945632882389F0C0FDC260A6
:1024B000C1FDC460C2FDC8600E9473328C2F0E94AF
:1024C000F611682F8C2F0E94773281E001C080E0E6
:1024D000CF91089580E00E94F61181110C94501262
:1024E00081E0089580E00E94F61181600C94501202
:1024F000CF930E9475318EEF92E09093D603809334
:10250000D503C1E0C093D4031092CC0380E993E0DB
:102510000E948214823011F4C093CC030E94F91AF5
:1025200091E0813009F090E0892FCF91089561E02A
:1025300081E00E94581A8AE093E09093D60380933A
:10254000D503089561E081E00E94581A86E193E086
:102550009093D6038093D503089560E082E00E94B3
:10256000581A88EF92E09093D6038093D50308958C
:10257000909170039093CD031092CC0390E088303B
:10258000910560F5FC01E65DFF4F0C943B3F80E94F
:1025900093E00E948214811106C00E94A2121CC006
:1025A00081E08093CC030E94971216C082EF92E0E4
:1025B0000CC00E94AD1210C085E08093CD03F3CF14
:1025C00081E08093CC0380E193E09093D6038093E5
:1025D000D50302C00C94C3170C94F91A80E0089537
:1025E000CF93C82F0E947D28882359F1C0935303AD
:1025F000109251031092500383E0809352030E9483
:10260000253D81E00E94530E0E947812882391F0AC
:1026100081E0809352030E94FB1D0E94753110924D
:10262000D40384E00E941836809153030E94B812AC
:102630000E943F1E0E94870C0E94353DCF910C9452
:102640007E31CF910895DC01D296ED91FC91D39724
:10265000EE0FFF1FEE0FFF1FEE54FE4F65917591B9
:102660008591949108954CE350E062EA73E084E52B
:1026700093E00C94623F4CE350E062EA73E084E53F
:1026800093E00E94803F81E00C94EF114CE350E016
:1026900066EC71E00C94413F84E593E00E944613A0
:1026A0000C943B13FC01268937892630310520F034
:1026B00025E030E0378B268B089508950F931F9304
:1026C000CF93DF93CDB7DEB7C754D1090FB6F894D7
:1026D000DEBF0FBECDBF8C01BC01CE0101960E94B2
:1026E000F12CCE0101960E940E2D8CE3FE013C964A
:1026F000D80101900D928A95E1F70E943B13C95BC6
:10270000DF4F0FB6F894DEBF0FBECDBFDF91CF9184
:102710001F910F910895FC0125913491F9010994BD
:1027200040E0FC01259134910296232B11F04F5F7C
:10273000F8CF842F0895282F81E090E03AE02150CF
:1027400038F0AC01349FC001359F900D1124F7CFB4
:10275000089597FD02C081E008958FEF0895CF920C
:10276000DF92EF92FF92CF9361157105810591057C
:1027700021F461E070E080E090E0C0E02AE0C22E49
:10278000D12CE12CF12CCF5FA70196010E94FA3EDB
:10279000CA01B9012115310541055105A1F78C2F59
:1027A000CF91FF90EF90DF90CF900895BC0180E033
:1027B00090E00C94AF13CF92DF92EF92FF920F93C1
:1027C0001F93CF93DF93EC017B016A01E881F981CC
:1027D000CF01B8010E94E63E009731F01E141F049D
:1027E0009CF4081B190B03C01E141F0474F4C901C8
:1027F000801B910BE817F90718F40E0F1F1F01C07B
:102800008901198308830DC08C01C8018C0D9D1DA1
:102810008E179F0718F4E01BF10B01C0F601F98336
:10282000E883DF91CF911F910F91FF90EF90DF90A0
:10283000CF9008950F931F93242F30E001E010E014
:1028400040E050E00E94DB131F910F9108950F9319
:102850001F93242F30E001E010E041E050E00E949F
:10286000DB131F910F910895AF92BF92CF92DF9229
:10287000EF92FF920F931F93CF93DF93EC017B01B5
:102880006A0159016881798180E090E00E94AF136C
:10289000823020F082500E949B1302C081E090E0C1
:1028A0008C019501A601B701CE010E94DB13DF91D7
:1028B000CF911F910F91FF90EF90DF90CF90BF903D
:1028C000AF9008952FEF3FEF40E050E00C943414A8
:1028D0000E94A5378111FCCF0E94A5378823E1F320
:1028E0000895CF93CAE00E947937811108C084E629
:1028F00090E00E946037C150B1F780E001C081E0F4
:10290000CF910895FC01808191818930910579F002
:102910009C01245031092530310558F09C0121508B
:10292000310981E02230310528F480E0089583E008
:10293000089582E00895CF93DF93FC0120813181D7
:1029400045E0429FF001439FF00D1124E60FF11D79
:10295000EE0FFF1FE257FD4FC591D4916130C9F4CE
:102960002230310529F4C0916603D09167031DC060
:102970002130310529F4C0916803D091690315C055
:102980000E948214823089F48091780390917903B7
:102990000AC0623051F40E948214823031F4809176
:1029A0007A0390917B03C80FD91FCE01DF91CF919D
:1029B0000895FF920F931F93CF93DF938C01F62E10
:1029C000FC01C085D1850E949B14F2E0FF120CC06F
:1029D000F801208131812230310531F4C730D10531
:1029E00018F0219780EB94E09C012C9FC0012D9F53
:1029F000900D3C9F900D1124DF91CF911F910F916D
:102A0000FF9008950F931F93CF93DF93EC018B01F9
:102A100050E00E946F384AE3B801CE01DF91CF91B8
:102A20001F910F910C941B38EF92FF920F931F93FD
:102A3000CF93DF9300D01F92CDB7DEB78C01462F26
:102A40000C969A8389838EE08B83D801ED91FC915B
:102A5000EE0FFF1FEE5FFD4FE590F490BE016D5F3E
:102A60007F4FCE0101960E940215A701BE016D5F46
:102A70007F4FCE0101960E94363840E2BE016D5F65
:102A80007F4FCE0101960E941B38F801428153818D
:102A9000BE016D5F7F4FCE0101960E946F384FE2FD
:102AA000BE016D5F7F4FCE0101960E941B38D80199
:102AB00018964D915C911997BE016D5F7F4FCE01C5
:102AC00001960E946F380F900F900F90DF91CF9179
:102AD0001F910F91FF90EF900895CF93DF9300D057
:102AE0001F92CDB7DEB7462F2EE02B830C969A832C
:102AF0008983BE016D5F7F4FCE0101960E94021552
:102B00000F900F900F90DF91CF9108952AE1289FA9
:102B1000B001299F700D11246C567F4F4AE150E09F
:102B200080E993E00C94623F2AE1289FB001299F3D
:102B3000700D11246C567F4F4AE150E080E993E01C
:102B40000C94803FFC01A281B381209174033091E9
:102B500075030E94A93E24E630E040E050E00E9468
:102B6000FA3E293EFDEF3F074105510520F028EED2
:102B70003DEF40E050E0C9010895FC012081318122
:102B80002130310529F420916403309165030AC096
:102B90002230310529F4209162033091630302C091
:102BA00020E030E0FC0180859185AC01249FC001CC
:102BB000259F900D349F900D11240895FC012081D4
:102BC00031814CE0429FB001439F700D11246A5E39
:102BD0007D4F4CE050E00C94413FFC01608182E06D
:102BE00092E00C944439CF93DF93EC018881998172
:102BF00060E0892B41F4CE010E94D91467E0DF9197
:102C0000CF910C94783BCE010E94D91465E00E94CC
:102C1000783B8FE20E94C338888599850E940239EB
:102C200083E4DF91CF910C94C33866E0FC0184818A
:102C300095810C94743B66E0FC01868197810C942D
:102C4000743BFC0182819381883EFDEF9F0721F454
:102C50008EE998E00C942C3967E00C94703B2AE1E3
:102C6000AC01249FC001259F900D112480569F4FD9
:102C700008950F931F93CF93DF93CDB7DEB7A79738
:102C80000FB6F894DEBF0FBECDBF8C01AB01BC0107
:102C9000CE0101960E94362BCE0101960E94BB2BDD
:102CA0008AE1FE013C96D80101900D928A95E1F7E8
:102CB000A7960FB6F894DEBF0FBECDBFDF91CF91C0
:102CC0001F910F910895FC0120813181260F371F3C
:102CD0002A30310550F01616170624F4FC01118233
:102CE000108205C029E030E0FC01318320830C9480
:102CF000DE1562E00E94D9149C0140E050E060E8DB
:102D000070EF8AEF92E00E94FA3E293883E138079B
:102D10004105510520F028E833E140E050E0C901C9
:102D2000089562E00E94D9149C0140E050E060E404
:102D30007BE48CE490E00E94FA3E293E83E0380771
:102D40004105510520F028EE33E040E050E0C90194
:102D5000089561E00E949B14BC0188E799E60E94F7
:102D6000E63ECB010895CF93DF93EC018A819B81EE
:102D70008436910520F484E690E09B838A838A81DF
:102D80009B81893E9D4F20F088EE9DEF9B838A8337
:102D90008A859B85893E934020F088EE93E09B874F
:102DA0008A87CE010E94A916288539858217930744
:102DB00010F499878887CE010E9479162C813D8175
:102DC0008217930710F49D838C83CE010E94911685
:102DD0002E813F818217930710F49F838E83809109
:102DE0007203909173032C813D812817390710F4E9
:102DF0009D838C832E813F812817390710F49F8390
:102E00008E83DF91CF910895EF92FF920F931F93DE
:102E1000CF93DF9300D0CDB7DEB77C01FC0180817A
:102E20009181892B19F402E310E002C001E010E067
:102E3000C70169837A830E94A9169C0141E050E092
:102E400069817A81C70108960E94DB13C7010F9040
:102E50000F90DF91CF911F910F91FF90EF900C9405
:102E6000B3160F931F93CF93DF93EC0102960E944A
:102E70006214CE010E94B3160A811B811695079534
:102E80001D830C83CE010E948214813021F416959B
:102E900007951D830C838C819D819F838E83CE013A
:102EA000DF91CF911F910F910C94B316CF93DF93C5
:102EB000EC0104960E946214CE01DF91CF910C9434
:102EC000B316CF93DF93EC0106960E946214CE01F5
:102ED000DF91CF910C94B3160F931F93CF93DF9391
:102EE0004CE050E06EE572E080E993E00E94413FE3
:102EF00080E993E00E94B316C0E0D0E08E010F5F3E
:102F00001F4FB80180E993E00E946D15CE010E9429
:102F100094150E31110511F0E801F0CF81E0DF9139
:102F2000CF911F910F910C94E811FC01828593853C
:102F3000883EF3E09F0719F48EE998E005C063E04E
:102F40000E940F3B89E998E00C942C39CF93DF93D2
:102F5000EC012FEF3FEF41E050E00A960E9434145D
:102F6000CE01DF91CF910C94B31680916C039091B8
:102F70006D030E94DF1C84E093E09093D60380935E
:102F8000D5030C94F91A81E08093D4031092AA031C
:102F90004091AA03242F30E080916A0390916B0343
:102FA000880F991F01972817390711F41092D4033D
:102FB00040FF02C080E001C083E00E94B81281306F
:102FC00089F49091D403992369F08091AA038F5FCB
:102FD0008093AA030E94DE1D0E94190E0E94B5175D
:102FE0008130B1F208958091C903811113C00E940C
:102FF0004D0B882381F00E94500B2091AB03309140
:10300000AC03821B930B9C0181E02330310518F047
:1030100080E0089581E00895815E0C94380B0F9351
:103020001F93CF93DF9310E0CFEFDFEF00E08091AD
:10303000CB03181760F4812F0E940C188C179D0782
:1030400010F0CE0101C0012F1F5FEC01F0CF802FE7
:10305000DF91CF911F910F910895CF93DF939091BE
:10306000C903911104C0DF91CF910C940C18909179
:10307000AF03C82FD0E0992391F00E940C18CC0F19
:10308000DD1FFE01E055FC4FC454DC4F208131812F
:1030900048815981241B350B280F391F07C0FE01B9
:1030A000EE0FFF1FE055FC4F20813181C901DF91F8
:1030B000CF910895EF92FF920F931F93CF93DF93D9
:1030C000C0E0D0E0E12CF12C0FEF1FEF8091CB039B
:1030D00090E0C817D9076CF48C2F0E942D18E816C1
:1030E000F90608F47C018017910708F48C012196F9
:1030F000EDCFE01AF10A81E0209180033091810345
:103100002E153F0508F080E0DF91CF911F910F91C0
:10311000FF90EF900895CF93C82F8091C903882323
:1031200041F0C11106C00E94500B9093AC038093F4
:10313000AB03C093C9030E94560C8091C803811150
:1031400004C08C2FCF910C945C05CF910895EF9221
:10315000FF920F931F93CF93DF9381E00E940B05A3
:1031600086E10E94380B8093CB030CEB13E030EB2D
:10317000E32E33E0F32EC0E0D0E08091CB0390E06B
:10318000C817D9076CF48C2F0E940C18F801819392
:1031900091938F01F701819391937F012196EDCF58
:1031A0001092C9031092C80380E00E948B181092FD
:1031B000AC031092AB038FEF8093CA03DF91CF91E2
:1031C0001F910F91FF90EF90089580E00E948B185F
:1031D00081E08093C80308950E94E51880E00C9474
:1031E0000B05FF920F931F93CF93DF938091CA0338
:1031F00087FD17C00E942D18EC0110E0FF24F39406
:1032000000E08091CB03181750F4812F0E942D18F5
:10321000C817D90708F40F29FF0C1F5FF2CF802FC2
:1032200001C080E0DF91CF911F910F91FF90089531
:103230001F93CF93DF93EC0110E08091CB0318171D
:1032400048F48FE1810F0E945F0B8C179D0720F0DF
:103250001F5FF3CF81E001C080E0DF91CF911F912C
:1032600008959F92AF92BF92CF92DF92EF92FF921A
:103270000F931F93CF93DF9386E090E00E9418197D
:10328000882309F464C00E94F40B882309F45FC00A
:103290008091CA0387FF04C00E940F188093CA035D
:1032A0008091CA030E940C186C0162E080E993E0EF
:1032B0000E949B145C0140EBE42E43E0F42E0CEBE7
:1032C00013E0C0E0D0E0992493948091CB0390E088
:1032D000C817D907B4F48C2F0E940C188A159B05C7
:1032E00070F0C816D90608F4912CF70181939193D8
:1032F0007F01F801819391938F012196E6CF992464
:1033000093941092AF030E9442379093AE03809340
:10331000AD03992069F0DF91CF911F910F91FF903C
:10332000EF90DF90CF90BF90AF909F900C94E518F6
:103330000E94F118DF91CF911F910F91FF90EF90B4
:10334000DF90CF90BF90AF909F900C948B18DF913F
:10335000CF911F910F91FF90EF90DF90CF90BF9092
:10336000AF909F900895CF938091AF03811115C0C6
:1033700081E08093AF03C0E08091CB03C81768F46D
:103380008C2F0E940C18EC2FF0E0EE0FFF1FE4547E
:10339000FC4F91838083CF5FEFCFCF9108950E9440
:1033A00042372091AD033091AE03821B930B0895F9
:1033B0008091C903811103C00E94311909C00E9484
:1033C000B3190E94CF19409718F080E00E948B1823
:1033D0000E94F317882311F082E008958091C803BA
:1033E0008823D1F381E008951F93CF93DF93EC01FD
:1033F00010E08091CB03181740F4812F0E942D1804
:103400008C179D0720F41F5FF4CF80E001C081E09E
:10341000DF91CF911F9108951F93CF93DF93EC011C
:1034200010E08091CB03181740F4812F0E942D18D3
:10343000C817D90720F41F5FF4CF80E001C081E0F6
:10344000DF91CF911F9108956091CB03662329F0FE
:1034500070E00E94E63ECB01089580E090E0089580
:103460000E949C2261E081E00E94581A81E00E9443
:10347000F91F8091CE039091CF030C94672281E0D5
:103480000C94B2220E94F40B882321F00E9439226E
:103490000C94942008952091720330917303821745
:1034A000930708F4C9019093CF038093CE03089546
:1034B000CF93C62F682F80E993E00E94D914909390
:1034C000D3038093D203CC2329F08091940390916D
:1034D000950304C080919603909197039093D10334
:1034E0008093D0036091CD0370E08091D0039091E0
:1034F000D1030E94E63ECB01CF910C944B1A8091F0
:10350000D5039091D6030C948B138091D5039091A1
:10351000D60302960C948B130E94851A0E943F1EBC
:103520000C941738CF93DF930E944237EC010E942E
:1035300042378C1B9D0B853B910510F00E94870C38
:103540000E94A537882399F388E0DF91CF910C94EE
:103550001836CF93DF930E948C1A0E944237EC01F9
:1035600085E00E9418360E94870C93980E94BF3114
:103570000E94711481110FC00E9407330E947114C0
:10358000811109C00E9442378C1B9D0B853B910520
:1035900068F3939AEBCF88E00E94183680E0DF91C1
:1035A000CF910C94530E0E948C1A0E94870C0E949B
:1035B000C33186E00E9418360C94921AE091D5032C
:1035C000F091D603349685919491FC010994811170
:1035D00003C00E94D31A0BC0813039F48091D40308
:1035E000811105C00E94A91A02C081E0089580E0FF
:1035F00008950F931F93CF93DF9310927F040E943F
:103600007F1A02E0C0E0D0E011E00E94A53780936D
:103610007F040E94E831112379F00E947F1E082F59
:103620000E94E71A182F882339F00E94500BC81700
:10363000D90791F4111107C08091D403882311F0A8
:10364000011114C010E080917F048130F1F60E94D6
:1036500076378823D1F20AC00E94500BEC010E94F9
:10366000DE1A082F0E94E71A182FE4CF0E94851A4D
:10367000802FDF91CF911F910F91089581E00E94DB
:10368000071C0C94EC180E94F91B0E94A71821E05B
:1036900080917C0390917D03892B09F420E0209395
:1036A000D70380E00C94F91F1F93CF93DF93C09151
:1036B000D203D091D303CE010E94241A0E940C1A87
:1036C000182F0E94F317811109C0111107C00E9421
:1036D000E50B11E0C817D90708F410E0812FDF913E
:1036E000CF911F9108951F93CF93DF930E94541B96
:1036F000182F0E94AC1BEC018091D703882329F07E
:10370000BE01812F0E94432001C0812F882329F010
:1037100081E00E94071C81E007C0BE01812F0E944A
:1037200062210E94DA1B82E0DF91CF911F91089500
:1037300081E09091DC03911180E0089581E0209177
:10374000DA033091DB03232B09F480E008958091A4
:10375000DA039091DB0308958091D8039091D90307
:1037600008950E94EA0B009711F481E090E09C011B
:1037700040E050E060E47BE48CE490E00E94FA3E9C
:10378000293E83E038074105510520F028EE33E05B
:1037900040E050E0C9010895813020E4920710F024
:1037A00080E090E49093DB038093DA030E94C906E3
:1037B0000C945F0CCF93DF93EC010E94B11BBC0112
:1037C000C817D90708F4BE018091D8039091D90396
:1037D0008617970759F07093D9036093D80380E157
:1037E0000E94090DDF91CF910C94CC1BDF91CF91FA
:1037F00008958091DC03882349F080E090E00E94E6
:10380000CC1B81E00E941A061092DC030895CF932E
:10381000C82F8091DC0381110BC0CC2349F080E0DC
:1038200090E00E94CC1B80E00E941A06C093DC034B
:10383000CF91089580E090E00E94CC1B81E00C9431
:10384000071C87E08093850482E0809386040E94B1
:10385000113683E08093DD0308950F931F93CF9378
:10386000DF938091CC03882379F00E94A20D909180
:10387000980301E0981301C000E011E0811110E00D
:10388000913021F4112311F010E000E00E94DB0BD5
:10389000882309F45CC083E10E94380BEC0182E1CB
:1038A0000E94380BC817D90728F49C012C1B3D0B2C
:1038B000E90102C0C81BD90BC53FD14008F447C07D
:1038C000C1E0011102C087E001C083E0809385045C
:1038D000112329F080918504825080938504CC23A4
:1038E00029F080918504815080938504011104C0E2
:1038F000111102C0CC2331F081E00E941836111161
:1039000007C004C088E00E94183608C0002331F0C8
:1039100080917E0390917F03892B11F4D0E001C048
:10392000D1E00E947937811102C01092DD03D111DC
:1039300006C0C11104C00E947937883051F08091CF
:10394000DD03823011F481E00AC082E008C0C0E0EB
:10395000B8CF8091DD038F5F8093DD03F0CFDF91DF
:10396000CF911F910F9108958FEF8093850488E088
:103970000C9418361092E20308950E9442379093F7
:10398000E1038093E00308950E9442372091E00311
:103990003091E103821B930B2091DE033091DF0312
:1039A0002817390728F081E08093E20382E0089528
:1039B0001092E20381E008958091E20308952CE3E0
:1039C000AC01249FC001259F900D11249093DF032B
:1039D0008093DE0308950E94A7180E949C2281E034
:1039E0000C94F91F81E00E94B2220C94EC181F93F2
:1039F000CF93DF93C091D203D091D303CE010E9425
:103A0000241A0E94F419182F0E94F317811109C07B
:103A1000111107C00E94E50B11E08C179D0708F4F7
:103A200010E0812FDF91CF911F9108951F93CF93C5
:103A3000DF930E94F71C182F0E943922EC01BC0171
:103A4000812F0E944320882329F081E00E94B22226
:103A500081E007C0BE01812F0E9462210E9467227F
:103A600082E0DF91CF911F9108958091F1039091B1
:103A7000F2032091F403222341F00E944237209167
:103A8000F1033091F203821B930B08956091ED03D3
:103A90007091EE038091EF039091F00328EE33E0F4
:103AA00040E050E00E94FA3EC90108956091E903A8
:103AB0007091EA038091EB039091EC0328EE33E0E0
:103AC00040E050E00E94FA3EC90108950F931F9311
:103AD000CF93DF9361E080E993E00E94D9148C01D9
:103AE00064E080E993E00E94D914EC0184E10E9433
:103AF000380B80179107B8F4C817D907B0F49C01A8
:103B00002C1B3D0BC8018C1B9D0B64E670E00E94D2
:103B1000E63EC9010E94E63E6436710510F063E698
:103B200070E0862F03C083E601C080E0DF91CF9173
:103B30001F910F910895CF93DF930E94661D90917E
:103B4000F3039817E0F48093F3030E94351D20914E
:103B5000F6033091F703EC01C21BD30B0E94351D15
:103B60009093F7038093F6038091F8039091F90303
:103B70008C179D0720F4D093F903C093F803DF91CD
:103B8000CF9108950E949B1D8091F503882311F029
:103B900089E601C084E690E02091F303821B91093D
:103BA0002091F8033091F903AC01429FC001439F7B
:103BB000900D529F900D1124089508950E94661D46
:103BC0008093F3031092F7031092F6031092F90317
:103BD0001092F8031092ED031092EE031092EF038F
:103BE0001092F0031092E9031092EA031092EB0393
:103BF0001092EC030895CF93DF9368E572E080E0C4
:103C00000E94090D9093E8038093E70361E080E947
:103C100093E00E94D914EC01C854D44FC93729E667
:103C2000D20710F0C8E7D9E6CE010E94FA05BE011E
:103C300080E00E94090D813C2FEF920710F080EC8C
:103C40009FEF9093E6038093E5030E94DB0B809344
:103C5000F50380E993E00E94A2159093E40380931A
:103C6000E3030E9442379093F2038093F1030E9492
:103C7000DE1D81E08093F403DF91CF9108950E94CF
:103C8000351D9093F2038093F1031092F40308958D
:103C90000E942B2281111DC00E949E1B811119C000
:103CA0000E94F317882351F18091ED039091EE0368
:103CB000A091EF03B091F00380599F4FAF4FBF4FDA
:103CC0008093ED039093EE03A093EF03B093F00382
:103CD00008958091E9039091EA03A091EB03B091DC
:103CE000EC0380599F4FAF4FBF4F8093E9039093F0
:103CF000EA03A093EB03B093EC03D2CF0895CF93E4
:103D0000DF938091F403811102C082E0D3C080E090
:103D10000E94410B2091E5033091E603821793073F
:103D200058F42091E7033091E80382179307B8F421
:103D30000E94981B882399F080E993E00E948214E6
:103D4000823009F08BC0809198039091990302977B
:103D500009F084C00E94DB0B811180C082C0C09139
:103D6000F5030E94DB0BC81719F08FE699E09DC0A0
:103D7000C091D003D091D103C851DC4F0E94EF0B0A
:103D8000C817D90718F484E699E08FC086E00E942E
:103D9000380B20917603309177038217930718F43C
:103DA00085E599E082C089E10E94380BC091E30368
:103DB000D091E403C83E2DEFD207F9F08C179D0790
:103DC000E0F080E993E00E94A215C817D90709F036
:103DD00050C080E993E00E948214811164C08091F8
:103DE00092039091930360919403709195030E94C4
:103DF000E63E6A307105E8F556C0C0919A03D0914D
:103E00009B03C83E83E0D807A0F46091E90370915A
:103E1000EA038091EB039091EC0320E63AEE40E058
:103E200050E00E94FA3E2C173D0718F08AE399E013
:103E30001AC080915A0390915B03892B09F465CFD6
:103E400087E00E94380B20915C0330915D032817B6
:103E5000390708F05ACF8AE299E027C08EE799E047
:103E600024C08EE799E0909351038093500381E042
:103E700021C0C091E303D091E40380E993E00E9464
:103E8000A2158C179D0730F485E499E090935103B7
:103E90008093500380E993E00E94A2159093E4037D
:103EA0008093E303E4CF85E499E0909351038093FA
:103EB000500380E0DF91CF9108950E94F21C0E9490
:103EC0003E1B0C94EC18CF93DF931F92CDB7DEB757
:103ED0008091FA03882329F0813031F40E94731B0A
:103EE0000CC00E94161D09C00E94D819823089F0AA
:103EF00089830E945D1F89810CC0813051F49091AB
:103F0000CC03992331F082E08093FA030E94A71832
:103F100082E00F90DF91CF910895CF93DF930E94BD
:103F2000A71861E083E00E94581AC091D203D09193
:103F3000D3038091CB03811106C00E94E50BC81703
:103F4000D90740F40CC0CE010E94241A0E940C1A1A
:103F5000882329F00E94EB1C1092FA030BC060E04A
:103F600083E00E94581A0E94431B81E08093D7038C
:103F70008093FA03DF91CF9108958091FB03813004
:103F800029F48091CE039091CF03089580E090E0D2
:103F900008952CE0829FC0011124895F9B4F0C94EF
:103FA000DC228FE494E00C94DC22CF93DF9300D0EA
:103FB00000D0CDB7DEB782E10E94380B9A838983A7
:103FC00084E10E94380B29813A81281B390B3A83FE
:103FD000298387E10E94380B9C838B83CE01019655
:103FE0000E94DC220F900F900F900F90DF91CF91E5
:103FF0000895EF92FF920F931F93CF93DF93F82EC4
:1040000081E08093FB030E94E50BBC012091CE036D
:104010003091CF034091D2035091D3030F2D87E409
:1040200094E00E94F7228091D2039091D3030E94E2
:10403000241AEC0110E08CE0E82E8091CB031817D5
:1040400098F4812F0E942D18BC012091CE0330914D
:10405000CF03E19EC00111240F2DAE0181509C4F72
:104060000E94F7221F5FE9CF109255041092FE03C1
:104070001092540410925304DF91CF911F910F912D
:10408000FF90EF9008951F93CF93DF93182FEB01CC
:104090008091CC03882361F1112349F0809155046C
:1040A000811105C00E94E51881E08093550480913C
:1040B0005504882311F08530D9F42091CE03309136
:1040C000CF03203A310510F420EA30E02C173D07E9
:1040D00010F41092C8030E94D8198093FB0381301A
:1040E000F1F40E945A18882319F08FEF8093CA03C5
:1040F0000E94BD1F8C179D0780F0112371F08091E5
:104100005504853051F49091FE0381E0890F80932E
:10411000FE0381E09A3020F402C01092FE0380E09A
:10412000DF91CF911F9108950F931F93CF93DF934A
:10413000EC010E94E50BAE01BC0187E494E00E9413
:10414000B02310E00CE08091CB03181770F4812F9E
:104150000E942D18BC01019FC0011124AE018150A5
:104160009C4F0E94B0231F5FEECFDF91CF911F9134
:104170000F910895CF92DF92EF92FF920F931F93CA
:10418000CF93DF936091D2037091D30387E494E0DF
:104190000E941C238C018091D2039091D3030E9432
:1041A000241A7C01D12C9CE0C92E8091CB03D81617
:1041B00098F4CD9CE0011124C150DC4FB701CE0131
:1041C0000E941C230817190728F0B701CE010E948E
:1041D0001C238C01D394E9CFC801DF91CF911F91AB
:1041E0000F91FF90EF90DF90CF9008950F931F9362
:1041F000CF93DF93EB012091D0033091D1038C0159
:104200002817390708F489010E94BD1F9C018017F7
:10421000910708F49801C217D307E1F040915504C3
:104220004530D1F42C173D07B8F082179307A0F45E
:104230008091CE039091CF038C179D0758F0409149
:10424000FC035091FD038091AB039091AC034817A0
:10425000590711F4CE0109C08091AB039091AC03D2
:104260009093FD038093FC03C901DF91CF911F91CF
:104270000F9108950F931F93CF93DF93EC010E944A
:10428000E50B9093480480934704D0934A04C0936D
:10429000490410E00CE08091CB03181770F4812FD3
:1042A0000E942D18019FF0011124E150FC4F9183D1
:1042B0008083D383C2831F5FEECFDF91CF911F91A5
:1042C0000F9108951F93CF93DF93182FEB010E9456
:1042D000F40B811108C01123E1F1209153043091B6
:1042E0005404232BB1F10E94F317811132C0CE0187
:1042F0000E949420CE010E943A210E94BA208C177D
:104300009D0708F048C09C012C0F3D1F369527954E
:104310003093540420935304BE0180915304909130
:1043200054040E94F6209093540480935304909177
:104330005504923009F1A8F49923C1F0913039F570
:10434000112339F083E080935504109254041092A5
:1043500053048091530490915404DF91CF911F91A5
:104360000895933061F0943081F011C0112389F3E6
:104370000E94E51881E00CC010925504EACF10921B
:1043800054041092530484E003C0112311F385E018
:1043900080935504DECF9093540480935304BCCF94
:1043A0000C94301ACF93DF930E94421A0E94E50BBF
:1043B000EC0162E080E993E00E94D9148C179D071C
:1043C00030F48091D0039091D1030E9467228091B4
:1043D000D2039091D3038C179D0718F48BEE96E0CF
:1043E0002AC00E945A0B029760F18091600390915D
:1043F0006103892B71F08BE10E94380BEC0180E99D
:1044000093E00E94BD15C817D9071CF487EE96E00B
:1044100012C080915A0390915B03892B91F08DE13A
:104420000E94380B20915E0330915F0328173907F3
:1044300044F481EE96E0909351038093500381E021
:1044400001C082E0DF91CF91089581E090915A04FC
:10445000911180E0089581E0209158043091590431
:10446000232B09F480E00895809158049091590419
:104470000895809156049091570408950E94EA0B84
:10448000009711F481E090E09C0140E050E060E88A
:1044900070EF8AEF92E00E94FA3E293883E13807F4
:1044A0004105510520F028E833E140E050E0C90122
:1044B0000895893E2DEF920710F088EE9DEF9093BE
:1044C0005904809358040E9412060C945F0CCF93F9
:1044D000DF93EC010E943E22BC01C817D90708F403
:1044E000BE0180915604909157046817790750F4E3
:1044F0009C01261B370B2D38310568F0BC016C5828
:10450000710909C09B01281B390B2D38310518F0A2
:10451000BC0164577F4F8617970759F07093570473
:10452000609356048FE00E94090DDF91CF910C94A7
:104530005922DF91CF91089580915A04882389F000
:104540001092590410925804109257041092560475
:1045500080E090E00E94592281E00E9423061092A0
:104560005A040895CF93C82F80915A04811113C023
:10457000CC2389F080E090E00E94592210925904E7
:1045800010925804109257041092560480E00E9432
:104590002306C0935A04CF910895109259041092A3
:1045A0005804109257041092560480E090E00E9444
:1045B000592281E00C94B222FC01428153814115C1
:1045C000510591F0A081B181B7FF03C0B195A195CC
:1045D000B10928EE33E00E94B83E9A0140E050E075
:1045E0000E94FA3EC901089580E090E008950F937B
:1045F000FC01CB01002341F04617570708F4CA011C
:104600006417750748F407C06417750708F4CA01F2
:104610004617570708F4BA019783868391838083EE
:10462000138212821582148233872287681B790BCA
:10463000718760870F910895FC0186819781A2851B
:10464000B3850084F185E02D3097D1F09B0140E0E7
:1046500050E0281B390B410951090E94BF3E9F01C0
:10466000442737FD4095542F0E941C3F21153105EA
:1046700081E04807510524F457FD05C0C90108959C
:104680008FEF9FEF089580E090E00895DF92EF9222
:10469000FF920F931F93CF93DF93EC012A813B810D
:1046A0002417350720F4FA01E21BF30B03C0F901CC
:1046B000E41BF50B8C819D81969587958E179F073E
:1046C00010F5E880F9802417350740F48A01021BB1
:1046D000130BCB018E199F097C0105C0E61AF70A5E
:1046E0008901041B150BC7010E94A913D82E8885C8
:1046F00099850E94A913D81206C01D830C83F986E0
:10470000E8861B870A87DF91CF911F910F91FF9059
:10471000EF90DF9008950F931F93CF93DF93EC01F9
:104720008B019A01A885B9850E94B83E2A853B85F0
:1047300040E050E00E941C3FC801A0E0B0E08217BA
:104740009307A407B5071CF41F821E8204C0021B36
:10475000130B1F830E83DF91CF911F910F9108954B
:10476000EF92FF920F931F93CF93DF93EC018B0196
:104770007A010E944623A701B801CE01DF91CF91B3
:104780001F910F91FF90EF900C948B230F931F9329
:10479000CF93DF938C01443019F0CFEFDFEF02C0ED
:1047A000C1E0D0E00E947B37D8011B96EC91F0E08D
:1047B000EE0FFF1FEF58FD4F9C01C29FC001C39F2A
:1047C000900DD29F900D112420813181820F931F73
:1047D00091838083DF91CF911F910F910895EF9284
:1047E000FF920F931F93CF93DF931F92CDB7DEB746
:1047F0008C01443021F0EE24EA94FE2C03C0EE2418
:10480000E394F12C69830E947B37D8011B96ED91CC
:10481000FC911C976981E60FF11DE491F0E0EE0F29
:10482000FF1FEF58FD4FE89E9001E99E300DF89E66
:10483000300D112480819181820F931F9183808399
:104840000F90DF91CF911F910F91FF90EF900895FE
:10485000CF93DF93EC010E94F735882311F0888114
:1048600001C08FEFDF91CF910895CF93DF9300D0F8
:1048700000D0CDB7DEB780E00E942F0B9A838983EA
:1048800081E00E942F0B29813A81281B390B3A8342
:10489000298383E10E94380B9C838B83AE014F5F99
:1048A0005F4F61E080E00E94850BAE014F5F5F4F7C
:1048B00061E081E00E94850B0F900F900F900F90A8
:1048C000DF91CF9108950F931F93CF93DF93CDB7CF
:1048D000DEB728970FB6F894DEBF0FBECDBF8C01B0
:1048E00089E00E942F0B9E838D8388E00E94380B05
:1048F000800F911F98878F838AE00E942F0B9A83E5
:1049000089830F81188580E20E94380B800F911FE8
:104910009C838B83AE014B5F5F4F61E088E00E9418
:10492000850BAE014B5F5F4F61E089E00E94850B14
:1049300080E20E94780D882339F0AE014F5F5F4F0F
:1049400061E08AE00E94850B28960FB6F894DEBFDE
:104950000FBECDBFDF91CF911F910F9108950F939F
:104960001F93CF93DF9300D000D0CDB7DEB78C017B
:104970008AE00E942F0B9A83898389E00E94380B7A
:10498000800F911F9C838B83AE014F5F5F4F61E06F
:104990008AE00E94850B0F900F900F900F90DF918F
:1049A000CF911F910F910895CF93DF93D82F65EC8E
:1049B00076E089ED96E00E949431C0E082E10E94A9
:1049C000780D882399F08FE10E94780D8D17A1F062
:1049D000C1110CC067EB76E0DD2319F089ED96E09C
:1049E00002C08EEC96E00E949431C1E00E94A5378F
:1049F000813021F780E001C081E0DF91CF910895FF
:104A0000CF93DF9300D000D0CDB7DEB7962F5A8377
:104A100049833C832B838F3121F4C9010E94632495
:104A20000DC0803221F4C9010E94AF2407C0AE013D
:104A30004F5F5F4F61E0892F0E94850B0F900F90B1
:104A40000F900F90DF91CF910895FF920F931F93D6
:104A5000CF93DF93F82E162F042F83E00E94183691
:104A6000812F0E94380BEC01802F0E942F0BAC018C
:104A70009E01602F812F0E94002581E080934603D4
:104A80000E94700CFF2039F0DF91CF911F910F91A0
:104A9000FF900C943524DF91CF911F910F91FF90DF
:104AA0000895EF92FF920F931F93CF93DF93CDB7AB
:104AB000DEB72E970FB6F894DEBF0FBECDBF81E0F4
:104AC0000E94D424882309F441C063E673E0CE0138
:104AD00001960E941B308FEF8A8784E990E09A83C9
:104AE00089838AE593E09D878C8789E08E8761E0E2
:104AF000CE0101960E94AB2AF82E87FD27C0082F11
:104B0000112707FD1095F801E65AFC4FE49086E066
:104B10008F156CF38E2D0E94780D882341F30E942F
:104B2000700C109246036F2DCE0101960E94092948
:104B3000882341F0F801ED5AFC4F44916E2D81E03D
:104B40000E94252581E080934603D1CF2E960FB693
:104B5000F894DEBF0FBECDBFDF91CF911F910F91B3
:104B6000FF90EF9008950F931F93CF93DF93CDB7EE
:104B7000DEB72E970FB6F894DEBF0FBECDBF1092F2
:104B8000670061E273E0CE0101960E941B308FEF57
:104B90008A8784E990E09A8389838CE193E09D87FA
:104BA0008C8787E08E8761E0CE0101960E94AB2A58
:104BB000082F87FD20C0E82FFF27E7FDF095E45E72
:104BC000FC4F1491812F0E94780D882361F30E947D
:104BD000700C10924603602FCE0101960E940929A5
:104BE000882329F0412F612F80E00E94252581E054
:104BF00080934603D8CF81E0809367002E960FB64E
:104C0000F894DEBF0FBECDBFDF91CF911F910F9102
:104C100008958F3019F4CB010C945922CB010C94D8
:104C2000CC1BEF92FF920F931F93CF93DF93EC0176
:104C3000443019F00FEF1FEF02C001E010E00E94B6
:104C40007B37089F7001099FF00C189FF00C11240E
:104C50000E947B372F8538898C0141E050E0B701F5
:104C6000CE010D960E94DB136D857E858B85DF91CD
:104C7000CF911F910F91FF90EF900C940926AF9266
:104C8000BF92CF92DF92EF92FF920F931F93CF9339
:104C9000DF93CDB7DEB765970FB6F894DEBF0FBED2
:104CA000CDBFA82EB62E7A0180E00E94D42488239E
:104CB00009F46FC0AA2069F00E949C2288E799E657
:104CC0000E94FA05E2E0CE2EFFE0DF2E08EE1DEF97
:104CD00008C00E94F91B63E0C62E70E1D72E00E0E9
:104CE00010E469E373E0CE0101960E941B308FEF60
:104CF0008A872CE930E03A832983DC86BD86198BCC
:104D0000088B4D856C85CE0142960E94680B2A89DE
:104D10003B893F872E8761E0CE0101960E94AB2A36
:104D200087FD2FC08111EDCF6E857F858D2D0E946F
:104D3000092660E0CE0101960E9409298823D9F056
:104D40000E94700CFD8AEC8A2E853F853B8B2A8B56
:104D5000AE014E5E5F4F6B2D8D2D0E94850B8C2D0D
:104D60000E942F0B9B8B8A8BAE014E5E5F4F6B2D8B
:104D70008C2D0E94850B60E070E08D2D0E9409262D
:104D8000C0CF81E0AA2019F00E94B22202C00E9486
:104D9000071C65960FB6F894DEBF0FBECDBFDF913E
:104DA000CF911F910F91FF90EF90DF90CF90BF9028
:104DB000AF900895EF92FF920F931F93CF93DF93DD
:104DC000CDB7DEB729970FB6F894DEBF0FBECDBFC3
:104DD0008C017B01BC01CE0101960E941B3060E07A
:104DE000CE0101960E94AB2A682F87FD10C0E82FE4
:104DF000EE0FFF0BEE0DFF1D4591549181E093E006
:104E00000D34190709F080E00E943F26E8CF29966B
:104E10000FB6F894DEBF0FBECDBFDF91CF911F91CB
:104E20000F91FF90EF9008951F93CF93DF9300D0E1
:104E300000D01F92CDB7DEB7182F6D830E942F0BC5
:104E40009A838983812F0E94380B9C838B83AE01C8
:104E50004F5F5F4F6D81812F0E94850B0F900F90E8
:104E60000F900F900F90DF91CF911F9108950F93A6
:104E70001F93CF93DF93CDB7DEB72C970FB6F8947F
:104E8000DEBF0FBECDBF182F062F6DE273E0CE013F
:104E900001960E941B308FEF8A8724EA30E03A8324
:104EA00029831C8761E0CE0101960E94AB2A87FD11
:104EB00013C08111F7CF1092460360E0CE01019636
:104EC0000E940929882321F0602F812F0E94142736
:104ED00081E080934603E6CF2C960FB6F894DEBFB0
:104EE0000FBECDBFDF91CF911F910F9108951F93FA
:104EF000CF93DF93CDB7DEB729970FB6F894DEBF17
:104F00000FBECDBF182F63E373E0CE0101960E9460
:104F10001B3060E0CE0101960E94AB2A682F87FD0E
:104F200004C0812F0E943727F4CF29960FB6F8943A
:104F3000DEBF0FBECDBFDF91CF911F9108951F93AC
:104F4000CF93DF93CDB7DEB729970FB6F894DEBFC6
:104F50000FBECDBF67E773E0CE0101960E941B3004
:104F600060E0CE0101960E94AB2A182F87FD2DC06C
:104F70000E94253D81E00E94530E1230A1F04CF4B6
:104F8000112371F01130C9F463E473E08DE493E010
:104F90000EC0133079F0143081F40E94B3250DC097
:104FA0000E9451250AC06FE373E087E493E00E94FA
:104FB000DA2603C087E00E94772781E00E94E11192
:104FC0000E94870C0E94353DCBCF10925203299648
:104FD0000FB6F894DEBF0FBECDBFDF91CF911F910A
:104FE0000895CF93DF93EC01842F0E94A50C9E01BE
:104FF00036952795A9014C0F5D1F8417950730F44E
:10500000C21BD30B21E0C817D90708F020E0822F7C
:10501000DF91CF91089568EE73E080E00E94090D62
:105020002BE1289FB001299F700D112440E088E7F3
:1050300099E60C94F127CF93DF931F92CDB7DEB79B
:10504000482F68EE73E049830E94090D25E0289FF0
:10505000B001299F700D1124498188E893E10F90D8
:10506000DF91CF910C94F127CF93DF931F92CDB7AF
:10507000DEB7482F64E670E049830E94090DBC0149
:10508000660F771F680F791F49818CE291E00F90BE
:10509000DF91CF910C94F127CF930E946A12C82F11
:1050A000882341F10E940B28C82F811105C08FEA87
:1050B00096E00E9494321EC08FE00E941B28882335
:1050C00029F082E00E941B28811106C086EA96E042
:1050D0000E949432C0E00EC080E10E9434288823F0
:1050E00031F083E00E943428C82F811103C08AE97F
:1050F00096E0EECF8C2FCF9108950C944C281F93FF
:10510000CF93DF93EC01162F0E941630CE01099643
:105110000E942824992787FD9095612F70E08617BB
:10512000970759F0EB85FC85E60FF71F84916D8595
:10513000DF91CF911F910C94B20DDF91CF911F9110
:1051400008951F93CF93DF93EC01162F82E10E9405
:10515000780D81110FC065EC76E089ED96E00E9434
:1051600094318B85803141F581E0DF91CF911F91A2
:105170000C94071C612FCE010E941630CE010996B7
:105180000E942824992787FD9095212F30E08217CF
:10519000930791F0111108C065E08D859E85DF9120
:1051A000CF911F910C940F3B0E94EF0B67E0DF91B2
:1051B000CF911F910C94743BDF91CF911F91089573
:1051C0001F93CF93DF93EC01162F0E941630CE0170
:1051D00009960E942824992787FD9095212F30E079
:1051E0008217930791F0111107C067E08B85DF915B
:1051F000CF911F910C94B20D8B850E942F0B67E00D
:10520000DF91CF911F910C940F3BDF91CF911F91B4
:105210000895DF92EF92FF920F931F93CF93DF9346
:10522000EC01F62E69871A8681E08D8382E0D82E04
:10523000EE24E3948E01075F1F4F0E94A537482F8D
:10524000823011F0843061F4E881F9810280F381C9
:10525000E02D6F2DCE010995F986DA86ED8204C026
:10526000813089F0883079F0C8010E9402368111BE
:10527000ED828D81882319F0CE010E94562A8A85FD
:105280008F5F8A87DACF8FEF898781E08E838D8366
:10529000483009F080E0DF91CF911F910F91FF908E
:1052A000EF90DF900895CF93DF93EC010E940F38C9
:1052B0008B819C810E942C390E9413386A818881DD
:1052C0009981DF91CF910C94E138FC0187818F3176
:1052D00018F48F5F8783089586818F5F8683089592
:1052E000FC018781882319F0815087830895868186
:1052F0008150868308950F931F93CF93DF93FC0112
:10530000C681D0E06D2F80E00E94093810E11C0FAB
:1053100001E00C0F8C2F0E94C338011711F0C02F31
:10532000F7CFDF5FD23011F0C12FECCFDF91CF91FB
:105330001F910F9108951F93CF93DF93EC018BEC96
:1053400090E00E94533C1FEF8E81181721F0CE0190
:105350000E947B291E818F81682F70E094E07595F3
:1053600067959A95E1F78F700E9409380E94A537DA
:10537000823049F0843019F0813049F413C0CE01F5
:105380000E946529E1CFCE010E947029DDCF8830CF
:10539000D9F68D81E881F981E80FF11D8F819E8119
:1053A000890F8083DF91CF911F910895FC01718354
:1053B0006083428334832383158280E2868317824D
:1053C0000895CF93DF93EC018BEC90E00E94533C67
:1053D0000E941738CE010E94532961E08D810E94FE
:1053E00009380E94A5378230B1F0843041F0813015
:1053F000C1F48BEC90E00E944C3C80E026C04D81D3
:10540000242F30E08A8190E00197281739072CF784
:105410004F5F4D83E2CF8D818823F9F281508D83D8
:10542000DCCF8830D1F682E00E94F837823048F035
:1054300083E00E9418368BEC90E00E944C3C81E0A7
:1054400004C0CE010E949B29C3CFDF91CF91089564
:105450000895FC018CEA90E091838083128213828C
:10546000648381E0858386830895FC012281211174
:1054700003C081E082830895438130E0240F311D11
:10548000848190E001972817390714F44F5F438314
:105490000895FC018281882319F081508283089548
:1054A0008381882311F08150838308951F93CF93C4
:1054B000DF93EC0110E0612F80E00E9409388A81BF
:1054C000181302C08EE301C080E20E94C338E88155
:1054D000F9816B81610F0190F081E02DCE0109957A
:1054E0000E94DE381F5F123031F71D82DF91CF91AD
:1054F0001F9108950F931F93CF93DF93EC010E94A8
:10550000A537182F0E94EB3C882321F081E08D8382
:105510008FE71CC00B818A81080F123031F01430E4
:1055200039F4CE010E94352A03C0CE010E94492AD7
:105530008B819A81890F081711F081E08D838D810D
:10554000882319F0CE010E94562A812FDF91CF9136
:105550001F910F910895EF92FF921F93CF93DF93C6
:105560001F92CDB7DEB77C0181E0F701858311E0A2
:10557000C70169830E947A2A6981811102C0F701FB
:105580001682F7019681911108C0883031F481E0CC
:10559000868383819281890F09C0662311F0F70108
:1055A0001583813029F79111E3CF8FEF0F90DF91B1
:1055B000CF911F91FF90EF900895CF93DF93CDB7D8
:1055C000DEB729970FB6F894DEBF0FBECDBF63E8F4
:1055D00073E0CE0101960E941B3060E0CE0101967F
:1055E0000E94AB2A813049F0823051F081110BC00A
:1055F00084E593E00E945E13F0CF0E949F27EDCFD9
:105600000E947212EACF87FFE8CF29960FB6F8946E
:10561000DEBF0FBECDBFDF91CF910895262F44305E
:1056200019F06FEF7FEF02C061E070E0223091F07F
:1056300028F4222349F0213051F00895243081F0DC
:1056400060F0253081F008950B960C9463160B964C
:105650000C9404170B960C9431170B960C94561758
:105660000B960C9461170B960C94A617EF92FF9271
:105670000F931F93CF93DF93EC018B017A016BE8BB
:1056800073E00E941B308FEF898782EB90E0998353
:1056900088838AE1F801DE011B9601900D928A95BC
:1056A000E1F7FEA2EDA2DF91CF911F910F91FF9044
:1056B000EF9008950F931F93CF93DF93CDB7DEB78D
:1056C00028970FB6F894DEBF0FBECDBF8C01BC018A
:1056D000695E7F4F2CE337E04EE050E0CE0101964B
:1056E0000E94D629CE0101960E94E12981E0F801AD
:1056F000858328960FB6F894DEBF0FBECDBFDF912D
:10570000CF911F910F910895CF93DF93EC010E94E9
:1057100017380E940F3886E397E00E942C390E94C8
:1057200013386EE0CE0147960E94E1380E9468145B
:1057300083E0DF91CF910C941836CF93DF93EC0187
:105740006DA17EA16F5F7F4F0B960E941415CE0155
:10575000DF91CF910C94842BCF93DF93EC016DA15B
:105760007EA16F5F7F4F0B960E946D15CE01DF917A
:10577000CF910C94842BDF92EF92FF920F931F93A3
:10578000CF93DF93CDB7DEB76A970FB6F894DEBF3D
:105790000FBECDBF8C018AE1D82EC8010B967C01CB
:1057A00060E0C8010E94AB2A87FD30C0873041F01D
:1057B000883051F0863061F4C8010E949D2BF0CFF3
:1057C000C8010E945A2BECCFC8010E94AC2BE8CF35
:1057D000F701DE0111969D2D01900D929A95E1F74A
:1057E000682FC8010E940929811109C0FE01319664
:1057F000D7018D2D01900D928A95E1F7D1CF83E0ED
:105800000E941836C7010E94B316CACF6A960FB617
:10581000F894DEBF0FBECDBFDF91CF911F910F91E6
:10582000FF90EF90DF9008951F93CF93DF93EC01EB
:10583000162F0E941630CE0109960E94F735882354
:1058400011F0298501C02FEF332727FD3095812FD7
:1058500090E028173907B1F11230F9F058F411230C
:10586000A9F0113079F5CE010B96DF91CF911F9100
:105870000C94F3151430F9F0B8F0153019F5CE0189
:105880000B96DF91CF911F910C949517CE010B963B
:10589000DF91CF911F910C94ED15CE010B96DF9106
:1058A000CF911F910C942116CE010B96DF91CF91D1
:1058B0001F910C941516CE010B96DF91CF911F917D
:1058C0000C941B16DF91CF911F910895DC01179660
:1058D000ED91FC911897E60FF11D64918FE993E02B
:1058E0000C9444390F931F93CF93DF93EC018B01FA
:1058F00080E061E0680FF801E80FF11DE491E83005
:1059000011F0862FF6CFCE010E94292A8AEB90E073
:105910009983888318870F83DF91CF911F910F910F
:10592000089580E993E00E948214833039F0823038
:1059300041F0811109C08DE694E0089584E694E079
:10594000089586E794E008958BE594E008950F9319
:105950001F93CF93DF93EC01109284040E9486156D
:105960000E94912C8C0160E0C8010E94AB2A87FD47
:105970001BC0D8011796ED91FC911897E80FF11D07
:1059800087FDFA958491883061F4BE0180E993E047
:105990000E943916CE010E94941581E00E94E81100
:1059A000DFCF0E94F012DFCFDF91CF911F910F91D7
:1059B000089561EC73E086E794E00E94722C66EB38
:1059C00073E08DE694E00E94722C6AEB73E084E64B
:1059D00094E00E94722C61EB73E08BE594E00C94F0
:1059E000722C0F931F93CF93DF93EC018B0164ED27
:1059F00073E00E941B308FEF898780EC90E09983E1
:105A000088838CE3F801DE011B9601900D928A9544
:105A1000E1F7DF91CF911F910F910895DF92EF92FF
:105A2000FF920F931F93CF93DF93CDB7DEB7EC9721
:105A30000FB6F894DEBF0FBECDBF7C018C01055FB1
:105A40001F4F8CE3D82E60E0C7010E94AB2A87FD70
:105A50002AC0873139F4C8010E94461383E00E94AE
:105A60001836F1CFF801DE0111969D2D01900D92AF
:105A70009A95E1F7682FC7010E940929811109C091
:105A8000FE013196D8018D2D01900D928A95E1F796
:105A900006C083E00E941836C8010E945213C80154
:105AA0000E945D13D0CFEC960FB6F894DEBF0FBE08
:105AB000CDBFDF91CF911F910F91FF90EF90DF90BD
:105AC0000895262F215064E670E00E94E63ECB0147
:105AD000622F0E940F3B83E40C94C338262F215081
