:100000000C94CC040C94F4040C94F4040C94F404B8
:100010000C9449080C94F4040C94F4040C94F40427
:100020000C94F4040C9479080C94F4040C94F404E7
:100030000C94F4040C9413090C9448090C94F404E3
:100040000C9425080C94F4040C94F4040C94F4041B
:100050000C94F404C512CE12D412D712DA12E112A3
:10006000DE12E812542E582E5D2E622E652E672E5B
:100070006C2E6F2E722E782E7B2E7E2E812E842E4D
:10008000892E8D2E912E942E972E9C2E9F2EA32E50
:10009000D02ED22ED92EE02EE62EEA2EF22EFA2ED9
:1000A000FE2E092F0B2F132F1B2F232F2A2F2E2F1E
:1000B000322F342F362F3A2F3C2F422F0F36113646
:1000C00013361736173615361B3619368A3A6C3AF8
:1000D000753A6E3A773A673A733A000000003ED7B5
:1000E000356200000000F567E63007033200482B58
:1000F000E803E1073200C32E2C01000000000000DD
:100100000000000000000000000000000000BDBB77
:10011000DF36C24CA40B0C4970170000000043BF2F
:10012000A80E0000000008D75B1000000000B8DB3C
:10013000BA200000000003DB5F100000000000D6C2
:100140006110000000001ED764100000000000DAFB
:1001500061100C033200482BE803DA0232003A1136
:100160002C0100060800FF01010A01060900FF0337
:10017000020002060A00FF00000A06060E00FF0346
:10018000020005060D00FF02030004060C00FF0339
:10019000020003060B00FF04060007060700FF032A
:1001A0000200A60100006F7074696F6E73008025F5
:1001B0000000004B00000096000000E1000000C2BB
:1001C00001004600881370170000701764000100DA
:1001D000FBFFF1FF000005001E0001000A003200D5
:1001E0007800102700000000000001000800000057
:1001F00000000300000000000000000095089008C7
:100200008B08860881087C08770872086D086808E2
:100210000000980898086C071027580201009808F9
:10022000F4016C070100E00102009808F4016C077A
:100230000100E00103009808DC006C070600E00103
:100240000400980898086C070300780005009808D7
:1002500098086C07030078000600980898086C0757
:10026000030078000700980898086C0703007800DE
:100270000800980898086C0703007800090098089F
:1002800098086C07030078000100010001000100DC
:100290000100B0041C07520300005203B004080719
:1002A000E8030000E803D0079209D60600006C07B7
:1002B000E40C100ED007E40CB80B100E0410C409A7
:1002C000A60EAC0D740E6810B80B0A0F890C740ED4
:1002D000CC10B80B0A0F890C740EFE10B80B0A0F65
:1002E000890C40066C0714054006780549188B18E0
:1002F00079192C1B271B5B1B051C981C111CA11CAE
:100300009E1CA81CCF1CD61CF91C4D1F1D1F231F93
:100310007021F419722108090A0001F405EC05E4C2
:1003200005DC05D40500000306FC05000013060AE1
:1003300006000024061C06000064002C016400E88E
:100340000332062C0600003F063806000006090AA4
:100350000B0C0D0E061F2021222324131275066F8D
:1003600006690663065D06570651064B06450600FC
:1003700000AB06A20696068A067B060000BF08B5FB
:1003800008A70800002B07260721071C07170710DE
:10039000070407FA06EF060000240915090D0903F2
:1003A00009F708EF08E008D508C8080003040708A3
:1003B0000003070800010203040708000102030408
:1003C0000506070871076A0764075B0752075808A4
:1003D0004D0846083A0831082808210815080B0876
:1003E000FF07F207E807DE07D307C907C007B4070E
:1003F000A8079E0792078B0783077A070000202033
:100400002D2D202000636865616C692D6368617221
:100410006765720A76302E39395F323031353031C6
:1004200030380063616C69626174696F6E20657257
:10043000726F7200706C656173652063616C6962D4
:100440007261746500656570726F6D2072657365A9
:10045000740A6572726F723A200072657365747403
:10046000696E6720656570726F6D00206E6F202069
:100470002020202020202079657300656570726F30
:100480006D2072657365743A005245564552534566
:1004900020504F4C4152495459004E2F4100657233
:1004A000726F723A2020202000636F6D706C65744B
:1004B000653A20001434008000003F32FFFF0480C2
:1004C000A733FFFF04808832FFFF248067330001D9
:1004D00008807333000108808733000100800730F3
:1004E00000C000000B3000C000000F30004004804E
:1004F0001330004004801233FFFF0480D232FFFF2C
:1005000000804C33FFFF00008834800000803033CF
:10051000FFFF00000000FFFF00002500202D2D3A06
:100520002D2D0064656C746120543D20004E2F41D8
:1005300000546578743D0064656C746120563D20FC
:10054000006D6178566F75743D002D0054657874A8
:100550003D00206C696D69743D0056696E7075745C
:100560003D00776972657320523D00626174742E9C
:1005700020523D006220004C696D6974733A20007E
:100580006E6F2064542F740025200043684342425C
:100590006C446946435374534243590001000100BF
:1005A0000100010001000A006400010003000800CE
:1005B00009000A000B000C00010002000400060004
:1005C00008000A000C00141719181A0705061F2046
:1005D00021222324566D696E75733A0056706C752E
:1005E000733A200056623270696E3A00566231707A
:1005F000696E3A0056623070696E3A0076616C75C9
:10060000653A0074656D703A2000706F696E7420F1
:10061000322E00706F696E7420312E00496F757430
:100620003A20200076616C75653A20003330306DD9
:1006300041003130306D4100313030306D4100319A
:1006400030306D4100566F75743A0056312D363A90
:10065000005662363A20005662353A20005662341F
:100660003A20005662333A20005662323A20005651
:1006700062313A200056696E3A20006578706572E2
:10068000742044414E474552210074656D702065C9
:10069000787465726E00492064697363686172677B
:1006A0006500492063686172676500766F6C7461EC
:1006B00067650062616C616E636520706F727421A2
:1006C00000626174746572792100646973636F6E8E
:1006D0006E65637400636F6E6E6563740064542F9F
:1006E0006474002D64560056206C696D6974005264
:1006F00065736574206E616D650045646974206E74
:10070000616D6500437265617465206E616D6500A1
:10071000546C696D3A200049643A200049633A20DC
:100720000043683A2000563A2020004261743A2083
:1007300020004E616D653A0045646974206E616DFC
:10074000653A006D5600206E6F0079657300496E42
:1007500066006578742E20416463006578742E20ED
:10076000646562006465627567006E6F726D616CCE
:100770000064697361626C65640020202072657397
:1007800065740073706565643A2000554152543AAF
:100790002000616463206E6F6973653A20006261B6
:1007A0006C2E206572723A00666F7263652062611A
:1007B0006C3A20006469732061677265733A2000A7
:1007C0006F2E64697363683A006F2E6368617267A5
:1007D000653A00696E707574206C6F773A006361DA
:1007E0007020434F66663A006D696E20496F7574DC
:1007F0003A006D696E20496F75743A20492F006286
:100800006565703A20202020202000442F4320726C
:100810006573743A00442F43206379636C65733ABF
:100820000052776972653A004E6943642064563A13
:10083000004E694D482064563A00656E616220643E
:10084000563A2020200064542F64743A006578746E
:10085000726E2054434F3A00657874726E20543A99
:1008600020202000432F6D004E695A6E004C343317
:1008700035004C343330004C69706F004C696C6F3C
:10088000004C6966650050622020004E694D4800AA
:100890004E69436400556E6B6E006D696E2E006E7E
:1008A0006F6C696D69740072657365742064656648
:1008B00061756C740063616C696272617465007368
:1008C000657474696E67730065646974206261742D
:1008D0007465727900443E4320666F726D617400E6
:1008E00073746F726167652B62616C616E63007314
:1008F000746F72616765006661737420636861720A
:100900006765006469736368617267650062616C42
:10091000616E6365006368617267652B62616C611B
:100920006E636500636861726765006578742E7434
:10093000656D702E6375746F66660074696D6520F1
:100940006C696D69740063617061636974792063B7
:1009500075746F666600696E707574205620746FCA
:10096000206C6F77004857206661696C757265006E
:1009700062616C616E63657220646973632E0062EC
:1009800061747465727920646973632E00008F0549
:100990007F0A5611A72CDB3111241FBECFE5D8E00A
:1009A000DEBFCDBF10E0A0E6B0E0E0EAFDE702C0A8
:1009B00005900D92AA3CB107D9F714E0AAECB0E07B
:1009C00001C01D92AA3CB107E1F719E0C8E9D9E0DE
:1009D00004C02297FE010E94643ECE38D107C9F7B9
:1009E0000E9451110C94CE3E0C94000086B3809569
:1009F0008170B19B02C090E001C092E0892BB29B54
:100A000002C090E001C094E0892BB39B02C090E04B
:100A100001C098E0892B0895882339F0A69AA79AF7
:100A2000D59A889A8A9A8F9A0895A698A798D59861
:100A300088988A988F98089520E042E060E18BECD6
:100A400090E00E94B63B0E94FC080E94CE0684ED16
:100A500092E60C94FB058091D100882331F08091BF
:100A6000CA008F5F8093CA0002C01092CA008091B2
:100A7000D1008A3010F480E001C088E09091D1006C
:100A8000943108F084E09091D1009E3108F082E02A
:100A90009091CA00982311F0C49A0895C4980895BB
:100AA0008093D1000895811106C0939A0E94240674
:100AB00080E00C941B069398089580FF02C0AE9AC4
:100AC00001C0AE9881FF02C0AF9A01C0AF9882FF0B
:100AD00002C0DD9A01C0DD9883FF02C0909A01C078
:100AE000909884FF02C0929A01C0929885FF02C03C
:100AF000979A08959798089580E00E945D0580E098
:100B00000E9453051092D10087B18F7387B98B9AD9
:100B10008D9AD79ABC9A8C9A8D9A8E9A08958BEC5E
:100B200090E00C940B3C2FB7F8948091D3009091F7
:100B3000D400A091D500B091D6002FBF892F9A2F55
:100B4000AB2FBB27A7FDBA9508952FB7F894109245
:100B5000DA001092D9008617970768F480E090E4D5
:100B6000A0E0B0E08093D3009093D400A093D50090
:100B7000B093D60008C01092D3001092D400109207
:100B8000D5001092D6008091D3009091D400A0910E
:100B9000D500B091D600BA2FA92F982F882780931F
:100BA000D3009093D400A093D500B093D60081E0F9
:100BB0008093D2002FBF0895CF93DF93EC01C13013
:100BC00080E6D80758F4C13080E4D80748F48EE0B6
:100BD0000E9408099598BE018DE009C0C0E0D0E6EA
:100BE0008DE00E940809949ABE0170548EE0DF9156
:100BF000CF910C94E608853D22E6920710F084ED33
:100C000092E6BC0180E00E940A0D813C2FEF920722
:100C100010F080EC9FEF2FB7F8949093D80080935A
:100C2000D7002FBF08952FB7F8949093DA008093E0
:100C3000D9002FBF0895882329F080E00E94240660
:100C4000DF980895DF9A0895CF93DF93C82F882304
:100C500019F080E00E941B06DFB7F8948DE00E9437
:100C6000080994988EE00E94080995981092D20085
:100C7000DFBFC11104C0969ADF91CF910895969875
:100C800080E00E94390BEC0186E00E94390BBE0126
:100C9000DF91CF910C94A5050F931F938091D20003
:100CA000882309F474C080E00E94420B2091D70091
:100CB0003091D8008217930730F080E00E9424061C
:100CC0001092D20064C082E00E94420B4091D90091
:100CD0005091DA0060E070E00091D3001091D400F0
:100CE0002091D5003091D600481B590B610971093C
:100CF000E2E0440F551F661F771FEA95D1F7040FF6
:100D0000151F261F371F0093D3001093D400209384
:100D1000D5003093D6008091D3009091D400A0915B
:100D2000D500B091D600B7FF08C01092D300109242
:100D3000D4001092D5001092D6008091D3009091EB
:100D4000D400A091D500B091D6000197A046B1057E
:100D500060F080E090E0A0E6B0E08093D300909354
:100D6000D400A093D500B093D6008091D300909189
:100D7000D400A091D500B091D600892F9A2FAB2F27
:100D8000BB27A7FDBA951F910F910C94DC051F910D
:100D90000F910895BC018EE00C94E608DE98D69879
:100DA000BD9ABE9ABF9A8EEA86B9369A089584B1E2
:100DB00035B1E091E4002FB7F89490E0932BF0E088
:100DC000DF01AA0FBB1FA352BD4F11969C938E93B8
:100DD0003091DD00332391F0EE0FFF1FEE0FFF1F68
:100DE000E150FD4F4081518162817381480F591F4D
:100DF000611D711D40835183628373832FBF0895EA
:100E0000CF930E94E9219093FC028093FB020E9401
:100E10008F1B9093FE028093FD028091DD0088235A
:100E200009F459C00E94E92140913B0350913C03D1
:100E300060913D0370913E03CAE09C01C29FC001D6
:100E4000C39F900D1124480F591F611D711D4093C0
:100E50003B0350933C0360933D0370933E030E9419
:100E60008F1B40913F03509140036091410370916B
:100E700042039C01C29FC001C39F900D1124480FE3
:100E8000591F611D711D40933F03509340036093B0
:100E9000410370934203809143039091440301976F
:100EA000B9F48091070390910803A0910903B091D0
:100EB0000A0352E0B695A795979587955A95D1F76D
:100EC0008093070390930803A0930903B0930A0348
:100ED000CF910C94E30DCF910895089580918003F4
:100EE00090918103892BE9F04091E1004423C9F0FE
:100EF00081E090E00090DF0002C0880F991F0A9403
:100F0000E2F720914303309144032F703FB7F894E8
:100F10005BB39BB3982B9BBB240F2A95F1F75BBB6C
:100F20003FBF08958091DC008F5F803108F080E042
:100F30008093DC008091DE009091DF00A091E000C2
:100F4000B091E1008093E2009093E300A093E4006D
:100F5000B093E500E091DC00EF5FE03108F0E0E005
:100F600084E0E89FF0011124EE59FE4F85919591A0
:100F7000A591B4918093DE009093DF00A093E000F0
:100F8000B093E1008091820390918303892B39F023
:100F90008091DE00873019F486E08093DE00809136
:100FA000DC0081110CC00E940007809143039091E6
:100FB000440321E0892B09F420E02093DD0008950B
:100FC0000E94D7068091DB0091E0980F9093DB00A0
:100FD000873079F128F4882341F08130A9F0089511
:100FE000883049F1893061F108958091DE0087FDF4
:100FF00005C088B38F71806C88BBD69A8091E4005D
:10100000823011F50C944C068091DE0087FD1CC0E7
:101010004FB7F8943AB33F7B28B38091DE0050E29B
:101020008502C00111242F71282B28BB3ABB4FBF6A
:1010300008950C946E078091DF00806287B908954F
:101040001092DB000C94920708951F920F920FB636
:101050000F9211242F933F934F935F936F937F933E
:101060008F939F93AF93BF93EF93FF930E94E007FB
:10107000FF91EF91BF91AF919F918F917F916F9170
:101080005F914F913F912F910F900FBE0F901F9046
:1010900018951F920F920FB60F9211242F933F9322
:1010A0004F935F936F937F938F939F93AF93BF9370
:1010B000EF93FF930E944D36FF91EF91BF91AF9157
:1010C0009F918F917F916F915F914F913F912F9160
:1010D0000F900FBE0F901F90189588E085BD85B5C5
:1010E000846085BD14BC8CE783BD89B7806889BFE7
:1010F00008951F920F920FB60F9211242F933F93D2
:101100004F935F936F937F938F939F93AF93BF930F
:10111000EF93FF932091EC003091ED008091E80077
:101120009091E900820F931F9093E9008093E8006B
:101130002091EA003091EB008091E6009091E70069
:10114000820F931F9093E7008093E6002FB7F894E7
:101150008091E8009091E90035E0969587953A9561
:10116000E1F79BBD8ABD8091E6009091E70045E0E4
:10117000969587954A95E1F799BD88BD2FBF8091D7
:10118000E8009091E9008F7199279093E90080938E
:10119000E8008091E6009091E7008F719927909385
:1011A000E7008093E6000E942B05FF91EF91BF912D
:1011B000AF919F918F917F916F915F914F913F91EF
:1011C0002F910F900FBE0F901F9018959FB7F89416
:1011D0008E3039F47093ED006093EC008FB5806829
:1011E00008C08D3039F47093EB006093EA008FB53E
:1011F00080628FBD9FBF089580E092E097BD86BD5D
:1012000082E08FBD89E18EBD89B7846089BF089572
:101210008E3019F48FB58F7704C08D3019F48FB5E7
:101220008F7D8FBD08951F920F920FB60F921124DC
:101230002F933F934F938F939F93EF93FF935A99DD
:101240001AC04CB180910402909105020196992731
:1012500020910602309107028217930769F0E0910E
:101260000402F0910502EC5FFE4F4083909305026B
:101270008093040201C08CB1FF91EF919F918F91F7
:101280004F913F912F910F900FBE0F901F90189587
:101290001F920F920FB60F9211242F933F938F93AB
:1012A0009F93EF93FF932091040230910502809168
:1012B0000602909107022817390711F4559812C0B9
:1012C000E0910602F0910702EC5FFE4F20818091D1
:1012D0000602909107020196992790930702809346
:1012E00006022CB9FF91EF919F918F913F912F9121
:1012F0000F900FBE0F901F901895CF92DF92EF9234
:10130000FF92CF93DF93EC016A017B01411581EEDF
:10131000580761057105F9F0E885F98581E090E0ED
:101320000C8802C0880F991F0A94E2F7808360E05E
:1013300079E08DE390E0A70196010E94213E2150C3
:10134000310941095109569547953795279521153A
:1013500080E1380798F0E885F985108260E874E844
:101360008EE190E0A70196010E94213E21503109B3
:10137000410951095695479537952795EC81FD818F
:101380003083EE81FF8120831D8AEA85FB854081C1
:1013900081E090E09C01098802C0220F331F0A946B
:1013A000E2F7422B4083EA85FB8540819C010A8855
:1013B00002C0220F331F0A94E2F7422B4083EA85D2
:1013C000FB8520810B8802C0880F991F0A94E2F7E1
:1013D000809582238083DF91CF91FF90EF90DF9003
:1013E000CF900895CF93DF93FC0182819381DC013C
:1013F000B395EC01CE5FDE4F4D915C911197288142
:10140000398142175307C1F7A285B3854C9181E01A
:1014100090E09C01018802C0220F331F0A94E2F77A
:10142000209524232C93A285B3854C919C0102889E
:1014300002C0220F331F0A94E2F7209524232C9335
:10144000A285B3852C91038802C0880F991F0A9446
:10145000E2F7809582238C9380819181FC01EE5F7D
:10146000FE4F20813181FC01F39531832083DF9190
:10147000CF910895FC018589882329F0A085B18545
:101480008C9186FFFBCF158A0895CF93DF93FC01E3
:1014900022813381D901B3958D919C911197019649
:1014A0009927E901CE5FDE4F48815981841795075E
:1014B000D9F30D90BC91A02DA20FB31F6C93A28104
:1014C000B381B39511969C938E93A285B3852C918D
:1014D00081E090E0038802C0880F991F0A94E2F728
:1014E000282B2C9381E0858B0084F185E02D808171
:1014F0008064808381E090E0DF91CF91089584E063
:1015000091E09093EF008093EE009093F100809330
:10151000F00080E490E09093F3008093F20029E2E1
:1015200030E03093F5002093F4002BE230E030936C
:10153000F7002093F6002AE230E03093F900209380
:10154000F8009093FB008093FA008CE290E0909377
:10155000FD008093FC0084E08093FE0083E0809394
:10156000FF0087E08093000185E08093010181E026
:10157000809302010895CF93DF931F92CDB7DEB71A
:10158000E091C604F091C704309711F4EAECF4E05E
:10159000CE0101962EEB8E179F0710F02193FBCF03
:1015A0000F90DF91CF910895CF93DF9300D0CDB707
:1015B000DEB72091C6043091C7042115310511F41E
:1015C0002AEC34E0CE010196821B930B0F900F9012
:1015D000DF91CF910895CF93DF931F92CDB7DEB700
:1015E0002091C6043091C7042115310511F42AEC6D
:1015F00034E0F901AE014F5F5F4FCF01821B930BC7
:101600004E175F0728F060816E3B11F43196F5CFDD
:101610000F90DF91CF910895009741F0EFE9FFE03F
:101620003197F1F700C000000197F6CF0895843696
:10163000910538F064E670E00E940D3ECB010C94F9
:101640000C0B019728F025E32A95F1F70000F9CF5C
:1016500008956AE070E00E940D3ECB010C94170BD8
:10166000E82FF0E0EE0FFF1FE554FD4F80819181E0
:101670000895E82FF0E0EE0FFF1FEF58FD4F808137
:10168000918108952FB7F894E82FF0E0EE0FFF1F37
:10169000E352FD4F808191812FBF089580914603D1
:1016A0000895809125029091260208958091130259
:1016B0009091140208958091150290911602089558
:1016C000E82FF0E0EE0FFF1FE95DFD4F8081918173
:1016D0000895262F613110F4423040F021E030E0CF
:1016E000FC013383228331832083089550E0BA01C3
:1016F000620F711D620F711D660F771F660F771FD6
:10170000665F7F4F44E050E00C94893E282FCA0169
:10171000213188F4623078F470E0620F711D620F3D
:10172000711D660F771F660F771F665F7F4F44E05E
:1017300050E00C94A73E0895FF920F931F93CF9310
:10174000DF9300D000D0CDB7DEB70AED10E0F12C6A
:10175000F801459155916591749149835A836B8342
:101760007C83AE014F5F5F4F60E08F2D0E94860B40
:10177000F8013496459155916591749149835A8346
:101780006B837C83AE014F5F5F4F61E08F2D0E94C2
:10179000860BF394085F1F4F81E1F812D9CF81E0E7
:1017A0000E94E2110F900F900F900F90DF91CF9158
:1017B0001F910F91FF90089581E020919B0230913D
:1017C0009C022331310509F080E00895809199024F
:1017D00090919A02089580919502909196020895B1
:1017E00080919F029091A002089580914F02909164
:1017F0005002039750F08091550290915602039742
:1018000020F083E090E00C94C51880E008952FB795
:10181000F89480E090E0FC01EE0FFF1FEE0FFF1F39
:10182000E150FD4F108211821282138201968131A4
:10183000910589F784E690E09093440380934303F5
:10184000109245032FBF0895CF93CFB7F89410920D
:1018500024021092230210921F0210922002109272
:1018600021021092220210921B0210921C0210926E
:101870001D0210921E02109217021092180210926E
:10188000190210921A020E947536909312028093E8
:101890001102CFBFCF9108950E94240C109216021E
:1018A0001092150210921402109213020895E7E2AA
:1018B000F2E01192119282E0E137F807D1F7089532
:1018C000CF93CFB7F89481E090E090934403809356
:1018D000430381E0809345030E94570CCFBFCF9113
:1018E0000895CF93DF930E94600CC0912502D091A0
:1018F00026028091250290912602C817D90729F463
:101900008AE090E00E949B36F4CFDF91CF9108955A
:101910001092460380E00C945305CF93DF9381E04F
:101920000E94420BEC0180E00E94420B8C179D0745
:1019300018F4C81BD90B02C0C0E0D0E081E0C93E5A
:10194000D34008F480E0DF91CF9108958F929F9269
:10195000AF92BF92CF92DF92EF92FF92CF93DF933D
:10196000CDB7DEB728970FB6F894DEBF0FBECDBF58
:10197000F82E5B0161157105D1F140E0682FCE01B1
:1019800005960E94690B41E06F2DCE0101960E94E1
:10199000690B2B813C8140E050E0CF80D884E12C62
:1019A000F12C2C193D094E095F09B50180E090E04A
:1019B0008D809E80A12CB12C681979098A099B0918
:1019C0000E94F13D29813A8140E050E0281939090F
:1019D0004A095B090E94433E2C0D3D1D4E1D5F1DB3
:1019E00057FF03C020E030E0A901C90102C080E038
:1019F00090E028960FB6F894DEBF0FBECDBFDF9102
:101A0000CF91FF90EF90DF90CF90BF90AF909F90DD
:101A10008F9008958F929F92AF92BF92CF92DF9254
:101A2000EF92FF92CF93DF93CDB7DEB728970FB633
:101A3000F894DEBF0FBECDBFF82E5B0161157105B6
:101A4000D1F140E0682FCE0105960E94690B41E07C
:101A50006F2DCE0101960E94690B29813A8140E0E9
:101A600050E0CD80DE80E12CF12C2C193D094E098F
:101A70005F09B50180E090E08F809884A12CB12CA3
:101A8000681979098A099B090E94F13D2B813C81E3
:101A900040E050E0281939094A095B090E94433E99
:101AA0002C0D3D1D4E1D5F1D57FF03C020E030E093
:101AB000A901C90102C080E090E028960FB6F89411
:101AC000DEBF0FBECDBFDF91CF91FF90EF90DF90D3
:101AD000CF90BF90AF909F908F90089582508931A2
:101AE00030F4E82FF0E0EF58FF4F8081089581E057
:101AF0000895CF93DF93833149F481E020919B02D5
:101B000030919C0223313105C1F41AC0E82FF0E076
:101B1000EE0FFF1FEF58FD4FC081D1810E946E0D67
:101B2000882319F0813029F00AC081E0E39740F45E
:101B300004C081E0C935D24018F480E001C081E0E2
:101B4000DF91CF910895CF93C0E08FE18C0F0E9479
:101B5000790D882329F0CF5FC630B9F786E001C040
:101B60008C2FCF9108951F93CF93DF931F92CDB702
:101B7000DEB7182F69830E946E0DE12FF0E0EE0FA3
:101B8000FF1FEF58FD4F4981682F808191810F9091
:101B9000DF91CF911F910C94573A2FB7F894609131
:101BA0000D0270910E0280910F02909110022FBFD2
:101BB0002DE730E040E050E00E94213EBB27A52FFA
:101BC000942F832F08958091430390914403892B90
:101BD00049F080914303909144030197909344030B
:101BE00080934303089590E0880F991FFC01EF58FC
:101BF000FD4F208131816217730718F4261B370BC4
:101C000004C0AB01421B530B9A01FC01E95DFD4F7F
:101C10002730310518F01182108206C020813181F1
:101C20002F5F3F4F31832083FC01EF58FD4F7183BD
:101C3000608308958FB7F89410920D0210920E02EF
:101C400010920F02109210021092090210920A02D2
:101C500010920B0210920C028FBF0E94600C0E9427
:101C60004C0C60E070E089E10E94F30D60E070E0F0
:101C70008BE10E94F30D60E070E08CE10E94F30DB7
:101C800060E070E08DE10C94F30D1092260210924A
:101C900025020E941A0EE1E7F2E01192119282E011
:101CA000EB3BF807D1F70895CF93C82F80914603F7
:101CB00081110CC081E00E945305C1110E94450EA4
:101CC00081E080934603CF910C94710CCF910895DD
:101CD0000C94450E80914603882309F44FC040912F
:101CE0009F025091A00280910D0290910E02A0914E
:101CF0000F02B0911002840F951FA11DB11D80939A
:101D00000D0290930E02A0930F02B09310028091E7
:101D1000080291E0980F90930802883578F120919D
:101D2000950230919602DA010E94D03D24E630E01F
:101D300040E050E00E94213E8091090290910A0209
:101D4000A0910B02B0910C02280F391F4A1F5B1F94
:101D50002093090230930A0240930B0250930C0225
:101D6000CA01B90120EA3CE840E050E00E94213E6F
:101D7000B9018AE10E94F30D109208020895CF92F2
:101D8000DF92EF92FF920F931F93CF93DF931F92F7
:101D9000CDB7DEB7C0907102D0907202809173020D
:101DA000909174028C159D0518F4C81AD90A02C0C6
:101DB000C12CD12CB60182E10E94F30D2091810249
:101DC0003091820280918302909184020091850279
:101DD000109186022817390720F4BC01621B730B8F
:101DE00002C060E070E08017910718F4081B190B1F
:101DF00002C000E010E08FE10E94F30DB80180E224
:101E00000E94F30D07E812E091E2F80161917191EF
:101E10008F01892F99830E94F30D99819F5F9532DD
:101E2000A1F70E94A30DF82E80E000E010E08F15CE
:101E300069F0EFE1E80FF0E0EE0FFF1FEF58FD4F04
:101E400020813181020F131F8F5FF1CFB80183E131
:101E50000E94F30D0115110581F00C151D0520F4EC
:101E60009601201B310B03C098012C193D09293B19
:101E70003B4018F4680113E102C012E1F12CB601F5
:101E800084E10E94F30D6F2D70E086E10E94F30D56
:101E9000612F70E085E10E94F30D0E94CD0D7C0161
:101EA0000E94801B882329F000917702109178020C
:101EB0000BC00E94DA21882329F00091750210914D
:101EC000760202C000E010E0B80187E10E94F30D45
:101ED000B70189E10E94F30D9801D6010E94D03D1F
:101EE00020E137E240E050E00E94213EB90188E164
:101EF0000F90DF91CF911F910F91FF90EF90DF90A6
:101F0000CF900C94F30D4F925F926F927F928F92CD
:101F10009F92AF92BF92CF92DF92EF92FF92CF93B8
:101F2000DF93CDB7DEB728970FB6F894DEBF0FBEAC
:101F3000CDBF0E9475362091110230911202821B92
:101F4000930B8133954708F4A0C04FB7F8942091C4
:101F5000230230912402A8EEB3E00E94D03D6B0131
:101F60007C01F694E794D794C79440901F02509058
:101F70002002609021027090220260911B027091F9
:101F80001C0280911D0290911E0280901702909079
:101F90001802A0901902B0901A024FBF6D837E8381
:101FA0008F8398870E94240C20911502309116028D
:101FB0002F5F3F4F30931602209315026D817E8173
:101FC0008F819885A70196010E94213E29833A833B
:101FD0004B835C83C301B201A70196010E94213E9D
:101FE000B90180E00E94A60C3C0169817A8181E000
:101FF0000E94A60C8615970518F4681A790A02C083
:10200000612C712C4090A9025090AA0264147504AE
:1020100020F0B3018CE10E94F30DB301641975093E
:102020008BE10E94F30DC501B401A70196010E9446
:10203000213EB90187E00E94A60C20911302309145
:1020400014029093140280931302BC01621B730B61
:10205000660F771F8DE10E94F30DB6018EE1289681
:102060000FB6F894DEBF0FBECDBFDF91CF91FF90CA
:10207000EF90DF90CF90BF90AF909F908F907F9028
:102080006F905F904F900C94F30D28960FB6F894D4
:10209000DEBF0FBECDBFDF91CF91FF90EF90DF90FD
:1020A000CF90BF90AF909F908F907F906F905F90F8
:1020B0004F900895CF92DF92EF92FF920F931F936C
:1020C000CF93DF932FB7F89480914303909144030B
:1020D0002FBF892B09F0ADC08091450381119FC0AE
:1020E000809125029091260201969093260280937A
:1020F00025024091FF02509100036091010370910D
:102100000203769567955795479580911F029091A8
:102110002002A0912102B0912202840F951FA61FD8
:10212000B71F80931F0290932002A0932102B093C7
:1021300022024091030350910403609105037091C2
:102140000603769567955795479580911B02909168
:102150001C02A0911D02B0911E02840F951FA61FA4
:10216000B71F80931B0290931C02A0931D02B09393
:102170001E0240911B0350911C0360911D0370913E
:102180001E03769567955795479580911702909114
:102190001802A0911902B0911A02840F951FA61F70
:1021A000B71F8093170290931802A0931902B0935F
:1021B0001A028091230290912402019690932402A6
:1021C000809323020E94830F0BEB12E0C0E0D0E06B
:1021D000B8EECB2EB3E0DB2EE12CF12CFE01EE0F9E
:1021E000FF1FEE0FFF1FE150FD4F60817181828163
:1021F0009381A70196010E94213EF801219331931A
:102200008F01B9018C2F0E94A60CBC018C2F0E945B
:10221000F30D2196C131D10509F70E94BF0EDF9160
:10222000CF911F910F91FF90EF90DF90CF900C9482
:10223000070CDF91CF911F910F91FF90EF90DF90EE
:10224000CF9008958091460381110C945A100895FF
:1022500060E087E493E00E94792A87FD0AC081113B
:1022600002C00C94AB2A992787FD909501970C9496
:10227000752C08950E947C0578940E941C050E948C
:102280006D080E9491220E94FE1B0E94680E0E940F
:10229000BB0A0E9433130E94AF300E94D3310C94CA
:1022A00068120E943A110E942811FDCF62EA71E083
:1022B00087E493E00E94512F8EE890E090934803CA
:1022C00080934703EBE4F3E08081825E808308958E
:1022D000FC0124812E51621710F40C944C2F862F90
:1022E00090E0821B91090E94FB156EE00C94A538CA
:1022F000FF920F931F93CF93DF93EC018B0141115A
:102300000E94C83E85E0F82EFA9459F0CE010E9452
:10231000A13E8017910739F084E690E00E9487364D
:10232000F3CF81E001C080E0DF91CF911F910F9149
:10233000FF900895EF92FF920F931F93CF93DF9337
:102340007B018C01E80EF91ECFEFDFEF0E151F05A4
:10235000A9F0C8010E94993EC82728E0CE019695B1
:1023600087953C2FEC0130FF04C031E0C32730EAF1
:10237000D327215099F70F5F1F4FE8CFCE01DF9190
:10238000CF911F910F91FF90EF900895EF92FF92E0
:102390000F931F93CF93DF931F92CDB7DEB78C01BE
:1023A0007B0149830E949A114981BC01C8018E0DAD
:1023B0009F1D0F90DF91CF911F910F91FF90EF9094
:1023C0000C947811482F68E870E08AE090E00C9453
:1023D000C611482F6CE073E084E990E00C94C611BC
:1023E000482F6AE370E082EA93E00C94C6111F93D1
:1023F000CF93DF93D82F182F1170412F63E678E623
:1024000080E090E00E947811C82F412F6CE679E6B9
:1024100082E090E00E9478118111C1E0D1FB442755
:1024200040F969E070E084E090E00E947811811149
:10243000C260D2FB442740F962E070E086E090E0A1
:102440000E9478118111C460D3FB442740F967E0F2
:1024500070E088E090E00E9478118111C860D4FD9E
:102460000E949C0B80E00E94E2118111C061D5FDA9
:102470000E94431780E00E94E9118111C062D6FDDD
:102480000E94501380E00E94F0118111C0648C2FD3
:10249000DF91CF911F910895CF93C82F0E948E3165
:1024A000882399F0C0FDC260C1FDC461C2FDC8624D
:1024B000C3FDC0640E94AB318C2F0E94F711682FBE
:1024C0008C2F0E94AF3181E001C080E0CF91089550
:1024D00080E00E94F71181110C944C1281E0089564
:1024E00080E00E94F71181600C944C12CF930E94FF
:1024F000A53088EF92E09093D4038093D303C1E09A
:10250000C093D2031092CA038EE893E00E94841411
:10251000823011F4C093CA030E94E41A91E0813022
:1025200009F090E0892FCF91089561E081E00E9449
:102530000D1A84E093E09093D4038093D30308951D
:1025400061E081E00E940D1A80E193E09093D40352
:102550008093D303089560E082E00E940D1A82EF19
:1025600092E09093D4038093D303089590916E03E7
:102570009093CB031092CA0390E08830910560F5E8
:10258000FC01E65DFF4F0C94623E8EE893E00E94F2
:102590008414811106C00E94A0121CC081E08093A7
:1025A000CA030E94951216C08CEE92E00CC00E94E5
:1025B000AB1210C085E08093CB03F3CF81E0809312
:1025C000CA038AE093E09093D4038093D30302C0BC
:1025D0000C9496170C94E41A0E94FB3080E0089546
:1025E000CF93C82F0E944228882359F1C0935303E8
:1025F000109251031092500383E0809352030E9483
:102600004C3C81E00E94540E0E947612882391F087
:1026100081E0809352030E94DF1D0E94A53010923A
:10262000D20384E00E945335809153030E94B61276
:102630000E94231E0E94880C0E945C3CCF910C9447
:10264000AE30CF910895DC01D096ED91FC91D197F9
:10265000EE0FFF1FEE0FFF1FE255FE4F65917591C4
:102660008591949108954AE350E062EA73E084E52D
:1026700093E00E94893E0C94C11D4AE350E062EA57
:1026800073E084E593E00E94A73E81E00E94F01190
:102690000C94C11D4AE350E062EC71E00C94683E7A
:1026A00084E593E00E944A130C943D13FC012489B5
:1026B00035892630310520F025E030E0358B248B3C
:1026C00008950C94C11D0F931F93CF93DF93CDB743
:1026D000DEB7C554D1090FB6F894DEBF0FBECDBF2B
:1026E0008C01BC01CE0101960E94BF2CCE01019647
:1026F0000E94DC2C8AE3FE013C96D80101900D92E9
:102700008A95E1F70E943D130E94C11DCB5BDF4F0C
:102710000FB6F894DEBF0FBECDBFDF91CF911F91F2
:102720000F910895FC0125913491F901099440E03D
:10273000FC01259134910296232B11F04F5FF8CFC5
:10274000842F0895282F81E090E03AE0215038F05E
:10275000AC01349FC001359F900D1124F7CF08952F
:1027600097FD02C081E008958FEF0895CF92DF9228
:10277000EF92FF92CF93611571058105910521F4C8
:1027800061E070E080E090E0C0E02AE0C22ED12C51
:10279000E12CF12CCF5FA70196010E94213ECA01D6
:1027A000B9012115310541055105A1F78C2FCF91B4
:1027B000FF90EF90DF90CF900895BC0180E090E013
:1027C0000C94B613FC0120813181260F371F37FF8F
:1027D00003C011821082089550E0421753071CF481
:1027E000518340830895318320830895FC01208123
:1027F0003181260F371F121613062CF081E090E06E
:1028000091838083089550E0421753071CF451834D
:10281000408308953183208308958F929F92AF92D1
:10282000BF92CF92DF92EF92FF920F931F93CF93BD
:10283000DF936C015B014A01E901FC01E080F1805A
:10284000B70180E090E00E94B613209749F48230EF
:1028500028F082500E94A213EC0102C0C1E0D0E037
:10286000C701BE010E940D3E009741F01A141B04DF
:102870001CF4C81BD90B05C0EC0111C01A141B04B1
:1028800074F4C4018C1B9D0BE816F90618F4CE0DE8
:10289000DF1D01C0E401F601D183C0830EC010E04A
:1028A000C8018C0F9D1F8E159F0518F4EC1AFD0AA8
:1028B00001C07801F601F182E082DF91CF911F9192
:1028C0000F91FF90EF90DF90CF90BF90AF909F90CF
:1028D0008F9008950E94E0368111FCCF0E94E0366F
:1028E0008823E1F30895CF93CAE00E94B4368111A2
:1028F00008C084E690E00E949B36C150B1F780E0AA
:1029000001C081E0CF910895FC01808191818930DF
:10291000910579F09C01245031092530310558F09A
:102920009C012150310981E02230310528F480E0FA
:10293000089583E0089582E008950F931F93CF9345
:10294000DF93EC018B0150E00E94AA374AE3B80103
:10295000CE01DF91CF911F910F910C945637EF92DA
:10296000FF920F931F93CF93DF9300D01F92CDB7A9
:10297000DEB78C01462F0C969A8389838EE08B8379
:10298000D801ED91FC91EE0FFF1FE450FE4FE59052
:10299000F490BE016D5F7F4FCE0101960E949D14A1
:1029A000A701BE016D5F7F4FCE0101960E94713776
:1029B00040E2BE016D5F7F4FCE0101960E94563707
:1029C000F80142815381BE016D5F7F4FCE010196B8
:1029D0000E94AA374FE2BE016D5F7F4FCE01019684
:1029E0000E945637D80118964D915C911997BE01F7
:1029F0006D5F7F4FCE0101960E94AA370F900F9016
:102A00000F90DF91CF911F910F91FF90EF9008955C
:102A1000CF93DF9300D01F92CDB7DEB7462F2EE0C5
:102A20002B830C969A838983BE016D5F7F4FCE0105
:102A300001960E949D140F900F900F90DF91CF91FF
:102A400008952AE1289FB001299F700D11246C562A
:102A50007F4F4AE150E08EE893E00C94893E2AE1F2
:102A6000289FB001299F700D11246C567F4F4AE1B9
:102A700050E08EE893E00C94A73EFC0180819181A8
:102A800025E0289FF001299FF00D1124E60FF11D8C
:102A9000EE0FFF1FE857FD4F859194910895DC01DB
:102AA0008D919C91119725E0289FF001299FF00DB1
:102AB0001124E60FF11DEE0FFF1FE857FD4F859122
:102AC000949118962D913C911997AC01429FC001A9
:102AD000439F900D529F900D11240895FC01A281F7
:102AE000B38120917203309173030E94D03D24E69C
:102AF00030E040E050E00E94213E293EFDEF3F07DC
:102B00004105510520F028EE3DEF40E050E0C901BD
:102B10000895FC01208131812130310529F4209173
:102B20006403309165030AC02230310529F42091F5
:102B300062033091630302C020E030E0FC01808535
:102B40009185AC01249FC001259F900D349F900D6D
:102B500011240895FC01208131814CE0429FB00195
:102B6000439F700D1124605F7D4F4CE050E00C944A
:102B7000683EFC0160818CEF91E00C947F38CF932C
:102B8000DF93EC018881998160E0892B41F4CE01CB
:102B90000E944F1567E0DF91CF910C949F3ACE01D0
:102BA0000E944F1565E00E949F3A8FE20E94FE3717
:102BB000888599850E943D3883E4DF91CF910C94FC
:102BC000FE3766E0FC01848195810C949B3A66E0B7
:102BD000FC01868197810C949B3AFC018281938150
:102BE000883EFDEF9F0721F48FE998E00C94673849
:102BF00067E00C94973A2AE1AC01249FC001259F1D
:102C0000900D112480569F4F08950F931F93CF93DB
:102C1000DF93CDB7DEB7A7970FB6F894DEBF0FBE30
:102C2000CDBF8C01AB01BC01CE0101960E94042BEB
:102C3000CE0101960E94892B8AE1FE013C96D801C3
:102C400001900D928A95E1F7A7960FB6F894DEBF32
:102C50000FBECDBFDF91CF911F910F910895FC0161
:102C600020813181260F371F2A30310550F016168A
:102C7000170624F4FC011182108205C029E030E01F
:102C8000FC01318320830C94AA1562E00E944F1549
:102C900080549F411816190614F081E090E09C01C1
:102CA000442737FD4095542F60E870EF8AEF92E09B
:102CB0000E94213E293883E138074105510520F063
:102CC00028E833E140E050E0C901089562E00E9445
:102CD0004F159C0140E050E060E47BE48CE490E020
:102CE0000E94213E293E83E038074105510520F02E
:102CF00028EE33E040E050E0C9010895EF92FF92E2
:102D00000F93CF93DF9300D0CDB7DEB77C01009156
:102D10007003000F69837A830E94451620E030E03B
:102D2000AC0169817A81C70104960E940D140F904D
:102D30000F90DF91CF910F91FF90EF900895EF9258
:102D4000FF920F93CF93DF9300D0CDB7DEB77C0116
:102D500000917003000F69837A830E94661620E059
:102D600030E0AC0169817A81C70106960E940D149A
:102D70000F900F90DF91CF910F91FF90EF900895FA
:102D8000FC01808191812AE0289FF001299FF00DAC
:102D90001124E657FD4F6591749184ED92E60E94EF
:102DA0000D3ECB010895EF92FF920F93CF93DF93E7
:102DB00000D0CDB7DEB77C0169837A830E94C0164C
:102DC000F7012081318169817A81232B19F422E373
:102DD00030E002C020E030E001E0AC01C70108961D
:102DE0000E940D140F900F90DF91CF910F91FF90E3
:102DF000EF900895CF93DF93EC010E94C0162885D1
:102E000039858217930710F499878887CE010E942D
:102E100045162C813D818217930710F49D838C8386
:102E2000CE010E9466162E813F818217930710F40F
:102E30009F838E83DF91CF9108950F931F93CF933C
:102E4000DF93EC0104E620E030E048EE5DEF02960F
:102E50000E940D140A811B811D830C83CE010E94E8
:102E60008414813039F4C801969587959695879595
:102E70009D838C831F830E83CE01DF91CF911F91A1
:102E80000F910C94FA160F931F93CF93DF934CE09E
:102E900050E068E572E08EE893E00E94683E8EE8BC
:102EA00093E00E94FA16C0E0D0E08E010F5F1F4F42
:102EB000B8018EE893E00E940815CE010E942F15FC
:102EC0000E31110511F0E801F0CF81E0DF91CF91D3
:102ED0001F910F910C94E911FC0182859385883E26
:102EE000F3E09F0719F48FE998E005C063E00E94C2
:102EF000363A8AE998E00C9467380F9301E020E0B5
:102F000030E048EE53E00A960E940D140F910895A8
:102F100080916A0390916B030E94C31C8EEF92E034
:102F20009093D4038093D3030C94E41A81E08093AC
:102F3000D2031092A8034091A803242F30E080917F
:102F4000680390916903880F991F01972817390723
:102F500011F41092D20340FF02C080E001C083E070
:102F60000E94B612813089F49091D203992369F0BE
:102F70008091A8038F5F8093A8030E94C21D0E94C6
:102F80001A0E0E9488178130B1F208958091C7030C
:102F9000811113C00E944E0B882381F00E94510BB7
:102FA0002091A9033091AA03821B930B9C0181E01D
:102FB0002530310518F080E0089581E00895815EA4
:102FC0000C94390B0F931F93CF93DF9310E0CFEF47
:102FD000DFEF00E08091C903181760F4812F0E9491
:102FE000DF178C179D0710F0CE0101C0012F1F5F66
:102FF000EC01F0CF802FDF91CF911F910F910895B9
:10300000CF93DF939091C703911104C0DF91CF91CB
:103010000C94DF179091AD03C82FD0E0992391F065
:103020000E94DF17CC0FDD1FFE01E255FC4FC65496
:10303000DC4F2081318148815981241B350B280FB9
:10304000391F07C0FE01EE0FFF1FE255FC4F208124
:103050003181C901DF91CF910895CF93C82F80911D
:10306000C703882341F0C11106C00E94510B909301
:10307000AA038093A903C093C7030E94570C8091B1
:10308000C603811104C08C2FCF910C945D05CF91A4
:103090000895EF92FF920F931F93CF93DF9381E0F8
:1030A0000E940C0586E10E94390B8093C9030AEB4C
:1030B00013E03EEAE32E33E0F32EC0E0D0E080914F
:1030C000C90390E0C817D9076CF48C2F0E94DF1752
:1030D000F801819391938F01F701819391937F017F
:1030E0002196EDCF1092C7031092C60380E00E9494
:1030F0002D181092AA031092A903DF91CF911F916E
:103100000F91FF90EF90089580E00E942D1881E0CC
:103110008093C60308950E94841880E00C940C05E7
:10312000FF920F931F93CF93DF938091C8030E9468
:103130000018EC01F12C01E010E08091C903F816B1
:10314000E8F48F2D0E940018AC018091C703802302
:1031500021F0C417D50778F40DC020917E0330917B
:103160007F032F5F3F4F369527952C0F3D1F241768
:10317000350708F4102B000FF394DFCF812FDF9178
:10318000CF911F910F91FF9008951F93CF93DF93DD
:10319000EC0110E08091C903181748F48FE1810F0A
:1031A0000E94600B8C179D0720F01F5FF3CF81E01A
:1031B00001C080E0DF91CF911F910895BF92CF921F
:1031C000DF92EF92FF920F931F93CF93DF938AE0EA
:1031D00090E00E94C518882309F45CC00E94E217A1
:1031E0008093C8030E94DF178C0162E08EE893E0B1
:1031F0000E943D150817190748F17EEAE72E73E093
:10320000F72EEAEBCE2EE3E0DE2EC0E0D0E0BB24CA
:10321000B3948091C90390E0C817D907CCF48C2FE0
:103220000E94DF17F701819391937F01F60181934B
:1032300091936F01801B910B20917E0330917F034E
:103240002817390708F4B12C2196E3CFBB24B39497
:103250001092AD030E947D369093AC038093AB0334
:10326000BB2059F0DF91CF911F910F91FF90EF900C
:10327000DF90CF90BF900C9484180E949018DF913B
:10328000CF911F910F91FF90EF90DF90CF90BF9063
:103290000C942D18DF91CF911F910F91FF90EF901B
:1032A000DF90CF90BF900895CF938091AD038111AF
:1032B00015C081E08093AD03C0E08091C903C817B9
:1032C00068F48C2F0E94DF17EC2FF0E0EE0FFF1F49
:1032D000E654FC4F91838083CF5FEFCFCF91089569
:1032E0000E947D362091AB033091AC03821B930B7F
:1032F000089583E090E00E94C518882391F08091A2
:10330000C703811103C00E94DE180BC00E9454192C
:103310000E9490180E9470194F9718F080E00E9448
:103320002D180E94C617882311F082E0089580911D
:10333000C6038823D1F381E008951F93CF93DF93D1
:10334000EC0110E08091C903181780F4812F0E94CE
:10335000DF178C179D0710F081E009C0812F0E94B4
:1033600000188C179D07C0F71F5FECCF80E0DF913E
:10337000CF911F9108951F93CF93DF93EC0110E03D
:103380008091C903181780F4812F0E94DF17C81796
:10339000D90710F081E009C0812F0E940018C817DA
:1033A000D907C0F71F5FECCF80E0DF91CF911F916D
:1033B00008956091C903662329F070E00E940D3ED4
:1033C000CB01089580E090E008950E94602261E0C2
:1033D00081E00E940D1A81E00E94B91F8091CC0308
:1033E0009091CD030C942B2281E00C9476220E94C4
:1033F000F50B882321F00E94EE210C9442200895C1
:1034000020917003309171038217930708F4C9016A
:103410009093CD038093CC030895CF93DF93C82F6F
:10342000D62F682F8EE893E00E944F159093D1031A
:103430008093D003DD2389F0209192033091930390
:103440003093CF032093CE03C130B9F48EE893E0DC
:103450000E9484148230F9F010C0209194033091BE
:1034600095033093CF032093CE03C23031F48EE81E
:1034700093E00E948414823099F06091CB0370E055
:103480008091CE039091CF030E940D3ECB01DF913E
:10349000CF910C94001A409176035091770304C0A9
:1034A000409178035091790380919603909197030E
:1034B000489F9001499F300D589F300D11248091F5
:1034C000D0039091D103820F931F9093D1038093E7
:1034D000D003D3CF8091D3039091D4030C94921353
:1034E0008091D3039091D40302960C9492130E947E
:1034F000701A0E94231E0C945237CF93DF930E94C0
:103500007D36EC010E947D368C1B9D0B853B910521
:1035100010F00E94880C0E94E036882399F388E01E
:10352000DF91CF910C945335CF93DF930E94771A9C
:103530000E947D36EC0185E00E9453350E94880C84
:1035400093980E94EF300E94731481110FC00E9463
:103550003F320E947314811109C00E947D368C1B7A
:103560009D0B853B910568F3939AEBCF88E00E9411
:10357000533580E0DF91CF910C94540E0E94771A5E
:103580000E94880C0E94F33086E00E9453350C9410
:103590007D1AE091D303F091D403349685919491F0
:1035A000FC010994811103C00E94BE1A0BC0813036
:1035B00039F48091D203811105C00E94941A02C08F
:1035C00081E0089580E008950F931F93CF93DF93D8
:1035D00010927D040E946A1A02E0C0E0D0E011E07F
:1035E0000E94E03680937D040E942031112379F0FF
:1035F0000E94631E082F0E94D21A182F882339F0C8
:103600000E94510BC817D90781F4111105C0809190
:10361000D203811114C010E080917D04813001F744
:103620000E94B1368823E1F20AC00E94510BEC01DE
:103630000E94C91A082F0E94D21A182FE6CF0E94A2
:10364000701A802FDF91CF911F910F91089581E023
:103650000E94EB1B0C948B180E94DD1B0E944918E2
:1036600021E080917A0390917B03892B09F420E07B
:103670002093D50380E00C94B91F0F931F93CF9331
:10368000DF93C091D003D091D103CE010E94D9190C
:103690008C010E94E60BC817D90738F4C801DF91E6
:1036A000CF911F910F910C94BB1981E0DF91CF91C5
:1036B0001F910F9108951F93CF93DF930E943D1B9D
:1036C000182F0E94941BEC018091D503882329F0C8
:1036D000BE01812F0E94032001C0812F882329F081
:1036E00081E00E94EB1B81E007C0BE01812F0E9498
:1036F0000D210E94BE1B82E0DF91CF911F910895A2
:1037000081E09091DA03911180E0089581E02091A9
:10371000D8033091D903232B09F480E008958091D8
:10372000D8039091D90308958091D6039091D7033F
:1037300008950E94EB0B9C0140E050E060E47BE4C4
:103740008CE490E00E94213E293E83E03807410549
:10375000510520F028EE33E040E050E0C901089523
:10376000813020E4920710F080E090E49093D90338
:103770008093D8030E94CA060C94600CCF93DF9309
:10378000EC010E94991BBC01C817D90708F4BE01BF
:103790008091D6039091D7038617970759F07093BD
:1037A000D7036093D60380E10E940A0DDF91CF9189
:1037B0000C94B01BDF91CF9108958091DA03882398
:1037C00049F080E090E00E94B01B81E00E941B065F
:1037D0001092DA030895CF93C82F8091DA038111F4
:1037E0000BC0CC2349F080E090E00E94B01B80E049
:1037F0000E941B06C093DA03CF91089580E090E009
:103800000E94B01B81E00C94EB1B87E08093830443
:1038100082E0809384040E944C3583E08093DB0334
:1038200008950F931F93CF93DF938091CA0388234A
:1038300079F00E94A30D9091960301E0981301C0C6
:1038400000E011E0811110E0913021F4112311F01A
:1038500010E000E00E94DC0B882309F45CC083E1E7
:103860000E94390BEC0182E10E94390BC817D9077D
:1038700028F49C012C1B3D0BE90102C0C81BD90B8D
:10388000C53FD14008F447C0C1E0011102C087E044
:1038900001C083E080938304112329F08091830485
:1038A000825080938304CC2329F08091830481503B
:1038B00080938304011104C0111102C0CC2331F0A4
:1038C00081E00E945335111107C004C088E00E94B6
:1038D000533508C0002331F080917C0390917D0323
:1038E000892B11F4D0E001C0D1E00E94B4368111DF
:1038F00002C01092DB03D11106C0C11104C00E94A6
:10390000B436883051F08091DB03823011F481E0CD
:103910000AC082E008C0C0E0B8CF8091DB038F5FAF
:103920008093DB03F0CFDF91CF911F910F9108952A
:103930008FEF8093830488E00C9453351092E0035A
:1039400008950E947D369093DF038093DE030895EF
:103950000E947D362091DE033091DF03821B930BA2
:103960002091DC033091DD032817390728F081E02E
:103970008093E00382E008951092E00381E00895CF
:103980008091E00308952CE3AC01249FC001259FA2
:10399000900D11249093DD038093DC0308950E9421
:1039A00049180E94602281E00C94B91F81E00E94B6
:1039B00076220C948B180F931F93CF93DF93C091B3
:1039C000D003D091D103CE010E94D9198C010E945D
:1039D000E60B8C179D0738F4C801DF91CF911F913A
:1039E0000F910C949D1981E0DF91CF911F910F9160
:1039F00008951F93CF93DF930E94DB1C182F0E9422
:103A0000EE21EC01BC01812F0E940320882329F0C4
:103A100081E00E94762281E007C0BE01812F0E94D2
:103A20000D210E942B2282E0DF91CF911F910895FA
:103A30008091EF039091F0032091F203222341F053
:103A40000E947D362091EF033091F003821B930B8F
:103A500008956091EB037091EC038091ED039091D8
:103A6000EE0328EE33E040E050E00E94213EC90121
:103A700008956091E7037091E8038091E9039091C4
:103A8000EA0328EE33E040E050E00E94213EC90105
:103A900008950F931F93CF93DF9361E08EE893E037
:103AA0000E944F158C0164E08EE893E00E944F1550
:103AB000EC0184E10E94390B80179107B8F4C81714
:103AC000D907B0F49C012C1B3D0BC8018C1B9D0B2E
:103AD00064E670E00E940D3EC9010E940D3E64360E
:103AE000710510F063E670E0862F03C083E601C025
:103AF00080E0DF91CF911F910F910895CF93DF93D5
:103B00000E94491D9091F1039817E0F48093F1030E
:103B10000E94181D2091F4033091F503EC01C21BA3
:103B2000D30B0E94181D9093F5038093F4038091AA
:103B3000F6039091F7038C179D0720F4D093F703B9
:103B4000C093F603DF91CF9108950E947E1D80916E
:103B5000F303882311F089E601C084E690E0209108
:103B6000F103821B91092091F6033091F703AC0118
:103B7000429FC001439F900D529F900D11240895C4
:103B8000089508950E94491D8093F1031092F50352
:103B90001092F4031092F7031092F6031092EB03C5
:103BA0001092EC031092ED031092EE031092E703D3
:103BB0001092E8031092E9031092EA030895CF935C
:103BC000DF9368E572E080E00E940A0D9093E603BF
:103BD0008093E50361E08EE893E00E944F15EC01CD
:103BE000C854D44FC53D22E6D20710F0C4EDD2E64A
:103BF000CE010E94FB05BE0180E00E940A0D813CBF
:103C00002FEF920710F080EC9FEF9093E4038093E6
:103C1000E3030E94DC0B8093F3038EE893E00E94A1
:103C20006E159093E2038093E1030E947D3690939A
:103C3000F0038093EF030E94C21D81E08093F203A2
:103C4000DF91CF9108950E94181D9093F003809307
:103C5000EF031092F20308950E94E02181111DC02C
:103C60000E94861B811119C00E94C617882351F13A
:103C70008091EB039091EC03A091ED03B091EE03E2
:103C800080599F4FAF4FBF4F8093EB039093EC034E
:103C9000A093ED03B093EE0308958091E703909114
:103CA000E803A091E903B091EA0380599F4FAF4F19
:103CB000BF4F8093E7039093E803A093E903B09389
:103CC000EA03D2CF0895CF93DF938091F20381115D
:103CD00002C082E0AFC080E00E94420B2091E3036B
:103CE0003091E4038217930758F42091E503309153
:103CF000E6038217930760F40E94801B882341F03B
:103D00008FE799E0909351038093500380E092C035
:103D1000C091F3030E94DC0BC81719F080E799E00B
:103D2000F1CFC091CE03D091CF03C851DC4F0E9498
:103D3000F00BC817D90718F485E699E0E3CF86E0C1
:103D40000E94390B209174033091750382179307F9
:103D500018F486E599E0D6CF89E10E94390BC0912D
:103D6000E103D091E203C83E2DEFD20729F18C1771
:103D70009D0710F186E499E09093510380935003DE
:103D80008EE893E00E946E15C817D90709F049C064
:103D90008EE893E00E9484148111B8CF8091900343
:103DA0009091910360919203709193030E940D3E54
:103DB0006A307105B0F5AACFC0919803D0919903EC
:103DC000C83E83E0D807C0F46091E7037091E80330
:103DD0008091E9039091EA0320E63AEE40E050E05A
:103DE0000E94213E2C173D0738F08BE399E0909319
:103DF0005103809350031DC080915A0390915B033F
:103E0000892B09F466CF87E00E94390B20915C036F
:103E100030915D032817390708F05BCF8BE299E0FA
:103E200071CF8EE893E00E946E159093E203809329
:103E3000E10381E0DF91CF9108950E94D61C0E949A
:103E4000271B0C948B18CF93DF931F92CDB7DEB74F
:103E50008091F803882329F0813031F40E945B1BA4
:103E60000CC00E94F91C09C00E947919823089F0A7
:103E700089830E941D1F89810CC0813051F490916B
:103E8000CA03992331F082E08093F8030E94491815
:103E900082E00F90DF91CF910895CF93DF930E943E
:103EA000491861E083E00E940D1AC091D003D091BF
:103EB000D1038091C903811106C00E94E60BC81787
:103EC000D90740F40CC0CE010E94D9190E94BB1939
:103ED000882329F00E94CF1C1092F8030BC060E0E9
:103EE00083E00E940D1A0E942C1B81E08093D50371
:103EF0008093F803DF91CF9108958091F903813089
:103F000029F48091CC039091CD03089580E090E056
:103F100008952CE0829FC00111248B5F9B4F0C946D
:103F2000A0228DE494E00C94A022CF93DF9300D0E4
:103F300000D0CDB7DEB782E10E94390B9A83898326
:103F400084E10E94390B29813A81281B390B3A837D
:103F5000298387E10E94390B9C838B83CE010196D4
:103F60000E94A0220F900F900F900F90DF91CF91A1
:103F70000895EF92FF920F931F93CF93DF93F82E44
:103F800081E08093F9030E94E60BBC012091CC03F1
:103F90003091CD034091D0035091D1030F2D85E492
:103FA00094E00E94BB228091D0039091D1030E94A3
:103FB000D919EC0110E08CE0E82E8091C9031817A4
:103FC00098F4812F0E940018BC012091CC033091FD
:103FD000CD03E19EC00111240F2DAE0183509C4FF3
:103FE0000E94BB221F5FE9CF109253041092FC0382
:103FF0001092520410925104DF91CF911F910F91B2
:10400000FF90EF9008951F93CF93DF93182FEB014C
:104010008091CA038823B1F02091CC033091CD0365
:10402000203A310510F420EA30E02C173D0710F457
:104030001092C603909153049B7F21F40E9479193A
:104040008093F9038091F9038130B9F40E947D1FB8
:104050008C179D0780F0112371F0809153048430F8
:1040600051F49091FC0381E0890F8093FC0381E07F
:104070009A3020F402C01092FC0380E0DF91CF91CF
:104080001F9108950F931F93CF93DF93EC010E942C
:10409000E60BAE01BC0185E494E00E94742310E0BD
:1040A0000CE08091C903181770F4812F0E9400184A
:1040B000BC01019FC0011124AE0183509C4F0E949E
:1040C00074231F5FEECFDF91CF911F910F91089561
:1040D000CF92DF92EF92FF920F931F93CF93DF93D4
:1040E0006091D0037091D10385E494E00E94E022B6
:1040F0008C018091D0039091D1030E94D9197C0149
:10410000D12C9CE0C92E8091C903D81698F4CD9C7F
:10411000E0011124C350DC4FB701CE010E94E02220
:104120000817190728F0B701CE010E94E0228C0180
:10413000D394E9CFC801DF91CF911F910F91FF90E8
:10414000EF90DF90CF9008950F931F93CF93DF935D
:10415000EB012091CE033091CF038C012817390752
:1041600008F489010E947D1F9C018017910708F4C3
:104170009801C217D30719F1809153048430A9F430
:104180002C173D0790F08091CC039091CD038C17B4
:104190009D07A8F04091FA035091FB038091A90379
:1041A0009091AA034817590751F08091A903909163
:1041B000AA039093FB038093FA03C90101C0CE01C7
:1041C000DF91CF911F910F9108950F931F93CF937C
:1041D000DF93EC010E94E60B909346048093450424
:1041E000D0934804C093470410E00CE08091C903C9
:1041F000181770F4812F0E940018019FF0011124FC
:10420000E350FC4F91838083D383C2831F5FEECF43
:10421000DF91CF911F910F9108951F93CF93DF935B
:10422000182FEB010E94F50B811102C0112359F1E7
:104230000E94C617811127C0CE010E944220CE01E4
:104240000E94E5200E9468208C179D0708F043C05B
:104250009C012C0F3D1F36952795309352042093D7
:104260005104BE0180915104909152040E94A420F7
:10427000909352048093510490915304913001F132
:1042800050F411110DC08091510490915204DF91AE
:10429000CF911F9108959230B1F09330B1F017C0D3
:1042A0008091CA03882321F00E9484181092C603CB
:1042B00082E0809353041092520410925104E3CF91
:1042C00010925304E0CF83E003C01123E1F284E0B5
:1042D00080935304D8CF9093520480935104C1CF5C
:1042E0000C94E519CF93DF930E94F7190E94E60B17
:1042F000EC010E94F00BA0916603B09167039C0152
:104300000E94D03D28EE33E040E050E00E94213E84
:10431000C21BD30B62E08EE893E00E944F158C170E
:104320009D0730F48091CE039091CF030E942B2201
:104330000E94F50B882379F08091D0039091D103EE
:104340008C179D0740F487EE96E09093510380937D
:10435000500381E02CC00E945B0B029738F18091E2
:10436000600390916103892B71F08BE10E94390BFE
:10437000EC018EE893E00E948915C817D9071CF458
:1043800083EE96E0E2CF80915A0390915B03892BF4
:1043900069F08DE10E94390B20915E0330915F033B
:1043A000281739071CF48DED96E0CFCF82E0DF911E
:1043B000CF91089581E090915804911180E0089583
:1043C00081E02091560430915704232B09F480E0BA
:1043D0000895809156049091570408958091540453
:1043E000909155040895CF93DF930E94EB0BEC015D
:1043F00086E00E94390B9E01205F384D281B390B47
:104400001216130614F021E030E0442737FD4095E2
:10441000542F60E870EF8AEF92E00E94213E293825
:1044200083E138074105510520F028E833E140E0F9
:1044300050E0C901DF91CF910895893E2DEF920799
:1044400010F088EE9DEF90935704809356040E94DD
:1044500013060C94600CCF93DF93EC010E94F321C0
:10446000BC01C817D90708F4BE018091540490918B
:1044700055046817790750F49C01261B370B2D381B
:10448000310568F0BC016C58710909C09B01281BFB
:10449000390B2D38310518F0BC0164577F4F861752
:1044A000970759F070935504609354048FE00E946D
:1044B0000A0DDF91CF910C941D22DF91CF910895C9
:1044C00080915804882389F0109257041092560462
:1044D000109255041092540480E090E00E941D2236
:1044E00081E00E942406109258040895CF93C82FAB
:1044F00080915804811113C0CC2389F080E090E0B2
:104500000E941D22109257041092560410925504D6
:104510001092540480E00E942406C0935804CF9166
:104520000895109257041092560410925504109258
:10453000540480E090E00E941D2281E00C947622D9
:10454000FC01428153814115510591F0A081B18157
:10455000B7FF03C0B195A195B10928EE33E00E94E1
:10456000DF3D9A0140E050E00E94213EC9010895DC
:1045700080E090E008950F93FC01CB01002341F00F
:104580004617570708F4CA016417750748F407C0AF
:104590006417750708F4CA014617570708F4BA01EB
:1045A000978386839183808313821282158214827B
:1045B00033872287681B790B718760870F91089575
:1045C000FC0186819781A285B3850084F185E02D69
:1045D0003097D1F09B0140E050E0281B390B410996
:1045E00051090E94E63D9F01442737FD4095542F15
:1045F0000E94433E2115310581E04807510524F40E
:1046000057FD05C0C90108958FEF9FEF089580E021
:1046100090E00895DF92EF92FF920F931F93CF9354
:10462000DF93EC012A813B812417350720F4FA013E
:10463000E21BF30B03C0F901E41BF50B8C819D8198
:10464000969587958E179F0710F5E880F9802417B7
:10465000350740F48A01021B130BCB018E199F0909
:104660007C0105C0E61AF70A8901041B150BC70176
:104670000E94B013D82E888599850E94B013D81255
:1046800006C01D830C83F986E8861B870A87DF91A5
:10469000CF911F910F91FF90EF90DF9008950F93AE
:1046A0001F93CF93DF93EC018B019A01A885B98505
:1046B0000E94DF3D2A853B8540E050E00E94433E5A
:1046C000C801A0E0B0E082179307A407B5071CF467
:1046D0001F821E8204C0021B130B1F830E83DF91F7
:1046E000CF911F910F910895EF92FF920F931F9317
:1046F000CF93DF93EC018B017A010E940A23A7017B
:10470000B801CE01DF91CF911F910F91FF90EF90F3
:104710000C944F230F931F93CF93DF938C0144305E
:1047200019F0CFEFDFEF02C0C1E0D0E00E94B63653
:10473000D8011B96EC91F0E0EE0FFF1FEF58FD4FF4
:104740009C01C29FC001C39F900DD29F900D112468
:1047500020813181820F931F91838083DF91CF91DC
:104760001F910F910895EF92FF920F931F93CF9394
:10477000DF931F92CDB7DEB78C01443021F0EE24D9
:10478000EA94FE2C03C0EE24E394F12C69830E948A
:10479000B636D8011B96ED91FC911C976981E60F06
:1047A000F11DE491F0E0EE0FFF1FEF58FD4FE89E82
:1047B0009001E99E300DF89E300D11248081918189
:1047C000820F931F918380830F90DF91CF911F9170
:1047D0000F91FF90EF900895CF93DF93EC010E942B
:1047E0003235882311F0888101C08FEFDF91CF919E
:1047F0000895CF93DF9300D000D0CDB7DEB780E02F
:104800000E94300B9A83898381E00E94300B2981BA
:104810003A81281B390B3A83298383E10E94390BA3
:104820009C838B83AE014F5F5F4F61E080E00E940D
:10483000860BAE014F5F5F4F61E081E00E94860B07
:104840000F900F900F900F90DF91CF9108950F93DD
:104850001F93CF93DF93CDB7DEB728970FB6F894A9
:10486000DEBF0FBECDBF8C0189E00E94300B9E835E
:104870008D8388E00E94390B800F911F98878F836A
:104880008AE00E94300B9A8389830F81188580E229
:104890000E94390B800F911F9C838B83AE014B5F6D
:1048A0005F4F61E088E00E94860BAE014B5F5F4F77
:1048B00061E089E00E94860B80E20E94790D8823E6
:1048C00039F0AE014F5F5F4F61E08AE00E94860BD6
:1048D00028960FB6F894DEBF0FBECDBFDF91CF9103
:1048E0001F910F9108950F931F93CF93DF9300D0E3
:1048F00000D0CDB7DEB78C018AE00E94300B9A83DE
:10490000898389E00E94390B800F911F9C838B83E0
:10491000AE014F5F5F4F61E08AE00E94860B0F900F
:104920000F900F900F90DF91CF911F910F910895ED
:10493000CF93DF93D82F61EC76E085ED96E00E946F
:10494000C430C0E082E10E94790D882399F08FE1A4
:104950000E94790D8D17A1F0C1110CC063EB76E0B8
:10496000DD2319F085ED96E002C08AEC96E00E9406
:10497000C430C1E00E94E036813021F780E001C000
:1049800081E0DF91CF910895CF93DF9300D000D0E5
:10499000CDB7DEB7962F5A8349833C832B838F3163
:1049A00021F4C9010E9427240DC0803221F4C901DD
:1049B0000E94732407C0AE014F5F5F4F61E0892FF3
:1049C0000E94860B0F900F900F900F90DF91CF9168
:1049D0000895FF920F931F93CF93DF93F82E162F16
:1049E000042F83E00E945335812F0E94390BEC0184
:1049F000802F0E94300BAC019E01602F812F0E94FE
:104A0000C42481E0809346030E94710CFF2039F09A
:104A1000DF91CF911F910F91FF900C94F923DF91BB
:104A2000CF911F910F91FF900895EF92FF920F93F6
:104A30001F93CF93DF93CDB7DEB72E970FB6F894C1
:104A4000DEBF0FBECDBF81E00E949824882309F409
:104A500041C06DE573E0CE0101960E94512F8FEFAA
:104A60008A8784E990E09A83898384E593E09D872F
:104A70008C8789E08E8761E0CE0101960E94792AB9
:104A8000F82E87FD27C0082F112707FD1095F80184
:104A9000EC5AFC4FE49086E08F156CF38E2D0E944B
:104AA000790D882341F30E94710C109246036F2DFB
:104AB000CE0101960E94CE28882341F0F801E35BE5
:104AC000FC4F44916E2D81E00E94E92481E08093A7
:104AD0004603D1CF2E960FB6F894DEBF0FBECDBFE2
:104AE000DF91CF911F910F91FF90EF9008950F9359
:104AF0001F93CF93DF93CDB7DEB72E970FB6F89401
:104B0000DEBF0FBECDBF109267006BE173E0CE0138
:104B100001960E94512F8FEF8A8784E990E09A8353
:104B2000898386E193E09D878C8787E08E8761E0AB
:104B3000CE0101960E94792A082F87FD20C0E82F18
:104B4000FF27E7FDF095EA5EFC4F1491812F0E944C
:104B5000790D882361F30E94710C10924603602F37
:104B6000CE0101960E94CE28882329F0412F612F83
:104B700080E00E94E92481E080934603D8CF81E061
:104B8000809367002E960FB6F894DEBF0FBECDBFA0
:104B9000DF91CF911F910F9108958F3019F4CB01C0
:104BA0000C941D22CB010C94B01BEF92FF920F933B
:104BB0001F93CF93DF93EC01443019F00FEF1FEFF9
:104BC00002C001E010E00E94B636089F7001099F04
:104BD000F00C189FF00C11240E94B6364F855889AE
:104BE00001E09C01B701CE010D960E940D146D8568
:104BF0007E858B85DF91CF911F910F91FF90EF9074
:104C00000C94CD25AF92BF92CF92DF92EF92FF929C
:104C10000F931F93CF93DF93CDB7DEB765970FB692
:104C2000F894DEBF0FBECDBFA82EB62E7A0180E06D
:104C30000E949824882309F46FC0AA2069F00E947A
:104C4000602284ED92E60E94FB05E2E0CE2EFFE0BA
:104C5000DF2E08EE1DEF08C00E94DD1B63E0C62EAC
:104C600070E1D72E00E010E463E373E0CE0101961B
:104C70000E94512F8FEF8A872CE930E03A832983F5
:104C8000DC86BD86198B088B4D856C85CE014296DE
:104C90000E94690B2A893B893F872E8761E0CE01FC
:104CA00001960E94792A87FD2FC08111EDCF6E8574
:104CB0007F858D2D0E94CD2560E0CE0101960E945A
:104CC000CE288823D9F00E94710CFD8AEC8A2E85AB
:104CD0003F853B8B2A8BAE014E5E5F4F6B2D8D2D3A
:104CE0000E94860B8C2D0E94300B9B8B8A8BAE0111
:104CF0004E5E5F4F6B2D8C2D0E94860B60E070E046
:104D00008D2D0E94CD25C0CF81E0AA2019F00E94F0
:104D1000762202C00E94EB1B65960FB6F894DEBFA8
:104D20000FBECDBFDF91CF911F910F91FF90EF90FC
:104D3000DF90CF90BF90AF900895EF92FF920F93C6
:104D40001F93CF93DF93CDB7DEB729970FB6F894B3
:104D5000DEBF0FBECDBF8C017B01BC01CE01019631
:104D60000E94512F60E0CE0101960E94792A682F9F
:104D700087FD10C0E82FEE0FFF0BEE0DFF1D4591D4
:104D8000549181E093E00734190709F080E00E9414
:104D90000226E8CF29960FB6F894DEBF0FBECDBF2E
:104DA000DF91CF911F910F91FF90EF9008951F9386
:104DB000CF93DF9300D000D01F92CDB7DEB7182F6E
:104DC0006D830E94300B9A838983812F0E94390B57
:104DD0009C838B83AE014F5F5F4F6D81812F0E945B
:104DE000860B0F900F900F900F900F90DF91CF9147
:104DF0001F9108950F931F93CF93DF93CDB7DEB725
:104E00002C970FB6F894DEBF0FBECDBF182F062F1C
:104E100067E273E0CE0101960E94512F8FEF8A87DF
:104E200024EA30E03A8329831C8761E0CE010196B1
:104E30000E94792A87FD13C08111F7CF1092460393
:104E400060E0CE0101960E94CE28882321F0602FD9
:104E5000812F0E94D72681E080934603E6CF2C96CF
:104E60000FB6F894DEBF0FBECDBFDF91CF911F917B
:104E70000F9108951F93CF93DF93CDB7DEB7299796
:104E80000FB6F894DEBF0FBECDBF182F6DE273E0F2
:104E9000CE0101960E94512F60E0CE0101960E9442
:104EA000792A682F87FD04C0812F0E94FA26F4CF4B
:104EB00029960FB6F894DEBF0FBECDBFDF91CF911C
:104EC0001F9108951F93CF93DF93CDB7DEB7299736
:104ED0000FB6F894DEBF0FBECDBF61E773E0CE0121
:104EE00001960E94512F60E0CE0101960E94792A1E
:104EF000182F87FD2DC00E944C3C81E00E94540E6B
:104F00001230A1F04CF4112371F01130C9F46DE3AB
:104F100073E087E493E00EC0133079F0143081F42D
:104F20000E9477250DC00E9415250AC069E373E031
:104F300081E493E00E949D2603C087E00E943A2707
:104F400081E00E94E2110E94880C0E945C3CCBCF61
:104F50001092520329960FB6F894DEBF0FBECDBF54
:104F6000DF91CF911F910895CF93DF93EC01842FB0
:104F70000E94A60C9E013695279536952795A90186
:104F80004C0F5D1F8417950730F4C21BD30B21E033
:104F9000C817D90708F020E0822FDF91CF9108953C
:104FA00068EE73E080E00E940A0D29E1289FB001BD
:104FB000299F700D112440E084ED92E60C94B427F3
:104FC000CF93DF931F92CDB7DEB7482F68EE73E023
:104FD00049830E940A0D25E0289FB001299F700D8A
:104FE0001124498188E893E10F90DF91CF910C94CF
:104FF000B427CF93DF931F92CDB7DEB7482F64E677
:1050000070E049830E940A0DBC01660F771F680F8C
:10501000791F49818CE291E00F90DF91CF910C9440
:10502000B427CF930E946812C82F882341F10E94B1
:10503000D027C82F811105C08BEA96E00E94CC31A1
:105040001EC08FE00E94E027882329F082E00E94A2
:10505000E027811106C082EA96E00E94CC31C0E0D0
:105060000EC080E10E94F927882331F083E00E947E
:10507000F927C82F811103C086E996E0EECF8C2F67
:10508000CF9108950C9411281F93CF93DF93EC01D7
:10509000162F0E944C2FCE0109960E94EC239927CF
:1050A00087FD9095612F70E08617970759F0EB8583
:1050B000FC85E60FF71F84916D85DF91CF911F91DD
:1050C0000C94B30DDF91CF911F9108951F93CF934F
:1050D000DF93EC01162F82E10E94790D81110FC040
:1050E00061EC76E085ED96E00E94C4308B858031DE
:1050F00041F581E0DF91CF911F910C94EB1B612F63
:10510000CE010E944C2FCE0109960E94EC239927D4
:1051100087FD9095212F30E08217930791F01111B0
:1051200008C065E08D859E85DF91CF911F910C941D
:10513000363A0E94F00B67E0DF91CF911F910C94FB
:105140009B3ADF91CF911F9108951F93CF93DF93E7
:10515000EC01162F0E944C2FCE0109960E94EC23E1
:10516000992787FD9095212F30E08217930791F0C2
:10517000111107C067E08B85DF91CF911F910C94CF
:10518000B30D8B850E94300B67E0DF91CF911F91AB
:105190000C94363ADF91CF911F910895DF92EF92F0
:1051A000FF920F931F93CF93DF93EC01F62E698745
:1051B0001A8681E08D8382E0D82EEE24E3948E015E
:1051C000075F1F4F0E94E036482F823011F0843075
:1051D00061F4E881F9810280F381E02D6F2DCE0129
:1051E0000995F986DA86ED8204C0813089F088302D
:1051F00079F0C8010E943D358111ED828D818823AF
:1052000019F0CE010E941B2A8A858F5F8A87DACF28
:105210008FEF898781E08E838D83483009F080E0AD
:10522000DF91CF911F910F91FF90EF90DF90089544
:10523000CF93DF93EC010E944A378B819C810E94BF
:1052400067380E944E376A8188819981DF91CF91BA
:105250000C941C38FC0187818F3118F48F5F878391
:10526000089586818F5F86830895FC018781882356
:1052700019F081508783089586818150868308952F
:105280000F931F93CF93DF93FC01C681D0E06D2F66
:1052900080E00E94443710E11C0F01E00C0F8C2FBE
:1052A0000E94FE37011711F0C02FF7CFDF5FD23019
:1052B00011F0C12FECCFDF91CF911F910F91089585
:1052C0001F93CF93DF93EC018BEC90E00E947A3B2D
:1052D0001FEF8E81181721F0CE010E9440291E81F8
:1052E0008F81682F70E094E0759567959A95E1F746
:1052F0008F700E9444370E94E036823049F084303B
:1053000019F0813049F413C0CE010E942A29E1CF5F
:10531000CE010E943529DDCF8830D9F68D81E88114
:10532000F981E80FF11D8F819E81890F8083DF91C4
:10533000CF911F910895FC01718360834283348370
:105340002383158280E2868317820895CF93DF93AB
:10535000EC018BEC90E00E947A3B0E945237CE0128
:105360000E94182961E08D810E9444370E94E03636
:105370008230B1F0843041F08130C1F48BEC90E0A8
:105380000E94733B80E026C04D81242F30E08A814B
:1053900090E00197281739072CF74F5F4D83E2CF34
:1053A0008D818823F9F281508D83DCCF8830D1F64E
:1053B00082E00E943337823048F083E00E94533508
:1053C0008BEC90E00E94733B81E004C0CE010E9410
:1053D0006029C3CFDF91CF9108950895FC018CEA35
:1053E00090E09183808312821382648381E08583BD
:1053F00086830895FC012281211103C081E082830C
:105400000895438130E0240F311D848190E001979D
:105410002817390714F44F5F43830895FC018281F4
:10542000882319F08150828308958381882311F0A5
:105430008150838308951F93CF93DF93EC0110E095
:10544000612F80E00E94443780E20E94FE37E881AD
:10545000F9816B81610F0190F081E02DCE010995FA
:105460000E9419381F5F123059F76A8180E00E944C
:1054700044378EE30E94FE376A818FE00E944437F2
:105480008CE30E94FE371D82DF91CF911F9108951A
:105490000F931F93CF93DF93EC010E94E036182FF8
:1054A0000E94123C882321F081E08D838FE71CC08D
:1054B0000B818A81080F123031F0143039F4CE019B
:1054C0000E94FA2903C0CE010E940E2A8B819A8184
:1054D000890F081711F081E08D838D81882319F0E1
:1054E000CE010E941B2A812FDF91CF911F910F9136
:1054F0000895EF92FF921F93CF93DF931F92CDB742
:10550000DEB77C0181E0F701858311E0C701698383
:105510000E94482A6981811102C0F7011682F701B1
:105520009681911108C0883031F481E086838381AF
:105530009281890F09C0662311F0F701158381302C
:1055400029F79111E3CF8FEF0F90DF91CF911F914A
:10555000FF90EF900895CF93DF93CDB7DEB72997F3
:105560000FB6F894DEBF0FBECDBF6DE773E0CE017E
:1055700001960E94512F60E0CE0101960E94792A87
:10558000813049F0823051F081110BC084E593E005
:105590000E946313F0CF0E946227EDCF0E94701229
:1055A000EACF87FFE8CF29960FB6F894DEBF0FBE8B
:1055B000CDBFDF91CF910895262F443019F06FEFC2
:1055C0007FEF02C061E070E0223091F028F42223E6
:1055D00049F0213051F00895243081F060F02530F9
:1055E00081F008950B960C942F160B960C94D316FD
:1055F0000B960C941D170B960C947E160B960C9420
:105600009F160B960C947D17EF92FF920F931F93AA
:10561000CF93DF93EC018B017A0165E873E00E9480
:10562000512F8FEF898782EB90E0998388838AE1FD
:10563000F801DE011B9601900D928A95E1F7FEA21A
:10564000EDA2DF91CF911F910F91FF90EF90089500
:105650000F931F93CF93DF93CDB7DEB728970FB685
:10566000F894DEBF0FBECDBF8C01BC01695E7F4FD9
:1056700028E337E04EE050E0CE0101960E949B29DE
:10568000CE0101960E94A62981E0F8018583289623
:105690000FB6F894DEBF0FBECDBFDF91CF911F9143
:1056A0000F910895CF93DF93EC010E9452370E942F
:1056B0004A3782E397E00E9467380E944E376EE0D7
:1056C000CE0147960E941C380E946A1483E0DF9145
:1056D000CF910C945335CF93DF93EC016DA17EA154
:1056E0006F5F7F4F0B960E94AF14CE01DF91CF9179
:1056F0000C94522BCF93DF93EC016DA17EA16F5FD1
:105700007F4F0B960E940815CE01DF91CF910C942C
:10571000522BDF92EF92FF920F931F93CF93DF9361
:10572000CDB7DEB76A970FB6F894DEBF0FBECDBF18
:105730008C018AE1D82EC8010B967C0160E0C8017B
:105740000E94792A87FD30C0873041F0883051F0BF
:10575000863061F4C8010E946B2BF0CFC8010E9413
:10576000282BECCFC8010E947A2BE8CFF701DE018D
:1057700011969D2D01900D929A95E1F7682FC80121
:105780000E94CE28811109C0FE013196D7018D2DCE
:1057900001900D928A95E1F7D1CF83E00E945335B5
:1057A000C7010E94FA16CACF6A960FB6F894DEBFF8
:1057B0000FBECDBFDF91CF911F910F91FF90EF9062
:1057C000DF9008951F93CF93DF93EC01162F0E9473
:1057D0004C2FCE0109960E943235882311F029857D
:1057E00001C02FEF332727FD3095812F90E0281738
:1057F0003907B1F11230F9F058F41123A9F0113042
:1058000079F5CE010B96DF91CF911F910C94BF15C6
:105810001430F9F0B8F0153019F5CE010B96DF9180
:10582000CF911F910C946C17CE010B96DF91CF9105
:105830001F910C94B915CE010B96DF91CF911F915A
:105840000C94ED15CE010B96DF91CF911F910C9426
:10585000E115CE010B96DF91CF911F910C94E715C6
:10586000DF91CF911F910895DC011796ED91FC9186
:105870001897E60FF11D649189E993E00C947F3845
:105880000F931F93CF93DF93EC018B0180E061E0D6
:10589000680FF801E80FF11DE491E83011F0862F50
:1058A000F6CFCE010E94EE298AEB90E0998388839F
:1058B00018870F83DF91CF911F910F9108958EE884
:1058C00093E00E948414833039F0823041F08111DA
:1058D00009C08BE694E0089582E694E0089584E799
:1058E00094E0089589E594E008950F931F93CF9372
:1058F000DF93EC01109282040E9421150E945F2C1C
:105900008C0160E0C8010E94792A87FD1BC0D80184
:105910001796ED91FC911897E80FF11D87FDFA9508
:105920008491883061F4BE018EE893E00E940516F0
:10593000CE010E942F1581E00E94E911DFCF0E9465
:10594000F012DFCFDF91CF911F910F9108956BEB94
:1059500073E084E794E00E94402C60EB73E08BE6F8
:1059600094E00E94402C64EB73E082E694E00E9495
:10597000402C6BEA73E089E594E00C94402C0F9383
:105980001F93CF93DF93EC018B016EEC73E00E94C9
:10599000512F8FEF898780EC90E0998388838AE389
:1059A000F801DE011B9601900D928A95E1F7DF91D7
:1059B000CF911F910F910895DF92EF92FF920F9375
:1059C0001F93CF93DF93CDB7DEB7EA970FB6F89466
:1059D000DEBF0FBECDBF7C018C01055F1F4F8AE388
:1059E000D82E60E0C7010E94792A87FD2AC086313F
:1059F00039F4C8010E944A1383E00E945335F1CF65
:105A0000F801DE0111969D2D01900D929A95E1F716
:105A1000682FC7010E94CE28811109C0FE0131966E
:105A2000D8018D2D01900D928A95E1F706C083E093
:105A30000E945335C8010E945613C8010E94611389
:105A4000D0CFEA960FB6F894DEBF0FBECDBFDF9180
:105A5000CF911F910F91FF90EF90DF90089564E632
:105A600070E00E940D3ECB0163E00E94363A83E471
:105A70000C94FE3768EE73E00E940D3ECB0163E0AC
:105A80000E94363A86E50C94FE37CF93DF9364E6A6
:105A900070E00E940D3E9B01EC0163E0C9010E9491
:105AA000363A8EE20E94FE37CE016AE070E00E9434
:105AB0000D3E862F0E94C03884E698E0DF91CF919A
:105AC0000C94673841E041960C94E21344E0C99687
:105AD0000C94E213FC0161AD84EC93E00C947F38EC
