:100000000C941A050C9442050C9442050C9442057C
:100010000C9490070C9442050C9442050C944205F4
:100020000C9442050C94C0070C9442050C944205B4
:100030000C9442050C944F080C9484080C944205CF
:100040000C946C070C9442050C9442050C944205E8
:100050000C944205E011E911EF11F211F511FC11B8
:10006000F9110312042D082D0E2D1A2D1E2D222DEF
:10007000302D3B2D412D452D4B2D572D652D762DAA
:100080007A2D7E2D8C2D982DA62DAA2DB02DB32D39
:10009000B72DC32DC72DD12DCF2ED32ED52EDA2E91
:1000A000DE2EE02EE52EE82EEA2EEF2EF12EF62E95
:1000B000F92EFF2E022F052F082F0B2F102F142F94
:1000C000182F1B2F1E2F232F262F2A2FFC35FE35EE
:1000D0000036043604360236083606368B3A6D3A58
:1000E000763A6F3A783A683A743A0000000080C66F
:1000F0004E5A000000007C6B0831000133000028DC
:10010000D007800133004023E80300000000C0AEA8
:100110004E5AFC5350143FA0540B0000000000BB8B
:10012000C43680186009DC3770170000000000003A
:1001300000000000000044C4FA0E0000000000C4EB
:10014000FB0E0000000068C4FD0E00000000AAC500
:10015000160F0000000040C6190F0000000040C745
:100160002D0F0000000040C6190F0000000040C71E
:100170002D0FB00032006001E8034F0132009E02F3
:100180002C01FF0000000A00050400000004090023
:1001900000FF0101000A010505000001040A00003A
:1001A000FF02020000020506000002040B0000FF2F
:1001B00003030000030507000003040C0000FF0018
:1001C00000000A040513020004040D0000FF0101F1
:1001D000000A050513040005040E0000FF020200DA
:1001E00000060513010006040F0000FF03030000D2
:1001F00007051308000704100000FE0100006F70DF
:1002000074696F6E730080250000004B000000963B
:10021000000000E1000000C20100460088137017D2
:100220000000701764000100FBFFF1FF08070807DA
:1002300005001E0001000A003200780010270000AF
:1002400000000000010008000000000003000000A2
:1002500000000000000021091C09170912090D09FE
:1002600008090309FE08F908F4080000980898082E
:100270006C071027580201009808F4016C07010070
:10028000E00102009808F4016C070100E00103009E
:100290009808DC006C070600E00104009808980844
:1002A0006C07030078000500980898086C070300A5
:1002B00078000600980898086C070300780007008B
:1002C000980898086C0703007800080098089808B8
:1002D0006C07030078000900980898086C07030071
:1002E000780001000100010001000100B0040000DD
:1002F000520300005203B0040000E8030000E803CA
:10030000D0079209D60600006C07E40C100ED00747
:10031000E40CB80B100E0410C409A60EAC0D740E3C
:100320006810B80B0A0F890C740ECC10B80B0A0FAA
:10033000890C740EFE10B80B0A0F890C40066C076E
:10034000140540067805EE1733181F198C1A871A02
:10035000BC1A821B151C8E1B1E1C1B1C251C4C1C36
:10036000531C771C0C1FDC1EE21E4F2186195121E5
:1003700000014F06470600005E06570600006E06A5
:10038000650600007F067706000064002C0164000B
:10039000E8038D06870600009A069306000006090A
:1003A0000A0B0C0D0E0F10062122232425262728C8
:1003B0001514DC06D606D006CA06C406BE06B80664
:1003C000B206AC06A606A00600001E071507090720
:1003D000FD06F106E20600004B0941093309000061
:1003E0009E07990794078F078A07830777076D078A
:1003F00062070000B009A10999098F0983097B09E7
:100400006C09610954090003040708000307080088
:10041000010203040708000102030405060708E4BB
:1004200007DD07D707CE07C507E508DD08D208C9ED
:1004300008BE08B708AE08A5089C08920888087C82
:100440000872086C085E0854084A083E0834082BF5
:1004500008200815080B080008FA07F307ED070045
:100460000020202D2D202000636865616C692D63BC
:100470006861726765720A76302E39395F323031C1
:1004800035303532390063616C69626174696F6E51
:10049000206572726F7200706C65617365206361B4
:1004A0006C69627261746500656570726F6D20724F
:1004B000657365740A6572726F723A2000726573B3
:1004C000657474696E6720656570726F6D00206E6B
:1004D0006F20202020202020202079657300656572
:1004E00070726F6D2072657365743A00524556459F
:1004F00052534520504F4C41524954590065727235
:100500006F723A2020202000636F6D706C657465F7
:100510003A20000134008000002832FFFF0480945C
:1005200033FFFF04807032FFFF0480543300010862
:1005300080603300010880743300010080F42F00D4
:10054000C00000F82F00C00000F82F00C00000FC21
:100550002F0040048000300040048004300040043C
:1005600080F732FFFF0480B732FFFF00803133FF96
:10057000FF00007534800000801533FFFF0000008D
:1005800000FFFF00002500202D2D3A2D2D00646571
:100590006C746120543D20004E2F410054657874E6
:1005A0003D0064656C746120563D20006D61785695
:1005B0006F75743D0054696E743D002D005465786C
:1005C000743D00206C696D69743D0056696E7075EC
:1005D000743D00776972657320523D0062617474E6
:1005E0002E20523D006220004C696D6974733A20E0
:1005F000006E6F2064542F7400252000436843422E
:10060000426C44694643537453424359000100010C
:10061000000100010001000A00640001000300085D
:100620000009000A000B000C000100020004000693
:100630000008000A000C0016191B1A1C07050621E9
:1006400022232425262728566D696E75733A005695
:10065000706C75733A200076616C75653A0074654C
:100660006D703A2000706F696E7420322E00706FCA
:10067000696E7420312E00496F75743A202000761F
:10068000616C75653A20003330306D410031303097
:100690006D4100313030306D41003130306D4100FE
:1006A000566F75743A0056312D383A005662383A12
:1006B00020005662373A20005662363A20005662D1
:1006C000353A20005662343A20005662333A200010
:1006D0005662323A20005662313A200056696E3A2C
:1006E00020006578706572742044414E4745522160
:1006F0000074656D7020696E7465726E0074656D4E
:10070000702065787465726E00492064697363684F
:100710006172676500492063686172676500766F82
:100720006C746167650062616C616E636520706FF7
:100730007274210062617474657279210064697356
:10074000636F6E6E65637400636F6E6E65637400D5
:1007500064542F6474002D64560056206C696D69D2
:1007600074005265736574206E616D65004564693F
:1007700074206E616D6500437265617465206E6101
:100780006D6500546C696D3A200049643A20004957
:10079000633A200043683A2000563A202000426124
:1007A000743A2020004E616D653A004564697420FA
:1007B0006E616D653A006D5600206E6F007965734D
:1007C00000496E66006578742E2041646300657888
:1007D000742E20646562006465627567006E6F72D6
:1007E0006D616C0064697361626C6564007265734D
:1007F00065740073706565643A00554152543A005F
:10080000616463206E6F6973653A0062616C2E20CB
:100810006572723A00666F7263652062616C3A00BD
:100820006469732061677265733A006F2E6469733F
:1008300063683A006F2E6368617267653A00696E9B
:10084000707574206C6F773A200063617020434F9D
:1008500066663A006D696E20496F75743A006D697D
:100860006E20496F75743A2020492F0062656570CB
:100870003A00442F4320726573743A00442F43209A
:100880006379636C65733A004E6943642056434F45
:100890003A004E694D482056434F3A004E69436432
:1008A0002064563A004E694D482064563A00656E01
:1008B00061622064563A0064542F64743A0065788B
:1008C00074726E2054434F3A00657874726E2054EF
:1008D0003A006469736368206F66663A0066616E09
:1008E000206F6E3A006261636B6C696768743A00EE
:1008F000432F6D004E695A6E004C343335004C3432
:100900003330004C69706F004C696C6F004C696645
:10091000650050622020004E694D48004E694364D6
:1009200000556E6B6E006D696E2E006E6F6C696D9A
:1009300069740072657365742064656661756C74B2
:100940000063616C696272617465007365747469D7
:100950006E6773006564697420626174746572798E
:1009600000443E4320666F726D61740073746F7251
:100970006167652B62616C616E630073746F726195
:1009800067650066617374206368617267650064FF
:1009900069736368617267650062616C616E63654B
:1009A000006368617267652B62616C616E636500EC
:1009B000636861726765006578742E74656D702E6A
:1009C0006375746F66660074696D65206C696D6926
:1009D00074006361706163697479206375746F6614
:1009E0006600696E707574205620746F206C6F7786
:1009F000004857206661696C7572650062616C61C0
:100A00006E63657220646973632E00696E742E7460
:100A1000656D702E6375746F6666006261747465CF
:100A2000727920646973632E0000EB05BB096E10B8
:100A3000D32BC43111241FBECFE5D8E0DEBFCDBF1C
:100A400010E0A0E6B0E0E2EAFDE702C005900D92FA
:100A5000AC3CB107D9F715E0ACECB0E001C01D9299
:100A6000A630B107E1F71AE0C4E3DAE004C0229748
:100A7000FE010E94653ECA32D107C9F70E94691083
:100A80000C94CF3E0C94000020E042E060E18CEC3E
:100A900090E00E94B73B0E9443080C94EF05CF9270
:100AA000DF92EF92FF92482F282F30E0A0E0BDE7C1
:100AB0000E94D13D6B017C01A4E6B0E0A41BB1090A
:100AC00024E630E00E94E03D6C0D7D1D8E1D9F1DD3
:100AD00024E630E040E050E00E94223EB9018DE083
:100AE000FF90EF90DF90CF900C942D08882311F0A9
:100AF000909A089590980895089580FF02C0979A5B
:100B0000089597980895811102C0969A089596982D
:100B10000895811102C0929A0895929808958111C2
:100B200007C0939AC4980E94830580E00C948905BD
:100B30009398C49A0895BC018EE00C942D08BC01D2
:100B40008EE00C942D0880FF02C0C09A01C0C098AE
:100B500081FF02C0C19A01C0C19882FF02C0C29A3F
:100B600001C0C29883FF02C0C39A01C0C39884FF2A
:100B700002C0DE9A01C0DE9885FF02C0DF9A01C084
:100B8000DF9886FF02C0AE9A01C0AE9887FF02C010
:100B9000AF9A0895AF98089580E00E948F0580E095
:100BA0000E94760580E00E947D0580E00E94A305FA
:100BB0008C9A8B9A889A8F9AB89AB99ABA9ABB9A51
:100BC000D69AD79AA69AA79ABC9A8D9A8E9A8D9AF7
:100BD0008A9A089508958CEC90E00C940C3CD5987A
:100BE000D498DD98DC98BF9ABE9ABD9A8EEA86B9F1
:100BF000369A089534B145B1E091DD00E33131F129
:100C00002FB7F894832F90E0942BF0E0DF01AA0F28
:100C1000BB1FA551BD4F11969C938E933091D5006B
:100C2000332391F0EE0FFF1FEE0FFF1FEF5EFC4F1F
:100C30004081518162817381480F591F611D711D6F
:100C400040835183628373832FBF08952091DE0018
:100C50003091D20047FD02C0232B02C020952323F0
:100C60002093D20008950E94B32190930E038093A5
:100C70000D030E94F01A9093100380930F0380914C
:100C8000D500882309F485C00E94B3214091550303
:100C9000509156036091570370915803480F591FA4
:100CA000611D711D40935503509356036093570384
:100CB000709358030E94F01A4091590350915A03BF
:100CC00060915B0370915C03480F591F611D711D9A
:100CD0004093590350935A0360935B0370935C03F2
:100CE00080915D0390915E03019709F050C080915F
:100CF000190390911A03A0911B03B0911C03B695A0
:100D0000A795979587958093190390931A03A093BD
:100D10001B03B0931C038091110390911203A091C7
:100D20001303B0911403B695A79597958795809373
:100D3000110390931203A0931303B09314038091B3
:100D4000150390911603A0911703B0911803B6955F
:100D5000A795979587958093150390931603A09375
:100D60001703B093180380911D0390911E03A09167
:100D70001F03B0912003B695A7959795879580930B
:100D80001D0390931E03A0931F03B09320030C94A4
:100D90001F0D0895089580919C0390919D03892BC8
:100DA000E9F04091DA004423C9F081E090E000903E
:100DB000D70002C0880F991F0A94E2F720915D03C3
:100DC00030915E032F703FB7F8945BB39BB3982BC1
:100DD0009BBB240F2A95F1F75BBB3FBF0895809121
:100DE000D4008F5F883108F080E08093D40085E0E4
:100DF000E6EDF0E0ABEDB0E001900D928A95E1F701
:100E00006091D4006F5F683108F060E085E0689F12
:100E1000B00111246E577E4F45E050E086ED90E022
:100E20000E94693E8091D40081110CC00E9433065B
:100E300080915D0390915E0321E0892B09F420E00D
:100E40002093D5000895CF93DF930E94FA058091F7
:100E5000D30091E0980F9093D300873079F118F484
:100E6000882359F033C0883069F1893079F51092C0
:100E7000D300DF91CF910C94EF068091D60087FDCF
:100E800025C02FB7F8949091D60088B3392F3170D0
:100E9000C32F30E0D32FCC0FDD1FCC0FDD1F92FB13
:100EA000332730F9C32B9270C92B90E2C902E001BD
:100EB00011248F718C2B88BB2FBF08C0DF91CF917D
:100EC0000C94CB068091D700806287B9DF91CF91D7
:100ED00008958091D20008951F920F920FB60F923D
:100EE00011242F933F934F935F936F937F938F932F
:100EF0009F93AF93BF93EF93FF930E942307FF91BC
:100F0000EF91BF91AF919F918F917F916F915F9181
:100F10004F913F912F910F900FBE0F901F901895FA
:100F20001F920F920FB60F9211242F933F934F935E
:100F30005F936F937F938F939F93AF93BF93EF9341
:100F4000FF930E943A36FF91EF91BF91AF919F912D
:100F50008F917F916F915F914F913F912F910F9062
:100F60000FBE0F901F90189588E085BD85B58460F1
:100F700085BD14BC8CE783BD89B7806889BF08959F
:100F80001F920F920FB60F9211242F933F934F93FE
:100F90005F936F937F938F939F93AF93BF93EF93E1
:100FA000FF932091E6003091E7008091E20090915C
:100FB000E300820F931F9093E3008093E20020915F
:100FC000E4003091E5008091E0009091E100820F13
:100FD000931F9093E1008093E0002FB7F8948091E5
:100FE000E2009091E30035E0969587953A95E1F718
:100FF0009BBD8ABD8091E0009091E10045E096950F
:1010000087954A95E1F799BD88BD2FBF8091E20091
:101010009091E3008F7199279093E3008093E20011
:101020008091E0009091E1008F7199279093E10009
:101030008093E0000E947C05FF91EF91BF91AF91FA
:101040009F918F917F916F915F914F913F912F91E0
:101050000F900FBE0F901F9018959FB7F8948E3089
:1010600039F47093E7006093E6008FB5806808C09C
:101070008D3039F47093E5006093E4008FB58062A1
:101080008FBD9FBF089580E094E097BD86BD82E04C
:101090008FBD89E18EBD89B7846089BF08951F9295
:1010A0000F920FB60F9211242F933F934F938F936C
:1010B0009F93EF93FF935A991AC04CB18091FE0110
:1010C0009091FF0101969927209100023091010231
:1010D0008217930769F0E091FE01F091FF01E25061
:1010E000FF4F40839093FF018093FE0101C08CB1BC
:1010F000FF91EF919F918F914F913F912F910F9081
:101100000FBE0F901F9018951F920F920FB60F925F
:1011100011242F933F938F939F93EF93FF932091ED
:10112000FE013091FF018091000290910102281789
:10113000390711F4559812C0E0910002F0910102B4
:10114000E250FF4F208180910002909101020196B0
:10115000992790930102809300022CB9FF91EF919F
:101160009F918F913F912F910F900FBE0F901F90E5
:101170001895CF92DF92EF92FF92CF93DF93EC011D
:101180006A017B01411581EE580761057105F9F08F
:10119000E885F98581E090E00C8802C0880F991FEE
:1011A0000A94E2F7808360E079E08DE390E0A701A4
:1011B00096010E94223E215031094109510956955C
:1011C000479537952795211580E1380798F0E885F0
:1011D000F985108260E874E88EE190E0A70196013D
:1011E0000E94223E215031094109510956954795E7
:1011F00037952795EC81FD813083EE81FF81208337
:101200001D8AEA85FB85408181E090E09C01098888
:1012100002C0220F331F0A94E2F7422B4083EA8573
:10122000FB8540819C010A8802C0220F331F0A946B
:10123000E2F7422B4083EA85FB8520810B8802C0C0
:10124000880F991F0A94E2F7809582238083DF91AB
:10125000CF91FF90EF90DF90CF900895CF93DF93E1
:10126000FC0182819381DC01B395EC01CE5FDE4FFE
:101270004D915C9111972881398142175307C1F72D
:10128000A285B3854C9181E090E09C01018802C069
:10129000220F331F0A94E2F7209524232C93A28572
:1012A000B3854C919C01028802C0220F331F0A941F
:1012B000E2F7209524232C93A285B3852C910388F3
:1012C00002C0880F991F0A94E2F7809582238C93BD
:1012D00080819181FC01EE5FFE4F20813181FC0114
:1012E000F39531832083DF91CF910895FC018589A7
:1012F000882329F0A085B1858C9186FFFBCF158AC4
:101300000895CF93DF93FC0122813381D901B395F6
:101310008D919C91119701969927E901CE5FDE4F3F
:101320004881598184179507D9F30D90BC91A02D60
:10133000A20FB31F6C93A281B381B39511969C93B6
:101340008E93A285B3852C9181E090E0038802C042
:10135000880F991F0A94E2F7282B2C9381E0858B44
:101360000084F185E02D80818064808381E090E0BD
:10137000DF91CF9108958EEF90E09093E9008093F4
:10138000E8009093EB008093EA0080E490E0909373
:10139000ED008093EC0029E230E03093EF002093E1
:1013A000EE002BE230E03093F1002093F0002AE2CF
:1013B00030E03093F3002093F2009093F500809397
:1013C000F4008CE290E09093F7008093F60084E0C4
:1013D0008093F80083E08093F90087E08093FA001F
:1013E00085E08093FB0081E08093FC000895CF931B
:1013F000DF931F92CDB7DEB7E0910205F0910305B0
:10140000309711F4E6E0F5E0CE0101962EEB8E1751
:101410009F0710F02193FBCF0F90DF91CF9108959C
:10142000CF93DF9300D0CDB7DEB720910205309186
:1014300003052115310511F426E035E0CE010196B2
:10144000821B930B0F900F90DF91CF910895CF9354
:10145000DF931F92CDB7DEB72091020530910305CF
:101460002115310511F426E035E0F901AE014F5F99
:101470005F4FCF01821B930B4E175F0728F06081EF
:101480006E3B11F43196F5CF0F90DF91CF91089517
:10149000009741F0EFE9FFE03197F1F700C000005D
:1014A0000197F6CF08958436910538F064E670E030
:1014B0000E940E3ECB010C94480A019728F025E3C8
:1014C0002A95F1F70000F9CF08956AE070E00E94D4
:1014D0000E3ECB010C94530AE82FF0E0EE0FFF1FF5
:1014E000EB53FD4F808191810895E82FF0E0EE0FDE
:1014F000FF1FED58FD4F8081918108952FB7F8941B
:10150000E82FF0E0EE0FFF1FE551FD4F8081918144
:101510002FBF089580916003089580911F029091DC
:101520002002089580910D0290910E0208958091FD
:101530000F02909110020895E82FF0E0EE0FFF1FC8
:10154000EF5DFD4F808191810895262F633110F466
:10155000423040F021E030E0FC01338322833183CC
:101560002083089550E0BA01620F711D620F711D52
:10157000660F771F660F771F665F7F4F44E050E06E
:101580000C948A3E282FCA01233188F4623078F403
:1015900070E0620F711D620F711D660F771F660F7D
:1015A000771F665F7F4F44E050E00C94A83E08959B
:1015B000FF920F931F93CF93DF9300D000D0CDB74E
:1015C000DEB70AEE10E0F12CF801459155916591D6
:1015D000749149835A836B837C83AE014F5F5F4F65
:1015E00060E08F2D0E94C20AF80134964591559112
:1015F0006591749149835A836B837C83AE014F5FFD
:101600005F4F61E08F2D0E94C20AF394085F1F4F65
:1016100083E1F812D9CF81E00E94FA100F900F9069
:101620000F900F90DF91CF911F910F91FF90089530
:1016300081E02091A1023091A2022531310509F00B
:1016400080E0089580919F029091A002089580917A
:101650009B0290919C0208958091A5029091A60210
:10166000089580914D0290914E02039750F0809121
:10167000530290915402039720F083E090E00C9481
:101680005F1880E008952FB7F89480E090E0FC01A7
:10169000EE0FFF1FEE0FFF1FEF5EFC4F1082118257
:1016A0001282138201968331910589F784E690E0D6
:1016B00090935E0380935D0310925F032FBF0895A4
:1016C000CF93CFB7F89410921E0210921D02109281
:1016D000190210921A0210921B0210921C02109210
:1016E0001502109216021092170210921802109210
:1016F00011021092120210921302109214020E9410
:10170000623690930C0280930B02CFBFCF91089565
:101710000E94600B1092100210920F0210920E02A3
:1017200010920D020895E1E2F2E01192119282E02E
:10173000E337F807D1F70895CF93CFB7F89481E056
:1017400090E090935E0380935D0381E080935F035C
:101750000E94930BCFBFCF910895CF93DF930E9448
:101760009C0BC0911F02D091200280911F0290918A
:101770002002C817D90729F48AE090E00E94883631
:10178000F4CFDF91CF9108951092600380E00C9424
:101790008F05CF93DF9381E00E947E0AEC0180E009
:1017A0000E947E0A8C179D0718F4C81BD90B02C033
:1017B000C0E0D0E081E0C93ED34008F480E0DF9192
:1017C000CF9108958F929F92AF92BF92CF92DF9266
:1017D000EF92FF92CF93DF93CDB7DEB728970FB686
:1017E000F894DEBF0FBECDBFF82E5B016115710509
:1017F000D1F140E0682FCE0105960E94A50A41E094
:101800006F2DCE0101960E94A50A2B813C8140E0FC
:1018100050E0CF80D884E12CF12C2C193D094E09E1
:101820005F09B50180E090E08D809E80A12CB12CF5
:10183000681979098A099B090E94F23D29813A8138
:1018400040E050E0281939094A095B090E94443EEA
:101850002C0D3D1D4E1D5F1D57FF03C020E030E0E5
:10186000A901C90102C080E090E028960FB6F89463
:10187000DEBF0FBECDBFDF91CF91FF90EF90DF9025
:10188000CF90BF90AF909F908F9008958F929F922E
:10189000AF92BF92CF92DF92EF92FF92CF93DF93FE
:1018A000CDB7DEB728970FB6F894DEBF0FBECDBF19
:1018B000F82E5B0161157105D1F140E0682FCE0172
:1018C00005960E94A50A41E06F2DCE0101960E9467
:1018D000A50A29813A8140E050E0CD80DE80E12CEC
:1018E000F12C2C193D094E095F09B50180E090E00B
:1018F0008F809884A12CB12C681979098A099B09D9
:101900000E94F23D2B813C8140E050E028193909CA
:101910004A095B090E94443E2C0D3D1D4E1D5F1D72
:1019200057FF03C020E030E0A901C90102C080E0F8
:1019300090E028960FB6F894DEBF0FBECDBFDF91C2
:10194000CF91FF90EF90DF90CF90BF90AF909F909E
:101950008F90089582508B3130F4E82FF0E0EF58EB
:10196000FF4F8081089581E00895CF93DF93853103
:1019700049F481E02091A1023091A2022531310584
:10198000C1F41AC0E82FF0E0EE0FFF1FED58FD4F35
:10199000C081D1810E94AA0C882319F0813029F0DE
:1019A0000AC081E0E39740F404C081E0C935D24029
:1019B00018F480E001C081E0DF91CF910895CF93CA
:1019C000C0E081E28C0F0E94B50C882329F0CF5F24
:1019D000C830B9F788E001C08C2FCF9108951F93CC
:1019E000CF93DF931F92CDB7DEB7182F69830E9484
:1019F000AA0CE12FF0E0EE0FFF1FED58FD4F4981DB
:101A0000682F808191810F90DF91CF911F910C946D
:101A1000583A2FB7F89460910702709108028091AC
:101A2000090290910A022FBF2DE730E040E050E01C
:101A30000E94223EBB27A52F942F832F08958091CB
:101A40005D0390915E03892B49F080915D03909135
:101A50005E03019790935E0380935D03089590E089
:101A6000880F991FFC01ED58FD4F208131816217CD
:101A7000730718F4261B370B04C0AB01421B530B32
:101A80009A01FC01EF5DFD4F2730310518F01182FE
:101A9000108206C0208131812F5F3F4F3183208328
:101AA000FC01ED58FD4F7183608308958FB7F89462
:101AB00010920702109208021092090210920A0274
:101AC0001092030210920402109205021092060274
:101AD0008FBF0E949C0B0E94880B60E070E08BE13E
:101AE0000E942F0D60E070E08DE10E942F0D60E0FC
:101AF00070E08EE10E942F0D60E070E08FE10C94A9
:101B00002F0D1092200210921F020E94560DE3E743
:101B1000F2E01192119282E0E53CF807D1F70895C6
:101B2000CF93C82F8091600381110CC081E00E9487
:101B30008F05C1110E94810D81E080936003CF91D8
:101B40000C94AD0BCF9108950C94810D809160039E
:101B5000882309F44FC04091A5025091A6028091BC
:101B6000070290910802A0910902B0910A02840F25
:101B7000951FA11DB11D8093070290930802A093A9
:101B80000902B0930A028091020291E0980F9093AB
:101B90000202883578F120919B0230919C02DA0193
:101BA0000E94D13D24E630E040E050E00E94223E19
:101BB0008091030290910402A0910502B091060267
:101BC000280F391F4A1F5B1F209303023093040222
:101BD0004093050250930602CA01B90120EA3CE88D
:101BE00040E050E00E94223EB9018CE10E942F0D9E
:101BF000109202020895CF92DF92EF92FF920F931C
:101C00001F93CF93DF931F92CDB7DEB7C0907302BF
:101C1000D090740280917502909176028C159D058A
:101C200018F4C81AD90A02C0C12CD12CB60184E11B
:101C30000E942F0D05E812E091E2F8016191719187
:101C40008F01892F99830E942F0D99819F5F99326F
:101C5000A1F70E94DF0CF82E80E000E010E08F1565
:101C600069F0E1E2E80FF0E0EE0FFF1FED58FD4FE5
:101C700020813181020F131F8F5FF1CFB80185E101
:101C80000E942F0D0115110581F00C151D0520F482
:101C90009601201B310B03C098012C193D09293BEB
:101CA0003B4018F4680115E102C014E1F12CB601C3
:101CB00086E10E942F0D6F2D70E088E10E942F0DAC
:101CC000612F70E087E10E942F0D0E94090D7C01B9
:101CD0000E94E11A882329F00091790210917A027A
:101CE0000BC00E94A421882329F000917702109153
:101CF000780202C000E010E0B80189E10E942F0DD7
:101D0000B7018BE10E942F0D9801D6010E94D13DB1
:101D100020E137E240E050E00E94223EB9018AE132
:101D20000F90DF91CF911F910F91FF90EF90DF9077
:101D3000CF900C942F0D4F925F926F927F928F9263
:101D40009F92AF92BF92CF92DF92EF92FF92CF938A
:101D5000DF93CDB7DEB728970FB6F894DEBF0FBE7E
:101D6000CDBF0E94623620910B0230910C02821B83
:101D7000930B8133954708F4A0C04FB7F894209196
:101D80001D0230911E02A8EEB3E00E94D13D6B010E
:101D90007C01F694E794D794C79440901902509030
:101DA0001A0260901B0270901C02609115027091E3
:101DB0001602809117029091180280901102909063
:101DC0001202A0901302B09014024FBF6D837E8365
:101DD0008F8398870E94600B20910F023091100230
:101DE0002F5F3F4F3093100220930F026D817E8151
:101DF0008F819885A70196010E94223E29833A830C
:101E00004B835C83C301B201A70196010E94223E6D
:101E1000B90180E00E94E20B3C0169817A8181E096
:101E20000E94E20B8615970518F4681A790A02C019
:101E3000612C712C4090AF025090B0026414750474
:101E400020F0B3018EE10E942F0DB30164197509D2
:101E50008DE10E942F0DC501B401A70196010E94DA
:101E6000223EB90187E00E94E20B20910D023091E1
:101E70000E0290930E0280930D02BC01621B730B45
:101E8000660F771F8FE10E942F0DB60180E2289622
:101E90000FB6F894DEBF0FBECDBFDF91CF91FF909C
:101EA000EF90DF90CF90BF90AF909F908F907F90FA
:101EB0006F905F904F900C942F0D28960FB6F8946A
:101EC000DEBF0FBECDBFDF91CF91FF90EF90DF90CF
:101ED000CF90BF90AF909F908F907F906F905F90CA
:101EE0004F900895CF92DF92EF92FF920F931F933E
:101EF000CF93DF932FB7F89480915D0390915E03A9
:101F00002FBF892B09F0ADC080915F0381119FC065
:101F100080911F029091200201969093200280935D
:101F20001F024091110350911203609113037091AD
:101F3000140376956795579547958091190290916E
:101F40001A02A0911B02B0911C02840F951FA61FBC
:101F5000B71F8093190290931A02A0931B02B093AB
:101F60001C02409115035091160360911703709164
:101F7000180376956795579547958091150290912E
:101F80001602A0911702B0911802840F951FA61F88
:101F9000B71F8093150290931602A0931702B09377
:101FA000180240912D0350912E0360912F037091E0
:101FB00030037695679557954795809111029091DA
:101FC0001202A0911302B0911402840F951FA61F54
:101FD000B71F8093110290931202A0931302B09343
:101FE000140280911D0290911E02019690931E0290
:101FF00080931D020E949B0E05EC12E0C0E0D0E031
:10200000B8EECB2EB3E0DB2EE12CF12CFE01EE0F6F
:10201000FF1FEE0FFF1FEF5EFC4F60817181828119
:102020009381A70196010E94223EF80121933193EA
:102030008F01B9018C2F0E94E20BBC018C2F0E94F2
:102040002F0D2196C331D10509F70E94FB0DDF91B9
:10205000CF911F910F91FF90EF90DF90CF900C9454
:10206000430BDF91CF911F910F91FF90EF90DF9085
:10207000CF9008958091600381110C94720F0895A0
:1020800060E081E693E00E94A52987FD0AC08111E6
:1020900002C00C94D729992787FD909501970C943D
:1020A000A12B08950E94CC0578940E9444050E94BB
:1020B000B4070E944C220E947B1B0E94A40D0E9428
:1020C000F7090E9461120E94A0300E94BC310C945A
:1020D00083110E9452100E944010FDCF6AEF71E000
:1020E00081E693E00E94382F80E990E090936203AC
:1020F00080936103E5E6F3E08081825E808308954A
:10210000FC0124812E51621710F40C94332F862F7A
:1021100090E0821B91090E9476156EE00C94A6381F
:10212000FF920F931F93CF93DF93EC018B0141112B
:102130000E94C93E85E0F82EFA9459F0CE010E9423
:10214000A23E8017910739F084E690E00E94743631
:10215000F3CF81E001C080E0DF91CF911F910F911B
:10216000FF900895EF92FF920F931F93CF93DF9309
:102170007B018C01E80EF91ECFEFDFEF0E151F0576
:10218000A9F0C8010E949A3EC82728E0CE01969582
:1021900087953C2FEC0130FF04C031E0C32730EAC3
:1021A000D327215099F70F5F1F4FE8CFCE01DF9162
:1021B000CF911F910F91FF90EF900895EF92FF92B2
:1021C0000F931F93CF93DF931F92CDB7DEB78C0190
:1021D0007B0149830E94B2104981BC01C8018E0D68
:1021E0009F1D0F90DF91CF911F910F91FF90EF9066
:1021F0000C949010482F68E970E08AE090E00C940D
:10220000DE10482F6CE073E084EA90E00C94DE105E
:10221000482F6CE370E082EB93E00C94DE100F9398
:102220001F93CF93DF93D82F182F1170412F63E6A0
:1022300078E680E090E00E949010C82F412F6CE675
:1022400079E682E090E00E9490108111C1E0D1FB1C
:10225000002700F9402F69E070E084E090E00E94E0
:1022600090108111C260D2FB112710F9412F62E05A
:1022700070E086E090E00E9490108111C460D3FB72
:10228000DD27D0F94D2F68E070E088E090E00E94F3
:1022900090108111C86001110E94D80A80E00E944C
:1022A000FA108111C26011110E94B31680E00E94E1
:1022B00001118111C460D1110E947C1280E00E9442
:1022C00008118111C8608C2FDF91CF911F910F9160
:1022D0000895CF93C82F0E947731882389F0C0FDDD
:1022E000C260C1FDC460C2FDC8600E9494318C2FE1
:1022F0000E940F11682F8C2F0E94983181E001C03D
:1023000080E0CF91089580E00E940F1181110C941C
:10231000691181E0089580E00E940F1181600C94A2
:102320006911CF930E94963082E593E09093F80371
:102330008093F703C1E0C093F6031092EE038AEA9C
:1023400093E00E94C913823011F4C093EE030E94FF
:10235000421A91E0813009F090E0892FCF910895E1
:1023600061E081E00E949F198EE593E09093F8036D
:102370008093F703089561E081E00E949F198AE647
:1023800093E09093F8038093F703089560E082E070
:102390000E949F198CE493E09093F8038093F703D5
:1023A000089590918A039093EF031092EE0390E0CA
:1023B0008830910560F5FC01E65DFF4F0C94633EAB
:1023C0008AEA93E00E94C913811106C00E94BB11E2
:1023D0001CC081E08093EE030E94B01116C086E419
:1023E00093E00CC00E94C61110C085E08093EF03FB
:1023F000F3CF81E08093EE0384E693E09093F803BB
:102400008093F70302C00C940A170C94421A80E0E0
:102410000895CF93C82F0E947727882359F1C0933E
:102420006D0310926B0310926A0383E080936C0338
:102430000E944D3C81E00E94900D0E9491118823E2
:1024400091F081E080936C030E94741D0E9496308D
:102450001092F60384E00E94403580916D030E9443
:10246000D1110E94B01D0E94C40B0E945D3CCF910F
:102470000C949F30CF910895DC01D296ED91FC91A0
:10248000D397EE0FFF1FEE0FFF1FEA5FFD4F659121
:1024900075918591949108954CE350E06AE172E062
:1024A0000C94693EFC01268937892630310520F0DD
:1024B00025E030E0378B268B0895FC0180810C9459
:1024C0004F054CE350E062EB73E08EE693E00E9430
:1024D0008A3E8EE693E00C945D124CE350E062EB92
:1024E00073E08EE693E00E94A83E81E00E9408110E
:1024F0008EE693E00C945D128EE693E00E944C12FF
:102500000C946D120F931F93CF93DF93CDB7DEB76B
:10251000C754D1090FB6F894DEBF0FBECDBF8C01F2
:10252000BC01CE0101960E94EB2BCE0101960E94C8
:10253000082C8CE3FE013C96D80101900D928A95FF
:10254000E1F70E946D12C8010E945D12C95BDF4F66
:102550000FB6F894DEBF0FBECDBFDF91CF911F91B4
:102560000F910895FC0125913491F901099440E0FF
:10257000FC01259134910296232B11F04F5FF8CF87
:10258000842F0895EF92FF920F931F93CF93DF93C1
:10259000EC017B018A0185E00E94750A8E159F057A
:1025A00018F4188281E007C00817190718F481E0B1
:1025B000888301C080E0DF91CF911F910F91FF9040
:1025C000EF900895282F81E090E03AE0215038F014
:1025D000AC01349FC001359F900D1124F7CF0895B1
:1025E00097FD02C081E008958FEF0895CF92DF92AA
:1025F000EF92FF92CF93611571058105910521F44A
:1026000061E070E080E090E0C0E02AE0C22ED12CD2
:10261000E12CF12CCF5FA70196010E94223ECA0156
:10262000B9012115310541055105A1F78C2FCF9135
:10263000FF90EF90DF90CF900895BC0180E090E094
:102640000C94F612CF92DF92EF92FF920F931F93AA
:10265000CF93DF93EC017B016A01E881F981CF011F
:10266000B8010E940E3E009731F01E141F049CF426
:10267000081B190B03C01E141F0474F4C901801B2E
:10268000910BE817F90718F40E0F1F1F01C08901FD
:10269000198308830DC08C01C8018C0D9D1D8E17F8
:1026A0009F0718F4E01BF10B01C0F601F983E883E2
:1026B000DF91CF911F910F91FF90EF90DF90CF901E
:1026C00008950F931F93242F30E001E010E040E0C5
:1026D00050E00E9422131F910F9108950F931F93B2
:1026E000242F30E001E010E041E050E00E9422138E
:1026F0001F910F910895AF92BF92CF92DF92EF9208
:10270000FF920F931F93CF93DF93EC017B016A013C
:1027100059016881798180E090E00E94F612823050
:1027200020F082500E94E21202C081E090E08C0111
:102730009501A601B701CE010E942213DF91CF912E
:102740001F910F91FF90EF90DF90CF90BF90AF90CF
:1027500008952FEF3FEF40E050E00C947B130E9470
:10276000CD368111FCCF0E94CD368823E1F3089548
:10277000CF93CAE00E94A136811108C084E690E0A0
:102780000E948836C150B1F780E001C081E0CF914E
:102790000895FC01808191818930910579F09C0137
:1027A000245031092530310558F09C012150310960
:1027B00081E02230310528F480E0089583E0089517
:1027C00082E00895CF93DF93FC012081318145E0C1
:1027D000429FF001439FF00D1124E60FF11DEE0F13
:1027E000FF1FEE51FD4FC591D4916130C9F42230E5
:1027F000310529F4C0918003D09181031DC021309F
:10280000310529F4C0918203D091830315C00E9441
:10281000C913823089F480919203909193030AC086
:10282000623051F40E94C913823031F480919403D4
:1028300090919503C80FD91FCE01DF91CF910895D4
:10284000FF920F931F93CF93DF938C01F62EFC0121
:10285000C085D1850E94E213F2E0FF120CC0F8019E
:10286000208131812230310531F4C730D10518F093
:10287000219780EB94E09C012C9FC0012D9F900D2F
:102880003C9F900D1124DF91CF911F910F91FF90EC
:1028900008950F931F93CF93DF93EC018B0150E0CA
:1028A0000E9497374AE3B801CE01DF91CF911F9183
:1028B0000F910C944337EF92FF920F931F93CF9396
:1028C000DF9300D01F92CDB7DEB78C01462F0C9658
:1028D0009A8389838EE08B83D801ED91FC91EE0F72
:1028E000FF1FEA5AFD4FE590F490BE016D5F7F4FE8
:1028F000CE0101960E944914A701BE016D5F7F4F72
:10290000CE0101960E945E3740E2BE016D5F7F4FAF
:10291000CE0101960E944337F80142815381BE01E6
:102920006D5F7F4FCE0101960E9497374FE2BE0147
:102930006D5F7F4FCE0101960E944337D8011896F4
:102940004D915C911997BE016D5F7F4FCE0101964D
:102950000E9497370F900F900F90DF91CF911F91AA
:102960000F91FF90EF900895CF93DF9300D01F92C7
:10297000CDB7DEB7462F2EE02B830C969A83898342
:10298000BE016D5F7F4FCE0101960E9449140F90EA
:102990000F900F90DF91CF9108952AE1289FB00109
:1029A000299F700D11246C557F4F4AE150E08AEA4F
:1029B00093E00C948A3E2AE1289FB001299F700D74
:1029C00011246C557F4F4AE150E08AEA93E00C9461
:1029D000A83EFC01A281B38120918E0330918F0328
:1029E0000E94D13D24E630E040E050E00E94223ECB
:1029F000293EFDEF3F074105510520F028EE3DEF50
:102A000040E050E0C9010895FC012081318121306E
:102A1000310529F420917E0330917F030AC02230D2
:102A2000310529F420917C0330917D0302C020E020
:102A300030E0FC0180859185AC01249FC001259F79
:102A4000900D349F900D11240895FC012081318157
:102A50004CE0429FB001439F700D112466597D4F99
:102A60004CE050E00C94693EFC01608186E592E008
:102A70000C946C38CF93DF93EC018881998160E0EE
:102A8000892B41F4CE010E94201467E0DF91CF91A1
:102A90000C94A03ACE010E94201465E00E94A03A56
:102AA0008FE20E94EB37888599850E942A3883E45B
:102AB000DF91CF910C94EB3766E0FC018481958126
:102AC0000C949C3A66E0FC01868197810C949C3AB8
:102AD000FC0182819381883EFDEF9F0721F48BE208
:102AE00099E00C94543867E00C94983A2AE1AC01D0
:102AF000249FC001259F900D112480559F4F08955C
:102B00000F931F93CF93DF93CDB7DEB7A7970FB681
:102B1000F894DEBF0FBECDBF8C01AB01BC01CE016E
:102B200001960E94302ACE0101960E94B52A8AE1C0
:102B3000FE013C96D80101900D928A95E1F7A79687
:102B40000FB6F894DEBF0FBECDBFDF91CF911F91BE
:102B50000F910895FC0120813181260F371F2A3003
:102B6000310550F01616170624F4FC01118210826C
:102B700005C029E030E0FC01318320830C94251549
:102B800062E00E9420149C0140E050E060E871ED9A
:102B900080EF98E00E94223E29358BE138074105FD
:102BA000510520F028E53BE140E050E0C9010895DF
:102BB00062E00E9420149C0140E050E060E478E76D
:102BC0008DE791E00E94223E293883E138074105D4
:102BD000510520F028E833E140E050E0C9010895B4
:102BE00061E00E94E213BC018CEC9DE80E940E3E65
:102BF000CB010895CF93DF93EC018A819B818436CA
:102C0000910520F484E690E09B838A838A819B81EE
:102C1000893E9D4F20F088EE9DEF9B838A838A85B5
:102C20009B85893E934020F088EE93E09B878A87BE
:102C3000CE010E94F015288539858217930710F47C
:102C400099878887CE010E94C0152C813D8182170B
:102C5000930710F49D838C83CE010E94D8152E819A
:102C60003F818217930710F49F838E8380918C039A
:102C700090918D032C813D812817390710F49D8395
:102C80008C832E813F812817390710F49F838E8310
:102C9000DF91CF910895EF92FF920F931F93CF93FF
:102CA000DF9300D0CDB7DEB77C01FC01808191813C
:102CB000892B19F402E310E002C001E010E0C70123
:102CC00069837A830E94F0159C0141E050E069819C
:102CD0007A81C70108960E942213C7010F900F90B6
:102CE000DF91CF911F910F91FF90EF900C94FA1507
:102CF0000F931F93CF93DF93EC0102960E94A913C9
:102D0000CE010E94FA150A811B81169507951D8335
:102D10000C83CE010E94C913813021F416950795CA
:102D20001D830C838C819D819F838E83CE01DF91D7
:102D3000CF911F910F910C94FA15CF93DF93EC0173
:102D400004960E94A913CE01DF91CF910C94FA153D
:102D5000CF93DF93EC0106960E94A913CE01DF9179
:102D6000CF910C94FA150F931F93CF93DF934CE000
:102D700050E062EB72E08AEA93E00E94693E8AEAE0
:102D800093E00E94FA15C0E0D0E08E010F5F1F4F64
:102D9000B8018AEA93E00E94B414CE010E94DB14C9
:102DA0000E31110511F0E801F0CF81E0DF91CF91F4
:102DB0001F910F910C940111FC0182859385883E2F
:102DC000F3E09F0719F48BE299E005C063E00E94ED
:102DD000373A86E299E00C945438CF93DF93EC01B4
:102DE0002FEF3FEF41E050E00A960E947B13CE01A7
:102DF000DF91CF910C94FA1580918603909187030F
:102E00000E94401C88E593E09093F8038093F703B9
:102E10000C94421A81E08093F6031092C40340910F
:102E2000C403242F30E08091840390918503880FA0
:102E3000991F01972817390711F41092F60340FFE4
:102E400002C080E001C083E00E94D111813089F48A
:102E50009091F603992369F08091C4038F5F80936A
:102E6000C4030E94571D0E94560D0E94FC1681301B
:102E7000B1F208958091EB03811113C00E948A0A78
:102E8000882381F00E948D0A2091C5033091C603EA
:102E9000821B930B9C0181E02330310518F080E008
:102EA000089581E008958F5D0C94750A0F931F9328
:102EB000CF93DF9310E0CFEFDFEF00E08091ED03E1
:102EC000181760F4812F0E9453178C179D0710F07C
:102ED000CE0101C0012F1F5FEC01F0CF802FDF91E9
:102EE000CF911F910F910895CF93DF939091EB03B2
:102EF000911104C0DF91CF910C9453179091C903A5
:102F0000C82FD0E0992391F00E945317CC0FDD1FFA
:102F1000FE01E653FC4FC652DC4F208131814881CF
:102F20005981241B350B280F391F07C0FE01EE0FF6
:102F3000FF1FE653FC4F20813181C901DF91CF9102
:102F40000895EF92FF920F931F93CF93DF93C0E00A
:102F5000D0E0E12CF12C0FEF1FEF8091ED0390E01A
:102F6000C817D9076CF48C2F0E947417E816F9065D
:102F700008F47C018017910708F48C012196EDCFAD
:102F8000E01AF10A81E020919A0330919B032E15FB
:102F90003F0508F080E0DF91CF911F910F91FF90E6
:102FA000EF900895CF93C82F8091EB03882341F0D1
:102FB000C11106C00E948D0A9093C6038093C50379
:102FC000C093EB030E94930B8091EA03811104C02C
:102FD0008C2FCF910C94A305CF910895EF92FF927F
:102FE0000F931F93CF93DF9381E00E94EA0588E15E
:102FF0000E94750A8093ED030AED13E03AECE32E8C
:1030000033E0F32EC0E0D0E08091ED0390E0C817EC
:10301000D9076CF48C2F0E945317F8018193919378
:103020008F01F701819391937F012196EDCF10924B
:10303000EB031092EA0380E00E94D2171092C603BD
:103040001092C5038FEF8093EC03DF91CF911F9116
:103050000F91FF90EF90089580E00E94D21781E0D9
:103060008093EA0308950E942C1880E00C94EA05EE
:10307000FF920F931F93CF93DF938091EC0387FD13
:1030800017C00E947417EC0110E0FF24F39400E0D5
:103090008091ED03181750F4812F0E947417C81700
:1030A000D90708F40F29FF0C1F5FF2CF802F01C052
:1030B00080E0DF91CF911F910F91FF9008951F93B2
:1030C000CF93DF93EC0110E08091ED03181748F4E3
:1030D00081E2810F0E949C0A8C179D0720F01F5FE0
:1030E000F3CF81E001C080E0DF91CF911F9108957F
:1030F0009F92AF92BF92CF92DF92EF92FF920F9387
:103100001F93CF93DF9386E090E00E945F1888239F
:1031100009F464C00E94310B882309F45FC08091D8
:10312000EC0387FF04C00E9456178093EC03809144
:10313000EC030E9453176C0162E08AEA93E00E945C
:10314000E2135C014AECE42E43E0F42E0AED13E0B6
:10315000C0E0D0E0992493948091ED0390E0C817EB
:10316000D907B4F48C2F0E9453178A159B0570F071
:10317000C816D90608F4912CF701819391937F0129
:10318000F801819391938F012196E6CF992493942E
:103190001092C9030E946A369093C8038093C703B4
:1031A000992069F0DF91CF911F910F91FF90EF90DF
:1031B000DF90CF90BF90AF909F900C942C180E94FE
:1031C0003818DF91CF911F910F91FF90EF90DF9012
:1031D000CF90BF90AF909F900C94D217DF91CF917A
:1031E0001F910F91FF90EF90DF90CF90BF90AF9025
:1031F0009F900895CF938091C903811115C081E0FC
:103200008093C903C0E08091ED03C81768F48C2F48
:103210000E945317EC2FF0E0EE0FFF1FE652FC4F19
:1032200091838083CF5FEFCFCF9108950E946A365C
:103230002091C7033091C803821B930B089580919E
:10324000EB03811103C00E94781809C00E94FA188C
:103250000E941619409718F080E00E94D2170E9431
:103260003A17882311F082E008958091EA038823B9
:10327000D1F381E008951F93CF93DF93EC0110E029
:103280008091ED03181740F4812F0E9474178C175A
:103290009D0720F41F5FF4CF80E001C081E0DF9143
:1032A000CF911F9108951F93CF93DF93EC0110E00E
:1032B0008091ED03181740F4812F0E947417C817EE
:1032C000D90720F41F5FF4CF80E001C081E0DF91D7
:1032D000CF911F9108956091ED03662329F070E06E
:1032E0000E940E3ECB01089580E090E008950E9478
:1032F0001B2261E081E00E949F1981E00E94781FFB
:103300008091F0039091F1030C94E62181E00C94FC
:1033100031220E94310B882321F00E94B8210C94A5
:103320001320089520918C0330918D038217930709
:1033300008F4C9019093F1038093F0030895CF93AB
:10334000C62F882349F0682F8AEA93E00E94201450
:103350009093F5038093F403CC2329F08091AE037E
:103360009091AF0304C08091B0039091B10390930A
:10337000F3038093F2036091EF0370E08091F20316
:103380009091F3030E940E3ECB01CF910C949219C1
:103390008091F7039091F8030C94B2128091F70397
:1033A0009091F80302960C94B2120E94CE190E94DA
:1033B000B01D0C943F37CF93DF930E946A36EC0127
:1033C0000E946A368C1B9D0B853B910510F00E9474
:1033D000C40B0E94CD36882399F388E0DF91CF910A
:1033E0000C944035CF93DF930E94D5190E946A3622
:1033F000EC0185E00E9440350E94C40B93980E9426
:10340000E0300E94B81381110FC00E9428320E9440
:10341000B813811109C00E946A368C1B9D0B853B35
:10342000910568F3939AEBCF88E00E94403580E0E5
:10343000DF91CF910C94900D0E94D5190E94C40B7E
:103440000E94E43086E00E9440350C94DB19E09144
:10345000F703F091F803349685919491FC01099457
:10346000811103C00E941C1A0BC0813039F4809175
:10347000F603811105C00E94F21902C081E008958F
:1034800080E008950F931F93CF93DF931092B904B8
:103490000E94C81902E0C0E0D0E011E00E94CD36E1
:1034A0008093B9040E940931112379F00E94F01D24
:1034B000082F0E94301A182F882339F00E948D0A95
:1034C000C817D90791F4111107C08091F60388231A
:1034D00011F0011114C010E08091B9048130F1F6AF
:1034E0000E949E368823D1F20AC00E948D0AEC0108
:1034F0000E94271A082F0E94301A182FE4CF0E942A
:10350000CE19802FDF91CF911F910F91089581E007
:103510000E94681B0C9433180E945A1B0E94EE17DD
:1035200021E08091960390919703892B09F420E084
:103530002093F90380E00C94781F1F93CF93DF93BF
:10354000C091F403D091F503CE010E946B190E9443
:103550005319182F0E943A17811109C0111107C081
:103560000E94220B11E0C817D90708F410E0812F40
:10357000DF91CF911F9108951F93CF93DF930E9406
:103580009D1A182F0E94F51AEC018091F9038823E7
:1035900029F0BE01812F0E94C21F01C0812F882304
:1035A00029F081E00E94681B81E007C0BE01812FE5
:1035B0000E94E1200E943B1B82E0DF91CF911F918E
:1035C000089581E09091FE03911180E0089581E0DB
:1035D0002091FC033091FD03232B09F480E0089532
:1035E0008091FC039091FD0308958091FA039091DE
:1035F000FB030895CF93DF931F92CDB7DEB74091C1
:10360000720350917303BA017250CE0101960E9469
:10361000C212898181111BC00E94270B009711F4EF
:1036200081E090E09C0140E050E060E478E78DE7C5
:1036300091E00E94223E293883E138074105510577
:1036400020F028E833E140E050E0C90102C080E00A
:1036500090E00F90DF91CF910895813020E892079C
:1036600010F080E090E89093FD038093FC030E94AB
:103670009F050C949C0BCF93DF93EC010E94FA1AE8
:10368000BC01C817D90708F4BE018091FA039091D4
:10369000FB038617970759F07093FB036093FA03B7
:1036A00082E10E94460CDF91CF910C942D1BDF919B
:1036B000CF9108958091FE03882349F080E090E047
:1036C0000E942D1B81E00E9489051092FE0308953F
:1036D000CF93C82F8091FE0381110BC0CC2349F0FA
:1036E00080E090E00E942D1B80E00E948905C0933D
:1036F000FE03CF91089580E090E00E942D1B81E0B1
:103700000C94681B87E08093BF0482E08093C00420
:103710000E94393583E08093FF0308950F931F9330
:10372000CF93DF938091EE03882379F00E94DF0C22
:103730009091B20301E0981301C000E011E0811103
:1037400010E0913021F4112311F010E000E00E940C
:10375000180B882309F45CC085E10E94750AEC010E
:1037600084E10E94750AC817D90728F49C012C1B14
:103770003D0BE90102C0C81BD90BC53FD14008F47D
:1037800047C0C1E0011102C087E001C083E080931F
:10379000BF04112329F08091BF0482508093BF049D
:1037A000CC2329F08091BF0481508093BF04011184
:1037B00004C0111102C0CC2331F081E00E944035D9
:1037C000111107C004C088E00E94403508C00023E2
:1037D00031F08091980390919903892B11F4D0E0F6
:1037E00001C0D1E00E94A136811102C01092FF03F6
:1037F000D11106C0C11104C00E94A136883051F019
:103800008091FF03823011F481E00AC082E008C099
:10381000C0E0B8CF8091FF038F5F8093FF03F0CFAC
:10382000DF91CF911F910F9108958FEF8093BF0487
:1038300088E00C9440351092040408950E946A3682
:10384000909303048093020408950E946A362091A5
:10385000020430910304821B930B209100043091E9
:1038600001042817390728F081E08093040482E0DE
:1038700008951092040481E008958091040408954D
:103880002CE3AC01249FC001259F900D112490933F
:1038900001048093000408950E94EE170E941B22E9
:1038A00081E00C94781F81E00E9431220C9433183F
:1038B0001F93CF93DF93C091F403D091F503CE0112
:1038C0000E946B190E943B19182F0E943A17811110
:1038D00009C0111107C00E94220B11E08C179D072F
:1038E00008F410E0812FDF91CF911F9108951F936D
:1038F000CF93DF930E94581C182F0E94B821EC012F
:10390000BC01812F0E94C21F882329F081E00E9400
:10391000312281E007C0BE01812F0E94E1200E9478
:10392000E62182E0DF91CF911F91089580911304E9
:103930009091140420911604222341F00E946A36CB
:103940002091130430911404821B930B089560910D
:103950000F0470911004809111049091120428EECC
:1039600033E040E050E00E94223EC901089560919A
:103970000B0470910C0480910D0490910E0428EEBC
:1039800033E040E050E00E94223EC90108950F93C9
:103990001F93CF93DF9361E08AEA93E00E942014A3
:1039A0008C0164E08AEA93E00E942014EC0186E135
:1039B0000E94750A80179107B8F4C817D907B0F4A8
:1039C0009C012C1B3D0BC8018C1B9D0B64E670E019
:1039D0000E940E3EC9010E940E3E6436710510F031
:1039E00063E670E0862F03C083E601C080E0DF91CC
:1039F000CF911F910F910895CF93DF930E94C71C21
:103A0000909115049817E0F4809315040E94961C79
:103A10002091180430911904EC01C21BD30B0E94B1
:103A2000961C909319048093180480911A04909125
:103A30001B048C179D0720F4D0931B04C0931A0419
:103A4000DF91CF9108950E94FC1C80911704882378
:103A500011F089E601C084E690E020911504821BF4
:103A6000910920911A0430911B04AC01429FC001BE
:103A7000439F900D529F900D1124089585E00E9460
:103A80007E0ABC0185E00E94E20B20917003309118
:103A90007103A90152508417950710F480E004C007
:103AA0002817390718F481E00C94760508950E94D0
:103AB000C71C8093150410921904109218041092D8
:103AC0001B0410921A0410920F041092100410920A
:103AD00011041092120410920B0410920C04109214
:103AE0000D0410920E04089568E572E080E00E94D3
:103AF000460C90930A048093090461E08AEA93E0FB
:103B00000E942014BC016854744F6D3C2DE872076C
:103B100010F06CEC7DE880E00E94460C813C2FEFB9
:103B2000920710F080EC9FEF9093080480930704B5
:103B30000E94180B809317048AEA93E00E94E9140C
:103B400090930604809305040E946A3690931404AF
:103B5000809313040E94571D81E0809316040895FA
:103B60000E94961C909314048093130410921604E0
:103B700008950E94AA2181111DC00E94E71A811197
:103B800019C00E943A17882351F180910F04909137
:103B90001004A0911104B091120480599F4FAF4FAF
:103BA000BF4F80930F0490931004A0931104B0931F
:103BB0001204089580910B0490910C04A0910D04BF
:103BC000B0910E0480599F4FAF4FBF4F80930B04AD
:103BD00090930C04A0930D04B0930E04D2CF0895DB
:103BE000CF93DF9380911604811102C082E0E1C07F
:103BF00085E00E94750A20917203309173033E5F45
:103C00002817390718F48BE09AE0CEC080E00E94B4
:103C10007E0A20910704309108048217930758F414
:103C20002091090430910A0482179307C8F40E9476
:103C3000E11A8823A9F08AEA93E00E94C91382302E
:103C400009F093C08091B2039091B303029709F0F9
:103C50008CC00E94180B811188C08BE19AE07FC054
:103C6000C09117040E94180BC81719F08CEF99E047
:103C70009BC0C091F203D091F303C851DC4F0E9466
:103C80002C0BC817D90718F481EF99E08DC086E096
:103C90000E94750A20919003309191038217930737
:103CA00018F482EE99E080C08BE10E94750AC09101
:103CB0000504D0910604C83E2DEFD207F9F08C1709
:103CC0009D07E0F08AEA93E00E94E914C817D9073B
:103CD00009F04EC08AEA93E00E94C913811162C0C4
:103CE0008091AC039091AD036091AE037091AF03EE
:103CF0000E940E3E6A307105D8F554C0C091B403DD
:103D0000D091B503C83E83E0D807A0F460910B04BE
:103D100070910C0480910D0490910E0420E63AEE0F
:103D200040E050E00E94223E2C173D0718F087EC3F
:103D300099E015C08091740390917503892B09F463
:103D400055CF87E00E94750A209176033091770362
:103D50002817390708F04ACF87EB99E025C09093E0
:103D60006B0380936A0381E024C08BE19AE01CC05E
:103D7000C0910504D09106048AEA93E00E94E914F8
:103D80008C179D0730F482ED99E090936B0380933C
:103D90006A038AEA93E00E94E914909306048093F0
:103DA0000504E1CF82ED99E090936B0380936A0361
:103DB00080E0DF91CF9108950E94531C0E94871AE2
:103DC0000C943318CF93DF931F92CDB7DEB7809159
:103DD0001C04882329F0813031F40E94BC1A0CC0E5
:103DE0000E94771C09C00E941F19823089F08983C4
:103DF0000E94DC1E89810CC0813051F49091EE0349
:103E0000992331F082E080931C040E94EE1782E037
:103E10000F90DF91CF910895CF93DF930E94EE171B
:103E200061E083E00E949F19C091F403D091F503F3
:103E30008091ED03811106C00E94220BC817D9079B
:103E400040F40CC0CE010E946B190E9453198823C4
:103E500029F00E944C1C10921C040BC060E083E00F
:103E60000E949F190E948C1A81E08093F90380932D
:103E70001C04DF91CF91089580911D04813029F4B5
:103E80008091F0039091F103089580E090E008950F
:103E90002CE0829FC0011124875D9B4F0C945B2214
:103EA00089E894E00C945B22CF93DF9300D000D09C
:103EB000CDB7DEB784E10E94750A9A83898386E1D3
:103EC0000E94750A29813A81281B390B3A8329837C
:103ED00089E10E94750A9C838B83CE0101960E9422
:103EE0005B220F900F900F900F90DF91CF9108956C
:103EF000EF92FF920F931F93CF93DF93F82E81E001
:103F000080931D040E94220BBC012091F00330918C
:103F1000F1034091F4035091F5030F2D81E894E0F3
:103F20000E9476228091F4039091F5030E946B1910
:103F3000EC0110E08CE0E82E8091ED03181798F466
:103F4000812F0E947417BC012091F0033091F1037E
:103F5000E19EC00111240F2DAE018F5D9B4F0E9489
:103F600076221F5FE9CF10928F04109220041092E6
:103F70008E0410928D04DF91CF911F910F91FF90CD
:103F8000EF9008951F93CF93DF93182FEB0180914B
:103F9000EE03882361F1112349F080918F04811190
:103FA00005C00E942C1881E080938F0480918F04BB
:103FB000882311F08530D9F42091F0033091F1037A
:103FC000203A310510F420EA30E02C173D0710F4B8
:103FD0001092EA030E941F1980931D048130F1F4AE
:103FE0000E94A117882319F08FEF8093EC030E94A1
:103FF0003C1F8C179D0780F0112371F080918F0476
:10400000853051F49091200481E0890F8093200441
:1040100081E09A3020F402C01092200480E0DF9109
:10402000CF911F9108950F931F93CF93DF93EC01CE
:104030000E94220BAE01BC0181E894E00E942F2374
:1040400010E00CE08091ED03181770F4812F0E94AE
:104050007417BC01019FC0011124AE018F5D9B4FFD
:104060000E942F231F5FEECFDF91CF911F910F9101
:104070000895CF92DF92EF92FF920F931F93CF9309
:10408000DF936091F4037091F50381E894E00E945E
:104090009B228C018091F4039091F5030E946B198F
:1040A0007C01D12C9CE0C92E8091ED03D81698F4A8
:1040B000CD9CE0011124CF5DDB4FB701CE010E9402
:1040C0009B220817190728F0B701CE010E949B22F6
:1040D0008C01D394E9CFC801DF91CF911F910F914B
:1040E000FF90EF90DF90CF9008950F931F93CF93A1
:1040F000DF93EB012091F2033091F3038C01281739
:10410000390708F489010E943C1F9C018017910720
:1041100008F49801C217D307E1F040918F044530AD
:10412000D1F42C173D07B8F082179307A0F48091C3
:10413000F0039091F1038C179D0758F040911E04F5
:1041400050911F048091C5039091C60348175907E9
:1041500011F4CE0109C08091C5039091C6039093DC
:104160001F0480931E04C901DF91CF911F910F910D
:1041700008950F931F93CF93DF93EC010E94220BBE
:104180009093820480938104D0938404C093830429
:1041900010E00CE08091ED03181770F4812F0E945D
:1041A0007417019FF0011124EF5DFB4F9183808311
:1041B000D383C2831F5FEECFDF91CF911F910F9109
:1041C00008951F93CF93DF93182FEB010E94310BBB
:1041D000811108C01123E1F120918D0430918E04EA
:1041E000232BB1F10E943A17811132C0CE010E94F7
:1041F0001320CE010E94B9200E9439208C179D0700
:1042000008F048C09C012C0F3D1F36952795309330
:104210008E0420938D04BE0180918D0490918E04B4
:104220000E94752090938E0480938D0490918F044A
:10423000923009F1A8F49923C1F0913039F5112396
:1042400039F083E080938F0410928E0410928D04D5
:1042500080918D0490918E04DF91CF911F910895EC
:10426000933061F0943081F011C0112389F30E94E2
:104270002C1881E00CC010928F04EACF10928E04AB
:1042800010928D0484E003C0112311F385E0809324
:104290008F04DECF90938E0480938D04BCCF0C945A
:1042A0007719CF93DF930E9489190E94220BEC01AA
:1042B00062E08AEA93E00E9420148C179D0730F494
:1042C0008091F2039091F3030E94E6218091F40320
:1042D0009091F5038C179D0718F48AE597E02AC0A2
:1042E0000E94970A029760F180917A0390917B0374
:1042F000892B71F08DE10E94750AEC018AEA93E046
:104300000E940415C817D9071CF486E597E012C06F
:104310008091740390917503892B91F08FE10E9435
:10432000750A20917803309179032817390744F4EE
:1043300080E597E090936B0380936A0381E001C06E
:1043400082E0DF91CF91089581E0909194049111E2
:1043500080E0089581E02091920430919304232B12
:1043600009F480E008958091920490919304089557
:10437000809190049091910408950E94270B0097DA
:1043800011F481E090E09C0140E050E060E871EDC4
:1043900080EF98E00E94223E29358BE138074105E5
:1043A000510520F028E53BE140E050E0C9010895C7
:1043B000813020E8920710F080E090E89093930419
:1043C000809392040E949B050C949C0BCF93DF93E7
:1043D000EC010E94BD21BC01C817D90708F4BE0139
:1043E00080919004909191046817790750F49C0192
:1043F000261B370B2D38310568F0BC016C5871094C
:1044000009C09B01281B390B2D38310518F0BC0160
:1044100064577F4F8617970759F070939104609304
:10442000900481E10E94460CDF91CF910C94D82139
:10443000DF91CF91089580919404882389F01092A0
:10444000930410929204109291041092900480E0D0
:1044500090E00E94D82181E00E948305109294048C
:104460000895CF93C82F80919404811113C0CC2359
:1044700089F080E090E00E94D8211092930410927D
:104480009204109291041092900480E00E9483059F
:10449000C0939404CF9108951092930410929204C3
:1044A000109291041092900480E090E00E94D82134
:1044B00081E00C943122FC01428153814115510568
:1044C00091F0A081B181B7FF03C0B195A195B10969
:1044D00028EE33E00E94E03D9A0140E050E00E9467
:1044E000223EC901089580E090E008950F93FC01F9
:1044F000CB01002341F04617570708F4CA0164179F
:10450000750748F407C06417750708F4CA01461711
:10451000570708F4BA0197838683918380831382B7
:1045200012821582148233872287681B790B718768
:1045300060870F910895FC0186819781A285B385DC
:104540000084F185E02D3097D1F09B0140E050E0F0
:10455000281B390B410951090E94E73D9F0144275F
:1045600037FD4095542F0E94443E2115310581E0CE
:104570004807510524F457FD05C0C90108958FEF80
:104580009FEF089580E090E00895DF92EF92FF9210
:104590000F931F93CF93DF93EC012A813B81241764
:1045A000350720F4FA01E21BF30B03C0F901E41B09
:1045B000F50B8C819D81969587958E179F0710F539
:1045C000E880F9802417350740F48A01021B130B99
:1045D000CB018E199F097C0105C0E61AF70A8901F3
:1045E000041B150BC7010E94F012D82E88859985EF
:1045F0000E94F012D81206C01D830C83F986E8864B
:104600001B870A87DF91CF911F910F91FF90EF9049
:10461000DF9008950F931F93CF93DF93EC018B01ED
:104620009A01A885B9850E94E03D2A853B8540E036
:1046300050E00E94443EC801A0E0B0E0821793071A
:10464000A407B5071CF41F821E8204C0021B130BB3
:104650001F830E83DF91CF911F910F910895EF92E9
:10466000FF920F931F93CF93DF93EC018B017A019D
:104670000E94C522A701B801CE01DF91CF911F9101
:104680000F91FF90EF900C940A230F931F93CF93F9
:10469000DF938C01443019F0CFEFDFEF02C0C1E0AF
:1046A000D0E00E94A336D8011B96EC91F0E0EE0F0B
:1046B000FF1FED58FD4F9C01C29FC001C39F900D8D
:1046C000D29F900D112420813181820F931F9183FD
:1046D0008083DF91CF911F910F910895EF92FF9208
:1046E0000F931F93CF93DF931F92CDB7DEB78C014B
:1046F000443021F0EE24EA94FE2C03C0EE24E3942F
:10470000F12C69830E94A336D8011B96ED91FC9190
:104710001C976981E60FF11DE491F0E0EE0FFF1F99
:10472000ED58FD4FE89E9001E99E300DF89E300D4A
:10473000112480819181820F931F918380830F9038
:10474000DF91CF911F910F91FF90EF900895CF933C
:10475000DF93EC010E941F35882311F0888101C08E
:104760008FEFDF91CF910895CF93DF9300D000D0EA
:10477000CDB7DEB780E00E946C0A9A83898381E01E
:104780000E946C0A29813A81281B390B3A832983BC
:1047900085E10E94750A9C838B83AE014F5F5F4F5A
:1047A00061E080E00E94C20AAE014F5F5F4F61E0AE
:1047B00081E00E94C20A0F900F900F900F90DF913E
:1047C000CF910895CF93DF93D82F64E377E088E407
:1047D00097E00E94B530C0E084E10E94B50C8823C8
:1047E00099F081E20E94B50C8D17A1F0C1110CC0A7
:1047F00066E277E0DD2319F088E497E002C08DE3FC
:1048000097E00E94B530C1E00E94CD36813021F79B
:1048100080E001C081E0DF91CF910895CF93DF93D5
:1048200000D000D0CDB7DEB7862F5A8349833C83B2
:104830002B83AE014F5F5F4F61E00E94C20A0F9071
:104840000F900F900F90DF91CF910895FF920F93EB
:104850001F93CF93DF93F82E162F042F83E00E942F
:104860004035812F0E94750AEC01802F0E946C0A4E
:10487000AC019E01602F812F0E940E2481E0809365
:1048800060030E94AD0BFF2039F0DF91CF911F91A3
:104890000F91FF900C94B423DF91CF911F910F9152
:1048A000FF900895EF92FF920F931F93CF93DF93A2
:1048B000CDB7DEB72E970FB6F894DEBF0FBECDBFD3
:1048C00081E00E94E223882309F441C062EB73E097
:1048D000CE0101960E94382F8FEF8A8786E990E0FB
:1048E0009A83898387EA93E09D878C8789E08E8706
:1048F00061E0CE0101960E94A529F82E87FD27C010
:10490000082F112707FD1095F801E955FC4FE49099
:1049100088E08F156CF38E2D0E94B50C882341F32F
:104920000E94AD0B109260036F2DCE0101960E9484
:104930000328882341F0F801E256FC4F44916E2D84
:1049400081E00E94262481E080936003D1CF2E96DF
:104950000FB6F894DEBF0FBECDBFDF91CF911F9190
:104960000F91FF90EF9008950F931F93CF93DF93D4
:10497000CDB7DEB72E970FB6F894DEBF0FBECDBF12
:104980001092670062E773E0CE0101960E94382F13
:104990008FEF8A8786E990E09A83898380E793E0A6
:1049A0009D878C8787E08E8761E0CE0101960E940B
:1049B000A529082F87FD20C0E82FFF27E7FDF095E8
:1049C000E059FC4F1491812F0E94B50C882361F3AC
:1049D0000E94AD0B10926003602FCE0101960E94E1
:1049E0000328882329F0412F612F80E00E9426248C
:1049F00081E080936003D8CF81E0809367002E969A
:104A00000FB6F894DEBF0FBECDBFDF91CF911F91DF
:104A10000F910895813119F4CB010C94D821CB0169
:104A20000C942D1BEF92FF920F931F93CF93DF9364
:104A3000EC01443019F00FEF1FEF02C001E010E06D
:104A40000E94A336089F7001099FF00C189FF00C7C
:104A500011240E94A3362F8538898C0141E050E053
:104A6000B701CE010D960E9422136D857E858B8540
:104A7000DF91CF911F910F91FF90EF900C940A2539
:104A8000CF92DF92EF92FF920F931F93CF93DF931A
:104A9000CDB7DEB765970FB6F894DEBF0FBECDBFBA
:104AA000C82ED62E8A0180E00E94E223882309F4D2
:104AB00069C0CC2039F00E941B22E2E0EE2EF1E129
:104AC000FF2E06C00E945A1B63E0E62E72E1F72E0D
:104AD00064E873E0CE0101960E94382F8FEF8A8739
:104AE0002EE930E03A832983FC86DD8620E030E839
:104AF000398B288B4D856C85CE0142960E94A50A84
:104B00002A893B893F872E8761E0CE0101960E946A
:104B1000A52987FD2FC08111EDCF6E857F858F2D53
:104B20000E940A2560E0CE0101960E940328882396
:104B3000D9F00E94AD0B1D8B0C8B2E853F853B8BD6
:104B40002A8BAE014E5E5F4F6D2D8F2D0E94C20AE3
:104B50008E2D0E946C0A9B8B8A8BAE014E5E5F4F3E
:104B60006D2D8E2D0E94C20A60E070E08F2D0E9494
:104B70000A25C0CF81E0CC2019F00E94312202C06A
:104B80000E94681B65960FB6F894DEBF0FBECDBFBE
:104B9000DF91CF911F910F91FF90EF90DF90CF9019
:104BA0000895EF92FF920F931F93CF93DF93CDB7AA
:104BB000DEB729970FB6F894DEBF0FBECDBF8C01CC
:104BC0007B01BC01CE0101960E94382F60E0CE012E
:104BD00001960E94A529682F87FD10C0E82FEE0FCF
:104BE000FF0BEE0DFF1D4591549181E093E00839D4
:104BF000190709F080E00E944025E8CF29960FB6FA
:104C0000F894DEBF0FBECDBFDF91CF911F910F9102
:104C1000FF90EF9008951F93CF93DF9300D000D0C3
:104C20001F92CDB7DEB7182F6D830E946C0A9A834E
:104C30008983812F0E94750A9C838B83AE014F5F0D
:104C40005F4F6D81812F0E94C20A0F900F900F90CD
:104C50000F900F90DF91CF911F9108950F931F93A5
:104C6000CF93DF93CDB7DEB72C970FB6F894DEBFA6
:104C70000FBECDBF182F062F68E773E0CE01019657
:104C80000E94382F8FEF8A8726EA30E03A83298303
:104C90001C8761E0CE0101960E94A52987FD13C003
:104CA0008111F7CF1092600360E0CE0101960E945F
:104CB0000328882321F0602F812F0E940B2681E09A
:104CC00080936003E6CF2C960FB6F894DEBF0FBE3C
:104CD000CDBFDF91CF911F910F9108951F93CF9377
:104CE000DF93CDB7DEB729970FB6F894DEBF0FBEBE
:104CF000CDBF182F6EE773E0CE0101960E94382FCA
:104D000060E0CE0101960E94A529682F87FD04C0AE
:104D1000812F0E942E26F4CF29960FB6F894DEBF7D
:104D20000FBECDBFDF91CF911F9108951F93CF93F9
:104D3000DF93CDB7DEB729970FB6F894DEBF0FBE6D
:104D4000CDBF6AEC73E0CE0101960E94382F60E07F
:104D5000CE0101960E94A529182F87FD30C00E9420
:104D60004D3C81E00E94900D1230A9F04CF41123CB
:104D700079F01130E1F46EE873E088E993E00FC058
:104D8000143091F07CF0153091F40E94B4240FC0DF
:104D90000E9452240CC06AE873E082E993E00E940A
:104DA000D12505C087E001C085E00E946E2681E024
:104DB0000E94FA100E94C40B0E945D3CC8CF109262
:104DC0006C0329960FB6F894DEBF0FBECDBFDF91FE
:104DD000CF911F910895CF93DF93EC01842F0E9410
:104DE000E20B9E0136952795A9014C0F5D1F841794
:104DF000950730F4C21BD30B21E0C817D90708F080
:104E000020E0822FDF91CF91089568EE73E080E07B
:104E10000E94460C24E2289FB001299F700D1124A6
:104E200040E08CEC9DE80C94EB26CF93DF931F922F
:104E3000CDB7DEB7482F68EE73E049830E94460C79
:104E400027E0289FB001299F700D1124498188E532
:104E50009BE10F90DF91CF910C94EB26CF93DF93E2
:104E60001F92CDB7DEB7482F64E670E049830E94F9
:104E7000460CBC01660F771F680F791F49818CE2D1
:104E800091E00F90DF91CF910C94EB26CF930E948D
:104E90008311C82F882341F10E940527C82F811153
:104EA00005C08EE197E00E94B5311EC081E10E94ED
:104EB0001527882329F082E00E941527811106C05A
:104EC00085E197E00E94B531C0E00EC082E10E940A
:104ED0002E27882331F083E00E942E27C82F8111CE
:104EE00003C089E097E0EECF8C2FCF9108950C940A
:104EF00046271F93CF93DF93EC01162F0E94332F89
:104F0000CE0109960E94A723992787FD9095612FCE
:104F100070E08617970759F0EB85FC85E60FF71FC1
:104F200084916D85DF91CF911F910C94EF0CDF91EF
:104F3000CF911F9108951F93CF93DF93EC01162F0C
:104F400084E10E94B50C81110FC064E377E088E42E
:104F500097E00E94B5308B85823141F581E0DF9189
:104F6000CF911F910C94681B612FCE010E94332FAB
:104F7000CE0109960E94A723992787FD9095212F9E
:104F800030E08217930791F0111108C065E08D851C
:104F90009E85DF91CF911F910C94373A0E942C0B84
:104FA00067E0DF91CF911F910C949C3ADF91CF91F4
:104FB0001F9108951F93CF93DF93EC01162F0E944A
:104FC000332FCE0109960E94A723992787FD90953C
:104FD000212F30E08217930791F0111107C067E08D
:104FE0008B85DF91CF911F910C94EF0C8B850E94E4
:104FF0006C0A67E0DF91CF911F910C94373ADF91F3
:10500000CF911F910895DF92EF92FF920F931F931C
:10501000CF93DF93EC01F62E69871A8681E08D83AA
:1050200082E0D82EEE24E3948E01075F1F4F0E948A
:10503000CD36482F823011F0843061F4E881F98157
:105040000280F381E02D6F2DCE010995F986DA8675
:10505000ED8204C0813089F0883079F0C8010E9467
:105060002A358111ED828D81882319F0CE010E94AD
:1050700050298A858F5F8A87DACF8FEF898781E011
:105080008E838D83483009F080E0DF91CF911F91AE
:105090000F91FF90EF90DF900895CF93DF93EC0195
:1050A0000E9437378B819C810E9454380E943B3785
:1050B0006A8188819981DF91CF910C940938FC0134
:1050C00087818F3118F48F5F8783089586818F5F82
:1050D00086830895FC018781882319F08150878396
:1050E000089586818150868308950F931F93CF93EF
:1050F000DF93FC01C681D0E06D2F80E00E94313744
:1051000010E11C0F01E00C0F8C2F0E94EB370117F0
:1051100011F0C02FF7CFDF5FD23011F0C12FECCFED
:10512000DF91CF911F910F9108951F93CF93DF933C
:10513000EC018CEC90E00E947B3B1FEF8E811817F6
:1051400021F0CE010E9475281E818F81682F70E0AA
:1051500094E0759567959A95E1F78F700E943137C5
:105160000E94CD36823049F0843019F0813049F404
:1051700013C0CE010E945F28E1CFCE010E946A28B1
:10518000DDCF8830D9F68D81E881F981E80FF11DF6
:105190008F819E81890F8083DF91CF911F91089528
:1051A000FC0171836083428334832383158280E210
:1051B000868317820895CF93DF93EC018CEC90E007
:1051C0000E947B3B0E943F37CE010E944D2861E048
:1051D0008D810E9431370E94CD368230B1F084300B
:1051E00041F08130C1F48CEC90E00E94743B80E08F
:1051F00026C04D81242F30E08A8190E00197281746
:1052000039072CF74F5F4D83E2CF8D818823F9F268
:1052100081508D83DCCF8830D1F682E00E94203728
:10522000823048F083E00E9440358CEC90E00E9490
:10523000743B81E004C0CE010E949528C3CFDF916A
:10524000CF9108950895FC018EEA90E091838083C8
:1052500012821382648381E0858386830895FC0132
:105260002281211103C081E082830895438130E0CF
:10527000240F311D848190E001972817390714F419
:105280004F5F43830895FC018281882319F0815088
:10529000828308958381882311F081508383089548
:1052A0001F93CF93DF93EC0110E0612F80E00E9409
:1052B00031378A81181302C08EE301C080E20E9458
:1052C000EB37E881F9816B81610F0190F081E02D6E
:1052D000CE0109950E9406381F5F123031F71D82FA
:1052E000DF91CF911F9108950F931F93CF93DF9379
:1052F000EC010E94CD36182F0E94133C882321F028
:1053000081E08D838FE71CC00B818A81080F1230EA
:1053100031F0143039F4CE010E942F2903C0CE01A0
:105320000E9443298B819A81890F081711F081E02F
:105330008D838D81882319F0CE010E945029812F01
:10534000DF91CF911F910F910895EF92FF921F93DC
:10535000CF93DF931F92CDB7DEB77C0181E0F701D9
:10536000858311E0C70169830E94742969818111D5
:1053700002C0F7011682F7019681911108C08830AA
:1053800031F481E0868383819281890F09C066238D
:1053900011F0F7011583813029F79111E3CF8FEFD9
:1053A0000F90DF91CF911F91FF90EF900895CF93D1
:1053B000DF93CDB7DEB729970FB6F894DEBF0FBEE7
:1053C000CDBF68ED73E0CE0101960E94382F60E0FA
:1053D000CE0101960E94A529813049F0823051F01A
:1053E00081110BC08EE693E00E948212F0CF0E94E2
:1053F0009626EDCF0E948B11EACF87FFE8CF299642
:105400000FB6F894DEBF0FBECDBFDF91CF910895E8
:10541000262F443019F06FEF7FEF02C061E070E09B
:10542000223091F028F4222349F0213051F00895E0
:10543000243081F060F0253081F008950B960C94B3
:10544000AA150B960C944B160B960C9478160B968B
:105450000C949D160B960C94A8160B960C94ED16B6
:10546000EF92FF920F931F93CF93DF93EC018B0189
:105470007A0160EE73E00E94382F8FEF898784EB0A
:1054800090E0998388838AE1F801DE011B96019000
:105490000D928A95E1F7FEA2EDA2DF91CF911F91C7
:1054A0000F91FF90EF9008950F931F93CF93DF9389
:1054B000CDB7DEB728970FB6F894DEBF0FBECDBFCD
:1054C0008C01BC01695E7F4F2BEA37E04EE050E073
:1054D000CE0101960E94D028CE0101960E94DB28C1
:1054E00081E0F801858328960FB6F894DEBF0FBEE1
:1054F000CDBFDF91CF911F910F910895CF93DF938F
:10550000EC010E943F370E94373785EA97E00E94FE
:1055100054380E943B376EE0CE0147960E9409380E
:105520000E94AF1383E0DF91CF910C944035CF936D
:10553000DF93EC016DA17EA16F5F7F4F0B960E9400
:105540005B14CE01DF91CF910C947E2ACF93DF9331
:10555000EC016DA17EA16F5F7F4F0B960E94B4148A
:10556000CE01DF91CF910C947E2ADF92EF92FF92D1
:105570000F931F93CF93DF93CDB7DEB76A970FB624
:10558000F894DEBF0FBECDBF8C018AE1D82EC801D2
:105590000B967C0160E0C8010E94A52987FD30C000
:1055A000873041F0883051F0863061F4C8010E94A4
:1055B000972AF0CFC8010E94542AECCFC8010E945C
:1055C000A62AE8CFF701DE0111969D2D01900D92DC
:1055D0009A95E1F7682FC8010E940328811109C03C
:1055E000FE013196D7018D2D01900D928A95E1F73C
:1055F000D1CF83E00E944035C7010E94FA15CACF7F
:105600006A960FB6F894DEBF0FBECDBFDF91CF9183
:105610001F910F91FF90EF90DF9008951F93CF930C
:10562000DF93EC01162F0E94332FCE0109960E94C2
:105630001F35882311F0298501C02FEF332727FD5F
:105640003095812F90E028173907B1F11230F9F029
:1056500058F41123A9F0113079F5CE010B96DF91A2
:10566000CF911F910C943A151430F9F0B8F0153021
:1056700019F5CE010B96DF91CF911F910C94DC169A
:10568000CE010B96DF91CF911F910C943415CE0172
:105690000B96DF91CF911F910C946815CE010B965C
:1056A000DF91CF911F910C945C15CE010B96DF9189
:1056B000CF911F910C946215DF91CF911F910895A6
:1056C000DC011796ED91FC911897E60FF11D64919E
:1056D00084EF93E00C946C380F931F93CF93DF9378
:1056E000EC018B0180E061E0680FF801E80FF11D2B
:1056F000E491E83011F0862FF6CFCE010E942329E5
:105700008CEB90E09983888318870F83DF91CF918A
:105710001F910F9108958AEA93E00E94C913833084
:1057200039F0823041F0811109C087EA94E0089590
:105730008EE994E0089580EB94E0089585E994E083
:1057400008950F931F93CF93DF93EC011092BE0443
:105750000E94CD140E948B2B8C0160E0C8010E9436
:10576000A52987FD1BC0D8011796ED91FC911897CC
:10577000E80FF11D87FDFA958491883061F4BE0130
:105780008AEA93E00E948015CE010E94DB1481E03A
:105790000E940111DFCF0E940912DFCFDF91CF916C
:1057A0001F910F91089566E174E080EB94E00E94F0
:1057B0006C2B6BE074E087EA94E00E946C2B6FE046
:1057C00074E08EE994E00E946C2B66E074E085E959
:1057D00094E00C946C2B0F931F93CF93DF93EC0109
:1057E0008B0169E274E00E94382F8FEF898782EC89
:1057F00090E0998388838CE3F801DE011B96019089
:105800000D928A95E1F7DF91CF911F910F91089545
:10581000DF92EF92FF920F931F93CF93DF93CDB759
:10582000DEB7EC970FB6F894DEBF0FBECDBF7C019C
:105830008C01055F1F4F8CE3D82E60E0C7010E94EA
:10584000A52987FD2AC08A3139F4C8010E944C126B
:1058500083E00E944035F1CFF801DE0111969D2DC5
:1058600001900D929A95E1F7682FC7010E940328D5
:10587000811109C0FE013196D8018D2D01900D9244
:105880008A95E1F706C083E00E944035C8010E9476
:105890005212C8010E945D12D0CFEC960FB6F89458
:1058A000DEBF0FBECDBFDF91CF911F910F91FF9053
:1058B000EF90DF900895262F215064E670E00E945B
:1058C0000E3ECB01622F0E94373A83E40C94EB37F3
:1058D000262F215068EE73E00E940E3ECB01622F0E
:1058E0000E94373A86E50C94EB37CF93DF93462F2F
:1058F000455064E670E00E940E3E9B01EC01642F6F
:10590000C9010E94373A8EE20E94EB37CE016AE06D
:1059100070E00E940E3E862F0E94C13880EF98E012
:10592000DF91CF910C945438CF93DF93EC012B96F9
:1059300043E6CE010E946113CE01DF91CF910C941A
:105940005D1241E041960C94611344E0CB960C94B7
:105950006113CF93DF93EC0188EF860F0E94F43739
:105960006BAD8FE194E0DF91CF910C946C38CF93C5
:10597000C62F0B960E943C12C25024E630E040E055
:1059800050E00E94223E6C2FC9010E94373A80E30A
:105990000E94EB3780E3CF910C94EB37EF92FF92AC
:1059A0000F931F93CF93DF931F92CDB7DEB77C0188
:1059B000162FDC0117968D919C9118970E946C38D8
:1059C000082F60E1681BC701099669830E941F3593
:1059D0006981882321F0D7011996EC9101C0EFEF7E
:1059E000FF27E7FDF095212F30E0E217F30709F4D8
:1059F000E2C0812F90E08A31910508F0DCC0FC0103
:105A0000EE5CFF4F0C94633EF7018385948554C090
:105A1000D7011D968D919C911E9703C0F701878534
:105A200090890F90DF91CF911F910F91FF90EF9090
:105A30000C945B2CD70151968C9114C0F70183898B
:105A40009489EFCFD70155968D919C9156970F90E1
:105A5000DF91CF911F910F91FF90EF900C94752CD7
:105A6000F70187890F90DF91CF911F910F91FF90E0
:105A7000EF900C948938D70159968D919C915A9743
:105A800079C0F701838D948D75C0D7015D968D9196
:105A90009C915E9703C0F701878D90A10F90DF91D5
:105AA000CF911F910F91FF90EF900C94A03AD701E6
:105AB00091968D919C9192970F90DF91CF911F912C
:105AC0000F91FF90EF900C94373A6FE0601BF70155
:105AD00083A194A10E94373A8DE60F90DF91CF9178
