:100000000C941C050C9444050C9444050C94440574
:100010000C9492070C9444050C9444050C944405EC
:100020000C9444050C94C2070C9444050C944405AC
:100030000C9444050C9451080C9486080C944405C7
:100040000C946E070C9444050C9444050C944405E0
:100050000C944405DF11E811EE11F111F411FB11BC
:10006000F8110212712D752D772D7C2D802D822D8A
:10007000872D8A2D8C2D912D942D972D9D2DA02D82
:10008000A32DA62DA92DAE2DB22DB62DB92DBC2D8B
:10009000C12DC42DC82DF52DF92DFC2D032E052EB7
:1000A000082E0F2E152E192E1D2E252E2D2E382EF4
:1000B0003A2E3E2E462E4E2E552E592E5D2E5F2E5A
:1000C000612E692E6B2E712E4A354C354E355235C8
:1000D0005235503556355435C539A739B039A93957
:1000E000B239A239AE390000000080C64E5A000075
:1000F00000007C6B0831000133000028D00780012C
:1001000033004023E80300000000C0AE4E5AFC5309
:1001100050143FA0540B0000000000BBC4368018F0
:100120006009DC37701700000000000000000000CC
:10013000000044C4FA0E0000000000C4FB0E0000E2
:10014000000068C4FD0E00000000AAC5160F0000E4
:10015000000040C6190F0000000040C72D0F00002E
:10016000000040C6190F0000000040C72D0FB0006E
:1001700032006001E8034F0132009E022C01FF00B3
:1001800000000A00050400000004090000FF01014E
:10019000000A010505000001040A0000FF02020038
:1001A00000020506000002040B0000FF030300002C
:1001B000030507000003040C0000FF0000000A0410
:1001C0000513020004040D0000FF0101000A0505EB
:1001D00013040005040E0000FF02020000060513D0
:1001E000010006040F0000FF0303000007051308C9
:1001F000000704100000FA0100006F7074696F6E50
:10020000730080250000004B00000096000000E114
:10021000000000C20100460088137017000070172C
:1002200064000100FBFFF1FF000005001E0001005B
:100230000A003200780010270000000000000100D2
:1002400008000000000003000000000000000000A3
:10025000250920091B09160911090C0907090209BA
:10026000FD08F8080000980898086C071027580245
:1002700001009808F4016C070100E00102009808F1
:10028000F4016C070100E00103009808DC006C0732
:100290000600E0010400980898086C070300780045
:1002A0000500980898086C07030078000600980875
:1002B00098086C07030078000700980898086C07F6
:1002C000030078000800980898086C07030078007D
:1002D0000900980898086C070300780001000100E5
:1002E000010001000100B0041C075203000052038A
:1002F000B0040807E8030000E803D0079209D60617
:1003000000006C07E40C100ED007E40CB80B100EC4
:100310000410C409A60EAC0D740E6810B80B0A0FB9
:10032000890C740ECC10B80B0A0F890C740EFE10D9
:10033000B80B0A0F890C40066C07140540067805B7
:100340008C17CE17BC186F1A6A1A9E1A611BF41B01
:100350006D1BFD1BFA1B041C2B1C321C551CE21EC2
:10036000B21EB81E05213719072100014B064306AE
:1003700000005A06530600006A06610600007B066C
:100380007306000064002C016400E80389068306FC
:10039000000096068F06000006090A0B0C0D0E0FD2
:1003A000100621222324252627281514D806D20634
:1003B000CC06C606C006BA06B406AE06A806A20655
:1003C0009C0600001A0711070507F906ED06DE0670
:1003D00000004F094509370900009A079507900763
:1003E0008B0786077F07730769075E070000B4095C
:1003F000A5099D09930987097F09700965095809AD
:1004000000030407080003070800010203040708AB
:10041000000102030405060708E007D907D307CA4D
:1004200007C107E908DE08D308C708BC08B508A952
:1004300008A0089708900884087A086E0861085791
:10044000084D08420838082F08230817080D08012E
:1004500008FA07F207E907000020202D2D202000D0
:10046000636865616C692D636861726765720A769D
:10047000302E39395F3230313530313038006361F8
:100480006C69626174696F6E206572726F72007060
:100490006C656173652063616C696272617465008B
:1004A000656570726F6D2072657365740A6572722E
:1004B0006F723A2000726573657474696E672065A7
:1004C0006570726F6D00206E6F202020202020202C
:1004D000202079657300656570726F6D2072657399
:1004E00065743A005245564552534520504F4C4191
:1004F00052495459004E2F41006572726F723A2072
:1005000020202000636F6D706C6574653A20004F89
:1005100033008000007231FFFF0480E232FFFF04ED
:1005200080BB31FFFF2480A23200010880AE320080
:10053000010880C23200010080362F00C000003A5E
:100540002F00C000003A2F00C000003E2F004004E2
:1005500080422F00400480462F004004804532FF37
:10056000FF04800532FFFF00807F32FFFF0000C3E1
:1005700033800000806332FFFF00000000FFFF00B7
:10058000002500202D2D3A2D2D0064656C7461200E
:10059000543D20004E2F4100546578743D00646541
:1005A0006C746120563D20006D6178566F75743D06
:1005B0000054696E743D002D00546578743D002030
:1005C0006C696D69743D0056696E7075743D007795
:1005D0006972657320523D00626174742E20523D31
:1005E000006220004C696D6974733A20006E6F20C0
:1005F00064542F740025200043684342426C4469D0
:100600004643537453424359000100010001000165
:100610000001000A00640001000300080009000A4C
:10062000000B000C00010002000400060008000A94
:10063000000C0016191B1A1C07050621222324256D
:10064000262728566D696E75733A0056706C75735F
:100650003A200076616C75653A0074656D703A20D9
:1006600000706F696E7420322E00706F696E742096
:10067000312E00496F75743A20200076616C7565E3
:100680003A20003330306D41003130306D4100315F
:100690003030306D41003130306D4100566F75742F
:1006A0003A0056312D383A005662383A20005662E8
:1006B000373A20005662363A20005662353A20001A
:1006C0005662343A20005662333A20005662323A7B
:1006D00020005662313A200056696E3A2000657853
:1006E000706572742044414E474552210074656D17
:1006F0007020696E7465726E0074656D7020657827
:100700007465726E0049206469736368617267651D
:1007100000492063686172676500766F6C74616779
:10072000650062616C616E636520706F7274210098
:10073000626174746572792100646973636F6E6EAF
:1007400065637400636F6E6E6563740064542F6438
:1007500074002D64560056206C696D6974005265F2
:10076000736574206E616D650045646974206E6107
:100770006D6500437265617465206E616D6500543E
:100780006C696D3A200049643A200049633A2000C0
:1007900043683A2000563A2020004261743A2020F3
:1007A000004E616D653A0045646974206E616D6547
:1007B0003A006D5600206E6F0079657300496E66D1
:1007C000006578742E20416463006578742E20647F
:1007D0006562006465627567006E6F726D616C00C2
:1007E00064697361626C65640020202072657365C2
:1007F000740073706565643A2000554152543A2084
:1008000000616463206E6F6973653A200062616CF9
:100810002E206572723A00666F7263652062616CA9
:100820003A20006469732061677265733A20006F33
:100830002E64697363683A006F2E6368617267653E
:100840003A00696E707574206C6F773A006361705E
:1008500020434F66663A006D696E20496F75743AA1
:10086000006D696E20496F75743A20492F006265EA
:1008700065703A20202020202000442F43207265FC
:1008800073743A00442F43206379636C65733A00B4
:1008900052776972653A004E6943642064563A00A3
:1008A0004E694D482064563A00656E616220645678
:1008B0003A2020200064542F64743A0065787472E2
:1008C0006E2054434F3A00657874726E20543A207B
:1008D0002020006469736368206F66663A00666171
:1008E0006E206F6E3A202020006261636B6C696736
:1008F00068743A00432F6D004E695A6E004C3433D1
:1009000035004C343330004C69706F004C696C6FAB
:10091000004C6966650050622020004E694D480019
:100920004E69436400556E6B6E006D696E2E006EED
:100930006F6C696D697400726573657420646566B7
:1009400061756C740063616C6962726174650073D7
:10095000657474696E67730065646974206261749C
:100960007465727900443E4320666F726D61740055
:1009700073746F726167652B62616C616E63007383
:10098000746F726167650066617374206368617279
:100990006765006469736368617267650062616CB2
:1009A000616E6365006368617267652B62616C618B
:1009B0006E636500636861726765006578742E74A4
:1009C000656D702E6375746F66660074696D652061
:1009D0006C696D6974006361706163697479206327
:1009E00075746F666600696E707574205620746F3A
:1009F000206C6F77004857206661696C75726500DE
:100A000062616C616E63657220646973632E006954
:100A10006E742E74656D702E6375746F66660062F9
:100A200061747465727920646973632E0000ED054A
:100A3000BD097010B72B0E3111241FBECFE5D8E0D1
:100A4000DEBFCDBF10E0A0E6B0E0E6E1FCE702C00B
:100A500005900D92AC3CB107D9F715E0ACECB0E0D5
:100A600001C01D92A830B107E1F71AE0C8E3DAE04F
:100A700004C02297FE010E949F3DCE32D107C9F7E4
:100A80000E946B100C94093E0C94000020E042E0A0
:100A900060E18CEC90E00E94F13A0E9445080C94D1
:100AA000F105CF92DF92EF92FF92482F282F30E08E
:100AB000A0E0BDE70E940B3D6B017C01A4E6B0E025
:100AC000A41BB10924E630E00E941A3D6C0D7D1D87
:100AD0008E1D9F1D24E630E040E050E00E945C3D0A
:100AE000B9018DE0FF90EF90DF90CF900C942F082C
:100AF000882311F0909A089590980895089580FFA2
:100B000002C0979A089597980895811102C0969A05
:100B1000089596980895811102C0929A0895929826
:100B20000895811107C0939AC4980E94850580E0BA
:100B30000C948B059398C49A0895BC018EE00C9494
:100B40002F08BC018EE00C942F0880FF02C0C09AD1
:100B500001C0C09881FF02C0C19A01C0C19882FF44
:100B600002C0C29A01C0C29883FF02C0C39A01C0EA
:100B7000C39884FF02C0DE9A01C0DE9885FF02C0E0
:100B8000DF9A01C0DF9886FF02C0AE9A01C0AE981E
:100B900087FF02C0AF9A0895AF98089580E00E9441
:100BA000910580E00E94780580E00E947F0580E04A
:100BB0000E94A5058C9A8B9A889A8F9AB89AB99AAE
:100BC000BA9ABB9AD69AD79AA69AA79ABC9A8D9A9D
:100BD0008E9A8D9A8A9A089508958CEC90E00C94E0
:100BE000463BD598D498DD98DC98BF9ABE9ABD9ABA
:100BF0008EEA86B9369A089534B145B1E091DD00A8
:100C0000E33131F12FB7F894832F90E0942BF0E08B
:100C1000DF01AA0FBB1FA551BD4F11969C938E9368
:100C20003091D500332391F0EE0FFF1FEE0FFF1F21
:100C3000EF5EFC4F4081518162817381480F591FE3
:100C4000611D711D40835183628373832FBF08959B
:100C50002091DE003091D20047FD02C0232B02C05C
:100C6000209523232093D20008950E947E21909303
:100C70000E0380930D030E94D21A90931003809369
:100C80000F038091D500882309F485C00E947E213E
:100C9000409155035091560360915703709158034A
:100CA000480F591F611D711D409355035093560302
:100CB00060935703709358030E94D21A40915903CE
:100CC00050915A0360915B0370915C03480F591F68
:100CD000611D711D4093590350935A0360935B0348
:100CE00070935C0380915D0390915E03019709F01E
:100CF00050C08091190390911A03A0911B03B091E9
:100D00001C03B695A79597958795809319039093A3
:100D10001A03A0931B03B0931C03809111039091BD
:100D20001203A0911303B0911403B695A79597955C
:100D300087958093110390931203A0931303B093AC
:100D400014038091150390911603A0911703B0919D
:100D50001803B695A795979587958093150390935B
:100D60001603A0931703B093180380911D0390916D
:100D70001E03A0911F03B0912003B695A7959795E8
:100D8000879580931D0390931E03A0931F03B09338
:100D900020030C94210D0895089580919A03909159
:100DA0009B03892BE9F04091DA004423C9F081E0EC
:100DB00090E00090D70002C0880F991F0A94E2F7D4
:100DC00020915D0330915E032F703FB7F8945BB3C1
:100DD0009BB3982B9BBB240F2A95F1F75BBB3FBFBE
:100DE00008958091D4008F5F883108F080E080936F
:100DF000D40085E0E6EDF0E0ABEDB0E001900D92BF
:100E00008A95E1F76091D4006F5F683108F060E087
:100E100085E0689FB001112462587E4F45E050E0A4
:100E200086ED90E00E94A33D8091D40081110CC01A
:100E30000E94350680915D0390915E0321E0892B2D
:100E400009F420E02093D5000895CF93DF930E940A
:100E5000FC058091D30091E0980F9093D3008730E8
:100E600079F118F4882359F033C0883069F189305A
:100E700079F51092D300DF91CF910C94F106809117
:100E8000D60087FD25C02FB7F8949091D60088B37F
:100E9000392F3170C32F30E0D32FCC0FDD1FCC0F93
:100EA000DD1F92FB332730F9C32B9270C92B90E2E0
:100EB000C902E00111248F718C2B88BB2FBF08C0A1
:100EC000DF91CF910C94CD068091D700806287B9D5
:100ED000DF91CF9108958091D20008951F920F92D3
:100EE0000FB60F9211242F933F934F935F936F93FD
:100EF0007F938F939F93AF93BF93EF93FF930E9442
:100F00002507FF91EF91BF91AF919F918F917F91B5
:100F10006F915F914F913F912F910F900FBE0F9066
:100F20001F9018951F920F920FB60F9211242F93B6
:100F30003F934F935F936F937F938F939F93AF9361
:100F4000BF93EF93FF930E948835FF91EF91BF917C
:100F5000AF919F918F917F916F915F914F913F9151
:100F60002F910F900FBE0F901F90189588E085BDB0
:100F700085B5846085BD14BC8CE783BD89B7806866
:100F800089BF08951F920F920FB60F9211242F93CD
:100F90003F934F935F936F937F938F939F93AF9301
:100FA000BF93EF93FF932091E6003091E70080918B
:100FB000E2009091E300820F931F9093E3008093EF
:100FC000E2002091E4003091E5008091E0009091F2
:100FD000E100820F931F9093E1008093E0002FB710
:100FE000F8948091E2009091E30035E09695879522
:100FF0003A95E1F79BBD8ABD8091E0009091E100B8
:1010000045E0969587954A95E1F799BD88BD2FBF34
:101010008091E2009091E3008F7199279093E30013
:101020008093E2008091E0009091E1008F71992718
:101030009093E1008093E0000E947E05FF91EF9184
:10104000BF91AF919F918F917F916F915F914F91E0
:101050003F912F910F900FBE0F901F9018959FB743
:10106000F8948E3039F47093E7006093E6008FB502
:10107000806808C08D3039F47093E5006093E40017
:101080008FB580628FBD9FBF089580E094E097BDCB
:1010900086BD82E08FBD89E18EBD89B7846089BF3E
:1010A00008951F920F920FB60F9211242F933F9322
:1010B0004F938F939F93EF93FF935A991AC04CB11C
:1010C0008091FE019091FF010196992720910002E5
:1010D000309101028217930769F0E091FE01F091CF
:1010E000FF01E250FF4F40839093FF018093FE0188
:1010F00001C08CB1FF91EF919F918F914F913F91E2
:101100002F910F900FBE0F901F9018951F920F9266
:101110000FB60F9211242F933F938F939F93EF93CA
:10112000FF932091FE013091FF0180910002909188
:1011300001022817390711F4559812C0E0910002F6
:10114000F0910102E250FF4F2081809100029091C6
:1011500001020196992790930102809300022CB915
:10116000FF91EF919F918F913F912F910F900FBE23
:101170000F901F901895CF92DF92EF92FF92CF932E
:10118000DF93EC016A017B01411581EE580761058F
:101190007105F9F0E885F98581E090E00C8802C0DE
:1011A000880F991F0A94E2F7808360E079E08DE36D
:1011B00090E0A70196010E945C3D21503109410950
:1011C00051095695479537952795211580E13807A0
:1011D00098F0E885F985108260E874E88EE190E087
:1011E000A70196010E945C3D215031094109510936
:1011F0005695479537952795EC81FD813083EE8193
:10120000FF8120831D8AEA85FB85408181E090E093
:101210009C01098802C0220F331F0A94E2F7422B77
:101220004083EA85FB8540819C010A8802C0220F29
:10123000331F0A94E2F7422B4083EA85FB85208125
:101240000B8802C0880F991F0A94E2F780958223C9
:101250008083DF91CF91FF90EF90DF90CF90089542
:10126000CF93DF93FC0182819381DC01B395EC0184
:10127000CE5FDE4F4D915C911197288139814217E5
:101280005307C1F7A285B3854C9181E090E09C01A2
:10129000018802C0220F331F0A94E2F7209524230D
:1012A0002C93A285B3854C919C01028802C0220F29
:1012B000331F0A94E2F7209524232C93A285B3854B
:1012C0002C91038802C0880F991F0A94E2F7809539
:1012D00082238C9380819181FC01EE5FFE4F2081FF
:1012E0003181FC01F39531832083DF91CF91089503
:1012F000FC018589882329F0A085B1858C9186FF22
:10130000FBCF158A0895CF93DF93FC0122813381AF
:10131000D901B3958D919C91119701969927E90177
:10132000CE5FDE4F4881598184179507D9F30D9020
:10133000BC91A02DA20FB31F6C93A281B381B39572
:1013400011969C938E93A285B3852C9181E090E0B9
:10135000038802C0880F991F0A94E2F7282B2C9368
:1013600081E0858B0084F185E02D8081806480831D
:1013700081E090E0DF91CF9108958EEF90E090931F
:10138000E9008093E8009093EB008093EA0080E40A
:1013900090E09093ED008093EC0029E230E03093F0
:1013A000EF002093EE002BE230E03093F100209329
:1013B000F0002AE230E03093F3002093F2009093A3
:1013C000F5008093F4008CE290E09093F700809316
:1013D000F60084E08093F80083E08093F90087E0D2
:1013E0008093FA0085E08093FB0081E08093FC000D
:1013F0000895CF93DF931F92CDB7DEB7E091040538
:10140000F0910505309711F4E8E0F5E0CE01019682
:101410002EEB8E179F0710F02193FBCF0F90DF91DB
:10142000CF910895CF93DF9300D0CDB7DEB7209151
:101430000405309105052115310511F428E035E04A
:10144000CE010196821B930B0F900F90DF91CF91ED
:101450000895CF93DF931F92CDB7DEB72091040597
:10146000309105052115310511F428E035E0F90129
:10147000AE014F5F5F4FCF01821B930B4E175F078B
:1014800028F060816E3B11F43196F5CF0F90DF911B
:10149000CF910895009741F0EFE9FFE03197F1F720
:1014A00000C000000197F6CF08958436910538F00A
:1014B00064E670E00E94483DCB010C944A0A019713
:1014C00028F025E32A95F1F70000F9CF08956AE0A6
:1014D00070E00E94483DCB010C94550AE82FF0E0E3
:1014E000EE0FFF1FEB53FD4F808191810895E82F90
:1014F000F0E0EE0FFF1FED58FD4F808191810895C0
:101500002FB7F894E82FF0E0EE0FFF1FE551FD4FE5
:10151000808191812FBF089580916003089580910B
:101520001F0290912002089580910D0290910E0269
:10153000089580910F02909110020895E82FF0E035
:10154000EE0FFF1FEF5DFD4F808191810895262FE3
:10155000633110F4423040F021E030E0FC0133838D
:10156000228331832083089550E0BA01620F711DF8
:10157000620F711D660F771F660F771F665F7F4FC3
:1015800044E050E00C94C43D282FCA01233188F474
:10159000623078F470E0620F711D620F711D660F8A
:1015A000771F660F771F665F7F4F44E050E00C9413
:1015B000E23D0895FF920F931F93CF93DF9300D0E6
:1015C00000D0CDB7DEB706EE10E0F12CF801459162
:1015D00055916591749149835A836B837C83AE01E5
:1015E0004F5F5F4F60E08F2D0E94C40AF801349670
:1015F000459155916591749149835A836B837C839E
:10160000AE014F5F5F4F61E08F2D0E94C40AF394DB
:10161000085F1F4F83E1F812D9CF81E00E94FC10D0
:101620000F900F900F900F90DF91CF911F910F911E
:10163000FF90089581E02091A1023091A20225310E
:10164000310509F080E0089580919F029091A002F9
:10165000089580919B0290919C0208958091A5022B
:101660009091A602089580914D0290914E020397A9
:1016700050F08091530290915402039720F083E040
:1016800090E00C94081880E008952FB7F89480E05B
:1016900090E0FC01EE0FFF1FEE0FFF1FEF5EFC4F0F
:1016A000108211821282138201968331910589F78B
:1016B00084E690E090935E0380935D0310925F0355
:1016C0002FBF0895CF93CFB7F89410921E021092B7
:1016D0001D021092190210921A0210921B0210920F
:1016E0001C0210921502109216021092170210920C
:1016F000180210921102109212021092130210920C
:1017000014020E94B03590930C0280930B02CFBF5D
:10171000CF9108950E94620B1092100210920F0256
:1017200010920E0210920D020895E1E2F2E0119281
:10173000119282E0E337F807D1F70895CF93CFB73E
:10174000F89481E090E090935E0380935D0381E0E4
:1017500080935F030E94950BCFBFCF910895CF93E5
:10176000DF930E949E0BC0911F02D09120028091B6
:101770001F0290912002C817D90729F48AE090E04F
:101780000E94D635F4CFDF91CF9108951092600377
:1017900080E00C949105CF93DF9381E00E94800A52
:1017A000EC0180E00E94800A8C179D0718F4C81B8A
:1017B000D90B02C0C0E0D0E081E0C93ED34008F4BC
:1017C00080E0DF91CF9108958F929F92AF92BF9268
:1017D000CF92DF92EF92FF92CF93DF93CDB7DEB738
:1017E00028970FB6F894DEBF0FBECDBFF82E5B0171
:1017F00061157105D1F140E0682FCE0105960E9478
:10180000A70A41E06F2DCE0101960E94A70A2B8105
:101810003C8140E050E0CF80D884E12CF12C2C19A1
:101820003D094E095F09B50180E090E08D809E8002
:10183000A12CB12C681979098A099B090E942C3DB9
:1018400029813A8140E050E0281939094A095B09A9
:101850000E947E3D2C0D3D1D4E1D5F1D57FF03C098
:1018600020E030E0A901C90102C080E090E02896A4
:101870000FB6F894DEBF0FBECDBFDF91CF91FF90C2
:10188000EF90DF90CF90BF90AF909F908F90089592
:101890008F929F92AF92BF92CF92DF92EF92FF9280
:1018A000CF93DF93CDB7DEB728970FB6F894DEBF9E
:1018B0000FBECDBFF82E5B0161157105D1F140E07F
:1018C000682FCE0105960E94A70A41E06F2DCE0138
:1018D00001960E94A70A29813A8140E050E0CD801C
:1018E000DE80E12CF12C2C193D094E095F09B50170
:1018F00080E090E08F809884A12CB12C6819790940
:101900008A099B090E942C3D2B813C8140E050E0DC
:10191000281939094A095B090E947E3D2C0D3D1D9D
:101920004E1D5F1D57FF03C020E030E0A901C90133
:1019300002C080E090E028960FB6F894DEBF0FBE9C
:10194000CDBFDF91CF91FF90EF90DF90CF90BF9010
:10195000AF909F908F90089582508B3130F4E82F94
:10196000F0E0EF58FF4F8081089581E00895CF9314
:10197000DF93853149F481E02091A1023091A202E8
:1019800025313105C1F41AC0E82FF0E0EE0FFF1F3A
:10199000ED58FD4FC081D1810E94AC0C882319F015
:1019A000813029F00AC081E0E39740F404C081E06F
:1019B000C935D24018F480E001C081E0DF91CF91B9
:1019C0000895CF93C0E081E28C0F0E94B70C88236A
:1019D00029F0CF5FC830B9F788E001C08C2FCF91D4
:1019E00008951F93CF93DF931F92CDB7DEB7182FC3
:1019F00069830E94AC0CE12FF0E0EE0FFF1FED5861
:101A0000FD4F4981682F808191810F90DF91CF91A7
:101A10001F910C9492392FB7F8946091070270913E
:101A200008028091090290910A022FBF2DE730E051
:101A300040E050E00E945C3DBB27A52F942F832FF0
:101A4000089580915D0390915E03892B49F0809108
:101A50005D0390915E03019790935E0380935D0315
:101A6000089590E0880F991FFC01ED58FD4F2081EB
:101A700031816217730718F4261B370B04C0AB01C2
:101A8000421B530B9A01FC01EF5DFD4F27303105DE
:101A900018F01182108206C0208131812F5F3F4FE4
:101AA00031832083FC01ED58FD4F718360830895DD
:101AB0008FB7F89410920702109208021092090250
:101AC00010920A0210920302109204021092050270
:101AD000109206028FBF0E949E0B0E948A0B60E04C
:101AE00070E08BE10E94310D60E070E08DE10E94BA
:101AF000310D60E070E08EE10E94310D60E070E039
:101B00008FE10C94310D1092200210921F020E945E
:101B1000580DE3E7F2E01192119282E0E53CF807FC
:101B2000D1F70895CF93C82F8091600381110CC025
:101B300081E00E949105C1110E94830D81E0809394
:101B40006003CF910C94AF0BCF9108950C94830D4B
:101B500080916003882309F44FC04091A502509101
:101B6000A6028091070290910802A0910902B0910B
:101B70000A02840F951FA11DB11D80930702909347
:101B80000802A0930902B0930A028091020291E038
:101B9000980F90930202883578F120919B02309142
:101BA0009C02DA010E940B3D24E630E040E050E068
:101BB0000E945C3D8091030290910402A091050275
:101BC000B0910602280F391F4A1F5B1F20930302A2
:101BD000309304024093050250930602CA01B901F2
:101BE00020EA3CE840E050E00E945C3DB9018CE115
:101BF0000E94310D109202020895CF92DF92EF926F
:101C0000FF920F931F93CF93DF931F92CDB7DEB751
:101C1000C0907302D0907402809175029091760208
:101C20008C159D0518F4C81AD90A02C0C12CD12CF4
:101C3000B60184E10E94310D05E812E091E2F8015D
:101C4000619171918F01892F99830E94310D998142
:101C50009F5F9932A1F70E94E10CF82E80E000E02E
:101C600010E08F1569F0E1E2E80FF0E0EE0FFF1FE2
:101C7000ED58FD4F20813181020F131F8F5FF1CF8F
:101C8000B80185E10E94310D0115110581F00C1597
:101C90001D0520F49601201B310B03C098012C195F
:101CA0003D09293B3B4018F4680115E102C014E1ED
:101CB000F12CB60186E10E94310D6F2D70E088E1B4
:101CC0000E94310D612F70E087E10E94310D0E946A
:101CD0000B0D7C010E94C31A882329F00091790220
:101CE00010917A020BC00E946F21882329F0009185
:101CF00077021091780202C000E010E0B80189E19B
:101D00000E94310DB7018BE10E94310D9801D6017F
:101D10000E940B3D20E137E240E050E00E945C3D34
:101D2000B9018AE10F90DF91CF911F910F91FF9040
:101D3000EF90DF90CF900C94310D4F925F926F92A5
:101D40007F928F929F92AF92BF92CF92DF92EF924B
:101D5000FF92CF93DF93CDB7DEB728970FB6F894F5
:101D6000DEBF0FBECDBF0E94B03520910B02309177
:101D70000C02821B930B8133954708F4A0C04FB728
:101D8000F89420911D0230911E02A8EEB3E00E944B
:101D90000B3D6B017C01F694E794D794C794409077
:101DA000190250901A0260901B0270901C02609100
:101DB000150270911602809117029091180280907E
:101DC000110290901202A0901302B09014024FBF23
:101DD0006D837E838F8398870E94620B20910F0210
:101DE000309110022F5F3F4F3093100220930F026B
:101DF0006D817E818F819885A70196010E945C3D4F
:101E000029833A834B835C83C301B201A701960106
:101E10000E945C3DB90180E00E94E40B3C016981B5
:101E20007A8181E00E94E40B8615970518F4681A00
:101E3000790A02C0612C712C4090AF025090B00220
:101E40006414750420F0B3018EE10E94310DB301DA
:101E5000641975098DE10E94310DC501B401A70116
:101E600096010E945C3DB90187E00E94E40B20913D
:101E70000D0230910E0290930E0280930D02BC0170
:101E8000621B730B660F771F8FE10E94310DB60145
:101E900080E228960FB6F894DEBF0FBECDBFDF916B
:101EA000CF91FF90EF90DF90CF90BF90AF909F9039
:101EB0008F907F906F905F904F900C94310D28968B
:101EC0000FB6F894DEBF0FBECDBFDF91CF91FF906C
:101ED000EF90DF90CF90BF90AF909F908F907F90CA
:101EE0006F905F904F900895CF92DF92EF92FF92A4
:101EF0000F931F93CF93DF932FB7F89480915D03D7
:101F000090915E032FBF892B09F0ADC080915F03D4
:101F100081119FC080911F029091200201969093A1
:101F2000200280931F02409111035091120360918F
:101F30001303709114037695679557954795809193
:101F4000190290911A02A0911B02B0911C02840FF9
:101F5000951FA61FB71F8093190290931A02A09392
:101F60001B02B0931C02409115035091160360911F
:101F7000170370911803769567955795479580914B
:101F8000150290911602A0911702B0911802840FC9
:101F9000951FA61FB71F8093150290931602A0935A
:101FA0001702B093180240912D0350912E036091B7
:101FB0002F037091300376956795579547958091DB
:101FC000110290911202A0911302B0911402840F99
:101FD000951FA61FB71F8093110290931202A09322
:101FE0001302B093140280911D0290911E0201967B
:101FF00090931E0280931D020E949D0E05EC12E03C
:10200000C0E0D0E0B8EECB2EB3E0DB2EE12CF12C1B
:10201000FE01EE0FFF1FEE0FFF1FEF5EFC4F608112
:10202000718182819381A70196010E945C3DF80134
:10203000219331938F01B9018C2F0E94E40BBC01D5
:102040008C2F0E94310D2196C331D10509F70E94D2
:10205000FD0DDF91CF911F910F91FF90EF90DF90D9
:10206000CF900C94450BDF91CF911F910F91FF9072
:10207000EF90DF90CF9008958091600381110C94D0
:10208000740F089560E081E693E00E94892987FD3E
:102090000AC0811102C00C94BB29992787FD909535
:1020A00001970C94852B08950E94CE0578940E9488
:1020B00046050E94B6070E9426220E945A1B0E94D3
:1020C000A60D0E94F9090E9464120E94E22F0E944C
:1020D00006310C9482110E9454100E944210FDCFD0
:1020E00066EF71E081E693E00E94802E80E990E047
:1020F0009093620380936103E5E6F3E08081825E62
:1021000080830895FC0124812E51621710F40C94F1
:102110007B2E862F90E0821B91090E943E156EE077
:102120000C94E037FF920F931F93CF93DF93EC0152
:102130008B0141110E94033E85E0F82EFA9459F07C
:10214000CE010E94DC3D8017910739F084E690E0D3
:102150000E94C235F3CF81E001C080E0DF91CF91D2
:102160001F910F91FF900895EF92FF920F931F938D
:10217000CF93DF937B018C01E80EF91ECFEFDFEFE9
:102180000E151F05A9F0C8010E94D43DC82728E0FC
:10219000CE01969587953C2FEC0130FF04C031E0CD
:1021A000C32730EAD327215099F70F5F1F4FE8CF9D
:1021B000CE01DF91CF911F910F91FF90EF90089585
:1021C000EF92FF920F931F93CF93DF931F92CDB7A0
:1021D000DEB78C017B0149830E94B4104981BC01A8
:1021E000C8018E0D9F1D0F90DF91CF911F910F9110
:1021F000FF90EF900C949210482F68E970E08AE00D
:1022000090E00C94E010482F6CE073E084EA90E0DA
:102210000C94E010482F6AE370E082EB93E00C949A
:10222000E0101F93CF93DF93D82F182F1170412FF9
:1022300063E678E680E090E00E949210C82F412F7C
:102240006CE679E682E090E00E9492108111C1E094
:10225000D1FB442740F969E070E084E090E00E94FF
:1022600092108111C260D2FB442740F962E070E015
:1022700086E090E00E9492108111C460D3FB442755
:1022800040F967E070E088E090E00E9492108111D0
:10229000C860D4FD0E94DA0A80E00E94FC1081111F
:1022A000C061D5FD0E94861680E00E940311811155
:1022B000C062D6FD0E947F1280E00E940A11811147
:1022C000C0648C2FDF91CF911F910895CF93C82FB9
:1022D0000E94C130882399F0C0FDC260C1FDC46175
:1022E000C2FDC862C3FDC0640E94DE308C2F0E9414
:1022F0001111682F8C2F0E94E23081E001C080E034
:10230000CF91089580E00E94111181110C94661103
:1023100081E0089580E00E94111181600C946611A3
:10232000CF930E94D82F8CE493E09093F603809390
:10233000F503C1E0C093F4031092EC0388EA93E044
:102340000E94C713823011F4C093EC030E94271A35
:1023500091E0813009F090E0892FCF91089561E0FC
:1023600081E00E94501988E593E09093F6038093F2
:10237000F503089561E081E00E94501984E693E03E
:102380009093F6038093F503089560E082E00E9445
:10239000501986E493E09093F6038093F503089533
:1023A000909188039093ED031092EC0390E08830B5
:1023B000910560F5FC01E65DFF4F0C949D3D88EAB8
:1023C00093E00E94C713811106C00E94BA111CC07D
:1023D00081E08093EC030E94AF1116C080E493E08B
:1023E0000CC00E94C51110C085E08093ED03F3CFAF
:1023F00081E08093EC038EE593E09093F603809365
:10240000F50302C00C94D9160C94271A0E942E30A2
:1024100080E00895CF93C82F0E945227882359F156
:10242000C0936D0310926B0310926A0383E0809354
:102430006C030E94873B81E00E94920D0E949011E4
:10244000882391F081E080936C030E946B1D0E94B1
:10245000D82F1092F40384E00E948E3480916D0393
:102460000E94D0110E94A91D0E94C60B0E94973B9A
:10247000CF910C94E12FCF910895DC01D096ED918E
:10248000FC91D197EE0FFF1FEE0FFF1FEE5FFD4F88
:10249000659175918591949108954AE350E066E1C4
:1024A00072E00C94A33DFC01248935892630310566
:1024B00020F025E030E0358B248B0895FC018081ED
:1024C0000E9451050C94331D4AE350E062EB73E027
:1024D0008EE693E00E94C43D8EE693E00C945E127B
:1024E0004AE350E062EB73E08EE693E00E94E23D47
:1024F00081E00E940A118EE693E00C945E128EE653
:1025000093E00E944D120C9470120F931F93CF937F
:10251000DF93CDB7DEB7C554D1090FB6F894DEBF4F
:102520000FBECDBF8C01BC01CE0101960E94CF2B06
:10253000CE0101960E94EC2B8AE3FE013C96D80165
:1025400001900D928A95E1F70E947012C8010E94D5
:102550005E12CB5BDF4F0FB6F894DEBF0FBECDBF70
:10256000DF91CF911F910F910895FC012591349136
:10257000F901099440E0FC01259134910296232B46
:1025800011F04F5FF8CF842F0895EF92FF920F93D1
:102590001F93CF93DF93EC017B018A0185E00E94BA
:1025A000770A8E159F0518F4188281E007C0081776
:1025B000190718F481E0888301C080E0DF91CF9192
:1025C0001F910F91FF90EF900895282F81E090E0E8
:1025D0003AE0215038F0AC01349FC001359F900D96
:1025E0001124F7CF089597FD02C081E008958FEF81
:1025F0000895CF92DF92EF92FF92CF93611571050C
:102600008105910521F461E070E080E090E0C0E098
:102610002AE0C22ED12CE12CF12CCF5FA70196012C
:102620000E945C3DCA01B9012115310541055105E2
:10263000A1F78C2FCF91FF90EF90DF90CF9008956E
:10264000BC0180E090E00C94F912FC012081318102
:10265000260F371F37FF03C011821082089550E004
:10266000421753071CF4518340830895318320831C
:102670000895FC0120813181260F371F12161306A1
:102680002CF081E090E091838083089550E0421720
:1026900053071CF4518340830895318320830895A8
:1026A0008F929F92AF92BF92CF92DF92EF92FF9262
:1026B0000F931F93CF93DF936C015B014A01E901F4
:1026C000FC01E080F180B70180E090E00E94F91207
:1026D000209749F4823028F082500E94E512EC01E4
:1026E00002C0C1E0D0E0C701BE010E94483D009792
:1026F00041F01A141B041CF4C81BD90B05C0EC01D3
:1027000011C01A141B0474F4C4018C1B9D0BE81631
:10271000F90618F4CE0DDF1D01C0E401F601D183E6
:10272000C0830EC010E0C8018C0F9D1F8E159F0541
:1027300018F4EC1AFD0A01C07801F601F182E0827A
:10274000DF91CF911F910F91FF90EF90DF90CF908D
:10275000BF90AF909F908F9008950E941B3681117B
:10276000FCCF0E941B368823E1F30895CF93CAE083
:102770000E94EF35811108C084E690E00E94D635B2
:10278000C150B1F780E001C081E0CF910895FC0114
:10279000808191818930910579F09C012450310923
:1027A0002530310558F09C012150310981E022305B
:1027B000310528F480E0089583E0089582E00895CB
:1027C0000F931F93CF93DF93EC018B0150E00E9496
:1027D000E5364AE3B801CE01DF91CF911F910F9109
:1027E0000C949136EF92FF920F931F93CF93DF9348
:1027F00000D01F92CDB7DEB78C01462F0C969A837E
:1028000089838EE08B83D801ED91FC91EE0FFF1F41
:10281000E05BFD4FE590F490BE016D5F7F4FCE0110
:1028200001960E94E013A701BE016D5F7F4FCE01AC
:1028300001960E94AC3640E2BE016D5F7F4FCE0133
:1028400001960E949136F80142815381BE016D5F6D
:102850007F4FCE0101960E94E5364FE2BE016D5FCB
:102860007F4FCE0101960E949136D80118964D9166
:102870005C911997BE016D5F7F4FCE0101960E945A
:10288000E5360F900F900F90DF91CF911F910F9130
:10289000FF90EF900895CF93DF9300D01F92CDB7B4
:1028A000DEB7462F2EE02B830C969A838983BE01D8
:1028B0006D5F7F4FCE0101960E94E0130F900F9045
:1028C0000F90DF91CF9108952AE1289FB001299FB1
:1028D000700D11246C557F4F4AE150E088EA93E077
:1028E0000C94C43D2AE1289FB001299F700D11244A
:1028F0006C557F4F4AE150E088EA93E00C94E23D4A
:10290000FC018081918125E0289FF001299FF00D35
:102910001124E60FF11DEE0FFF1FE452FD4F8591CC
:1029200094910895DC018D919C91119725E0289F49
:10293000F001299FF00D1124E60FF11DEE0FFF1F8E
:10294000E452FD4F8591949118962D913C911997E1
:10295000AC01429FC001439F900D529F900D1124E6
:102960000895FC01A281B38120918C0330918D03E5
:102970000E940B3D24E630E040E050E00E945C3DC8
:10298000293EFDEF3F074105510520F028EE3DEFC0
:1029900040E050E0C9010895FC01208131812130DF
:1029A000310529F420917E0330917F030AC0223043
:1029B000310529F420917C0330917D0302C020E091
:1029C00030E0FC0180859185AC01249FC001259FEA
:1029D000900D349F900D11240895FC0120813181C8
:1029E0004CE0429FB001439F700D11246C597D4F04
:1029F0004CE050E00C94A33DFC01608180E592E046
:102A00000C94BA37CF93DF93EC018881998160E011
:102A1000892B41F4CE010E94921467E0DF91CF919F
:102A20000C94DA39CE010E94921465E00E94DA39E2
:102A30008FE20E943937888599850E94783783E430
:102A4000DF91CF910C94393766E0FC018481958148
:102A50000C94D63966E0FC01868197810C94D639B6
:102A6000FC0182819381883EFDEF9F0721F48FE274
:102A700099E00C94A23767E00C94D2392AE1AC01BA
:102A8000249FC001259F900D112480559F4F0895CC
:102A90000F931F93CF93DF93CDB7DEB7A7970FB6F2
:102AA000F894DEBF0FBECDBF8C01AB01BC01CE01DF
:102AB00001960E94142ACE0101960E94992A8AE169
:102AC000FE013C96D80101900D928A95E1F7A796F8
:102AD0000FB6F894DEBF0FBECDBFDF91CF911F912F
:102AE0000F910895FC0120813181260F371F2A3074
:102AF000310550F01616170624F4FC0111821082DD
:102B000005C029E030E0FC01318320830C94ED14F2
:102B100062E00E94921480549F411816190614F026
:102B200081E090E09C01442737FD4095542F60E8F8
:102B300071ED80EF98E00E945C3D29358BE138070C
:102B40004105510520F028E53BE140E050E0C90196
:102B5000089562E00E9492149C0140E050E060E41D
:102B600078E78DE791E00E945C3D293883E13807E2
:102B70004105510520F028E833E140E050E0C9016B
:102B80000895EF92FF920F93CF93DF9300D0CDB7CC
:102B9000DEB77C0100918A03000F69837A830E946B
:102BA000881520E030E0AC0169817A81C701049684
:102BB0000E9450130F900F90DF91CF910F91FF90D3
:102BC000EF900895EF92FF920F93CF93DF9300D091
:102BD000CDB7DEB77C0100918A03000F69837A8349
:102BE0000E94A91520E030E0AC0169817A81C7011B
:102BF00006960E9450130F900F90DF91CF910F9186
:102C0000FF90EF900895FC01808191812AE0289F38
:102C1000F001299FF00D1124E252FD4F659174914E
:102C20008CEC9DE80E94483DCB010895EF92FF9205
:102C30000F93CF93DF9300D0CDB7DEB77C016983CC
:102C40007A830E940316F7012081318169817A819C
:102C5000232B19F422E330E002C020E030E001E051
:102C6000AC01C70108960E9450130F900F90DF919E
:102C7000CF910F91FF90EF900895CF93DF93EC01E8
:102C80000E940316288539858217930710F49987C7
:102C90008887CE010E9488152C813D818217930779
:102CA00010F49D838C83CE010E94A9152E813F8153
:102CB0008217930710F49F838E83DF91CF9108953D
:102CC0000F931F93CF93DF93EC0104E620E030E0F5
:102CD00048EE5DEF02960E9450130A811B811D830E
:102CE0000C83CE010E94C713813039F4C801969538
:102CF0008795969587959D838C831F830E83CE0140
:102D0000DF91CF911F910F910C943D160F931F935C
:102D1000CF93DF934CE050E06CEA72E088EA93E0F6
:102D20000E94A33D88EA93E00E943D16C0E0D0E0F7
:102D30008E010F5F1F4FB80188EA93E00E944B1489
:102D4000CE010E9472140E31110511F0E801F0CF8E
:102D500081E0DF91CF911F910F910C940311FC0141
:102D600082859385883EF3E09F0719F48FE299E00E
:102D700005C063E00E9471398AE299E00C94A237A1
:102D80000F9301E020E030E048EE53E00A960E9405
:102D900050130F91089580918403909185030E94B0
:102DA0001F1C82E593E09093F6038093F5030C9447
:102DB000271A81E08093F4031092C2034091C2036A
:102DC000242F30E08091820390918303880F991F14
:102DD00001972817390711F41092F40340FF02C03D
:102DE00080E001C083E00E94D011813089F490918D
:102DF000F403992369F08091C2038F5F8093C2032B
:102E00000E944E1D0E94580D0E94CB168130B1F2D7
:102E100008958091E903811113C00E948C0A8823D0
:102E200081F00E948F0A2091C3033091C403821B5A
:102E3000930B9C0181E02530310518F080E0089566
:102E400081E008958F5D0C94770A0F931F93CF93C1
:102E5000DF9310E0CFEFDFEF00E08091EB03181776
:102E600060F4812F0E9422178C179D0710F0CE016D
:102E700001C0012F1F5FEC01F0CF802FDF91CF91B8
:102E80001F910F910895CF93DF939091E9039111D2
:102E900004C0DF91CF910C9422179091C703C82FE3
:102EA000D0E0992391F00E942217CC0FDD1FFE0184
:102EB000E853FC4FC852DC4F208131814881598151
:102EC000241B350B280F391F07C0FE01EE0FFF1F13
:102ED000E853FC4F20813181C901DF91CF910895E2
:102EE000CF93C82F8091E903882341F0C11106C018
:102EF0000E948F0A9093C4038093C303C093E90395
:102F00000E94950B8091E803811104C08C2FCF9112
:102F10000C94A505CF910895EF92FF920F931F9304
:102F2000CF93DF9381E00E94EC0588E10E94770A4D
:102F30008093EB0308ED13E038ECE32E33E0F32E3F
:102F4000C0E0D0E08091EB0390E0C817D9076CF4A3
:102F50008C2F0E942217F801819391938F01F70122
:102F6000819391937F012196EDCF1092E903109206
:102F7000E80380E00E9470171092C4031092C3030C
:102F8000DF91CF911F910F91FF90EF90089580E016
:102F90000E94701781E08093E80308950E94C7178C
:102FA00080E00C94EC05FF920F931F93CF93DF9377
:102FB0008091EA030E944317EC01F12C01E010E03C
:102FC0008091EB03F816E8F48F2D0E944317AC01B3
:102FD0008091E903802321F0C417D50778F40DC050
:102FE00020919803309199032F5F3F4F3695279595
:102FF0002C0F3D1F2417350708F4102B000FF394F6
:10300000DFCF812FDF91CF911F910F91FF90089516
:103010001F93CF93DF93EC0110E08091EB0318171F
:1030200048F481E2810F0E949E0A8C179D0720F0D0
:103030001F5FF3CF81E001C080E0DF91CF911F914E
:103040000895BF92CF92DF92EF92FF920F931F935A
:10305000CF93DF938AE090E00E940818882309F458
:103060005CC00E9425178093EA030E9422178C01FE
:1030700062E088EA93E00E9480140817190748F17B
:1030800078ECE72E73E0F72EE8EDCE2EE3E0DE2EAF
:10309000C0E0D0E0BB24B3948091EB0390E0C8176C
:1030A000D907CCF48C2F0E942217F70181939193BA
:1030B0007F01F601819391936F01801B910B209109
:1030C0009803309199032817390708F4B12C2196F9
:1030D000E3CFBB24B3941092C7030E94B8359093FA
:1030E000C6038093C503BB2059F0DF91CF911F9198
:1030F0000F91FF90EF90DF90CF90BF900C94C71787
:103100000E94D317DF91CF911F910F91FF90EF9005
:10311000DF90CF90BF900C947017DF91CF911F91EB
:103120000F91FF90EF90DF90CF90BF900895CF93D5
:103130008091C703811115C081E08093C703C0E06F
:103140008091EB03C81768F48C2F0E942217EC2F94
:10315000F0E0EE0FFF1FE852FC4F91838083CF5FBA
:10316000EFCFCF9108950E94B8352091C5033091DB
:10317000C603821B930B089583E090E00E94081819
:10318000882391F08091E903811103C00E942118E6
:103190000BC00E9497180E94D3170E94B3184F9734
:1031A00018F080E00E9470170E940917882311F020
:1031B00082E008958091E8038823D1F381E00895A7
:1031C0001F93CF93DF93EC0110E08091EB0318176E
:1031D00080F4812F0E9422178C179D0710F081E048
:1031E00009C0812F0E9443178C179D07C0F71F5FEE
:1031F000ECCF80E0DF91CF911F9108951F93CF9383
:10320000DF93EC0110E08091EB03181780F4812F1D
:103210000E942217C817D90710F081E009C0812F3A
:103220000E944317C817D907C0F71F5FECCF80E093
:10323000DF91CF911F9108956091EB03662329F0F0
:1032400070E00E94483DCB01089580E090E0089531
:103250000E94F52161E081E00E94501981E00E9406
:103260004E1F8091EE039091EF030C94C02181E0FA
:103270000C940B220E94330B882321F00E9483219F
:103280000C94D71F089520918A0330918B038217E5
:10329000930708F4C9019093EF038093EE03089518
:1032A000CF93DF93C82FD62F682F88EA93E00E9430
:1032B00092149093F3038093F203DD2389F020911D
:1032C000AC033091AD033093F1032093F003C13090
:1032D000B9F488EA93E00E94C7138230F9F010C075
:1032E0002091AE033091AF033093F1032093F003AC
:1032F000C23031F488EA93E00E94C713823099F01B
:103300006091ED0370E08091F0039091F1030E94D1
:10331000483DCB01DF91CF910C944319409190032C
:103320005091910304C04091920350919303809176
:10333000B0039091B103489F9001499F300D589F71
:10334000300D11248091F2039091F303820F931FAB
:103350009093F3038093F203D3CF8091F503909180
:10336000F6030C94B5128091F5039091F603029642
:103370000C94B5120E94B3190E94A91D0C948D36AD
:10338000CF93DF930E94B835EC010E94B8358C1BB7
:103390009D0B853B910510F00E94C60B0E941B36C9
:1033A000882399F388E0DF91CF910C948E34CF93EA
:1033B000DF930E94BA190E94B835EC0185E00E94A3
:1033C0008E340E94C60B93980E9422300E94B6133E
:1033D00081110FC00E9472310E94B613811109C081
:1033E0000E94B8358C1B9D0B853B910568F3939A21
:1033F000EBCF88E00E948E3480E0DF91CF910C9477
:10340000920D0E94BA190E94C60B0E94263086E0D7
:103410000E948E340C94C019E091F503F091F603EC
:10342000349685919491FC010994811103C00E9406
:10343000011A0BC0813039F48091F403811105C069
:103440000E94D71902C081E0089580E008950F938B
:103450001F93CF93DF931092BB040E94AD1902E03B
:10346000C0E0D0E011E00E941B368093BB040E94B4
:103470005330112379F00E94E91D082F0E94151A7C
:10348000182F882339F00E948F0AC817D90781F4B2
:10349000111105C08091F403811114C010E08091D6
:1034A000BB04813001F70E94EC358823E1F20AC0A9
:1034B0000E948F0AEC010E940C1A082F0E94151A14
:1034C000182FE6CF0E94B319802FDF91CF911F9163
:1034D0000F91089581E00E94471B0C94CE170E9423
:1034E000391B0E948C1721E08091940390919503E1
:1034F000892B09F420E02093F70380E00C944E1F01
:103500000F931F93CF93DF93C091F203D091F303F6
:10351000CE010E941C198C010E94240BC817D907E8
:1035200038F4C801DF91CF911F910F910C94FE18D0
:1035300081E0DF91CF911F910F9108951F93CF9359
:10354000DF930E94801A182F0E94D71AEC018091F5
:10355000F703882329F0BE01812F0E94981F01C024
:10356000812F882329F081E00E94471B81E007C05A
:10357000BE01812F0E94A2200E941A1B82E0DF91CF
:10358000CF911F91089581E09091FC03911180E00B
:10359000089581E02091FA033091FB03232B09F475
:1035A00080E008958091FA039091FB030895809143
:1035B000F8039091F9030895CF93DF931F92CDB74D
:1035C000DEB74091720350917303BA01645F71409A
:1035D000CE0101960E94C5128981811117C00E94F7
:1035E000290B9C0140E050E060E478E78DE791E032
:1035F0000E945C3D293883E138074105510520F0E0
:1036000028E833E140E050E0C90102C080E090E0EA
:103610000F90DF91CF910895813020E8920710F04C
:1036200080E090E89093FB038093FA030E94A10549
:103630000C949E0BCF93DF93EC010E94DC1ABC012B
:10364000C817D90708F4BE018091F8039091F903D7
:103650008617970759F07093F9036093F80382E196
:103660000E94480CDF91CF910C940C1BDF91CF91FD
:1036700008958091FC03882349F080E090E00E9447
:103680000C1B81E00E948B051092FC030895CF93E0
:10369000C82F8091FC0381110BC0CC2349F080E03E
:1036A00090E00E940C1B80E00E948B05C093FC03FD
:1036B000CF91089580E090E00E940C1B81E00C9473
:1036C000471B87E08093C10482E08093C2040E947C
:1036D000873483E08093FD0308950F931F93CF9366
:1036E000DF938091EC03882379F00E94E10C9091A4
:1036F000B00301E0981301C000E011E0811110E077
:10370000913021F4112311F010E000E00E941A0B17
:10371000882309F45CC085E10E94770AEC0184E10A
:103720000E94770AC817D90728F49C012C1B3D0B6F
:10373000E90102C0C81BD90BC53FD14008F447C0FE
:10374000C1E0011102C087E001C083E08093C104A1
:10375000112329F08091C10482508093C104CC23AD
:1037600029F08091C10481508093C104011104C0EB
:10377000111102C0CC2331F081E00E948E3411116E
:1037800007C004C088E00E948E3408C0002331F0D6
:103790008091960390919703892B11F4D0E001C09A
:1037A000D1E00E94EF35811102C01092FD03D111CA
:1037B00006C0C11104C00E94EF35883051F08091DD
:1037C000FD03823011F481E00AC082E008C0C0E04D
:1037D000B8CF8091FD038F5F8093FD03F0CFDF9121
:1037E000CF911F910F9108958FEF8093C10488E0CE
:1037F0000C948E341092020408950E94B835909370
:1038000001048093000408950E94B83520910004BB
:1038100030910104821B930B2091FE033091FF0332
:103820002817390728F081E08093020482E0089588
:103830001092020481E008958091020408952CE31F
:10384000AC01249FC001259F900D11249093FF038C
:103850008093FE0308950E948C170E94F52181E059
:103860000C944E1F81E00E940B220C94CE170F93F4
:103870001F93CF93DF93C091F203D091F303CE0156
:103880000E941C198C010E94240B8C179D0738F490
:10389000C801DF91CF911F910F910C94E01881E046
:1038A000DF91CF911F910F9108951F93CF93DF93D5
:1038B0000E94371C182F0E948321EC01BC01812F2C
:1038C0000E94981F882329F081E00E940B2281E04A
:1038D00007C0BE01812F0E94A2200E94C02182E069
:1038E000DF91CF911F910895809115049091160456
:1038F00020911804222341F00E94B835209115042C
:1039000030911604821B930B0895609111047091FD
:103910001204809113049091140428EE33E040E0E7
:1039200050E00E945C3DC901089560910D047091C2
:103930000E0480910F049091100428EE33E040E0D3
:1039400050E00E945C3DC90108950F931F93CF93EF
:10395000DF9361E088EA93E00E9492148C0164E0B6
:1039600088EA93E00E949214EC0186E10E94770AB3
:1039700080179107B8F4C817D907B0F49C012C1B25
:103980003D0BC8018C1B9D0B64E670E00E94483D16
:10399000C9010E94483D6436710510F063E670E08D
:1039A000862F03C083E601C080E0DF91CF911F9195
:1039B0000F910895CF93DF930E94A51C9091170457
:1039C0009817E0F4809317040E94741C20911A0445
:1039D00030911B04EC01C21BD30B0E94741C90930A
:1039E0001B0480931A0480911C0490911D048C1771
:1039F0009D0720F4D0931D04C0931C04DF91CF9148
:103A000008950E94DA1C80911904882311F089E638
:103A100001C084E690E020911704821B9109209157
:103A20001C0430911D04AC01429FC001439F900DC6
:103A3000529F900D1124089585E00E94800A2091E4
:103A40000304309104042817390710F480E008C0FB
:103A500020910504309106048217930718F481E041
:103A60000C9478050895CF93DF93C0E7D3E0688185
:103A70007981645F714085E00E94480C9093040452
:103A8000809303046881798185E00E94480C9093BB
:103A9000060480930504DF91CF9108950E94A51C30
:103AA0008093170410921B0410921A0410921D04A4
:103AB00010921C041092110410921204109213041C
:103AC0001092140410920D0410920E0410920F0420
:103AD00010921004089568E572E080E00E94480C9E
:103AE00090930C0480930B0461E088EA93E00E94B9
:103AF0009214BC016854744F6D3C2DE8720710F0AD
:103B00006CEC7DE880E00E94480C813C2FEF92072E
:103B100010F080EC9FEF90930A04809309040E94B8
:103B20001A0B809319040E94331D88EA93E00E94C7
:103B3000B11490930804809307040E94B8359093C1
:103B40001604809315040E944E1D81E08093180492
:103B500008950E94741C909316048093150410928B
:103B6000180408950E94752181111DC00E94C91A70
:103B7000811119C00E940917882351F18091110405
:103B800090911204A0911304B091140480599F4F96
:103B9000AF4FBF4F8093110490931204A09313046E
:103BA000B0931404089580910D0490910E04A09197
:103BB0000F04B091100480599F4FAF4FBF4F8093B7
:103BC0000D0490930E04A0930F04B0931004D2CF71
:103BD0000895CF93DF9380911804811102C082E091
:103BE000BEC085E00E94770A209172033091730372
:103BF0002C503E4F2817390718F48FE09AE017C071
:103C000080E00E94800A2091090430910A04821702
:103C1000930758F420910B0430910C0482179307FA
:103C200060F40E94C31A882341F08FE19AE09093D8
:103C30006B0380936A0380E092C0C09119040E94D4
:103C40001A0BC81719F080E09AE0F1CFC091F00389
:103C5000D091F103C851DC4F0E942E0BC817D90731
:103C600018F485EF99E0E3CF86E00E94770A20916F
:103C70008E0330918F038217930718F486EE99E034
:103C8000D6CF8BE10E94770AC0910704D091080437
:103C9000C83E2DEFD20729F18C179D0710F186ED54
:103CA00099E090936B0380936A0388EA93E00E9403
:103CB000B114C817D90709F049C088EA93E00E94F7
:103CC000C7138111B8CF8091AA039091AB03609183
:103CD000AC037091AD030E94483D6A307105B0F5A8
:103CE000AACFC091B203D091B303C83E83E0D807F6
:103CF000C0F460910D0470910E0480910F049091B6
:103D0000100420E63AEE40E050E00E945C3D2C17A3
:103D10003D0738F08BEC99E090936B0380936A0336
:103D20001DC08091740390917503892B09F457CFBE
:103D300087E00E94770A2091760330917703281755
:103D4000390708F04CCF8BEB99E071CF88EA93E00C
:103D50000E94B114909308048093070481E0DF91DE
:103D6000CF9108950E94321C0E946A1A0C94CE17BB
:103D7000CF93DF931F92CDB7DEB780911E048823C7
:103D800029F0813031F40E949E1A0CC00E94551C0B
:103D900009C00E94BC18823089F089830E94B21E3B
:103DA00089810CC0813051F49091EC03992331F05A
:103DB00082E080931E040E948C1782E00F90DF91B6
:103DC000CF910895CF93DF930E948C1761E083E039
:103DD0000E945019C091F203D091F3038091EB033C
:103DE000811106C00E94240BC817D90740F40CC0EB
:103DF000CE010E941C190E94FE18882329F00E94FF
:103E00002B1C10921E040BC060E083E00E9450192E
:103E10000E946F1A81E08093F70380931E04DF9164
:103E2000CF91089580911F04813029F48091EE0391
:103E30009091EF03089580E090E008952CE0829F38
:103E4000C0011124855D9B4F0C9435228BE894E0D2
:103E50000C943522CF93DF9300D000D0CDB7DEB7DE
:103E600084E10E94770A9A83898386E10E94770A17
:103E700029813A81281B390B3A83298389E10E94E1
:103E8000770A9C838B83CE0101960E9435220F9086
:103E90000F900F900F90DF91CF910895EF92FF92C6
:103EA0000F931F93CF93DF93F82E81E080931F042D
:103EB0000E94240BBC012091EE033091EF0340914E
:103EC000F2035091F3030F2D83E894E00E945022F7
:103ED0008091F2039091F3030E941C19EC0110E011
:103EE0008CE0E82E8091EB03181798F4812F0E9444
:103EF0004317BC012091EE033091EF03E19EC00116
:103F000011240F2DAE018D5D9B4F0E9450221F5F2B
:103F1000E9CF109291041092220410929004109212
:103F20008F04DF91CF911F910F91FF90EF90089533
:103F30001F93CF93DF93182FEB018091EC0388231D
:103F4000B1F02091EE033091EF03203A310510F4E7
:103F500020EA30E02C173D0710F41092E80390910E
:103F600091049B7F21F40E94BC1880931F048091D0
:103F70001F048130B9F40E94121F8C179D0780F036
:103F8000112371F080919104843051F490912204B6
:103F900081E0890F8093220481E09A3020F402C0EE
:103FA0001092220480E0DF91CF911F9108950F932A
:103FB0001F93CF93DF93EC010E94240BAE01BC0151
:103FC00083E894E00E94092310E00CE08091EB0369
:103FD000181770F4812F0E944317BC01019FC00184
:103FE0001124AE018D5D9B4F0E9409231F5FEECF10
:103FF000DF91CF911F910F910895CF92DF92EF92B1
:10400000FF920F931F93CF93DF936091F203709110
:10401000F30383E894E00E9475228C018091F203FF
:104020009091F3030E941C197C01D12C9CE0C92EB5
:104030008091EB03D81698F4CD9CE0011124CD5D5E
:10404000DB4FB701CE010E9475220817190728F02F
:10405000B701CE010E9475228C01D394E9CFC8012B
:10406000DF91CF911F910F91FF90EF90DF90CF9054
:1040700008950F931F93CF93DF93EB012091F003EB
:104080003091F1038C012817390708F489010E9447
:10409000121F9C018017910708F49801C217D307DB
:1040A00019F1809191048430A9F42C173D0790F008
:1040B0008091EE039091EF038C179D07A8F040913B
:1040C0002004509121048091C3039091C4034817A8
:1040D000590751F08091C3039091C4039093210438
:1040E00080932004C90101C0CE01DF91CF911F91BF
:1040F0000F9108950F931F93CF93DF93EC010E94CC
:10410000240B9093840480938304D0938604C093FB
:10411000850410E00CE08091EB03181770F4812FF8
:104120000E944317019FF0011124ED5DFB4F918325
:104130008083D383C2831F5FEECFDF91CF911F9126
:104140000F9108951F93CF93DF93182FEB010E94D7
:10415000330B811102C0112359F10E9409178111FB
:1041600027C0CE010E94D71FCE010E947A200E9454
:10417000FD1F8C179D0708F043C09C012C0F3D1FAD
:10418000369527953093900420938F04BE0180913B
:104190008F04909190040E94392090939004809312
:1041A0008F0490919104913001F150F411110DC0E0
:1041B00080918F0490919004DF91CF911F91089589
:1041C0009230B1F09330B1F017C08091EC038823A6
:1041D00021F00E94C7171092E80382E080939104B7
:1041E0001092900410928F04E3CF10929104E0CFCC
:1041F00083E003C01123E1F284E080939104D8CFDF
:104200009093900480938F04C1CF0C942819CF937E
:10421000DF930E943A190E94240BEC010E942E0B9E
:10422000A0918003B09181039C010E940B3D28EE78
:1042300033E040E050E00E945C3DC21BD30B62E0E3
:1042400088EA93E00E9492148C179D0730F48091C5
:10425000F0039091F1030E94C0210E94330B882348
:1042600079F08091F2039091F3038C179D0740F44D
:1042700086E597E090936B0380936A0381E02CC0FE
:104280000E94990A029738F180917A0390917B03FA
:10429000892B71F08DE10E94770AEC0188EA93E0A6
:1042A0000E94CC14C817D9071CF482E597E0E2CF2E
:1042B0008091740390917503892B69F08FE10E94BE
:1042C000770A2091780330917903281739071CF475
:1042D0008CE497E0CFCF82E0DF91CF91089581E029
:1042E00090919604911180E0089581E020919404CA
:1042F00030919504232B09F480E008958091940473
:10430000909195040895809192049091930408955A
:10431000CF93DF930E94290BEC0186E00E94770A7D
:104320009E01205F384D281B390B1216130614F01E
:1043300021E030E0442737FD4095542F60E871EDCF
:1043400080EF98E00E945C3D29358BE138074105FC
:10435000510520F028E53BE140E050E0C901DF9144
:10436000CF910895813020E8920710F080E090E826
:1043700090939504809394040E949D050C949E0B49
:10438000CF93DF93EC010E948821BC01C817D907A5
:1043900008F4BE0180919204909193046817790704
:1043A00050F49C01261B370B2D38310568F0BC01F9
:1043B0006C58710909C09B01281B390B2D38310538
:1043C00018F0BC0164577F4F8617970759F0709318
:1043D00093046093920481E10E94480CDF91CF9195
:1043E0000C94B221DF91CF91089580919604882397
:1043F00089F01092950410929404109293041092F4
:10440000920480E090E00E94B22181E00E94850544
:10441000109296040895CF93C82F8091960481112D
:1044200013C0CC2389F080E090E00E94B22110926A
:10443000950410929404109293041092920480E0D8
:104440000E948505C0939604CF910895109295041B
:1044500010929404109293041092920480E090E0E1
:104460000E94B22181E00C940B22FC014281538115
:104470004115510591F0A081B181B7FF03C0B195FD
:10448000A195B10928EE33E00E941A3D9A0140E05F
:1044900050E00E945C3DC901089580E090E00895DD
:1044A0000F93FC01CB01002341F04617570708F496
:1044B000CA016417750748F407C06417750708F444
:1044C000CA014617570708F4BA0197838683918378
:1044D0008083138212821582148233872287681B9D
:1044E000790B718760870F910895FC018681978110
:1044F000A285B3850084F185E02D3097D1F09B0132
:1045000040E050E0281B390B410951090E94213D30
:104510009F01442737FD4095542F0E947E3D211571
:10452000310581E04807510524F457FD05C0C90154
:1045300008958FEF9FEF089580E090E00895DF9257
:10454000EF92FF920F931F93CF93DF93EC012A8199
:104550003B812417350720F4FA01E21BF30B03C05B
:10456000F901E41BF50B8C819D81969587958E173B
:104570009F0710F5E880F9802417350740F48A0179
:10458000021B130BCB018E199F097C0105C0E61A93
:10459000F70A8901041B150BC7010E94F312D82EDC
:1045A000888599850E94F312D81206C01D830C835A
:1045B000F986E8861B870A87DF91CF911F910F91BB
:1045C000FF90EF90DF9008950F931F93CF93DF93A9
:1045D000EC018B019A01A885B9850E941A3D2A85B4
:1045E0003B8540E050E00E947E3DC801A0E0B0E085
:1045F00082179307A407B5071CF41F821E8204C00C
:10460000021B130B1F830E83DF91CF911F910F911C
:104610000895EF92FF920F931F93CF93DF93EC01D6
:104620008B017A010E949F22A701B801CE01DF9180
:10463000CF911F910F91FF90EF900C94E4220F9374
:104640001F93CF93DF938C01443019F0CFEFDFEF4E
:1046500002C0C1E0D0E00E94F135D8011B96EC9178
:10466000F0E0EE0FFF1FED58FD4F9C01C29FC0010F
:10467000C39F900DD29F900D112420813181820F14
:10468000931F91838083DF91CF911F910F910895A4
:10469000EF92FF920F931F93CF93DF931F92CDB7AB
:1046A000DEB78C01443021F0EE24EA94FE2C03C0E6
:1046B000EE24E394F12C69830E94F135D8011B9616
:1046C000ED91FC911C976981E60FF11DE491F0E0FA
:1046D000EE0FFF1FED58FD4FE89E9001E99E300D53
:1046E000F89E300D112480819181820F931F918358
:1046F00080830F90DF91CF911F910F91FF90EF90EA
:104700000895CF93DF93EC010E946D34882311F05C
:10471000888101C08FEFDF91CF910895CF93DF9310
:1047200000D000D0CDB7DEB780E00E946E0A9A8339
:10473000898381E00E946E0A29813A81281B390B06
:104740003A83298385E10E94770A9C838B83AE019B
:104750004F5F5F4F61E080E00E94C40AAE014F5F8F
:104760005F4F61E081E00E94C40A0F900F900F90AC
:104770000F90DF91CF910895CF93DF93D82F60E30F
:1047800077E084E497E00E94F72FC0E084E10E9484
:10479000B70C882399F081E20E94B70C8D17A1F025
:1047A000C1110CC062E277E0DD2319F084E497E0E8
:1047B00002C089E397E00E94F72FC1E00E941B36F8
:1047C000813021F780E001C081E0DF91CF91089531
:1047D000CF93DF9300D000D0CDB7DEB7862F5A83BA
:1047E00049833C832B83AE014F5F5F4F61E00E94A2
:1047F000C40A0F900F900F900F90DF91CF91089502
:10480000FF920F931F93CF93DF93F82E162F042F51
:1048100083E00E948E34812F0E94770AEC01802F62
:104820000E946E0AAC019E01602F812F0E94E82336
:1048300081E0809360030E94AF0BFF2039F0DF918D
:10484000CF911F910F91FF900C948E23DF91CF9108
:104850001F910F91FF900895EF92FF920F931F9376
:10486000CF93DF93CDB7DEB72E970FB6F894DEBFA8
:104870000FBECDBF81E00E94BC23882309F441C054
:104880006CEA73E0CE0101960E94802E8FEF8A873A
:1048900086E990E09A83898381EA93E09D878C87FB
:1048A00089E08E8761E0CE0101960E948929F82E69
:1048B00087FD27C0082F112707FD1095F801EF5538
:1048C000FC4FE49088E08F156CF38E2D0E94B70C9E
:1048D000882341F30E94AF0B109260036F2DCE012D
:1048E00001960E94DE27882341F0F801E856FC4F2C
:1048F00044916E2D81E00E94002481E0809360034A
:10490000D1CF2E960FB6F894DEBF0FBECDBFDF918C
:10491000CF911F910F91FF90EF9008950F931F93E8
:10492000CF93DF93CDB7DEB72E970FB6F894DEBFE7
:104930000FBECDBF109267006CE673E0CE0101960A
:104940000E94802E8FEF8A8786E990E09A83898380
:104950008AE693E09D878C8787E08E8761E0CE01B1
:1049600001960E948929082F87FD20C0E82FFF2784
:10497000E7FDF095E659FC4F1491812F0E94B70C8A
:10498000882361F30E94AF0B10926003602FCE0169
:1049900001960E94DE27882329F0412F612F80E0B5
:1049A0000E94002481E080936003D8CF81E080934F
:1049B00067002E960FB6F894DEBF0FBECDBFDF9115
:1049C000CF911F910F910895813119F4CB010C946F
:1049D000B221CB010C940C1BEF92FF920F931F930B
:1049E000CF93DF93EC01443019F00FEF1FEF02C0BB
:1049F00001E010E00E94F135089F7001099FF00C62
:104A0000189FF00C11240E94F1354F85588901E060
:104A10009C01B701CE010D960E9450136D857E85D5
:104A20008B85DF91CF911F910F91FF90EF900C94A8
:104A3000E424CF92DF92EF92FF920F931F93CF93D4
:104A4000DF93CDB7DEB765970FB6F894DEBF0FBE24
:104A5000CDBFC82ED62E8A0180E00E94BC238823B9
:104A600009F469C0CC2039F00E94F521E2E0EE2E75
:104A7000F1E1FF2E06C00E94391B63E0E62E72E1D1
:104A8000F72E6EE773E0CE0101960E94802E8FEF25
:104A90008A872EE930E03A832983FC86DD8620E090
:104AA00030E8398B288B4D856C85CE0142960E946B
:104AB000A70A2A893B893F872E8761E0CE010196AC
:104AC0000E94892987FD2FC08111EDCF6E857F85DA
:104AD0008F2D0E94E42460E0CE0101960E94DE2723
:104AE0008823D9F00E94AF0B1D8B0C8B2E853F8540
:104AF0003B8B2A8BAE014E5E5F4F6D2D8F2D0E943A
:104B0000C40A8E2D0E946E0A9B8B8A8BAE014E5E6C
:104B10005F4F6D2D8E2D0E94C40A60E070E08F2DD6
:104B20000E94E424C0CF81E0CC2019F00E940B2227
:104B300002C00E94471B65960FB6F894DEBF0FBEF9
:104B4000CDBFDF91CF911F910F91FF90EF90DF903C
:104B5000CF900895EF92FF920F931F93CF93DF931F
:104B6000CDB7DEB729970FB6F894DEBF0FBECDBF25
:104B70008C017B01BC01CE0101960E94802E60E079
:104B8000CE0101960E948929682F87FD10C0E82F69
:104B9000EE0FFF0BEE0DFF1D4591549181E093E068
:104BA0000239190709F080E00E941925E8CF2996FB
:104BB0000FB6F894DEBF0FBECDBFDF91CF911F912E
:104BC0000F91FF90EF9008951F93CF93DF9300D044
:104BD00000D01F92CDB7DEB7182F6D830E946E0AEA
:104BE0009A838983812F0E94770A9C838B83AE01ED
:104BF0004F5F5F4F6D81812F0E94C40A0F900F900D
:104C00000F900F900F90DF91CF911F9108950F9308
:104C10001F93CF93DF93CDB7DEB72C970FB6F894E1
:104C2000DEBF0FBECDBF182F062F62E773E0CE01A7
:104C300001960E94802E8FEF8A8726EA30E03A8321
:104C400029831C8761E0CE0101960E94892987FD96
:104C500013C08111F7CF1092600360E0CE0101967E
:104C60000E94DE27882321F0602F812F0E94E425F7
:104C700081E080936003E6CF2C960FB6F894DEBFF8
:104C80000FBECDBFDF91CF911F910F9108951F935C
:104C9000CF93DF93CDB7DEB729970FB6F894DEBF79
:104CA0000FBECDBF182F68E773E0CE0101960E94BA
:104CB000802E60E0CE0101960E948929682F87FD31
:104CC00004C0812F0E940726F4CF29960FB6F894CE
:104CD000DEBF0FBECDBFDF91CF911F9108951F930F
:104CE000CF93DF93CDB7DEB729970FB6F894DEBF29
:104CF0000FBECDBF64EC73E0CE0101960E94802E02
:104D000060E0CE0101960E948929182F87FD30C0EE
:104D10000E94873B81E00E94920D1230A9F04CF472
:104D2000112379F01130E1F468E873E082E993E04F
:104D30000FC0143091F07CF0153091F40E948E2455
:104D40000FC00E942C240CC064E873E08CE893E050
:104D50000E94AA2505C087E001C085E00E94472681
:104D600081E00E94FC100E94C60B0E94973BC8CFB6
:104D700010926C0329960FB6F894DEBF0FBECDBF1C
:104D8000DF91CF911F910895CF93DF93EC01842F92
:104D90000E94E40B9E013695279536952795A9012B
:104DA0004C0F5D1F8417950730F4C21BD30B21E015
:104DB000C817D90708F020E0822FDF91CF9108951E
:104DC00068EE73E080E00E94480C24E2289FB00166
:104DD000299F700D112440E08CEC9DE80C94C426B2
:104DE000CF93DF931F92CDB7DEB7482F68EE73E005
:104DF00049830E94480C27E0289FB001299F700D2D
:104E00001124498188E59BE10F90DF91CF910C94AB
:104E1000C426CF93DF931F92CDB7DEB7482F64E649
:104E200070E049830E94480CBC01660F771F680F31
:104E3000791F49818CE291E00F90DF91CF910C9422
:104E4000C426CF930E948211C82F882341F10E946B
:104E5000E026C82F811105C08AE197E00E94FF304B
:104E60001EC081E10E94F026882329F082E00E9482
:104E7000F026811106C081E197E00E94FF30C0E07A
:104E80000EC082E10E940927882331F083E00E944E
:104E90000927C82F811103C085E097E0EECF8C2F42
:104EA000CF9108950C9421271F93CF93DF93EC01AA
:104EB000162F0E947B2ECE0109960E9481239927EE
:104EC00087FD9095612F70E08617970759F0EB8565
:104ED000FC85E60FF71F84916D85DF91CF911F91BF
:104EE0000C94F10CDF91CF911F9108951F93CF93F4
:104EF000DF93EC01162F84E10E94B70C81110FC0E3
:104F000060E377E084E497E00E94F72F8B8582319D
:104F100041F581E0DF91CF911F910C94471B612FE8
:104F2000CE010E947B2ECE0109960E9481239927F3
:104F300087FD9095212F30E08217930791F0111192
:104F400008C065E08D859E85DF91CF911F910C94FF
:104F500071390E942E0B67E0DF91CF911F910C9465
:104F6000D639DF91CF911F9108951F93CF93DF938F
:104F7000EC01162F0E947B2ECE0109960E94812300
:104F8000992787FD9095212F30E08217930791F0A4
:104F9000111107C067E08B85DF91CF911F910C94B1
:104FA000F10C8B850E946E0A67E0DF91CF911F9113
:104FB0000C947139DF91CF911F910895DF92EF9298
:104FC000FF920F931F93CF93DF93EC01F62E698727
:104FD0001A8681E08D8382E0D82EEE24E3948E0140
:104FE000075F1F4F0E941B36482F823011F084301C
:104FF00061F4E881F9810280F381E02D6F2DCE010B
:105000000995F986DA86ED8204C0813089F088300E
:1050100079F0C8010E9478348111ED828D81882356
:1050200019F0CE010E942B298A858F5F8A87DACFFB
:105030008FEF898781E08E838D83483009F080E08F
:10504000DF91CF911F910F91FF90EF90DF90089526
:10505000CF93DF93EC010E9485368B819C810E9467
:10506000A2370E9489366A8188819981DF91CF9128
:105070000C945737FC0187818F3118F48F5F878339
:10508000089586818F5F86830895FC018781882338
:1050900019F0815087830895868181508683089511
:1050A0000F931F93CF93DF93FC01C681D0E06D2F48
:1050B00080E00E947F3610E11C0F01E00C0F8C2F66
:1050C0000E943937011711F0C02FF7CFDF5FD230C0
:1050D00011F0C12FECCFDF91CF911F910F91089567
:1050E0001F93CF93DF93EC018CEC90E00E94B53AD4
:1050F0001FEF8E81181721F0CE010E9450281E81CB
:105100008F81682F70E094E0759567959A95E1F727
:105110008F700E947F360E941B36823049F08430A7
:1051200019F0813049F413C0CE010E943A28E1CF32
:10513000CE010E944528DDCF8830D9F68D81E881E7
:10514000F981E80FF11D8F819E81890F8083DF91A6
:10515000CF911F910895FC01718360834283348352
:105160002383158280E2868317820895CF93DF938D
:10517000EC018CEC90E00E94B53A0E948D36CE0195
:105180000E94282861E08D810E947F360E941B3694
:105190008230B1F0843041F08130C1F48CEC90E089
:1051A0000E94AE3A80E026C04D81242F30E08A81F3
:1051B00090E00197281739072CF74F5F4D83E2CF16
:1051C0008D818823F9F281508D83DCCF8830D1F630
:1051D00082E00E946E36823048F083E00E948E3476
:1051E0008CEC90E00E94AE3A81E004C0CE010E94B7
:1051F0007028C3CFDF91CF9108950895FC018EEA06
:1052000090E09183808312821382648381E085839E
:1052100086830895FC012281211103C081E08283ED
:105220000895438130E0240F311D848190E001977F
:105230002817390714F44F5F43830895FC018281D6
:10524000882319F08150828308958381882311F087
:105250008150838308951F93CF93DF93EC0110E077
:10526000612F80E00E947F3680E20E943937E8811A
:10527000F9816B81610F0190F081E02DCE010995DC
:105280000E9454371F5F123059F76A8180E00E94F4
:105290007F368EE30E9439376A818FE00E947F3625
:1052A0008CE30E9439371D82DF91CF911F910895C1
:1052B0000F931F93CF93DF93EC010E941B36182F9F
:1052C0000E944D3B882321F081E08D838FE71CC035
:1052D0000B818A81080F123031F0143039F4CE017D
:1052E0000E940A2903C0CE010E941E298B819A8147
:1052F000890F081711F081E08D838D81882319F0C3
:10530000CE010E942B29812FDF91CF911F910F9108
:105310000895EF92FF921F93CF93DF931F92CDB723
:10532000DEB77C0181E0F701858311E0C701698365
:105330000E9458296981811102C0F7011682F70184
:105340009681911108C0883031F481E08683838191
:105350009281890F09C0662311F0F701158381300E
:1053600029F79111E3CF8FEF0F90DF91CF911F912C
:10537000FF90EF900895CF93DF93CDB7DEB72997D5
:105380000FB6F894DEBF0FBECDBF62ED73E0CE0165
:1053900001960E94802E60E0CE0101960E9489292C
:1053A000813049F0823051F081110BC08EE693E0DC
:1053B0000E948512F0CF0E946F26EDCF0E948A11C5
:1053C000EACF87FFE8CF29960FB6F894DEBF0FBE6D
:1053D000CDBFDF91CF910895262F443019F06FEFA4
:1053E0007FEF02C061E070E0223091F028F42223C8
:1053F00049F0213051F00895243081F060F02530DB
:1054000081F008950B960C9472150B960C94161659
:105410000B960C9460160B960C94C1150B960C947D
:10542000E2150B960C94C016EF92FF920F931F9308
:10543000CF93DF93EC018B017A016AED73E00E9458
:10544000802E8FEF898784EB90E0998388838AE1AF
:10545000F801DE011B9601900D928A95E1F7FEA2FC
:10546000EDA2DF91CF911F910F91FF90EF900895E2
:105470000F931F93CF93DF93CDB7DEB728970FB667
:10548000F894DEBF0FBECDBF8C01BC01695E7F4FBB
:1054900027EA37E04EE050E0CE0101960E94AB28AB
:1054A000CE0101960E94B62881E0F80185832896F6
:1054B0000FB6F894DEBF0FBECDBFDF91CF911F9125
:1054C0000F910895CF93DF93EC010E948D360E94D7
:1054D000853681EA97E00E94A2370E9489366EE005
:1054E000CE0147960E9457370E94AD1383E0DF91AB
:1054F000CF910C948E34CF93DF93EC016DA17EA1FC
:105500006F5F7F4F0B960E94F213CE01DF91CF9118
:105510000C94622ACF93DF93EC016DA17EA16F5FA3
:105520007F4F0B960E944B14CE01DF91CF910C94CC
:10553000622ADF92EF92FF920F931F93CF93DF9334
:10554000CDB7DEB76A970FB6F894DEBF0FBECDBFFA
:105550008C018AE1D82EC8010B967C0160E0C8015D
:105560000E94892987FD30C0873041F0883051F092
:10557000863061F4C8010E947B2AF0CFC8010E94E6
:10558000382AECCFC8010E948A2AE8CFF701DE0151
:1055900011969D2D01900D929A95E1F7682FC80103
:1055A0000E94DE27811109C0FE013196D7018D2DA1
:1055B00001900D928A95E1F7D1CF83E00E948E345D
:1055C000C7010E943D16CACF6A960FB6F894DEBF97
:1055D0000FBECDBFDF91CF911F910F91FF90EF9044
:1055E000DF9008951F93CF93DF93EC01162F0E9455
:1055F0007B2ECE0109960E946D34882311F02985F7
:1056000001C02FEF332727FD3095812F90E0281719
:105610003907B1F11230F9F058F41123A9F0113023
:1056200079F5CE010B96DF91CF911F910C94021565
:105630001430F9F0B8F0153019F5CE010B96DF9162
:10564000CF911F910C94AF16CE010B96DF91CF91A5
:105650001F910C94FC14CE010B96DF91CF911F91FA
:105660000C943015CE010B96DF91CF911F910C94C5
:105670002415CE010B96DF91CF911F910C942A1522
:10568000DF91CF911F910895DC011796ED91FC9168
:105690001897E60FF11D64918EEE93E00C94BA37E3
:1056A0000F931F93CF93DF93EC018B0180E061E0B8
:1056B000680FF801E80FF11DE491E83011F0862F32
:1056C000F6CFCE010E94FE288CEB90E09983888370
:1056D00018870F83DF91CF911F910F91089588EA6A
:1056E00093E00E94C713833039F0823041F081117A
:1056F00009C089EA94E0089580EA94E0089582EB75
:1057000094E0089587E994E008950F931F93CF9351
:10571000DF93EC011092C0040E9464140E946F2B6E
:105720008C0160E0C8010E94892987FD1BC0D80157
:105730001796ED91FC911897E80FF11D87FDFA95EA
:105740008491883061F4BE0188EA93E00E94481594
:10575000CE010E94721481E00E940311DFCF0E94EB
:105760000A12DFCFDF91CF911F910F91089560E171
:1057700074E082EB94E00E94502B65E074E089EACB
:1057800094E00E94502B69E074E080EA94E00E946B
:10579000502B60E074E087E994E00C94502B0F9359
:1057A0001F93CF93DF93EC018B0163E274E00E94BF
:1057B000802E8FEF898782EC90E0998388838AE33B
:1057C000F801DE011B9601900D928A95E1F7DF91B9
:1057D000CF911F910F910895DF92EF92FF920F9357
:1057E0001F93CF93DF93CDB7DEB7EA970FB6F89448
:1057F000DEBF0FBECDBF7C018C01055F1F4F8AE36A
:10580000D82E60E0C7010E94892987FD2AC089310E
:1058100039F4C8010E944D1283E00E948E34F1CF0A
:10582000F801DE0111969D2D01900D929A95E1F7F8
:10583000682FC7010E94DE27811109C0FE01319641
:10584000D8018D2D01900D928A95E1F706C083E075
:105850000E948E34C8010E945312C8010E945E1239
:10586000D0CFEA960FB6F894DEBF0FBECDBFDF9162
:10587000CF911F910F91FF90EF90DF90089564E614
:1058800070E00E94483DCB0163E00E94713983E4DF
:105890000C94393768EE73E00E94483DCB0163E019
:1058A0000E94713986E50C943937CF93DF9364E613
:1058B00070E00E94483D9B01EC0163E0C9010E9439
:1058C00071398EE20E943937CE016AE070E00E94A1
:1058D000483D862F0E94FB3784EF98E0DF91CF91FF
:1058E0000C94A237CF93DF93EC012B9643E6CE01C5
:1058F0000E942513CE01DF91CF910C945E1241E0FE
:1059000041960C94251344E0C9960C942513FC0190
:1059100061AD89E194E00C94BA370B960E943D1278
:1059200024E630E040E050E00E945C3D65E0C901C3
:105930000E94713980E30E94393780E30C94393733
:10594000FC0124E6269FC001279F900D1124208191
:105950003181820F931F8436910510F484E690E024
:1059600091838083808191818D3A964220F08CEAE8
:1059700096E2918380830895FC012AE0269FC0016E
:10598000279F900D112420813181820F931F8A302F
:10599000910510F48AE090E0918380838081918169
:1059A000893E934020F088EE93E0918380830895B0
:1059B000FC0128EE33E0629FC001639F900D729F4F
:1059C000900D112420813181820F931F88352BE1A6
:1059D000920710F488E59BE1918380838081918117
:1059E0008133954720F080E395E791838083089584
:1059F000FC0180819181680F791F6330710518F077
:105A00007183608304C083E090E091838083808110
:105A10009181893C910520F088EC90E0918380830E
:105A20000895FC0185A596A5680F791F6D3D8FEF40
:105A300078071CF076A765A704C08DED9FEF96A7A9
:105A400085A785A596A5849724F083E290E096A784
:105A500085A70895FC0187A590A9680F791F693172
:105A60002CEF72071CF070AB67A704C089E19CEFB4
:105A700090AB87A787A590A9883E934024F087EE36
:105A800093E090AB87A70895FC0180819181680F16
:105A9000791F6C3E8FEF78071CF07183608304C020
:105AA0008CEE9FEF91838083808191811816190677
:105AB00014F41182108208950F931F93262F4430FF
:105AC00019F06FEF7FEF02C061E070E0022F10E08D
:105AD0000931110508F062C0F801EE5CFF4F0C942B
