:100000000C94FB040C9423050C9423050C942305F9
:100010000C945E070C9423050C9423050C94230583
:100020000C9423050C948E070C9423050C94230543
:100030000C9423050C941D080C9452080C94230571
:100040000C943A070C9423050C9423050C94230577
:100050000C942305AB11B411BA11BD11C011C71115
:10006000C411CE11432D472D492D4E2D522D542D07
:10007000592D5C2D5E2D632D662D692D6F2D722DF2
:10008000752D782D7B2D802D842D882D8B2D8E2DFB
:10009000932D962D9A2DC72DCB2DCE2DD52DD72D29
:1000A000DA2DE12DE72DEB2DEF2DF72DFF2D0A2E6B
:1000B0000C2E102E182E202E272E2B2E2F2E312ECA
:1000C000332E3B2E3D2E432E18351A351C35203548
:1000D00020351E3524352235933975397E397739E7
:1000E000803970397C390000000048A50C4C0000B4
:1000F00000007C6B0831850032007D09E803800038
:10010000320057012C0100000000C0AE4E5AFC53D3
:1001100050143FA0540B00000000A8D5803E80186A
:100120006009DC37701700000000000000000000CC
:10013000000040C7370F0000000080C7300F0000EC
:10014000000040CA310F00000000E1C7340F00007A
:100150000000B7C6400F00000000B7C6400F1800EF
:100160003200B002E80348003200D0002C01FF004A
:1001700000000A00050400000004090000FF01015E
:10018000000A010505000001040A0000FF02020048
:1001900000020506000002040B0000FF030300003C
:1001A000030507000003040C0000FF0000000A0420
:1001B0000511020004040D0000FF0101000A0505FD
:1001C00011040005040E00000605110100FF0202E3
:1001D00000000705110800DB0100006F7074696FF3
:1001E0006E730080250000004B00000096000000A8
:1001F000E1000000C2010046008813701700007083
:100200001764000100FBFFF1FF000005001E000164
:10021000000A0032007800102700000000000001F2
:1002200000080000000000030000000000000000C3
:1002300000E408DF08DA08D508D008CB08C608C1F2
:1002400008BC08B7080000980898086C07102758E1
:100250000201009808F4016C070100E00102009817
:1002600008F4016C070100E00103009808DC006C51
:10027000070600E0010400980898086C070300785E
:10028000000500980898086C07030078000600989D
:100290000898086C07030078000700980898086C15
:1002A00007030078000800980898086C0703007896
:1002B000000900980898086C070300780001000105
:1002C00000010001000100B0041C075203000052AD
:1002D00003B0040807E8030000E803D0079209D63A
:1002E0000600006C07E40C100ED007E40CB80B10ED
:1002F0000E0410C409A60EAC0D740E6810B80B0ADB
:100300000F890C740ECC10B80B0A0F890C740EFEFA
:1003100010B80B0A0F890C40066C071405400678CC
:100320000558179A1788183B1A361A6A1A2D1BC0D7
:100330001B391BC91BC61BD01BF71BFE1B211CAE88
:100340001E7E1E841ED1200319D320000116060E26
:1003500006000025061E06000035062C0600004695
:10036000063E06000064002C016400E80354064EBB
:1003700006000061065A06000006090A0B0C0D0E65
:10038000061F20212223241312970691068B06852F
:10039000067F06790673066D0667060000D906D04B
:1003A00006C406B806AC069D0600000E090409F650
:1003B000080000590754074F074A0745073E073210
:1003C0000728071D070000730964095C09520946E4
:1003D000093E092F0924091709000304070800032F
:1003E00007080001020304070800010203040506D0
:1003F00007089F079807920789078007A8089D08A4
:10040000920886087B08740868085F0856084F0839
:10041000430839082D08200816080C080108F707BA
:10042000EE07E207D607CC07C007B907B107A80750
:10043000000020202D2D202000636865616C692D4F
:10044000636861726765720A76302E39395F3230BF
:100450003135303130380063616C69626174696FC5
:100460006E206572726F7200706C656173652063D7
:10047000616C69627261746500656570726F6D2090
:1004800072657365740A6572726F723A20007265E4
:1004900073657474696E6720656570726F6D002096
:1004A0006E6F202020202020202020796573006599
:1004B0006570726F6D2072657365743A00524556AF
:1004C0004552534520504F4C4152495459004E2FEC
:1004D00041006572726F723A2020202000636F6DB8
:1004E000706C6574653A20001D3300800000403157
:1004F000FFFF0480B032FFFF04808931FFFF2480BA
:100500007032000108807C320001088090320001C6
:100510000080082F00C000000C2F00C00000102F2A
:1005200000400480142F004004801332FFFF048039
:10053000D331FFFF00804D32FFFF00009133800078
:1005400000803132FFFF00000000FFFF00002500A7
:10055000202D2D3A2D2D0064656C746120543D20B2
:10056000004E2F4100546578743D0064656C7461E1
:1005700020563D20006D6178566F75743D005469BA
:100580006E743D002D00546578743D00206C696DDB
:1005900069743D0056696E7075743D0077697265C7
:1005A0007320523D00626174742E20523D0062201F
:1005B000004C696D6974733A20006E6F2064542F8B
:1005C000740025200043684342426C44694643530B
:1005D0007453424359000100010001000100010071
:1005E0000A00640001000300080009000A000B0073
:1005F0000C00010002000400060008000A000C00C4
:10060000141719181A0705061F2021222324566DD6
:10061000696E75733A0056706C75733A2000766196
:100620006C75653A0074656D703A2000706F696E84
:100630007420322E00706F696E7420312E00496F65
:1006400075743A20200076616C75653A200033306D
:10065000306D41003130306D4100313030306D410E
:10066000003130306D4100566F75743A0056312DAF
:10067000363A005662363A20005662353A20005625
:1006800062343A20005662333A20005662323A20F1
:10069000005662313A200056696E3A200065787043
:1006A0006572742044414E474552210074656D7057
:1006B00020696E7465726E0074656D702065787463
:1006C00065726E00492064697363686172676500D2
:1006D000492063686172676500766F6C7461676555
:1006E0000062616C616E636520706F7274210062DC
:1006F0006174746572792100646973636F6E6E65ED
:10070000637400636F6E6E6563740064542F647469
:10071000002D64560056206C696D69740052657333
:100720006574206E616D650045646974206E616D4D
:100730006500437265617465206E616D6500546C7F
:10074000696D3A200049643A200049633A20004329
:10075000683A2000563A2020004261743A20200076
:100760004E616D653A0045646974206E616D653A4D
:10077000006D5600206E6F0079657300496E66004B
:100780006578742E20416463006578742E2064655A
:1007900062006465627567006E6F726D616C006403
:1007A000697361626C6564002020207265736574F2
:1007B0000073706565643A2000554152543A200038
:1007C000616463206E6F6973653A200062616C2E0C
:1007D000206572723A00666F7263652062616C3ADE
:1007E00020006469732061677265733A20006F2E80
:1007F00064697363683A006F2E6368617267653A73
:1008000000696E707574206C6F773A0063617020B8
:10081000434F66663A006D696E20496F75743A0001
:100820006D696E20496F75743A20492F00626565C5
:10083000703A20202020202000442F43207265732E
:10084000743A00442F43206379636C65733A005215
:10085000776972653A004E6943642064563A004EE7
:10086000694D482064563A00656E61622064563ACC
:100870002020200064542F64743A00657874726EEE
:100880002054434F3A00657874726E20543A202009
:1008900020006469736368206F66663A0066616E63
:1008A000206F6E3A202020006261636B6C6967687C
:1008B000743A00432F6D004E695A6E004C34333544
:1008C000004C343330004C69706F004C696C6F0021
:1008D0004C6966650050622020004E694D48004E0C
:1008E00069436400556E6B6E006D696E2E006E6F0D
:1008F0006C696D6974007265736574206465666106
:10090000756C740063616C69627261746500736513
:100910007474696E677300656469742062617474CD
:1009200065727900443E4320666F726D6174007396
:10093000746F726167652B62616C616E63007374C2
:100940006F726167650066617374206368617267C6
:1009500065006469736368617267650062616C61F8
:100960006E6365006368617267652B62616C616EBE
:10097000636500636861726765006578742E7465ED
:100980006D702E6375746F66660074696D65206C9A
:10099000696D69740063617061636974792063755E
:1009A000746F666600696E707574205620746F20CF
:1009B0006C6F77004857206661696C7572650062DC
:1009C000616C616E63657220646973632E00696E89
:1009D000742E74656D702E6375746F666600626147
:1009E000747465727920646973632E00BD0589098A
:1009F0003C10892BDC3011241FBECFE5D8E0DEBFD0
:100A0000CDBF10E0A0E6B0E0E2EBFBE702C005904E
:100A10000D92AA3CB107D9F714E0AAECB0E001C0EE
:100A20001D92A63CB107E1F719E0C6EFD9E004C07A
:100A30002297FE010E946D3DCC3ED107C9F70E946E
:100A400037100C94D73D0C94000020E042E060E1A8
:100A50008AEC90E00E94BF3A0E9411080C94C105F4
:100A6000CF92DF92EF92FF92482F282F30E0A0E044
:100A7000BDE70E94D93C6B017C01A4E6B0E0A41B59
:100A8000B10924E630E00E94E83C6C0D7D1D8E1D0E
:100A90009F1D24E630E040E050E00E942A3DB9016D
:100AA0008DE0FF90EF90DF90CF900C94FB078823B0
:100AB00011F0909A089590980895089580FF02C0CB
:100AC000979A089597980895811102C0969A08956B
:100AD00096980895811102C0929A08959298089567
:100AE000811106C0939A0E94640580E00C946A0507
:100AF00093980895BC018EE00C94FB07BC018EE036
:100B00000C94FB0780FF02C0C09A01C0C09881FF0F
:100B100002C0C19A01C0C19882FF02C0C29A01C03E
:100B2000C29883FF02C0C39A01C0C39884FF02C069
:100B3000DE9A01C0DE9885FF02C0DF9A0895DF9833
:100B4000089580E00E94700580E00E94570580E0D3
:100B50000E945E0580E00E9482058C9A8B9A889A9A
:100B60008F9AB89AB99ABA9ABB9AD69AD79A8D9A06
:100B70008E9A8D9A8A9A089508958AEC90E00C9442
:100B8000143BD598D498DD98DC98BF9ABE9ABD9A4C
:100B90008EEA86B9369A089534B145B1E091DB000A
:100BA000E13131F12FB7F894832F90E0942BF0E0EE
:100BB000DF01AA0FBB1FAB52BD4F11969C938E93C2
:100BC0003091D300332391F0EE0FFF1FEE0FFF1F84
:100BD000E950FD4F4081518162817381480F591F57
:100BE000611D711D40835183628373832FBF0895FC
:100BF0002091DC003091D00047FD02C0232B02C0C1
:100C0000209523232093D00008950E944A21909399
:100C1000F4028093F3020E949E1A9093F60280934E
:100C2000F5028091D300882309F481C00E944A21F3
:100C30004091330350913403609135037091360332
:100C4000480F591F611D711D4093330350933403A6
:100C500060933503709336030E949E1A40913703C8
:100C6000509138036091390370913A03480F591F2E
:100C7000611D711D4093370350933803609339030E
:100C800070933A0380913B0390913C03019709F0E4
:100C90004CC08091FF0290910003A0910103B0919C
:100CA0000203B695A795979587958093FF02909339
:100CB0000003A0930103B09302038091F702909187
:100CC000F802A091F902B091FA02B695A79597950E
:100CD00087958093F7029093F802A093F902B0935E
:100CE000FA028091FB029091FC02A091FD02B0916A
:100CF000FE02B695A795979587958093FB029093F2
:100D0000FC02A093FD02B093FE0280910303909138
:100D10000403A0910503B09106038093030390930D
:100D20000403A0930503B09306030C94ED0C0895FF
:100D300008958091780390917903892BE9F040918F
:100D4000D8004423C9F081E090E00090D50002C0B3
:100D5000880F991F0A94E2F720913B0330913C03DE
:100D60002F703FB7F8945BB39BB3982B9BBB240FBA
:100D70002A95F1F75BBB3FBF08958091D2008F5F4A
:100D8000853108F080E08093D20085E0E4EDF0E06A
:100D9000A9EDB0E001900D928A95E1F76091D20043
:100DA0006F5F653108F060E085E0689FB001112455
:100DB00062597E4F45E050E084ED90E00E94713D25
:100DC0008091D20081110CC00E94050680913B03E6
:100DD00090913C0321E0892B09F420E02093D3007B
:100DE0000895CF93DF930E94CC058091D10091E0CC
:100DF000980F9093D100873079F118F4882359F037
:100E000033C0883069F1893079F51092D100DF91D3
:100E1000CF910C94BD068091D40087FD25C02FB7DB
:100E2000F8949091D40088B3392F3170C32F30E0FB
:100E3000D32FCC0FDD1FCC0FDD1F92FB332730F9F2
:100E4000C32B9270C92B90E2C902E00111248F716B
:100E50008C2B88BB2FBF08C0DF91CF910C949906D3
:100E60008091D500806287B9DF91CF9108958091FC
:100E7000D00008951F920F920FB60F9211242F9356
:100E80003F934F935F936F937F938F939F93AF9312
:100E9000BF93EF93FF930E94F106FF91EF91BF91F3
:100EA000AF919F918F917F916F915F914F913F9102
:100EB0002F910F900FBE0F901F9018951F920F92B9
:100EC0000FB60F9211242F933F934F935F936F931D
:100ED0007F938F939F93AF93BF93EF93FF930E9462
:100EE0005635FF91EF91BF91AF919F918F917F9177
:100EF0006F915F914F913F912F910F900FBE0F9087
:100F00001F90189588E085BD85B5846085BD14BCAB
:100F10008CE783BD89B7806889BF08951F920F92BF
:100F20000FB60F9211242F933F934F935F936F93BC
:100F30007F938F939F93AF93BF93EF93FF932091F2
:100F4000E4003091E5008091E0009091E100820F93
:100F5000931F9093E1008093E0002091E200309194
:100F6000E3008091DE009091DF00820F931F909349
:100F7000DF008093DE002FB7F8948091E00090911D
:100F8000E10035E0969587953A95E1F79BBD8ABDDE
:100F90008091DE009091DF0045E0969587954A9517
:100FA000E1F799BD88BD2FBF8091E0009091E100ED
:100FB0008F7199279093E1008093E0008091DE008B
:100FC0009091DF008F7199279093DF008093DE006E
:100FD0000E945D05FF91EF91BF91AF919F918F911D
:100FE0007F916F915F914F913F912F910F900FBE25
:100FF0000F901F9018959FB7F8948E3039F4709326
:10100000E5006093E4008FB5806808C08D3039F446
:101010007093E3006093E2008FB580628FBD9FBF45
:10102000089580E094E097BD86BD82E08FBD89E1A0
:101030008EBD89B7846089BF08951F920F920FB645
:101040000F9211242F933F934F938F939F93EF937E
:10105000FF935A991AC04CB18091FC019091FD0107
:10106000019699272091FE013091FF018217930785
:1010700069F0E091FC01F091FD01E450FF4F4083E5
:101080009093FD018093FC0101C08CB1FF91EF9121
:101090009F918F914F913F912F910F900FBE0F9085
:1010A0001F9018951F920F920FB60F9211242F9335
:1010B0003F938F939F93EF93FF932091FC01309187
:1010C000FD018091FE019091FF012817390711F46D
:1010D000559812C0E091FE01F091FF01E450FF4FDE
:1010E00020818091FE019091FF01019699279093B4
:1010F000FF018093FE012CB9FF91EF919F918F9199
:101100003F912F910F900FBE0F901F901895CF9287
:10111000DF92EF92FF92CF93DF93EC016A017B01A4
:10112000411581EE580761057105F9F0E885F985EB
:1011300081E090E00C8802C0880F991F0A94E2F7C2
:10114000808360E079E08DE390E0A70196010E9442
:101150002A3D215031094109510956954795379546
:101160002795211580E1380798F0E885F9851082E8
:1011700060E874E88EE190E0A70196010E942A3DA4
:1011800021503109410951095695479537952795C1
:10119000EC81FD813083EE81FF8120831D8AEA8509
:1011A000FB85408181E090E09C01098802C0220F0C
:1011B000331F0A94E2F7422B4083EA85FB85408186
:1011C0009C010A8802C0220F331F0A94E2F7422BC7
:1011D0004083EA85FB8520810B8802C0880F991F18
:1011E0000A94E2F7809582238083DF91CF91FF906C
:1011F000EF90DF90CF900895CF93DF93FC01828131
:101200009381DC01B395EC01CE5FDE4F4D915C9193
:1012100011972881398142175307C1F7A285B385F9
:101220004C9181E090E09C01018802C0220F331FA5
:101230000A94E2F7209524232C93A285B3854C9140
:101240009C01028802C0220F331F0A94E2F7209506
:1012500024232C93A285B3852C91038802C0880F88
:10126000991F0A94E2F7809582238C938081918163
:10127000FC01EE5FFE4F20813181FC01F39531834B
:101280002083DF91CF910895FC018589882329F07F
:10129000A085B1858C9186FFFBCF158A0895CF93E9
:1012A000DF93FC0122813381D901B3958D919C910B
:1012B000119701969927E901CE5FDE4F4881598148
:1012C00084179507D9F30D90BC91A02DA20FB31FE1
:1012D0006C93A281B381B39511969C938E93A28552
:1012E000B3852C9181E090E0038802C0880F991F9C
:1012F0000A94E2F7282B2C9381E0858B0084F185FA
:10130000E02D80818064808381E090E0DF91CF9147
:1013100008958CEF90E09093E7008093E60090931F
:10132000E9008093E80080E490E09093EB008093E4
:10133000EA0029E230E03093ED002093EC002BE24C
:1013400030E03093EF002093EE002AE230E030935B
:10135000F1002093F0009093F3008093F2008CE270
:1013600090E09093F5008093F40084E08093F60081
:1013700083E08093F70087E08093F80085E0809316
:10138000F90081E08093FA000895CF93DF931F92D4
:10139000CDB7DEB7E091C204F091C304309711F4E9
:1013A000E6ECF4E0CE0101962EEB8E179F0710F0CD
:1013B0002193FBCF0F90DF91CF910895CF93DF93CF
:1013C00000D0CDB7DEB72091C2043091C3042115FF
:1013D000310511F426EC34E0CE010196821B930B0B
:1013E0000F900F90DF91CF910895CF93DF931F92CD
:1013F000CDB7DEB72091C2043091C3042115310569
:1014000011F426EC34E0F901AE014F5F5F4FCF01DC
:10141000821B930B4E175F0728F060816E3B11F41F
:101420003196F5CF0F90DF91CF910895009741F05D
:10143000EFE9FFE03197F1F700C000000197F6CF28
:1014400008958436910538F064E670E00E94163DF8
:10145000CB010C94160A019728F025E32A95F1F7A1
:101460000000F9CF08956AE070E00E94163DCB01BC
:101470000C94210AE82FF0E0EE0FFF1FED54FD4F12
:10148000808191810895E82FF0E0EE0FFF1FE7596A
:10149000FD4F8081918108952FB7F894E82FF0E0F7
:1014A000EE0FFF1FEB52FD4F808191812FBF0895FA
:1014B00080913E03089580911D0290911E0208952F
:1014C00080910B0290910C02089580910D029091F1
:1014D0000E020895E82FF0E0EE0FFF1FE15EFD4FD2
:1014E000808191810895262F613110F4423040F0BF
:1014F00021E030E0FC01338322833183208308958F
:1015000050E0BA01620F711D620F711D660F771FE7
:10151000660F771F665F7F4F44E050E00C94923D6A
:10152000282FCA01213188F4623078F470E0620F0C
:10153000711D620F711D660F771F660F771F665F43
:101540007F4F44E050E00C94B03D0895FF920F931C
:101550001F93CF93DF9300D000D0CDB7DEB706EE58
:1015600010E0F12CF80145915591659174914983F2
:101570005A836B837C83AE014F5F5F4F60E08F2D9A
:101580000E94900AF80134964591559165917491A5
:1015900049835A836B837C83AE014F5F5F4F61E069
:1015A0008F2D0E94900AF394085F1F4F81E1F8127B
:1015B000D9CF81E00E94C8100F900F900F900F902C
:1015C000DF91CF911F910F91FF90089581E02091BD
:1015D0009302309194022331310509F080E008959F
:1015E0008091910290919202089580918D02909144
:1015F0008E020895809197029091980208958091AB
:10160000470290914802039750F080914D029091CB
:101610004E02039720F083E090E00C94D41780E012
:1016200008952FB7F89480E090E0FC01EE0FFF1FC3
:10163000EE0FFF1FE950FD4F1082118212821382BC
:1016400001968131910589F784E690E090933C03FF
:1016500080933B0310923D032FBF0895CF93CFB7E4
:10166000F89410921C0210921B0210921702109212
:1016700018021092190210921A021092130210927C
:101680001402109215021092160210920F0210927C
:10169000100210921102109212020E947E35909355
:1016A0000A0280930902CFBFCF9108950E942E0BAA
:1016B00010920E0210920D0210920C0210920B0268
:1016C0000895EFE1F2E01192119282E0E936F80715
:1016D000D1F70895CF93CFB7F89481E090E090933D
:1016E0003C0380933B0381E080933D030E94610BA8
:1016F000CFBFCF910895CF93DF930E946A0BC09123
:101700001D02D0911E0280911D0290911E02C817E9
:10171000D90729F48AE090E00E94A435F4CFDF9144
:10172000CF91089510923E0380E00C947005CF9302
:10173000DF9381E00E944C0AEC0180E00E944C0A99
:101740008C179D0718F4C81BD90B02C0C0E0D0E06D
:1017500081E0C93ED34008F480E0DF91CF91089545
:101760008F929F92AF92BF92CF92DF92EF92FF92B1
:10177000CF93DF93CDB7DEB728970FB6F894DEBFCF
:101780000FBECDBFF82E5B0161157105D1F140E0B0
:10179000682FCE0105960E94730A41E06F2DCE019D
:1017A00001960E94730A2B813C8140E050E0CF807B
:1017B000D884E12CF12C2C193D094E095F09B501A3
:1017C00080E090E08D809E80A12CB12C6819790971
:1017D0008A099B090E94FA3C29813A8140E050E045
:1017E000281939094A095B090E944C3D2C0D3D1D01
:1017F0004E1D5F1D57FF03C020E030E0A901C90165
:1018000002C080E090E028960FB6F894DEBF0FBECD
:10181000CDBFDF91CF91FF90EF90DF90CF90BF9041
:10182000AF909F908F9008958F929F92AF92BF92AA
:10183000CF92DF92EF92FF92CF93DF93CDB7DEB7D7
:1018400028970FB6F894DEBF0FBECDBFF82E5B0110
:1018500061157105D1F140E0682FCE0105960E9417
:10186000730A41E06F2DCE0101960E94730A29810F
:101870003A8140E050E0CD80DE80E12CF12C2C1943
:101880003D094E095F09B50180E090E08F809884A2
:10189000A12CB12C681979098A099B090E94FA3C8C
:1018A0002B813C8140E050E0281939094A095B0945
:1018B0000E944C3D2C0D3D1D4E1D5F1D57FF03C06A
:1018C00020E030E0A901C90102C080E090E0289644
:1018D0000FB6F894DEBF0FBECDBFDF91CF91FF9062
:1018E000EF90DF90CF90BF90AF909F908F90089532
:1018F0008250893130F4E82FF0E0EF58FF4F8081BB
:10190000089581E00895CF93DF93833149F481E016
:10191000209193023091940223313105C1F41AC011
:10192000E82FF0E0EE0FFF1FE759FD4FC081D18196
:101930000E94780C882319F0813029F00AC081E0D8
:10194000E39740F404C081E0C935D24018F480E048
:1019500001C081E0DF91CF910895CF93C0E08FE186
:101960008C0F0E94830C882329F0CF5FC630B9F713
:1019700086E001C08C2FCF9108951F93CF93DF9302
:101980001F92CDB7DEB7182F69830E94780CE12F24
:10199000F0E0EE0FFF1FE759FD4F4981682F80816E
:1019A00091810F90DF91CF911F910C9460392FB7E7
:1019B000F89460910502709106028091070290915F
:1019C00008022FBF2DE730E040E050E00E942A3DA2
:1019D000BB27A52F942F832F089580913B039091CF
:1019E0003C03892B49F080913B0390913C03019784
:1019F00090933C0380933B03089590E0880F991FD8
:101A0000FC01E759FD4F208131816217730718F4FB
:101A1000261B370B04C0AB01421B530B9A01FC0180
:101A2000E15EFD4F2730310518F01182108206C0AB
:101A3000208131812F5F3F4F31832083FC01E759A3
:101A4000FD4F7183608308958FB7F894109205025B
:101A500010920602109207021092080210920102E0
:101A60001092020210920302109204028FBF0E9491
:101A70006A0B0E94560B60E070E089E10E94FD0C49
:101A800060E070E08BE10E94FD0C60E070E08CE1B2
:101A90000E94FD0C60E070E08DE10C94FD0C109252
:101AA0001E0210921D020E94240DE9E6F2E011923E
:101AB000119282E0E33BF807D1F70895CF93C82F46
:101AC00080913E0381110CC081E00E947005C1111C
:101AD0000E944F0D81E080933E03CF910C947B0BCD
:101AE000CF9108950C944F0D80913E03882309F403
:101AF0004FC04091970250919802809105029091B9
:101B00000602A0910702B0910802840F951FA11D43
:101B1000B11D8093050290930602A0930702B09333
:101B200008028091000291E0980F9093000288359E
:101B300078F120918D0230918E02DA010E94D93C19
:101B400024E630E040E050E00E942A3D809101020E
:101B500090910202A0910302B0910402280F391F54
:101B60004A1F5B1F2093010230930202409303023D
:101B700050930402CA01B90120EA3CE840E050E079
:101B80000E942A3DB9018AE10E94FD0C10920002D8
:101B90000895CF92DF92EF92FF920F931F93CF930E
:101BA000DF931F92CDB7DEB7C0906902D0906A0272
:101BB00080916B0290916C028C159D0518F4C81AE7
:101BC000D90A02C0C12CD12CB60182E10E94FD0CC1
:101BD0000BE712E09FE1F801619171918F01892F6C
:101BE00099830E94FD0C99819F5F9532A1F70E9415
:101BF000AD0CF82E80E000E010E08F1569F0EFE109
:101C0000E80FF0E0EE0FFF1FE759FD4F2081318113
:101C1000020F131F8F5FF1CFB80183E10E94FD0C0B
:101C20000115110581F00C151D0520F49601201BEE
:101C3000310B03C098012C193D09293B3B4018F496
:101C4000680113E102C012E1F12CB60184E10E94A7
:101C5000FD0C6F2D70E086E10E94FD0C612F70E09D
:101C600085E10E94FD0C0E94D70C7C010E948F1A16
:101C7000882329F000916F02109170020BC00E941E
:101C80003B21882329F000916D0210916E0202C061
:101C900000E010E0B80187E10E94FD0CB70189E186
:101CA0000E94FD0C9801D6010E94D93C20E137E248
:101CB00040E050E00E942A3DB90188E10F90DF9199
:101CC000CF911F910F91FF90EF90DF90CF900C94E8
:101CD000FD0C4F925F926F927F928F929F92AF9284
:101CE000BF92CF92DF92EF92FF92CF93DF93CDB767
:101CF000DEB728970FB6F894DEBF0FBECDBF0E94A7
:101D00007E352091090230910A02821B930B8133A8
:101D1000954708F4A0C04FB7F89420911B0230916A
:101D20001C02A8EEB3E00E94D93C6B017C01F69442
:101D3000E794D794C794409017025090180260908F
:101D4000190270901A02609113027091140280912E
:101D500015029091160280900F0290901002A090B0
:101D60001102B09012024FBF6D837E838F839887DC
:101D70000E942E0B20910D0230910E022F5F3F4FDB
:101D800030930E0220930D026D817E818F819885A4
:101D9000A70196010E942A3D29833A834B835C83E5
:101DA000C301B201A70196010E942A3DB90180E05A
:101DB0000E94B00B3C0169817A8181E00E94B00BE6
:101DC0008615970518F4681A790A02C0612C712CDF
:101DD0004090A1025090A2026414750420F0B30157
:101DE0008CE10E94FD0CB301641975098BE10E941E
:101DF000FD0CC501B401A70196010E942A3DB9015D
:101E000087E00E94B00B20910B0230910C0290935E
:101E10000C0280930B02BC01621B730B660F771FD1
:101E20008DE10E94FD0CB6018EE128960FB6F89464
:101E3000DEBF0FBECDBFDF91CF91FF90EF90DF905F
:101E4000CF90BF90AF909F908F907F906F905F905A
:101E50004F900C94FD0C28960FB6F894DEBF0FBE81
:101E6000CDBFDF91CF91FF90EF90DF90CF90BF90EB
:101E7000AF909F908F907F906F905F904F9008955C
:101E8000CF92DF92EF92FF920F931F93CF93DF9346
:101E90002FB7F89480913B0390913C032FBF892B7F
:101EA00009F0ADC080913D0381119FC080911D025A
:101EB00090911E02019690931E0280931D02409104
:101EC000F7025091F8026091F9027091FA0276954A
:101ED0006795579547958091170290911802A091A8
:101EE0001902B0911A02840F951FA61FB71F809385
:101EF000170290931802A0931902B0931A0240910E
:101F0000FB025091FC026091FD027091FE027695F9
:101F10006795579547958091130290911402A0916F
:101F20001502B0911602840F951FA61FB71F80934C
:101F3000130290931402A0931502B09316024091DD
:101F40001303509114036091150370911603769555
:101F500067955795479580910F0290911002A09137
:101F60001102B0911202840F951FA61FB71F809314
:101F70000F0290931002A0931102B093120280916D
:101F80001B0290911C02019690931C0280931B02ED
:101F90000E94690E03EB12E0C0E0D0E0B8EECB2E59
:101FA000B3E0DB2EE12CF12CFE01EE0FFF1FEE0F54
:101FB000FF1FE950FD4F6081718182819381A701EC
:101FC00096010E942A3DF801219331938F01B901B6
:101FD0008C2F0E94B00BBC018C2F0E94FD0C21960F
:101FE000C131D10509F70E94C90DDF91CF911F9131
:101FF0000F91FF90EF90DF90CF900C94110BDF9139
:10200000CF911F910F91FF90EF90DF90CF900895A7
:1020100080913E0381110C94400F089560E08FE39E
:1020200093E00E945B2987FD0AC0811102C00C94D5
:102030008D29992787FD909501970C94572B08952A
:102040000E94A10578940E9425050E9482070E94A3
:10205000F2210E94261B0E94720D0E94C5090E9457
:1020600030120E94B02F0E94D4300C944E110E9466
:1020700020100E940E10FDCF67ED71E08FE393E01A
:102080000E94522E8EE890E09093400380933F038D
:10209000E3E4F3E08081825E80830895FC01248183
:1020A0002E51621710F40C944D2E862F90E0821B57
:1020B00091090E940A156EE00C94AE37FF920F93BF
:1020C0001F93CF93DF93EC018B0141110E94D13D0F
:1020D00085E0F82EFA9459F0CE010E94AA3D8017AF
:1020E000910739F084E690E00E949035F3CF81E0CB
:1020F00001C080E0DF91CF911F910F91FF90089573
:10210000EF92FF920F931F93CF93DF937B018C018C
:10211000E80EF91ECFEFDFEF0E151F05A9F0C8017D
:102120000E94A23DC82728E0CE01969587953C2FB6
:10213000EC0130FF04C031E0C32730EAD32721503F
:1021400099F70F5F1F4FE8CFCE01DF91CF911F911D
:102150000F91FF90EF900895EF92FF920F931F93CE
:10216000CF93DF931F92CDB7DEB78C017B014983FC
:102170000E9480104981BC01C8018E0D9F1D0F90E7
:10218000DF91CF911F910F91FF90EF900C945E1013
:10219000482F68E870E08AE090E00C94AC10482F7B
:1021A0006CE073E084E990E00C94AC10482F6AE393
:1021B00070E082EA93E00C94AC101F93CF93DF930E
:1021C000D82F182F1170412F63E678E680E090E059
:1021D0000E945E10C82F412F6CE679E682E090E005
:1021E0000E945E108111C1E0D1FB442740F969E0F3
:1021F00070E084E090E00E945E108111C260D2FB2A
:10220000442740F962E070E086E090E00E945E10B2
:102210008111C460D3FB442740F967E070E088E097
:1022200090E00E945E108111C860D4FD0E94A60A51
:1022300080E00E94C8108111C061D5FD0E94521635
:1022400080E00E94CF108111C062D6FD0E944B1227
:1022500080E00E94D6108111C0648C2FDF91CF9155
:102260001F910895CF93C82F0E948F30882399F033
:10227000C0FDC260C1FDC461C2FDC862C3FDC064CF
:102280000E94AC308C2F0E94DD10682F8C2F0E9492
:10229000B03081E001C080E0CF91089580E00E94DD
:1022A000DD1081110C94321181E0089580E00E94CC
:1022B000DD1081600C943211CF930E94A62F8DE225
:1022C00093E09093CC038093CB03C1E0C093CA0307
:1022D0001092C20386E893E00E949313823011F4B7
:1022E000C093C2030E94F31991E0813009F090E09D
:1022F000892FCF91089561E081E00E941C1989E344
:1023000093E09093CC038093CB03089561E081E048
:102310000E941C1985E493E09093CC038093CB0337
:10232000089560E082E00E941C1987E293E0909398
:10233000CC038093CB030895909166039093C303DD
:102340001092C20390E08830910560F5FC01E65DD3
:10235000FF4F0C946B3D86E893E00E94931381112C
:1023600006C00E9486111CC081E08093C2030E94B7
:102370007B1116C081E293E00CC00E94911110C045
:1023800085E08093C303F3CF81E08093C2038FE3A2
:1023900093E09093CC038093CB0302C00C94A516DA
:1023A0000C94F3190E94FC2F80E00895CF93C82F5E
:1023B0000E942427882359F1C0934B0310924903AC
:1023C0001092480383E080934A030E94553B81E0CA
:1023D0000E945E0D0E945C11882391F081E0809341
:1023E0004A030E94371D0E94A62F1092CA0384E060
:1023F0000E945C3480914B030E949C110E94751DC9
:102400000E94920B0E94653BCF910C94AF2FCF910D
:102410000895DC01D096ED91FC91D197EE0FFF1F4E
:10242000EE0FFF1FED51FE4F6591759185919491CF
:1024300008954AE350E067EF71E00C94713DFC01B0
:10244000248935892630310520F025E030E0358BB0
:10245000248B0895FC0180810E9430050C94FF1CA0
:102460004AE350E062EA73E08CE493E00E94923D1C
:102470008CE493E00C942A124AE350E062EA73E0A1
:102480008CE493E00E94B03D81E00E94D6108CE481
:1024900093E00C942A128CE493E00E9419120C949D
:1024A0003C120F931F93CF93DF93CDB7DEB7C55484
:1024B000D1090FB6F894DEBF0FBECDBF8C01BC01B1
:1024C000CE0101960E94A12BCE0101960E94BE2B47
:1024D0008AE3FE013C96D80101900D928A95E1F7BE
:1024E0000E943C12C8010E942A12CB5BDF4F0FB63C
:1024F000F894DEBF0FBECDBFDF91CF911F910F913A
:102500000895FC0125913491F901099440E0FC0102
:10251000259134910296232B11F04F5FF8CF842F31
:102520000895EF92FF920F931F93CF93DF93EC01E7
:102530007B018A0185E00E94430A8E159F0518F4ED
:10254000188281E007C00817190718F481E0888312
:1025500001C080E0DF91CF911F910F91FF90EF902C
:102560000895282F81E090E03AE0215038F0AC0146
:10257000349FC001359F900D1124F7CF089597FD2A
:1025800002C081E008958FEF0895CF92DF92EF921D
:10259000FF92CF93611571058105910521F461E0EA
:1025A00070E080E090E0C0E02AE0C22ED12CE12C67
:1025B000F12CCF5FA70196010E942A3DCA01B90103
:1025C0002115310541055105A1F78C2FCF91FF90C1
:1025D000EF90DF90CF900895BC0180E090E00C94E4
:1025E000C512FC0120813181260F371F37FF03C040
:1025F00011821082089550E0421753071CF4518352
:1026000040830895318320830895FC012081318126
:10261000260F371F121613062CF081E090E09183ED
:102620008083089550E0421753071CF45183408380
:1026300008953183208308958F929F92AF92BF9225
:10264000CF92DF92EF92FF920F931F93CF93DF937E
:102650006C015B014A01E901FC01E080F180B701F6
:1026600080E090E00E94C512209749F4823028F063
:1026700082500E94B112EC0102C0C1E0D0E0C7015B
:10268000BE010E94163D009741F01A141B041CF471
:10269000C81BD90B05C0EC0111C01A141B0474F43B
:1026A000C4018C1B9D0BE816F90618F4CE0DDF1D36
:1026B00001C0E401F601D183C0830EC010E0C8015F
:1026C0008C0F9D1F8E159F0518F4EC1AFD0A01C092
:1026D0007801F601F182E082DF91CF911F910F9195
:1026E000FF90EF90DF90CF90BF90AF909F908F9032
:1026F00008950E94E9358111FCCF0E94E9358823B5
:10270000E1F30895CF93CAE00E94BD35811108C05E
:1027100084E690E00E94A435C150B1F780E001C08A
:1027200081E0CF910895FC018081918189309105EC
:1027300079F09C01245031092530310558F09C0175
:102740002150310981E02230310528F480E00895DC
:1027500083E0089582E008950F931F93CF93DF9352
:10276000EC018B0150E00E94B3364AE3B801CE0180
:10277000DF91CF911F910F910C945F36EF92FF92F2
:102780000F931F93CF93DF9300D01F92CDB7DEB787
:102790008C01462F0C969A8389838EE08B83D80117
:1027A000ED91FC91EE0FFF1FEF5CFD4FE590F49073
:1027B000BE016D5F7F4FCE0101960E94AC13A70151
:1027C000BE016D5F7F4FCE0101960E947A3640E2D6
:1027D000BE016D5F7F4FCE0101960E945F36F8010A
:1027E00042815381BE016D5F7F4FCE0101960E94F1
:1027F000B3364FE2BE016D5F7F4FCE0101960E945E
:102800005F36D80118964D915C911997BE016D5FA6
:102810007F4FCE0101960E94B3360F900F900F901C
:10282000DF91CF911F910F91FF90EF900895CF937B
:10283000DF9300D01F92CDB7DEB7462F2EE02B835B
:102840000C969A838983BE016D5F7F4FCE010196FE
:102850000E94AC130F900F900F90DF91CF910895CD
:102860002AE1289FB001299F700D11246C567F4FDB
:102870004AE150E086E893E00C94923D2AE1289FDB
:10288000B001299F700D11246C567F4F4AE150E032
:1028900086E893E00C94B03DFC018081918125E0B5
:1028A000289FF001299FF00D1124E60FF11DEE0F76
:1028B000FF1FE354FD4F859194910895DC018D91A4
:1028C0009C91119725E0289FF001299FF00D11247C
:1028D000E60FF11DEE0FFF1FE354FD4F859194911C
:1028E00018962D913C911997AC01429FC001439FCE
:1028F000900D529F900D11240895FC01A281B38187
:1029000020916A0330916B030E94D93C24E630E0A9
:1029100040E050E00E942A3D293EFDEF3F0741057F
:10292000510520F028EE3DEF40E050E0C901089548
:10293000FC01208131812130310529F420915C0393
:1029400030915D030AC02230310529F420915A03E9
:1029500030915B0302C020E030E0FC01808591856E
:10296000AC01249FC001259F900D349F900D112430
:102970000895FC01208131814CE0429FB001439FCA
:10298000700D11246B5B7D4F4CE050E00C94713D59
:10299000FC01608181E392E00C948837CF93DF9350
:1029A000EC018881998160E0892B41F4CE010E947D
:1029B0005E1467E0DF91CF910C94A839CE010E949C
:1029C0005E1465E00E94A8398FE20E94073788856F
:1029D00099850E94463783E4DF91CF910C940737A5
:1029E00066E0FC01848195810C94A43966E0FC01C9
:1029F000868197810C94A439FC0182819381883E61
:102A0000FDEF9F0721F48EEE98E00C94703767E09D
:102A10000C94A0392AE1AC01249FC001259F900DA0
:102A2000112480569F4F08950F931F93CF93DF93E8
:102A3000CDB7DEB7A7970FB6F894DEBF0FBECDBFF8
:102A40008C01AB01BC01CE0101960E94E629CE01AA
:102A500001960E946B2A8AE1FE013C96D801019002
:102A60000D928A95E1F7A7960FB6F894DEBF0FBED8
:102A7000CDBFDF91CF911F910F910895FC0120816F
:102A80003181260F371F2A30310550F016161706F0
:102A900024F4FC011182108205C029E030E0FC0121
:102AA000318320830C94B91462E00E945E14805438
:102AB0009F411816190614F081E090E09C0144270C
:102AC00037FD4095542F60E074E887ED97E10E9450
:102AD0002A3D21328EE438074105510520F020E2DD
:102AE0003EE440E050E0C901089562E00E945E14B7
:102AF0009C0140E050E060E478E78DE791E00E94BF
:102B00002A3D293883E138074105510520F028E89E
:102B100033E140E050E0C9010895EF92FF920F9336
:102B2000CF93DF9300D0CDB7DEB77C01009168036F
:102B3000000F69837A830E94541520E030E0AC01D5
:102B400069817A81C70104960E941C130F900F902F
:102B5000DF91CF910F91FF90EF900895EF92FF9248
:102B60000F93CF93DF9300D0CDB7DEB77C010091F8
:102B70006803000F69837A830E94751520E030E0B6
:102B8000AC0169817A81C70106960E941C130F90DF
:102B90000F90DF91CF910F91FF90EF900895FC017E
:102BA000808191812AE0289FF001299FF00D112456
:102BB000E154FD4F6591749184ED92E60E94163DBB
:102BC000CB010895EF92FF920F93CF93DF9300D044
:102BD000CDB7DEB77C0169837A830E94CF15F701F8
:102BE0002081318169817A81232B19F422E330E03D
:102BF00002C020E030E001E0AC01C70108960E946D
:102C00001C130F900F90DF91CF910F91FF90EF90D9
:102C10000895CF93DF93EC010E94CF152885398565
:102C20008217930710F499878887CE010E94541564
:102C30002C813D818217930710F49D838C83CE01F4
:102C40000E9475152E813F818217930710F49F8390
:102C50008E83DF91CF9108950F931F93CF93DF93CE
:102C6000EC0104E620E030E048EE5DEF02960E94C1
:102C70001C130A811B811D830C83CE010E949313B8
:102C8000813039F4C80196958795969587959D83EF
:102C90008C831F830E83CE01DF91CF911F910F9103
:102CA0000C9409160F931F93CF93DF934CE050E0E1
:102CB0006DE872E086E893E00E94713D86E893E05B
:102CC0000E940916C0E0D0E08E010F5F1F4FB801CF
:102CD00086E893E00E941714CE010E943E140E3144
:102CE000110511F0E801F0CF81E0DF91CF911F9144
:102CF0000F910C94CF10FC0182859385883EF3E000
:102D00009F0719F48EEE98E005C063E00E943F39FA
:102D100089EE98E00C9470370F9301E020E030E0EA
:102D200048EE53E00A960E941C130F91089580917B
:102D30006203909163030E94EB1B83E393E0909303
:102D4000CC038093CB030C94F31981E08093CA03E6
:102D50001092A0034091A003242F30E080916003E3
:102D600090916103880F991F01972817390711F473
:102D70001092CA0340FF02C080E001C083E00E94BD
:102D80009C11813089F49091CA03992369F0809154
:102D9000A0038F5F8093A0030E941A1D0E94240D40
:102DA0000E9497168130B1F208958091BF0381117E
:102DB00013C00E94580A882381F00E945B0A209168
:102DC000A1033091A203821B930B9C0181E025306B
:102DD000310518F080E0089581E00895815E0C943B
:102DE000430A0F931F93CF93DF9310E0CFEFDFEFF2
:102DF00000E08091C103181760F4812F0E94EE1645
:102E00008C179D0710F0CE0101C0012F1F5FEC0150
:102E1000F0CF802FDF91CF911F910F910895CF9325
:102E2000DF939091BF03911104C0DF91CF910C9477
:102E3000EE169091A503C82FD0E0992391F00E943F
:102E4000EE16CC0FDD1FFE01EA55FC4FCE54DC4FD1
:102E50002081318148815981241B350B280F391F6E
:102E600007C0FE01EE0FFF1FEA55FC4F20813181A4
:102E7000C901DF91CF910895CF93C82F8091BF03EF
:102E8000882341F0C11106C00E945B0A9093A203FF
:102E90008093A103C093BF030E94610B8091BE0386
:102EA000811104C08C2FCF910C948205CF9108958D
:102EB000EF92FF920F931F93CF93DF9381E00E94D5
:102EC000BC0586E10E94430A8093C10302EB13E034
:102ED00036EAE32E33E0F32EC0E0D0E08091C10368
:102EE00090E0C817D9076CF48C2F0E94EE16F801F9
:102EF000819391938F01F701819391937F012196A3
:102F0000EDCF1092BF031092BE0380E00E943C17E9
:102F10001092A2031092A103DF91CF911F910F9104
:102F2000FF90EF90089580E00E943C1781E080932D
:102F3000BE0308950E94931780E00C94BC05FF9295
:102F40000F931F93CF93DF938091C0030E940F17BD
:102F5000EC01F12C01E010E08091C103F816E8F4D7
:102F60008F2D0E940F17AC018091BF03802321F0A9
:102F7000C417D50778F40DC02091760330917703FC
:102F80002F5F3F4F369527952C0F3D1F2417350790
:102F900008F4102B000FF394DFCF812FDF91CF9136
:102FA0001F910F91FF9008951F93CF93DF93EC0132
:102FB00010E08091C103181748F48FE1810F0E943F
:102FC0006A0A8C179D0720F01F5FF3CF81E001C0D4
:102FD00080E0DF91CF911F910895BF92CF92DF9251
:102FE000EF92FF920F931F93CF93DF938AE090E0CD
:102FF0000E94D417882309F45CC00E94F1168093C4
:10300000C0030E94EE168C0162E086E893E00E9405
:103010004C140817190748F176EAE72E73E0F72EEB
:10302000E2EBCE2EE3E0DE2EC0E0D0E0BB24B39492
:103030008091C10390E0C817D907CCF48C2F0E946F
:10304000EE16F701819391937F01F601819391939D
:103050006F01801B910B2091760330917703281725
:10306000390708F4B12C2196E3CFBB24B394109216
:10307000A5030E9486359093A4038093A303BB20ED
:1030800059F0DF91CF911F910F91FF90EF90DF905A
:10309000CF90BF900C9493170E949F17DF91CF9110
:1030A0001F910F91FF90EF90DF90CF90BF900C9405
:1030B0003C17DF91CF911F910F91FF90EF90DF9020
:1030C000CF90BF900895CF938091A503811115C033
:1030D00081E08093A503C0E08091C103C81768F424
:1030E0008C2F0E94EE16EC2FF0E0EE0FFF1FEE5437
:1030F000FC4F91838083CF5FEFCFCF9108950E94E3
:1031000086352091A3033091A403821B930B08956D
:1031100083E090E00E94D417882391F08091BF0350
:10312000811103C00E94ED170BC00E9463180E941A
:103130009F170E947F184F9718F080E00E943C175D
:103140000E94D516882311F082E008958091BE0375
:103150008823D1F381E008951F93CF93DF93EC018F
:1031600010E08091C103181780F4812F0E94EE16A1
:103170008C179D0710F081E009C0812F0E940F1766
:103180008C179D07C0F71F5FECCF80E0DF91CF91D8
:103190001F9108951F93CF93DF93EC0110E080916E
:1031A000C103181780F4812F0E94EE16C817D907A3
:1031B00010F081E009C0812F0E940F17C817D907AE
:1031C000C0F71F5FECCF80E0DF91CF911F91089592
:1031D0006091C103662329F070E00E94163DCB0187
:1031E000089580E090E008950E94C12161E081E0AF
:1031F0000E941C1981E00E941A1F8091C4039091C3
:10320000C5030C948C2181E00C94D7210E94FF0A05
:10321000882321F00E944F210C94A31F0895209130
:103220006803309169038217930708F4C9019093EA
:10323000C5038093C4030895CF93DF93C82FD62F7F
:10324000682F86E893E00E945E149093C9038093F0
:10325000C803DD2389F020918A0330918B033093DA
:10326000C7032093C603C130B9F486E893E00E94F7
:1032700093138230F9F010C020918C0330918D03AC
:103280003093C7032093C603C23031F486E893E03D
:103290000E949313823099F06091C30370E0809193
:1032A000C6039091C7030E94163DCB01DF91CF91D9
:1032B0000C940F1940916E0350916F0304C040911C
:1032C00070035091710380918E0390918F03489FFA
:1032D0009001499F300D589F300D11248091C803F3
:1032E0009091C903820F931F9093C9038093C803E1
:1032F000D3CF8091CB039091CC030C948112809119
:10330000CB039091CC0302960C9481120E947F19FA
:103310000E94751D0C945B36CF93DF930E94863517
:10332000EC010E9486358C1B9D0B853B910510F0AE
:103330000E94920B0E94E935882399F388E0DF917F
:10334000CF910C945C34CF93DF930E9486190E9436
:103350008635EC0185E00E945C340E94920B9398C4
:103360000E94F02F0E94821381110FC00E944031F1
:103370000E948213811109C00E9486358C1B9D0B0F
:10338000853B910568F3939AEBCF88E00E945C340B
:1033900080E0DF91CF910C945E0D0E9486190E940F
:1033A000920B0E94F42F86E00E945C340C948C19DE
:1033B000E091CB03F091CC03349685919491FC017C
:1033C0000994811103C00E94CD190BC0813039F4DA
:1033D0008091CA03811105C00E94A31902C081E037
:1033E000089580E008950F931F93CF93DF93109279
:1033F00079040E94791902E0C0E0D0E011E00E9457
:10340000E935809379040E942130112379F00E94DC
:10341000B51D082F0E94E119182F882339F00E944A
:103420005B0AC817D90781F4111105C08091CA033E
:10343000811114C010E080917904813001F70E945D
:10344000BA358823E1F20AC00E945B0AEC010E94AF
:10345000D819082F0E94E119182FE6CF0E947F1972
:10346000802FDF91CF911F910F91089581E00E94ED
:10347000131B0C949A170E94051B0E94581721E0F9
:103480008091720390917303892B09F420E02093BB
:10349000CD0380E00C941A1F0F931F93CF93DF93FB
:1034A000C091C803D091C903CE010E94E8188C01D5
:1034B0000E94F00AC817D90738F4C801DF91CF91EC
:1034C0001F910F910C94CA1881E0DF91CF911F9149
:1034D0000F9108951F93CF93DF930E944C1A182FDA
:1034E0000E94A31AEC018091CD03882329F0BE012C
:1034F000812F0E94641F01C0812F882329F081E061
:103500000E94131B81E007C0BE01812F0E946E2024
:103510000E94E61A82E0DF91CF911F91089581E029
:103520009091D203911180E0089581E02091D00321
:103530003091D103232B09F480E008958091D003CA
:103540009091D10308958091CE039091CF03089577
:10355000CF93DF931F92CDB7DEB7409150035091C8
:103560005103BA01645F7140CE0101960E9491122D
:103570008981811117C00E94F50A9C0140E050E04A
:1035800060E478E78DE791E00E942A3D293883E1E5
:1035900038074105510520F028E833E140E050E0CC
:1035A000C90102C080E090E00F90DF91CF910895B3
:1035B000813020E1920710F080E090E19093D103F8
:1035C0008093D0030E947E050C946A0BCF93DF9307
:1035D000EC010E94A81ABC01C817D90708F4BE0163
:1035E0008091CE039091CF038617970759F070937F
:1035F000CF036093CE0380E10E94140CDF91CF9142
:103600000C94D81ADF91CF9108958091D20388232A
:1036100049F080E090E00E94D81A81E00E946A059B
:103620001092D2030895CF93C82F8091D2038111B5
:103630000BC0CC2349F080E090E00E94D81A80E0D3
:103640000E946A05C093D203CF91089580E090E074
:103650000E94D81A81E00C94131B87E080937F04AA
:1036600082E0809380040E94553483E08093D303EA
:1036700008950F931F93CF93DF938091C203882304
:1036800079F00E94AD0C90918E0301E0981301C077
:1036900000E011E0811110E0913021F4112311F0CC
:1036A00010E000E00E94E60A882309F45CC083E190
:1036B0000E94430AEC0182E10E94430AC817D9071D
:1036C00028F49C012C1B3D0BE90102C0C81BD90B3F
:1036D000C53FD14008F447C0C1E0011102C087E0F6
:1036E00001C083E080937F04112329F080917F043F
:1036F000825080937F04CC2329F080917F048150F5
:1037000080937F04011104C0111102C0CC2331F059
:1037100081E00E945C34111107C004C088E00E945F
:103720005C3408C0002331F08091740390917503DC
:10373000892B11F4D0E001C0D1E00E94BD35811188
:1037400002C01092D303D11106C0C11104C00E945F
:10375000BD35883051F08091D303823011F481E07F
:103760000AC082E008C0C0E0B8CF8091D3038F5F69
:103770008093D303F0CFDF91CF911F910F910895E4
:103780008FEF80937F0488E00C945C341092D80310
:1037900008950E9486359093D7038093D6030895A9
:1037A0000E9486352091D6033091D703821B930B5C
:1037B0002091D4033091D5032817390728F081E0F0
:1037C0008093D80382E008951092D80381E0089591
:1037D0008091D80308952CE3AC01249FC001259F5C
:1037E000900D11249093D5038093D40308950E94E3
:1037F00058170E94C12181E00C941A1F81E00E9499
:10380000D7210C949A170F931F93CF93DF93C091F6
:10381000C803D091C903CE010E94E8188C010E9410
:10382000F00A8C179D0738F4C801DF91CF911F91E2
:103830000F910C94AC1881E0DF91CF911F910F9103
:1038400008951F93CF93DF930E94031C182F0E94AB
:103850004F21EC01BC01812F0E94641F882329F0B5
:1038600081E00E94D72181E007C0BE01812F0E9424
:103870006E200E948C2182E0DF91CF911F910895EC
:103880008091EB039091EC032091EE03222341F011
:103890000E9486352091EB033091EC03821B930B41
:1038A00008956091E7037091E8038091E903909196
:1038B000EA0328EE33E040E050E00E942A3DC901CF
:1038C00008956091E3037091E4038091E503909182
:1038D000E60328EE33E040E050E00E942A3DC901B3
:1038E00008950F931F93CF93DF9361E086E893E0F1
:1038F0000E945E148C0164E086E893E00E945E14EE
:10390000EC0184E10E94430A80179107B8F4C817BC
:10391000D907B0F49C012C1B3D0BC8018C1B9D0BDF
:1039200064E670E00E94163DC9010E94163D6436AF
:10393000710510F063E670E0862F03C083E601C0D6
:1039400080E0DF91CF911F910F910895CF93DF9386
:103950000E94711C9091ED039817E0F48093ED03A1
:103960000E94401C2091F0033091F103EC01C21B36
:10397000D30B0E94401C9093F1038093F00380913D
:10398000F2039091F3038C179D0720F4D093F30377
:10399000C093F203DF91CF9108950E94A61C8091FD
:1039A000EF03882311F089E601C084E690E02091BE
:1039B000ED03821B91092091F2033091F303AC01D6
:1039C000429FC001439F900D529F900D1124089576
:1039D00085E00E944C0A2091D9033091DA03281720
:1039E000390710F480E008C02091DB033091DC033C
:1039F0008217930718F481E00C9457050895CF932C
:103A0000DF93CEE4D3E068817981645F714085E023
:103A10000E94140C9093DA038093D9036881798112
:103A200085E00E94140C9093DC038093DB03DF910C
:103A3000CF9108950E94711C8093ED031092F103C1
:103A40001092F0031092F3031092F2031092E70326
:103A50001092E8031092E9031092EA031092E30334
:103A60001092E4031092E5031092E603089568E5CE
:103A700072E080E00E94140C9093E2038093E103D3
:103A800061E086E893E00E945E14BC016854744FC4
:103A9000653D22E6720710F064ED72E680E00E9458
:103AA000140C813C2FEF920710F080EC9FEF909365
:103AB000E0038093DF030E94E60A8093EF030E94F5
:103AC000FF1C86E893E00E947D149093DE038093B0
:103AD000DD030E9486359093EC038093EB030E94F4
:103AE0001A1D81E08093EE0308950E94401C90937C
:103AF000EC038093EB031092EE0308950E944121A2
:103B000081111DC00E94951A811119C00E94D516FD
:103B1000882351F18091E7039091E803A091E90394
:103B2000B091EA0380599F4FAF4FBF4F8093E70397
:103B30009093E803A093E903B093EA03089580917A
:103B4000E3039091E403A091E503B091E60380596B
:103B50009F4FAF4FBF4F8093E3039093E403A09335
:103B6000E503B093E603D2CF0895CF93DF9380911E
:103B7000EE03811102C082E0BEC085E00E94430ACC
:103B800020915003309151032C503E4F2817390794
:103B900018F48EEC99E017C080E00E944C0A209146
:103BA000DF033091E0038217930758F42091E1037B
:103BB0003091E2038217930760F40E948F1A8823E2
:103BC00041F08EED99E0909349038093480380E0A3
:103BD00092C0C091EF030E94E60AC81719F08FEB5C
:103BE00099E0F1CFC091C603D091C703C851DC4F13
:103BF0000E94FA0AC817D90718F484EB99E0E3CFBA
:103C000086E00E94430A20916C0330916D03821775
:103C1000930718F485EA99E0D6CF89E10E94430A18
:103C2000C091DD03D091DE03C83E2DEFD20729F10C
:103C30008C179D0710F185E999E0909349038093D3
:103C4000480386E893E00E947D14C817D90709F05D
:103C500049C086E893E00E9493138111B8CF809108
:103C600088039091890360918A0370918B030E946D
:103C7000163D6A307105B0F5AACFC0919003D0917E
:103C80009103C83E83E0D807C0F46091E3037091CC
:103C9000E4038091E5039091E60320E63AEE40E0EC
:103CA00050E00E942A3D2C173D0738F08AE899E041
:103CB00090934903809348031DC0809152039091D3
:103CC0005303892B09F457CF87E00E94430A2091C0
:103CD0005403309155032817390708F04CCF8AE771
:103CE00099E071CF86E893E00E947D149093DE0303
:103CF0008093DD0381E0DF91CF9108950E94FE1B48
:103D00000E94361A0C949A17CF93DF931F92CDB767
:103D1000DEB78091F403882329F0813031F40E94CA
:103D20006A1A0CC00E94211C09C00E9488188230A7
:103D300089F089830E947E1E89810CC0813051F4F4
:103D40009091C203992331F082E08093F4030E94A2
:103D5000581782E00F90DF91CF910895CF93DF93B2
:103D60000E94581761E083E00E941C19C091C803AB
:103D7000D091C9038091C103811106C00E94F00A4D
:103D8000C817D90740F40CC0CE010E94E8180E9461
:103D9000CA18882329F00E94F71B1092F4030BC065
:103DA00060E083E00E941C190E943B1A81E080932E
:103DB000CD038093F403DF91CF9108958091F503B3
:103DC000813029F48091C4039091C503089580E067
:103DD00090E008952CE0829FC00111248F5F9B4FDB
:103DE0000C94012289E494E00C940122CF93DF9398
:103DF00000D000D0CDB7DEB782E10E94430A9A839B
:103E0000898384E10E94430A29813A81281B390B66
:103E10003A83298387E10E94430A9C838B83CE01E6
:103E200001960E9401220F900F900F900F90DF914A
:103E3000CF910895EF92FF920F931F93CF93DF934B
:103E4000F82E81E08093F5030E94F00ABC012091D6
:103E5000C4033091C5034091C8035091C9030F2D8D
:103E600081E494E00E941C228091C8039091C903D0
:103E70000E94E818EC0110E08CE0E82E8091C1036C
:103E8000181798F4812F0E940F17BC012091C403CA
:103E90003091C503E19EC00111240F2DAE01875062
:103EA0009C4F0E941C221F5FE9CF10924F0410927A
:103EB000F80310924E0410924D04DF91CF911F91A0
:103EC0000F91FF90EF9008951F93CF93DF93182FDA
:103ED000EB018091C2038823B1F02091C40330919B
:103EE000C503203A310510F420EA30E02C173D07D5
:103EF00010F41092BE0390914F049B7F21F40E9416
:103F000088188093F5038091F5038130B9F40E94FD
:103F1000DE1E8C179D0780F0112371F080914F04F5
:103F2000843051F49091F80381E0890F8093F80375
:103F300081E09A3020F402C01092F80380E0DF9113
:103F4000CF911F9108950F931F93CF93DF93EC01AF
:103F50000E94F00AAE01BC0181E494E00E94D522E7
:103F600010E00CE08091C103181770F4812F0E94BB
:103F70000F17BC01019FC0011124AE0187509C4F57
:103F80000E94D5221F5FEECFDF91CF911F910F913D
:103F90000895CF92DF92EF92FF920F931F93CF93EA
:103FA000DF936091C8037091C90381E494E00E949B
:103FB00041228C018091C8039091C9030E94E818A6
:103FC0007C01D12C9CE0C92E8091C103D81698F4B5
:103FD000CD9CE0011124C750DC4FB701CE010E94F7
:103FE00041220817190728F0B701CE010E9441228B
:103FF0008C01D394E9CFC801DF91CF911F910F912C
:10400000FF90EF90DF90CF9008950F931F93CF9381
:10401000DF93EB012091C6033091C7038C01281771
:10402000390708F489010E94DE1E9C018017910760
:1040300008F49801C217D30719F180914F04843016
:10404000A9F42C173D0790F08091C4039091C5030B
:104050008C179D07A8F04091F6035091F7038091CB
:10406000A1039091A2034817590751F08091A10331
:104070009091A2039093F7038093F603C90101C0C6
:10408000CE01DF91CF911F910F9108950F931F9350
:10409000CF93DF93EC010E94F00A90934204809347
:1040A0004104D0934404C093430410E00CE0809199
:1040B000C103181770F4812F0E940F17019FF001A0
:1040C0001124E750FC4F91838083D383C2831F5F09
:1040D000EECFDF91CF911F910F9108951F93CF9352
:1040E000DF93182FEB010E94FF0A811102C01123F8
:1040F00059F10E94D516811127C0CE010E94A31F3D
:10410000CE010E9446200E94C91F8C179D0708F00F
:1041100043C09C012C0F3D1F3695279530934E04CC
:1041200020934D04BE0180914D0490914E040E9455
:10413000052090934E0480934D0490914F0491304C
:1041400001F150F411110DC080914D0490914E0475
:10415000DF91CF911F9108959230B1F09330B1F07B
:1041600017C08091C203882321F00E9493171092F8
:10417000BE0382E080934F0410924E0410924D04CF
:10418000E3CF10924F04E0CF83E003C01123E1F2AC
:1041900084E080934F04D8CF90934E0480934D04D5
:1041A000C1CF0C94F418CF93DF930E9406190E949C
:1041B000F00AEC010E94FA0AA0915E03B0915F033D
:1041C0009C010E94D93C28EE33E040E050E00E9480
:1041D0002A3DC21BD30B62E086E893E00E945E1486
:1041E0008C179D0730F48091C6039091C7030E94FD
:1041F0008C210E94FF0A882379F08091C803909156
:10420000C9038C179D0740F485E197E0909349031B
:104210008093480381E02CC00E94650A029738F120
:104220008091580390915903892B71F08BE10E9482
:10423000430AEC0186E893E00E949814C817D90756
:104240001CF481E197E0E2CF8091520390915303F7
:10425000892B69F08DE10E94430A20915603309129
:104260005703281739071CF48BE097E0CFCF82E083
:10427000DF91CF91089581E090915404911180E0F5
:10428000089581E02091520430915304232B09F4C6
:1042900080E0089580915204909153040895809194
:1042A0005004909151040895CF93DF930E94F50A32
:1042B000EC0186E00E94430A9E01205F384D281BD6
:1042C000390B1216130614F021E030E0442737FDB5
:1042D0004095542F60E074E887ED97E10E942A3DF5
:1042E00021328EE438074105510520F020E23EE4FA
:1042F00040E050E0C901DF91CF910895813020EC7A
:10430000920710F080E090EC909353048093520455
:104310000E947A050C946A0BCF93DF93EC010E9404
:104320005421BC01C817D90708F4BE01809150047C
:10433000909151046817790750F49C01261B370BA4
:104340002D38310568F0BC016C58710909C09B011A
:10435000281B390B2D38310518F0BC0164577F4FED
:104360008617970759F070935104609350048FE0BB
:104370000E94140CDF91CF910C947E21DF91CF919C
:10438000089580915404882389F010925304109268
:104390005204109251041092500480E090E00E9468
:1043A0007E2181E00E946405109254040895CF9309
:1043B000C82F80915404811113C0CC2389F080E070
:1043C00090E00E947E2110925304109252041092A9
:1043D00051041092500480E00E946405C09354047C
:1043E000CF910895109253041092520410925104E8
:1043F0001092500480E090E00E947E2181E00C94B5
:10440000D721FC01428153814115510591F0A081D2
:10441000B181B7FF03C0B195A195B10928EE33E092
:104420000E94E83C9A0140E050E00E942A3DC90108
:10443000089580E090E008950F93FC01CB010023E4
:1044400041F04617570708F4CA016417750748F486
:1044500007C06417750708F4CA014617570708F420
:10446000BA01978386839183808313821282158297
:10447000148233872287681B790B718760870F91BD
:104480000895FC0186819781A285B3850084F1851A
:10449000E02D3097D1F09B0140E050E0281B390B14
:1044A000410951090E94EF3C9F01442737FD409587
:1044B000542F0E944C3D2115310581E048075105DC
:1044C00024F457FD05C0C90108958FEF9FEF0895AB
:1044D00080E090E00895DF92EF92FF920F931F9398
:1044E000CF93DF93EC012A813B812417350720F419
:1044F000FA01E21BF30B03C0F901E41BF50B8C81FD
:104500009D81969587958E179F0710F5E880F98015
:104510002417350740F48A01021B130BCB018E19B7
:104520009F097C0105C0E61AF70A8901041B150BD7
:10453000C7010E94BF12D82E888599850E94BF129C
:10454000D81206C01D830C83F986E8861B870A876C
:10455000DF91CF911F910F91FF90EF90DF90089521
:104560000F931F93CF93DF93EC018B019A01A885E2
:10457000B9850E94E83C2A853B8540E050E00E94D6
:104580004C3DC801A0E0B0E082179307A407B5072F
:104590001CF41F821E8204C0021B130B1F830E8398
:1045A000DF91CF911F910F910895EF92FF920F939A
:1045B0001F93CF93DF93EC018B017A010E946B2252
:1045C000A701B801CE01DF91CF911F910F91FF900C
:1045D000EF900C94B0220F931F93CF93DF938C0135
:1045E000443019F0CFEFDFEF02C0C1E0D0E00E940D
:1045F000BF35D8011B96EC91F0E0EE0FFF1FE75995
:10460000FD4F9C01C29FC001C39F900DD29F900D92
:10461000112420813181820F931F91838083DF9148
:10462000CF911F910F910895EF92FF920F931F93D7
:10463000CF93DF931F92CDB7DEB78C01443021F0CA
:10464000EE24EA94FE2C03C0EE24E394F12C69835B
:104650000E94BF35D8011B96ED91FC911C97698192
:10466000E60FF11DE491F0E0EE0FFF1FE759FD4F5B
:10467000E89E9001E99E300DF89E300D1124808156
:104680009181820F931F918380830F90DF91CF914F
:104690001F910F91FF90EF900895CF93DF93EC015E
:1046A0000E943B34882311F0888101C08FEFDF9195
:1046B000CF910895CF93DF9300D000D0CDB7DEB770
:1046C00080E00E943A0A9A83898381E00E943A0A34
:1046D00029813A81281B390B3A83298383E10E947F
:1046E000430A9C838B83AE014F5F5F4F61E080E0A4
:1046F0000E94900AAE014F5F5F4F61E081E00E942F
:10470000900A0F900F900F900F90DF91CF91089526
:10471000CF93DF93D82F6FEE76E083E097E00E948F
:10472000C52FC0E082E10E94830C882399F08FE1BD
:104730000E94830C8D17A1F0C1110CC061EE76E0D0
:10474000DD2319F083E097E002C088EF96E00E9435
:10475000C52FC1E00E94E935813021F780E001C01A
:1047600081E0DF91CF910895CF93DF9300D000D007
:10477000CDB7DEB7862F5A8349833C832B83AE01A6
:104780004F5F5F4F61E00E94900A0F900F900F9073
:104790000F90DF91CF910895FF920F931F93CF93C6
:1047A000DF93F82E162F042F83E00E945C34812FB4
:1047B0000E94430AEC01802F0E943A0AAC019E013C
:1047C000602F812F0E94B42381E080933E030E94DA
:1047D0007B0BFF2039F0DF91CF911F910F91FF905C
:1047E0000C945A23DF91CF911F910F91FF90089560
:1047F000EF92FF920F931F93CF93DF93CDB7DEB766
:104800002E970FB6F894DEBF0FBECDBF81E00E9499
:104810008823882309F441C069E873E0CE0101963A
:104820000E94522E8FEF8A8784E990E09A838983D1
:1048300080E893E09D878C8789E08E8761E0CE01D8
:1048400001960E945B29F82E87FD27C0082F1127AB
:1048500007FD1095F801E058FC4FE49086E08F15B5
:104860006CF38E2D0E94830C882341F30E947B0BF6
:1048700010923E036F2DCE0101960E94B02788232F
:1048800041F0F801E758FC4F44916E2D81E00E9401
:10489000CC2381E080933E03D1CF2E960FB6F894BF
:1048A000DEBF0FBECDBFDF91CF911F910F91FF9063
:1048B000EF9008950F931F93CF93DF93CDB7DEB79B
:1048C0002E970FB6F894DEBF0FBECDBF10926700D3
:1048D0006DE473E0CE0101960E94522E8FEF8A871D
:1048E00084E990E09A8389838BE493E09D878C87A9
:1048F00087E08E8761E0CE0101960E945B29082F38
:1049000087FD20C0E82FFF27E7FDF095E55BFC4F12
:104910001491812F0E94830C882361F30E947B0BEA
:1049200010923E03602FCE0101960E94B02788238B
:1049300029F0412F612F80E00E94CC2381E08093F9
:104940003E03D8CF81E0809367002E960FB6F8948F
:10495000DEBF0FBECDBFDF91CF911F910F910895A4
:104960008F3019F4CB010C947E21CB010C94D81A12
:10497000EF92FF920F931F93CF93DF93EC0144309C
:1049800019F00FEF1FEF02C001E010E00E94BF35E9
:10499000089F7001099FF00C189FF00C11240E94D1
:1049A000BF354F85588901E09C01B701CE010D96B6
:1049B0000E941C136D857E858B85DF91CF911F91A1
:1049C0000F91FF90EF900C94B024AF92BF92CF92D2
:1049D000DF92EF92FF920F931F93CF93DF93CDB7A8
:1049E000DEB765970FB6F894DEBF0FBECDBFA82E19
:1049F000B62E7A0180E00E948823882309F46BC0D8
:104A0000AA2049F00E94C121E2E0CE2EFFE0DF2E75
:104A100000E010EC08C00E94051B63E0C62E70E1A8
:104A2000D72E00E010E16FE573E0CE0101960E9401
:104A3000522E8FEF8A872CE930E03A832983DC8677
:104A4000BD86198B088B4D856C85CE0142960E94E0
:104A5000730A2A893B893F872E8761E0CE01019640
:104A60000E945B2987FD2FC08111EDCF6E857F8568
:104A70008D2D0E94B02460E0CE0101960E94B027E7
:104A80008823D9F00E947B0BFD8AEC8A2E853F8516
:104A90003B8B2A8BAE014E5E5F4F6B2D8D2D0E949E
:104AA000900A8C2D0E943A0A9B8B8A8BAE014E5E37
:104AB0005F4F6B2D8C2D0E94900A60E070E08D2D71
:104AC0000E94B024C0CF81E0AA2019F00E94D72113
:104AD00002C00E94131B65960FB6F894DEBF0FBE8E
:104AE000CDBFDF91CF911F910F91FF90EF90DF909D
:104AF000CF90BF90AF900895EF92FF920F931F93C6
:104B0000CF93DF93CDB7DEB729970FB6F894DEBF0A
:104B10000FBECDBF8C017B01BC01CE0101960E946E
:104B2000522E60E0CE0101960E945B29682F87FD1E
:104B300010C0E82FEE0FFF0BEE0DFF1D45915491B5
:104B400081E093E00337190709F080E00E94E52433
:104B5000E8CF29960FB6F894DEBF0FBECDBFDF9128
:104B6000CF911F910F91FF90EF9008951F93CF93D6
:104B7000DF9300D000D01F92CDB7DEB7182F6D8322
:104B80000E943A0A9A838983812F0E94430A9C8358
:104B90008B83AE014F5F5F4F6D81812F0E94900A22
:104BA0000F900F900F900F900F90DF91CF911F916A
:104BB00008950F931F93CF93DF93CDB7DEB72C9754
:104BC0000FB6F894DEBF0FBECDBF182F062F63E5DA
:104BD00073E0CE0101960E94522E8FEF8A8724EA5D
:104BE00030E03A8329831C8761E0CE0101960E9460
:104BF0005B2987FD13C08111F7CF10923E0360E05F
:104C0000CE0101960E94B027882321F0602F812FCA
:104C10000E94B62581E080933E03E6CF2C960FB626
:104C2000F894DEBF0FBECDBFDF91CF911F910F91E2
:104C300008951F93CF93DF93CDB7DEB729970FB6B3
:104C4000F894DEBF0FBECDBF182F69E573E0CE012B
:104C500001960E94522E60E0CE0101960E945B29CF
:104C6000682F87FD04C0812F0E94D925F4CF299693
:104C70000FB6F894DEBF0FBECDBFDF91CF911F916D
:104C800008951F93CF93DF93CDB7DEB729970FB663
:104C9000F894DEBF0FBECDBF6DE973E0CE01019683
:104CA0000E94522E60E0CE0101960E945B29182FCF
:104CB00087FD30C00E94553B81E00E945E0D12309E
:104CC000A9F04CF4112379F01130E1F469E673E0B6
:104CD00083E793E00FC0143091F07CF0153091F42D
:104CE0000E945A240FC00E94F8230CC065E673E0AE
:104CF0008DE693E00E947C2505C087E001C085E039
:104D00000E94192681E00E94C8100E94920B0E9406
:104D1000653BC8CF10924A0329960FB6F894DEBFC0
:104D20000FBECDBFDF91CF911F910895CF93DF9339
:104D3000EC01842F0E94B00B9E0136952795369585
:104D40002795A9014C0F5D1F8417950730F4C21BEE
:104D5000D30B21E0C817D90708F020E0822FDF919C
:104D6000CF91089568EE73E080E00E94140C29E171
:104D7000289FB001299F700D112440E084ED92E638
:104D80000C949626CF93DF931F92CDB7DEB7482FB2
:104D900068EE73E049830E94140C24E1289FB0015F
:104DA000299F700D1124498180E29EE40F90DF91CC
:104DB000CF910C949626CF93DF931F92CDB7DEB799
:104DC000482F64E670E049830E94140CBC01660F12
:104DD000771F680F791F49818CE291E00F90DF9176
:104DE000CF910C949626CF930E944E11C82F882302
:104DF00041F10E94B226C82F811105C089ED96E0CD
:104E00000E94CD301EC08FE00E94C226882329F068
:104E100082E00E94C226811106C080ED96E00E94C9
:104E2000CD30C0E00EC080E10E94DB26882331F047
:104E300083E00E94DB26C82F811103C084EC96E03A
:104E4000EECF8C2FCF9108950C94F3261F93CF9320
:104E5000DF93EC01162F0E944D2ECE0109960E9481
:104E60004D23992787FD9095612F70E0861797074E
:104E700059F0EB85FC85E60FF71F84916D85DF9176
:104E8000CF911F910C94BD0CDF91CF911F9108958C
:104E90001F93CF93DF93EC01162F82E10E94830CC6
:104EA00081110FC06FEE76E083E097E00E94C52F7E
:104EB0008B85803141F581E0DF91CF911F910C947A
:104EC000131B612FCE010E944D2ECE0109960E9428
:104ED0004D23992787FD9095212F30E08217930766
:104EE00091F0111108C065E08D859E85DF91CF910D
:104EF0001F910C943F390E94FA0A67E0DF91CF912D
:104F00001F910C94A439DF91CF911F9108951F93A5
:104F1000CF93DF93EC01162F0E944D2ECE01099600
:104F20000E944D23992787FD9095212F30E082170D
:104F3000930791F0111107C067E08B85DF91CF9146
:104F40001F910C94BD0C8B850E943A0A67E0DF919B
:104F5000CF911F910C943F39DF91CF911F9108950C
:104F6000DF92EF92FF920F931F93CF93DF93EC01A9
:104F7000F62E69871A8681E08D8382E0D82EEE2492
:104F8000E3948E01075F1F4F0E94E935482F82305E
:104F900011F0843061F4E881F9810280F381E02D21
:104FA0006F2DCE010995F986DA86ED8204C0813035
:104FB00089F0883079F0C8010E9446348111ED8271
:104FC0008D81882319F0CE010E94FD288A858F5F8C
:104FD0008A87DACF8FEF898781E08E838D8348308F
:104FE00009F080E0DF91CF911F910F91FF90EF903A
:104FF000DF900895CF93DF93EC010E9453368B81AD
:105000009C810E9470370E9457366A8188819981FD
:10501000DF91CF910C942537FC0187818F3118F4F3
:105020008F5F8783089586818F5F86830895FC0153
:105030008781882319F08150878308958681815064
:10504000868308950F931F93CF93DF93FC01C6814E
:10505000D0E06D2F80E00E944D3610E11C0F01E082
:105060000C0F8C2F0E940737011711F0C02FF7CFBC
:10507000DF5FD23011F0C12FECCFDF91CF911F91C4
:105080000F9108951F93CF93DF93EC018AEC90E08A
:105090000E94833A1FEF8E81181721F0CE010E94E3
:1050A00022281E818F81682F70E094E075956795A6
:1050B0009A95E1F78F700E944D360E94E935823053
:1050C00049F0843019F0813049F413C0CE010E94B8
:1050D0000C28E1CFCE010E941728DDCF8830D9F609
:1050E0008D81E881F981E80FF11D8F819E81890F03
:1050F0008083DF91CF911F910895FC0171836083BC
:10510000428334832383158280E286831782089545
:10511000CF93DF93EC018AEC90E00E94833A0E94E7
:105120005B36CE010E94FA2761E08D810E944D36E8
:105130000E94E9358230B1F0843041F08130C1F411
:105140008AEC90E00E947C3A80E026C04D81242FBA
:1051500030E08A8190E00197281739072CF74F5FDC
:105160004D83E2CF8D818823F9F281508D83DCCF8E
:105170008830D1F682E00E943C36823048F083E0ED
:105180000E945C348AEC90E00E947C3A81E004C08A
:10519000CE010E944228C3CFDF91CF910895089598
:1051A000FC018CEA90E091838083128213826483F5
:1051B00081E0858386830895FC012281211103C04B
:1051C00081E082830895438130E0240F311D848182
:1051D00090E001972817390714F44F5F438308952F
:1051E000FC018281882319F0815082830895838194
:1051F000882311F08150838308951F93CF93DF9309
:10520000EC0110E0612F80E00E944D3680E20E94A8
:105210000737E881F9816B81610F0190F081E02D02
:10522000CE0109950E9422371F5F123059F76A811B
:1052300080E00E944D368EE30E9407376A818FE03E
:105240000E944D368CE30E9407371D82DF91CF917B
:105250001F9108950F931F93CF93DF93EC010E944A
:10526000E935182F0E941B3B882321F081E08D83B4
:105270008FE71CC00B818A81080F123031F0143087
:1052800039F4CE010E94DC2803C0CE010E94F02830
:105290008B819A81890F081711F081E08D838D81B0
:1052A000882319F0CE010E94FD28812FDF91CF9134
:1052B0001F910F910895EF92FF921F93CF93DF9369
:1052C0001F92CDB7DEB77C0181E0F701858311E045
:1052D000C70169830E942A296981811102C0F701EF
:1052E0001682F7019681911108C0883031F481E06F
:1052F000868383819281890F09C0662311F0F701AB
:105300001583813029F79111E3CF8FEF0F90DF9153
:10531000CF911F91FF90EF900895CF93DF93CDB77A
:10532000DEB729970FB6F894DEBF0FBECDBF6BEA8C
:1053300073E0CE0101960E94522E60E0CE010196EC
:105340000E945B29813049F0823051F081110BC0FD
:105350008CE493E00E945112F0CF0E944126EDCFE1
:105360000E945611EACF87FFE8CF29960FB6F8942E
:10537000DEBF0FBECDBFDF91CF910895262F443001
:1053800019F06FEF7FEF02C061E070E0223091F022
:1053900028F4222349F0213051F00895243081F07F
:1053A00060F0253081F008950B960C943E150B9615
:1053B0000C94E2150B960C942C160B960C948D15F0
:1053C0000B960C94AE150B960C948C16EF92FF92E4
:1053D0000F931F93CF93DF93EC018B017A0163EB63
:1053E00073E00E94522E8FEF898782EB90E09983C1
:1053F00088838AE1F801DE011B9601900D928A955F
:10540000E1F7FEA2EDA2DF91CF911F910F91FF90E6
:10541000EF9008950F931F93CF93DF93CDB7DEB72F
:1054200028970FB6F894DEBF0FBECDBF8C01BC012C
:10543000695E7F4F26E637E04EE050E0CE010196F0
:105440000E947D28CE0101960E94882881E0F80103
:10545000858328960FB6F894DEBF0FBECDBFDF91CF
:10546000CF911F910F910895CF93DF93EC010E948C
:105470005B360E94533680E697E00E9470370E94A8
:1054800057366EE0CE0147960E9425370E94791369
:1054900083E0DF91CF910C945C34CF93DF93EC01E8
:1054A0006DA17EA16F5F7F4F0B960E94BE13CE0150
:1054B000DF91CF910C94342ACF93DF93EC016DA14F
:1054C0007EA16F5F7F4F0B960E941714CE01DF9174
:1054D000CF910C94342ADF92EF92FF920F931F9397
:1054E000CF93DF93CDB7DEB76A970FB6F894DEBFE0
:1054F0000FBECDBF8C018AE1D82EC8010B967C016E
:1055000060E0C8010E945B2987FD30C0873041F010
:10551000883051F0863061F4C8010E944D2AF0CFE6
:10552000C8010E940A2AECCFC8010E945C2AE8CF79
:10553000F701DE0111969D2D01900D929A95E1F7EC
:10554000682FC8010E94B027811109C0FE01319661
:10555000D7018D2D01900D928A95E1F7D1CF83E08F
:105560000E945C34C7010E940916CACF6A960FB622
:10557000F894DEBF0FBECDBFDF91CF911F910F9189
:10558000FF90EF90DF9008951F93CF93DF93EC018E
:10559000162F0E944D2ECE0109960E943B3488237F
:1055A00011F0298501C02FEF332727FD3095812F7A
:1055B00090E028173907B1F11230F9F058F41123AF
:1055C000A9F0113079F5CE010B96DF91CF911F91A3
:1055D0000C94CE141430F9F0B8F0153019F5CE0152
:1055E0000B96DF91CF911F910C947B16CE010B96F9
:1055F000DF91CF911F910C94C814CE010B96DF91CF
:10560000CF911F910C94FC14CE010B96DF91CF919A
:105610001F910C94F014CE010B96DF91CF911F9146
:105620000C94F614DF91CF911F910895DC01179629
:10563000ED91FC911897E60FF11D649187EC93E0D2
:105640000C9488370F931F93CF93DF93EC018B015A
:1056500080E061E0680FF801E80FF11DE491E830A7
:1056600011F0862FF6CFCE010E94D0288AEB90E071
:105670009983888318870F83DF91CF911F910F91B2
:10568000089586E893E00E949313833039F08230C6
:1056900041F0811109C087E694E008958EE594E019
:1056A000089580E794E0089585E594E008950F93C8
:1056B0001F93CF93DF93EC0110927E040E9430146D
:1056C0000E94412B8C0160E0C8010E945B2987FD8C
:1056D0001BC0D8011796ED91FC911897E80FF11DAA
:1056E00087FDFA958491883061F4BE0186E893E0E5
:1056F0000E941415CE010E943E1481E00E94CF103A
:10570000DFCF0E94D611DFCFDF91CF911F910F9194
:10571000089569EE73E080E794E00E94222B6EED1D
:1057200073E087E694E00E94222B62EE73E08EE540
:1057300094E00E94222B69ED73E085E594E00C94DF
:10574000222B0F931F93CF93DF93EC018B016CEF10
:1057500073E00E94522E8FEF898780EC90E099834E
:1057600088838AE3F801DE011B9601900D928A95E9
:10577000E1F7DF91CF911F910F910895DF92EF92A2
:10578000FF920F931F93CF93DF93CDB7DEB7EA97C6
:105790000FB6F894DEBF0FBECDBF7C018C01055F54
:1057A0001F4F8AE3D82E60E0C7010E945B2987FD66
:1057B0002AC0893139F4C8010E94191283E00E947D
:1057C0005C34F1CFF801DE0111969D2D01900D9210
:1057D0009A95E1F7682FC7010E94B027811109C08F
:1057E000FE013196D8018D2D01900D928A95E1F739
:1057F00006C083E00E945C34C8010E941F12C801E9
:105800000E942A12D0CFEA960FB6F894DEBF0FBEE0
:10581000CDBFDF91CF911F910F91FF90EF90DF905F
:10582000089564E670E00E94163DCB0163E00E949B
:105830003F3983E40C94073768EE73E00E94163D0D
:10584000CB0163E00E943F3986E50C940737CF9384
:10585000DF9364E670E00E94163D9B01EC0163E07B
:10586000C9010E943F398EE20E940737CE016AE0EB
:1058700070E00E94163D862F0E94C93783EB98E0A6
:10588000DF91CF910C947037CF93DF93EC012B967F
:1058900043E6CE010E94F112CE01DF91CF910C942C
:1058A0002A1241E041960C94F11244E0C9960C94FE
:1058B000F112FC0161AD82EF93E00C9488370B96F6
:1058C0000E94091224E630E040E050E00E942A3DA8
:1058D00065E0C9010E943F3980E30E94073780E3F9
:1058E0000C940737FC0124E6269FC001279F900DEA
:1058F000112420813181820F931F8436910510F489
:1059000084E690E091838083808191818D3A9642F4
:1059100020F08CEA96E2918380830895FC012AE0CE
:10592000269FC001279F900D112420813181820F75
:10593000931F8A30910510F48AE090E09183808370
:1059400080819181893E934020F088EE93E091839D
:1059500080830895FC0128EE33E0629FC001639FBD
:10596000900D729F900D112420813181820F931F21
:1059700088352BE1920710F488E59BE191838083C1
:10598000808191818133954720F080E395E7918371
:1059900080830895FC0180819181680F791F6330B5
:1059A000710518F07183608304C083E090E09183F7
:1059B000808380819181893C910520F088EC90E082
:1059C000918380830895FC0185A596A5680F791FB2
:1059D0006D3D8FEF78071CF076A765A704C08DEDAD
:1059E0009FEF96A785A785A596A5849724F083E2C7
:1059F00090E096A785A70895FC0187A590A9680F58
:105A0000791F69312CEF72071CF070AB67A704C0D7
:105A100089E19CEF90AB87A787A590A9883E93402A
:105A200024F087EE93E090AB87A70895FC01808176
:105A30009181680F791F6C3E8FEF78071CF071839E
:105A4000608304C08CEE9FEF91838083808191817D
:105A50001816190614F41182108208950F931F93DB
:105A6000262F443019F06FEF7FEF02C061E070E045
:105A7000022F10E00931110508F062C0F801EE5C58
:105A8000FF4F0C946B3D1F910F910C94442C0D967D
:105A900001C00F961F910F910C94722C1F910F91C2
:105AA0000C94512C4396F6CF45961F910F910C9470
:105AB0008E2C41E0479640C0499601C04B961F91FD
:105AC0000F910C94162D4FEF4D9636C045E04F9632
:105AD00002C043E681961F910F910C94051341E09B
