:100000000C94F9040C9421050C9421050C94210501
:100010000C945C070C9421050C9421050C9421058B
:100020000C9421050C948C070C9421050C9421054B
:100030000C9421050C941B080C9450080C94210579
:100040000C9438070C9421050C9421050C9421057F
:100050000C942105AC11B511BB11BE11C111C81111
:10006000C511CF11D02CD42CDA2CE62CEA2CEE2C96
:10007000FC2C072D0D2D112D172D232D312D422D4B
:10008000462D4A2D582D642D722D762D7C2D7F2DD9
:10009000832D8F2D932D9D2D9B2E9F2EA12EA62E31
:1000A000AA2EAC2EB12EB42EB62EBB2EBD2EC22E35
:1000B000C52ECB2ECE2ED12ED42ED72EDC2EE02E3A
:1000C000E42EE72EEA2EEF2EF22EF62EC335C5359E
:1000D000C735CB35CB35C935CF35CD35523A343A26
:1000E0003D3A363A3F3A2F3A3B3A000000000CC501
:1000F000525A000000000CC5525AF600640010125B
:10010000E80300026400C0082C0100000000C0AE3B
:100110004E5A00D608078F67AC0D00000000C0A043
:10012000E02E1801F408DC37701700000000000012
:1001300000000000000086C50B0F000000009FC5F6
:100140000E0F0000000045C6080F0000000036C476
:100150000C0F000000009FC80B0F00000000F7C14B
:10016000150F4A006400CE08E8032501640012055B
:100170002C01FF0000000A00050400000004090033
:1001800000FF0101000A010505000001040A00004A
:10019000FF02020000020506000002040B0000FF3F
:1001A00003030000030507000003040C0000FF0028
:1001B00000000A040511020004040D0000FF010103
:1001C000000A050511040005040E000006051101D2
:1001D00000FF020200000705110800DF0100006FA8
:1001E0007074696F6E730080250000004B00000082
:1001F00096000000E1000000C20100460088137074
:10020000170000701764000100FBFFF1FF080708EA
:100210000705001E0001000A0032007800102700C8
:1002200000000000000100080000000000030000C2
:1002300000000000000000E008DB08D608D108CC70
:1002400008C708C208BD08B808B308000098089895
:10025000086C071027580201009808F4016C070188
:1002600000E00102009808F4016C070100E00103BE
:10027000009808DC006C070600E00104009808986C
:10028000086C07030078000500980898086C0703BD
:100290000078000600980898086C070300780007AB
:1002A00000980898086C07030078000800980898E0
:1002B000086C07030078000900980898086C070389
:1002C00000780001000100010001000100B00400FD
:1002D00000520300005203B0040000E8030000E8ED
:1002E00003D0079209D60600006C07E40C100ED06C
:1002F00007E40CB80B100E0410C409A60EAC0D7464
:100300000E6810B80B0A0F890C740ECC10B80B0ACB
:100310000F890C740EFE10B80B0A0F890C40066C86
:1003200007140540067805BA17FF17EB18581A533B
:100330001A881A4E1BE11B5A1BEA1BE71BF11B18FC
:100340001C1F1C431CD81EA81EAE1E1B2152191DAB
:100350002100011A061206000029062206000039B3
:1003600006300600004A064206000064002C0164C4
:1003700000E80358065206000065065E0600000607
:10038000090A0B0C0D0E061F202122232413129B99
:100390000695068F06890683067D06770671066B2D
:1003A000060000DD06D406C806BC06B006A106009D
:1003B000000A090009F20800005D07580753074EBC
:1003C000074907420736072C07210700006F09601D
:1003D0000958094E0942093A092B09200913090055
:1003E00003040708000307080001020304070800CC
:1003F0000102030405060708A3079C0796078D075B
:100400008407A4089C08910888087D0876086D0870
:1004100064085B08510847083B0831082B081D0891
:1004200013080908FD07F307EA07DF07D407CA071F
:10043000BF07B907B207AC07000020202D2D2020F0
:1004400000636865616C692D636861726765720A33
:1004500076302E39395F32303135303532390063FC
:10046000616C69626174696F6E206572726F72008F
:10047000706C656173652063616C6962726174653B
:1004800000656570726F6D2072657365740A6572C0
:10049000726F723A2000726573657474696E6720BA
:1004A000656570726F6D00206E6F20202020202007
:1004B00020202079657300656570726F6D2072650C
:1004C0007365743A005245564552534520504F4C7F
:1004D0004152495459006572726F723A20202020AF
:1004E00000636F6D706C6574653A2000C8330080DE
:1004F0000000EF31FFFF04805B33FFFF04803732E1
:10050000FFFF04801B3300010880273300010880AF
:100510003B3300010080C02F00C00000C42F00C08A
:100520000000C82F00400480CC2F00400480BE3261
:10053000FFFF04807E32FFFF0080F832FFFF0000E3
:100540003C3480000080DC32FFFF00000000FFFF31
:1005500000002500202D2D3A2D2D0064656C74615E
:1005600020543D20004E2F4100546578743D0064B6
:10057000656C746120563D20006D6178566F75740E
:100580003D0054696E743D002D00546578743D0043
:10059000206C696D69743D0056696E7075743D001C
:1005A000776972657320523D00626174742E205227
:1005B0003D006220004C696D6974733A20006E6FD3
:1005C0002064542F740025200043684342426C4449
:1005D000694643537453424359000100010001002E
:1005E000010001000A006400010003000800090086
:1005F0000A000B000C0001000200040006000800C5
:100600000A000C00141719181A0705061F202122CA
:100610002324566D696E75733A0056706C75733A83
:10062000200076616C75653A0074656D703A200043
:10063000706F696E7420322E00706F696E74203195
:100640002E00496F75743A20200076616C75653A0A
:1006500020003330306D41003130306D4100313099
:1006600030306D41003130306D4100566F75743A55
:100670000056312D363A005662363A200056623521
:100680003A20005662343A20005662333A2000562F
:1006900062323A20005662313A200056696E3A20A2
:1006A000006578706572742044414E4745522100C0
:1006B00074656D7020696E7465726E0074656D701E
:1006C0002065787465726E0049206469736368619F
:1006D00072676500492063686172676500766F6CB8
:1006E000746167650062616C616E636520706F7232
:1006F00074210062617474657279210064697363A6
:100700006F6E6E65637400636F6E6E656374006414
:10071000542F6474002D64560056206C696D697402
:10072000005265736574206E616D6500456469747F
:10073000206E616D6500437265617465206E616D48
:100740006500546C696D3A200049643A20004963A1
:100750003A200043683A2000563A20200042617453
:100760003A2020004E616D653A0045646974206E40
:10077000616D653A006D5600206E6F0079657300FB
:10078000496E66006578742E204164630065787454
:100790002E20646562006465627567006E6F726D1D
:1007A000616C0064697361626C6564007265736595
:1007B000740073706565643A00554152543A0061A3
:1007C0006463206E6F6973653A0062616C2E206508
:1007D00072723A00666F7263652062616C3A0064FF
:1007E00069732061677265733A006F2E6469736381
:1007F000683A006F2E6368617267653A00696E70CF
:100800007574206C6F773A200063617020434F66E7
:10081000663A006D696E20496F75743A006D696EB5
:1008200020496F75743A2020492F00626565703A3F
:1008300000442F4320726573743A00442F432063B1
:1008400079636C65733A004E6943642056434F3AAE
:10085000004E694D482056434F3A004E694364208C
:1008600064563A004E694D482064563A00656E6100
:10087000622064563A0064542F64743A00657874B8
:10088000726E2054434F3A00657874726E20543A69
:10089000006469736368206F66663A0066616E2063
:1008A0006F6E3A006261636B6C696768743A00430B
:1008B0002F6D004E695A6E004C343335004C343382
:1008C00030004C69706F004C696C6F004C69666554
:1008D0000050622020004E694D48004E694364007C
:1008E000556E6B6E006D696E2E006E6F6C696D6972
:1008F000740072657365742064656661756C74005C
:1009000063616C6962726174650073657474696EA9
:10091000677300656469742062617474657279003C
:10092000443E4320666F726D61740073746F726130
:1009300067652B62616C616E630073746F726167CF
:10094000650066617374206368617267650064693D
:10095000736368617267650062616C616E636500F4
:100960006368617267652B62616C616E63650063C9
:100970006861726765006578742E74656D702E63AA
:1009800075746F66660074696D65206C696D697455
:10099000006361706163697479206375746F666662
:1009A00000696E707574205620746F206C6F77002C
:1009B0004857206661696C7572650062616C616E92
:1009C00063657220646973632E00696E742E7465AA
:1009D0006D702E6375746F66660062617474657203
:1009E0007920646973632E00BB0587093A109F2B39
:1009F0008B3111241FBECFE5D8E0DEBFCDBF10E0A4
:100A0000A0E6B0E0EEE2FCE702C005900D92AA3C41
:100A1000B107D9F714E0AAECB0E001C01D92A43CE4
:100A2000B107E1F719E0C2EFD9E004C02297FE0157
:100A30000E94AB3DC83ED107C9F70E9435100C9407
:100A4000153E0C94000020E042E060E18AEC90E06A
:100A50000E94FD3A0E940F080C94BF05CF92DF92CE
:100A6000EF92FF92482F282F30E0A0E0BDE70E94D0
:100A7000173D6B017C01A4E6B0E0A41BB10924E69C
:100A800030E00E94263D6C0D7D1D8E1D9F1D24E6CD
:100A900030E040E050E00E94683DB9018DE0FF90F9
:100AA000EF90DF90CF900C94F907882311F0909A83
:100AB000089590980895089580FF02C0979A089528
:100AC00097980895811102C0969A0895969808956E
:100AD000811102C0929A089592980895811106C0DA
:100AE000939A0E94620580E00C946805939808959B
:100AF000BC018EE00C94F907BC018EE00C94F90760
:100B000080FF02C0C09A01C0C09881FF02C0C19A94
:100B100001C0C19882FF02C0C29A01C0C29883FF7F
:100B200002C0C39A01C0C39884FF02C0DE9A01C00C
:100B3000DE9885FF02C0DF9A0895DF98089580E06F
:100B40000E946E0580E00E94550580E00E945C05D1
:100B500080E00E9480058C9A8B9A889A8F9AB89A26
:100B6000B99ABA9ABB9AD69AD79A8D9A8E9A8D9A32
:100B70008A9A089508958AEC90E00C94523BD59897
:100B8000D498DD98DC98BF9ABE9ABD9A8EEA86B951
:100B9000369A089534B145B1E091DB00E13131F18D
:100BA0002FB7F894832F90E0942BF0E0DF01AA0F89
:100BB000BB1FAB52BD4F11969C938E933091D300C7
:100BC000332391F0EE0FFF1FEE0FFF1FE950FD4F93
:100BD0004081518162817381480F591F611D711DD0
:100BE00040835183628373832FBF08952091DC007B
:100BF0003091D00047FD02C0232B02C02095232353
:100C00002093D00008950E947F219093F402809356
:100C1000F3020E94BC1A9093F6028093F502809131
:100C2000D300882309F481C00E947F2140913303BF
:100C3000509134036091350370913603480F591F6A
:100C4000611D711D4093330350933403609335034A
:100C5000709336030E94BC1A4091370350913803B9
:100C60006091390370913A03480F591F611D711D3E
:100C700040933703509338036093390370933A03DA
:100C800080913B0390913C03019709F04CC0809107
:100C9000FF0290910003A0910103B0910203B69569
:100CA000A795979587958093FF0290930003A09353
:100CB0000103B09302038091F7029091F802A09192
:100CC000F902B091FA02B695A7959795879580930A
:100CD000F7029093F802A093F902B093FA02809180
:100CE000FB029091FC02A091FD02B091FE02B6952C
:100CF000A795979587958093FB029093FC02A0930C
:100D0000FD02B093FE028091030390910403A09131
:100D10000503B09106038093030390930403A0930B
:100D20000503B09306030C94EB0C0895089580918D
:100D30007A0390917B03892BE9F04091D8004423FA
:100D4000C9F081E090E00090D50002C0880F991FA3
:100D50000A94E2F720913B0330913C032F703FB798
:100D6000F8945BB39BB3982B9BBB240F2A95F1F7A8
:100D70005BBB3FBF08958091D2008F5F853108F043
:100D800080E08093D20085E0E4EDF0E0A9EDB0E0F2
:100D900001900D928A95E1F76091D2006F5F653105
:100DA00008F060E085E0689FB00111246E587E4F26
:100DB00045E050E084ED90E00E94AF3D8091D2008C
:100DC00081110CC00E94030680913B0390913C036B
:100DD00021E0892B09F420E02093D3000895CF93DC
:100DE000DF930E94CA058091D10091E0980F909303
:100DF000D100873079F118F4882359F033C0883056
:100E000069F1893079F51092D100DF91CF910C947E
:100E1000BB068091D40087FD25C02FB7F894909130
:100E2000D40088B3392F3170C32F30E0D32FCC0FCB
:100E3000DD1FCC0FDD1F92FB332730F9C32B9270DF
:100E4000C92B90E2C902E00111248F718C2B88BB61
:100E50002FBF08C0DF91CF910C9497068091D500E9
:100E6000806287B9DF91CF9108958091D000089575
:100E70001F920F920FB60F9211242F933F934F930F
:100E80005F936F937F938F939F93AF93BF93EF93F2
:100E9000FF930E94EF06FF91EF91BF91AF919F9159
:100EA0008F917F916F915F914F913F912F910F9013
:100EB0000FBE0F901F9018951F920F920FB60F92B2
:100EC00011242F933F934F935F936F937F938F934F
:100ED0009F93AF93BF93EF93FF930E940136FF91CF
:100EE000EF91BF91AF919F918F917F916F915F91A2
:100EF0004F913F912F910F900FBE0F901F9018951B
:100F000088E085BD85B5846085BD14BC8CE783BD54
:100F100089B7806889BF08951F920F920FB60F920C
:100F200011242F933F934F935F936F937F938F93EE
:100F30009F93AF93BF93EF93FF932091E400309181
:100F4000E5008091E0009091E100820F931F909363
:100F5000E1008093E0002091E2003091E300809175
:100F6000DE009091DF00820F931F9093DF0080934B
:100F7000DE002FB7F8948091E0009091E10035E019
:100F8000969587953A95E1F79BBD8ABD8091DE00E5
:100F90009091DF0045E0969587954A95E1F799BDD8
:100FA00088BD2FBF8091E0009091E1008F7199275B
:100FB0009093E1008093E0008091DE009091DF004B
:100FC0008F7199279093DF008093DE000E945B056C
:100FD000FF91EF91BF91AF919F918F917F916F9111
:100FE0005F914F913F912F910F900FBE0F901F90E7
:100FF00018959FB7F8948E3039F47093E50060939C
:10100000E4008FB5806808C08D3039F47093E30038
:101010006093E2008FB580628FBD9FBF089580E02E
:1010200094E097BD86BD82E08FBD89E18EBD89B712
:10103000846089BF08951F920F920FB60F921124FA
:101040002F933F934F938F939F93EF93FF935A99CF
:101050001AC04CB18091FC019091FD010196992735
:101060002091FE013091FF018217930769F0E09112
:10107000FC01F091FD01E450FF4F40839093FD018E
:101080008093FC0101C08CB1FF91EF919F918F91F2
:101090004F913F912F910F900FBE0F901F90189579
:1010A0001F920F920FB60F9211242F933F938F939D
:1010B0009F93EF93FF932091FC013091FD0180916C
:1010C000FE019091FF012817390711F4559812C0BD
:1010D000E091FE01F091FF01E450FF4F20818091EB
:1010E000FE019091FF01019699279093FF01809353
:1010F000FE012CB9FF91EF919F918F913F912F911C
:101100000F900FBE0F901F901895CF92DF92EF9225
:10111000FF92CF93DF93EC016A017B01411581EED1
:10112000580761057105F9F0E885F98581E090E0DF
:101130000C8802C0880F991F0A94E2F7808360E050
:1011400079E08DE390E0A70196010E94683D21506F
:10115000310941095109569547953795279521152C
:1011600080E1380798F0E885F985108260E874E836
:101170008EE190E0A70196010E94683D215031095F
:10118000410951095695479537952795EC81FD8181
:101190003083EE81FF8120831D8AEA85FB854081B3
:1011A00081E090E09C01098802C0220F331F0A945D
:1011B000E2F7422B4083EA85FB8540819C010A8847
:1011C00002C0220F331F0A94E2F7422B4083EA85C4
:1011D000FB8520810B8802C0880F991F0A94E2F7D3
:1011E000809582238083DF91CF91FF90EF90DF90F5
:1011F000CF900895CF93DF93FC0182819381DC012E
:10120000B395EC01CE5FDE4F4D915C911197288133
:10121000398142175307C1F7A285B3854C9181E00C
:1012200090E09C01018802C0220F331F0A94E2F76C
:10123000209524232C93A285B3854C919C01028890
:1012400002C0220F331F0A94E2F7209524232C9327
:10125000A285B3852C91038802C0880F991F0A9438
:10126000E2F7809582238C9380819181FC01EE5F6F
:10127000FE4F20813181FC01F39531832083DF9182
:10128000CF910895FC018589882329F0A085B18537
:101290008C9186FFFBCF158A0895CF93DF93FC01D5
:1012A00022813381D901B3958D919C91119701963B
:1012B0009927E901CE5FDE4F488159818417950750
:1012C000D9F30D90BC91A02DA20FB31F6C93A281F6
:1012D000B381B39511969C938E93A285B3852C917F
:1012E00081E090E0038802C0880F991F0A94E2F71A
:1012F000282B2C9381E0858B0084F185E02D808163
:101300008064808381E090E0DF91CF9108958CEF3D
:1013100090E09093E7008093E6009093E90080933B
:10132000E80080E490E09093EB008093EA0029E2EB
:1013300030E03093ED002093EC002BE230E030936E
:10134000EF002093EE002AE230E03093F10020938A
:10135000F0009093F3008093F2008CE290E0909381
:10136000F5008093F40084E08093F60083E080939E
:10137000F70087E08093F80085E08093F90081E032
:101380008093FA000895CF93DF931F92CDB7DEB715
:10139000E091C004F091C104309711F4E4ECF4E062
:1013A000CE0101962EEB8E179F0710F02193FBCFF5
:1013B0000F90DF91CF910895CF93DF9300D0CDB7F9
:1013C000DEB72091C0043091C1042115310511F41C
:1013D00024EC34E0CE010196821B930B0F900F900A
:1013E000DF91CF910895CF93DF931F92CDB7DEB7F2
:1013F0002091C0043091C1042115310511F424EC71
:1014000034E0F901AE014F5F5F4FCF01821B930BB8
:101410004E175F0728F060816E3B11F43196F5CFCF
:101420000F90DF91CF910895009741F0EFE9FFE031
:101430003197F1F700C000000197F6CF0895843688
:10144000910538F064E670E00E94543DCB010C94A5
:10145000140A019728F025E32A95F1F70000F9CF47
:1014600008956AE070E00E94543DCB010C941F0A7D
:10147000E82FF0E0EE0FFF1FED54FD4F80819181CA
:101480000895E82FF0E0EE0FFF1FE759FD4F808130
:10149000918108952FB7F894E82FF0E0EE0FFF1F29
:1014A000EB52FD4F808191812FBF089580913E03C3
:1014B000089580911D0290911E02089580910B0263
:1014C00090910C02089580910D0290910E02089562
:1014D000E82FF0E0EE0FFF1FE15EFD4F808191816C
:1014E0000895262F613110F4423040F021E030E0C1
:1014F000FC013383228331832083089550E0BA01B5
:10150000620F711D620F711D660F771F660F771FC7
:10151000665F7F4F44E050E00C94D03D282FCA0115
:10152000213188F4623078F470E0620F711D620F2F
:10153000711D660F771F660F771F665F7F4F44E050
:1015400050E00C94EE3D0895FF920F931F93CF93BC
:10155000DF9300D000D0CDB7DEB70AEE10E0F12C5B
:10156000F801459155916591749149835A836B8334
:101570007C83AE014F5F5F4F60E08F2D0E948E0A2B
:10158000F8013496459155916591749149835A8338
:101590006B837C83AE014F5F5F4F61E08F2D0E94B4
:1015A0008E0AF394085F1F4F81E1F812D9CF81E0D2
:1015B0000E94C6100F900F900F900F90DF91CF9167
:1015C0001F910F91FF90089581E020919302309137
:1015D00094022331310509F080E008958091910251
:1015E00090919202089580918D0290918E020895BB
:1015F000809197029091980208958091470290916E
:101600004802039750F080914D0290914E0203974B
:1016100020F083E090E00C942B1880E008952FB721
:10162000F89480E090E0FC01EE0FFF1FEE0FFF1F2B
:10163000E950FD4F1082118212821382019681318E
:10164000910589F784E690E090933C0380933B03F7
:1016500010923D032FBF0895CF93CFB7F894109207
:101660001C0210921B021092170210921802109284
:10167000190210921A021092130210921402109280
:1016800015021092160210920F0210921002109280
:101690001102109212020E94293690930A0280933E
:1016A0000902CFBFCF9108950E942C0B10920E0219
:1016B00010920D0210920C0210920B020895EFE1AD
:1016C000F2E01192119282E0E936F807D1F708951D
:1016D000CF93CFB7F89481E090E090933C03809350
:1016E0003B0381E080933D030E945F0BCFBFCF910E
:1016F0000895CF93DF930E94680BC0911D02D09193
:101700001E0280911D0290911E02C817D90729F46C
:101710008AE090E00E944F36F4CFDF91CF91089598
:1017200010923E0380E00C946E05CF93DF9381E02E
:101730000E944A0AEC0180E00E944A0A8C179D0729
:1017400018F4C81BD90B02C0C0E0D0E081E0C93E4C
:10175000D34008F480E0DF91CF9108958F929F925B
:10176000AF92BF92CF92DF92EF92FF92CF93DF932F
:10177000CDB7DEB728970FB6F894DEBF0FBECDBF4A
:10178000F82E5B0161157105D1F140E0682FCE01A3
:1017900005960E94710A41E06F2DCE0101960E94CC
:1017A000710A2B813C8140E050E0CF80D884E12C4D
:1017B000F12C2C193D094E095F09B50180E090E03C
:1017C0008D809E80A12CB12C681979098A099B090A
:1017D0000E94383D29813A8140E050E028193909BA
:1017E0004A095B090E948A3D2C0D3D1D4E1D5F1D5F
:1017F00057FF03C020E030E0A901C90102C080E02A
:1018000090E028960FB6F894DEBF0FBECDBFDF91F3
:10181000CF91FF90EF90DF90CF90BF90AF909F90CF
:101820008F9008958F929F92AF92BF92CF92DF9246
:10183000EF92FF92CF93DF93CDB7DEB728970FB625
:10184000F894DEBF0FBECDBFF82E5B0161157105A8
:10185000D1F140E0682FCE0105960E94710A41E067
:101860006F2DCE0101960E94710A29813A8140E0D4
:1018700050E0CD80DE80E12CF12C2C193D094E0981
:101880005F09B50180E090E08F809884A12CB12C95
:10189000681979098A099B090E94383D2B813C818E
:1018A00040E050E0281939094A095B090E948A3D45
:1018B0002C0D3D1D4E1D5F1D57FF03C020E030E085
:1018C000A901C90102C080E090E028960FB6F89403
:1018D000DEBF0FBECDBFDF91CF91FF90EF90DF90C5
:1018E000CF90BF90AF909F908F9008958250893194
:1018F00030F4E82FF0E0EF58FF4F8081089581E049
:101900000895CF93DF93833149F481E020919302CE
:101910003091940223313105C1F41AC0E82FF0E070
:10192000EE0FFF1FE759FD4FC081D1810E94760C59
:10193000882319F0813029F00AC081E0E39740F450
:1019400004C081E0C935D24018F480E001C081E0D4
:10195000DF91CF910895CF93C0E08FE18C0F0E946B
:10196000810C882329F0CF5FC630B9F786E001C02B
:101970008C2FCF9108951F93CF93DF931F92CDB7F4
:10198000DEB7182F69830E94760CE12FF0E0EE0F8E
:10199000FF1FE759FD4F4981682F808191810F908A
:1019A000DF91CF911F910C941F3A2FB7F89460915B
:1019B00005027091060280910702909108022FBFE4
:1019C0002DE730E040E050E00E94683DBB27A52FA6
:1019D000942F832F089580913B0390913C03892B92
:1019E00049F080913B0390913C03019790933C0315
:1019F00080933B03089590E0880F991FFC01E759FD
:101A0000FD4F208131816217730718F4261B370BB5
:101A100004C0AB01421B530B9A01FC01E15EFD4F78
:101A20002730310518F01182108206C020813181E3
:101A30002F5F3F4F31832083FC01E759FD4F7183B6
:101A4000608308958FB7F8941092050210920602F1
:101A500010920702109208021092010210920202E4
:101A600010920302109204028FBF0E94680B0E9422
:101A7000540B60E070E089E10E94FB0C60E070E0D4
:101A80008BE10E94FB0C60E070E08CE10E94FB0C9B
:101A900060E070E08DE10C94FB0C10921E0210923D
:101AA0001D020E94220DE9E6F2E01192119282E0FD
:101AB000E33BF807D1F70895CF93C82F80913E03F9
:101AC00081110CC081E00E946E05C1110E944D0D74
:101AD00081E080933E03CF910C94790BCF910895D0
:101AE0000C944D0D80913E03882309F44FC0409122
:101AF0009702509198028091050290910602A09160
:101B00000702B0910802840F951FA11DB11D80939B
:101B1000050290930602A0930702B09308028091F9
:101B2000000291E0980F90930002883578F120919F
:101B30008D0230918E02DA010E94173D24E630E0DA
:101B400040E050E00E94683D8091010290910202C5
:101B5000A0910302B0910402280F391F4A1F5B1F96
:101B60002093010230930202409303025093040237
:101B7000CA01B90120EA3CE840E050E00E94683D1B
:101B8000B9018AE10E94FB0C109200020895CF92E5
:101B9000DF92EF92FF920F931F93CF93DF931F92E9
:101BA000CDB7DEB7C0906902D0906A0280916B0217
:101BB00090916C028C159D0518F4C81AD90A02C0C0
:101BC000C12CD12CB60182E10E94FB0C0BE712E084
:101BD0009FE1F801619171918F01892F99830E9492
:101BE000FB0C99819F5F9532A1F70E94AB0CF82EF8
:101BF00080E000E010E08F1569F0EFE1E80FF0E021
:101C0000EE0FFF1FE759FD4F20813181020F131F97
:101C10008F5FF1CFB80183E10E94FB0C0115110524
:101C200081F00C151D0520F49601201B310B03C01B
:101C300098012C193D09293B3B4018F4680113E138
:101C400002C012E1F12CB60184E10E94FB0C6F2D61
:101C500070E086E10E94FB0C612F70E085E10E943C
:101C6000FB0C0E94D50C7C010E94AD1A882329F040
:101C700000916F02109170020BC00E9470218823A6
:101C800029F000916D0210916E0202C000E010E098
:101C9000B80187E10E94FB0CB70189E10E94FB0CAF
:101CA0009801D6010E94173D20E137E240E050E064
:101CB0000E94683DB90188E10F90DF91CF911F919B
:101CC0000F91FF90EF90DF90CF900C94FB0C4F9210
:101CD0005F926F927F928F929F92AF92BF92CF92BC
:101CE000DF92EF92FF92CF93DF93CDB7DEB72897C5
:101CF0000FB6F894DEBF0FBECDBF0E9429362091EB
:101D0000090230910A02821B930B8133954708F434
:101D1000A0C04FB7F89420911B0230911C02A8EE8E
:101D2000B3E00E94173D6B017C01F694E794D794D1
:101D3000C79440901702509018026090190270905A
:101D40001A02609113027091140280911502909111
:101D5000160280900F0290901002A0901102B09095
:101D600012024FBF6D837E838F8398870E942C0B56
:101D700020910D0230910E022F5F3F4F30930E02E3
:101D800020930D026D817E818F819885A701960138
:101D90000E94683D29833A834B835C83C301B2016F
:101DA000A70196010E94683DB90180E00E94AE0B38
:101DB0003C0169817A8181E00E94AE0B861597050E
:101DC00018F4681A790A02C0612C712C4090A102A3
:101DD0005090A2026414750420F0B3018CE10E94BB
:101DE000FB0CB301641975098BE10E94FB0CC50162
:101DF000B401A70196010E94683DB90187E00E94E5
:101E0000AE0B20910B0230910C0290930C02809348
:101E10000B02BC01621B730B660F771F8DE10E94E2
:101E2000FB0CB6018EE128960FB6F894DEBF0FBE0C
:101E3000CDBFDF91CF91FF90EF90DF90CF90BF901B
:101E4000AF909F908F907F906F905F904F900C9489
:101E5000FB0C28960FB6F894DEBF0FBECDBFDF9106
:101E6000CF91FF90EF90DF90CF90BF90AF909F9079
:101E70008F907F906F905F904F900895CF92DF92F8
:101E8000EF92FF920F931F93CF93DF932FB7F894A6
:101E900080913B0390913C032FBF892B09F0ADC08B
:101EA00080913D0381119FC080911D0290911E027F
:101EB000019690931E0280931D024091F70250916B
:101EC000F8026091F9027091FA027695679557953C
:101ED00047958091170290911802A0911902B09134
:101EE0001A02840F951FA61FB71F809317029093A5
:101EF0001802A0931902B0931A024091FB0250916C
:101F0000FC026091FD027091FE02769567955795EF
:101F100047958091130290911402A0911502B091FF
:101F20001602840F951FA61FB71F8093130290936C
:101F30001402A0931502B09316024091130350911E
:101F40001403609115037091160376956795579564
:101F5000479580910F0290911002A0911102B091CB
:101F60001202840F951FA61FB71F80930F02909334
:101F70001002A0931102B093120280911B02909163
:101F80001C02019690931C0280931B020E94670E14
:101F900003EB12E0C0E0D0E0B8EECB2EB3E0DB2ED6
:101FA000E12CF12CFE01EE0FFF1FEE0FFF1FE95099
:101FB000FD4F6081718182819381A70196010E940A
:101FC000683DF801219331938F01B9018C2F0E9454
:101FD000AE0BBC018C2F0E94FB0C2196C131D105A8
:101FE00009F70E94C70DDF91CF911F910F91FF90CC
:101FF000EF90DF90CF900C940F0BDF91CF911F915A
:102000000F91FF90EF90DF90CF90089580913E0365
:1020100081110C943E0F089560E08FE393E00E94DD
:10202000712987FD0AC0811102C00C94A329992748
:1020300087FD909501970C946D2B08950E949F0544
:1020400078940E9423050E9480070E9418220E9413
:10205000471B0E94700D0E94C3090E942D120E940E
:1020600068300E9483310C944F110E941E100E9410
:102070000C10FDCF6BED71E08FE393E00E94042F15
:102080008EE890E09093400380933F03E3E4F3E015
:102090008081825E80830895FC0124812E51621725
:1020A00010F40C94FF2E862F90E0821B91090E9461
:1020B00042156EE00C946D38FF920F931F93CF93EF
:1020C000DF93EC018B0141110E940F3E85E0F82E59
:1020D000FA9459F0CE010E94E83D8017910739F03B
:1020E00084E690E00E943B36F3CF81E001C080E0BF
:1020F000DF91CF911F910F91FF900895EF92FF9282
:102100000F931F93CF93DF937B018C01E80EF91E91
:10211000CFEFDFEF0E151F05A9F0C8010E94E03DCB
:10212000C82728E0CE01969587953C2FEC0130FF1B
:1021300004C031E0C32730EAD327215099F70F5F5D
:102140001F4FE8CFCE01DF91CF911F910F91FF90EC
:10215000EF900895EF92FF920F931F93CF93DF9329
:102160001F92CDB7DEB78C017B0149830E947E10A0
:102170004981BC01C8018E0D9F1D0F90DF91CF9149
:102180001F910F91FF90EF900C945C10482F68E81E
:1021900070E08AE090E00C94AA10482F6CE073E0A5
:1021A00084E990E00C94AA10482F6CE370E082EA76
:1021B00093E00C94AA100F931F93CF93DF93D82F23
:1021C000182F1170412F63E678E680E090E00E94BE
:1021D0005C10C82F412F6CE679E682E090E00E9407
:1021E0005C108111C1E0D1FB002700F9402F69E0AC
:1021F00070E084E090E00E945C108111C260D2FB2C
:10220000112710F9412F62E070E086E090E00E9413
:102210005C108111C460D3FBDD27D0F94D2F68E03D
:1022200070E088E090E00E945C108111C8600111AC
:102230000E94A40A80E00E94C6108111C2601111A0
:102240000E947F1680E00E94CD108111C460D111E0
:102250000E94481280E00E94D4108111C8608C2F27
:10226000DF91CF911F910F910895CF93C82F0E94B6
:102270003E31882389F0C0FDC260C1FDC460C2FD4B
:10228000C8600E945B318C2F0E94DB10682F8C2F5E
:102290000E945F3181E001C080E0CF91089580E02D
:1022A0000E94DB1081110C94351181E0089580E0CB
:1022B0000E94DB1081600C943511CF930E945E3038
:1022C00083E393E09093CE038093CD03C1E0C0936A
:1022D000CC031092C40388E893E00E9495138230E7
:1022E00011F4C093C4030E940E1A91E0813009F0EA
:1022F00090E0892FCF91089561E081E00E946B19F1
:102300008FE393E09093CE038093CD03089561E033
:1023100081E00E946B198BE493E09093CE0380934D
:10232000CD03089560E082E00E946B198DE293E096
:102330009093CE038093CD0308959091680390937A
:10234000C5031092C40390E08830910560F5FC014C
:10235000E65DFF4F0C94A93D88E893E00E94951339
:10236000811106C00E9487111CC081E08093C403C4
:102370000E947C1116C087E293E00CC00E9492116B
:1023800010C085E08093C503F3CF81E08093C40340
:1023900085E493E09093CE038093CD0302C00C9428
:1023A000D6160C940E1A80E00895CF93C82F0E9481
:1023B0004327882359F1C0934B031092490310928D
:1023C000480383E080934A030E94933B81E00E948C
:1023D0005C0D0E945D11882391F081E080934A0397
:1023E0000E94401D0E945E301092CC0384E00E9447
:1023F000073580914B030E949D110E947C1D0E9415
:10240000900B0E94A33BCF910C946730CF9108951D
:10241000DC01D296ED91FC91D397EE0FFF1FEE0FEA
:10242000FF1FE951FE4F6591759185919491089533
:102430004CE350E06BEF71E00C94AF3DFC0126895A
:1024400037892630310520F025E030E0378B268BA8
:102450000895FC0180810C942E054CE350E062EA63
:1024600073E08CE493E00E94D03D8CE493E00C9404
:1024700029124CE350E062EA73E08CE493E00E949E
:10248000EE3D81E00E94D4108CE493E00C9429127C
:102490008CE493E00E9418120C9439120F931F934E
:1024A000CF93DF93CDB7DEB7C754D1090FB6F894F9
:1024B000DEBF0FBECDBF8C01BC01CE0101960E94D4
:1024C000B72BCE0101960E94D42B8CE3FE013C96E3
:1024D000D80101900D928A95E1F70E943912C80146
:1024E0000E942912C95BDF4F0FB6F894DEBF0FBE02
:1024F000CDBFDF91CF911F910F910895FC012591E0
:102500003491F901099440E0FC012591349102963F
:10251000232B11F04F5FF8CF842F0895EF92FF9295
:102520000F931F93CF93DF93EC017B018A0185E02A
:102530000E94410A8E159F0518F4188281E007C099
:102540000817190718F481E0888301C080E0DF9143
:10255000CF911F910F91FF90EF900895282F81E068
:1025600090E03AE0215038F0AC01349FC001359F33
:10257000900D1124F7CF089597FD02C081E00895D2
:102580008FEF0895CF92DF92EF92FF92CF93611574
:1025900071058105910521F461E070E080E090E033
:1025A000C0E02AE0C22ED12CE12CF12CCF5FA70194
:1025B00096010E94683DCA01B90121153105410506
:1025C0005105A1F78C2FCF91FF90EF90DF90CF9026
:1025D0000895BC0180E090E00C94C212CF92DF928B
:1025E000EF92FF920F931F93CF93DF93EC017B0148
:1025F0006A01E881F981CF01B8010E94543D00973A
:1026000031F01E141F049CF4081B190B03C01E1488
:102610001F0474F4C901801B910BE817F90718F423
:102620000E0F1F1F01C08901198308830DC08C0183
:10263000C8018C0D9D1D8E179F0718F4E01BF10B30
:1026400001C0F601F983E883DF91CF911F910F91CB
:10265000FF90EF90DF90CF9008950F931F93242F5A
:1026600030E001E010E040E050E00E94EE121F91E7
:102670000F9108950F931F93242F30E001E010E095
:1026800041E050E00E94EE121F910F910895AF9229
:10269000BF92CF92DF92EF92FF920F931F93CF934F
:1026A000DF93EC017B016A0159016881798180E047
:1026B00090E00E94C212823020F082500E94AE123E
:1026C00002C081E090E08C019501A601B701CE0126
:1026D0000E94EE12DF91CF911F910F91FF90EF902A
:1026E000DF90CF90BF90AF9008952FEF3FEF40E085
:1026F00050E00C9447130E9494368111FCCF0E9445
:1027000094368823E1F30895CF93CAE00E94683697
:10271000811108C084E690E00E944F36C150B1F7A5
:1027200080E001C081E0CF910895FC01808191811A
:102730008930910579F09C0124503109253031050B
:1027400058F09C012150310981E02230310528F4F4
:1027500080E0089583E0089582E00895CF93DF93A9
:10276000FC012081318145E0429FF001439FF00D43
:102770001124E60FF11DEE0FFF1FED53FD4FC59124
:10278000D4916130C9F42230310529F4C0915E033F
:10279000D0915F031DC02130310529F4C091600341
:1027A000D091610315C00E949513823089F4809105
:1027B0007003909171030AC0623051F40E94951326
:1027C000823031F48091720390917303C80FD91F46
:1027D000CE01DF91CF910895FF920F931F93CF9376
:1027E000DF938C01F62EFC01C085D1850E94AE13CB
:1027F000F2E0FF120CC0F801208131812230310556
:1028000031F4C730D10518F0219780EB94E09C019A
:102810002C9FC0012D9F900D3C9F900D1124DF91A6
:10282000CF911F910F91FF9008950F931F93CF9316
:10283000DF93EC018B0150E00E945E374AE3B80160
:10284000CE01DF91CF911F910F910C940A37EF9237
:10285000FF920F931F93CF93DF9300D01F92CDB7BA
:10286000DEB78C01462F0C969A8389838EE08B838A
:10287000D801ED91FC91EE0FFF1FE95CFD4FE59053
:10288000F490BE016D5F7F4FCE0101960E9415143A
:10289000A701BE016D5F7F4FCE0101960E942537D3
:1028A00040E2BE016D5F7F4FCE0101960E940A3764
:1028B000F80142815381BE016D5F7F4FCE010196C9
:1028C0000E945E374FE2BE016D5F7F4FCE010196E1
:1028D0000E940A37D80118964D915C911997BE0154
:1028E0006D5F7F4FCE0101960E945E370F900F9073
:1028F0000F90DF91CF911F910F91FF90EF9008956E
:10290000CF93DF9300D01F92CDB7DEB7462F2EE0D6
:102910002B830C969A838983BE016D5F7F4FCE0116
:1029200001960E9415140F900F900F90DF91CF9198
:1029300008952AE1289FB001299F700D11246C563B
:102940007F4F4AE150E088E893E00C94D03D2AE1C3
:10295000289FB001299F700D11246C567F4F4AE1CA
:1029600050E088E893E00C94EE3DFC01A281B38135
:1029700020916C0330916D030E94173D24E630E0F6
:1029800040E050E00E94683D293EFDEF3F074105D1
:10299000510520F028EE3DEF40E050E0C9010895D8
:1029A000FC01208131812130310529F420915C0323
:1029B00030915D030AC02230310529F420915A0379
:1029C00030915B0302C020E030E0FC0180859185FE
:1029D000AC01249FC001259F900D349F900D1124C0
:1029E0000895FC01208131814CE0429FB001439F5A
:1029F000700D1124655B7D4F4CE050E00C94AF3DB1
:102A0000FC01608187E392E00C943338CF93DF932D
:102A1000EC018881998160E0892B41F4CE010E940C
:102A2000EC1367E0DF91CF910C94673ACE010E94DE
:102A3000EC1365E00E94673A8FE20E94B237888506
:102A400099850E94F13783E4DF91CF910C94B237DE
:102A500066E0FC01848195810C94633A66E0FC0198
:102A6000868197810C94633AFC0182819381883E30
:102A7000FDEF9F0721F48AEE98E00C941B3867E085
:102A80000C945F3A2AE1AC01249FC001259F900D70
:102A9000112480569F4F08950F931F93CF93DF9378
:102AA000CDB7DEB7A7970FB6F894DEBF0FBECDBF88
:102AB0008C01AB01BC01CE0101960E94FC29CE0124
:102AC00001960E94812A8AE1FE013C96D80101907C
:102AD0000D928A95E1F7A7960FB6F894DEBF0FBE68
:102AE000CDBFDF91CF911F910F910895FC012081FF
:102AF0003181260F371F2A30310550F01616170680
:102B000024F4FC011182108205C029E030E0FC01B0
:102B1000318320830C94F11462E00E94EC139C0139
:102B200040E050E060E072EC8BEE9BE00E94683D7C
:102B3000213187E238074105510520F020E137E2D5
:102B400040E050E0C901089562E00E94EC139C014E
:102B500040E050E060E478E78DE791E00E94683D56
:102B6000293883E138074105510520F028E833E191
:102B700040E050E0C901089561E00E94AE13BC013D
:102B800088E799E60E94543DCB010895CF93DF93E7
:102B9000EC018A819B818436910520F484E690E0E3
:102BA0009B838A838A819B81893E9D4F20F088EE9A
:102BB0009DEF9B838A838A859B85893E934020F085
:102BC00088EE93E09B878A87CE010E94BC152885FA
:102BD00039858217930710F499878887CE010E9460
:102BE0008C152C813D818217930710F49D838C8373
:102BF000CE010E94A4152E813F818217930710F405
:102C00009F838E8380916A0390916B032C813D8119
:102C10002817390710F49D838C832E813F81281754
:102C2000390710F49F838E83DF91CF910895EF923F
:102C3000FF920F931F93CF93DF9300D0CDB7DEB7F2
:102C40007C01FC0180819181892B19F402E310E061
:102C500002C001E010E0C70169837A830E94BC15BD
:102C60009C0141E050E069817A81C70108960E9489
:102C7000EE12C7010F900F90DF91CF911F910F912E
:102C8000FF90EF900C94C6150F931F93CF93DF9393
:102C9000EC0102960E947513CE010E94C6150A81AE
:102CA0001B81169507951D830C83CE010E949513F9
:102CB000813021F4169507951D830C838C819D81AD
:102CC0009F838E83CE01DF91CF911F910F910C9442
:102CD000C615CF93DF93EC0104960E947513CE01C5
:102CE000DF91CF910C94C615CF93DF93EC0106963C
:102CF0000E947513CE01DF91CF910C94C6150F93EE
:102D00001F93CF93DF934CE050E063E972E088E8D3
:102D100093E00E94AF3D88E893E00E94C615C0E0B2
:102D2000D0E08E010F5F1F4FB80188E893E00E944A
:102D30008014CE010E94A7140E31110511F0E80194
:102D4000F0CF81E0DF91CF911F910F910C94CD10C6
:102D5000FC0182859385883EF3E09F0719F48AEE93
:102D600098E005C063E00E94FE3985EE98E00C947F
:102D70001B38CF93DF93EC012FEF3FEF41E050E0A2
:102D80000A960E944713CE01DF91CF910C94C6158D
:102D900080916403909165030E940C1C89E393E089
:102DA0009093CE038093CD030C940E1A81E0809310
:102DB000CC031092A2034091A203242F30E0809113
:102DC000620390916303880F991F019728173907B1
:102DD00011F41092CC0340FF02C080E001C083E0F8
:102DE0000E949D11813089F49091CC03992369F060
:102DF0008091A2038F5F8093A2030E94231D0E94F3
:102E0000220D0E94C8168130B1F208958091C1034D
:102E1000811113C00E94560A882381F00E94590A2A
:102E20002091A3033091A403821B930B9C0181E0AA
:102E30002330310518F080E0089581E00895815E27
:102E40000C94410A0F931F93CF93DF9310E0CFEFC1
:102E5000DFEF00E08091C303181760F4812F0E9418
:102E60001F178C179D0710F0CE0101C0012F1F5FA7
:102E7000EC01F0CF802FDF91CF911F910F9108953A
:102E8000CF93DF939091C103911104C0DF91CF9153
:102E90000C941F179091A703C82FD0E0992391F0AD
:102EA0000E941F17CC0FDD1FFE01E855FC4FCC54CC
:102EB000DC4F2081318148815981241B350B280F3B
:102EC000391F07C0FE01EE0FFF1FE855FC4F2081A0
:102ED0003181C901DF91CF910895EF92FF920F9355
:102EE0001F93CF93DF93C0E0D0E0E12CF12C0FEFE4
:102EF0001FEF8091C30390E0C817D9076CF48C2FA3
:102F00000E944017E816F90608F47C018017910723
:102F100008F48C012196EDCFE01AF10A81E02091AE
:102F20007803309179032E153F0508F080E0DF919A
:102F3000CF911F910F91FF90EF900895CF93C82FDD
:102F40008091C103882341F0C11106C00E94590A33
:102F50009093A4038093A303C093C1030E945F0BCB
:102F60008091C003811104C08C2FCF910C948005F7
:102F7000CF910895EF92FF920F931F93CF93DF931A
:102F800081E00E94BA0586E10E94410A8093C30352
:102F900004EB13E038EAE32E33E0F32EC0E0D0E098
:102FA0008091C30390E0C817D9076CF48C2F0E945E
:102FB0001F17F801819391938F01F70181939193EA
:102FC0007F012196EDCF1092C1031092C00380E0E3
:102FD0000E949E171092A4031092A3038FEF809378
:102FE000C203DF91CF911F910F91FF90EF90089551
:102FF00080E00E949E1781E08093C00308950E94A4
:10300000F81780E00C94BA05FF920F931F93CF93AB
:10301000DF938091C20387FD17C00E944017EC0127
:1030200010E0FF24F39400E08091C303181750F4DC
:10303000812F0E944017C817D90708F40F29FF0CE9
:103040001F5FF2CF802F01C080E0DF91CF911F91F1
:103050000F91FF9008951F93CF93DF93EC0110E041
:103060008091C303181748F48FE1810F0E94680A0A
:103070008C179D0720F01F5FF3CF81E001C080E037
:10308000DF91CF911F9108959F92AF92BF92CF92FF
:10309000DF92EF92FF920F931F93CF93DF9386E01F
:1030A00090E00E942B18882309F464C00E94FD0A56
:1030B000882309F45FC08091C20387FF04C00E9487
:1030C00022178093C2038091C2030E941F176C01D4
:1030D00062E088E893E00E94AE135C0148EAE42EC7
:1030E00043E0F42E04EB13E0C0E0D0E09924939485
:1030F0008091C30390E0C817D907B4F48C2F0E94C5
:103100001F178A159B0570F0C816D90608F4912C74
:10311000F701819391937F01F801819391938F013E
:103120002196E6CF992493941092A7030E943136FA
:103130009093A6038093A503992069F0DF91CF9126
:103140001F910F91FF90EF90DF90CF90BF90AF90C5
:103150009F900C94F8170E940418DF91CF911F9153
:103160000F91FF90EF90DF90CF90BF90AF909F9026
:103170000C949E17DF91CF911F910F91FF90EF90CC
:10318000DF90CF90BF90AF909F900895CF938091A4
:10319000A703811115C081E08093A703C0E080914F
:1031A000C303C81768F48C2F0E941F17EC2FF0E0A0
:1031B000EE0FFF1FEC54FC4F91838083CF5FEFCF66
:1031C000CF9108950E9431362091A5033091A60336
:1031D000821B930B08958091C103811103C00E944B
:1031E000441809C00E94C6180E94E218409718F0BF
:1031F00080E00E949E170E940617882311F082E04B
:1032000008958091C0038823D1F381E008951F932E
:10321000CF93DF93EC0110E08091C303181740F4C3
:10322000812F0E9440178C179D0720F41F5FF4CF59
:1032300080E001C081E0DF91CF911F9108951F933D
:10324000CF93DF93EC0110E08091C303181740F493
:10325000812F0E944017C817D90720F41F5FF4CFB1
:1032600080E001C081E0DF91CF911F9108956091CE
:10327000C303662329F070E00E94543DCB010895FA
:1032800080E090E008950E94E72161E081E00E94E3
:103290006B1981E00E94441F8091C6039091C7037F
:1032A0000C94B22181E00C94FD210E94FD0A882338
:1032B00021F00E9484210C94DF1F089520916A035D
:1032C00030916B038217930708F4C9019093C703E9
:1032D0008093C6030895CF93C62F882349F0682FA3
:1032E00088E893E00E94EC139093CB038093CA0389
:1032F000CC2329F080918C0390918D0304C08091A0
:103300008E0390918F039093C9038093C8036091BB
:10331000C50370E08091C8039091C9030E94543D99
:10332000CB01CF910C945E198091CD039091CE0387
:103330000C947E128091CD039091CE0302960C9452
:103340007E120E949A190E947C1D0C940637CF931E
:10335000DF930E943136EC010E9431368C1B9D0BAD
:10336000853B910510F00E94900B0E9494368823B3
:1033700099F388E0DF91CF910C940735CF93DF93D9
:103380000E94A1190E943136EC0185E00E940735A8
:103390000E94900B93980E94A7300E948413811181
:1033A0000FC00E94EF310E948413811109C00E9456
:1033B00031368C1B9D0B853B910568F3939AEBCFBF
:1033C00088E00E94073580E0DF91CF910C945C0D7E
:1033D0000E94A1190E94900B0E94AB3086E00E94CF
:1033E00007350C94A719E091CD03F091CE033496E4
:1033F00085919491FC010994811103C00E94E81900
:103400000BC0813039F48091CC03811105C00E943A
:10341000BE1902C081E0089580E008950F931F93C4
:10342000CF93DF93109277040E94941902E0C0E0DA
:10343000D0E011E00E949436809377040E94D0304F
:10344000112379F00E94BC1D082F0E94FC19182F2F
:10345000882339F00E94590AC817D90791F411112D
:1034600007C08091CC03882311F0011114C010E033
:10347000809177048130F1F60E9465368823D1F27D
:103480000AC00E94590AEC010E94F319082F0E94F9
:10349000FC19182FE4CF0E949A19802FDF91CF9149
:1034A0001F910F91089581E00E94341B0C94FF1727
:1034B0000E94261B0E94BA1721E08091740390910C
:1034C0007503892B09F420E02093CF0380E00C944E
:1034D000441F1F93CF93DF93C091CA03D091CB03B6
:1034E000CE010E9437190E941F19182F0E9406173B
:1034F000811109C0111107C00E94EE0A11E0C8171E
:10350000D90708F410E0812FDF91CF911F91089522
:103510001F93CF93DF930E94691A182F0E94C11A3C
:10352000EC018091CF03882329F0BE01812F0E94F6
:103530008E1F01C0812F882329F081E00E94341B57
:1035400081E007C0BE01812F0E94AD200E94071BB1
:1035500082E0DF91CF911F91089581E09091D40393
:10356000911180E0089581E02091D2033091D3033E
:10357000232B09F480E008958091D2039091D30326
:1035800008958091D0039091D1030895CF93DF9354
:103590001F92CDB7DEB74091500350915103BA014D
:1035A0007250CE0101960E948E12898181111BC03A
:1035B0000E94F30A009711F481E090E09C0140E042
:1035C00050E060E478E78DE791E00E94683D29389B
:1035D00083E138074105510520F028E833E140E058
:1035E00050E0C90102C080E090E00F90DF91CF91E0
:1035F0000895813020E8920710F080E090E89093E1
:10360000D3038093D2030E947C050C94680BCF9364
:10361000DF93EC010E94C61ABC01C817D90708F451
:10362000BE018091D0039091D1038617970759F07E
:103630007093D1036093D00380E10E94120CDF915C
:10364000CF910C94F91ADF91CF9108958091D40312
:10365000882349F080E090E00E94F91A81E00E94FE
:1036600068051092D4030895CF93C82F8091D40396
:1036700081110BC0CC2349F080E090E00E94F91A40
:1036800080E00E946805C093D403CF91089580E044
:1036900090E00E94F91A81E00C94341B87E080933B
:1036A0007D0482E080937E040E94003583E0809355
:1036B000D50308950F931F93CF93DF938091C40395
:1036C000882379F00E94AB0C9091900301E098134D
:1036D00001C000E011E0811110E0913021F41123CC
:1036E00011F010E000E00E94E40A882309F45CC0B5
:1036F00083E10E94410AEC0182E10E94410AC8175D
:10370000D90728F49C012C1B3D0BE90102C0C81B02
:10371000D90BC53FD14008F447C0C1E0011102C038
:1037200087E001C083E080937D04112329F080911C
:103730007D04825080937D04CC2329F080917D0408
:10374000815080937D04011104C0111102C0CC236B
:1037500031F081E00E940735111107C004C088E0F4
:103760000E94073508C0002331F0809176039091C4
:103770007703892B11F4D0E001C0D1E00E946836B4
:10378000811102C01092D503D11106C0C11104C02D
:103790000E946836883051F08091D503823011F450
:1037A00081E00AC082E008C0C0E0B8CF8091D503B4
:1037B0008F5F8093D503F0CFDF91CF911F910F9151
:1037C00008958FEF80937D0488E00C940735109264
:1037D000DA0308950E9431369093D9038093D80379
:1037E00008950E9431362091D8033091D903821B6D
:1037F000930B2091D6033091D7032817390728F06F
:1038000081E08093DA0382E008951092DA0381E088
:1038100008958091DA0308952CE3AC01249FC00140
:10382000259F900D11249093D7038093D60308957C
:103830000E94BA170E94E72181E00C94441F81E0A6
:103840000E94FD210C94FF171F93CF93DF93C0912B
:10385000CA03D091CB03CE010E9437190E940719E9
:10386000182F0E940617811109C0111107C00E946C
:10387000EE0A11E08C179D0708F410E0812FDF910C
:10388000CF911F9108951F93CF93DF930E94241C23
:10389000182F0E948421EC01BC01812F0E948E1FF1
:1038A000882329F081E00E94FD2181E007C0BE014C
:1038B000812F0E94AD200E94B22182E0DF91CF9142
:1038C0001F9108958091E9039091EA032091EC0300
:1038D000222341F00E9431362091E9033091EA031E
:1038E000821B930B08956091E5037091E60380912C
:1038F000E7039091E80328EE33E040E050E00E94B7
:10390000683DC90108956091E1037091E2038091DF
:10391000E3039091E40328EE33E040E050E00E949E
:10392000683DC90108950F931F93CF93DF9361E022
:1039300088E893E00E94EC138C0164E088E893E04F
:103940000E94EC13EC0184E10E94410A8017910768
:10395000B8F4C817D907B0F49C012C1B3D0BC80163
:103960008C1B9D0B64E670E00E94543DC9010E94CF
:10397000543D6436710510F063E670E0862F03C095
:1039800083E601C080E0DF91CF911F910F910895F0
:10399000CF93DF930E94931C9091EB039817E0F470
:1039A0008093EB030E94621C2091EE033091EF03A1
:1039B000EC01C21BD30B0E94621C9093EF03809317
:1039C000EE038091F0039091F1038C179D0720F492
:1039D000D093F103C093F003DF91CF9108950E943B
:1039E000C81C8091ED03882311F089E601C084E6AC
:1039F00090E02091EB03821B91092091F00330911C
:103A0000F103AC01429FC001439F900D529F900D66
:103A10001124089585E00E944A0ABC0185E00E94B5
:103A2000AE0B20914E0330914F03A90152508417E1
:103A3000950710F480E004C02817390718F481E0D6
:103A40000C94550508950E94931C8093EB031092EB
:103A5000EF031092EE031092F1031092F003109214
:103A6000E5031092E6031092E7031092E803109228
:103A7000E1031092E2031092E3031092E40308952D
:103A800068E572E080E00E94120C9093E00380935E
:103A9000DF0361E088E893E00E94EC13BC01685406
:103AA000744F693729E6720710F068E779E680E01D
:103AB0000E94120C813C2FEF920710F080EC9FEFD8
:103AC0009093DE038093DD030E94E40A8093ED036C
:103AD00088E893E00E94B5149093DC038093DB03A5
:103AE0000E9431369093EA038093E9030E94231DDC
:103AF00081E08093EC0308950E94621C9093EA0396
:103B00008093E9031092EC0308950E9476218111BD
:103B10001DC00E94B31A811119C00E940617882384
:103B200051F18091E5039091E603A091E703B091F4
:103B3000E80380599F4FAF4FBF4F8093E5039093A9
:103B4000E603A093E703B093E80308958091E103AF
:103B50009091E203A091E303B091E40380599F4F59
:103B6000AF4FBF4F8093E1039093E203A093E30331
:103B7000B093E403D2CF0895CF93DF938091EC0309
:103B8000811102C082E0E1C085E00E94410A2091DB
:103B90005003309151033E5F2817390718F48AEC1F
:103BA00099E0CEC080E00E944A0A2091DD03309166
:103BB000DE038217930758F42091DF033091E0036E
:103BC00082179307C8F40E94AD1A8823A9F088E8E9
:103BD00093E00E949513823009F093C08091900386
:103BE00090919103029709F08CC00E94E40A811120
:103BF00088C08AED99E07FC0C091ED030E94E40A7D
:103C0000C81719F08BEB99E09BC0C091C803D09105
:103C1000C903C851DC4F0E94F80AC817D90718F425
:103C200080EB99E08DC086E00E94410A20916E03EE
:103C300030916F038217930718F481EA99E080C0EE
:103C400089E10E94410AC091DB03D091DC03C83EA8
:103C50002DEFD207F9F08C179D07E0F088E893E08C
:103C60000E94B514C817D90709F04EC088E893E040
:103C70000E949513811162C080918A0390918B03F9
:103C800060918C0370918D030E94543D6A307105E0
:103C9000D8F554C0C0919203D0919303C83E83E0FD
:103CA000D807A0F46091E1037091E2038091E303EF
:103CB0009091E40320E63AEE40E050E00E94683D37
:103CC0002C173D0718F086E899E015C08091520343
:103CD00090915303892B09F455CF87E00E94410A44
:103CE00020915403309155032817390708F04ACF23
:103CF00086E799E025C0909349038093480381E0CB
:103D000024C08AED99E01CC0C091DB03D091DC0394
:103D100088E893E00E94B5148C179D0730F481E980
:103D200099E0909349038093480388E893E00E94C8
:103D3000B5149093DC038093DB03E1CF81E999E034
:103D4000909349038093480380E0DF91CF910895D9
:103D50000E941F1C0E94531A0C94FF17CF93DF93ED
:103D60001F92CDB7DEB78091F203882329F081300E
:103D700031F40E94881A0CC00E94431C09C00E94A2
:103D8000EB18823089F089830E94A81E89810CC0BB
:103D9000813051F49091C403992331F082E08093F3
:103DA000F2030E94BA1782E00F90DF91CF9108953D
:103DB000CF93DF930E94BA1761E083E00E946B19F2
:103DC000C091CA03D091CB038091C303811106C077
:103DD0000E94EE0AC817D90740F40CC0CE010E9419
:103DE00037190E941F19882329F00E94181C10926D
:103DF000F2030BC060E083E00E946B190E94581A26
:103E000081E08093CF038093F203DF91CF910895F7
:103E10008091F303813029F48091C6039091C70308
:103E2000089580E090E008952CE0829FC001112465
:103E300081509C4F0C94272287E494E00C94272215
:103E4000CF93DF9300D000D0CDB7DEB782E10E94E0
:103E5000410A9A83898384E10E94410A29813A8137
:103E6000281B390B3A83298387E10E94410A9C83EE
:103E70008B83CE0101960E9427220F900F900F9006
:103E80000F90DF91CF910895EF92FF920F931F93C0
:103E9000CF93DF93F82E81E08093F3030E94EE0A24
:103EA000BC012091C6033091C7034091CA035091D1
:103EB000CB030F2D8FE394E00E9442228091CA032E
:103EC0009091CB030E943719EC0110E08CE0E82EB2
:103ED0008091C303181798F4812F0E944017BC01EA
:103EE0002091C6033091C703E19EC00111240F2D1C
:103EF000AE0189509C4F0E9442221F5FE9CF109271
:103F00004D041092F60310924C0410924B04DF9172
:103F1000CF911F910F91FF90EF9008951F93CF9332
:103F2000DF93182FEB018091C403882361F11123E3
:103F300049F080914D04811105C00E94F81781E07D
:103F400080934D0480914D04882311F08530D9F47D
:103F50002091C6033091C703203A310510F420EABE
:103F600030E02C173D0710F41092C0030E94EB18AC
:103F70008093F3038130F1F40E946D17882319F0C8
:103F80008FEF8093C2030E94081F8C179D0780F05B
:103F9000112371F080914D04853051F49091F60316
:103FA00081E0890F8093F60381E09A3020F402C00B
:103FB0001092F60380E0DF91CF911F9108950F9347
:103FC0001F93CF93DF93EC010E94EE0AAE01BC0178
:103FD0008FE394E00E94FB2210E00CE08091C30389
:103FE000181770F4812F0E944017BC01019FC00177
:103FF0001124AE0189509C4F0E94FB221F5FEECF1F
:10400000DF91CF911F910F910895CF92DF92EF92A0
:10401000FF920F931F93CF93DF936091CA03709128
:10402000CB038FE394E00E9467228C018091CA0346
:104030009091CB030E9437197C01D12C9CE0C92EB2
:104040008091C303D81698F4CD9CE0011124C95087
:10405000DC4FB701CE010E9467220817190728F02C
:10406000B701CE010E9467228C01D394E9CFC80129
:10407000DF91CF911F910F91FF90EF90DF90CF9044
:1040800008950F931F93CF93DF93EB012091C80303
:104090003091C9038C012817390708F489010E945F
:1040A000081F9C018017910708F49801C217D307D5
:1040B000E1F040914D044530D1F42C173D07B8F0A4
:1040C00082179307A0F48091C6039091C7038C17C1
:1040D0009D0758F04091F4035091F5038091A3039C
:1040E0009091A4034817590711F4CE0109C080919B
:1040F000A3039091A4039093F5038093F403C90163
:10410000DF91CF911F910F9108950F931F93CF933C
:10411000DF93EC010E94EE0A9093400480933F04E9
:10412000D0934204C093410410E00CE08091C3039B
:10413000181770F4812F0E944017019FF00111247D
:10414000E950FC4F91838083D383C2831F5FEECFFE
:10415000DF91CF911F910F9108951F93CF93DF931C
:10416000182FEB010E94FD0A811108C01123E1F113
:1041700020914B0430914C04232BB1F10E9406177F
:10418000811132C0CE010E94DF1FCE010E94852026
:104190000E9405208C179D0708F048C09C012C0F39
:1041A0003D1F3695279530934C0420934B04BE0158
:1041B00080914B0490914C040E94412090934C04B8
:1041C00080934B0490914D04923009F1A8F4992307
:1041D000C1F0913039F5112339F083E080934D041B
:1041E00010924C0410924B0480914B0490914C041B
:1041F000DF91CF911F910895933061F0943081F059
:1042000011C0112389F30E94F81781E00CC01092AD
:104210004D04EACF10924C0410924B0484E003C08A
:10422000112311F385E080934D04DECF90934C046D
:1042300080934B04BCCF0C944319CF93DF930E941F
:1042400055190E94EE0AEC0162E088E893E00E94B2
:10425000EC138C179D0730F48091C8039091C9032B
:104260000E94B2218091CA039091CB038C179D07C5
:1042700018F489E197E02AC00E94630A029760F16E
:104280008091580390915903892B71F08BE10E9422
:10429000410AEC0188E893E00E94D014C817D907BE
:1042A0001CF485E197E012C0809152039091530372
:1042B000892B91F08DE10E94410A209156033091A3
:1042C00057032817390744F48FE097E09093490388
:1042D0008093480381E001C082E0DF91CF9108958F
:1042E00081E090915204911180E0089581E0209145
:1042F000500430915104232B09F480E008958091FB
:10430000500490915104089580914E0490914F046F
:1043100008950E94F30A009711F481E090E09C0157
:1043200040E050E060E072EC8BEE9BE00E94683D64
:10433000213187E238074105510520F020E137E2BD
:1043400040E050E0C9010895813020E8920710F064
:1043500080E090E890935104809350040E94780587
:104360000C94680BCF93DF93EC010E948921BC0170
:10437000C817D90708F4BE0180914E0490914F04EC
:104380006817790750F49C01261B370B2D3831052F
:1043900068F0BC016C58710909C09B01281B390BDE
:1043A0002D38310518F0BC0164577F4F86179707E9
:1043B00059F070934F0460934E048FE00E94120CEA
:1043C000DF91CF910C94A421DF91CF91089580913A
:1043D0005204882389F010925104109250041092D4
:1043E0004F0410924E0480E090E00E94A42181E0EE
:1043F0000E946205109252040895CF93C82F8091B5
:104400005204811113C0CC2389F080E090E00E9417
:10441000A421109251041092500410924F04109253
:104420004E0480E00E946205C0935204CF9108952B
:10443000109251041092500410924F0410924E04A6
:1044400080E090E00E94A42181E00C94FD21FC0119
:10445000428153814115510591F0A081B181B7FF8F
:1044600003C0B195A195B10928EE33E00E94263D25
:104470009A0140E050E00E94683DC901089580E043
:1044800090E008950F93FC01CB01002341F0461703
:10449000570708F4CA016417750748F407C0641782
:1044A000750708F4CA014617570708F4BA0197833D
:1044B00086839183808313821282158214823387CC
:1044C0002287681B790B718760870F910895FC0123
:1044D00086819781A285B3850084F185E02D309790
:1044E000D1F09B0140E050E0281B390B41095109F4
:1044F0000E942D3D9F01442737FD4095542F0E9477
:104500008A3D2115310581E04807510524F457FD06
:1045100005C0C90108958FEF9FEF089580E090E0F6
:104520000895DF92EF92FF920F931F93CF93DF9343
:10453000EC012A813B812417350720F4FA01E21BA4
:10454000F30B03C0F901E41BF50B8C819D8196955B
:1045500087958E179F0710F5E880F9802417350797
:1045600040F48A01021B130BCB018E199F097C01B9
:1045700005C0E61AF70A8901041B150BC7010E9442
:10458000BC12D82E888599850E94BC12D81206C00C
:104590001D830C83F986E8861B870A87DF91CF91FC
:1045A0001F910F91FF90EF90DF9008950F931F934D
:1045B000CF93DF93EC018B019A01A885B9850E9406
:1045C000263D2A853B8540E050E00E948A3DC80197
:1045D000A0E0B0E082179307A407B5071CF41F8280
:1045E0001E8204C0021B130B1F830E83DF91CF9129
:1045F0001F910F910895EF92FF920F931F93CF9306
:10460000DF93EC018B017A010E949122A701B8018E
:10461000CE01DF91CF911F910F91FF90EF900C94FD
:10462000D6220F931F93CF93DF938C01443019F060
:10463000CFEFDFEF02C0C1E0D0E00E946A36D801C0
:104640001B96EC91F0E0EE0FFF1FE759FD4F9C0128
:10465000C29FC001C39F900DD29F900D1124208155
:104660003181820F931F91838083DF91CF911F91BE
:104670000F910895EF92FF920F931F93CF93DF93C3
:104680001F92CDB7DEB78C01443021F0EE24EA94BE
:10469000FE2C03C0EE24E394F12C69830E946A3659
:1046A000D8011B96ED91FC911C976981E60FF11DD5
:1046B000E491F0E0EE0FFF1FE759FD4FE89E9001F7
:1046C000E99E300DF89E300D112480819181820F7A
:1046D000931F918380830F90DF91CF911F910F9152
:1046E000FF90EF900895CF93DF93EC010E94E634A2
:1046F000882311F0888101C08FEFDF91CF91089559
:10470000CF93DF9300D000D0CDB7DEB780E00E941A
:10471000380A9A83898381E00E94380A29813A8184
:10472000281B390B3A83298383E10E94410A9C8329
:104730008B83AE014F5F5F4F61E080E00E948E0A85
:10474000AE014F5F5F4F61E081E00E948E0A0F90E3
:104750000F900F900F90DF91CF910895CF93DF933B
:10476000D82F63EF76E087E097E00E947C30C0E0CE
:1047700082E10E94810C882399F08FE10E94810CD4
:104780008D17A1F0C1110CC065EE76E0DD2319F0A4
:1047900087E097E002C08CEF96E00E947C30C1E099
:1047A0000E949436813021F780E001C081E0DF91E2
:1047B000CF910895CF93DF9300D000D0CDB7DEB76F
:1047C000862F5A8349833C832B83AE014F5F5F4F13
:1047D00061E00E948E0A0F900F900F900F90DF9172
:1047E000CF910895FF920F931F93CF93DF93F82EED
:1047F000162F042F83E00E940735812F0E94410A63
:10480000EC01802F0E94380AAC019E01602F812F9D
:104810000E94DA2381E080933E030E94790BFF20FF
:1048200039F0DF91CF911F910F91FF900C9480236D
:10483000DF91CF911F910F91FF900895EF92FF921A
:104840000F931F93CF93DF93CDB7DEB72E970FB69D
:10485000F894DEBF0FBECDBF81E00E94AE23882357
:1048600009F441C06FE873E0CE0101960E94042F65
:104870008FEF8A8784E990E09A83898386E893E0C2
:104880009D878C8789E08E8761E0CE0101960E942A
:104890007129F82E87FD27C0082F112707FD1095D5
:1048A000F801EA57FC4FE49086E08F156CF38E2DEB
:1048B0000E94810C882341F30E94790B10923E03E1
:1048C0006F2DCE0101960E94CF27882341F0F80179
:1048D000E158FC4F44916E2D81E00E94F22381E06B
:1048E00080933E03D1CF2E960FB6F894DEBF0FBE55
:1048F000CDBFDF91CF911F910F91FF90EF90089561
:104900000F931F93CF93DF93CDB7DEB72E970FB6DC
:10491000F894DEBF0FBECDBF1092670063E573E071
:10492000CE0101960E94042F8FEF8A8784E990E0E0
:104930009A83898381E593E09D878C8787E08E87C2
:1049400061E0CE0101960E947129082F87FD20C0E9
:10495000E82FFF27E7FDF095EF5AFC4F1491812FC8
:104960000E94810C882361F30E94790B10923E0310
:10497000602FCE0101960E94CF27882329F0412F76
:10498000612F80E00E94F22381E080933E03D8CF24
:1049900081E0809367002E960FB6F894DEBF0FBEBD
:1049A000CDBFDF91CF911F910F9108958F3019F4F2
:1049B000CB010C94A421CB010C94F91AEF92FF9235
:1049C0000F931F93CF93DF93EC01443019F00FEF57
:1049D0001FEF02C001E010E00E946A36089F7001DC
:1049E000099FF00C189FF00C11240E946A362F8545
:1049F00038898C0141E050E0B701CE010D960E944C
:104A0000EE126D857E858B85DF91CF911F910F9181
:104A1000FF90EF900C94D624CF92DF92EF92FF920A
:104A20000F931F93CF93DF93CDB7DEB765970FB684
:104A3000F894DEBF0FBECDBFC82ED62E8A0180E00F
:104A40000E94AE23882309F469C0CC2039F00E946B
:104A5000E721E2E0EE2EFFE0FF2E06C00E94261BBB
:104A600063E0E62E70E1F72E65E673E0CE01019675
:104A70000E94042F8FEF8A872CE930E03A83298344
:104A8000FC86DD8620E030E8398B288B4D856C85EF
:104A9000CE0142960E94710A2A893B893F872E8760
:104AA00061E0CE0101960E94712987FD2FC081111E
:104AB000EDCF6E857F858F2D0E94D62460E0CE01DC
:104AC00001960E94CF278823D9F00E94790B1D8B75
:104AD0000C8B2E853F853B8B2A8BAE014E5E5F4F44
:104AE0006D2D8F2D0E948E0A8E2D0E94380A9B8B71
:104AF0008A8BAE014E5E5F4F6D2D8E2D0E948E0A09
:104B000060E070E08F2D0E94D624C0CF81E0CC20E1
:104B100019F00E94FD2102C00E94341B65960FB659
:104B2000F894DEBF0FBECDBFDF91CF911F910F91E3
:104B3000FF90EF90DF90CF900895EF92FF920F9348
:104B40001F93CF93DF93CDB7DEB729970FB6F894B5
:104B5000DEBF0FBECDBF8C017B01BC01CE01019633
:104B60000E94042F60E0CE0101960E947129682FF7
:104B700087FD10C0E82FEE0FFF0BEE0DFF1D4591D6
:104B8000549181E093E00937190709F080E00E9411
:104B90000C25E8CF29960FB6F894DEBF0FBECDBF27
:104BA000DF91CF911F910F91FF90EF9008951F9388
:104BB000CF93DF9300D000D01F92CDB7DEB7182F70
:104BC0006D830E94380A9A838983812F0E94410A4B
:104BD0009C838B83AE014F5F5F4F6D81812F0E945D
:104BE0008E0A0F900F900F900F900F90DF91CF9142
:104BF0001F9108950F931F93CF93DF93CDB7DEB727
:104C00002C970FB6F894DEBF0FBECDBF182F062F1E
:104C100069E573E0CE0101960E94042F8FEF8A8729
:104C200024EA30E03A8329831C8761E0CE010196B3
:104C30000E94712987FD13C08111F7CF10923E03A6
:104C400060E0CE0101960E94CF27882321F0602FDB
:104C5000812F0E94D72581E080933E03E6CF2C96DA
:104C60000FB6F894DEBF0FBECDBFDF91CF911F917D
:104C70000F9108951F93CF93DF93CDB7DEB7299798
:104C80000FB6F894DEBF0FBECDBF182F6FE573E0EF
:104C9000CE0101960E94042F60E0CE0101960E9491
:104CA0007129682F87FD04C0812F0E94FA25F4CF57
:104CB00029960FB6F894DEBF0FBECDBFDF91CF911E
:104CC0001F9108951F93CF93DF93CDB7DEB7299738
:104CD0000FB6F894DEBF0FBECDBF63EA73E0CE011E
:104CE00001960E94042F60E0CE0101960E94712976
:104CF000182F87FD30C00E94933B81E00E945C0D1D
:104D00001230A9F04CF4112379F01130E1F46FE680
:104D100073E089E793E00FC0143091F07CF0153018
:104D200091F40E9480240FC00E941E240CC06BE6E8
:104D300073E083E793E00E949D2505C087E001C0F2
:104D400085E00E943A2681E00E94C6100E94900BE6
:104D50000E94A33BC8CF10924A0329960FB6F8943D
:104D6000DEBF0FBECDBFDF91CF911F910895CF93CE
:104D7000DF93EC01842F0E94AE0B9E0136952795A0
:104D8000A9014C0F5D1F8417950730F4C21BD30B8C
:104D900021E0C817D90708F020E0822FDF91CF91DA
:104DA000089568EE73E080E00E94120C2BE1289FCA
:104DB000B001299F700D112440E088E799E60C941A
:104DC000B726CF93DF931F92CDB7DEB7482F68EE9B
:104DD00073E049830E94120C2AE0289FB001299FAA
:104DE000700D1124498180E197E20F90DF91CF91FE
:104DF0000C94B726CF93DF931F92CDB7DEB7482F21
:104E000064E670E049830E94120CBC01660F771FB4
:104E1000680F791F49818CE291E00F90DF91CF916B
:104E20000C94B726CF930E944F11C82F882341F1CD
:104E30000E94D126C82F811105C08DED96E00E94F9
:104E40007C311EC08FE00E94E126882329F082E099
:104E50000E94E126811106C084ED96E00E947C311B
:104E6000C0E00EC080E10E94FA26882331F083E082
:104E70000E94FA26C82F811103C088EC96E0EECF7D
:104E80008C2FCF9108950C9412271F93CF93DF930B
:104E9000EC01162F0E94FF2ECE0109960E9473236B
:104EA000992787FD9095612F70E08617970759F035
:104EB000EB85FC85E60FF71F84916D85DF91CF911F
:104EC0001F910C94BB0CDF91CF911F9108951F93FC
:104ED000CF93DF93EC01162F82E10E94810C8111A8
:104EE0000FC063EF76E087E097E00E947C308B850F
:104EF000803141F581E0DF91CF911F910C94341BFB
:104F0000612FCE010E94FF2ECE0109960E947323CD
:104F1000992787FD9095212F30E08217930791F014
:104F2000111108C065E08D859E85DF91CF911F919D
:104F30000C94FE390E94F80A67E0DF91CF911F912F
:104F40000C94633ADF91CF911F9108951F93CF93F3
:104F5000DF93EC01162F0E94FF2ECE0109960E94CE
:104F60007323992787FD9095212F30E082179307AF
:104F700091F0111107C067E08B85DF91CF911F91F0
:104F80000C94BB0C8B850E94380A67E0DF91CF91AF
:104F90001F910C94FE39DF91CF911F910895DF92FC
:104FA000EF92FF920F931F93CF93DF93EC01F62EB6
:104FB00069871A8681E08D8382E0D82EEE24E394FF
:104FC0008E01075F1F4F0E949436482F823011F0E8
:104FD000843061F4E881F9810280F381E02D6F2D46
:104FE000CE010995F986DA86ED8204C0813089F018
:104FF000883079F0C8010E94F1348111ED828D81F1
:10500000882319F0CE010E941C298A858F5F8A8728
:10501000DACF8FEF898781E08E838D83483009F066
:1050200080E0DF91CF911F910F91FF90EF90DF9083
:105030000895CF93DF93EC010E94FE368B819C8113
:105040000E941B380E9402376A8188819981DF9112
:10505000CF910C94D037FC0187818F3118F48F5F8A
:105060008783089586818F5F86830895FC018781F9
:10507000882319F081508783089586818150868323
:1050800008950F931F93CF93DF93FC01C681D0E067
:105090006D2F80E00E94F83610E11C0F01E00C0F2C
:1050A0008C2F0E94B237011711F0C02FF7CFDF5FAE
:1050B000D23011F0C12FECCFDF91CF911F910F9122
:1050C00008951F93CF93DF93EC018AEC90E00E9448
:1050D000F53A1FEF8E81181721F0CE010E9441286A
:1050E0001E818F81682F70E094E0759567959A9581
:1050F000E1F78F700E94F8360E949436823049F0B2
:10510000843019F0813049F413C0CE010E942B285D
:10511000E1CFCE010E943628DDCF8830D9F68D81CF
:10512000E881F981E80FF11D8F819E81890F8083CD
:10513000DF91CF911F910895FC01718360834283B9
:1051400034832383158280E2868317820895CF9368
:10515000DF93EC018AEC90E00E94F53A0E9406375A
:10516000CE010E94192861E08D810E94F8360E94CC
:1051700094368230B1F0843041F08130C1F48AEC51
:1051800090E00E94EE3A80E026C04D81242F30E06E
:105190008A8190E00197281739072CF74F5F4D83DC
:1051A000E2CF8D818823F9F281508D83DCCF883066
:1051B000D1F682E00E94E736823048F083E00E9418
:1051C00007358AEC90E00E94EE3A81E004C0CE01FF
:1051D0000E946128C3CFDF91CF9108950895FC010B
:1051E0008CEA90E09183808312821382648381E051
:1051F000858386830895FC012281211103C081E00B
:1052000082830895438130E0240F311D848190E032
:1052100001972817390714F44F5F43830895FC0161
:105220008281882319F081508283089583818823A5
:1052300011F08150838308951F93CF93DF93EC0186
:1052400010E0612F80E00E94F8368A81181302C0B6
:105250008EE301C080E20E94B237E881F9816B8160
:10526000610F0190F081E02DCE0109950E94CD37AC
:105270001F5F123031F71D82DF91CF911F9108958A
:105280000F931F93CF93DF93EC010E949436182F56
:105290000E94593B882321F081E08D838FE71CC059
:1052A0000B818A81080F123031F0143039F4CE01AD
:1052B0000E94FB2803C0CE010E940F298B819A8196
:1052C000890F081711F081E08D838D81882319F0F3
:1052D000CE010E941C29812FDF91CF911F910F9148
:1052E0000895EF92FF921F93CF93DF931F92CDB754
:1052F000DEB77C0181E0F701858311E0C701698396
:105300000E9440296981811102C0F7011682F701CC
:105310009681911108C0883031F481E086838381C1
:105320009281890F09C0662311F0F701158381303E
:1053300029F79111E3CF8FEF0F90DF91CF911F915C
:10534000FF90EF900895CF93DF93CDB7DEB7299705
:105350000FB6F894DEBF0FBECDBF61EB73E0CE0198
:1053600001960E94042F60E0CE0101960E947129EF
:10537000813049F0823051F081110BC08CE493E010
:105380000E944E12F0CF0E946226EDCF0E9457116C
:10539000EACF87FFE8CF29960FB6F894DEBF0FBE9D
:1053A000CDBFDF91CF910895262F443019F06FEFD4
:1053B0007FEF02C061E070E0223091F028F42223F8
:1053C00049F0213051F00895243081F060F025300B
:1053D00081F008950B960C9476150B960C94171685
:1053E0000B960C9444160B960C9469160B960C9421
:1053F00074160B960C94B916EF92FF920F931F93AD
:10540000CF93DF93EC018B017A0169EB73E00E948B
:10541000042F8FEF898782EB90E0998388838AE15C
:10542000F801DE011B9601900D928A95E1F7FEA22C
:10543000EDA2DF91CF911F910F91FF90EF90089512
:105440000F931F93CF93DF93CDB7DEB728970FB697
:10545000F894DEBF0FBECDBF8C01BC01695E7F4FEB
:105460002AE637E04EE050E0CE0101960E949C28EB
:10547000CE0101960E94A72881E0F8018583289635
:105480000FB6F894DEBF0FBECDBFDF91CF911F9155
:105490000F910895CF93DF93EC010E9406370E948D
:1054A000FE3684E697E00E941B380E9402376EE0C9
:1054B000CE0147960E94D0370E947B1383E0DF9194
:1054C000CF910C940735CF93DF93EC016DA17EA1B2
:1054D0006F5F7F4F0B960E942714CE01DF91CF9113
:1054E0000C944A2ACF93DF93EC016DA17EA16F5FEC
:1054F0007F4F0B960E948014CE01DF91CF910C94C8
:105500004A2ADF92EF92FF920F931F93CF93DF937C
:10551000CDB7DEB76A970FB6F894DEBF0FBECDBF2A
:105520008C018AE1D82EC8010B967C0160E0C8018D
:105530000E94712987FD30C0873041F0883051F0DA
:10554000863061F4C8010E94632AF0CFC8010E942E
:10555000202AECCFC8010E94722AE8CFF701DE01B1
:1055600011969D2D01900D929A95E1F7682FC80133
:105570000E94CF27811109C0FE013196D7018D2DE0
:1055800001900D928A95E1F7D1CF83E00E94073513
:10559000C7010E94C615CACF6A960FB6F894DEBF3F
:1055A0000FBECDBFDF91CF911F910F91FF90EF9074
:1055B000DF9008951F93CF93DF93EC01162F0E9485
:1055C000FF2ECE0109960E94E634882311F029852A
:1055D00001C02FEF332727FD3095812F90E028174A
:1055E0003907B1F11230F9F058F41123A9F0113054
:1055F00079F5CE010B96DF91CF911F910C94061592
:105600001430F9F0B8F0153019F5CE010B96DF9192
:10561000CF911F910C94A816CE010B96DF91CF91DC
:105620001F910C940015CE010B96DF91CF911F9125
:105630000C943415CE010B96DF91CF911F910C94F1
:105640002815CE010B96DF91CF911F910C942E154A
:10565000DF91CF911F910895DC011796ED91FC9198
:105660001897E60FF11D64918DEC93E00C9433389C
:105670000F931F93CF93DF93EC018B0180E061E0E8
:10568000680FF801E80FF11DE491E83011F0862F62
:10569000F6CFCE010E94EF288AEB90E099838883B1
:1056A00018870F83DF91CF911F910F91089588E89C
:1056B00093E00E949513833039F0823041F08111DC
:1056C00009C085E694E008958CE594E008958EE69F
:1056D00094E0089583E594E008950F931F93CF938A
:1056E000DF93EC0110927C040E9499140E94572BC6
:1056F0008C0160E0C8010E94712987FD1BC0D801A0
:105700001796ED91FC911897E80FF11D87FDFA951A
:105710008491883061F4BE0188E893E00E944C15C2
:10572000CE010E94A71481E00E94CD10DFCF0E941D
:10573000D511DFCFDF91CF911F910F9108956FEEBB
:1057400073E08EE694E00E94382B64EE73E085E609
:1057500094E00E94382B68EE73E08CE594E00E94A0
:10576000382B6FED73E083E594E00C94382B0F93A6
:105770001F93CF93DF93EC018B0162E074E00E94F2
:10578000042F8FEF898780EC90E0998388838CE3E6
:10579000F801DE011B9601900D928A95E1F7DF91E9
:1057A000CF911F910F910895DF92EF92FF920F9387
:1057B0001F93CF93DF93CDB7DEB7EC970FB6F89476
:1057C000DEBF0FBECDBF7C018C01055F1F4F8CE398
:1057D000D82E60E0C7010E94712987FD2AC08A3156
:1057E00039F4C8010E94181283E00E940735F1CFF6
:1057F000F801DE0111969D2D01900D929A95E1F729
:10580000682FC7010E94CF27811109C0FE01319680
:10581000D8018D2D01900D928A95E1F706C083E0A5
:105820000E940735C8010E941E12C8010E94291259
:10583000D0CFEC960FB6F894DEBF0FBECDBFDF9190
:10584000CF911F910F91FF90EF90DF900895262F39
:10585000215064E670E00E94543DCB01622F0E940B
:10586000FE3983E40C94B237262F215068EE73E0A2
:105870000E94543DCB01622F0E94FE3986E50C94B4
:10588000B237CF93DF93462F455064E670E00E9415
:10589000543D9B01EC01642FC9010E94FE398EE248
:1058A0000E94B237CE016AE070E00E94543D862F1C
:1058B0000E9488388FEA98E0DF91CF910C941B38D2
:1058C000CF93DF93EC012B9643E6CE010E942D137C
:1058D000CE01DF91CF910C94291241E041960C94B6
:1058E0002D1344E0CB960C942D13CF93DF93EC0152
:1058F00088EF860F0E94BB376BAD88EF93E0DF9196
:10590000CF910C943338CF93C62F0B960E94081278
:10591000C25024E630E040E050E00E94683D6C2F29
:10592000C9010E94FE3980E30E94B23780E3CF9123
:105930000C94B237EF92FF920F931F93CF93DF93A4
:105940001F92CDB7DEB77C01162FDC0117968D9123
:105950009C9118970E943338082F60E1681BC7019B
:10596000099669830E94E6346981882321F0D70172
:105970001996EC9101C0EFEFFF27E7FDF095212F7D
:1059800030E0E217F30709F4E2C0812F90E08A319A
:10599000910508F0DCC0FC01EE5CFF4F0C94A93DC2
:1059A000F7018385948554C0D7011D968D919C91F4
:1059B0001E9703C0F701878590890F90DF91CF91E3
:1059C0001F910F91FF90EF900C94272CD7015196C7
:1059D0008C9114C0F70183899489EFCFD701559634
:1059E0008D919C9156970F90DF91CF911F910F91C0
:1059F000FF90EF900C94412CF70187890F90DF9175
:105A0000CF911F910F91FF90EF900C945038D701D8
:105A100059968D919C915A9779C0F701838D948DF9
:105A200075C0D7015D968D919C915E9703C0F7017B
:105A3000878D90A10F90DF91CF911F910F91FF90D3
:105A4000EF900C94673AD70191968D919C91929723
:105A50000F90DF91CF911F910F91FF90EF900C94D9
:105A6000FE396FE0601BF70183A194A10E94FE390B
:105A70008DE60F90DF91CF911F910F91FF90EF90E6
:105A80000C94B237D70195968C91B8CFF70187A1C6
:105A900090A5DECFD70199968D919C919A970F9002
:105AA000DF91CF911F910F91FF90EF900C94633A8B
:105AB000F70183A594A50F90DF91CF911F910F91CE
:105AC000FF90EF900C940C3AD7019D968D919C918C
:105AD0009E970F90DF91CF911F910F91FF90EF90C4
