:100000000C94A4050C94CC050C94CC050C94CC0554
:100010000C9407080C94CC050C94CC050C94CC05DE
:100020000C94CC050C9437080C94CC050C94CC059E
:100030000C94CC050C94C6080C94FB080C94CC05CD
:100040000C94E3070C94CC050C94CC050C94CC05D3
:100050000C94CC055A12611267126A126412701263
:100060006D127A1277122534273429342D342D3429
:100070002B3431342F340000000048A50C4C000014
:1000800000007C6B0831850032007D09E8038000A8
:10009000320057012C0100000000C0AE4E5AFC5344
:1000A00050143FA0540B00000000A8D5803E8018DB
:1000B0006009DC377017000000000000000000003D
:1000C000000040C7370F0000000080C7300F00005D
:1000D000000040CA310F00000000E1C7340F0000EB
:1000E0000000B7C6400F00000000B7C6400F180060
:1000F0003200B002E80348003200D0002C01FF00BB
:1001000000000A00050400000004090000FF0101CE
:10011000000A010505000001040A0000FF020200B8
:1001200000020506000002040B0000FF03030000AC
:10013000030507000003040C0000FF0000000A0490
:100140000511020004040D0000FF0101000A05056D
:1001500011040005040E00000605110100FF020253
:10016000000007051108006B0100006F7074696FD3
:100170006E730046000300881370170100320032CE
:100180000010270000000003000000000080250090
:1001900000004B00000096000000E1000000C201DA
:1001A0000001000100010001000100010001000147
:1001B0000001000100B0040807520300005203B020
:1001C000040807E8030000E803D0079209D60600F8
:1001D000006C07E40C100ED007E40CB80B100E04F2
:1001E00010C409A60EAC0D740E6810B80B0A0F8966
:1001F0000C740ECC10B80B0A0F890C740EFE10B8DC
:100200000B0A0F890C40066C07140540067805069A
:100210000A010AFC09F709F209ED09E809E309DE18
:1002200009D909D409BB170018EA18541A4F1A84BF
:100230001A411BD31B4D1BDC1BD91BE31B0A1C11D2
:100240001C351CD51EA51EAB1E182151191A2100E4
:10025000016B07630700007A07730700008A0781B4
:100260000700009B079307000064002C016400E86E
:1002700003A907A3070000B607AF07000006090A95
:100280000B0C0D0E061F20212223241312EC07E66F
:1002900007E007DA07D407CE07C807C207BC070084
:1002A000002E08250819080D080108F20700002390
:1002B0000A190A0B0A00000309FF7F0200EB030181
:1002C0000000000A0000090F0003006831FE7F767D
:1002D0002A0000EE080F0045006003FF7F6400F471
:1002E0007EEA080F0040006403FF7F0100204EDF1C
:1002F000080F0040006603FF7F010088139D080F70
:10030000004C007003FF7F0000E803FC080E8041F2
:100310000068030A0000008813F3080180410068A8
:10032000030A0040063A07F8080F8041006A030AF2
:100330000000008813E3080E8040006C03FF7F017B
:1003400000204ED8080F8040006E03FF7F01008818
:1003500013CE080C8048007C0301000300C800C5D0
:100360000801004D007C03010000000100C00820CE
:100370000048007E030100ECFF0000B7080F004DAD
:10038000007203010000000100AF0840004A06802F
:10039000030A000A008403A30810004403740364E2
:1003A000005802AC2693080F0047007A03010001B1
:1003B00000FA0087080F00490082030100000005D1
:1003C000007D080F804B007803010001006300727C
:1003D000080F804D007603010000000100000000BE
:1003E00000000000000000000000000F025E039704
:1003F0000A880A800A760A6A0A620A530A480A398F
:100400000A2C0A0003040708090003070809000171
:10041000020304070809000102030405060708098E
:1004200009C909FF7F49004403010000006400C1BD
:1004300009FF7F0200FF04010000000400B609016B
:10044000004400480364005802AC26AB09FF7F4417
:10045000034A0364005802AC26A509FF7F4D004CF7
:10046000030100000001009D09FF7F40004E0301D1
:10047000000100F4019509FF7F40005003010001D5
:1004800000F4018909FF7F41035203E803581B3040
:10049000757E09FF7F4D00540301000000010078C4
:1004A00009FF7F0200F1040100000004007009024E
:1004B000000100ED040100000004006909FF7F0253
:1004C00000E5040100000001006309FF7F00000057
:1004D000000000000000000000000000000000001C
:1004E0000000000000E9045C0315090C098D0158A7
:1004F00003F50456035A0953094D0944093B0903FE
:100500000546035A0934092C0924091C0920202D09
:100510002D202000636865616C692D6368617267D6
:1005200065720A76302E39395F32303135303730E6
:10053000380063616C69626174696F6E2065727204
:100540006F7200706C656173652063616C696272C3
:1005500061746500656570726F6D20726573657496
:100560000A6572726F723A200072657365747469FD
:100570006E6720656570726F6D002020202020203E
:1005800020202020202079657300656570726F6DD2
:100590002072657365743A005245564552534520A2
:1005A000504F4C4152495459006572726F723A2053
:1005B00020202000636F6D706C6574653A2000B177
:1005C0003100800000752FFFFF0480C130FFFF0461
:1005D00080B92FFFFF04808130000208808D300039
:1005E000020880A13000020080282D00C000002CED
:1005F0002D00C00000302D00400480342D00400448
:10060000804030FFFF04800030FFFF00805E30FF3D
:10061000FF00002032800100801631FFFF00000043
:1006200000FFFF0000250064656C746120543D20CC
:10063000004E2F4100546578743D0064656C746110
:1006400020563D20006D6178566F75743D005469E9
:100650006E743D002D00546578743D00206C696D0A
:1006600069743D0056696E7075743D0077697265F6
:100670007320523D00626174742E20523D0062204E
:10068000004C696D6974733A20006E6F2064542FBA
:10069000740072080F004D00760301000000010095
:1006A000FC080E00410068030A0000008813F808E7
:1006B0000F0041006A030A000000881300000000D8
:1006C00000000000000000000000252000436843F7
:1006D00042426C4469464353745342435943430076
:1006E0000100010001000A000A000B006400010083
:1006F0000300080009000A000B000C0001000200C2
:100700000400060008000A000C00E80301390BE8A9
:100710000300370B640000350B640000320B6400EB
:1007200000300BE803012D0BE803012B0B01000047
:10073000290BE80301370B010000220B64000025A0
:100740000B010000230B010000230B01000000003F
:10075000010000200B141719181A0705061F202185
:10076000222324566D696E75733A0056706C75734A
:100770003A200076616C75653A0074656D703A20B8
:1007800000706F696E7420322E00706F696E742075
:10079000312E00496F75743A20200076616C7565C2
:1007A0003A20003330306D41003130306D4100313E
:1007B0003030306D41003130306D4100566F75740E
:1007C0003A0056312D363A005662363A20005662CB
:1007D000353A20005662343A20005662333A2000FF
:1007E0005662323A20005662313A200056696E3A1B
:1007F00020006578706572742044414E474552214F
:100800000074656D7020696E7465726E0074656D3C
:10081000702065787465726E00492064697363683E
:100820006172676500492063686172676500766F71
:100830006C746167650062616C616E636520706FE6
:100840007274210062617474657279210064697345
:10085000636F6E6E65637400636F6E6E65637400C4
:1008600064542F6474002D64560056206C696D69C1
:1008700074006164617074206469733A00442F43AA
:1008800020726573743A00442F43206379636C656A
:10089000733A0063617020434F66663A0074696D75
:1008A000653A007C657874726E2054434F3A007C40
:1008B00064542F64743A00657874726E20543A0060
:1008C0007C64563A00656E61622064563A0062614B
:1008D0006C2E206572723A006D696E49643A004967
:1008E000643A006D696E49633A0049633A004361B6
:1008F000703A0056636F3A0056643A0056633A0005
:10090000563A00626174746572793A006164766186
:100910006E6365640073696D706C6500542D707250
:100920006F67720054656D706572610070726F67F9
:1009300072616D00616C77617973006578742E2047
:10094000416463006578742E2064656200646562AA
:100950007567006E6F726D616C0064697361626CC3
:100960006564007265736574006D656E75733A0039
:100970007C73706565643A00554152543A00616475
:1009800063206E6F6973653A00696E707574206CD0
:100990006F773A20006D696E2049643A006D696E88
:1009A0002049633A00626565703A00646973636860
:1009B000206F66663A007C66616E2054206F6E3A46
:1009C0000066616E206F6E3A006261636B6C6967EE
:1009D00068743A004E695A6E004C343335004C341A
:1009E0003330004C69706F004C696C6F004C696665
:1009F000650050622020004E694D48004E694364F6
:100A000000556E6B6E004E6F6E6500726573657497
:100A10002064656661756C740063616C6962726103
:100A200074650073657474696E67730065646974D6
:100A300020626174746572790063617061636974C6
:100A40007920636865636B00443E4320666F726D76
:100A500061740073746F726167652B62616C616EA3
:100A6000630073746F7261676500666173742063FD
:100A700068617267650064697363686172676500C5
:100A800062616C616E6365006368617267652B62A9
:100A9000616C616E636500636861726765006578AB
:100AA000742E74656D702E6375746F66660074695C
:100AB0006D65206C696D6974006361706163697450
:100AC00079206375746F666600696E707574205660
:100AD00020746F206C6F77004857206661696C75D1
:100AE00072650062616C616E636572206469736334
:100AF0002E00696E742E74656D702E6375746F664A
:100B000066006261747465727920646973632E0093
:100B10006E6F6C696D697400206E6F00796573008B
:100B20005500006D00432F6D002500F40041680062
:100B30004300576800570056004100006606320A1D
:100B4000ED10C02BEF2E383111241FBECFE5D8E0B9
:100B5000DEBFCDBF10E0A0E6B0E0E6E5F8E702C0FA
:100B600005900D92A23CB107D9F714E0A2ECB0E0D9
:100B700001C01D92A13CB107E1F71BE0C8E4DBE036
:100B800004C02297FE010E94CE3BCC33D107C9F7A7
:100B90000E94E8100C94293C0C94000020E042E0F4
:100BA00060E182EC90E00E9404390E94BA080C9443
:100BB0006A06CF92DF92EF92FF92482F282F30E003
:100BC000A0E0BDE70E943A3B6B017C01A4E6B0E0E7
:100BD000A41BB10924E630E00E94493B6C0D7D1D49
:100BE0008E1D9F1D24E630E040E050E00E948B3BCC
:100BF000B9018DE0FF90EF90DF90CF900C94A408A6
:100C0000882311F0909A089590980895089580FF90
:100C100002C0979A089597980895811102C0969AF4
:100C2000089596980895811102C0929A0895929815
:100C30000895811106C0939A0E940D0680E00C94DD
:100C4000130693980895BC018EE00C94A408BC018F
:100C50008EE00C94A40880FF02C0C09A01C0C09826
:100C600081FF02C0C19A01C0C19882FF02C0C29A2E
:100C700001C0C29883FF02C0C39A01C0C39884FF19
:100C800002C0DE9A01C0DE9885FF02C0DF9A089597
:100C9000DF98089580E00E94190680E00E94000617
:100CA00080E00E94070680E00E942B068C9A8B9AB7
:100CB000889A8F9AB89AB99ABA9ABB9AD69AD79ABA
:100CC0008D9A8E9A8D9A8A9A0895089582EC90E072
:100CD0000C945939D598D498DD98DC98BF9ABE9A6F
:100CE000BD9A8EEA86B9369A089534B145B1E0913D
:100CF000D300E13131F12FB7F894832F90E0942B9A
:100D0000F0E0DF01AA0FBB1FA353BD4F11969C93C8
:100D10008E933091CB00332391F0EE0FFF1FEE0F37
:100D2000FF1FE151FD4F4081518162817381480F66
:100D3000591F611D711D40835183628373832FBFCF
:100D400008952091D4003091C80047FD02C0232BA4
:100D500002C0209523232093C80008950E94782183
:100D60009093EC028093EB020E94B81A9093EE02EB
:100D70008093ED028091CB00882309F481C00E940A
:100D8000782140912B0350912C0360912D03709199
:100D90002E03480F591F611D711D40932B03509363
:100DA0002C0360932D0370932E030E94B81A409178
:100DB0002F03509130036091310370913203480F3B
:100DC000591F611D711D40932F0350933003609391
:100DD0003103709332038091330390913403019770
:100DE00009F04CC08091F7029091F802A091F902AD
:100DF000B091FA02B695A795979587958093F702DB
:100E00009093F802A093F902B093FA028091EF0256
:100E10009091F002A091F102B091F202B695A795DF
:100E2000979587958093EF029093F002A093F1023B
:100E3000B093F2028091F3029091F402A091F50236
:100E4000B091F602B695A795979587958093F30292
:100E50009093F402A093F502B093F6028091FB0206
:100E60009091FC02A091FD02B091FE028093FB02E2
:100E70009093FC02A093FD02B093FE020C94960D99
:100E8000089508958091540390915503892BE9F0BA
:100E90004091D0004423C9F081E090E00090CD0063
:100EA00002C0880F991F0A94E2F720913303309112
:100EB00034032F703FB7F8945BB39BB3982B9BBB65
:100EC000240F2A95F1F75BBB3FBF08958091CA00BC
:100ED0008F5F853108F080E08093CA0085E0ECECFC
:100EE000F0E0A1EDB0E001900D928A95E1F76091FC
:100EF000CA006F5F653108F060E085E0689FB0016F
:100F0000112462507F4F45E050E08CEC90E00E944D
:100F1000D23B8091CA0081110CC00E94AE06809124
:100F200033039091340321E0892B09F420E02093CE
:100F3000CB000895CF93DF930E9475068091C9007E
:100F400091E0980F9093C900873079F118F48823C5
:100F500059F033C0883069F1893079F51092C900B1
:100F6000DF91CF910C9466078091CC0087FD25C05E
:100F70002FB7F8949091CC0088B3392F3170C32FDC
:100F800030E0D32FCC0FDD1FCC0FDD1F92FB3327BA
:100F900030F9C32B9270C92B90E2C902E0011124F1
:100FA0008F718C2B88BB2FBF08C0DF91CF910C9421
:100FB00042078091CD00806287B9DF91CF9108957B
:100FC0008091C80008951F920F920FB60F921124BE
:100FD0002F933F934F935F936F937F938F939F9341
:100FE000AF93BF93EF93FF930E949A07FF91EF9106
:100FF000BF91AF919F918F917F916F915F914F9131
:101000003F912F910F900FBE0F901F9018951F9238
:101010000F920FB60F9211242F933F934F935F932C
:101020006F937F938F939F93AF93BF93EF93FF93B0
:101030000E946334FF91EF91BF91AF919F918F9187
:101040007F916F915F914F913F912F910F900FBEC4
:101050000F901F90189588E085BD85B5846085BD8B
:1010600014BC8CE783BD89B7806889BF08951F923F
:101070000F920FB60F9211242F933F934F935F93CC
:101080006F937F938F939F93AF93BF93EF93FF9350
:101090002091DC003091DD008091D8009091D90042
:1010A000820F931F9093D9008093D8002091DA008B
:1010B0003091DB008091D6009091D700820F931F72
:1010C0009093D7008093D6002FB7F8948091D800E2
:1010D0009091D90035E0969587953A95E1F79BBDBB
:1010E0008ABD8091D6009091D70045E0969587956E
:1010F0004A95E1F799BD88BD2FBF8091D8009091A6
:10110000D9008F7199279093D9008093D80080914E
:10111000D6009091D7008F7199279093D700809334
:10112000D6000E940606FF91EF91BF91AF919F916B
:101130008F917F916F915F914F913F912F910F9080
:101140000FBE0F901F9018959FB7F8948E3039F40A
:101150007093DD006093DC008FB5806808C08D302F
:1011600039F47093DB006093DA008FB580628FBD35
:101170009FBF089580E094E097BD86BD82E08FBD5B
:1011800089E18EBD89B7846089BF08951F920F924F
:101190000FB60F9211242F933F934F938F939F93EA
:1011A000EF93FF935A991AC04CB18091F40190913A
:1011B000F501019699272091F6013091F7018217E8
:1011C000930769F0E091F401F091F501EC50FF4FC5
:1011D00040839093F5018093F40101C08CB1FF919D
:1011E000EF919F918F914F913F912F910F900FBE53
:1011F0000F901F9018951F920F920FB60F92112407
:101200002F933F938F939F93EF93FF932091F4013C
:101210003091F5018091F6019091F7012817390777
:1012200011F4559812C0E091F601F091F701EC50DD
:10123000FF4F20818091F6019091F7010196992747
:101240009093F7018093F6012CB9FF91EF919F9154
:101250008F913F912F910F900FBE0F901F90189577
:10126000CF92DF92EF92FF92CF93DF93EC016A016E
:101270007B01411581EE580761057105F9F0E8859C
:10128000F98581E090E00C8802C0880F991F0A94CC
:10129000E2F7808360E079E08DE390E0A7019601BA
:1012A0000E948B3B215031094109510956954795C0
:1012B00037952795211580E1380798F0E885F9855D
:1012C000108260E874E88EE190E0A70196010E9428
:1012D0008B3B215031094109510956954795379566
:1012E0002795EC81FD813083EE81FF8120831D8A6B
:1012F000EA85FB85408181E090E09C01098802C07D
:10130000220F331F0A94E2F7422B4083EA85FB85C4
:1013100040819C010A8802C0220F331F0A94E2F721
:10132000422B4083EA85FB8520810B8802C0880F11
:10133000991F0A94E2F7809582238083DF91CF91F1
:10134000FF90EF90DF90CF900895CF93DF93FC0153
:1013500082819381DC01B395EC01CE5FDE4F4D912C
:101360005C9111972881398142175307C1F7A285F3
:10137000B3854C9181E090E09C01018802C0220F6E
:10138000331F0A94E2F7209524232C93A285B3857A
:101390004C919C01028802C0220F331F0A94E2F78D
:1013A000209524232C93A285B3852C91038802C019
:1013B000880F991F0A94E2F7809582238C9380818D
:1013C0009181FC01EE5FFE4F20813181FC01F3959C
:1013D00031832083DF91CF910895FC018589882393
:1013E00029F0A085B1858C9186FFFBCF158A0895E1
:1013F000CF93DF93FC0122813381D901B3958D9185
:101400009C91119701969927E901CE5FDE4F4881A3
:10141000598184179507D9F30D90BC91A02DA20F87
:10142000B31F6C93A281B381B39511969C938E9355
:10143000A285B3852C9181E090E0038802C0880FDB
:10144000991F0A94E2F7282B2C9381E0858B008466
:10145000F185E02D80818064808381E090E0DF91E0
:10146000CF91089584EF90E09093DF008093DE00A9
:101470009093E1008093E00080E490E09093E3009B
:101480008093E20029E230E03093E5002093E4000D
:101490002BE230E03093E7002093E6002AE230E0D0
:1014A0003093E9002093E8009093EB008093EA00EA
:1014B0008CE290E09093ED008093EC0084E08093C8
:1014C000EE0083E08093EF0087E08093F00085E0FA
:1014D0008093F10081E08093F2000895CF93DF9331
:1014E0001F92CDB7DEB7E091BD04F091BE043097F6
:1014F00011F4E1ECF4E0CE0101962EEB8E179F077C
:1015000010F02193FBCF0F90DF91CF910895CF93EF
:10151000DF9300D0CDB7DEB72091BD043091BE047B
:101520002115310511F421EC34E0CE010196821B26
:10153000930B0F900F90DF91CF910895CF93DF938E
:101540001F92CDB7DEB72091BD043091BE042115A6
:10155000310511F421EC34E0F901AE014F5F5F4F2A
:10156000CF01821B930B4E175F0728F060816E3B03
:1015700011F43196F5CF0F90DF91CF910895009738
:1015800041F0EFE9FFE03197F1F700C0000001976B
:10159000F6CF08958436910538F064E670E00E9435
:1015A000773BCB010C94BF0A019728F025E32A95DD
:1015B000F1F70000F9CF08956AE070E00E94773BF0
:1015C000CB010C94CA0AE82FF0E0EE0FFF1FE5559F
:1015D000FD4F808191810895E82FF0E0EE0FFF1F0D
:1015E000EF59FD4F8081918108952FB7F894E82F2E
:1015F000F0E0EE0FFF1FE353FD4F808191812FBF7D
:1016000008958091360308958091150290911602F5
:10161000089580910302909104020895809105023B
:10162000909106020895E82FF0E0EE0FFF1FE95EAB
:10163000FD4F808191810895262F613110F4423051
:1016400040F021E030E0FC013383228331832083AA
:10165000089550E0BA01620F711D620F711D660F8F
:10166000771F660F771F645F7F4F44E050E00C9454
:10167000E43B282FCA01213188F4623078F470E00D
:10168000620F711D620F711D660F771F660F771F46
:10169000645F7F4F44E050E00C94023C0895FF9259
:1016A0000F931F93CF93DF9300D000D0CDB7DEB759
:1016B00006E710E0F12CF801459155916591749180
:1016C00049835A836B837C83AE014F5F5F4F60E039
:1016D0008F2D0E94390BF8013496459155916591F3
:1016E000749149835A836B837C83AE014F5F5F4F54
:1016F00061E08F2D0E94390BF394085F1F4F81E149
:10170000F812D9CF81E00E9474110F900F900F90C2
:101710000F90DF91CF911F910F91FF90089581E07D
:1017200020918B0230918C022331310509F080E049
:1017300008958091890290918A020895809185028E
:1017400090918602089580918F0290919002089561
:1017500080913F0290914002039750F080914502A2
:1017600090914602039720F083E090E00C942C18AF
:1017700080E008952FB7F89480E090E0FC01EE0F30
:10178000FF1FEE0FFF1FE151FD4F108211821282E9
:10179000138201968131910589F784E690E0909358
:1017A000340380933303109235032FBF0895CF93F2
:1017B000CFB7F894109214021092130210920F02F5
:1017C00010921002109211021092120210920B024B
:1017D00010920C0210920D0210920E02109207024B
:1017E000109208021092090210920A020E948B3491
:1017F0009093020280930102CFBFCF9108950E947F
:10180000D70B109206021092050210920402109259
:1018100003020895E7E1F2E01192119282E0E136CD
:10182000F807D1F70895CF93CFB7F89481E090E00F
:10183000909334038093330381E0809335030E94B7
:101840000A0CCFBFCF910895CF93DF930E94130C62
:10185000C0911502D0911602809115029091160246
:10186000C817D90729F48AE090E00E94B134F4CF78
:10187000DF91CF9108951092360380E00C94190601
:10188000CF93DF9381E00E94F50AEC0180E00E9493
:10189000F50A8C179D0718F4C81BD90B02C0C0E0CD
:1018A000D0E081E0C93ED34008F480E0DF91CF91E1
:1018B00008958F929F92AF92BF92CF92DF92EF9254
:1018C000FF92CF93DF93CDB7DEB728970FB6F8948A
:1018D000DEBF0FBECDBFF82E5B0161157105D1F1E2
:1018E00040E0682FCE0105960E941C0B41E06F2D51
:1018F000CE0101960E941C0B2B813C8140E050E000
:10190000CF80D884E12CF12C2C193D094E095F09B8
:10191000B50180E090E08D809E80A12CB12C6819EB
:1019200079098A099B090E945B3B29813A8140E041
:1019300050E0281939094A095B090E94AD3B2C0D7A
:101940003D1D4E1D5F1D57FF03C020E030E0A90183
:10195000C90102C080E090E028960FB6F894DEBF7F
:101960000FBECDBFDF91CF91FF90EF90DF90CF9072
:10197000BF90AF909F908F9008958F929F92AF925B
:10198000BF92CF92DF92EF92FF92CF93DF93CDB7CA
:10199000DEB728970FB6F894DEBF0FBECDBFF82E86
:1019A0005B0161157105D1F140E0682FCE0105960C
:1019B0000E941C0B41E06F2DCE0101960E941C0B72
:1019C00029813A8140E050E0CD80DE80E12CF12C8D
:1019D0002C193D094E095F09B50180E090E08F8028
:1019E0009884A12CB12C681979098A099B090E9455
:1019F0005B3B2B813C8140E050E0281939094A09C2
:101A00005B090E94AD3B2C0D3D1D4E1D5F1D57FF18
:101A100003C020E030E0A901C90102C080E090E0ED
:101A200028960FB6F894DEBF0FBECDBFDF91CF91E1
:101A3000FF90EF90DF90CF90BF90AF909F908F90EE
:101A400008958250893130F4E82FF0E0EF58FF4FCD
:101A50008081089581E00895CF93DF93833149F425
:101A600081E020918B0230918C0223313105C1F449
:101A70001AC0E82FF0E0EE0FFF1FEF59FD4FC081B5
:101A8000D1810E94210D882319F0813029F00AC0EC
:101A900081E0E39740F404C081E0C935D24018F4F6
:101AA00080E001C081E0DF91CF910895CF93C0E045
:101AB0008FE18C0F0E942C0D882329F0CF5FC63058
:101AC000B9F786E001C08C2FCF9108951F93CF9373
:101AD000DF931F92CDB7DEB7182F69830E94210DC7
:101AE000E12FF0E0EE0FFF1FEF59FD4F482F698106
:101AF000808191810F90DF91CF911F910C9472376B
:101B00002FB7F8946091FD017091FE018091FF0163
:101B1000909100022FBF2DE730E040E050E00E949E
:101B20008B3BBB27A52F942F832F089580913303E0
:101B300090913403892B49F08091330390913403C1
:101B400001979093340380933303089590E0880FB6
:101B5000991FFC01EF59FD4F2081318162177307F6
:101B600018F4261B370B04C0AB01421B530B9A0120
:101B7000FC01E95EFD4F2730310518F0118210821B
:101B800006C0208131812F5F3F4F31832083FC01CC
:101B9000EF59FD4F7183608308958FB7F8941092C9
:101BA000FD011092FE011092FF01109200021092AE
:101BB000F9011092FA011092FB011092FC018FBF03
:101BC0000E94130C0E94FF0B60E070E089E10E940C
:101BD000A60D60E070E08BE10E94A60D60E070E071
:101BE0008CE10E94A60D60E070E08DE10C94A60DE2
:101BF00010921602109215020E94CD0DE1E6F2E05D
:101C00001192119282E0EB3AF807D1F70895CF9341
:101C1000DF931F92CDB7DEB79091360391110FC0BD
:101C200069830E941906698161110E94F80D81E0A3
:101C3000809336030F90DF91CF910C94240C0F907A
:101C4000DF91CF9108950C94F80D8091360388238D
:101C500009F44FC040918F02509190028091FD0194
:101C60009091FE01A091FF01B0910002840F951F99
:101C7000A11DB11D8093FD019093FE01A093FF0172
:101C8000B09300028091F80191E0980F9093F801D1
:101C9000883578F12091850230918602DA010E9420
:101CA0003A3B24E630E040E050E00E948B3B8091DC
:101CB000F9019091FA01A091FB01B091FC01280F6C
:101CC000391F4A1F5B1F2093F9013093FA0140939B
:101CD000FB015093FC01CA01B90120EA3CE840E055
:101CE00050E00E948B3BB9018AE10E94A60D109240
:101CF000F8010895CF92DF92EF92FF920F931F9316
:101D0000CF93DF931F92CDB7DEB7C0906102D09022
:101D1000620280916302909164028C159D0518F413
:101D2000C81AD90A02C0C12CD12CB60182E10E9486
:101D3000A60D03E712E09FE1F801619171918F0117
:101D4000892F99830E94A60D99819F5F9532A1F7F3
:101D50000E94560DF82E80E000E010E08F1569F02B
:101D6000EFE1E80FF0E0EE0FFF1FEF59FD4F20818C
:101D70003181020F131F8F5FF1CFB80183E10E9401
:101D8000A60D0115110581F00C151D0520F4960115
:101D9000201B310B03C098012C193D09293B3B4006
:101DA00018F4680113E102C012E1F12CB60184E1DC
:101DB0000E94A60D6F2D70E086E10E94A60D612F96
:101DC00070E085E10E94A60D0E94800D7C010E94BA
:101DD000A91A882329F000916702109168020BC0AC
:101DE0000E946921882329F0009165021091660202
:101DF00002C000E010E0B80187E10E94A60DB70123
:101E000089E10E94A60D9801D6010E943A3B20E18B
:101E100037E240E050E00E948B3BB90188E10F902F
:101E2000DF91CF911F910F91FF90EF90DF90CF90B6
:101E30000C94A60D4F925F926F927F928F929F9219
:101E4000AF92BF92CF92DF92EF92FF92CF93DF9348
:101E5000CDB7DEB728970FB6F894DEBF0FBECDBF63
:101E60000E948B342091010230910202821B930B5D
:101E70008133954708F4A0C04FB7F894209113021E
:101E800030911402A8EEB3E00E943A3B6B017C0152
:101E9000F694E794D794C79440900F0250901002A4
:101EA000609011027090120260910B0270910C020E
:101EB00080910D0290910E0280900702909008028E
:101EC000A0900902B0900A024FBF6D837E838F837A
:101ED00098870E94D70B20910502309106022F5F50
:101EE0003F4F30930602209305026D817E818F81E2
:101EF0009885A70196010E948B3B29833A834B83E7
:101F00005C83C301B201A70196010E948B3BB9011A
:101F100080E00E94590C3C0169817A8181E00E9435
:101F2000590C8615970518F4681A790A02C0612CB5
:101F3000712C4090990250909A026414750420F01C
:101F4000B3018CE10E94A60DB301641975098BE100
:101F50000E94A60DC501B401A70196010E948B3B0A
:101F6000B90187E00E94590C2091030230910402CC
:101F70009093040280930302BC01621B730B660FF3
:101F8000771F8DE10E94A60DB6018EE128960FB64F
:101F9000F894DEBF0FBECDBFDF91CF91FF90EF90E1
:101FA000DF90CF90BF90AF909F908F907F906F9079
:101FB0005F904F900C94A60D28960FB6F894DEBF54
:101FC0000FBECDBFDF91CF91FF90EF90DF90CF900C
:101FD000BF90AF909F908F907F906F905F904F9049
:101FE0000895CF92DF92EF92FF920F931F93CF93BA
:101FF000DF932FB7F89480913303909134032FBF70
:10200000892B09F0ADC08091350381119FC080916B
:102010001502909116020196909316028093150274
:102020004091EF025091F0026091F1027091F20242
:10203000769567955795479580910F02909110027C
:10204000A0911102B0911202840F951FA61FB71F15
:1020500080930F0290931002A0931102B09312028A
:102060004091F3025091F4026091F5027091F602F2
:10207000769567955795479580910B0290910C0244
:10208000A0910D02B0910E02840F951FA61FB71FDD
:1020900080930B0290930C02A0930D02B0930E025A
:1020A00040910B0350910C0360910D0370910E034E
:1020B000769567955795479580910702909108020C
:1020C000A0910902B0910A02840F951FA61FB71FA5
:1020D0008093070290930802A0930902B0930A022A
:1020E00080911302909114020196909314028093B0
:1020F00013020E941A0F0BEA12E0C0E0D0E0B8EE23
:10210000CB2EB3E0DB2EE12CF12CFE01EE0FFF1FF6
:10211000EE0FFF1FE151FD4F60817181828193813C
:10212000A70196010E948B3BF801219331938F0107
:10213000B9018C2F0E94590CBC018C2F0E94A60D56
:102140002196C131D10509F70E947A0EDF91CF9116
:102150001F910F91FF90EF90DF90CF900C94BA0BEE
:10216000DF91CF911F910F91FF90EF90DF90CF9073
:1021700008958091360381110C94F10F089560E069
:1021800087E393E00E94152A87FD0AC0811102C0EF
:102190000C94472A992787FD909501970C94982BCA
:1021A00008950E944A0678940E94CE050E942B084A
:1021B0000E9408220E943A1B0E94230E0E946E0A6F
:1021C0000E94D3120E94CE2D0E94E72E0C94001282
:1021D0000E94D1100E94BF10FDCF67E671E087E337
:1021E00093E00E946C2C8EE890E0909338038093EB
:1021F0003703EBE3F3E080818C5E80830895FC017C
:1022000024812451621710F40C94672C862F821BB2
:102210000C946416FF920F931F93CF93DF93EC01FE
:102220008B0141110E94233C85E0F82EFA9459F06D
:10223000CE010E94FC3B8017910739F084E690E0C4
:102240000E949D34F3CF81E001C080E0DF91CF9107
:102250001F910F91FF900895EF92FF920F931F939C
:10226000CF93DF937B018C01E80EF91ECFEFDFEFF8
:102270000E151F05A9F0C8010E94F43BC82728E0ED
:10228000CE01969587953C2FEC0130FF04C031E0DC
:10229000C32730EAD327215099F70F5F1F4FE8CFAC
:1022A000CE01DF91CF911F910F91FF90EF90089594
:1022B000EF92FF920F931F93CF93DF931F92CDB7AF
:1022C000DEB78C017B0149830E942C114981BC013E
:1022D000C8018E0D9F1D0F90DF91CF911F910F911F
:1022E000FF90EF900C940A11482F68E870E08CE0A2
:1022F00090E00C945811482F68EF72E086E990E066
:102300000C945811482F6AE170E080E993E00C9436
:1023100058110F931F93CF93DF93D82F182F11705D
:10232000412F63E678E680E090E00E940A11C82F12
:10233000412F6CE679E682E090E00E940A1181115B
:10234000C1E0412F62E070E184E090E00E940A1158
:102350008111C1E0D1FB002700F9402F69E070E056
:1023600086E090E00E940A118111C260D2FB112721
:1023700010F9412F62E070E088E090E00E940A11BD
:102380008111C460D3FBDD27D0F94D2F68E070E0E8
:102390008AE090E00E940A118111C86001110E9438
:1023A0004F0B80E00E9474118111C26011110E94D4
:1023B000521680E00E947B118111C460D1110E94ED
:1023C000EE1280E00E9482118111C8608C2FDF9193
:1023D000CF911F910F910895CF93C82F0E94A52EE2
:1023E000C0FDC260C1FDC460C2FDC8600E94BF2EB6
:1023F0008C2F0E948911682F8C2FCF910C94C32EA3
:1024000080E00E948911882321F00E94EC1180E075
:10241000089581E0089580E00E94891181600C9404
:10242000EC11CF930E94C42D81E392E09093B0030E
:102430008093AF03C1E0C093AE031092A7030E9444
:102440006A14823011F4C093A7030E940A1A91E023
:10245000813009F090E0892FCF91089561E081E00B
:102460000E945D198DE392E09093B0038093AF03D7
:10247000089561E081E00E945D1989E492E0909303
:10248000B0038093AF03089560E082E00E945D197D
:102490008BE292E09093B0038093AF030895109283
:1024A000A70390E08930910570F5FC01E65DFF4FD0
:1024B0000C94CC3B0E946A14811106C00E94391210
:1024C00020C081E08093A7030E942E121AC085E2EB
:1024D00092E008C00E94441214C081E08093A703D8
:1024E00083E492E09093B0038093AF030AC063E06B
:1024F00081E005C060918203660F615080E00C941A
:10250000BD160C940A1A80E00895CF93C82F0E943C
:102510004927882361F1C09343031092410310922D
:10252000400383E0809342030E949A3961E081E096
:102530000E94070E0E941112882391F081E080937F
:1025400042030E944B1D0E94C42D1092AE0384E0F2
:102550000E946933809143030E944F120E94831DA1
:102560000E943B0C0E94AA39CF910C94CD2DCF91A3
:102570000895DC015496ED91FC915597EE0FFF1FE5
:10258000EE0FFF1FE357FE4F659175918591949172
:1025900008954AE150E063E771E00C94D23BFC01FE
:1025A00080810C94D9054AE150E060E973E084E44D
:1025B00093E00E94E43B84E493E00C94CF124AE160
:1025C00050E060E973E084E493E00E94023C81E023
:1025D0000E94821184E493E00C94CF1284E493E08F
:1025E0000E94C9120C94DF12FC010994FC01859130
:1025F00094910C94F412009761F09C0180E0F90131
:10260000459154912E5F3F4F452B11F08F5FF7CFCF
:10261000089580E00895EF92FF920F931F93CF9358
:10262000DF93EC017B018A0185E00E94EC0A8E15A4
:102630009F0518F4188281E007C00817190718F4DD
:1026400081E0888301C080E0DF91CF911F910F91DD
:10265000FF90EF900895282F81E090E03AE021501C
:1026600038F0AC01349FC001359F900D1124F7CF95
:10267000089597FD02C081E008958FEF0895CF92ED
:10268000DF92EF92FF92CF9397FF08C090958095CD
:10269000709561957F4F8F4F9F4F07C061157105F2
:1026A0008105910511F0C0E001C0C1E02AE0C22E11
:1026B000D12CE12CF12C611571058105910541F0BA
:1026C000CF5FA70196010E94AD3BCA01B901F3CFCC
:1026D0008C2FCF91FF90EF90DF90CF900895BC01A9
:1026E00080E090E00C943F13CF92DF92EF92FF9244
:1026F0000F931F93CF93DF93EC017B016A01E88175
:10270000F981CF01B8010E94773B009731F01E1488
:102710001F049CF4081B190B03C01E141F0474F43F
:10272000C901801B910BE817F90718F40E0F1F1F42
:1027300001C08901198308830DC08C01C8018C0D6B
:102740009D1D8E179F0718F4E01BF10B01C0F601C9
:10275000F983E883DF91CF911F910F91FF90EF9064
:10276000DF90CF900895AF92BF92CF92DF92EF9219
:10277000FF920F931F93CF93DF93EC017B016A01CC
:1027800059016881798180E090E00E943F13823096
:1027900020F082500E942B1302C081E090E08C0157
:1027A0009501A601B701CE010E947413DF91CF916C
:1027B0001F910F91FF90EF90DF90CF90BF90AF905F
:1027C00008952FEF3FEF40E050E00C94B3130E94C8
:1027D000F6348111FCCF0E94F6348823E1F308958A
:1027E000CF93CAE00E94CA34811108C084E690E009
:1027F0000E94B134C150B1F780E001C081E0CF91B7
:10280000089520915E0330915F0395E0929FF0015F
:10281000939FF00D1124E80FF11DEE0FFF1FEF55F0
:10282000FE4F8591949108951F93CF93DF93182FB6
:10283000C0916203D09163030E9401149C01123085
:1028400061F480915E0390915F03039731F4C73088
:10285000D10518F0219720EB34E02C9FC0012D9F6B
:10286000900D3C9F900D1124DF91CF911F91089501
:102870001F93CF93DF93182FC0916203D09163030E
:102880000E9401149C0183E080938403113029F499
:10289000209168033091690306C0123031F4209111
:1028A0006A0330916B031093840380915E039091CF
:1028B0005F03019721F4C9018C0F9D1F07C02C9F56
:1028C000C0012D9F900D3C9F900D1124DF91CF9161
:1028D0001F91089580915E0390915F038A30910566
:1028E00079F09C01255031092530310558F09C01C3
:1028F0002250310981E02230310528F480E008952A
:1029000083E0089582E00895A0916003B09161038F
:1029100020917A0330917B030E943A3B24E630E019
:1029200040E050E00E948B3B293E8DEF3807410587
:10293000510520F028EE3DEF40E050E0C901089538
:1029400020917E0330917F03809162039091630315
:10295000AC01249FC001259F900D349F900D112440
:10296000089582E00E941414BC0180E49CE90E9456
:10297000E61681322EE4920710F080E29EE408957C
:1029800082E00E941414BC0184EC99E00E94E616D7
:10299000893823E1920710F088E893E1089581E0F7
:1029A0000E940114BC0188E799E60E94773BCB01A5
:1029B000089580916003909161038436910530F40D
:1029C00084E690E0909361038093600380916003BC
:1029D00090916103893E9D4F30F088EE9DEF90937A
:1029E0006103809360038091700390917103893E2D
:1029F000934030F088EE93E09093710380937003DE
:102A00000E94CF14209162033091630382179307D1
:102A100020F490936303809362038091620390910A
:102A20006303892B31F481E090E0909363038093FA
:102A300062030E94B11420916403309165038217F0
:102A4000930720F49093650380936403809164035B
:102A50009091650320916C0330916D038217930769
:102A600020F490936D0380936C030E94C014209116
:102A70006603309167038217930720F490936703EE
:102A800080936603209166033091670380916E0303
:102A900090916F032817390720F430936F03209328
:102AA0006E0380914E0390914F03409164035091C7
:102AB00065034817590720F49093650380936403D6
:102AC00040916C0350916D034817590720F490937F
:102AD0006D0380936C0380915003909151032817EC
:102AE000390720F4909367038093660320916E0367
:102AF00030916F032817390720F490936F03809368
:102B00006E03089596E2899FB00111246A567F4FA3
:102B100046E250E08EE593E00E94E43B0C94D91429
:102B200096E2899FB00111246A567F4F46E250E039
:102B30008EE593E00E94023C81E00C947B110E94A0
:102B4000D914809164039091650324E0969587954C
:102B50002A95E1F790936D0380936C0308950E948A
:102B6000D914809166039091670334E09695879518
:102B70003A95E1F790936F0380936E0308950E9456
:102B8000D9148091600390916103969587959093F5
:102B900065038093640320915E0330915F032430CA
:102BA000310531F49695879590936503809364037E
:102BB000809164039091650390936703809366030B
:102BC0000E949F150C94AF15CF93DF9381E00E9474
:102BD0000114909369038093680382E00E940114BA
:102BE00090936B0380936A03C0915E03D0915F035F
:102BF000209761F580ED97E09093610380936003E7
:102C000083E090E0909363038093620388EE93E007
:102C10009093710380937003109273031092720368
:102C200080E797E190937503809374031092770384
:102C3000109276038EE190E090937903809378036D
:102C400088E790E090937B0380937A030E946A1454
:102C500081111EC081E090E090937D0380937C03FE
:102C6000239719F48BEF9FEF02C081EF9FEF9093B2
:102C70007F0380937E0384E690E0909381038093AA
:102C8000800382E090E0909383038093820306C0E8
:102C900088E090E090937D0380937C03DF91CF9157
:102CA0000C94BF15CF9310925F0310925E030E94A5
:102CB000E415C0E08C2F0E949015CF5FC431D1F78E
:102CC00081E0CF910C947B11CF93C82F0E94821585
:102CD0008C2F90E001960E94CC358AE30E94A335A8
:102CE00080915E0390915F03892BF1F00E94AB31DC
:102CF0000E942C3680915E0390915F03019781F0D2
:102D000080916003909161030E94CC358FE20E9414
:102D1000A3358091620390916303CF910C94CC35DD
:102D200089E0CF910C946831CF910895BC0184E67D
:102D300093E00E94E1130C94D914BC0186E693E061
:102D40000E94E1130C94D9142FEF3FEF41E050E0C3
:102D5000BC0180E793E00E94B3130C94D9148091D6
:102D60007803909179030E94FE1B87E392E0909391
:102D7000B0038093AF030C940A1ACF93C62F91E04F
:102D80009093AE0380938503809185038C1302C0DA
:102D90001092AE0380FF02C080E001C083E00E9479
:102DA0004F12813089F49091AE03992369F080919C
:102DB00085038F5F809385030E942E1D0E94CD0D99
:102DC0000E94AF16813001F3CF910895AB019C01B1
:102DD000A8EEB3E00E943A3B9A0140E050E00E9426
:102DE0008B3BA8EEB3E00E94503B24E630E040E08D
:102DF00050E00E948B3B2115310581E048075105C9
:102E000020F02FEF3FEF40E050E0C901089580919E
:102E1000A403811113C00E94010B882381F00E943A
:102E2000040B2091860330918703821B930B9C0136
:102E300081E02330310518F080E0089581E00895A5
:102E4000815E0C94EC0A0F931F93CF93DF9310E0F5
:102E5000CFEFDFEF00E08091A603181760F4812F19
:102E60000E9420178C179D0710F0CE0101C0012F82
:102E70001F5FEC01F0CF802FDF91CF911F910F9159
:102E80000895CF93DF939091A403911104C0DF9133
:102E9000CF910C94201790918A03C82FD0E09923EA
:102EA00091F00E942017CC0FDD1FFE01E557FC4F6B
:102EB000C956DC4F2081318148815981241B350B53
:102EC000280F391F07C0FE01EE0FFF1FE557FC4F0B
:102ED00020813181C901DF91CF910895EF92FF9256
:102EE0000F931F93CF93DF93C0E0D0E0E12CF12C40
:102EF0000FEF1FEF8091A60390E0C817D9076CF47D
:102F00008C2F0E944117E816F90608F47C018017FF
:102F1000910708F48C012196EDCFE01AF10A81E0C7
:102F200020917C0330917D032E153F0508F080E051
:102F3000DF91CF911F910F91FF90EF900895CF9364
:102F4000C82F8091A403882341F0C11106C00E94BC
:102F5000040B9093870380938603C093A4030E947D
:102F60000A0C8091A303811104C08C2FCF910C9483
:102F70002B06CF910895EF92FF920F931F93CF935B
:102F8000DF9381E00E94650686E10E94EC0A80934F
:102F9000A60307E913E03BE8E32E33E0F32EC0E09D
:102FA000D0E08091A60390E0C817D9076CF48C2F6D
:102FB0000E942017F801819391938F01F70181936B
:102FC00091937F012196EDCF1092A4031092A30359
:102FD00080E00E949F1710928703109286038FEF64
:102FE0008093A503DF91CF911F910F91FF90EF90F8
:102FF000089580E00E949F1781E08093A3030895C5
:103000000E94F91780E00C946506FF920F931F93BE
:10301000CF93DF938091A50387FD17C00E944117CE
:10302000EC0110E0FF24F39400E08091A603181750
:1030300050F4812F0E944117C817D90708F40F29AF
:10304000FF0C1F5FF2CF802F01C080E0DF91CF9196
:103050001F910F91FF9008951F93CF93DF93EC0181
:1030600010E08091A603181748F48FE1810F0E94A9
:10307000130B8C179D0720F01F5FF3CF81E001C079
:1030800080E0DF91CF911F9108959F92AF92BF9200
:10309000CF92DF92EF92FF920F931F93CF93DF9324
:1030A00086E090E00E942C18882309F462C00E94F8
:1030B000A80B882309F45DC08091A50387FF04C095
:1030C0000E9423178093A5038091A5030E942017D7
:1030D0006C01A0906A03B0906B034BE8E42E43E0D0
:1030E000F42E07E913E0C0E0D0E099249394809196
:1030F000A60390E0C817D907B4F48C2F0E942017BC
:103100008A159B0570F0C816D90608F4912CF701B2
:10311000819391937F01F801819391938F0121967F
:10312000E6CF9924939410928A030E94933490934B
:10313000890380938803992069F0DF91CF911F91D3
:103140000F91FF90EF90DF90CF90BF90AF909F9046
:103150000C94F9170E940518DF91CF911F910F91E0
:10316000FF90EF90DF90CF90BF90AF909F900C9426
:103170009F17DF91CF911F910F91FF90EF90DF90FC
:10318000CF90BF90AF909F900895CF9380918A0386
:10319000811115C081E080938A03C0E08091A6036D
:1031A000C81768F48C2F0E942017EC2FF0E0EE0F68
:1031B000FF1FE956FC4F91838083CF5FEFCFCF9104
:1031C00008950E9493342091880330918903821BD3
:1031D000930B08958091A403811103C00E944518A8
:1031E00009C00E94C5180E94E118409718F080E0BD
:1031F0000E949F170E940717882311F082E008950C
:103200008091A3038823D1F381E008951F93CF9386
:10321000DF93EC0110E08091A603181740F4812F92
:103220000E9441178C179D0720F41F5FF4CF80E0A8
:1032300001C081E0DF91CF911F9108951F93CF933B
:10324000DF93EC0110E08091A603181740F4812F62
:103250000E944117C817D90720F41F5FF4CF80E000
:1032600001C081E0DF91CF911F9108956091A60385
:10327000662329F070E00E94773BCB01089580E03F
:1032800090E008950E94D72161E081E00E945D19DD
:1032900081E00E94411F8091A8039091A9030C94A2
:1032A000A22181E00C94ED210E94A80B882321F03B
:1032B0000E947D210C94DC1F0895CF93DF931F9211
:1032C000CDB7DEB7882341F069830E94381490930C
:1032D000AD038093AC036981662369F08091640338
:1032E000909165039093AB038093AA0380916C0344
:1032F00090916D030CC08091660390916703909349
:10330000AB038093AA0380916E0390916F03909317
:10331000A9038093A8030F90DF91CF910895809126
:10332000AF039091B0030C94F6128091AF0390918B
:10333000B00302960C94F6120E9495190E94831D08
:103340000C949F35CF93DF930E949334EC010E943D
:1033500093348C1B9D0B853B910510F00E943B0C18
:103360000E94F634882399F388E0DF91CF910C9482
:103370006933CF93DF930E949C190E949334EC0130
:1033800085E00E9469330E943B0C93980E940E2EA8
:103390000E94F01381110FC00E94752F0E94F0133C
:1033A000811109C00E9493348C1B9D0B853B9105B4
:1033B00068F3939AEBCF88E00E94693360E081E084
:1033C000DF91CF910C94070E0E949C190E943B0C38
:1033D0000E94122E86E00E9469330C94A219E0919B
:1033E000AF03F091B003349685919491FC01099458
:1033F000811103C00E94E4190BC0813039F480911F
:10340000AE03811105C00E94B91902C081E0089580
:1034100080E008950F931F93CF93DF93109262047F
:103420000E948F1902E0C0E0D0E011E00E94F63463
:10343000809362040E94372E112379F00E94C31DED
:10344000082F0E94F819182F882339F00E94040BC6
:10345000C817D90791F4111107C08091AE038823D2
:1034600011F0011114C010E0809162048130F1F676
:103470000E94C7348823D1F20AC00E94040BEC01D9
:103480000E94EF19082F0E94F819182FE4CF0E940C
:103490009519802FDF91CF911F910F91089581E0B1
:1034A0000E94271B0C9400180E94191B0E94BB1736
:1034B00021E08091760390917703892B09F420E035
:1034C0002093B10380E00C94411F1F93CF93DF93AF
:1034D000C091AC03D091AD03CE010E9436190E9479
:1034E0001E19182F0E940717811109C0111107C05A
:1034F0000E94990B11E0C817D90708F410E0812F3A
:10350000DF91CF911F9108951F93CF93DF930E9476
:10351000651A182F0E94BD1AEC018091B10388230F
:1035200029F0BE01812F0E948B1F01C0812F8823AB
:1035300029F081E00E94271B81E007C0BE01812F96
:103540000E94AA200E94FA1A82E0DF91CF911F9177
:10355000089581E09091B603911180E0089581E093
:103560002091B4033091B503232B09F480E0089532
:103570008091B4039091B50308958091B203909126
:10358000B3030895CF93DF931F92CDB7DEB7409179
:103590004A0350914B03BA017250CE0101960E942A
:1035A0000B138981811112C00E949E0B009711F4A8
:1035B00081E090E0BC0184EC99E00E94E616893835
:1035C00023E1920728F088E893E102C080E090E0D0
:1035D0000F90DF91CF910895813020E1920710F094
:1035E00080E090E19093B5038093B4030E94270696
:1035F0000C94130CCF93DF93EC010E94C21ABC0110
:10360000C817D90708F4BE018091B2039091B303A3
:103610008617970759F07093B3036093B20380E164
:103620000E94BD0CDF91CF910C94EC1ADF91CF91E9
:1036300008958091B603882349F080E090E00E94CD
:10364000EC1A81E00E9413061092B6030895CF93FE
:10365000C82F8091B60381110BC0CC2349F080E0C4
:1036600090E00E94EC1A80E00E941306C093B6031B
:10367000CF91089580E090E00E94EC1A81E00C94D4
:10368000271B87E08093680482E0809369040E948E
:10369000623383E08093B7030895FF920F931F93E3
:1036A000CF93DF938091A703882381F00E94560D6A
:1036B000F82E8091620301E08F1101C000E011E05B
:1036C000F11010E0813021F4112311F010E000E03E
:1036D0000E948F0B882309F458C083E10E94EC0AF2
:1036E000EC0182E10E94EC0AC817D90728F49C017A
:1036F0002C1B3D0BE90102C0C81BD90BC53FD140B3
:1037000008F443C0C1E0011102C087E001C083E0BA
:1037100080936804112329F080916804825080937B
:103720006804CC2329F08091680481508093680458
:10373000011104C0111102C0CC2331F081E00E94BC
:103740006933111107C004C088E00E94693304C0C6
:10375000002311F0F11002C0D0E001C0D1E00E94BE
:10376000CA34811102C01092B703D11106C0C11131
:1037700004C00E94CA34883051F08091B70382306F
:1037800011F481E00AC082E008C0C0E0BCCF8091A3
:10379000B7038F5F8093B703F0CFDF91CF911F9175
:1037A0000F91FF9008958FEF8093680488E00C9448
:1037B00069331092BC0308950E9493349093BB0325
:1037C0008093BA0308950E9493342091BA033091F4
:1037D000BB03821B930B2091B8033091B9032817C8
:1037E000390728F081E08093BC0382E008951092AD
:1037F000BC0381E008958091BC0308952CE3AC01E3
:10380000249FC001259F900D11249093B9038093AC
:10381000B80308950E94BB170E94D72181E00C9441
:10382000411F81E00E94ED210C9400181F93CF935B
:10383000DF93C091AC03D091AD03CE010E94361945
:103840000E940619182F0E940717811109C0111133
:1038500007C00E94990B11E08C179D0708F410E037
:10386000812FDF91CF911F9108951F93CF93DF9305
:103870000E94161C182F0E947D21EC01BC01812F93
:103880000E948B1F882329F081E00E94ED2181E0B6
:1038900007C0BE01812F0E94AA200E94A22182E0BF
:1038A000DF91CF911F9108958091CB039091CC032C
:1038B0002091CE03222341F00E9493342091CB0328
:1038C0003091CC03821B930B08956091C7037091D4
:1038D000C8038091C9039091CA0328EE33E040E009
:1038E00050E00E948B3BC90108956091C303709121
:1038F000C4038091C5039091C60328EE33E040E0F5
:1039000050E00E948B3BC90108950F931F93CF9302
:10391000DF9381E00E9438148C0184E00E94381407
:10392000EC0184E10E94EC0A80179107B8F4C817F3
:10393000D907B0F49C012C1B3D0BC8018C1B9D0BBF
:1039400064E670E00E94773BC9010E94773B6436D1
:10395000710510F063E670E0862F03C083E601C0B6
:1039600080E0DF91CF911F910F910895CF93DF9366
:103970000E94851C9091CD039817E0F48093CD03AD
:103980000E94541C2091D0033091D103EC01C21B42
:10399000D30B0E94541C9093D1038093D003809149
:1039A000D2039091D3038C179D0720F4D093D303B7
:1039B000C093D203DF91CF9108950E94B61C8091ED
:1039C000CF03882311F089E601C084E690E02091BE
:1039D000CD03821B91092091D2033091D303AC0116
:1039E000429FC001439F900D529F900D1124089556
:1039F000CF9320914603309147032130310549F19F
:103A00002115310511F4C0E025C02430310529F419
:103A10008091CE0381110AC0F6CF2230310519F40E
:103A2000C091CE0317C023303105A1F485E00E9478
:103A3000F50ABC0185E00E94590C209148033091A1
:103A40004903A901525084179507E8F2281739074E
:103A500008F4C1E08C2FCF910C9400060E94851CC5
:103A60008093CD031092D1031092D0031092D30310
:103A70001092D2031092C7031092C8031092C90388
:103A80001092CA031092C3031092C4031092C5038C
:103A90001092C603089568E572E080E00E94BD0CB4
:103AA0009093C2038093C10381E00E943814BC014B
:103AB0006854744F693729E6720710F068E779E6B1
:103AC00080E00E94BD0C813C2FEF920710F080EC4B
:103AD0009FEF9093C0038093BF030E948F0B80934E
:103AE000CF030E9484149093BE038093BD030E9471
:103AF00093349093CC038093CB030E942E1D81E0DE
:103B00008093CE0308950E94541C9093CC0380931D
:103B1000CB031092CE0308950E946F2181111DC026
:103B20000E94AF1A811119C00E940717882351F112
:103B30008091C7039091C803A091C903B091CA03B3
:103B400080599F4FAF4FBF4F8093C7039093C803D7
:103B5000A093C903B093CA0308958091C3039091C1
:103B6000C403A091C503B091C60380599F4FAF4FC6
:103B7000BF4F8093C3039093C403A093C503B09336
:103B8000C603D2CF0895CF93DF938091CE038111E6
:103B900002C082E0D7C085E00E94EC0A20914A036F
:103BA00030914B033E5F2817390718F482EF9AE0F3
:103BB000C4C080E00E94F50A2091BF033091C00389
:103BC0008217930758F42091C1033091C2038217E2
:103BD0009307B8F40E94A91A882399F00E946A14E6
:103BE000823009F08FC08091620390916303029745
:103BF00009F088C00E948F0B811184C082E09BE095
:103C00007BC0C091CF030E948F0BC81719F083EEC1
:103C10009AE093C0C091AA03D091AB03C851DC4F86
:103C20000E94A30BC817D90718F488ED9AE085C045
:103C300086E00E94EC0A20915203309153038217D0
:103C4000930718F489EC9AE078C089E10E94EC0AA5
:103C5000C091BD03D091BE03C83E2DEFD207D9F06D
:103C60008C179D07C0F00E948414C817D90709F06B
:103C70004CC00E946A1481115EC0809160039091D3
:103C8000610360916403709165030E94773B6A3021
:103C90007105D8F550C0C0917003D0917103C83E32
:103CA00083E0D807A0F46091C3037091C4038091AE
:103CB000C5039091C60320E63AEE40E050E00E9432
:103CC0008B3B2C173D0718F08EEA9AE015C08091C7
:103CD000720390917303892B09F45BCF87E00E94F4
:103CE000EC0A20917403309175032817390708F006
:103CF00050CF8EE99AE021C0909341038093400316
:103D000081E020C082E09BE018C0C091BD03D0914B
:103D1000BE030E9484148C179D0730F489EB9AE04F
:103D200090934103809340030E9484149093BE03B8
:103D30008093BD03E5CF89EB9AE090934103809394
:103D4000400380E0DF91CF9108950E94111C0E94F2
:103D50004F1A0C940018CF93DF931F92CDB7DEB7A4
:103D60008091D403882329F0813031F40E94841A91
:103D70000CC00E94351C09C00E94EA18823089F0EC
:103D800089830E94A51E89810CC0813051F49091D5
:103D9000A703992331F082E08093D4030E94BB17DC
:103DA00082E00F90DF91CF910895CF93DF930E942F
:103DB000BB1761E083E00E945D19C091AC03D09114
:103DC000AD038091A603811106C00E94990BC8170C
:103DD000D90740F40CC0CE010E9436190E941E196A
:103DE000882329F00E940A1C1092D4030BC060E0C3
:103DF00083E00E945D190E94541A81E08093B10310
:103E00008093D403DF91CF9108958091D5038130C1
:103E100029F48091A8039091A903089580E090E08F
:103E200008952CE0829FC00111248F519C4F0C9467
:103E3000172289E294E00C941722CF93DF9300D0ED
:103E400000D0CDB7DEB782E10E94EC0A9A83898365
:103E500084E10E94EC0A29813A81281B390B3A83BC
:103E6000298387E10E94EC0A9C838B83CE01019613
:103E70000E9417220F900F900F900F90DF91CF911B
:103E80000895EF92FF920F931F93CF93DF93F82E35
:103E900081E08093D5030E94990BBC012091A80377
:103EA0003091A9034091AC035091AD030F2D81E2F5
:103EB00094E00E9432228091AC039091AD030E9465
:103EC0003619EC0110E08CE0E82E8091A60318175B
:103ED00098F4812F0E944117BC012091A8033091D2
:103EE000A903E19EC00111240F2DAE0187529C4F02
:103EF0000E9432221F5FE9CF10922F041092D80344
:103F000010922E0410922D04DF91CF911F910F91EA
:103F1000FF90EF9008951F93CF93DF93182FEB013D
:103F20008091A703882361F1112349F080912F0428
:103F3000811105C00E94F91781E080932F048091C0
:103F40002F04882311F08530D9F42091A8033091F3
:103F5000A903203A310510F420EA30E02C173D0780
:103F600010F41092A3030E94EA188093D5038130C5
:103F7000F1F40E946E17882319F08FEF8093A50348
:103F80000E94051F8C179D0780F0112371F080910E
:103F90002F04853051F49091D80381E0890F8093EC
:103FA000D80381E09A3020F402C01092D80380E058
:103FB000DF91CF911F9108950F931F93CF93DF93BC
:103FC000EC010E94990BAE01BC0181E294E00E94D9
:103FD000F42210E00CE08091A603181770F4812FF2
:103FE0000E944117BC01019FC0011124AE018752FC
:103FF0009C4F0E94F4221F5FEECFDF91CF911F9163
:104000000F910895CF92DF92EF92FF920F931F933B
:10401000CF93DF936091AC037091AD0381E294E0A4
:104020000E9457228C018091AC039091AD030E94B5
:1040300036197C01D12C9CE0C92E8091A603D8169C
:1040400098F4CD9CE0011124C752DC4FB701CE019A
:104050000E9457220817190728F0B701CE010E94C5
:1040600057228C01D394E9CFC801DF91CF911F91E2
:104070000F91FF90EF90DF90CF9008950F931F93D3
:10408000CF93DF93EB012091AA033091AB038C0116
:104090002817390708F489010E94051F9C01801721
:1040A000910708F49801C217D307E1F040912F045B
:1040B0004530D1F42C173D07B8F082179307A0F4D0
:1040C0008091A8039091A9038C179D0758F0409107
:1040D000D6035091D70380918603909187034817A8
:1040E000590711F4CE0109C080918603909187038E
:1040F0009093D7038093D603C901DF91CF911F918D
:104100000F9108950F931F93CF93DF93EC010E94BB
:10411000990B9093220480932104D0932404C0939C
:10412000230410E00CE08091A603181770F4812F8F
:104130000E944117019FF0011124E752FC4F918327
:104140008083D383C2831F5FEECFDF91CF911F9116
:104150000F9108951F93CF93DF93182FEB010E94C7
:10416000A80B811108C01123E1F120912D04309199
:104170002E04232BB1F10E940717811132C0CE010A
:104180000E94DC1FCE010E9482200E9402208C1718
:104190009D0708F048C09C012C0F3D1F36952795C0
:1041A00030932E0420932D04BE0180912D04909114
:1041B0002E040E943E2090932E0480932D04909113
:1041C0002F04923009F1A8F49923C1F0913039F508
:1041D000112339F083E080932F0410922E04109263
:1041E0002D0480912D0490912E04DF91CF911F9189
:1041F0000895933061F0943081F011C0112389F358
:104200000E94F91781E00CC010922F04EACF10929F
:104210002E0410922D0484E003C0112311F385E0D5
:1042200080932F04DECF90932E0480932D04BCCF77
:104230000C944219CF93DF930E9454190E94990B5A
:10424000EC0182E00E9438148C179D0730F48091B5
:10425000AA039091AB030E94A2218091AC0390919C
:10426000AD038C179D0718F48AE698E028C00E94D9
:104270000E0B029750F180917C0390917D03892B66
:1042800061F08BE10E94EC0AEC010E94A014C817B7
:10429000D9071CF486E698E012C0809172039091D1
:1042A0007303892B91F08DE10E94EC0A2091800329
:1042B000309181032817390744F480E698E0909301
:1042C00041038093400381E001C082E0DF91CF9100
:1042D000089581E090913404911180E0089581E087
:1042E0002091320430913304232B09F480E00895A7
:1042F000809132049091330408958091300490911C
:10430000310408950E949E0B009711F481E090E023
:10431000BC0180E49CE90E94E61681322EE49207FB
:1043200010F080E29EE40895813020EC920710F0B6
:1043300080E090EC90933304809332040E94230633
:104340000C94130CCF93DF93EC010E948221BC01EB
:10435000C817D90708F4BE01809130049091310448
:104360006817790750F49C01261B370B2D3831054F
:1043700068F0BC016C58710909C09B01281B390BFE
:104380002D38310518F0BC0164577F4F8617970709
:1043900059F070933104609330048FE00E94BD0C9B
:1043A000DF91CF910C949421DF91CF91089580916A
:1043B0003404882389F0109233041092320410924E
:1043C00031041092300480E090E00E94942181E05A
:1043D0000E940D06109234040895CF93C82F809147
:1043E0003404811113C0CC2389F080E090E00E9456
:1043F00094211092330410923204109231041092DE
:10440000300480E00E940D06C0933404CF910895DB
:10441000109233041092320410923104109230043E
:1044200080E090E00E94942181E00C94ED21FC0159
:10443000428153814115510591F0A081B181B7FFAF
:1044400003C0B195A195B10928EE33E00E94493B24
:104450009A0140E050E00E948B3BC901089580E042
:1044600090E008950F93FC01CB01002341F0461723
:10447000570708F4CA016417750748F407C06417A2
:10448000750708F4CA014617570708F4BA0197835D
:1044900086839183808313821282158214823387EC
:1044A0002287681B790B718760870F910895CF93DE
:1044B000DF93EC0188819981AA85BB85E885F98520
:1044C000309701F19B0140E050E0281B390B410976
:1044D00051090E94503B9F01442737FD4095542FBE
:1044E0000E94AD3B8A819B81280F391F411D511DC0
:1044F0002115310581E04807510524F457FD05C019
:10450000C90105C08FEF9FEF02C080E090E0DF910E
:10451000CF910895DF92EF92FF920F931F93CF9365
:10452000DF93EC012A813B812417350720F4FA013F
:10453000E21BF30B03C0F901E41BF50B8C819D8199
:10454000969587958E179F0710F5E880F9802417B8
:10455000350740F48A01021B130BCB018E199F090A
:104560007C0105C0E61AF70A8901041B150BC70177
:104570000E943913D82E888599850E943913D81244
:1045800006C01D830C83F986E8861B870A87DF91A6
:10459000CF911F910F91FF90EF90DF9008950F93AF
:1045A0001F93CF93DF93EC018B019A01A885B98506
:1045B0000E94493B2A853B8540E050E00E94AD3B8C
:1045C000C801A0E0B0E082179307A407B5071CF468
:1045D0001F821E8204C0021B130B1F830E83DF91F8
:1045E000CF911F910F910895EF92FF920F931F9318
:1045F000CF93DF93EC018B017A010E948A22A701FD
:10460000B801CE01DF91CF911F910F91FF90EF90F4
:104610000C94CF220F931F93CF93DF938C014430E0
:1046200019F0CFEFDFEF02C0C1E0D0E00E94CC3440
:10463000D8011B96EC91F0E0EE0FFF1FEF59FD4FF4
:104640009C01C29FC001C39F900DD29F900D112469
:1046500020813181820F931F91838083DF91CF91DD
:104660001F910F910895EF92FF920F931F93CF9395
:10467000DF931F92CDB7DEB78C01443021F0EE24DA
:10468000EA94FE2C03C0EE24E394F12C69830E948B
:10469000CC34D8011B96ED91FC911C976981E60FF3
:1046A000F11DE491F0E0EE0FFF1FEF59FD4FE89E82
:1046B0009001E99E300DF89E300D1124808191818A
:1046C000820F931F918380830F90DF91CF911F9171
:1046D0000F91FF90EF900895CF93DF93EC010E942C
:1046E0004833882311F0888101C08FEFDF91CF918B
:1046F0000895CF93DF9300D000D0CDB7DEB780E030
:104700000E94E30A9A83898381E00E94E30A298157
:104710003A81281B390B3A83298383E10E94EC0AF2
:104720009C838B83AE014F5F5F4F61E080E00E940E
:10473000390BAE014F5F5F4F61E081E00E94390BA2
:104740000F900F900F900F90DF91CF910895CF931E
:10475000DF93D82F64E478E088E598E00E94E32DA9
:10476000C0E082E10E942C0D882399F08FE10E9425
:104770002C0D8D17A1F0C1110CC066E378E0DD238C
:1047800019F088E598E002C08DE498E00E94E32DDE
:10479000C1E00E94F634813021F780E001C081E061
:1047A000DF91CF910895CF93DF9300D000D0CDB7A4
:1047B000DEB7862F5A8349833C832B83AE014F5F3C
:1047C0005F4F61E00E94390B0F900F900F900F9098
:1047D000DF91CF910895FF920F931F93CF93DF93B3
:1047E000F82E162F042F83E00E946933812F0E9438
:1047F000EC0AEC01802F0E94E30AAC019E01602FBD
:10480000812F0E94D32381E0809336030E94240CE1
:10481000FF2039F0DF91CF911F910F91FF900C9401
:104820007923DF91CF911F910F91FF900895FF920F
:104830000F931F93CF93DF93CDB7DEB72E970FB6AD
:10484000F894DEBF0FBECDBF61E081E00E94070E8D
:1048500081E00E94A723882349F16DE872E0CE0130
:1048600001960E946C2C8FEF8A8784E990E09A83EE
:10487000898384E892E09D878C8789E08E8761E058
:10488000CE0101960E94152A87FD10C0082F11271E
:1048900007FD1095F801EC57FD4FF49087307CF739
:1048A0008F2D0E942C0D882351F30EC00E943B0CCB
:1048B0002E960FB6F894DEBF0FBECDBFDF91CF911D
:1048C0001F910F91FF9008950E94240C10923603BF
:1048D000CE0101960E942929882341F0F801E3586E
:1048E000FD4F44916F2D81E00E94EB2381E0809386
:1048F0003603C5CF1F93CF93DF93CDB7DEB72E9787
:104900000FB6F894DEBF0FBECDBF61E080E00E941D
:10491000070E1092670061E572E0CE0101960E94D9
:104920006C2C8FEF8A8784E990E09A8389838FE4E7
:1049300092E09D878C8787E08E8761E0CE010196AB
:104940000E94152A87FD1FC0E82FFF27E7FDF0957D
:10495000E15BFD4F1491812F0E942C0D882369F398
:104960000E94240C10923603CE0101960E94292940
:10497000882329F0412F612F80E00E94EB2381E002
:1049800080933603DACF81E0809367000E943B0C6E
:104990002E960FB6F894DEBF0FBECDBFDF91CF913C
:1049A0001F9108958F3019F4CB010C949421CB0101
:1049B0000C94EC1AEF92FF920F931F93CF93DF9317
:1049C000EC01443019F00FEF1FEF02C001E010E0DE
:1049D0000E94CC34089F7001099FF00C189FF00CC6
:1049E00011240E94CC342F8538898C0141E050E09D
:1049F000B701CE010D960E9474136D857E858B855F
:104A0000DF91CF911F910F91FF90EF900C94D224E2
:104A1000AF92BF92CF92DF92EF92FF920F931F93CC
:104A2000CF93DF93CDB7DEB765970FB6F894DEBFAF
:104A30000FBECDBFA82EB62E7A0161E081E00E94A4
:104A4000070E80E00E94A723882309F46AC0AA20E9
:104A500049F00E94D721E2E0CE2EFFE0DF2E00E0F9
:104A600010EC08C00E94191B63E0C62E70E1D72E1F
:104A700000E010E163E672E0CE0101960E946C2C2A
:104A80008FEF8A872CE930E03A832983DC86BD8664
:104A9000198B088B4D856C85CE0142960E941C0BAC
:104AA0002A893B893F872E8761E0CE0101960E94CB
:104AB000152A87FD2EC08111EDCF6E857F858D2D46
:104AC0000E94D224CE0101960E9429298823D9F080
:104AD0000E94240CFD8AEC8A2E853F853B8B2A8B15
:104AE000AE014E5E5F4F6B2D8D2D0E94390B8C2DCC
:104AF0000E94E30A9B8B8A8BAE014E5E5F4F6B2D4B
:104B00008C2D0E94390B60E070E08D2D0E94D22424
:104B1000C1CF81E0AA2019F00E94ED2102C00E94BD
:104B2000271B0E943B0C65960FB6F894DEBF0FBEA4
:104B3000CDBFDF91CF911F910F91FF90EF90DF904C
:104B4000CF90BF90AF900895EF92FF920F931F9375
:104B5000CF93DF93CDB7DEB729970FB6F894DEBFBA
:104B60000FBECDBF8C017B01BC01CE0101960E941E
:104B70006C2C60E0CE0101960E94152A682F87FDFB
:104B800010C0E82FEE0FFF0BEE0DFF1D4591549165
:104B900081E092E00737190709F080E00E940825BC
:104BA000E8CF29960FB6F894DEBF0FBECDBFDF91D8
:104BB000CF911F910F91FF90EF9008951F93CF9386
:104BC000DF9300D000D01F92CDB7DEB7182F6D83D2
:104BD0000E94E30A9A838983812F0E94EC0A9C83B6
:104BE0008B83AE014F5F5F4F6D81812F0E94390B28
:104BF0000F900F900F900F900F90DF91CF911F911A
:104C000008950F931F93CF93DF93CDB7DEB72C9703
:104C10000FB6F894DEBF0FBECDBF182F062F61E090
:104C200080E00E94070E67E572E0CE0101960E94C7
:104C30006C2C8FEF8A8724EA30E03A8329831C8723
:104C400061E0CE0101960E94152A87FD12C08111F4
:104C5000F7CF10923603CE0101960E9429298823AE
:104C600021F0602F812F0E94DE2581E080933603A2
:104C7000E7CF0E943B0C2C960FB6F894DEBF0FBE18
:104C8000CDBFDF91CF911F910F9108951F93CF93C7
:104C9000DF93CDB7DEB729970FB6F894DEBF0FBE0E
:104CA000CDBF182F6DE572E0CE0101960E946C2CED
:104CB00060E0CE0101960E94152A682F87FD04C08E
:104CC000812F0E940126F4CF29960FB6F894DEBFFB
:104CD0000FBECDBFDF91CF911F910895CF93DF938A
:104CE000CDB7DEB72A970FB6F894DEBF0FBECDBFA3
:104CF00061EA72E0CE0101960E946C2C60E0CE0168
:104D000001960E94152A87FD2DC08A870E949A3934
:104D10008A858230A9F04CF4882379F08130E1F45F
:104D20006DE672E087E792E00FC0843091F07CF08E
:104D3000853091F40E947A240FC00E9417240CC081
:104D400069E672E081E792E00E94A42505C087E051
:104D500001C085E00E94462681E00E9474110E94F5
:104D6000AA39CCCF109242032A960FB6F894DEBF30
:104D70000FBECDBFDF91CF910895CF93DF93EC01AC
:104D8000842F0E94590C9E0136952795A9014C0F3E
:104D90005D1F8417950730F4C21BD30B21E0C817A1
:104DA000D90708F020E0822FDF91CF91089568EEB7
:104DB00073E080E00E94BD0C2BE1289FB001299F89
:104DC000700D112440E088E799E60C94BD26CF933E
:104DD000DF931F92CDB7DEB7482F68EE73E04983AB
:104DE0000E94BD0C24E1289FB001299F700D112461
:104DF000498180E29EE40F90DF91CF910C94BD2613
:104E0000CF93DF931F92CDB7DEB7482F64E670E0F3
:104E100049830E94BD0CBC01660F771F680F791F84
:104E200049818CE291E00F90DF91CF910C94BD26E7
:104E3000CF930E940012C82F882341F10E94D726E9
:104E4000C82F811105C08EE298E00E94E02E1EC09E
:104E50008FE00E94E726882329F082E00E94E7265F
:104E6000811106C085E298E00E94E02EC0E00EC0ED
:104E700080E10E940027882331F083E00E94002710
:104E8000C82F811103C089E198E0EECF8C2FCF911C
:104E900008950C9418271F93CF93DF93EC01162FDE
:104EA0000E94672CCE0109960E946C23992787FDEA
:104EB0009095612F70E08617970759F0EB85FC8578
:104EC000E60FF71F84916D85DF91CF911F910C94B0
:104ED000660DDF91CF911F9108951F93CF93DF93BC
:104EE000EC01162F82E10E942C0D81110FC064E4A9
:104EF00078E088E598E00E94E32D8B85803141F5CC
:104F000081E0DF91CF911F910C94271B612FCE017F
:104F10000E94672CCE0109960E946C23992787FD79
:104F20009095212F30E08217930791F0111108C05E
:104F300065E08D859E85DF91CF911F910C9464373C
:104F40000E94A30B67E0DF91CF911F910C94FB3778
:104F5000DF91CF911F9108951F93CF93DF93EC01C1
:104F6000162F0E94672CCE0109960E946C23992768
:104F700087FD9095212F30E08217930791F0111152
:104F800007C067E08B85DF91CF911F910C94660D70
:104F90008B850E94E30A67E0DF91CF911F910C940B
:104FA0006437DF91CF911F910895CF93DF93DC0198
:104FB0001B96CD91DC911C9790E080E0FE012EE0E5
:104FC000829FE00DF11D1124329625913491211517
:104FD000310599F01D964D915C911E9737FF03C0E6
:104FE00057FF09C0305824233523232B21F0662393
:104FF00029F061509F5F8F5FE1CF892FDF91CF91C3
:105000000895EF92FF920F931F93CF93DF93EC01DC
:10501000F62E0E94D5279EE0899F80011124EB8502
:10502000FC85E00FF11F859194910E94EC35E82EEC
:10503000CE0109960E944833882311F0298501C0CA
:105040002FEF332727FD30956F2D70E02617370798
:10505000E1F06FE06E19EB85FC85E00FF11F3596EE
:10506000F490FF2029F0862F8F190E9428366F2D8B
:105070008B859C85800F911F0496DF91CF911F91A6
:105080000F91FF90EF900C94CA32DF91CF911F9156
:105090000F91FF90EF900895CF93DF93EC010E9462
:1050A000D5272B853C859EE0899F200D311D11243D
:1050B000F901369645915491CA01F901349624912B
:1050C0002150223030F4FA01459155916591749147
:1050D000CB01DF91CF9108959F92AF92BF92CF9273
:1050E000DF92EF92FF920F931F93CF93DF93CDB791
:1050F000DEB72C970FB6F894DEBF0FBECDBF7C0194
:10510000D62E942E0E944C288C016D2DC7010E9432
:10511000D527D7011B966D917C911C97BEE08B9F84
:10512000600D711D1124685F7F4F46E050E0CE0195
:1051300007960E94D23B86E0FE013796DE0111966B
:1051400001900D928A95E1F729813A81CB80DC802C
:10515000AD80BE80E2E09E1619F081E090E002C0D2
:105160008FEF9FEF2F3FFFE73F0729F4BC01C801F6
:105170000E94E11316C02E3F4FE7340719F4F601E1
:10518000099520C0829FA001839F500D929F500DD2
:105190001124D8018D919C911197840F951F8D93A7
:1051A0009C93F801808191818C159D0514F4D18226
:1051B000C082D8018D919C911197A816B90614F45C
:1051C000AD92BC92D7011F96ED91FC91509730970C
:1051D00019F0B801C70109952C960FB6F894DEBFF7
:1051E0000FBECDBFDF91CF911F910F91FF90EF9038
:1051F000DF90CF90BF90AF909F900895FF920F9354
:105200001F93CF93DF93EC018B016A818B81680F31
:10521000CE010E94D527F82E1E870D876FEFCE0195
:105220000E94D5278C8310E08C81181760F4612FC1
:10523000CE010E94D5278F1104C08A81181B1B83C1
:1052400002C01F5FF1CFDF91CF911F910F91FF90AF
:105250000895EF92FF920F931F93CF93DF93EC018A
:105260008B819A81890F89871A8681E08D8382E0FC
:10527000E82EFF24F3948E01075F1F4F0E94F6343F
:10528000482F823011F0843089F4E881F9816B81F4
:105290008A81680F0280F381E02DCE0109958B8110
:1052A0009A81890F8987EA86FD8204C0813089F05E
:1052B000883079F0C8010E9453338111FD828D81BD
:1052C000882319F0CE010E94B0298A858F5F8A87D2
:1052D000D5CF8FEF898781E08E838D83483009F0A9
:1052E00080E0DF91CF911F910F91FF90EF90089593
:1052F0000895FC0184EB90E09183808312821382F5
:10530000648381E0858386830895FC0184818230F3
:1053100010F022E001C0282F9281492F50E030E0A8
:1053200021503109421753071CF49F5F928308955F
:105330002381420F511D90E001974817590714F43B
:105340002F5F23830895FC018281882319F0815007
:10535000828308958381882311F081508383089587
:10536000FF920F931F93CF93DF93EC0100E010E0C7
:10537000F02E602F80E00E9491358A81081302C0D0
:105380008EE301C080E20E94A3356B819801260F55
:10539000311D8C8190E02817390744F4E881F981A8
:1053A0006F0D0190F081E02DCE0109950E942F36FE
:1053B0000F5F1F4F02301105D9F61D82DF91CF918B
:1053C0001F910F91FF9008950F931F93CF93DF9339
:1053D000EC010E94F634182F0E946039882321F0D6
:1053E00081E08D838FE71CC00B818A81080F12300A
:1053F00031F0143039F4CE010E94852903C0CE016A
:105400000E94A3298B819A81890F081711F081E0EE
:105410008D838D81882319F0CE010E94B029812FC0
:10542000DF91CF911F910F910895EF92FF921F93FB
:10543000CF93DF931F92CDB7DEB77C0181E0F701F8
:10544000858311E0C70169830E94E4296981811184
:1054500002C0F7011682F7019681911108C08830C9
:1054600031F481E0868383819281890F09C06623AC
:1054700011F0F7011583813029F79111E3CF8FEFF8
:105480000F90DF91CF911F91FF90EF900895CF93F0
:10549000DF93CDB7DEB729970FB6F894DEBF0FBE06
:1054A000CDBF6FEA72E0CE0101960E946C2C60E0E5
:1054B000CE0101960E94152A813039F0823041F0E8
:1054C000811109C00E94FD2BF2CF0E946E26EFCF02
:1054D0000E940B12ECCF87FFEACF29960FB6F89403
:1054E000DEBF0FBECDBFDF91CF9108950F931F9305
:1054F000CF93DF93EC0180915E0390915F0301975E
:1055000019F402E310E002C001E010E00E94CF14A1
:105510009C0141E050E0BE0182E693E00E947413DA
:10552000DF91CF911F910F910895CF93DF938091D9
:105530005E0390915F03892B61F10E946A14C1E0C0
:10554000D0E002C0CC0FDD1F8A95E2F78091720394
:1055500090917303892B11F4D05C09C00E946A14E6
:10556000882319F0C05FDF4B02C0C05BDF4B0E9495
:105570006A14811106C080917C0390917D03892B70
:1055800059F480915C0390915D03892B39F0D058D8
:1055900005C0C0E0D0E402C0A096F3CFCE01DF91F9
:1055A000CF910895CF93DF93EC0183E06E357807B8
:1055B00019F40E94E41513C083E06036780719F4EB
:1055C0000E94BF150CC083E06436780719F40E946E
:1055D0009F1505C06656734011F40E94AF150E94D6
:1055E000D9140E94952ABC01CE01DF91CF910C9471
:1055F000FE281F93CF93DF93CDB7DEB7E7970FB6A3
:10560000F894DEBF0FBECDBF60E070E0CE0187969C
:105610000E946C2C8FEF88AB8CEA90E098A78FA348
:1056200087EB92E09BAB8AAB82ED9AE29FAB8EABAD
:1056300016E20E94952ABC01CE0187960E94FE28A0
:1056400060E0CE0187960E94152A87FD1FC0EEE517
:10565000F3E0DE011196812F01900D928A95E1F71A
:10566000CE0187960E94292981110AC0FE01319638
:10567000AEE5B3E0812F01900D928A95E1F7D9CF85
:1056800083E00E9469330E94D914D3CFE7960FB606
:10569000F894DEBF0FBECDBFDF91CF911F9108956B
:1056A000DC011796ED91FC911897E60FF11D6491BE
:1056B0008FEE93E00C9404360F931F93CF93DF93F8
:1056C000EC018B0180E061E0680FF801E80FF11D4B
:1056D000E491E93011F0862FF6CFCE010E947929AE
:1056E0008AEB90E09983888318870F83DF91CF91AD
:1056F0001F910F9108950E946A1420915E033091CA
:105700005F03232B49F0833051F0823059F081112F
:105710000CC087E494E0089589E594E008958EE351
:1057200094E0089580E594E0089585E394E0089579
:105730001F93CF93DF93182F0E9482150E947B2B1B
:10574000EC0160E0CE010E94152A87FD15C0EF81B3
:10575000F885E80FF11D87FDFA958491893049F4A9
:10576000812F0E9482150E94F92A812F0E94901594
:10577000E5CF0E948512E5CFDF91CF911F9108956B
:1057800060E274E089E594E00E945C2B66E174E0DD
:1057900080E594E00E945C2B69E074E087E494E08B
:1057A0000E945C2B6EE074E08EE394E00E945C2B20
:1057B00063E074E085E394E00C945C2B80914603F5
:1057C000909147030397029718F48FEF9FE702C069
:1057D0008EEF9FE72091560330915703232B09F456
:1057E00002970895CF93DF93EC010E94DE2BBC015A
:1057F000CE01DF91CF910C94FE281F93CF93DF93BE
:10580000CDB7DEB7AB970FB6F894DEBF0FBECDBFF6
:1058100060E070E0CE014B960E946C2C8FEF8CA361
:105820008CEA90E09C8F8B8F81E294E09FA38EA303
:1058300082EF9BE29BA78AA71AE10E94DE2BBC01A4
:10584000CE014B960E94FE2860E0CE014B960E944E
:10585000152A87FD30C0682FCE014B960E944C2838
:10586000892B41F484E493E00E94C91283E00E94F2
:105870006933E3CFE4E4F3E0DE011196812F019078
:105880000D928A95E1F7CE014B960E94292981114C
:105890000AC0FE013196A4E4B3E0812F01900D927D
:1058A0008A95E1F703C083E00E94693384E493E0C2
:1058B0000E94CF12C2CF0E94DF12AB960FB6F894AF
:1058C000DEBF0FBECDBFDF91CF911F910895FC01C8
:1058D000878190850C9404360F931F93CF93DF93A9
:1058E000EC018B01CB010E94FB12682FCE010E94BC
:1058F000792980EC90E09983888318870F83DF9162
:10590000CF911F910F910895613011F40C944117BC
:105910000C94111FCF93DF93D82FC62F8FE18D0FDB
:105920000E942C0D882351F06C2F8D2F0E94842C07
:105930004C2F66E0DF91CF910C9472378DE095E0AB
:10594000DF91CF910C94EC350F931F93CF93DF939E
:10595000D82F062F0E9497350E940717811108C083
:1059600083E090E00E942C18882341F080E209C077
:1059700080918A03882321F082E403C08DE601C070
:1059800082E69091A403911102C00E94A3358091F8
:10599000A403882349F110E0C1E09091A6031917F0
:1059A00000F5412F50E02091A503332727FD3095C6
:1059B0004217530761F08091A4038C2331F080914A
:1059C000690480FF04C082E003C081E001C080E080
:1059D0000E94A335C03811F0CC0F01C0C0E01F5F9A
:1059E000DCCF88E0891B01C087E00E94283611E0E7
:1059F0001D0F812F0E942F378AE30E94A335602F4D
:105A00008D2F0E948A2C0E942F360E949B351630C3
:105A1000C8F4C2E0CD0F8C2F0E942F378AE30E947A
:105A2000A335602F812F0E948A2CC63059F083E065
:105A30008D0F0E942F378AE30E94A335602F8C2F91
:105A40000E948A2CDF91CF911F910F910C942F36D9
:105A500061E080E00C94A42C61E083E00C94A42C21
:105A600066E080E00C94A42C66E083E00C94A42C07
:105A7000CF93DF9380914203833019F0C0E0D0E0F0
:105A800002C0C0E0D0E88091CF038111D05C0E94B9
:105A90006A1421E030E00090430302C0220F331F5C
:105AA0000A94E2F72C0F3D1F40E052E002C0440F81
:105AB000551F8A95E2F7C901840F951FDF91CF9199
:105AC0000895DF92EF92FF920F931F93CF93DF938E
:105AD000CDB7DEB762970FB6F894DEBF0FBECDBF6D
