:100000000C94C4050C94EC050C94EC050C94EC05D4
:100010000C943A080C94EC050C94EC050C94EC054B
:100020000C94EC050C946A080C94EC050C94EC050B
:100030000C94EC050C94F9080C942E090C94EC0526
:100040000C9416080C94EC050C94EC050C94EC053F
:100050000C94EC058D1294129A129D129712A31211
:10006000A012AD12AA12563458345A345E345E349B
:100070005C34623460340000000080C64E5A0000D8
:1000800000007C6B0831000133000028D00780019C
:1000900033004023E80300000000C0AE4E5AFC537A
:1000A00050143FA0540B0000000000BBC436801861
:1000B0006009DC377017000000000000000000003D
:1000C000000044C4FA0E0000000000C4FB0E000053
:1000D000000068C4FD0E00000000AAC5160F000055
:1000E000000040C6190F0000000040C72D0F00009F
:1000F000000040C6190F0000000040C72D0FB000DF
:1001000032006001E8034F0132009E022C01FF0023
:1001100000000A00050400000004090000FF0101BE
:10012000000A010505000001040A0000FF020200A8
:1001300000020506000002040B0000FF030300009C
:10014000030507000003040C0000FF0000000A0480
:100150000513020004040D0000FF0101000A05055B
:1001600013040005040E0000FF0202000006051340
:10017000010006040F0000FF030300000705130839
:100180000007041000008A0100006F7074696F6E30
:10019000730046000300881370170100320032001C
:1001A0001027000000000300000000008025000070
:1001B000004B00000096000000E1000000C20100BA
:1001C0000100010001000100010001000100010027
:1001D00001000100B0040807520300005203B004FC
:1001E0000807E8030000E803D0079209D6060000DC
:1001F0006C07E40C100ED007E40CB80B100E0410C2
:10020000C409A60EAC0D740E6810B80B0A0F890C49
:10021000740ECC10B80B0A0F890C740EFE10B80BBC
:100220000A0F890C40066C07140540067805470A3A
:10023000420A3D0A380A330A2E0A290A240A1F0AEA
:100240001A0A150AEE1733181D19871A821AB71AD7
:10025000741B061C801B0F1C0C1C161C3D1C441C14
:10026000681C081FD81EDE1E4B2184194D21000179
:10027000A00798070000AF07A8070000BF07B60750
:100280000000D007C807000064002C016400E803E8
:10029000DE07D8070000EB07E407000006090A0B99
:1002A0000C0D0E0F100621222324252627281514B5
:1002B0002D08270821081B0815080F08090803083E
:1002C000FD07F707F10700006F0866085A084E0897
:1002D000420833080000640A5A0A4C0A0000440924
:1002E000FF7F02001204010000000A0041090F0014
:1002F00003009931FE7FA32A00002F090F0045005B
:100300008203FF7F6400F47E2B090F004000860308
:10031000FF7F0100581B20090F0040008803FF7F6A
:1003200001008813DE080F004C009203FF7F0000DD
:10033000E8033D090E8041008A030A00000088138B
:100340003409018041008A030A0040063A0739094E
:100350000F8041008C030A000000881324090E80DE
:1003600040008E03FF7F0100581B19090F804000D9
:100370009003FF7F010088130F090C8048009E0343
:1003800001000300C800060901004D009E030100A2
:1003900000000100010920004800A0030100ECFF5B
:1003A0000000F8080F004D00940301000000010058
:1003B000F00840004A06A2030A000A008403E40889
:1003C00010004403960364005802AC26D4080F00C2
:1003D00047009C0301000100FA00C8080F00490013
:1003E000A403010000000500BE080F804B009A0323
:1003F000010001006300B3080F804D009803010065
:1004000000000100000000000000000000000000EB
:1004100000002E028003D80AC90AC10AB70AAB0A33
:10042000A30A940A890A7A0A6D0A000304070809D4
:10043000000307080900010203040708090001027C
:1004400003040506070809090A0AFF7F4900660335
:10045000010000006400020AFF7F0200260501007F
:1004600000000400F709010044006A036400580218
:10047000AC26EC09FF7F44036C0364005802AC26F1
:10048000E609FF7F4D006E03010000000100DE0958
:10049000FF7F4000700301000100F401D609FF7FD7
:1004A0004000720301000100F401CA09FF7F41030B
:1004B0007403E803581B3075BF09FF7F4D007603B6
:1004C000010000000100B909FF7F020018050100CA
:1004D00000000400B1090200010014050100000041
:1004E0000400AA09FF7F02000C05010000000100C2
:1004F000A409FF7F000000000000000000000000D1
:1005000000000000000000000000000010057E0355
:1005100056094D09AC017A031C0578039B0994091F
:100520008E0985097C092A0568039B0975096D09EF
:1005300065095D0920202D2D202000636865616C10
:10054000692D636861726765720A76302E39395F8A
:1005500032303135303730380063616C6962617434
:10056000696F6E206572726F7200706C6561736581
:100570002063616C69627261746500656570726F99
:100580006D2072657365740A6572726F723A20002D
:10059000726573657474696E6720656570726F6DDE
:1005A000002020202020202020202020207965737A
:1005B00000656570726F6D2072657365743A0052E4
:1005C00045564552534520504F4C415249545900CD
:1005D0006572726F723A2020202000636F6D706C1C
:1005E0006574653A2000E23100800000A62FFFFF0D
:1005F0000480F230FFFF0480EA2FFFFF0480B23056
:1006000000020880BE3000020880D2300002008064
:10061000552D00C00000592D00C00000592D00C00C
:1006200000005D2D00400480612D00400480652D98
:10063000004004807130FFFF04803130FFFF0080F4
:100640008F30FFFF00005132800100804731FFFFF3
:1006500000000000FFFF0000250064656C7461204D
:10066000543D20004E2F4100546578743D00646570
:100670006C746120563D20006D6178566F75743D35
:100680000054696E743D002D00546578743D00205F
:100690006C696D69743D0056696E7075743D0077C4
:1006A0006972657320523D00626174742E20523D60
:1006B000006220004C696D6974733A20006E6F20EF
:1006C00064542F7400B3080F004D0098030100001C
:1006D0000001003D090E0041008A030A0000008865
:1006E0001339090F0041008C030A00000088130031
:1006F00000000000000000000000000000252000B5
:1007000043684342426C44694643537453424359DD
:100710004343000100010001000A000A000B0064CD
:100720000001000300080009000A000B000C000192
:100730000002000400060008000A000C00E80301A3
:100740007A0BE80300780B640000760B64000073FA
:100750000B640000710BE803016E0BE803016C0BE6
:100760000100006A0BE80301780B010000630B64D1
:100770000000660B010000640B010000640B010027
:10078000000000010000610B16191B1A1C0705066A
:100790002122232425262728566D696E75733A0079
:1007A00056706C75733A200076616C75653A00740A
:1007B000656D703A2000706F696E7420322E007083
:1007C0006F696E7420312E00496F75743A202000D5
:1007D00076616C75653A20003330306D4100313000
:1007E000306D4100313030306D41003130306D417D
:1007F00000566F75743A0056312D383A00566238FB
:100800003A20005662373A20005662363A200056A7
:1008100062353A20005662343A20005662333A205C
:10082000005662323A20005662313A200056696E14
:100830003A20006578706572742044414E474552F5
:10084000210074656D7020696E7465726E00746548
:100850006D702065787465726E00492064697363F9
:100860006861726765004920636861726765007638
:100870006F6C746167650062616C616E63652070A6
:100880006F72742100626174746572792100646909
:1008900073636F6E6E65637400636F6E6E65637411
:1008A0000064542F6474002D64560056206C696DEA
:1008B0006974006164617074206469733A00442F44
:1008C0004320726573743A00442F43206379636C4C
:1008D00065733A0063617020434F66663A0074693D
:1008E0006D653A007C657874726E2054434F3A000F
:1008F0007C64542F64743A00657874726E20543AA4
:10090000007C64563A00656E61622064563A00626B
:10091000616C2E206572723A006D696E49643A000E
:1009200049643A006D696E49633A0049633A00438D
:1009300061703A0056636F3A0056643A0056633A63
:1009400000563A00626174746572793A00616476A7
:10095000616E6365640073696D706C6500542D7021
:10096000726F67720054656D706572610070726FAE
:100970006772616D00616C77617973006578742EC0
:1009800020416463006578742E20646562006465AC
:10099000627567006E6F726D616C0064697361628D
:1009A0006C6564007265736574006D656E75733A8D
:1009B000007C73706565643A00554152543A006199
:1009C0006463206E6F6973653A00696E7075742098
:1009D0006C6F773A20006D696E2049643A006D694A
:1009E0006E2049633A00626565703A00646973631A
:1009F00068206F66663A007C66616E2054206F6ED8
:100A00003A0066616E206F6E3A006261636B6C69DA
:100A10006768743A004E695A6E004C343335004CA6
:100A2000343330004C69706F004C696C6F004C6956
:100A300066650050622020004E694D48004E6943B3
:100A40006400556E6B6E004E6F6E65007265736567
:100A5000742064656661756C740063616C696272B0
:100A60006174650073657474696E677300656469A9
:100A70007420626174746572790063617061636986
:100A8000747920636865636B00443E4320666F722F
:100A90006D61740073746F726167652B62616C6164
:100AA0006E630073746F72616765006661737420B2
:100AB0006368617267650064697363686172676522
:100AC0000062616C616E6365006368617267652BCB
:100AD00062616C616E636500636861726765006581
:100AE00078742E74656D702E6375746F666600740D
:100AF000696D65206C696D6974006361706163691B
:100B00007479206375746F666600696E7075742001
:100B10005620746F206C6F77004857206661696CAF
:100B20007572650062616C616E63657220646973E1
:100B3000632E00696E742E74656D702E6375746F0C
:100B40006666006261747465727920646973632EED
:100B5000006E6F6C696D697400206E6F007965734B
:100B6000005500006D00432F6D002500F400416822
:100B70000043005768005700560041009506650A7B
:100B80002011ED2B202F693111241FBECFE5D8E0B5
:100B9000DEBFCDBF10E0A0E6B0E0E8EBF8E702C0B2
:100BA00005900D92A43CB107D9F715E0A4ECB0E094
:100BB00001C01D92A330B107E1F71BE0C8E8DBE0FC
:100BC00004C02297FE010E94FF3BCC37D107C9F732
:100BD0000E941B110C945A3C0C94000020E042E04F
:100BE00060E184EC90E00E9435390E94ED080C949D
:100BF0009906CF92DF92EF92FF92482F282F30E094
:100C0000A0E0BDE70E946B3B6B017C01A4E6B0E075
:100C1000A41BB10924E630E00E947A3B6C0D7D1DD7
:100C20008E1D9F1D24E630E040E050E00E94BC3B5A
:100C3000B9018DE0FF90EF90DF90CF900C94D70832
:100C4000882311F0909A089590980895089580FF50
:100C500002C0979A089597980895811102C0969AB4
:100C6000089596980895811102C0929A08959298D5
:100C70000895811107C0939AC4980E942D0680E0C0
:100C80000C9433069398C49A0895BC018EE00C949A
:100C9000D708BC018EE00C94D70880FF02C0C09A30
:100CA00001C0C09881FF02C0C19A01C0C19882FFF3
:100CB00002C0C29A01C0C29883FF02C0C39A01C099
:100CC000C39884FF02C0DE9A01C0DE9885FF02C08F
:100CD000DF9A01C0DF9886FF02C0AE9A01C0AE98CD
:100CE00087FF02C0AF9A0895AF98089580E00E94F0
:100CF000390680E00E94200680E00E94270680E0FE
:100D00000E944D068C9A8B9A889A8F9AB89AB99AB3
:100D1000BA9ABB9AD69AD79AA69AA79ABC9A8D9A4B
:100D20008E9A8D9A8A9A0895089584EC90E00C9496
:100D30008A39D598D498DD98DC98BF9ABE9ABD9A26
:100D40008EEA86B9369A089534B145B1E091D5005E
:100D5000E33131F12FB7F894832F90E0942BF0E03A
:100D6000DF01AA0FBB1FAD51BD4F11969C938E930F
:100D70003091CD00332391F0EE0FFF1FEE0FFF1FD8
:100D8000E75FFC4F4081518162817381480F591F99
:100D9000611D711D40835183628373832FBF08954A
:100DA0002091D6003091CA0047FD02C0232B02C01B
:100DB000209523232093CA0008950E94AB2190938D
:100DC0000603809305030E94EB1A90930803809317
:100DD00007038091CD00882309F485C00E94AB21D0
:100DE00040914D0350914E0360914F037091500319
:100DF000480F591F611D711D40934D0350934E03C1
:100E000060934F03709350030E94EB1A409151037B
:100E1000509152036091530370915403480F591F2E
:100E2000611D711D4093510350935203609353030E
:100E3000709354038091550390915603019709F0E4
:100E400050C08091110390911203A0911303B091AF
:100E50001403B695A7959795879580931103909362
:100E60001203A0931303B09314038091090390918C
:100E70000A03A0910B03B0910C03B695A795979523
:100E800087958093090390930A03A0930B03B09373
:100E90000C0380910D0390910E03A0910F03B0916C
:100EA0001003B695A7959795879580930D0390931A
:100EB0000E03A0930F03B09310038091150390913C
:100EC0001603A0911703B0911803B695A7959795AF
:100ED00087958093150390931603A0931703B093FF
:100EE00018030C94C90D089508958091760390918C
:100EF0007703892BE9F04091D2004423C9F081E0C7
:100F000090E00090CF0002C0880F991F0A94E2F78A
:100F100020915503309156032F703FB7F8945BB37F
:100F20009BB3982B9BBB240F2A95F1F75BBB3FBF6C
:100F300008958091CC008F5F883108F080E0809325
:100F4000CC0085E0EEECF0E0A3EDB0E001900D9276
:100F50008A95E1F76091CC006F5F683108F060E03E
:100F600085E0689FB0011124625F7E4F45E050E04C
:100F70008EEC90E00E94033C8091CC0081110CC06B
:100F80000E94DD06809155039091560321E0892B44
:100F900009F420E02093CD000895CF93DF930E94C1
:100FA000A4068091CB0091E0980F9093CB008730FE
:100FB00079F118F4882359F033C0883069F1893009
:100FC00079F51092CB00DF91CF910C949907809125
:100FD000CE0087FD25C02FB7F8949091CE0088B33E
:100FE000392F3170C32F30E0D32FCC0FDD1FCC0F42
:100FF000DD1F92FB332730F9C32B9270C92B90E28F
:10100000C902E00111248F718C2B88BB2FBF08C04F
:10101000DF91CF910C9475078091CF00806287B9E2
:10102000DF91CF9108958091CA0008951F920F9289
:101030000FB60F9211242F933F934F935F936F93AB
:101040007F938F939F93AF93BF93EF93FF930E94F0
:10105000CD07FF91EF91BF91AF919F918F917F91BC
:101060006F915F914F913F912F910F900FBE0F9015
:101070001F9018951F920F920FB60F9211242F9365
:101080003F934F935F936F937F938F939F93AF9310
:10109000BF93EF93FF930E949434FF91EF91BF9120
:1010A000AF919F918F917F916F915F914F913F9100
:1010B0002F910F900FBE0F901F90189588E085BD5F
:1010C00085B5846085BD14BC8CE783BD89B7806815
:1010D00089BF08951F920F920FB60F9211242F937C
:1010E0003F934F935F936F937F938F939F93AF93B0
:1010F000BF93EF93FF932091DE003091DF0080914A
:10110000DA009091DB00820F931F9093DB008093B5
:10111000DA002091DC003091DD008091D8009091C0
:10112000D900820F931F9093D9008093D8002FB7D6
:10113000F8948091DA009091DB0035E096958795E0
:101140003A95E1F79BBD8ABD8091D8009091D90076
:1011500045E0969587954A95E1F799BD88BD2FBFE3
:101160008091DA009091DB008F7199279093DB00DA
:101170008093DA008091D8009091D9008F719927DF
:101180009093D9008093D8000E942606FF91EF919A
:10119000BF91AF919F918F917F916F915F914F918F
:1011A0003F912F910F900FBE0F901F9018959FB7F2
:1011B000F8948E3039F47093DF006093DE008FB5C1
:1011C000806808C08D3039F47093DD006093DC00D6
:1011D0008FB580628FBD9FBF089580E094E097BD7A
:1011E00086BD82E08FBD89E18EBD89B7846089BFED
:1011F00008951F920F920FB60F9211242F933F93D1
:101200004F938F939F93EF93FF935A991AC04CB1CA
:101210008091F6019091F701019699272091F801AC
:101220003091F9018217930769F0E091F601F0918E
:10123000F701EA50FF4F40839093F7018093F60146
:1012400001C08CB1FF91EF919F918F914F913F9190
:101250002F910F900FBE0F901F9018951F920F9215
:101260000FB60F9211242F933F938F939F93EF9379
:10127000FF932091F6013091F7018091F801909150
:10128000F9012817390711F4559812C0E091F801B7
:10129000F091F901EA50FF4F20818091F80190917F
:1012A000F901019699279093F9018093F8012CB9DF
:1012B000FF91EF919F918F913F912F910F900FBED2
:1012C0000F901F901895CF92DF92EF92FF92CF93DD
:1012D000DF93EC016A017B01411581EE580761053E
:1012E0007105F9F0E885F98581E090E00C8802C08D
:1012F000880F991F0A94E2F7808360E079E08DE31C
:1013000090E0A70196010E94BC3B215031094109A0
:1013100051095695479537952795211580E138074E
:1013200098F0E885F985108260E874E88EE190E035
:10133000A70196010E94BC3B215031094109510986
:101340005695479537952795EC81FD813083EE8141
:10135000FF8120831D8AEA85FB85408181E090E042
:101360009C01098802C0220F331F0A94E2F7422B26
:101370004083EA85FB8540819C010A8802C0220FD8
:10138000331F0A94E2F7422B4083EA85FB852081D4
:101390000B8802C0880F991F0A94E2F78095822378
:1013A0008083DF91CF91FF90EF90DF90CF900895F1
:1013B000CF93DF93FC0182819381DC01B395EC0133
:1013C000CE5FDE4F4D915C91119728813981421794
:1013D0005307C1F7A285B3854C9181E090E09C0151
:1013E000018802C0220F331F0A94E2F720952423BC
:1013F0002C93A285B3854C919C01028802C0220FD8
:10140000331F0A94E2F7209524232C93A285B385F9
:101410002C91038802C0880F991F0A94E2F78095E7
:1014200082238C9380819181FC01EE5FFE4F2081AD
:101430003181FC01F39531832083DF91CF910895B1
:10144000FC018589882329F0A085B1858C9186FFD0
:10145000FBCF158A0895CF93DF93FC01228133815E
:10146000D901B3958D919C91119701969927E90126
:10147000CE5FDE4F4881598184179507D9F30D90CF
:10148000BC91A02DA20FB31F6C93A281B381B39521
:1014900011969C938E93A285B3852C9181E090E068
:1014A000038802C0880F991F0A94E2F7282B2C9317
:1014B00081E0858B0084F185E02D808180648083CC
:1014C00081E090E0DF91CF91089586EF90E09093D6
:1014D000E1008093E0009093E3008093E20080E4D9
:1014E00090E09093E5008093E40029E230E03093AF
:1014F000E7002093E6002BE230E03093E9002093F0
:10150000E8002AE230E03093EB002093EA00909369
:10151000ED008093EC008CE290E09093EF008093DC
:10152000EE0084E08093F00083E08093F10087E098
:101530008093F20085E08093F30081E08093F400D3
:101540000895CF93DF931F92CDB7DEB7E091FF04EC
:10155000F0910005309711F4E3E0F5E0CE0101963B
:101560002EEB8E179F0710F02193FBCF0F90DF918A
:10157000CF910895CF93DF9300D0CDB7DEB7209100
:10158000FF04309100052115310511F423E035E009
:10159000CE010196821B930B0F900F90DF91CF919C
:1015A0000895CF93DF931F92CDB7DEB72091FF044C
:1015B000309100052115310511F423E035E0F901E2
:1015C000AE014F5F5F4FCF01821B930B4E175F073A
:1015D00028F060816E3B11F43196F5CF0F90DF91CA
:1015E000CF910895009741F0EFE9FFE03197F1F7CF
:1015F00000C000000197F6CF08958436910538F0B9
:1016000064E670E00E94A83BCB010C94F20A0197BB
:1016100028F025E32A95F1F70000F9CF08956AE054
:1016200070E00E94A83BCB010C94FD0AE82FF0E08B
:10163000EE0FFF1FE354FD4F808191810895E82F45
:10164000F0E0EE0FFF1FE559FD4F80819181089575
:101650002FB7F894E82FF0E0EE0FFF1FED51FD4F8C
:10166000808191812FBF08958091580308958091C2
:101670001702909118020895809105029091060238
:10168000089580910702909108020895E82FF0E0F4
:10169000EE0FFF1FE75EFD4F808191810895262F99
:1016A000633110F4423040F021E030E0FC0133833C
:1016B000228331832083089550E0BA01620F711DA7
:1016C000620F711D660F771F660F771F645F7F4F74
:1016D00044E050E00C94153C282FCA01233188F4D3
:1016E000623078F470E0620F711D620F711D660F39
:1016F000771F660F771F645F7F4F44E050E00C94C4
:10170000333C0895FF920F931F93CF93DF9300D044
:1017100000D0CDB7DEB706E710E0F12CF801459117
:1017200055916591749149835A836B837C83AE0193
:101730004F5F5F4F60E08F2D0E946C0BF801349675
:10174000459155916591749149835A836B837C834C
:10175000AE014F5F5F4F61E08F2D0E946C0BF394E1
:10176000085F1F4F83E1F812D9CF81E00E94A711D3
:101770000F900F900F900F90DF91CF911F910F91CD
:10178000FF90089581E02091990230919A022531CD
:10179000310509F080E008958091970290919802B8
:1017A00008958091930290919402089580919D02F2
:1017B00090919E0208958091450290914602039770
:1017C00050F080914B0290914C02039720F083E0FF
:1017D00090E00C945F1880E008952FB7F89480E0B3
:1017E00090E0FC01EE0FFF1FEE0FFF1FE75FFC4FC5
:1017F000108211821282138201968331910589F73A
:1018000084E690E09093560380935503109257031B
:101810002FBF0895CF93CFB7F8941092160210926D
:1018200015021092110210921202109213021092DD
:10183000140210920D0210920E0210920F021092DA
:1018400010021092090210920A0210920B021092DA
:101850000C020E94BC349093040280930302CFBF19
:10186000CF9108950E940A0C10920802109207026C
:1018700010920602109205020895E9E1F2E0119239
:10188000119282E0EB36F807D1F70895CF93CFB7E6
:10189000F89481E090E0909356038093550381E0A3
:1018A000809357030E943D0CCFBFCF910895CF93F3
:1018B000DF930E94460CC0911702D09118028091CC
:1018C000170290911802C817D90729F48AE090E00E
:1018D0000E94E234F4CFDF91CF9108951092580323
:1018E00080E00C943906CF93DF9381E00E94280BAF
:1018F000EC0180E00E94280B8C179D0718F4C81B90
:10190000D90B02C0C0E0D0E081E0C93ED34008F46A
:1019100080E0DF91CF9108958F929F92AF92BF9216
:10192000CF92DF92EF92FF92CF93DF93CDB7DEB7E6
:1019300028970FB6F894DEBF0FBECDBFF82E5B011F
:1019400061157105D1F140E0682FCE0105960E9426
:101950004F0B41E06F2DCE0101960E944F0B2B8162
:101960003C8140E050E0CF80D884E12CF12C2C1950
:101970003D094E095F09B50180E090E08D809E80B1
:10198000A12CB12C681979098A099B090E948C3B0A
:1019900029813A8140E050E0281939094A095B0958
:1019A0000E94DE3B2C0D3D1D4E1D5F1D57FF03C0E9
:1019B00020E030E0A901C90102C080E090E0289653
:1019C0000FB6F894DEBF0FBECDBFDF91CF91FF9071
:1019D000EF90DF90CF90BF90AF909F908F90089541
:1019E0008F929F92AF92BF92CF92DF92EF92FF922F
:1019F000CF93DF93CDB7DEB728970FB6F894DEBF4D
:101A00000FBECDBFF82E5B0161157105D1F140E02D
:101A1000682FCE0105960E944F0B41E06F2DCE013D
:101A200001960E944F0B29813A8140E050E0CD8021
:101A3000DE80E12CF12C2C193D094E095F09B5011E
:101A400080E090E08F809884A12CB12C68197909EE
:101A50008A099B090E948C3B2B813C8140E050E02D
:101A6000281939094A095B090E94DE3B2C0D3D1DEE
:101A70004E1D5F1D57FF03C020E030E0A901C901E2
:101A800002C080E090E028960FB6F894DEBF0FBE4B
:101A9000CDBFDF91CF91FF90EF90DF90CF90BF90BF
:101AA000AF909F908F90089582508B3130F4E82F43
:101AB000F0E0EF58FF4F8081089581E00895CF93C3
:101AC000DF93853149F481E02091990230919A02A7
:101AD00025313105C1F41AC0E82FF0E0EE0FFF1FE9
:101AE000E559FD4FC081D1810E94540D882319F022
:101AF000813029F00AC081E0E39740F404C081E01E
:101B0000C935D24018F480E001C081E0DF91CF9167
:101B10000895CF93C0E081E28C0F0E945F0D88236F
:101B200029F0CF5FC830B9F788E001C08C2FCF9182
:101B300008951F93CF93DF931F92CDB7DEB7182F71
:101B400069830E94540DE12FF0E0EE0FFF1FE5596D
:101B5000FD4F482F6981808191810F90DF91CF9156
:101B60001F910C94A3372FB7F8946091FF017091E7
:101B7000000280910102909102022FBF2DE730E018
:101B800040E050E00E94BC3BBB27A52F942F832F41
:101B900008958091550390915603892B49F08091C7
:101BA00055039091560301979093560380935503E4
:101BB000089590E0880F991FFC01E559FD4F2081A1
:101BC00031816217730718F4261B370B04C0AB0171
:101BD000421B530B9A01FC01E75EFD4F2730310594
:101BE00018F01182108206C0208131812F5F3F4F93
:101BF00031832083FC01E559FD4F71836083089593
:101C00008FB7F8941092FF01109200021092010217
:101C1000109202021092FB011092FC011092FD0141
:101C20001092FE018FBF0E94460C0E94320C60E0B1
:101C300070E08BE10E94D90D60E070E08DE10E94C0
:101C4000D90D60E070E08EE10E94D90D60E070E097
:101C50008FE10C94D90D10921802109217020E9475
:101C6000000EEBE6F2E01192119282E0ED3BF807F4
:101C7000D1F70895CF93DF931F92CDB7DEB7909140
:101C8000580391110FC069830E943906698161115F
:101C90000E942B0E81E0809358030F90DF91CF912B
:101CA0000C94570C0F90DF91CF9108950C942B0E4C
:101CB00080915803882309F44FC040919D025091B0
:101CC0009E028091FF0190910002A0910102B091CB
:101CD0000202840F951FA11DB11D8093FF019093F7
:101CE0000002A0930102B09302028091FA0191E0F8
:101CF000980F9093FA01883578F1209193023091F2
:101D00009402DA010E946B3B24E630E040E050E0B0
:101D10000E94BC3B8091FB019091FC01A091FD01D0
:101D2000B091FE01280F391F4A1F5B1F2093FB0152
:101D30003093FC014093FD015093FE01CA01B901AB
:101D400020EA3CE840E050E00E94BC3BB9018CE155
:101D50000E94D90D1092FA010895CF92DF92EF926E
:101D6000FF920F931F93CF93DF931F92CDB7DEB7F0
:101D7000C0906B02D0906C0280916D0290916E02C7
:101D80008C159D0518F4C81AD90A02C0C12CD12C93
:101D9000B60184E10E94D90D0DE712E091E2F8014D
:101DA000619171918F01892F99830E94D90D998139
:101DB0009F5F9932A1F70E94890DF82E80E000E024
:101DC00010E08F1569F0E1E2E80FF0E0EE0FFF1F81
:101DD000E559FD4F20813181020F131F8F5FF1CF35
:101DE000B80185E10E94D90D0115110581F00C158E
:101DF0001D0520F49601201B310B03C098012C19FE
:101E00003D09293B3B4018F4680115E102C014E18B
:101E1000F12CB60186E10E94D90D6F2D70E088E1AA
:101E20000E94D90D612F70E087E10E94D90D0E94B8
:101E3000B30D7C010E94DC1A882329F00091710205
:101E4000109172020BC00E949C21882329F00091FE
:101E50006F021091700202C000E010E0B80189E149
:101E60000E94D90DB7018BE10E94D90D9801D601CE
:101E70000E946B3B20E137E240E050E00E94BC3B17
:101E8000B9018AE10F90DF91CF911F910F91FF90DF
:101E9000EF90DF90CF900C94D90D4F925F926F929C
:101EA0007F928F929F92AF92BF92CF92DF92EF92EA
:101EB000FF92CF93DF93CDB7DEB728970FB6F89494
:101EC000DEBF0FBECDBF0E94BC3420910302309113
:101ED0000402821B930B8133954708F4A0C04FB7CF
:101EE000F8942091150230911602A8EEB3E00E94FA
:101EF0006B3B6B017C01F694E794D794C7944090B8
:101F000011025090120260901302709014026091BE
:101F10000D0270910E0280910F029091100280903C
:101F2000090290900A02A0900B02B0900C024FBFE1
:101F30006D837E838F8398870E940A0C209107020D
:101F4000309108022F5F3F4F309308022093070221
:101F50006D817E818F819885A70196010E94BC3B8F
:101F600029833A834B835C83C301B201A7019601A5
:101F70000E94BC3BB90180E00E948C0C3C0169814D
:101F80007A8181E00E948C0C8615970518F4681AF6
:101F9000790A02C0612C712C4090A7025090A802CF
:101FA0006414750420F0B3018EE10E94D90DB301D1
:101FB000641975098DE10E94D90DC501B401A7010D
:101FC00096010E94BC3BB90187E00E948C0C2091D5
:101FD0000502309106029093060280930502BC012F
:101FE000621B730B660F771F8FE10E94D90DB6013C
:101FF00080E228960FB6F894DEBF0FBECDBFDF910A
:10200000CF91FF90EF90DF90CF90BF90AF909F90D7
:102010008F907F906F905F904F900C94D90D289681
:102020000FB6F894DEBF0FBECDBFDF91CF91FF900A
:10203000EF90DF90CF90BF90AF909F908F907F9068
:102040006F905F904F900895CF92DF92EF92FF9242
:102050000F931F93CF93DF932FB7F894809155037D
:10206000909156032FBF892B09F0ADC08091570383
:1020700081119FC080911702909118020196909350
:102080001802809317024091090350910A0360914E
:102090000B0370910C037695679557954795809142
:1020A000110290911202A0911302B0911402840FB8
:1020B000951FA61FB71F8093110290931202A09341
:1020C0001302B093140240910D0350910E036091DE
:1020D0000F037091100376956795579547958091FA
:1020E0000D0290910E02A0910F02B0911002840F88
:1020F000951FA61FB71F80930D0290930E02A09309
:102100000F02B09310024091250350912603609175
:102110002703709128037695679557954795809189
:10212000090290910A02A0910B02B0910C02840F57
:10213000951FA61FB71F8093090290930A02A093D0
:102140000B02B0930C028091150290911602019639
:1021500090931602809315020E944D0F0DEB12E032
:10216000C0E0D0E0B8EECB2EB3E0DB2EE12CF12CBA
:10217000FE01EE0FFF1FEE0FFF1FE75FFC4F6081B8
:10218000718182819381A70196010E94BC3BF80175
:10219000219331938F01B9018C2F0E948C0CBC01CB
:1021A0008C2F0E94D90D2196C331D10509F70E94C9
:1021B000AD0EDF91CF911F910F91FF90EF90DF90C7
:1021C000CF900C94ED0BDF91CF911F910F91FF9069
:1021D000EF90DF90CF9008958091580381110C9477
:1021E0002410089560E089E593E00E94422A87FD6B
:1021F0000AC0811102C00C94742A992787FD90951A
:1022000001970C94C52B08950E94760678940E943D
:10221000EE050E945E080E943B220E946D1B0E94F8
:10222000560E0E94A10A0E9406130E94FF2D0E94D2
:10223000182F0C9433120E9404110E94F210FDCF4B
:1022400066E871E089E593E00E94992C80E990E0CE
:1022500090935A0380935903EDE5F3E080818C5EFF
:1022600080830895FC0124812451621710F40C949A
:10227000942C862F821B0C949716FF920F931F931A
:10228000CF93DF93EC018B0141110E94543C85E018
:10229000F82EFA9459F0CE010E942D3C8017910738
:1022A00039F084E690E00E94CE34F3CF81E001C0A3
:1022B00080E0DF91CF911F910F91FF900895EF92F1
:1022C000FF920F931F93CF93DF937B018C01E80E56
:1022D000F91ECFEFDFEF0E151F05A9F0C8010E9410
:1022E000253CC82728E0CE01969587953C2FEC0128
:1022F00030FF04C031E0C32730EAD327215099F7DB
:102300000F5F1F4FE8CFCE01DF91CF911F910F914B
:10231000FF90EF900895EF92FF920F931F93CF934A
:10232000DF931F92CDB7DEB78C017B0149830E94FA
:102330005F114981BC01C8018E0D9F1D0F90DF9177
:10234000CF911F910F91FF90EF900C943D11482F6A
:1023500068E970E08CE090E00C948B11482F68EFF6
:1023600072E086EA90E00C948B11482F6AE170E0ED
:1023700080EA93E00C948B110F931F93CF93DF931C
:10238000D82F182F1170412F63E678E680E090E097
:102390000E943D11C82F412F6CE679E682E090E063
:1023A0000E943D118111C1E0412F62E070E184E0A3
:1023B00090E00E943D118111C1E0D1FB002700F99E
:1023C000402F69E070E086E090E00E943D118111AD
:1023D000C260D2FB112710F9412F62E070E088E063
:1023E00090E00E943D118111C460D3FBDD27D0F93C
:1023F0004D2F68E070E08AE090E00E943D1181116D
:10240000C86001110E94820B80E00E94A711811117
:10241000C26011110E94851680E00E94AE118111E8
:10242000C460D1110E94211380E00E94B511811176
:10243000C8608C2FDF91CF911F910F910895CF939A
:10244000C82F0E94D62EC0FDC260C1FDC460C2FD6F
:10245000C8600E94F02E8C2F0E94BC11682F8C2F18
:10246000CF910C94F42E80E00E94BC11882321F0BF
:102470000E941F1280E0089581E0089580E00E948C
:10248000BC1181600C941F12CF930E94F52D80E542
:1024900092E09093DA038093D903C1E0C093D8030C
:1024A0001092D1030E949D14823011F4C093D10385
:1024B0000E943D1A91E0813009F090E0892FCF9180
:1024C000089561E081E00E9490198CE592E090937C
:1024D000DA038093D903089561E081E00E949019A6
:1024E00088E692E09093DA038093D903089560E040
:1024F00082E00E9490198AE492E09093DA0380933C
:10250000D90308951092D10390E08930910570F5B8
:10251000FC01E65DFF4F0C94FD3B0E949D14811170
:1025200006C00E946C1220C081E08093D1030E94FB
:1025300061121AC084E492E008C00E94771214C0AD
:1025400081E08093D10382E692E09093DA03809356
:10255000D9030AC063E081E005C06091A403660F5F
:10256000615080E00C94F0160C943D1A80E00895C0
:10257000CF93C82F0E947627882361F1C09365030B
:10258000109263031092620383E0809364030E94BD
:10259000CB3961E081E00E943A0E0E944412882308
:1025A00091F081E0809364030E947E1D0E94F52DCE
:1025B0001092D80384E00E949A33809165030E94B0
:1025C00082120E94B61D0E946E0C0E94DB39CF91D0
:1025D0000C94FE2DCF910895DC015496ED91FC9161
:1025E0005597EE0FFF1FEE0FFF1FE455FE4F65914D
:1025F00075918591949108954AE150E062E971E006
:102600000C94033CFC0180810C94F9054AE150E0F4
:1026100060EA73E086E693E00E94153C86E693E06C
:102620000C9402134AE150E060EA73E086E693E01E
:102630000E94333C81E00E94B51186E693E00C9441
:10264000021386E693E00E94FC120C941213FC0124
:102650000994FC01859194910C942713009761F0E3
:102660009C0180E0F901459154912E5F3F4F452B2D
:1026700011F08F5FF7CF089580E00895EF92FF92F9
:102680000F931F93CF93DF93EC017B018A0185E0C9
:102690000E941F0B8E159F0518F4188281E007C059
:1026A0000817190718F481E0888301C080E0DF91E2
:1026B000CF911F910F91FF90EF900895282F81E007
:1026C00090E03AE0215038F0AC01349FC001359FD2
:1026D000900D1124F7CF089597FD02C081E0089571
:1026E0008FEF0895CF92DF92EF92FF92CF9397FFF3
:1026F00008C090958095709561957F4F8F4F9F4F43
:1027000007C0611571058105910511F0C0E001C098
:10271000C1E02AE0C22ED12CE12CF12C611571050B
:102720008105910541F0CF5FA70196010E94DE3B34
:10273000CA01B901F3CF8C2FCF91FF90EF90DF90BA
:10274000CF900895BC0180E090E00C947213CF927A
:10275000DF92EF92FF920F931F93CF93DF93EC01E1
:102760007B016A01E881F981CF01B8010E94A83B91
:10277000009731F01E141F049CF4081B190B03C0B2
:102780001E141F0474F4C901801B910BE817F9078C
:1027900018F40E0F1F1F01C08901198308830DC093
:1027A0008C01C8018C0D9D1D8E179F0718F4E01B2E
:1027B000F10B01C0F601F983E883DF91CF911F91FE
:1027C0000F91FF90EF90DF90CF900895AF92BF925E
:1027D000CF92DF92EF92FF920F931F93CF93DF93ED
:1027E000EC017B016A0159016881798180E090E008
:1027F0000E947213823020F082500E945E1302C049
:1028000081E090E08C019501A601B701CE010E9404
:10281000A713DF91CF911F910F91FF90EF90DF9061
:10282000CF90BF90AF9008952FEF3FEF40E050E082
:102830000C94E6130E9427358111FCCF0E942735A6
:102840008823E1F30895CF93CAE00E94FB348111FD
:1028500008C084E690E00E94E234C150B1F780E005
:1028600001C081E0CF9108952091800330918103D0
:1028700095E0929FF001939FF00D1124E80FF11D58
:10288000EE0FFF1FE054FE4F8591949108951F9322
:10289000CF93DF93182FC0918403D09185030E94BA
:1028A00034149C01123061F4809180039091810373
:1028B000039731F4C730D10518F0219720EB34E0AD
:1028C0002C9FC0012D9F900D3C9F900D1124DF91F6
:1028D000CF911F9108951F93CF93DF93182FC0912D
:1028E0008403D09185030E9434149C0183E080937B
:1028F000A603113029F420918A0330918B0306C07E
:10290000123031F420918C0330918D031093A60383
:102910008091800390918103019721F4C9018C0F6C
:102920009D1F07C02C9FC0012D9F900D3C9F900DB7
:102930001124DF91CF911F91089580918003909190
:1029400081038A30910579F09C01255031092530A9
:10295000310558F09C012250310981E022303105C7
:1029600028F480E0089583E0089582E00895A0911E
:102970008203B091830320919C0330919D030E94B8
:102980006B3B24E630E040E050E00E94BC3B293E37
:102990008DEF38074105510520F028EE3DEF40E06E
:1029A00050E0C90108952091A0033091A1038091C6
:1029B000840390918503AC01249FC001259F900D55
:1029C000349F900D1124089582E00E944714BC01A9
:1029D00088E99AE30E94191789352BE1920710F0D4
:1029E00088E59BE1089582E00E944714BC0184ECD5
:1029F00099E00E941917893823E1920710F088E8BE
:102A000093E1089581E00E943414BC018CEC9DE8B0
:102A10000E94A83BCB01089580918203909183038B
:102A20008436910530F484E690E09093830380939C
:102A300082038091820390918303893E9D4F30F001
:102A400088EE9DEF9093830380938203809192039D
:102A500090919303893E934030F088EE93E09093F9
:102A60009303809392030E94021520918403309176
:102A700085038217930720F4909385038093840342
:102A80008091840390918503892B31F481E090E05B
:102A900090938503809384030E94E414209186031D
:102AA000309187038217930720F4909387038093D4
:102AB0008603809186039091870320918E03309145
:102AC0008F038217930720F490938F0380938E03D4
:102AD0000E94F31420918803309189038217930791
:102AE00020F4909389038093880320918803309188
:102AF000890380919003909191032817390720F45E
:102B0000309391032093900380917003909171030F
:102B100040918603509187034817590720F49093FA
:102B200087038093860340918E0350918F0348174B
:102B3000590720F490938F0380938E038091720342
:102B4000909173032817390720F490938903809399
:102B5000880320919003309191032817390720F4BE
:102B60009093910380939003089596E2899FB0011A
:102B700011246A557F4F46E250E080E893E00E94BE
:102B8000153C0C940C1596E2899FB00111246A55EE
:102B90007F4F46E250E080E893E00E94333C81E0C2
:102BA0000C94AE110E940C158091860390918703BE
:102BB00024E0969587952A95E1F790938F0380936B
:102BC0008E0308950E940C158091880390918903CB
:102BD00034E0969587953A95E1F790939103809329
:102BE000900308950E940C158091820390918303B5
:102BF0009695879590938703809386032091800311
:102C0000309181032430310531F496958795909366
:102C10008703809386038091860390918703909326
:102C20008903809388030E94D2150C94E215CF93F8
:102C3000DF9381E00E94341490938B0380938A0386
:102C400082E00E94341490938D0380938C03C09192
:102C50008003D0918103209761F580ED97E09093F8
:102C600083038093820383E090E0909385038093B5
:102C7000840388EE93E090939303809392031092E1
:102C800095031092940380E797E1909397038093C4
:102C9000960310929903109298038EE190E090931E
:102CA0009B0380939A0388E790E090939D03809321
:102CB0009C030E949D1481111EC081E090E09093BE
:102CC0009F0380939E03239719F48BEF9FEF02C01D
:102CD00081EF9FEF9093A1038093A00384E690E09F
:102CE0009093A3038093A20382E090E09093A503C6
:102CF0008093A40306C088E090E090939F038093A4
:102D00009E03DF91CF910C94F215CF931092810323
:102D1000109280030E941716C0E08C2F0E94C315EA
:102D2000CF5FC431D1F781E0CF910C94AE11CF9336
:102D3000C82F0E94B5158C2F90E001960E94FD359A
:102D40008AE30E94D4358091800390918103892B7E
:102D5000F1F00E94DC310E945D36809180039091F9
:102D60008103019781F080918203909183030E94F7
:102D7000FD358FE20E94D4358091840390918503C4
:102D8000CF910C94FD3589E0CF910C949931CF917E
:102D90000895BC0186E893E00E9414140C940C156D
:102DA000BC0188E893E00E9414140C940C152FEFDA
:102DB0003FEF41E050E0BC0182E993E00E94E6135E
:102DC0000C940C1580919A0390919B030E94311CE6
:102DD00086E592E09093DA038093D9030C943D1A30
:102DE000CF93C62F91E09093D8038093A70380914F
:102DF000A7038C1302C01092D80380FF02C080E0AA
:102E000001C083E00E948212813089F49091D8033E
:102E1000992369F08091A7038F5F8093A7030E9495
:102E2000611D0E94000E0E94E216813001F3CF91D5
:102E30000895AB019C01A8EEB3E00E946B3B9A01A0
:102E400040E050E00E94BC3BA8EEB3E00E94813B12
:102E500024E630E040E050E00E94BC3B2115310503
:102E600081E04807510520F02FEF3FEF40E050E0B0
:102E7000C90108958091CE03811113C00E94340BC3
:102E8000882381F00E94370B2091A8033091A90379
:102E9000821B930B9C0181E02330310518F080E008
:102EA000089581E008958F5D0C941F0B0F931F937D
:102EB000CF93DF9310E0CFEFDFEF00E08091D003FE
:102EC000181760F4812F0E9453178C179D0710F07C
:102ED000CE0101C0012F1F5FEC01F0CF802FDF91E9
:102EE000CF911F910F910895CF93DF939091CE03CF
:102EF000911104C0DF91CF910C9453179091AC03C2
:102F0000C82FD0E0992391F00E945317CC0FDD1FFA
:102F1000FE01E355FC4FC354DC4F208131814881D1
:102F20005981241B350B280F391F07C0FE01EE0FF6
:102F3000FF1FE355FC4F20813181C901DF91CF9103
:102F40000895EF92FF920F931F93CF93DF93C0E00A
:102F5000D0E0E12CF12C0FEF1FEF8091D00390E037
:102F6000C817D9076CF48C2F0E947417E816F9065D
:102F700008F47C018017910708F48C012196EDCFAD
:102F8000E01AF10A81E020919E0330919F032E15F3
:102F90003F0508F080E0DF91CF911F910F91FF90E6
:102FA000EF900895CF93C82F8091CE03882341F0EE
:102FB000C11106C00E94370B9093A9038093A80308
:102FC000C093CE030E943D0C8091CD03811104C0BB
:102FD0008C2FCF910C944D06CF910895EF92FF92D4
:102FE0000F931F93CF93DF9381E00E94940688E1B3
:102FF0000E941F0B8093D0030DEB13E03DEAE32EFC
:1030000033E0F32EC0E0D0E08091D00390E0C81709
:10301000D9076CF48C2F0E945317F8018193919378
:103020008F01F701819391937F012196EDCF10924B
:10303000CE031092CD0380E00E94D2171092A90314
:103040001092A8038FEF8093CF03DF91CF911F9150
:103050000F91FF90EF90089580E00E94D21781E0D9
:103060008093CD0308950E942C1880E00C94940660
:10307000FF920F931F93CF93DF938091CF0387FD30
:1030800017C00E947417EC0110E0FF24F39400E0D5
:103090008091D003181750F4812F0E947417C8171D
:1030A000D90708F40F29FF0C1F5FF2CF802F01C052
:1030B00080E0DF91CF911F910F91FF9008951F93B2
:1030C000CF93DF93EC0110E08091D003181748F400
:1030D00081E2810F0E94460B8C179D0720F01F5F35
:1030E000F3CF81E001C080E0DF91CF911F9108957F
:1030F0009F92AF92BF92CF92DF92EF92FF920F9387
:103100001F93CF93DF9386E090E00E945F1888239F
:1031100009F462C00E94DB0B882309F45DC0809132
:10312000CF0387FF04C00E9456178093CF0380917E
:10313000CF030E9453176C01A0908C03B0908D03B5
:103140004DEAE42E43E0F42E0DEB13E0C0E0D0E0B6
:10315000992493948091D00390E0C817D907B4F4D0
:103160008C2F0E9453178A159B0570F0C816D9063C
:1031700008F4912CF701819391937F01F8018193D9
:1031800091938F012196E6CF992493941092AC03EA
:103190000E94C4349093AB038093AA03992069F0F2
:1031A000DF91CF911F910F91FF90EF90DF90CF9023
:1031B000BF90AF909F900C942C180E943818DF910C
:1031C000CF911F910F91FF90EF90DF90CF90BF9024
:1031D000AF909F900C94D217DF91CF911F910F91D8
:1031E000FF90EF90DF90CF90BF90AF909F900895A9
:1031F000CF938091AC03811115C081E08093AC0323
:10320000C0E08091D003C81768F48C2F0E94531738
:10321000EC2FF0E0EE0FFF1FE354FC4F918380830F
:10322000CF5FEFCFCF9108950E94C4342091AA03BD
:103230003091AB03821B930B08958091CE038111D3
:1032400003C00E94781809C00E94F8180E9414193F
:10325000409718F080E00E94D2170E943A17882306
:1032600011F082E008958091CD038823D1F381E0AD
:1032700008951F93CF93DF93EC0110E08091D0036A
:10328000181740F4812F0E9474178C179D0720F4A3
:103290001F5FF4CF80E001C081E0DF91CF911F91EB
:1032A00008951F93CF93DF93EC0110E08091D0033A
:1032B000181740F4812F0E947417C817D90720F4FB
:1032C0001F5FF4CF80E001C081E0DF91CF911F91BB
:1032D00008956091D003662329F070E00E94A83B16
:1032E000CB01089580E090E008950E940A2261E0F9
:1032F00081E00E94901981E00E94741F8091D203A6
:103300009091D3030C94D52181E00C9420220E944B
:10331000DB0B882321F00E94B0210C940F2008952C
:10332000CF93DF931F92CDB7DEB7882341F0698337
:103330000E946B149093D7038093D6036981662310
:1033400069F080918603909187039093D5038093D1
:10335000D40380918E0390918F030CC080918803D9
:10336000909189039093D5038093D4038091900327
:10337000909191039093D3038093D2030F90DF91A8
:10338000CF9108958091D9039091DA030C94291379
:103390008091D9039091DA0302960C9429130E942C
:1033A000C8190E94B61D0C94D035CF93DF930E94AC
:1033B000C434EC010E94C4348C1B9D0B853B9105E9
:1033C00010F00E946E0C0E942735882399F388E044
:1033D000DF91CF910C949A33CF93DF930E94CF1952
:1033E0000E94C434EC0185E00E949A330E946E0C66
:1033F00093980E943F2E0E94231481110FC00E94B7
:10340000A62F0E942314811109C00E94C4348C1B72
:103410009D0B853B910568F3939AEBCF88E00E9462
:103420009A3360E081E0DF91CF910C943A0E0E94D4
:10343000CF190E946E0C0E94432E86E00E949A33A0
:103440000C94D519E091D903F091DA033496859163
:103450009491FC010994811103C00E94171A0BC0BA
:10346000813039F48091D803811105C00E94EC1994
:1034700002C081E0089580E008950F931F93CF93D9
:10348000DF931092A4040E94C21902E0C0E0D0E0D1
:1034900011E00E9427358093A4040E94682E112316
:1034A00079F00E94F61D082F0E942B1A182F8823EE
:1034B00039F00E94370BC817D90791F4111107C0D2
:1034C0008091D803882311F0011114C010E080917D
:1034D000A4048130F1F60E94F8348823D1F20AC0A6
:1034E0000E94370BEC010E94221A082F0E942B1A0F
:1034F000182FE4CF0E94C819802FDF91CF911F9120
:103500000F91089581E00E945A1B0C9433180E9479
:103510004C1B0E94EE1721E0809198039091990333
:10352000892B09F420E02093DB0380E00C94741FC6
:103530001F93CF93DF93C091D603D091D703CE01D1
:103540000E9469190E945119182F0E943A1781117F
:1035500009C0111107C00E94CC0B11E0C817D90790
:1035600008F410E0812FDF91CF911F9108951F93F0
:10357000CF93DF930E94981A182F0E94F01AEC0143
:103580008091DB03882329F0BE01812F0E94BE1F9A
:1035900001C0812F882329F081E00E945A1B81E01D
:1035A00007C0BE01812F0E94DD200E942D1B82E0FA
:1035B000DF91CF911F91089581E09091E0039111E7
:1035C00080E0089581E02091DE033091DF03232B1A
:1035D00009F480E008958091DE039091DF0308955F
:1035E0008091DC039091DD030895CF93DF931F92C8
:1035F000CDB7DEB740916C0350916D03BA017250A4
:10360000CE0101960E943E138981811112C00E9451
:10361000D10B009711F481E090E0BC0184EC99E0BB
:103620000E941917893823E1920728F088E893E16E
:1036300002C080E090E00F90DF91CF91089581303B
:1036400020E8920710F080E090E89093DF038093E9
:10365000DE030E9449060C94460CCF93DF93EC01E5
:103660000E94F51ABC01C817D90708F4BE01809161
:10367000DC039091DD038617970759F07093DD0303
:103680006093DC0382E10E94F00CDF91CF910C94F7
:103690001F1BDF91CF9108958091E003882349F0AB
:1036A00080E090E00E941F1B81E00E943306109290
:1036B000E0030895CF93C82F8091E00381110BC0E0
:1036C000CC2349F080E090E00E941F1B80E00E9424
:1036D0003306C093E003CF91089580E090E00E940C
:1036E0001F1B81E00C945A1B87E08093AA0482E0A0
:1036F0008093AB040E94933383E08093E1030895A9
:10370000FF920F931F93CF93DF938091D103882370
:1037100081F00E94890DF82E8091840301E08F11C1
:1037200001C000E011E0F11010E0813021F411231C
:1037300011F010E000E00E94C20B882309F458C089
:1037400085E10E941F0BEC0184E10E941F0BC8174A
:10375000D90728F49C012C1B3D0BE90102C0C81BB2
:10376000D90BC53FD14008F443C0C1E0011102C0EC
:1037700087E001C083E08093AA04112329F080919F
:10378000AA0482508093AA04CC2329F08091AA0431
:1037900081508093AA04011104C0111102C0CC23EE
:1037A00031F081E00E949A33111107C004C088E013
:1037B0000E949A3304C0002311F0F11002C0D0E03F
:1037C00001C0D1E00E94FB34811102C01092E103DC
:1037D000D11106C0C11104C00E94FB34883051F0E1
:1037E0008091E103823011F481E00AC082E008C0D8
:1037F000C0E0BCCF8091E1038F5F8093E103F0CF05
:10380000DF91CF911F910F91FF9008958FEF8093DB
:10381000AA0488E00C949A331092E60308950E945B
:10382000C4349093E5038093E40308950E94C43464
:103830002091E4033091E503821B930B2091E20376
:103840003091E3032817390728F081E08093E603DD
:1038500082E008951092E60381E008958091E603E6
:1038600008952CE3AC01249FC001259F900D1124E5
:103870009093E3038093E20308950E94EE170E9461
:103880000A2281E00C94741F81E00E9420220C9493
:1038900033181F93CF93DF93C091D603D091D703F2
:1038A000CE010E9469190E943919182F0E943A17F7
:1038B000811109C0111107C00E94CC0B11E08C17B7
:1038C0009D0708F410E0812FDF91CF911F9108959B
:1038D0001F93CF93DF930E94491C182F0E94B021A1
:1038E000EC01BC01812F0E94BE1F882329F081E0DA
:1038F0000E94202281E007C0BE01812F0E94DD20AE
:103900000E94D52182E0DF91CF911F91089580918F
:10391000F5039091F6032091F803222341F00E94D1
:10392000C4342091F5033091F603821B930B089564
:103930006091F1037091F2038091F3039091F4038D
:1039400028EE33E040E050E00E94BC3BC9010895FE
:103950006091ED037091EE038091EF039091F0037D
:1039600028EE33E040E050E00E94BC3BC9010895DE
:103970000F931F93CF93DF9381E00E946B148C0110
:1039800084E00E946B14EC0186E10E941F0B8017FB
:103990009107B8F4C817D907B0F49C012C1B3D0B54
:1039A000C8018C1B9D0B64E670E00E94A83BC90116
:1039B0000E94A83B6436710510F063E670E0862F24
:1039C00003C083E601C080E0DF91CF911F910F918A
:1039D0000895CF93DF930E94B81C9091F703981736
:1039E000E0F48093F7030E94871C2091FA03309142
:1039F000FB03EC01C21BD30B0E94871C9093FB03BB
:103A00008093FA038091FC039091FD038C179D072E
:103A100020F4D093FD03C093FC03DF91CF91089570
:103A20000E94E91C8091F903882311F089E601C006
:103A300084E690E02091F703821B91092091FC031A
:103A40003091FD03AC01429FC001439F900D529FF6
:103A5000900D11240895CF9320916803309169034C
:103A60002130310549F12115310511F4C0E025C09F
:103A70002430310529F48091F80381110AC0F6CF72
:103A80002230310519F4C091F80317C023303105F5
:103A9000A1F485E00E94280BBC0185E00E948C0CFB
:103AA00020916A0330916B03A90152508417950746
:103AB000E8F22817390708F4C1E08C2FCF910C9455
:103AC00020060E94B81C8093F7031092FB0310920B
:103AD000FA031092FD031092FC031092F10310926E
:103AE000F2031092F3031092F4031092ED0310927C
:103AF000EE031092EF031092F003089568E572E070
:103B000080E00E94F00C9093EC038093EB0381E043
:103B10000E946B14BC016854744F6D3C2DE8720711
:103B200010F06CEC7DE880E00E94F00C813C2FEFFF
:103B3000920710F080EC9FEF9093EA038093E903E3
:103B40000E94C20B8093F9030E94B7149093E8037C
:103B50008093E7030E94C4349093F6038093F503A7
:103B60000E94611D81E08093F80308950E94871CE4
:103B70009093F6038093F5031092F80308950E9442
:103B8000A22181111DC00E94E21A811119C00E9458
:103B90003A17882351F18091F1039091F203A0919B
:103BA000F303B091F40380599F4FAF4FBF4F809301
:103BB000F1039093F203A093F303B093F4030895F9
:103BC0008091ED039091EE03A091EF03B091F0038B
:103BD00080599F4FAF4FBF4F8093ED039093EE03FB
:103BE000A093EF03B093F003D2CF0895CF93DF9368
:103BF0008091F803811102C082E0D7C085E00E9465
:103C00001F0B20916C0330916D033E5F281739071D
:103C100018F483E39BE0C4C080E00E94280B20914D
:103C2000E9033091EA038217930758F42091EB03DC
:103C30003091EC0382179307B8F40E94DC1A8823B2
:103C400099F00E949D14823009F08FC08091840306
:103C500090918503029709F088C00E94C20B8111E0
:103C600084C083E49BE07BC0C091F9030E94C20B37
:103C7000C81719F084E29BE093C0C091D403D0919F
:103C8000D503C851DC4F0E94D60BC817D90718F4CA
:103C900089E19BE085C086E00E941F0B20917403A0
:103CA000309175038217930718F48AE09BE078C07F
:103CB0008BE10E941F0BC091E703D091E803C83E3F
:103CC0002DEFD207D9F08C179D07C0F00E94B714D2
:103CD000C817D90709F04CC00E949D1481115EC01D
:103CE0008091820390918303609186037091870392
:103CF0000E94A83B6A307105D8F550C0C09192036C
:103D0000D0919303C83E83E0D807A0F46091ED03FF
:103D10007091EE038091EF039091F00320E63AEE6C
:103D200040E050E00E94BC3B2C173D0718F08FEE9E
:103D30009AE015C08091940390919503892B09F422
:103D40005BCF87E00E941F0B209196033091970371
:103D50002817390708F050CF8FED9AE021C09093D3
:103D600063038093620381E020C083E49BE018C07A
:103D7000C091E703D091E8030E94B7148C179D0708
:103D800030F48AEF9AE090936303809362030E9479
:103D9000B7149093E8038093E703E5CF8AEF9AE0A6
:103DA000909363038093620380E0DF91CF91089545
:103DB0000E94441C0E94821A0C943318CF93DF9304
:103DC0001F92CDB7DEB78091FE03882329F08130A2
:103DD00031F40E94B71A0CC00E94681C09C00E94EE
:103DE0001D19823089F089830E94D81E89810CC0F8
:103DF000813051F49091D103992331F082E0809386
:103E0000FE030E94EE1782E00F90DF91CF9108959C
:103E1000CF93DF930E94EE1761E083E00E94901938
:103E2000C091D603D091D7038091D003811106C0F1
:103E30000E94CC0BC817D90740F40CC0CE010E94D9
:103E400069190E945119882329F00E943D1C109283
:103E5000FE030BC060E083E00E9490190E94871A65
:103E600081E08093DB038093FE03DF91CF9108957F
:103E70008091FF03813029F48091D2039091D30384
:103E8000089580E090E008952CE0829FC001112405
:103E9000855F9B4F0C944A228BE694E00C944A2257
:103EA000CF93DF9300D000D0CDB7DEB784E10E947E
:103EB0001F0B9A83898386E10E941F0B29813A8117
:103EC000281B390B3A83298389E10E941F0B9C83AD
:103ED0008B83CE0101960E944A220F900F900F9083
:103EE0000F90DF91CF910895EF92FF920F931F9360
:103EF000CF93DF93F82E81E08093FF030E94CC0BD9
:103F0000BC012091D2033091D3034091D60350914C
:103F1000D7030F2D83E694E00E9465228091D6039B
:103F20009091D7030E946919EC0110E08CE0E82E13
:103F30008091D003181798F4812F0E947417BC0148
:103F40002091D2033091D303E19EC00111240F2DA3
:103F5000AE018D5F9B4F0E9465221F5FE9CF1092DB
:103F60007104109202041092700410926F04DF9199
:103F7000CF911F910F91FF90EF9008951F93CF93D2
:103F8000DF93182FEB018091D103882361F1112376
:103F900049F080917104811105C00E942C1881E0C4
:103FA0008093710480917104882311F08530D9F4D5
:103FB0002091D2033091D303203A310510F420EA46
:103FC00030E02C173D0710F41092CD030E941D190C
:103FD0008093FF038130F1F40E94A117882319F028
:103FE0008FEF8093CF030E94381F8C179D0780F0BE
:103FF000112371F080917104853051F49091020485
:1040000081E0890F8093020481E09A3020F402C09D
:104010001092020480E0DF91CF911F9108950F93D9
:104020001F93CF93DF93EC010E94CC0BAE01BC0138
:1040300083E694E00E94272310E00CE08091D003F7
:10404000181770F4812F0E947417BC01019FC001E2
:104050001124AE018D5F9B4F0E9427231F5FEECF7F
:10406000DF91CF911F910F910895CF92DF92EF9240
:10407000FF920F931F93CF93DF936091D6037091BC
:10408000D70383E694E00E948A228C018091D603B4
:104090009091D7030E9469197C01D12C9CE0C92E14
:1040A0008091D003D81698F4CD9CE0011124CD5F07
:1040B000DB4FB701CE010E948A220817190728F0AA
:1040C000B701CE010E948A228C01D394E9CFC801A6
:1040D000DF91CF911F910F91FF90EF90DF90CF90E4
:1040E00008950F931F93CF93DF93EB012091D40397
:1040F0003091D5038C012817390708F489010E94F3
:10410000381F9C018017910708F49801C217D30744
:10411000E1F0409171044530D1F42C173D07B8F01F
:1041200082179307A0F48091D2039091D3038C1748
:104130009D0758F040910004509101048091A8031C
:104140009091A9034817590711F4CE0109C0809135
:10415000A8039091A9039093010480930004C901DE
:10416000DF91CF911F910F9108950F931F93CF93DC
:10417000DF93EC010E94CC0B909364048093630462
:10418000D0936604C093650410E00CE08091D003E6
:10419000181770F4812F0E947417019FF0011124E9
:1041A000ED5FFB4F91838083D383C2831F5FEECF8C
:1041B000DF91CF911F910F9108951F93CF93DF93BC
:1041C000182FEB010E94DB0B811108C01123E1F1D4
:1041D00020916F0430917004232BB1F10E943A17A3
:1041E000811132C0CE010E940F20CE010E94B52065
:1041F0000E9435208C179D0708F048C09C012C0FA9
:104200003D1F369527953093700420936F04BE01AF
:1042100080916F04909170040E94712090937004BB
:1042200080936F0490917104923009F1A8F499235E
:10423000C1F0913039F5112339F083E08093710496
:104240001092700410926F0480916F04909170042A
:10425000DF91CF911F910895933061F0943081F0F8
:1042600011C0112389F30E942C1881E00CC0109218
:104270007104EACF1092700410926F0484E003C0BE
:10428000112311F385E080937104DECF90937004C5
:1042900080936F04BCCF0C947519CF93DF930E9469
:1042A00087190E94CC0BEC0182E00E946B148C17E2
:1042B0009D0730F48091D4039091D5030E94D521BD
:1042C0008091D6039091D7038C179D0718F48BEA41
:1042D00098E028C00E94410B029750F180919E0304
:1042E00090919F03892B61F08DE10E941F0BEC01DF
:1042F0000E94D314C817D9071CF487EA98E012C0AB
:104300008091940390919503892B91F08FE10E9405
:104310001F0B2091A2033091A3032817390744F4FF
:1043200081EA98E0909363038093620381E001C087
:1043300082E0DF91CF91089581E090917604911110
:1043400080E0089581E02091740430917504232B5E
:1043500009F480E0089580917404909175040895A3
:10436000809172049091730408950E94D10B00977C
:1043700011F481E090E0BC0188E99AE30E941917EA
:1043800089352BE1920710F088E59BE10895813093
:1043900020E8920710F080E090E8909375048093F5
:1043A00074040E9445060C94460CCF93DF93EC01F5
:1043B0000E94B521BC01C817D90708F4BE0180913D
:1043C0007204909173046817790750F49C01261BBE
:1043D000370B2D38310568F0BC016C58710909C0E4
:1043E0009B01281B390B2D38310518F0BC0164578F
:1043F0007F4F8617970759F0709373046093720488
:1044000081E10E94F00CDF91CF910C94C721DF91E4
:10441000CF91089580917604882389F010927504D5
:1044200010927404109273041092720480E090E071
:104430000E94C72181E00E942D0610927604089503
:10444000CF93C82F80917604811113C0CC2389F0BB
:1044500080E090E00E94C7211092750410927404CD
:10446000109273041092720480E00E942D06C09393
:104470007604CF91089510927504109274041092EE
:1044800073041092720480E090E00E94C72181E0E2
:104490000C942022FC01428153814115510591F079
:1044A000A081B181B7FF03C0B195A195B10928EEF4
:1044B00033E00E947A3B9A0140E050E00E94BC3B0E
:1044C000C901089580E090E008950F93FC01CB01AD
:1044D000002341F04617570708F4CA01641775070F
:1044E00048F407C06417750708F4CA014617570750
:1044F00008F4BA01978386839183808313821282A2
:104500001582148233872287681B790B7187608735
:104510000F910895CF93DF93EC0188819981AA854B
:10452000BB85E885F985309701F19B0140E050E0BB
:10453000281B390B410951090E94813B9F014427E7
:1045400037FD4095542F0E94DE3B8A819B81280FC6
:10455000391F411D511D2115310581E048075105C5
:1045600024F457FD05C0C90105C08FEF9FEF02C0BD
:1045700080E090E0DF91CF910895DF92EF92FF927B
:104580000F931F93CF93DF93EC012A813B81241774
:10459000350720F4FA01E21BF30B03C0F901E41B19
:1045A000F50B8C819D81969587958E179F0710F549
:1045B000E880F9802417350740F48A01021B130BA9
:1045C000CB018E199F097C0105C0E61AF70A890103
:1045D000041B150BC7010E946C13D82E8885998582
:1045E0000E946C13D81206C01D830C83F986E886DE
:1045F0001B870A87DF91CF911F910F91FF90EF905A
:10460000DF9008950F931F93CF93DF93EC018B01FD
:104610009A01A885B9850E947A3B2A853B8540E0AE
:1046200050E00E94DE3BC801A0E0B0E08217930793
:10463000A407B5071CF41F821E8204C0021B130BC3
:104640001F830E83DF91CF911F910F910895EF92F9
:10465000FF920F931F93CF93DF93EC018B017A01AD
:104660000E94BD22A701B801CE01DF91CF911F9119
:104670000F91FF90EF900C9402230F931F93CF9311
:10468000DF938C01443019F0CFEFDFEF02C0C1E0BF
:10469000D0E00E94FD34D8011B96EC91F0E0EE0FC3
:1046A000FF1FE559FD4F9C01C29FC001C39F900DA4
:1046B000D29F900D112420813181820F931F91830D
:1046C0008083DF91CF911F910F910895EF92FF9218
:1046D0000F931F93CF93DF931F92CDB7DEB78C015B
:1046E000443021F0EE24EA94FE2C03C0EE24E3943F
:1046F000F12C69830E94FD34D8011B96ED91FC9149
:104700001C976981E60FF11DE491F0E0EE0FFF1FA9
:10471000E559FD4FE89E9001E99E300DF89E300D61
:10472000112480819181820F931F918380830F9048
:10473000DF91CF911F910F91FF90EF900895CF934C
:10474000DF93EC010E947933882311F0888101C046
:104750008FEFDF91CF910895CF93DF9300D000D0FA
:10476000CDB7DEB780E00E94160B9A83898381E083
:104770000E94160B29813A81281B390B3A83298321
:1047800085E10E941F0B9C838B83AE014F5F5F4FBF
:1047900061E080E00E946C0BAE014F5F5F4F61E013
:1047A00081E00E946C0B0F900F900F900F90DF91A3
:1047B000CF910895CF93DF93D82F65E878E089E90A
:1047C00098E00E94142EC0E084E10E945F0D8823CF
:1047D00099F081E20E945F0D8D17A1F0C1110CC00C
:1047E00067E778E0DD2319F089E998E002C08EE8F8
:1047F00098E00E94142EC1E00E942735813021F7F5
:1048000080E001C081E0DF91CF910895CF93DF93E5
:1048100000D000D0CDB7DEB7862F5A8349833C83C2
:104820002B83AE014F5F5F4F61E00E946C0B0F90D6
:104830000F900F900F90DF91CF910895FF920F93FB
:104840001F93CF93DF93F82E162F042F83E00E943F
:104850009A33812F0E941F0BEC01802F0E94160BB0
:10486000AC019E01602F812F0E94062481E080937D
:1048700058030E94570CFF2039F0DF91CF911F9110
:104880000F91FF900C94AC23DF91CF911F910F916A
:10489000FF900895FF920F931F93CF93DF93CDB7AF
:1048A000DEB72E970FB6F894DEBF0FBECDBF61E026
:1048B00081E00E943A0E81E00E94DA23882349F1C8
:1048C00060EB72E0CE0101960E94992C8FEF8A87EF
:1048D00086E990E09A83898385EA92E09D878C87B8
:1048E00089E08E8761E0CE0101960E94422A87FD11
:1048F00010C0082F112707FD1095F801EB55FD4F4B
:10490000F49089307CF78F2D0E945F0D882351F33E
:104910000EC00E946E0C2E960FB6F894DEBF0FBE2E
:10492000CDBFDF91CF911F910F91FF9008950E940D
:10493000570C10925803CE0101960E9456298823E5
:1049400041F0F801E456FD4F44916F2D81E00E9443
:104950001E2481E080935803C5CF1F93CF93DF932C
:10496000CDB7DEB72E970FB6F894DEBF0FBECDBF22
:1049700061E080E00E943A0E1092670060E772E00A
:10498000CE0101960E94992C8FEF8A8786E990E0EC
:104990009A8389838EE692E09D878C8787E08E8755
:1049A00061E0CE0101960E94422A87FD1FC0E82FD8
:1049B000FF27E7FDF095E259FD4F1491812F0E94EA
:1049C0005F0D882369F30E94570C10925803CE01A3
:1049D00001960E945629882329F0412F612F80E0FB
:1049E0000E941E2481E080935803DACF81E08093F7
:1049F00067000E946E0C2E960FB6F894DEBF0FBEB5
:104A0000CDBFDF91CF911F910895813119F4CB0172
:104A10000C94C721CB010C941F1BEF92FF920F93B4
:104A20001F93CF93DF93EC01443019F00FEF1FEF8A
:104A300002C001E010E00E94FD34089F7001099F50
:104A4000F00C189FF00C11240E94FD342F8538893A
:104A50008C0141E050E0B701CE010D960E94A713F2
:104A60006D857E858B85DF91CF911F910F91FF9092
:104A7000EF900C940525CF92DF92EF92FF920F9367
:104A80001F93CF93DF93CDB7DEB765970FB6F8943A
:104A9000DEBF0FBECDBFC82ED62E8A0161E081E0F9
:104AA0000E943A0E80E00E94DA23882309F468C04D
:104AB000CC2039F00E940A22E2E0EE2EF1E1FF2E36
:104AC00006C00E944C1B63E0E62E72E1F72E62E8FE
:104AD00072E0CE0101960E94992C8FEF8A872EE911
:104AE00030E03A832983FC86DD8620E030E8398B8C
:104AF000288B4D856C85CE0142960E944F0B2A89EA
:104B00003B893F872E8761E0CE0101960E94422AB1
:104B100087FD2EC08111EDCF6E857F858F2D0E9480
:104B20000525CE0101960E9456298823D9F00E94BE
:104B3000570C1D8B0C8B2E853F853B8B2A8BAE0132
:104B40004E5E5F4F6D2D8F2D0E946C0B8E2D0E943F
:104B5000160B9B8B8A8BAE014E5E5F4F6D2D8E2D9B
:104B60000E946C0B60E070E08F2D0E940525C1CF84
:104B700081E0CC2019F00E94202202C00E945A1B22
:104B80000E946E0C65960FB6F894DEBF0FBECDBFC7
:104B9000DF91CF911F910F91FF90EF90DF90CF9019
:104BA0000895EF92FF920F931F93CF93DF93CDB7AA
:104BB000DEB729970FB6F894DEBF0FBECDBF8C01CC
:104BC0007B01BC01CE0101960E94992C60E0CE01D0
:104BD00001960E94422A682F87FD10C0E82FEE0F31
:104BE000FF0BEE0DFF1D4591549181E092E00639D7
:104BF000190709F080E00E943B25E8CF29960FB6FF
:104C0000F894DEBF0FBECDBFDF91CF911F910F9102
:104C1000FF90EF9008951F93CF93DF9300D000D0C3
:104C20001F92CDB7DEB7182F6D830E94160B9A83A3
:104C30008983812F0E941F0B9C838B83AE014F5F62
:104C40005F4F6D81812F0E946C0B0F900F900F9022
:104C50000F900F90DF91CF911F9108950F931F93A5
:104C6000CF93DF93CDB7DEB72C970FB6F894DEBFA6
:104C70000FBECDBF182F062F61E080E00E943A0ED4
:104C800066E772E0CE0101960E94992C8FEF8A8729
:104C900026EA30E03A8329831C8761E0CE01019641
:104CA0000E94422A87FD12C08111F7CF109258034B
:104CB000CE0101960E945629882321F0602F812F72
:104CC0000E940B2681E080935803E7CF0E946E0C70
:104CD0002C960FB6F894DEBF0FBECDBFDF91CF91FB
:104CE0001F910F9108951F93CF93DF93CDB7DEB738
:104CF00029970FB6F894DEBF0FBECDBF182F6CE713
:104D000072E0CE0101960E94992C60E0CE010196DE
:104D10000E94422A682F87FD04C0812F0E942E2600
:104D2000F4CF29960FB6F894DEBF0FBECDBFDF914A
:104D3000CF911F910895CF93DF93CDB7DEB72A9718
:104D40000FB6F894DEBF0FBECDBF68EC72E0CE01A7
:104D500001960E94992C60E0CE0101960E94422AA1
:104D600087FD2DC08A870E94CB398A858230A9F0C1
:104D70004CF4882379F08130E1F46CE872E086E944
:104D800092E00FC0843091F07CF0853091F40E9465
:104D9000AD240FC00E944A240CC068E872E080E98C
:104DA00092E00E94D12505C087E001C085E00E9405
:104DB000732681E00E94A7110E94DB39CCCF1092AC
:104DC00064032A960FB6F894DEBF0FBECDBFDF9105
:104DD000CF910895CF93DF93EC01842F0E948C0C28
:104DE0009E0136952795A9014C0F5D1F84179507E5
:104DF00030F4C21BD30B21E0C817D90708F020E01C
:104E0000822FDF91CF91089568EE73E080E00E94D9
:104E1000F00C24E2289FB001299F700D112440E07E
:104E20008CEC9DE80C94EA26CF93DF931F92CDB7CC
:104E3000DEB7482F68EE73E049830E94F00C27E04C
:104E4000289FB001299F700D1124498188E59BE1BD
:104E50000F90DF91CF910C94EA26CF93DF931F92AE
:104E6000CDB7DEB7482F64E670E049830E94F00CAE
:104E7000BC01660F771F680F791F49818CE291E0B2
:104E80000F90DF91CF910C94EA26CF930E943312BA
:104E9000C82F882341F10E940427C82F811105C023
:104EA0008FE698E00E94112F1EC081E10E94142716
:104EB000882329F082E00E941427811106C086E62B
:104EC00098E00E94112FC0E00EC082E10E942D27C1
:104ED000882331F083E00E942D27C82F811103C061
:104EE0008AE598E0EECF8C2FCF9108950C9445275A
:104EF0001F93CF93DF93EC01162F0E94942CCE01C9
:104F000009960E949F23992787FD9095612F70E055
:104F10008617970759F0EB85FC85E60FF71F8491FC
:104F20006D85DF91CF911F910C94990DDF91CF91F9
:104F30001F9108951F93CF93DF93EC01162F84E107
:104F40000E945F0D81110FC065E878E089E998E063
:104F50000E94142E8B85823141F581E0DF91CF9143
:104F60001F910C945A1B612FCE010E94942CCE01EC
:104F700009960E949F23992787FD9095212F30E065
:104F80008217930791F0111108C065E08D859E8509
:104F9000DF91CF911F910C9495370E94D60B67E05B
:104FA000DF91CF911F910C942C38DF91CF911F91FD
:104FB00008951F93CF93DF93EC01162F0E94942C3A
:104FC000CE0109960E949F23992787FD9095212F56
:104FD00030E08217930791F0111107C067E08B85CD
:104FE000DF91CF911F910C94990D8B850E94160B28
:104FF00067E0DF91CF911F910C949537DF91CF91AE
:105000001F910895CF93DF93DC011B96CD91DC9126
:105010001C9790E080E0FE012EE0829FE00DF11DE4
:1050200011243296259134912115310599F01D9660
:105030004D915C911E9737FF03C057FF09C0305850
:1050400024233523232B21F0662329F061509F5F11
:105050008F5FE1CF892FDF91CF910895EF92FF927B
:105060000F931F93CF93DF93EC01F62E0E9402283B
:105070009EE0899F80011124EB85FC85E00FF11FE4
:10508000859194910E941D36E82ECE0109960E94CA
:105090007933882311F0298501C02FEF332727FDAD
:1050A00030956F2D70E026173707E1F06FE06E192D
:1050B000EB85FC85E00FF11F3596F490FF2029F079
:1050C000862F8F190E9459366F2D8B859C85800FF6
:1050D000911F0496DF91CF911F910F91FF90EF9058
:1050E0000C94FB32DF91CF911F910F91FF90EF90C5
:1050F0000895CF93DF93EC010E9402282B853C8515
:105100009EE0899F200D311D1124F90136964591AD
:105110005491CA01F901349624912150223030F47F
:10512000FA014591559165917491CB01DF91CF9131
:1051300008959F92AF92BF92CF92DF92EF92FF922B
:105140000F931F93CF93DF93CDB7DEB72C970FB696
:10515000F894DEBF0FBECDBF7C01D62E942E0E94E8
:1051600079288C016D2DC7010E940228D7011B965A
:105170006D917C911C97BEE08B9F600D711D112479
:10518000685F7F4F46E050E0CE0107960E94033CE7
:1051900086E0FE013796DE01119601900D928A9508
:1051A000E1F729813A81CB80DC80AD80BE80E2E0EE
:1051B0009E1619F081E090E002C08FEF9FEF2F3F25
:1051C000FFE73F0729F4BC01C8010E94141416C070
:1051D0002E3F4FE7340719F4F601099520C0829F4E
:1051E000A001839F500D929F500D1124D8018D91E5
:1051F0009C911197840F951F8D939C93F80180814A
:1052000091818C159D0514F4D182C082D8018D91B5
:105210009C911197A816B90614F4AD92BC92D701CF
:105220001F96ED91FC915097309719F0B801C70186
:1052300009952C960FB6F894DEBF0FBECDBFDF9157
:10524000CF911F910F91FF90EF90DF90CF90BF9083
:10525000AF909F900895FF920F931F93CF93DF938A
:10526000EC018B016A818B81680FCE010E940228BC
:10527000F82E1E870D876FEFCE010E9402288C83C7
:1052800010E08C81181760F4612FCE010E94022873
:105290008F1104C08A81181B1B8302C01F5FF1CFCE
:1052A000DF91CF911F910F91FF900895EF92FF92A0
:1052B0000F931F93CF93DF93EC018B819A81890F1A
:1052C00089871A8681E08D8382E0E82EFF24F3949B
:1052D0008E01075F1F4F0E942735482F823011F043
:1052E000843089F4E881F9816B818A81680F0280BA
:1052F000F381E02DCE0109958B819A81890F8987F1
:10530000EA86FD8204C0813089F0883079F0C801D6
:105310000E9484338111FD828D81882319F0CE0192
:105320000E94DD298A858F5F8A87D5CF8FEF898795
:1053300081E08E838D83483009F080E0DF91CF914A
:105340001F910F91FF90EF9008950895FC0186EB57
:1053500090E09183808312821382648381E085834D
:1053600086830895FC018481823010F022E001C020
:10537000282F9281492F50E030E021503109421707
:1053800053071CF49F5F928308952381420F511DA0
:1053900090E001974817590714F42F5F238308956D
:1053A000FC018281882319F08150828308958381D2
:1053B000882311F0815083830895FF920F931F93E8
:1053C000CF93DF93EC0100E010E0F02E602F80E03F
:1053D0000E94C2358A81081302C08EE301C080E2B8
:1053E0000E94D4356B819801260F311D8C8190E08D
:1053F0002817390744F4E881F9816F0D0190F08195
:10540000E02DCE0109950E9460360F5F1F4F0230DC
:105410001105D9F61D82DF91CF911F910F91FF9059
:1054200008950F931F93CF93DF93EC010E942735CC
:10543000182F0E949139882321F081E08D838FE716
:105440001CC00B818A81080F123031F0143039F4FE
:10545000CE010E94B22903C0CE010E94D0298B81C7
:105460009A81890F081711F081E08D838D8188233F
:1054700019F0CE010E94DD29812FDF91CF911F917C
:105480000F910895EF92FF921F93CF93DF931F9296
:10549000CDB7DEB77C0181E0F701858311E0C7015C
:1054A00069830E94112A6981811102C0F701168265
:1054B000F7019681911108C0883031F481E086832C
:1054C00083819281890F09C0662311F0F70115834A
:1054D000813029F79111E3CF8FEF0F90DF91CF91BA
:1054E0001F91FF90EF900895CF93DF93CDB7DEB774
:1054F00029970FB6F894DEBF0FBECDBF66ED72E000
:10550000CE0101960E94992C60E0CE0101960E9486
:10551000422A813039F0823041F0811109C00E9465
:105520002A2CF2CF0E949B26EFCF0E943E12ECCF96
:1055300087FFEACF29960FB6F894DEBF0FBECDBF26
:10554000DF91CF9108950F931F93CF93DF93EC01D9
:105550008091800390918103019719F402E310E098
:1055600002C001E010E00E9402159C0141E050E001
:10557000BE0184E893E00E94A713DF91CF911F91B1
:105580000F910895CF93DF938091800390918103D1
:10559000892B61F10E949D14C1E0D0E002C0CC0FC4
:1055A000DD1F8A95E2F78091940390919503892BF2
:1055B00011F4D05C09C00E949D14882319F0C05FCB
:1055C000DF4B02C0C05BDF4B0E949D14811106C0FF
:1055D00080919E0390919F03892B59F480917E03C3
:1055E00090917F03892B39F0D05805C0C0E0D0E4FA
:1055F00002C0A096F3CFCE01DF91CF910895CF9353
:10560000DF93EC0183E06038780719F40E941716E5
:1056100013C083E06238780719F40E94F2150CC0B9
:1056200083E06638780719F40E94D21505C06858DF
:10563000734011F40E94E2150E940C150E94C22AC8
:10564000BC01CE01DF91CF910C942B291F93CF93F6
:10565000DF93CDB7DEB7E7970FB6F894DEBF0FBE86
:10566000CDBF60E070E0CE0187960E94992C8FEF4D
:1056700088AB8EEA90E098A78FA38EED92E09BAB6B
:105680008AAB8FEF9AE29FAB8EAB16E20E94C22AE2
:10569000BC01CE0187960E942B2960E0CE0187963F
:1056A0000E94422A87FD1FC0E0E8F3E0DE01119668
:1056B000812F01900D928A95E1F7CE0187960E9485
:1056C000562981110AC0FE013196A0E8B3E0812F6E
:1056D00001900D928A95E1F7D9CF83E00E949A3329
:1056E0000E940C15D3CFE7960FB6F894DEBF0FBE1D
:1056F000CDBFDF91CF911F910895DC011796ED91F9
:10570000FC911897E60FF11D649186E194E00C94EA
:1057100035360F931F93CF93DF93EC018B0180E01D
:1057200061E0680FF801E80FF11DE491E93011F034
:10573000862FF6CFCE010E94A6298CEB90E09983AC
:10574000888318870F83DF91CF911F910F91089560
:105750000E949D142091800330918103232B49F0F6
:10576000833051F0823059F081110CC089E894E007
:1057700008958BE994E0089580E894E0089582E923
:1057800094E0089587E794E008951F93CF93DF9303
:10579000182F0E94B5150E94A82BEC0160E0CE01E5
:1057A0000E94422A87FD15C0EF81F885E80FF11DA0
:1057B00087FDFA958491893049F4812F0E94B515AF
:1057C0000E94262B812F0E94C315E5CF0E94B8129C
:1057D000E5CFDF91CF911F91089567E474E08BE9E5
:1057E00094E00E94892B6DE374E082E994E00E94CA
:1057F000892B60E374E089E894E00E94892B65E3DB
:1058000074E080E894E00E94892B6AE274E087E704
:1058100094E00C94892B809168039091690303971D
:10582000029718F48FEF9FE702C08EEF9FE7209159
:10583000780330917903232B09F402970895CF93CD
:10584000DF93EC010E940B2CBC01CE01DF91CF91C4
:105850000C942B291F93CF93DF93CDB7DEB7AB9773
:105860000FB6F894DEBF0FBECDBF60E070E0CE0192
:105870004B960E94992C8FEF8CA38EEA90E09C8F20
:105880008B8F88E494E09FA38EA38FE19CE29BA77B
:105890008AA71AE10E940B2CBC01CE014B960E94F4
:1058A0002B2960E0CE014B960E94422A87FD30C032
:1058B000682FCE014B960E947928892B41F486E609
:1058C00093E00E94FC1283E00E949A33E3CFE6E665
:1058D000F3E0DE011196812F01900D928A95E1F798
:1058E000CE014B960E94562981110AC0FE013196C5
:1058F000A6E6B3E0812F01900D928A95E1F703C0EF
:1059000083E00E949A3386E693E00E940213C2CF9E
:105910000E941213AB960FB6F894DEBF0FBECDBF38
:10592000DF91CF911F910895FC01878190850C94A0
:1059300035360F931F93CF93DF93EC018B01CB018F
:105940000E942E13682FCE010E94A62982EC90E0BF
:105950009983888318870F83DF91CF911F910F91CF
:105960000895613011F40C9474170C94441FCF9374
:10597000DF93D82FC62F81E28D0F0E945F0D882301
:1059800051F06C2F8D2F0E94B12C4C2F66E0DF91CF
:10599000CF910C94A33784E395E0DF91CF910C94E1
:1059A0001D360F931F93CF93DF93D82F062F0E949E
:1059B000C8350E943A17811108C083E090E00E9428
:1059C0005F18882341F080E209C08091AC038823EE
:1059D00021F082E403C08DE601C082E69091CE03FF
:1059E000911102C00E94D4358091CE03882349F1E1
:1059F00010E0C1E09091D003191700F5412F50E05D
:105A00002091CF03332727FD30954217530761F0CC
:105A10008091CE038C2331F08091AB0480FF04C0D1
:105A200082E003C081E001C080E00E94D435C0382C
:105A300011F0CC0F01C0C0E01F5FDCCF88E0891BF4
:105A400001C087E00E94593611E01D0F812F0E948E
:105A500060378AE30E94D435602F8D2F0E94B72CC7
:105A60000E9460360E94CC351830C8F4C2E0CD0FD9
:105A70008C2F0E9460378AE30E94D435602F812FDB
:105A80000E94B72CC83059F083E08D0F0E94603718
:105A90008AE30E94D435602F8C2F0E94B72CDF91AF
:105AA000CF911F910F910C94603661E080E00C94CF
:105AB000D12C61E083E00C94D12C66E080E00C9462
:105AC000D12C66E083E00C94D12C66E086E00C9447
:105AD000D12CCF93DF9380916403833019F0C0E021
